{
  "_format": "hh-sol-artifact-1",
  "contractName": "CTMRWA001BurnableUpgradeable",
  "sourceName": "contracts/CTMRWA001BurnableUpgradeable.sol",
  "abi": [
    {
      "anonymous": false,
      "inputs": [
        {
          "indexed": true,
          "internalType": "address",
          "name": "_owner",
          "type": "address"
        },
        {
          "indexed": true,
          "internalType": "address",
          "name": "_approved",
          "type": "address"
        },
        {
          "indexed": true,
          "internalType": "uint256",
          "name": "_tokenId",
          "type": "uint256"
        }
      ],
      "name": "Approval",
      "type": "event"
    },
    {
      "anonymous": false,
      "inputs": [
        {
          "indexed": true,
          "internalType": "address",
          "name": "_owner",
          "type": "address"
        },
        {
          "indexed": true,
          "internalType": "address",
          "name": "_operator",
          "type": "address"
        },
        {
          "indexed": false,
          "internalType": "bool",
          "name": "_approved",
          "type": "bool"
        }
      ],
      "name": "ApprovalForAll",
      "type": "event"
    },
    {
      "anonymous": false,
      "inputs": [
        {
          "indexed": true,
          "internalType": "uint256",
          "name": "_tokenId",
          "type": "uint256"
        },
        {
          "indexed": true,
          "internalType": "address",
          "name": "_operator",
          "type": "address"
        },
        {
          "indexed": false,
          "internalType": "uint256",
          "name": "_value",
          "type": "uint256"
        }
      ],
      "name": "ApprovalValue",
      "type": "event"
    },
    {
      "anonymous": false,
      "inputs": [
        {
          "indexed": false,
          "internalType": "uint8",
          "name": "version",
          "type": "uint8"
        }
      ],
      "name": "Initialized",
      "type": "event"
    },
    {
      "anonymous": false,
      "inputs": [
        {
          "indexed": true,
          "internalType": "address",
          "name": "metadataDescriptor",
          "type": "address"
        }
      ],
      "name": "SetMetadataDescriptor",
      "type": "event"
    },
    {
      "anonymous": false,
      "inputs": [
        {
          "indexed": true,
          "internalType": "uint256",
          "name": "_tokenId",
          "type": "uint256"
        },
        {
          "indexed": true,
          "internalType": "uint256",
          "name": "_oldSlot",
          "type": "uint256"
        },
        {
          "indexed": true,
          "internalType": "uint256",
          "name": "_newSlot",
          "type": "uint256"
        }
      ],
      "name": "SlotChanged",
      "type": "event"
    },
    {
      "anonymous": false,
      "inputs": [
        {
          "indexed": true,
          "internalType": "address",
          "name": "_from",
          "type": "address"
        },
        {
          "indexed": true,
          "internalType": "address",
          "name": "_to",
          "type": "address"
        },
        {
          "indexed": true,
          "internalType": "uint256",
          "name": "_tokenId",
          "type": "uint256"
        }
      ],
      "name": "Transfer",
      "type": "event"
    },
    {
      "anonymous": false,
      "inputs": [
        {
          "indexed": true,
          "internalType": "uint256",
          "name": "_fromTokenId",
          "type": "uint256"
        },
        {
          "indexed": true,
          "internalType": "uint256",
          "name": "_toTokenId",
          "type": "uint256"
        },
        {
          "indexed": false,
          "internalType": "uint256",
          "name": "_value",
          "type": "uint256"
        }
      ],
      "name": "TransferValue",
      "type": "event"
    },
    {
      "inputs": [
        {
          "internalType": "uint256",
          "name": "tokenId_",
          "type": "uint256"
        },
        {
          "internalType": "address",
          "name": "operator_",
          "type": "address"
        }
      ],
      "name": "allowance",
      "outputs": [
        {
          "internalType": "uint256",
          "name": "",
          "type": "uint256"
        }
      ],
      "stateMutability": "view",
      "type": "function"
    },
    {
      "inputs": [
        {
          "internalType": "address",
          "name": "to_",
          "type": "address"
        },
        {
          "internalType": "uint256",
          "name": "tokenId_",
          "type": "uint256"
        }
      ],
      "name": "approve",
      "outputs": [],
      "stateMutability": "payable",
      "type": "function"
    },
    {
      "inputs": [
        {
          "internalType": "uint256",
          "name": "tokenId_",
          "type": "uint256"
        },
        {
          "internalType": "address",
          "name": "to_",
          "type": "address"
        },
        {
          "internalType": "uint256",
          "name": "value_",
          "type": "uint256"
        }
      ],
      "name": "approve",
      "outputs": [],
      "stateMutability": "payable",
      "type": "function"
    },
    {
      "inputs": [
        {
          "internalType": "address",
          "name": "owner_",
          "type": "address"
        }
      ],
      "name": "balanceOf",
      "outputs": [
        {
          "internalType": "uint256",
          "name": "balance",
          "type": "uint256"
        }
      ],
      "stateMutability": "view",
      "type": "function"
    },
    {
      "inputs": [
        {
          "internalType": "uint256",
          "name": "tokenId_",
          "type": "uint256"
        }
      ],
      "name": "balanceOf",
      "outputs": [
        {
          "internalType": "uint256",
          "name": "",
          "type": "uint256"
        }
      ],
      "stateMutability": "view",
      "type": "function"
    },
    {
      "inputs": [
        {
          "internalType": "uint256",
          "name": "tokenId_",
          "type": "uint256"
        }
      ],
      "name": "burn",
      "outputs": [],
      "stateMutability": "nonpayable",
      "type": "function"
    },
    {
      "inputs": [
        {
          "internalType": "uint256",
          "name": "tokenId_",
          "type": "uint256"
        },
        {
          "internalType": "uint256",
          "name": "burnValue_",
          "type": "uint256"
        }
      ],
      "name": "burnValue",
      "outputs": [],
      "stateMutability": "nonpayable",
      "type": "function"
    },
    {
      "inputs": [],
      "name": "contractURI",
      "outputs": [
        {
          "internalType": "string",
          "name": "",
          "type": "string"
        }
      ],
      "stateMutability": "view",
      "type": "function"
    },
    {
      "inputs": [
        {
          "internalType": "uint256",
          "name": "tokenId_",
          "type": "uint256"
        }
      ],
      "name": "getApproved",
      "outputs": [
        {
          "internalType": "address",
          "name": "",
          "type": "address"
        }
      ],
      "stateMutability": "view",
      "type": "function"
    },
    {
      "inputs": [
        {
          "internalType": "address",
          "name": "owner_",
          "type": "address"
        },
        {
          "internalType": "address",
          "name": "operator_",
          "type": "address"
        }
      ],
      "name": "isApprovedForAll",
      "outputs": [
        {
          "internalType": "bool",
          "name": "",
          "type": "bool"
        }
      ],
      "stateMutability": "view",
      "type": "function"
    },
    {
      "inputs": [],
      "name": "metadataDescriptor",
      "outputs": [
        {
          "internalType": "contract ICTMRWA001MetadataDescriptorUpgradeable",
          "name": "",
          "type": "address"
        }
      ],
      "stateMutability": "view",
      "type": "function"
    },
    {
      "inputs": [
        {
          "internalType": "address",
          "name": "mintTo_",
          "type": "address"
        },
        {
          "internalType": "uint256",
          "name": "tokenId_",
          "type": "uint256"
        },
        {
          "internalType": "uint256",
          "name": "slot_",
          "type": "uint256"
        },
        {
          "internalType": "uint256",
          "name": "value_",
          "type": "uint256"
        }
      ],
      "name": "mint",
      "outputs": [],
      "stateMutability": "nonpayable",
      "type": "function"
    },
    {
      "inputs": [
        {
          "internalType": "uint256",
          "name": "tokenId_",
          "type": "uint256"
        },
        {
          "internalType": "uint256",
          "name": "value_",
          "type": "uint256"
        }
      ],
      "name": "mintValue",
      "outputs": [],
      "stateMutability": "nonpayable",
      "type": "function"
    },
    {
      "inputs": [],
      "name": "name",
      "outputs": [
        {
          "internalType": "string",
          "name": "",
          "type": "string"
        }
      ],
      "stateMutability": "view",
      "type": "function"
    },
    {
      "inputs": [
        {
          "internalType": "uint256",
          "name": "tokenId_",
          "type": "uint256"
        }
      ],
      "name": "ownerOf",
      "outputs": [
        {
          "internalType": "address",
          "name": "owner_",
          "type": "address"
        }
      ],
      "stateMutability": "view",
      "type": "function"
    },
    {
      "inputs": [
        {
          "internalType": "address",
          "name": "from_",
          "type": "address"
        },
        {
          "internalType": "address",
          "name": "to_",
          "type": "address"
        },
        {
          "internalType": "uint256",
          "name": "tokenId_",
          "type": "uint256"
        }
      ],
      "name": "safeTransferFrom",
      "outputs": [],
      "stateMutability": "payable",
      "type": "function"
    },
    {
      "inputs": [
        {
          "internalType": "address",
          "name": "from_",
          "type": "address"
        },
        {
          "internalType": "address",
          "name": "to_",
          "type": "address"
        },
        {
          "internalType": "uint256",
          "name": "tokenId_",
          "type": "uint256"
        },
        {
          "internalType": "bytes",
          "name": "data_",
          "type": "bytes"
        }
      ],
      "name": "safeTransferFrom",
      "outputs": [],
      "stateMutability": "payable",
      "type": "function"
    },
    {
      "inputs": [
        {
          "internalType": "address",
          "name": "operator_",
          "type": "address"
        },
        {
          "internalType": "bool",
          "name": "approved_",
          "type": "bool"
        }
      ],
      "name": "setApprovalForAll",
      "outputs": [],
      "stateMutability": "nonpayable",
      "type": "function"
    },
    {
      "inputs": [
        {
          "internalType": "uint256",
          "name": "tokenId_",
          "type": "uint256"
        }
      ],
      "name": "slotOf",
      "outputs": [
        {
          "internalType": "uint256",
          "name": "",
          "type": "uint256"
        }
      ],
      "stateMutability": "view",
      "type": "function"
    },
    {
      "inputs": [
        {
          "internalType": "uint256",
          "name": "slot_",
          "type": "uint256"
        }
      ],
      "name": "slotURI",
      "outputs": [
        {
          "internalType": "string",
          "name": "",
          "type": "string"
        }
      ],
      "stateMutability": "view",
      "type": "function"
    },
    {
      "inputs": [
        {
          "internalType": "bytes4",
          "name": "interfaceId",
          "type": "bytes4"
        }
      ],
      "name": "supportsInterface",
      "outputs": [
        {
          "internalType": "bool",
          "name": "",
          "type": "bool"
        }
      ],
      "stateMutability": "view",
      "type": "function"
    },
    {
      "inputs": [],
      "name": "symbol",
      "outputs": [
        {
          "internalType": "string",
          "name": "",
          "type": "string"
        }
      ],
      "stateMutability": "view",
      "type": "function"
    },
    {
      "inputs": [
        {
          "internalType": "uint256",
          "name": "index_",
          "type": "uint256"
        }
      ],
      "name": "tokenByIndex",
      "outputs": [
        {
          "internalType": "uint256",
          "name": "",
          "type": "uint256"
        }
      ],
      "stateMutability": "view",
      "type": "function"
    },
    {
      "inputs": [
        {
          "internalType": "address",
          "name": "owner_",
          "type": "address"
        },
        {
          "internalType": "uint256",
          "name": "index_",
          "type": "uint256"
        }
      ],
      "name": "tokenOfOwnerByIndex",
      "outputs": [
        {
          "internalType": "uint256",
          "name": "",
          "type": "uint256"
        }
      ],
      "stateMutability": "view",
      "type": "function"
    },
    {
      "inputs": [
        {
          "internalType": "uint256",
          "name": "tokenId_",
          "type": "uint256"
        }
      ],
      "name": "tokenURI",
      "outputs": [
        {
          "internalType": "string",
          "name": "",
          "type": "string"
        }
      ],
      "stateMutability": "view",
      "type": "function"
    },
    {
      "inputs": [],
      "name": "totalSupply",
      "outputs": [
        {
          "internalType": "uint256",
          "name": "",
          "type": "uint256"
        }
      ],
      "stateMutability": "view",
      "type": "function"
    },
    {
      "inputs": [
        {
          "internalType": "uint256",
          "name": "fromTokenId_",
          "type": "uint256"
        },
        {
          "internalType": "address",
          "name": "to_",
          "type": "address"
        },
        {
          "internalType": "uint256",
          "name": "value_",
          "type": "uint256"
        }
      ],
      "name": "transferFrom",
      "outputs": [
        {
          "internalType": "uint256",
          "name": "newTokenId",
          "type": "uint256"
        }
      ],
      "stateMutability": "payable",
      "type": "function"
    },
    {
      "inputs": [
        {
          "internalType": "address",
          "name": "from_",
          "type": "address"
        },
        {
          "internalType": "address",
          "name": "to_",
          "type": "address"
        },
        {
          "internalType": "uint256",
          "name": "tokenId_",
          "type": "uint256"
        }
      ],
      "name": "transferFrom",
      "outputs": [],
      "stateMutability": "payable",
      "type": "function"
    },
    {
      "inputs": [
        {
          "internalType": "uint256",
          "name": "fromTokenId_",
          "type": "uint256"
        },
        {
          "internalType": "uint256",
          "name": "toTokenId_",
          "type": "uint256"
        },
        {
          "internalType": "uint256",
          "name": "value_",
          "type": "uint256"
        }
      ],
      "name": "transferFrom",
      "outputs": [],
      "stateMutability": "payable",
      "type": "function"
    },
    {
      "inputs": [],
      "name": "valueDecimals",
      "outputs": [
        {
          "internalType": "uint8",
          "name": "",
          "type": "uint8"
        }
      ],
      "stateMutability": "view",
      "type": "function"
    }
  ],
  "bytecode": "0x6080806040523461001657612747908161001c8239f35b600080fdfe60806040908082526004918236101561001757600080fd5b600092833560e01c92836301ffc9a7146112ec5750826306fdde031461121f578263081812fc146111ff578263095ea7b3146110cc57826309c3dd87146110565782630f485c0214610e1e57826318160ddd14610dff57826323b872dd14610dda578263263f3e7e14610dba5782632f745c5914610d12578263310ed7f014610ce75782633e7e866914610cc557826342842e0e14610ca257826342966c6814610a825782634f6ccce7146109fc5782636352211e146109cb57826370a08231146109a5578263840f71131461097c57826387fe8611146108ae5782638cb0a5111461080557826395d89b41146106ee5782639cc7f708146106ce578263a22cb465146105fc578263a647e8ec14610400578263b88d4fde1461037f578263c87b56dd146102e4578263e345e0bc146102b5578263e8a3d485146101f757508163e985e9c5146101a2575063f0e88e7f1461017157600080fd5b3461019f5761019c61018236611477565b9061018c81611646565b5061019681611684565b50611ab7565b80f35b80fd5b9050346101f357806003193601126101f35760ff816020936101c26113e7565b6101ca611402565b6001600160a01b039182168352603a875283832091168252600201855220549151911615158152f35b5080fd5b909150346102b157826003193601126102b157828251610216816114bf565b52603b546001600160a01b03168015610298578390835192838092631c97e82760e21b82525afa90811561028c57836102659492610269575b5050905b519182916020835260208301906113c2565b0390f35b61028592503d8091833e61027d81836114db565b8101906116a8565b388061024f565b505051903d90823e3d90fd5b50508051610265926102a9826114bf565b815290610253565b8280fd5b90833461019f578160031936011261019f57506102dd6020926102d6611402565b9035611785565b9051908152f35b909150346102b15760203660031901126102b157803561030b61030682611a89565b6115fa565b838351610317816114bf565b52603b546001600160a01b031691821561036c579060248592855194859384926344a5a61760e11b84528301525afa90811561028c5783610265949261026957505090519182916020835260208301906113c2565b505050610265918151906102a9826114bf565b915060803660031901126102b1576103956113e7565b61039d611402565b846064359467ffffffffffffffff86116101f357366023870112156101f357850135946103d56103cc876114fd565b955195866114db565b85855236602487830101116101f3578561019c9660246020930183880137850101526044359161189a565b8382346101f35760803660031901126101f35761041b6113e7565b60243591604435916001600160a01b0381169182156105ae5784156105605761044385611a89565b61051e57805190610453826114bf565b8682528051916104628361148d565b868352856020840152878284015284606084015287608084015260a083015260385480918789526039602052882055600160401b81101561050b5761019c9697508593926104c46104c9936104be84600189960160385561157f565b90611cc1565b611afa565b856000805160206126f28339815191528180a483827fe4f48c240d3b994948aa54f3e2f5fca59263dfe1d52b6e4cf39a5d249b5ccb658280a460643590611ab7565b634e487b7160e01b875260418852602487fd5b5162461bcd60e51b8152602081880152601f60248201527f43544d5257413030313a20746f6b656e20616c7265616479206d696e746564006044820152606490fd5b5162461bcd60e51b8152602081880152602360248201527f43544d5257413030313a2063616e6e6f74206d696e74207a65726f20746f6b656044820152621b925960ea1b6064820152608490fd5b5162461bcd60e51b8152602081880152602360248201527f43544d5257413030313a206d696e7420746f20746865207a65726f206164647260448201526265737360e81b6064820152608490fd5b9150346102b157806003193601126102b1576106166113e7565b90602435918215158093036106ca576001600160a01b0316923384146106885750338452603a60205260028185200183855260205280842060ff1981541660ff8416179055519081527f17307eab39ab6107e8899845ad3d59bd9653f200f220920489ca2b5937696c3160203392a380f35b6020606492519162461bcd60e51b8352820152601c60248201527f43544d5257413030313a20617070726f766520746f2063616c6c6572000000006044820152fd5b8480fd5b90833461019f57602036600319011261019f57506102dd602092356115d0565b90833461019f578060031936011261019f578151918160345492600184811c918186169586156107fb575b60209687851081146107e8578899509688969785829a5291826000146107c1575050600114610765575b50505061026592916107569103856114db565b519282849384528301906113c2565b9190869350603483527f46bddb1178e94d7f2892ff5f366840eb658911794f2c3a44c450aa2c505186c15b8284106107a95750505082010181610756610265610743565b8054848a018601528895508794909301928101610790565b60ff19168782015293151560051b8601909301935084925061075691506102659050610743565b634e487b7160e01b835260228a52602483fd5b92607f1692610719565b839061081036611418565b929091906108346001600160a01b038061082985611646565b16908516141561172d565b61083e8233611967565b1561084f575061019c939450611dcb565b608490602087519162461bcd60e51b8352820152603360248201527f43544d5257413030313a20617070726f76652063616c6c6572206973206e6f74604482015272081bdddb995c881b9bdc88185c1c1c9bdd9959606a1b6064820152fd5b8390346101f3576108be36611477565b90916108d26108cd8433611967565b611519565b6108de61030684611a89565b828452603960205260026108f48686205461157f565b50019081549083821061092b5750918495602092610921836000805160206126d2833981519152966119d8565b905551908152a380f35b608490602088519162461bcd60e51b8352820152602560248201527f43544d5257413030313a206275726e2076616c756520657863656564732062616044820152646c616e636560d81b6064820152fd5b8382346101f357816003193601126101f357603b5490516001600160a01b039091168152602090f35b8382346101f35760203660031901126101f3576020906102dd6109c66113e7565b6117b6565b90833461019f57602036600319011261019f57506109eb60209235611646565b90516001600160a01b039091168152f35b833461019f57602036600319011261019f5750803590603854821015610a3157602083610a288461157f565b50549051908152f35b608490602084519162461bcd60e51b8352820152602560248201527f43544d5257413030313a20676c6f62616c20696e646578206f7574206f6620626044820152646f756e647360d81b6064820152fd5b8390346101f357602090816003193601126102b157803591610aa76108cd8433611967565b610ab361030684611a89565b82845260398152610ac68585205461157f565b509060018060a01b038060038401541693600160028186015495015492610aec88611f18565b610af68888611ba9565b60385460001991828201918211610c8f57868b8d928c825260398352610b1f848320549561157f565b50936005815195610b2f8761148d565b805487528981015486880152600281015483880152836003820154166060880152838b8201541660808801520190518094859381845493848152019386528a82872096925b848410610c72575050505050610b8c925003826114db565b60a0820152610b9e816104be8461157f565b518a52603986528a8a2055878952888a8120556038548015610c5f570191610bc58361157f565b929092610c4d5793899a899a9994610c0b6005868d809c9b9781809c816000805160206126d28339815191529c5584015581600284015581600384015582015501611c8c565b60385551908152a3847fe4f48c240d3b994948aa54f3e2f5fca59263dfe1d52b6e4cf39a5d249b5ccb658380a46000805160206126f28339815191528280a480f35b634e487b7160e01b8a5289825260248afd5b634e487b7160e01b8a526031845260248afd5b875483168652968101968896509094019391909101908a8e610b74565b634e487b7160e01b8b526011855260248bfd5b8361019c83610cb036611442565b91925192610cbd846114bf565b85845261189a565b8382346101f357816003193601126101f35760209060ff603554169051908152f35b839060603660031901126101f35761019c903560443590610d098282336119e5565b60243590612021565b833461019f578260031936011261019f57610d2b6113e7565b60243592610d38826117b6565b841015610d6b57602085610d5d8682878760018060a01b03168152603a86522061194f565b91905490519160031b1c8152f35b608490602086519162461bcd60e51b83528201526024808201527f43544d5257413030313a206f776e657220696e646578206f7574206f6620626f604482015263756e647360e01b6064820152fd5b90833461019f57602036600319011261019f57506102dd60209235611684565b8361019c610de736611442565b91610dfa610df58433611967565b611831565b6122a6565b8382346101f357816003193601126101f3576020906038549051908152f35b8382610e2936611418565b919093610e378383336119e5565b60365494610e4486611f09565b603655610e5083611684565b906001600160a01b038116908115611007578715610fb857610e7188611a89565b610f75578651610e80816114bf565b848152875190610e8f8261148d565b898252846020830152858983015283606083015285608083015260a082015260385489865260396020528089872055600160401b811015610f625760209a5089959293610ef38780966104c4610f5c9c9b99966104be87600186990160385561157f565b836000805160206126f28339815191528180a481837fe4f48c240d3b994948aa54f3e2f5fca59263dfe1d52b6e4cf39a5d249b5ccb658280a481815260398952610f3f8782205461157f565b50506000805160206126d2833981519152898851838152a3612021565b51908152f35b634e487b7160e01b865260418b52602486fd5b865162461bcd60e51b81526020818b0152601f60248201527f43544d5257413030313a20746f6b656e20616c7265616479206d696e746564006044820152606490fd5b865162461bcd60e51b81526020818b0152602360248201527f43544d5257413030313a2063616e6e6f74206d696e74207a65726f20746f6b656044820152621b925960ea1b6064820152608490fd5b865162461bcd60e51b81526020818b0152602360248201527f43544d5257413030313a206d696e7420746f20746865207a65726f206164647260448201526265737360e81b6064820152608490fd5b909150346102b15760203660031901126102b157828251611076816114bf565b52603b546001600160a01b03169081156102985783906024845180948193633601bfc560e11b83528035908301525afa90811561028c5783610265949261026957505090519182916020835260208301906113c2565b9150806003193601126102b1576110e16113e7565b6024359290916001600160a01b03919082806110fc87611646565b1694169361110c8186141561172d565b8033149081156111dd575b50156111745761113190858752603960205286205461157f565b500180546001600160a01b0319168317905561114c83611646565b167f8c5be1e5ebec7d5bd14f71427d1e84f3dd0314c0f7b2291e5b200ac8c7c3b9258480a480f35b906020608492519162461bcd60e51b8352820152603b60248201527f43544d5257413030313a20617070726f76652063616c6c6572206973206e6f7460448201527f206f776e6572206e6f7220617070726f76656420666f7220616c6c00000000006064820152fd5b90508652603a60205260028187200133875260205260ff818720541638611117565b90833461019f57602036600319011261019f57506109eb6020923561191c565b90833461019f578060031936011261019f578151918160335492600184811c918186169586156112e2575b60209687851081146107e8578899509688969785829a5291826000146107c15750506001146112865750505061026592916107569103856114db565b9190869350603383527f82a75bdeeae8604d839476ae9efd8b0e15aa447e21bfd7f41283bb54e22c9a825b8284106112ca5750505082010181610756610265610743565b8054848a0186015288955087949093019281016112b1565b92607f169261124a565b8491346102b15760203660031901126102b1573563ffffffff60e01b81168091036102b157602092506301ffc9a760e01b811490811561138e575b811561137d575b811561136c575b811561135b575b811561134a575b5015158152f35b635b5e139f60e01b14905083611343565b63780e9d6360e01b8114915061133c565b6370b0048160e11b81149150611335565b6380ac58cd60e01b8114915061132e565b630354d60560e61b81149150611327565b60005b8381106113b25750506000910152565b81810151838201526020016113a2565b906020916113db8151809281855285808601910161139f565b601f01601f1916010190565b600435906001600160a01b03821682036113fd57565b600080fd5b602435906001600160a01b03821682036113fd57565b60609060031901126113fd57600435906024356001600160a01b03811681036113fd579060443590565b60609060031901126113fd576001600160a01b039060043582811681036113fd579160243590811681036113fd579060443590565b60409060031901126113fd576004359060243590565b60c0810190811067ffffffffffffffff8211176114a957604052565b634e487b7160e01b600052604160045260246000fd5b6020810190811067ffffffffffffffff8211176114a957604052565b90601f8019910116810190811067ffffffffffffffff8211176114a957604052565b67ffffffffffffffff81116114a957601f01601f191660200190565b1561152057565b60405162461bcd60e51b815260206004820152603160248201527f43544d5257413030313a2063616c6c6572206973206e6f7420746f6b656e206f6044820152701ddb995c881b9bdc88185c1c1c9bdd9959607a1b6064820152608490fd5b6038548110156115ba576006906038600052027f38395c5dceade9603479b177b68959049485df8aa97b39f3533039af5f4561990190600090565b634e487b7160e01b600052603260045260246000fd5b6115dc61030682611a89565b600052603960205260026115f460406000205461157f565b50015490565b1561160157565b60405162461bcd60e51b815260206004820152601b60248201527f43544d5257413030313a20696e76616c696420746f6b656e20494400000000006044820152606490fd5b61165261030682611a89565b600052603960205261166860406000205461157f565b50600301546001600160a01b0316906116828215156115fa565b565b61169061030682611a89565b600052603960205260016115f460406000205461157f565b6020818303126113fd5780519067ffffffffffffffff82116113fd570181601f820112156113fd5780516116db816114fd565b926116e960405194856114db565b818452602082840101116113fd57611707916020808501910161139f565b90565b9190820180921161171757565b634e487b7160e01b600052601160045260246000fd5b1561173457565b60405162461bcd60e51b8152602060048201526024808201527f43544d5257413030313a20617070726f76616c20746f2063757272656e74206f6044820152633bb732b960e11b6064820152608490fd5b61179161030682611a89565b600052603760205260406000209060018060a01b031660005260205260406000205490565b6001600160a01b031680156117d657600052603a60205260406000205490565b60405162461bcd60e51b815260206004820152602d60248201527f43544d5257413030313a2062616c616e636520717565727920666f722074686560448201526c207a65726f206164647265737360981b6064820152608490fd5b1561183857565b60405162461bcd60e51b815260206004820152603460248201527f43544d5257413030313a207472616e736665722063616c6c6572206973206e6f6044820152731d081bdddb995c881b9bdc88185c1c1c9bdd995960621b6064820152608490fd5b906118be9392916118ae610df58433611967565b6118b98383836122a6565b6125ba565b156118c557565b60405162461bcd60e51b815260206004820152602960248201527f43544d5257413030313a207472616e7366657220746f206e6f6e20455243373260448201526818a932b1b2b4bb32b960b91b6064820152608490fd5b61192861030682611a89565b600052603960205261193e60406000205461157f565b50600401546001600160a01b031690565b80548210156115ba5760005260206000200190600090565b906001600160a01b03808061197b84611646565b169316918383149384156119ae575b508315611998575b50505090565b6119a49192935061191c565b1614388080611992565b909350600052603a60205260026040600020018260005260205260ff60406000205416923861198a565b9190820391821161171757565b6119ef8183611785565b6119f98383611967565b1580611a7d575b611a0b575b50505050565b838110611a2e57611a2593611a1f916119d8565b91611dcb565b38808080611a05565b60405162461bcd60e51b815260206004820152602160248201527f43544d5257413030313a20696e73756666696369656e7420616c6c6f77616e636044820152606560f81b6064820152608490fd5b50600019811415611a00565b60385415159081611a98575090565b8091506000526039602052611ab160406000205461157f565b50541490565b906000805160206126d28339815191526020600092848452603982526002611ae2604086205461157f565b5001611aef82825461170a565b9055604051908152a3565b60009082825260396020526003611b14604084205461157f565b500180546001600160a01b0319166001600160a01b039092169182179055808252603a602081815260408085208054878752600191909101835281862055928452528120805491600160401b831015611b95575081611b7c916001611682959401815561194f565b90919082549060031b91821b91600019901b1916179055565b634e487b7160e01b81526041600452602490fd5b60009082825260396020526003611bc3604084205461157f565b500180546001600160a01b03191690556001600160a01b03168152603a6020526040812080546000199391929190848101908111611c7857611c05908461194f565b90549060031b1c6001840182845280602052604084205491611c2b81611b7c858961194f565b8452602052604083205581528060408120558154908115611c645750820191611c54838361194f565b909182549160031b1b1916905555565b634e487b7160e01b81526031600452602490fd5b634e487b7160e01b83526011600452602483fd5b80549060009081815582611c9f57505050565b815260208120918201915b828110611cb657505050565b818155600101611caa565b9190611db557805182556020908181015192600193848201556040820151600282015560a060056003830192600180841b039384606087015116906bffffffffffffffffffffffff851b918282541617905560048201908560808801511690825416179055019201519283519367ffffffffffffffff85116114a957600160401b85116114a95781908454868655808710611d88575b500192600052806000209160005b858110611d755750505050505050565b8451821684820155938201938601611d65565b6000868152888885832093840193015b838110611da757505050611d57565b8281558695508a9101611d98565b634e487b7160e01b600052600060045260246000fd5b6001600160a01b038083169391928415611eaf5783611de991611f90565b15611e37575b5060207f621b050de0ad08b51d19b48b3e6df75348c4de6bdd93e81b252ca62e28265b1b918360005260378252604060002085600052825280604060002055604051908152a3565b8260005260396020526005611e5060406000205461157f565b500191825491600160401b8310156114a957611e95837f621b050de0ad08b51d19b48b3e6df75348c4de6bdd93e81b252ca62e28265b1b95600160209601815561194f565b819291549060031b9188831b921b19161790559150611def565b60405162461bcd60e51b815260206004820152602c60248201527f43544d5257413030313a20617070726f76652076616c756520746f207468652060448201526b7a65726f206164647265737360a01b6064820152608490fd5b60001981146117175760010190565b60008181526020906039825260406005611f348284205461157f565b500193845493835b858110611f525750505050505061168290611c8c565b80611f60611f8b928961194f565b90548588526037855286882060039290921b1c6001600160a01b031687528352848620869055611f09565b611f3c565b6000908282526039602090808252604090611fad8286205461157f565b509260058094015496865b888110611fcb5750505050505050905090565b818852838352611fe98187611fe2888c205461157f565b500161194f565b905460039190911b1c6001600160a01b03908116908816146120135761200e90611f09565b611fb8565b505050505050505050600190565b61202a81611a89565b1561224f5761203882611a89565b156121fa578060005260209260398452604092612058846000205461157f565b50816000526039865261206e856000205461157f565b509060028101908154908582106121a1576001015460018401540361214457916002916120a1866120de989796956119d8565b9055016120af83825461170a565b905580836000805160206126d2833981519152888851868152a38451926120d5846114bf565b60008452612461565b156120e7575050565b60849250519062461bcd60e51b82526004820152603160248201527f43544d5257413030313a207472616e736665722072656a65637465642062792060448201527021aa26a92ba0981818a932b1b2b4bb32b960791b6064820152fd5b865162461bcd60e51b815260048101899052603060248201527f43544d5257413030313a207472616e7366657220746f20746f6b656e2077697460448201526f1a08191a5999995c995b9d081cdb1bdd60821b6064820152608490fd5b875162461bcd60e51b8152600481018a9052602c60248201527f43544d5257413030313a20696e73756666696369656e742062616c616e63652060448201526b3337b9103a3930b739b332b960a11b6064820152608490fd5b60405162461bcd60e51b815260206004820152602760248201527f43544d5257413030313a207472616e7366657220746f20696e76616c696420746044820152661bdad95b88125160ca1b6064820152608490fd5b60405162461bcd60e51b815260206004820152602960248201527f43544d5257413030313a207472616e736665722066726f6d20696e76616c6964604482015268081d1bdad95b88125160ba1b6064820152608490fd5b6122af83611646565b6001600160a01b03808316929181168390036123bd578084169384156123685785612364916104c4826000805160206126f2833981519152966122f182611684565b506122fb826115d0565b50816000809882825260396020526004612318604084205461157f565b500180546001600160a01b031916905561233183611646565b167f8c5be1e5ebec7d5bd14f71427d1e84f3dd0314c0f7b2291e5b200ac8c7c3b9258280a461235f82611f18565b611ba9565b80a4565b60405162461bcd60e51b815260206004820152602760248201527f43544d5257413030313a207472616e7366657220746f20746865207a65726f206044820152666164647265737360c81b6064820152608490fd5b60405162461bcd60e51b815260206004820152602660248201527f43544d5257413030313a207472616e736665722066726f6d20696e76616c69646044820152651037bbb732b960d11b6064820152608490fd5b908160209103126113fd57516001600160e01b0319811681036113fd5790565b3d1561245c573d90612442826114fd565b9161245060405193846114db565b82523d6000602084013e565b606090565b92909261246d84611646565b803b63ffffffff16156125b0576040516301ffc9a760e01b8152633abe4f5560e21b6004820181905295602095926001600160a01b0316918681602481865afa809160009161257a575b50906124d35750505050505050506124cd612431565b50600190565b1561256e5760008694612512604051978896879586948d865233600487015260248601526044850152606484015260a0608484015260a48301906113c2565b03925af191821561256257600092612535575b50506001600160e01b0319161490565b6125549250803d1061255b575b61254c81836114db565b810190612411565b3880612525565b503d612542565b6040513d6000823e3d90fd5b50505050505050600190565b8881813d83116125a9575b61258f81836114db565b810103126101f3575190811515820361019f5750386124b7565b503d612585565b5050505050600190565b9192813b63ffffffff16156126c857602091612612916000604051958680958194630a85bd0160e11b9a8b845233600485015260018060a01b03809516602485015260448401526080606484015260848301906113c2565b0393165af1600091816126a8575b5061269a5761262d612431565b805190816126955760405162461bcd60e51b815260206004820152603260248201527f4552433732313a207472616e7366657220746f206e6f6e20455243373231526560448201527131b2b4bb32b91034b6b83632b6b2b73a32b960711b6064820152608490fd5b602001fd5b6001600160e01b0319161490565b6126c191925060203d811161255b5761254c81836114db565b9038612620565b5050505060019056fe0b2aac84f3ec956911fd78eae5311062972ff949f38412e8da39069d9f068cc6ddf252ad1be2c89b69c2b068fc378daa952ba7f163c4a11628f55a4df523b3efa26469706673582212203f4dc4baa5c77cd525ee22e3a42019c2f7017e2a6afc82e4d4019fd6b40eb86964736f6c63430008140033",
  "linkReferences": {},
  "deployedLinkReferences": {}
}