{
  "_format": "hh-sol-artifact-1",
  "contractName": "C3Caller",
  "sourceName": "contracts/c3Caller/C3Caller.sol",
  "abi": [
    {
      "inputs": [
        {
          "internalType": "address",
          "name": "_swapIDKeeper",
          "type": "address"
        }
      ],
      "stateMutability": "nonpayable",
      "type": "constructor"
    },
    {
      "anonymous": false,
      "inputs": [
        {
          "indexed": true,
          "internalType": "address",
          "name": "oldGov",
          "type": "address"
        },
        {
          "indexed": true,
          "internalType": "address",
          "name": "newGov",
          "type": "address"
        },
        {
          "indexed": false,
          "internalType": "uint256",
          "name": "timestamp",
          "type": "uint256"
        }
      ],
      "name": "ApplyGov",
      "type": "event"
    },
    {
      "anonymous": false,
      "inputs": [
        {
          "indexed": true,
          "internalType": "address",
          "name": "oldGov",
          "type": "address"
        },
        {
          "indexed": true,
          "internalType": "address",
          "name": "newGov",
          "type": "address"
        },
        {
          "indexed": false,
          "internalType": "uint256",
          "name": "timestamp",
          "type": "uint256"
        }
      ],
      "name": "ChangeGov",
      "type": "event"
    },
    {
      "anonymous": false,
      "inputs": [
        {
          "indexed": false,
          "internalType": "uint8",
          "name": "version",
          "type": "uint8"
        }
      ],
      "name": "Initialized",
      "type": "event"
    },
    {
      "anonymous": false,
      "inputs": [
        {
          "indexed": true,
          "internalType": "uint256",
          "name": "dappID",
          "type": "uint256"
        },
        {
          "indexed": true,
          "internalType": "bytes32",
          "name": "uuid",
          "type": "bytes32"
        },
        {
          "indexed": false,
          "internalType": "address",
          "name": "caller",
          "type": "address"
        },
        {
          "indexed": false,
          "internalType": "string",
          "name": "toChainID",
          "type": "string"
        },
        {
          "indexed": false,
          "internalType": "string",
          "name": "to",
          "type": "string"
        },
        {
          "indexed": false,
          "internalType": "bytes",
          "name": "data",
          "type": "bytes"
        },
        {
          "indexed": false,
          "internalType": "bytes",
          "name": "extra",
          "type": "bytes"
        }
      ],
      "name": "LogC3Call",
      "type": "event"
    },
    {
      "anonymous": false,
      "inputs": [
        {
          "indexed": true,
          "internalType": "uint256",
          "name": "dappID",
          "type": "uint256"
        },
        {
          "indexed": true,
          "internalType": "address",
          "name": "to",
          "type": "address"
        },
        {
          "indexed": true,
          "internalType": "bytes32",
          "name": "uuid",
          "type": "bytes32"
        },
        {
          "indexed": false,
          "internalType": "string",
          "name": "fromChainID",
          "type": "string"
        },
        {
          "indexed": false,
          "internalType": "string",
          "name": "sourceTx",
          "type": "string"
        },
        {
          "indexed": false,
          "internalType": "bytes",
          "name": "data",
          "type": "bytes"
        },
        {
          "indexed": false,
          "internalType": "bool",
          "name": "success",
          "type": "bool"
        },
        {
          "indexed": false,
          "internalType": "bytes",
          "name": "reason",
          "type": "bytes"
        }
      ],
      "name": "LogExecCall",
      "type": "event"
    },
    {
      "anonymous": false,
      "inputs": [
        {
          "indexed": true,
          "internalType": "uint256",
          "name": "dappID",
          "type": "uint256"
        },
        {
          "indexed": true,
          "internalType": "address",
          "name": "to",
          "type": "address"
        },
        {
          "indexed": true,
          "internalType": "bytes32",
          "name": "uuid",
          "type": "bytes32"
        },
        {
          "indexed": false,
          "internalType": "string",
          "name": "fromChainID",
          "type": "string"
        },
        {
          "indexed": false,
          "internalType": "string",
          "name": "sourceTx",
          "type": "string"
        },
        {
          "indexed": false,
          "internalType": "bytes",
          "name": "data",
          "type": "bytes"
        },
        {
          "indexed": false,
          "internalType": "bytes",
          "name": "reason",
          "type": "bytes"
        }
      ],
      "name": "LogExecFallback",
      "type": "event"
    },
    {
      "anonymous": false,
      "inputs": [
        {
          "indexed": true,
          "internalType": "uint256",
          "name": "dappID",
          "type": "uint256"
        },
        {
          "indexed": true,
          "internalType": "bytes32",
          "name": "uuid",
          "type": "bytes32"
        },
        {
          "indexed": false,
          "internalType": "string",
          "name": "to",
          "type": "string"
        },
        {
          "indexed": false,
          "internalType": "bytes",
          "name": "data",
          "type": "bytes"
        },
        {
          "indexed": false,
          "internalType": "bytes",
          "name": "reasons",
          "type": "bytes"
        }
      ],
      "name": "LogFallbackCall",
      "type": "event"
    },
    {
      "anonymous": false,
      "inputs": [
        {
          "indexed": false,
          "internalType": "address",
          "name": "account",
          "type": "address"
        }
      ],
      "name": "Paused",
      "type": "event"
    },
    {
      "anonymous": false,
      "inputs": [
        {
          "indexed": false,
          "internalType": "address",
          "name": "account",
          "type": "address"
        }
      ],
      "name": "Unpaused",
      "type": "event"
    },
    {
      "inputs": [
        {
          "internalType": "address",
          "name": "_op",
          "type": "address"
        }
      ],
      "name": "addOperator",
      "outputs": [],
      "stateMutability": "nonpayable",
      "type": "function"
    },
    {
      "inputs": [],
      "name": "applyGov",
      "outputs": [],
      "stateMutability": "nonpayable",
      "type": "function"
    },
    {
      "inputs": [
        {
          "internalType": "uint256",
          "name": "_dappID",
          "type": "uint256"
        },
        {
          "internalType": "address",
          "name": "_txSender",
          "type": "address"
        },
        {
          "components": [
            {
              "internalType": "bytes32",
              "name": "uuid",
              "type": "bytes32"
            },
            {
              "internalType": "address",
              "name": "to",
              "type": "address"
            },
            {
              "internalType": "string",
              "name": "fromChainID",
              "type": "string"
            },
            {
              "internalType": "string",
              "name": "sourceTx",
              "type": "string"
            },
            {
              "internalType": "string",
              "name": "fallbackTo",
              "type": "string"
            },
            {
              "internalType": "bytes",
              "name": "data",
              "type": "bytes"
            }
          ],
          "internalType": "struct C3CallerStructLib.C3EvmMessage",
          "name": "_message",
          "type": "tuple"
        }
      ],
      "name": "c3Fallback",
      "outputs": [],
      "stateMutability": "nonpayable",
      "type": "function"
    },
    {
      "inputs": [
        {
          "internalType": "uint256",
          "name": "_dappID",
          "type": "uint256"
        },
        {
          "internalType": "address",
          "name": "_caller",
          "type": "address"
        },
        {
          "internalType": "string[]",
          "name": "_to",
          "type": "string[]"
        },
        {
          "internalType": "string[]",
          "name": "_toChainIDs",
          "type": "string[]"
        },
        {
          "internalType": "bytes",
          "name": "_data",
          "type": "bytes"
        }
      ],
      "name": "c3broadcast",
      "outputs": [],
      "stateMutability": "nonpayable",
      "type": "function"
    },
    {
      "inputs": [
        {
          "internalType": "uint256",
          "name": "_dappID",
          "type": "uint256"
        },
        {
          "internalType": "address",
          "name": "_caller",
          "type": "address"
        },
        {
          "internalType": "string",
          "name": "_to",
          "type": "string"
        },
        {
          "internalType": "string",
          "name": "_toChainID",
          "type": "string"
        },
        {
          "internalType": "bytes",
          "name": "_data",
          "type": "bytes"
        },
        {
          "internalType": "bytes",
          "name": "_extra",
          "type": "bytes"
        }
      ],
      "name": "c3call",
      "outputs": [],
      "stateMutability": "nonpayable",
      "type": "function"
    },
    {
      "inputs": [
        {
          "internalType": "address",
          "name": "_gov",
          "type": "address"
        }
      ],
      "name": "changeGov",
      "outputs": [],
      "stateMutability": "nonpayable",
      "type": "function"
    },
    {
      "inputs": [],
      "name": "context",
      "outputs": [
        {
          "internalType": "bytes32",
          "name": "swapID",
          "type": "bytes32"
        },
        {
          "internalType": "string",
          "name": "fromChainID",
          "type": "string"
        },
        {
          "internalType": "string",
          "name": "sourceTx",
          "type": "string"
        }
      ],
      "stateMutability": "view",
      "type": "function"
    },
    {
      "inputs": [
        {
          "internalType": "uint256",
          "name": "_dappID",
          "type": "uint256"
        },
        {
          "internalType": "address",
          "name": "_txSender",
          "type": "address"
        },
        {
          "components": [
            {
              "internalType": "bytes32",
              "name": "uuid",
              "type": "bytes32"
            },
            {
              "internalType": "address",
              "name": "to",
              "type": "address"
            },
            {
              "internalType": "string",
              "name": "fromChainID",
              "type": "string"
            },
            {
              "internalType": "string",
              "name": "sourceTx",
              "type": "string"
            },
            {
              "internalType": "string",
              "name": "fallbackTo",
              "type": "string"
            },
            {
              "internalType": "bytes",
              "name": "data",
              "type": "bytes"
            }
          ],
          "internalType": "struct C3CallerStructLib.C3EvmMessage",
          "name": "_message",
          "type": "tuple"
        }
      ],
      "name": "execute",
      "outputs": [],
      "stateMutability": "nonpayable",
      "type": "function"
    },
    {
      "inputs": [],
      "name": "getAllOperators",
      "outputs": [
        {
          "internalType": "address[]",
          "name": "",
          "type": "address[]"
        }
      ],
      "stateMutability": "view",
      "type": "function"
    },
    {
      "inputs": [],
      "name": "gov",
      "outputs": [
        {
          "internalType": "address",
          "name": "",
          "type": "address"
        }
      ],
      "stateMutability": "view",
      "type": "function"
    },
    {
      "inputs": [
        {
          "internalType": "address",
          "name": "",
          "type": "address"
        }
      ],
      "name": "isOperator",
      "outputs": [
        {
          "internalType": "bool",
          "name": "",
          "type": "bool"
        }
      ],
      "stateMutability": "view",
      "type": "function"
    },
    {
      "inputs": [
        {
          "internalType": "uint256",
          "name": "",
          "type": "uint256"
        }
      ],
      "name": "operators",
      "outputs": [
        {
          "internalType": "address",
          "name": "",
          "type": "address"
        }
      ],
      "stateMutability": "view",
      "type": "function"
    },
    {
      "inputs": [],
      "name": "pause",
      "outputs": [],
      "stateMutability": "nonpayable",
      "type": "function"
    },
    {
      "inputs": [],
      "name": "paused",
      "outputs": [
        {
          "internalType": "bool",
          "name": "",
          "type": "bool"
        }
      ],
      "stateMutability": "view",
      "type": "function"
    },
    {
      "inputs": [],
      "name": "pendingGov",
      "outputs": [
        {
          "internalType": "address",
          "name": "",
          "type": "address"
        }
      ],
      "stateMutability": "view",
      "type": "function"
    },
    {
      "inputs": [
        {
          "internalType": "address",
          "name": "_op",
          "type": "address"
        }
      ],
      "name": "revokeOperator",
      "outputs": [],
      "stateMutability": "nonpayable",
      "type": "function"
    },
    {
      "inputs": [],
      "name": "unpause",
      "outputs": [],
      "stateMutability": "nonpayable",
      "type": "function"
    },
    {
      "inputs": [],
      "name": "uuidKeeper",
      "outputs": [
        {
          "internalType": "address",
          "name": "",
          "type": "address"
        }
      ],
      "stateMutability": "view",
      "type": "function"
    }
  ],
  "bytecode": "0x608034620001ec57601f620024d738819003918201601f19168301916001600160401b03831184841017620001f157808492602094604052833981010312620001ec57516001600160a01b03811690819003620001ec5760ff198060045416600455600090815460ff8160081c161591828093620001de575b8015620001c5575b156200016957811660011783558162000157575b50815462010000600160b01b0319811633601081901b62010000600160b01b0316918217855560405142815291939185907fff88f8815b3f9faf85529ba09d2f7ff0d9c726c11cc863fd245156986014259090602090a362000113575b600880546001600160a01b031916851790556040516122cf9081620002088239f35b610100600160b01b031916179055604051600181527f7f26b83ff96e1f2b6a682f133852f6798a09c465da95921460cefb384740249890602090a1388080620000f1565b61ffff19166101011782553862000094565b60405162461bcd60e51b815260206004820152602e60248201527f496e697469616c697a61626c653a20636f6e747261637420697320616c72656160448201526d191e481a5b9a5d1a585b1a5e995960921b6064820152608490fd5b50303b158015620000805750600160ff83161462000080565b50600160ff83161062000078565b600080fd5b634e487b7160e01b600052604160045260246000fdfe6080604052600436101561001257600080fd5b60003560e01c806304700cc41461013757806312d43a5114610132578063252408101461012d57806327ab5b7b146101285780633f4ba83a14610123578063459c76951461011e5780635c975abb146101195780636d70f7ae146101145780638456cb591461010f5780639870d7fe1461010a5780639d40ae4414610105578063a962ef1e14610100578063b9688cf4146100fb578063d0496d6a146100f6578063d911c632146100f1578063e28d4906146100ec578063eea2d657146100e75763fad8b32a146100e257600080fd5b6114b0565b6112d1565b611258565b611163565b61105a565b610efb565b610e7a565b610a82565b6109a6565b610919565b6108d7565b6108b4565b6107cc565b610702565b61066d565b610539565b61050c565b6101a3565b6001600160a01b0381160361014d57565b600080fd5b6024359061015f8261013c565b565b6003199160608284011261014d576004359260243561017f8161013c565b92604435916001600160401b03831161014d578260c09203011261014d5760040190565b3461014d576101b136610161565b909160018060a01b039060009382855460101c16331480156104eb575b6101d7906114ed565b6101df611530565b60a08401926101fa6101f185876118e4565b90501515611741565b60085461021d90610211906001600160a01b031681565b6001600160a01b031690565b604080516312cab54560e01b815287356004820181905297909692602091908290899060249082905afa97881561046b578a98610262918a916104ce575b5015611a45565b816102a5818301976102796102116102118b61198b565b865163f01f2b8b60e01b81526001600160a01b039092166004830152909a8b9283919082906024820190565b03925af197881561046b578a986102c3918a916104a1575b506119ad565b816102d36102116102118961198b565b60048551809b819363c516ad1160e01b83525af192831561046b57878b948b9a8691610474575b5014610305906119f9565b8082019461031386846118e4565b606085019b916103238d876118e4565b91909261032e6105de565b948552369061033c92610618565b87840152369061034b92610618565b8382015261035890611c5c565b6103618861198b565b61036b82856118e4565b369061037692610618565b61037f91611eb6565b936103886105de565b90868252610394611d70565b908201526103a0611d70565b838201526103ad90611c5c565b6008546001600160a01b0316803b1561047057825163ae74db0560e01b8152600481018d905295908690602490829084905af192831561046b5761043d61042c6104257fb33d9021d0f30256149a64ad07cca70ebdf7c84f59e84d6af5a36a94fd104c589b61044c9961043598610452575b5061198b565b98836118e4565b95909c836118e4565b9390926118e4565b94909351988998169b88611e6a565b0390a480f35b8061045f610465926105a5565b80610501565b3861041f565b6117fd565b8580fd5b6104949150853d871161049a575b61048c81836105bd565b81019061178d565b386102fa565b503d610482565b6104c19150843d86116104c7575b6104b981836105bd565b810190611995565b386102bd565b503d6104af565b6104e59150843d86116104c7576104b981836105bd565b3861025b565b503385526002602052604085205460ff166101ce565b600091031261014d57565b3461014d57600036600319011261014d5760005460405160109190911c6001600160a01b03168152602090f35b3461014d57600036600319011261014d576001546040516001600160a01b039091168152602090f35b9181601f8401121561014d578235916001600160401b03831161014d576020838186019501011161014d57565b634e487b7160e01b600052604160045260246000fd5b6001600160401b0381116105b857604052565b61058f565b90601f801991011681019081106001600160401b038211176105b857604052565b60405190606082018281106001600160401b038211176105b857604052565b6001600160401b0381116105b857601f01601f191660200190565b929192610624826105fd565b9161063260405193846105bd565b82948184528183011161014d578281602093846000960137010152565b9080601f8301121561014d5781602061066a93359101610618565b90565b3461014d5760c036600319011261014d57610686610152565b6001600160401b039060443582811161014d576106a7903690600401610562565b9060643584811161014d576106c0903690600401610562565b9060843586811161014d576106d9903690600401610562565b94909360a43597881161014d576106f761070098369060040161064f565b96600435611574565b005b3461014d576000806003193601126107c95780543360109190911c6001600160a01b03161480156107b3575b610737906114ed565b60045460ff8116156107775760ff19166004557f5db9ee0a495bf2e6ff9c91a7834c1ba4fdd244a5e8aa4e537bd38aeae4b073aa6020604051338152a180f35b60405162461bcd60e51b815260206004820152601460248201527314185d5cd8589b194e881b9bdd081c185d5cd95960621b6044820152606490fd5b503381526002602052604081205460ff1661072e565b80fd5b3461014d576000806003193601126107c9576001546001600160a01b03908116801561086f576000805462010000600160b01b03601093841b1662010000600160b01b0319909116178155600180546001600160a01b031916905583546040514281529193921c919091166001600160a01b0316907fff88f8815b3f9faf85529ba09d2f7ff0d9c726c11cc863fd24515698601425909080602081015b0390a380f35b60405162461bcd60e51b815260206004820152601760248201527f4333476f763a20656d7074792070656e64696e67476f760000000000000000006044820152606490fd5b3461014d57600036600319011261014d57602060ff600454166040519015158152f35b3461014d57602036600319011261014d576004356108f48161013c565b60018060a01b03166000526002602052602060ff604060002054166040519015158152f35b3461014d576000806003193601126107c95780543360109190911c6001600160a01b0316148015610990575b61094e906114ed565b610956611530565b600160ff1960045416176004557f62e78cea01bee320cd4e420270b5ea74000d11b0c9f74754ebdbfc544b05a2586020604051338152a180f35b503381526002602052604081205460ff16610945565b3461014d57602036600319011261014d576004356109c38161013c565b60018060a01b036109dc8160005460101c163314611fcf565b8116908115610a3e57610700916000526002602052610a10610a0b610a07604060002060ff90541690565b1590565b61200d565b6001600160a01b0381166000908152600260205260409020610a3990805460ff19166001179055565b612063565b606460405162461bcd60e51b815260206004820152602060248201527f433343616c6c65723a204f70657261746f7220697320616464726573732830296044820152fd5b3461014d57610a9036610161565b9060018060a01b039060009382855460101c1633148015610e64575b610ab5906114ed565b610abd611530565b60a08401610ace6101f182876118e4565b6020948581018787610b16610ae86102116102118661198b565b6040805163f01f2b8b60e01b81526001600160a01b03909a1660048b01529893849283919082906024820190565b03925af1801561046b57610b30918a91610e4d57506119ad565b8787610b416102116102118561198b565b600488518094819363c516ad1160e01b83525af190811561046b57610b709186918b91610e30575b50146119f9565b600854610b8790610211906001600160a01b031681565b96823596818751809a6312cab54560e01b82528180610bae8d600483019190602083019252565b03915afa90811561046b5785878a9286868f9e8f90978b988291610e13575b5015610bd890611a45565b8d818088818c858101988d610bed8b846118e4565b90606085019b610bfd8d876118e4565b929093610c086105de565b9586523690610c1692610618565b908401523690610c2592610618565b88820152610c3290611c5c565b610c3b9061198b565b92610c45916118e4565b869291925192838092610c5792611d62565b03925af1988991610c66611d93565b9c8d94610c716105de565b9081528d610c7d611d70565b90820152610c89611d70565b83820152610c9690611c5c565b610c9f9061198b565b95610caa90836118e4565b999095610cb790846118e4565b91610cc291946118e4565b93909251988998169a610cd59789611dc3565b037f3d1c99bef13ab4c25bd65eab4a7720726c0af76993aeb46245e6639956f7e1ae91a4610d0283611fb4565b9082610e0b575b5081610e00575b5015610d7f575050600854610d33935061021192506001600160a01b0316905081565b803b15610d7a57905163ae74db0560e01b815260048101929092529091908290602490829084905af1801561046b57610d6a575080f35b8061045f610d77926105a5565b80f35b505050fd5b8293949697507f110f42a49af0b77cf036501ce97081e652e9f0d25822a0db11b128e9742d4f4395610df68392610de8610dca610dc2608061086999018a6118e4565b9a90996118e4565b859691965196879463b121f51d60e01b908601528d60248601611e15565b03601f1981018452836105bd565b5194859485611e41565b600191501438610d10565b915038610d09565b610e2a9150833d85116104c7576104b981836105bd565b38610bcd565b610e4791508a3d8c1161049a5761048c81836105bd565b38610b69565b6104c19150893d8b116104c7576104b981836105bd565b503385526002602052604085205460ff16610aac565b3461014d57602036600319011261014d57600435610e978161013c565b60005460101c6001600160a01b0390811691610eb4338414611fcf565b1690816bffffffffffffffffffffffff60a01b60015416176001557fd098c548c6851f1e61d4e1364996748b40477bb1abe90254bd71352396b2b7be6020604051428152a3005b3461014d57600036600319011261014d576008546040516001600160a01b039091168152602090f35b90600182811c92168015610f54575b6020831014610f3e57565b634e487b7160e01b600052602260045260246000fd5b91607f1691610f33565b6040519060008260075491610f7283610f24565b80835292600190818116908115610ff85750600114610f99575b5061015f925003836105bd565b6007600090815291507fa66cc928b5edb82af9bd49922954155ab7b0942694bea4ce44661d9a8736c6885b848310610fdd575061015f935050810160200138610f8c565b81935090816020925483858a01015201910190918592610fc4565b90506020925061015f94915060ff191682840152151560051b82010138610f8c565b919082519283825260005b848110611046575050826000602080949584010152601f8019910116010190565b602081830181015184830182015201611025565b3461014d576000806003193601126107c95760055460405191828160065461108181610f24565b8084529360019180831690811561113f57506001146110e2575b50506110a9925003836105bd565b6110de6110b4610f5e565b6110d0604051948594855260606020860152606085019061101a565b90838203604085015261101a565b0390f35b9150600682527ff652222313e28459528d920b65115c16c04f3efc82aaedc97be59f3f377c0d3f5b84831061112457506110a99350508101602001388061109b565b81935090816020925483858a0101520191019091859261110a565b915050602092506110a994915060ff191682840152151560051b820101388061109b565b3461014d576000806003193601126107c957604051809160035490818352602080930180926003835260008051602061225a83398151915290835b8181106111fb57505050846111b49103856105bd565b60405193838594850191818652518092526040850193925b8281106111db57505050500390f35b83516001600160a01b0316855286955093810193928101926001016111cc565b82546001600160a01b03168452928601926001928301920161119e565b634e487b7160e01b600052603260045260246000fd5b60035481101561125357600360005260008051602061225a8339815191520190600090565b611218565b3461014d57602036600319011261014d5760043560035481101561014d57600360005260008051602061225a83398151915201546040516001600160a01b039091168152602090f35b9181601f8401121561014d578235916001600160401b03831161014d576020808501948460051b01011161014d57565b3461014d5760a036600319011261014d57600480356024356112f28161013c565b6001600160401b039060443582811161014d5761131290369086016112a1565b939060643584811161014d5761132b90369088016112a1565b93909460843590811161014d576113459036908901610562565b909761134f611530565b61135a85151561166e565b6113658815156116b3565b6113708615156116f5565b61137b821515611741565b611386868314611863565b60005b86811061139257005b80866000848b898f968f818f926113c4906113cc936113be61021161021160085460018060a01b031690565b96611916565b939095611916565b9590936113f58c60409b8c51998a988997889663f1a9bff960e01b885260209e8f9d89016117bd565b03925af190811561046b5788888f8f908f96918f998f966114629b8b918f9660009b611467575b50508161144561145a979695949361144d9360008051602061227a8339815191529c9d9e611916565b949099611916565b9290915197889788611931565b0390a36118d0565b611389565b60008051602061227a8339815191529a9b508361144d936114a061145a9a99989796948461144595903d1061049a5761048c81836105bd565b9d9c50935093949596975061141c565b3461014d57602036600319011261014d576107006004356114d08161013c565b6114e860018060a01b0360005460101c163314611fcf565b612138565b156114f457565b60405162461bcd60e51b81526020600482015260146024820152732199a3b7bb1d1037b7363c9027b832b930ba37b960611b6044820152606490fd5b60ff6004541661153c57565b60405162461bcd60e51b815260206004820152601060248201526f14185d5cd8589b194e881c185d5cd95960821b6044820152606490fd5b9590939497928792611584611530565b61158f88151561166e565b61159a8215156116b3565b6115a58a15156116f5565b6115b0841515611741565b6008546001600160a01b03166001600160a01b0316838b8a6040519c8d93849363f1a9bff960e01b85528d898960048801966115eb976117bd565b03815a602094600091f198891561046b57600099611630575b509061162b9493929160008051602061227a83398151915298999a60405198899889611809565b0390a3565b60008051602061227a8339815191529899509061166161162b969594939260203d811161049a5761048c81836105bd565b9998509091929394611604565b1561167557565b60405162461bcd60e51b815260206004820152601660248201527510ccd0d85b1b195c8e88195b5c1d1e4819185c1c125160521b6044820152606490fd5b156116ba57565b60405162461bcd60e51b8152602060048201526013602482015272433343616c6c65723a20656d707479205f746f60681b6044820152606490fd5b156116fc57565b60405162461bcd60e51b815260206004820152601960248201527f433343616c6c65723a20656d70747920746f436861696e4944000000000000006044820152606490fd5b1561174857565b60405162461bcd60e51b815260206004820152601860248201527f433343616c6c65723a20656d7074792063616c6c6461746100000000000000006044820152606490fd5b9081602091031261014d575190565b908060209392818452848401376000828201840152601f01601f1916010190565b9593916117e1906117ef9461066a9997938952608060208a0152608089019161179c565b91868303604088015261179c565b92606081850391015261179c565b6040513d6000823e3d90fd5b969294611839611847936118559761066a9b99979460018060a01b03168b5260a060208c015260a08b019161179c565b9188830360408a015261179c565b91858303606087015261179c565b91608081840391015261101a565b1561186a57565b60405162461bcd60e51b815260206004820152602260248201527f433343616c6c65723a2063616c6c64617461206c656e677468206469736d61746044820152610c6d60f31b6064820152608490fd5b634e487b7160e01b600052601160045260246000fd5b60001981146118df5760010190565b6118ba565b903590601e198136030182121561014d57018035906001600160401b03821161014d5760200191813603831361014d57565b908210156112535761192d9160051b8101906118e4565b9091565b9593909461195e61196c936020999561197a9860018060a01b03168a5260a08b8b015260a08a019161179c565b91878303604089015261179c565b91848303606086015261179c565b906080818303910152600081520190565b3561066a8161013c565b9081602091031261014d5751801515810361014d5790565b156119b457565b60405162461bcd60e51b815260206004820152601a60248201527f433343616c6c65723a20747853656e64657220696e76616c69640000000000006044820152606490fd5b15611a0057565b60405162461bcd60e51b815260206004820152601960248201527f433343616c6c65723a20646170704944206469736d61746368000000000000006044820152606490fd5b15611a4c57565b60405162461bcd60e51b815260206004820152601b60248201527f433343616c6c65723a20616c726561647920636f6d706c6574656400000000006044820152606490fd5b601f8111611a9d575050565b600090600682527ff652222313e28459528d920b65115c16c04f3efc82aaedc97be59f3f377c0d3f906020601f850160051c83019410611af8575b601f0160051c01915b828110611aed57505050565b818155600101611ae1565b9092508290611ad8565b601f8111611b0e575050565b600090600782527fa66cc928b5edb82af9bd49922954155ab7b0942694bea4ce44661d9a8736c688906020601f850160051c83019410611b69575b601f0160051c01915b828110611b5e57505050565b818155600101611b52565b9092508290611b49565b9081516001600160401b0381116105b857611b9881611b93600754610f24565b611b02565b602080601f8311600114611bd45750819293600092611bc9575b50508160011b916000199060031b1c191617600755565b015190503880611bb2565b90601f19831694611c0760076000527fa66cc928b5edb82af9bd49922954155ab7b0942694bea4ce44661d9a8736c68890565b926000905b878210611c44575050836001959610611c2b575b505050811b01600755565b015160001960f88460031b161c19169055388080611c20565b80600185968294968601518155019501930190611c0c565b8051600555602080820151908151916001600160401b0383116105b857611c8d83611c88600654610f24565b611a91565b81601f8411600114611cd45750918061015f9492604094600092611cc9575b50508160011b916000199060031b1c1916176006555b0151611b73565b015190503880611cac565b60066000529190601f1984167ff652222313e28459528d920b65115c16c04f3efc82aaedc97be59f3f377c0d3f936000905b828210611d4a57505092600192859260409661015f989610611d31575b505050811b01600655611cc2565b015160001960f88460031b161c19169055388080611d23565b80600186978294978701518155019601940190611d06565b908092918237016000815290565b60405190602082018281106001600160401b038211176105b85760405260008252565b3d15611dbe573d90611da4826105fd565b91611db260405193846105bd565b82523d6000602084013e565b606090565b9492611e0094611de4611df29361066a9b999560a08a5260a08a019161179c565b91878303602089015261179c565b91848303604086015261179c565b9215156060820152608081840391015261101a565b929161066a9492611e3392855260606020860152606085019161179c565b91604081840391015261101a565b92611e5c611e339261066a969460608752606087019161179c565b90848203602086015261101a565b959192611ea894611e8c611e9a9361066a9a989660808b5260808b019161179c565b9188830360208a015261179c565b91858303604087015261179c565b91606081840391015261101a565b6040519060408201928284106001600160401b038511176105b8576000809161066a95604052601e85527f416464726573733a206c6f772d6c6576656c2063616c6c206661696c65640000602086015260208151910182855af1611f18611d93565b929015611f795750815115611f2b575090565b3b15611f345790565b60405162461bcd60e51b815260206004820152601d60248201527f416464726573733a2063616c6c20746f206e6f6e2d636f6e74726163740000006044820152606490fd5b825190915015611f8c5750805190602001fd5b60405162461bcd60e51b815260206004820152908190611fb090602483019061101a565b0390fd5b6020815110611fc65760200151600191565b50600090600090565b15611fd657565b60405162461bcd60e51b815260206004820152600f60248201526e2199a3b7bb1d1037b7363c9023b7bb60891b6044820152606490fd5b1561201457565b60405162461bcd60e51b815260206004820152602160248201527f433343616c6c65723a204f70657261746f7220616c72656164792065786973746044820152607360f81b6064820152608490fd5b600354680100000000000000008110156105b857600181018060035581101561125357600360005260008051602061225a8339815191520180546001600160a01b0319166001600160a01b03909216919091179055565b6000198101919082116118df57565b60035480156121225760001981019080821015611253577fc2575a0e9e593c00f959f8c92f12db2869c3395a3b0502d05e2516446f71f85a906003600052016bffffffffffffffffffffffff60a01b8154169055600355565b634e487b7160e01b600052603160045260246000fd5b6001600160a01b038181166000818152600260205260409020549192909160ff1615612214576001600160a01b03166000908152600260205260409020805460ff191690556003549060005b8281106121915750505050565b81846121b461219f8461122e565b905460039190911b1c6001600160a01b031690565b16146121c8576121c3906118d0565b612184565b9161220c93506121ed915061219f6121e26121e7926120ba565b61122e565b9161122e565b90919082549060031b9160018060a01b03809116831b921b1916179055565b61015f6120c9565b60405162461bcd60e51b815260206004820152601c60248201527f433343616c6c65723a204f70657261746f72206e6f7420666f756e64000000006044820152606490fdfec2575a0e9e593c00f959f8c92f12db2869c3395a3b0502d05e2516446f71f85b88ca677ce66cb94eb6b03d7e06b1735c23eafde3090030bf7fb84711690a287ea264697066735822122001804ec189eb27be0fdca1794c043434932e42f3116ae44076c0aa8a3bcb7db864736f6c63430008140033",
  "linkReferences": {},
  "deployedLinkReferences": {}
}