{
  "_format": "hh-sol-artifact-1",
  "contractName": "CTMRWA001AllRoundMock",
  "sourceName": "contracts/mocks/CTMRWA001AllRoundMock.sol",
  "abi": [
    {
      "inputs": [
        {
          "internalType": "string",
          "name": "name_",
          "type": "string"
        },
        {
          "internalType": "string",
          "name": "symbol_",
          "type": "string"
        },
        {
          "internalType": "uint8",
          "name": "decimals_",
          "type": "uint8"
        },
        {
          "internalType": "address",
          "name": "_ctmRwa001XChain",
          "type": "address"
        }
      ],
      "stateMutability": "nonpayable",
      "type": "constructor"
    },
    {
      "anonymous": false,
      "inputs": [
        {
          "indexed": true,
          "internalType": "address",
          "name": "_owner",
          "type": "address"
        },
        {
          "indexed": true,
          "internalType": "address",
          "name": "_approved",
          "type": "address"
        },
        {
          "indexed": true,
          "internalType": "uint256",
          "name": "_tokenId",
          "type": "uint256"
        }
      ],
      "name": "Approval",
      "type": "event"
    },
    {
      "anonymous": false,
      "inputs": [
        {
          "indexed": true,
          "internalType": "address",
          "name": "_owner",
          "type": "address"
        },
        {
          "indexed": true,
          "internalType": "address",
          "name": "_operator",
          "type": "address"
        },
        {
          "indexed": false,
          "internalType": "bool",
          "name": "_approved",
          "type": "bool"
        }
      ],
      "name": "ApprovalForAll",
      "type": "event"
    },
    {
      "anonymous": false,
      "inputs": [
        {
          "indexed": true,
          "internalType": "address",
          "name": "_owner",
          "type": "address"
        },
        {
          "indexed": true,
          "internalType": "uint256",
          "name": "_slot",
          "type": "uint256"
        },
        {
          "indexed": true,
          "internalType": "address",
          "name": "_operator",
          "type": "address"
        },
        {
          "indexed": false,
          "internalType": "bool",
          "name": "_approved",
          "type": "bool"
        }
      ],
      "name": "ApprovalForSlot",
      "type": "event"
    },
    {
      "anonymous": false,
      "inputs": [
        {
          "indexed": true,
          "internalType": "uint256",
          "name": "_tokenId",
          "type": "uint256"
        },
        {
          "indexed": true,
          "internalType": "address",
          "name": "_operator",
          "type": "address"
        },
        {
          "indexed": false,
          "internalType": "uint256",
          "name": "_value",
          "type": "uint256"
        }
      ],
      "name": "ApprovalValue",
      "type": "event"
    },
    {
      "anonymous": false,
      "inputs": [
        {
          "indexed": true,
          "internalType": "address",
          "name": "metadataDescriptor",
          "type": "address"
        }
      ],
      "name": "SetMetadataDescriptor",
      "type": "event"
    },
    {
      "anonymous": false,
      "inputs": [
        {
          "indexed": true,
          "internalType": "uint256",
          "name": "_tokenId",
          "type": "uint256"
        },
        {
          "indexed": true,
          "internalType": "uint256",
          "name": "_oldSlot",
          "type": "uint256"
        },
        {
          "indexed": true,
          "internalType": "uint256",
          "name": "_newSlot",
          "type": "uint256"
        }
      ],
      "name": "SlotChanged",
      "type": "event"
    },
    {
      "anonymous": false,
      "inputs": [
        {
          "indexed": true,
          "internalType": "address",
          "name": "_from",
          "type": "address"
        },
        {
          "indexed": true,
          "internalType": "address",
          "name": "_to",
          "type": "address"
        },
        {
          "indexed": true,
          "internalType": "uint256",
          "name": "_tokenId",
          "type": "uint256"
        }
      ],
      "name": "Transfer",
      "type": "event"
    },
    {
      "anonymous": false,
      "inputs": [
        {
          "indexed": true,
          "internalType": "uint256",
          "name": "_fromTokenId",
          "type": "uint256"
        },
        {
          "indexed": true,
          "internalType": "uint256",
          "name": "_toTokenId",
          "type": "uint256"
        },
        {
          "indexed": false,
          "internalType": "uint256",
          "name": "_value",
          "type": "uint256"
        }
      ],
      "name": "TransferValue",
      "type": "event"
    },
    {
      "inputs": [],
      "name": "ID",
      "outputs": [
        {
          "internalType": "uint256",
          "name": "",
          "type": "uint256"
        }
      ],
      "stateMutability": "view",
      "type": "function"
    },
    {
      "inputs": [
        {
          "internalType": "address",
          "name": "_admin",
          "type": "address"
        },
        {
          "internalType": "string[]",
          "name": "_chainIdsStr",
          "type": "string[]"
        },
        {
          "internalType": "string[]",
          "name": "_contractAddrsStr",
          "type": "string[]"
        }
      ],
      "name": "addXTokenInfo",
      "outputs": [
        {
          "internalType": "bool",
          "name": "",
          "type": "bool"
        }
      ],
      "stateMutability": "nonpayable",
      "type": "function"
    },
    {
      "inputs": [],
      "name": "admin",
      "outputs": [
        {
          "internalType": "address",
          "name": "",
          "type": "address"
        }
      ],
      "stateMutability": "view",
      "type": "function"
    },
    {
      "inputs": [
        {
          "internalType": "uint256",
          "name": "tokenId_",
          "type": "uint256"
        },
        {
          "internalType": "address",
          "name": "operator_",
          "type": "address"
        }
      ],
      "name": "allowance",
      "outputs": [
        {
          "internalType": "uint256",
          "name": "",
          "type": "uint256"
        }
      ],
      "stateMutability": "view",
      "type": "function"
    },
    {
      "inputs": [
        {
          "internalType": "address",
          "name": "to_",
          "type": "address"
        },
        {
          "internalType": "uint256",
          "name": "tokenId_",
          "type": "uint256"
        }
      ],
      "name": "approve",
      "outputs": [],
      "stateMutability": "payable",
      "type": "function"
    },
    {
      "inputs": [
        {
          "internalType": "uint256",
          "name": "tokenId_",
          "type": "uint256"
        },
        {
          "internalType": "address",
          "name": "to_",
          "type": "address"
        },
        {
          "internalType": "uint256",
          "name": "value_",
          "type": "uint256"
        }
      ],
      "name": "approve",
      "outputs": [],
      "stateMutability": "payable",
      "type": "function"
    },
    {
      "inputs": [
        {
          "internalType": "address",
          "name": "to_",
          "type": "address"
        },
        {
          "internalType": "uint256",
          "name": "tokenId_",
          "type": "uint256"
        }
      ],
      "name": "approveFromX",
      "outputs": [],
      "stateMutability": "nonpayable",
      "type": "function"
    },
    {
      "inputs": [
        {
          "internalType": "uint256",
          "name": "nextID",
          "type": "uint256"
        },
        {
          "internalType": "address",
          "name": "_admin",
          "type": "address"
        }
      ],
      "name": "attachId",
      "outputs": [
        {
          "internalType": "bool",
          "name": "",
          "type": "bool"
        }
      ],
      "stateMutability": "nonpayable",
      "type": "function"
    },
    {
      "inputs": [
        {
          "internalType": "address",
          "name": "owner_",
          "type": "address"
        }
      ],
      "name": "balanceOf",
      "outputs": [
        {
          "internalType": "uint256",
          "name": "balance",
          "type": "uint256"
        }
      ],
      "stateMutability": "view",
      "type": "function"
    },
    {
      "inputs": [
        {
          "internalType": "uint256",
          "name": "tokenId_",
          "type": "uint256"
        }
      ],
      "name": "balanceOf",
      "outputs": [
        {
          "internalType": "uint256",
          "name": "",
          "type": "uint256"
        }
      ],
      "stateMutability": "view",
      "type": "function"
    },
    {
      "inputs": [
        {
          "internalType": "uint256",
          "name": "tokenId_",
          "type": "uint256"
        }
      ],
      "name": "burn",
      "outputs": [],
      "stateMutability": "nonpayable",
      "type": "function"
    },
    {
      "inputs": [
        {
          "internalType": "uint256",
          "name": "tokenId_",
          "type": "uint256"
        },
        {
          "internalType": "uint256",
          "name": "burnValue_",
          "type": "uint256"
        }
      ],
      "name": "burnValue",
      "outputs": [],
      "stateMutability": "nonpayable",
      "type": "function"
    },
    {
      "inputs": [
        {
          "internalType": "uint256",
          "name": "fromTokenId_",
          "type": "uint256"
        },
        {
          "internalType": "uint256",
          "name": "value_",
          "type": "uint256"
        }
      ],
      "name": "burnValueX",
      "outputs": [
        {
          "internalType": "bool",
          "name": "",
          "type": "bool"
        }
      ],
      "stateMutability": "nonpayable",
      "type": "function"
    },
    {
      "inputs": [
        {
          "internalType": "address",
          "name": "_admin",
          "type": "address"
        }
      ],
      "name": "changeAdmin",
      "outputs": [
        {
          "internalType": "bool",
          "name": "",
          "type": "bool"
        }
      ],
      "stateMutability": "nonpayable",
      "type": "function"
    },
    {
      "inputs": [
        {
          "internalType": "address",
          "name": "_admin",
          "type": "address"
        }
      ],
      "name": "changeAdminX",
      "outputs": [
        {
          "internalType": "bool",
          "name": "",
          "type": "bool"
        }
      ],
      "stateMutability": "nonpayable",
      "type": "function"
    },
    {
      "inputs": [
        {
          "internalType": "string",
          "name": "_otherChainIdStr",
          "type": "string"
        },
        {
          "internalType": "string",
          "name": "_otherContractStr",
          "type": "string"
        }
      ],
      "name": "checkTokenCompatibility",
      "outputs": [
        {
          "internalType": "bool",
          "name": "",
          "type": "bool"
        }
      ],
      "stateMutability": "view",
      "type": "function"
    },
    {
      "inputs": [
        {
          "internalType": "uint256",
          "name": "tokenId_",
          "type": "uint256"
        }
      ],
      "name": "clearApprovedValues",
      "outputs": [],
      "stateMutability": "nonpayable",
      "type": "function"
    },
    {
      "inputs": [],
      "name": "contractURI",
      "outputs": [
        {
          "internalType": "string",
          "name": "",
          "type": "string"
        }
      ],
      "stateMutability": "view",
      "type": "function"
    },
    {
      "inputs": [],
      "name": "ctmRwa001XChain",
      "outputs": [
        {
          "internalType": "address",
          "name": "",
          "type": "address"
        }
      ],
      "stateMutability": "view",
      "type": "function"
    },
    {
      "inputs": [
        {
          "internalType": "uint256",
          "name": "tokenId_",
          "type": "uint256"
        }
      ],
      "name": "getApproved",
      "outputs": [
        {
          "internalType": "address",
          "name": "",
          "type": "address"
        }
      ],
      "stateMutability": "view",
      "type": "function"
    },
    {
      "inputs": [
        {
          "internalType": "string",
          "name": "_chainIdStr",
          "type": "string"
        }
      ],
      "name": "getTokenContract",
      "outputs": [
        {
          "internalType": "string",
          "name": "",
          "type": "string"
        }
      ],
      "stateMutability": "view",
      "type": "function"
    },
    {
      "inputs": [
        {
          "internalType": "uint256",
          "name": "tokenId_",
          "type": "uint256"
        }
      ],
      "name": "getTokenInfo",
      "outputs": [
        {
          "internalType": "uint256",
          "name": "",
          "type": "uint256"
        },
        {
          "internalType": "uint256",
          "name": "",
          "type": "uint256"
        },
        {
          "internalType": "address",
          "name": "",
          "type": "address"
        },
        {
          "internalType": "uint256",
          "name": "",
          "type": "uint256"
        }
      ],
      "stateMutability": "view",
      "type": "function"
    },
    {
      "inputs": [
        {
          "internalType": "uint256",
          "name": "tokenId_",
          "type": "uint256"
        }
      ],
      "name": "idOf",
      "outputs": [
        {
          "internalType": "uint256",
          "name": "",
          "type": "uint256"
        }
      ],
      "stateMutability": "view",
      "type": "function"
    },
    {
      "inputs": [
        {
          "internalType": "address",
          "name": "owner_",
          "type": "address"
        },
        {
          "internalType": "address",
          "name": "operator_",
          "type": "address"
        }
      ],
      "name": "isApprovedForAll",
      "outputs": [
        {
          "internalType": "bool",
          "name": "",
          "type": "bool"
        }
      ],
      "stateMutability": "view",
      "type": "function"
    },
    {
      "inputs": [
        {
          "internalType": "address",
          "name": "owner_",
          "type": "address"
        },
        {
          "internalType": "uint256",
          "name": "slot_",
          "type": "uint256"
        },
        {
          "internalType": "address",
          "name": "operator_",
          "type": "address"
        }
      ],
      "name": "isApprovedForSlot",
      "outputs": [
        {
          "internalType": "bool",
          "name": "",
          "type": "bool"
        }
      ],
      "stateMutability": "view",
      "type": "function"
    },
    {
      "inputs": [
        {
          "internalType": "address",
          "name": "operator_",
          "type": "address"
        },
        {
          "internalType": "uint256",
          "name": "tokenId_",
          "type": "uint256"
        }
      ],
      "name": "isApprovedOrOwner",
      "outputs": [
        {
          "internalType": "bool",
          "name": "",
          "type": "bool"
        }
      ],
      "stateMutability": "view",
      "type": "function"
    },
    {
      "inputs": [],
      "name": "metadataDescriptor",
      "outputs": [
        {
          "internalType": "contract ICTMRWA001MetadataDescriptor",
          "name": "",
          "type": "address"
        }
      ],
      "stateMutability": "view",
      "type": "function"
    },
    {
      "inputs": [
        {
          "internalType": "address",
          "name": "mintTo_",
          "type": "address"
        },
        {
          "internalType": "uint256",
          "name": "tokenId_",
          "type": "uint256"
        },
        {
          "internalType": "uint256",
          "name": "slot_",
          "type": "uint256"
        },
        {
          "internalType": "uint256",
          "name": "value_",
          "type": "uint256"
        }
      ],
      "name": "mint",
      "outputs": [],
      "stateMutability": "nonpayable",
      "type": "function"
    },
    {
      "inputs": [
        {
          "internalType": "address",
          "name": "to_",
          "type": "address"
        },
        {
          "internalType": "uint256",
          "name": "tokenId_",
          "type": "uint256"
        },
        {
          "internalType": "uint256",
          "name": "slot_",
          "type": "uint256"
        },
        {
          "internalType": "uint256",
          "name": "value_",
          "type": "uint256"
        }
      ],
      "name": "mintFromX",
      "outputs": [],
      "stateMutability": "nonpayable",
      "type": "function"
    },
    {
      "inputs": [
        {
          "internalType": "address",
          "name": "to_",
          "type": "address"
        },
        {
          "internalType": "uint256",
          "name": "slot_",
          "type": "uint256"
        },
        {
          "internalType": "uint256",
          "name": "value_",
          "type": "uint256"
        }
      ],
      "name": "mintFromX",
      "outputs": [
        {
          "internalType": "uint256",
          "name": "tokenId",
          "type": "uint256"
        }
      ],
      "stateMutability": "nonpayable",
      "type": "function"
    },
    {
      "inputs": [
        {
          "internalType": "uint256",
          "name": "tokenId_",
          "type": "uint256"
        },
        {
          "internalType": "uint256",
          "name": "value_",
          "type": "uint256"
        }
      ],
      "name": "mintValue",
      "outputs": [],
      "stateMutability": "nonpayable",
      "type": "function"
    },
    {
      "inputs": [
        {
          "internalType": "uint256",
          "name": "toTokenId_",
          "type": "uint256"
        },
        {
          "internalType": "uint256",
          "name": "slot_",
          "type": "uint256"
        },
        {
          "internalType": "uint256",
          "name": "value_",
          "type": "uint256"
        }
      ],
      "name": "mintValueX",
      "outputs": [
        {
          "internalType": "bool",
          "name": "",
          "type": "bool"
        }
      ],
      "stateMutability": "nonpayable",
      "type": "function"
    },
    {
      "inputs": [],
      "name": "name",
      "outputs": [
        {
          "internalType": "string",
          "name": "",
          "type": "string"
        }
      ],
      "stateMutability": "view",
      "type": "function"
    },
    {
      "inputs": [
        {
          "internalType": "uint256",
          "name": "tokenId_",
          "type": "uint256"
        }
      ],
      "name": "ownerOf",
      "outputs": [
        {
          "internalType": "address",
          "name": "owner_",
          "type": "address"
        }
      ],
      "stateMutability": "view",
      "type": "function"
    },
    {
      "inputs": [
        {
          "internalType": "address",
          "name": "from_",
          "type": "address"
        },
        {
          "internalType": "uint256",
          "name": "tokenId_",
          "type": "uint256"
        }
      ],
      "name": "removeTokenFromOwnerEnumeration",
      "outputs": [],
      "stateMutability": "nonpayable",
      "type": "function"
    },
    {
      "inputs": [
        {
          "internalType": "address",
          "name": "from_",
          "type": "address"
        },
        {
          "internalType": "address",
          "name": "to_",
          "type": "address"
        },
        {
          "internalType": "uint256",
          "name": "tokenId_",
          "type": "uint256"
        }
      ],
      "name": "safeTransferFrom",
      "outputs": [],
      "stateMutability": "payable",
      "type": "function"
    },
    {
      "inputs": [
        {
          "internalType": "address",
          "name": "from_",
          "type": "address"
        },
        {
          "internalType": "address",
          "name": "to_",
          "type": "address"
        },
        {
          "internalType": "uint256",
          "name": "tokenId_",
          "type": "uint256"
        },
        {
          "internalType": "bytes",
          "name": "data_",
          "type": "bytes"
        }
      ],
      "name": "safeTransferFrom",
      "outputs": [],
      "stateMutability": "payable",
      "type": "function"
    },
    {
      "inputs": [
        {
          "internalType": "address",
          "name": "operator_",
          "type": "address"
        },
        {
          "internalType": "bool",
          "name": "approved_",
          "type": "bool"
        }
      ],
      "name": "setApprovalForAll",
      "outputs": [],
      "stateMutability": "nonpayable",
      "type": "function"
    },
    {
      "inputs": [
        {
          "internalType": "address",
          "name": "owner_",
          "type": "address"
        },
        {
          "internalType": "uint256",
          "name": "slot_",
          "type": "uint256"
        },
        {
          "internalType": "address",
          "name": "operator_",
          "type": "address"
        },
        {
          "internalType": "bool",
          "name": "approved_",
          "type": "bool"
        }
      ],
      "name": "setApprovalForSlot",
      "outputs": [],
      "stateMutability": "payable",
      "type": "function"
    },
    {
      "inputs": [
        {
          "internalType": "uint256",
          "name": "index_",
          "type": "uint256"
        }
      ],
      "name": "slotByIndex",
      "outputs": [
        {
          "internalType": "uint256",
          "name": "",
          "type": "uint256"
        }
      ],
      "stateMutability": "view",
      "type": "function"
    },
    {
      "inputs": [],
      "name": "slotCount",
      "outputs": [
        {
          "internalType": "uint256",
          "name": "",
          "type": "uint256"
        }
      ],
      "stateMutability": "view",
      "type": "function"
    },
    {
      "inputs": [
        {
          "internalType": "uint256",
          "name": "tokenId_",
          "type": "uint256"
        }
      ],
      "name": "slotOf",
      "outputs": [
        {
          "internalType": "uint256",
          "name": "",
          "type": "uint256"
        }
      ],
      "stateMutability": "view",
      "type": "function"
    },
    {
      "inputs": [
        {
          "internalType": "uint256",
          "name": "slot_",
          "type": "uint256"
        }
      ],
      "name": "slotURI",
      "outputs": [
        {
          "internalType": "string",
          "name": "",
          "type": "string"
        }
      ],
      "stateMutability": "view",
      "type": "function"
    },
    {
      "inputs": [
        {
          "internalType": "address",
          "name": "operator_",
          "type": "address"
        },
        {
          "internalType": "uint256",
          "name": "tokenId_",
          "type": "uint256"
        },
        {
          "internalType": "uint256",
          "name": "value_",
          "type": "uint256"
        }
      ],
      "name": "spendAllowance",
      "outputs": [],
      "stateMutability": "nonpayable",
      "type": "function"
    },
    {
      "inputs": [
        {
          "internalType": "string",
          "name": "a",
          "type": "string"
        },
        {
          "internalType": "string",
          "name": "b",
          "type": "string"
        }
      ],
      "name": "stringsEqual",
      "outputs": [
        {
          "internalType": "bool",
          "name": "",
          "type": "bool"
        }
      ],
      "stateMutability": "pure",
      "type": "function"
    },
    {
      "inputs": [
        {
          "internalType": "bytes4",
          "name": "interfaceId",
          "type": "bytes4"
        }
      ],
      "name": "supportsInterface",
      "outputs": [
        {
          "internalType": "bool",
          "name": "",
          "type": "bool"
        }
      ],
      "stateMutability": "view",
      "type": "function"
    },
    {
      "inputs": [],
      "name": "symbol",
      "outputs": [
        {
          "internalType": "string",
          "name": "",
          "type": "string"
        }
      ],
      "stateMutability": "view",
      "type": "function"
    },
    {
      "inputs": [
        {
          "internalType": "uint256",
          "name": "index_",
          "type": "uint256"
        }
      ],
      "name": "tokenByIndex",
      "outputs": [
        {
          "internalType": "uint256",
          "name": "",
          "type": "uint256"
        }
      ],
      "stateMutability": "view",
      "type": "function"
    },
    {
      "inputs": [
        {
          "internalType": "uint256",
          "name": "",
          "type": "uint256"
        }
      ],
      "name": "tokenContract",
      "outputs": [
        {
          "internalType": "string",
          "name": "chainIdStr",
          "type": "string"
        },
        {
          "internalType": "string",
          "name": "contractStr",
          "type": "string"
        }
      ],
      "stateMutability": "view",
      "type": "function"
    },
    {
      "inputs": [
        {
          "internalType": "uint256",
          "name": "slot_",
          "type": "uint256"
        },
        {
          "internalType": "uint256",
          "name": "index_",
          "type": "uint256"
        }
      ],
      "name": "tokenInSlotByIndex",
      "outputs": [
        {
          "internalType": "uint256",
          "name": "",
          "type": "uint256"
        }
      ],
      "stateMutability": "view",
      "type": "function"
    },
    {
      "inputs": [
        {
          "internalType": "address",
          "name": "owner_",
          "type": "address"
        },
        {
          "internalType": "uint256",
          "name": "index_",
          "type": "uint256"
        }
      ],
      "name": "tokenOfOwnerByIndex",
      "outputs": [
        {
          "internalType": "uint256",
          "name": "",
          "type": "uint256"
        }
      ],
      "stateMutability": "view",
      "type": "function"
    },
    {
      "inputs": [
        {
          "internalType": "uint256",
          "name": "slot_",
          "type": "uint256"
        }
      ],
      "name": "tokenSupplyInSlot",
      "outputs": [
        {
          "internalType": "uint256",
          "name": "",
          "type": "uint256"
        }
      ],
      "stateMutability": "view",
      "type": "function"
    },
    {
      "inputs": [
        {
          "internalType": "uint256",
          "name": "tokenId_",
          "type": "uint256"
        }
      ],
      "name": "tokenURI",
      "outputs": [
        {
          "internalType": "string",
          "name": "",
          "type": "string"
        }
      ],
      "stateMutability": "view",
      "type": "function"
    },
    {
      "inputs": [],
      "name": "totalSupply",
      "outputs": [
        {
          "internalType": "uint256",
          "name": "",
          "type": "uint256"
        }
      ],
      "stateMutability": "view",
      "type": "function"
    },
    {
      "inputs": [
        {
          "internalType": "uint256",
          "name": "fromTokenId_",
          "type": "uint256"
        },
        {
          "internalType": "address",
          "name": "to_",
          "type": "address"
        },
        {
          "internalType": "uint256",
          "name": "value_",
          "type": "uint256"
        }
      ],
      "name": "transferFrom",
      "outputs": [
        {
          "internalType": "uint256",
          "name": "newTokenId",
          "type": "uint256"
        }
      ],
      "stateMutability": "payable",
      "type": "function"
    },
    {
      "inputs": [
        {
          "internalType": "address",
          "name": "from_",
          "type": "address"
        },
        {
          "internalType": "address",
          "name": "to_",
          "type": "address"
        },
        {
          "internalType": "uint256",
          "name": "tokenId_",
          "type": "uint256"
        }
      ],
      "name": "transferFrom",
      "outputs": [],
      "stateMutability": "payable",
      "type": "function"
    },
    {
      "inputs": [
        {
          "internalType": "uint256",
          "name": "fromTokenId_",
          "type": "uint256"
        },
        {
          "internalType": "uint256",
          "name": "toTokenId_",
          "type": "uint256"
        },
        {
          "internalType": "uint256",
          "name": "value_",
          "type": "uint256"
        }
      ],
      "name": "transferFrom",
      "outputs": [],
      "stateMutability": "payable",
      "type": "function"
    },
    {
      "inputs": [],
      "name": "valueDecimals",
      "outputs": [
        {
          "internalType": "uint8",
          "name": "",
          "type": "uint8"
        }
      ],
      "stateMutability": "view",
      "type": "function"
    }
  ],
  "bytecode": "0x608060409080825234620007185762005e1280380380916200002282856200071d565b8339810191608082840312620007185781516001600160401b0392908381116200071857846200005491830162000782565b602094858301519085821162000718576200007191840162000782565b91838101519160ff918284168094036200071857606001516001600160a01b03811690819003620007185760018060a01b03196001943382875416178655856007558351968988116200070257878b98600496620000d08854620007cf565b90601f9e8f928381116200069b575b50508b918311600114620006335760009262000627575b5050600019600383901b1c191690881b1785555b80519a8a8c1162000612576005918c620001258454620007cf565b838111620005c7575b505089918d1160011462000559579b8091620002359b9c9d6000926200054d575b5050600019600383901b1c191690881b1790555b60ff19600654161760065560025416176002554693846000957a184f03e93ff9f4daa797ed6e38ed64bf6a1f010000000000000000808210156200053f575b506d04ee2d6d415b85acef81000000008083101562000530575b50662386f26fc100008083101562000520575b506305f5e1008083101562000510575b506127108083101562000501575b506064821015620004f0575b600a80921015620004e6575b85602181890198620002178a62000741565b99620002268d519b8c6200071d565b808b52601f199b8c9162000741565b0136878c0137890101905b620004b5575b5050503087519860608a01908a821090821117620004a0578852602a8952818901883682378951156200048b576030905388518510156200047657607860218a015360295b858111620004065750620003c457875195620002c3620002ab8862000741565b97620002ba8a51998a6200071d565b80895262000741565b0136828801376000845b620002ef575b87620002e088886200087a565b5051615179908162000c998239f35b8851811015620003be5762000305818a6200080c565b51604160f891821c101580620003a4575b1562000378578262000329838c6200080c565b51821c0185811162000363576200035c92911b6001600160f81b03191660001a62000355828a6200080c565b5362000834565b84620002cd565b601185634e487b7160e01b6000525260246000fd5b506200035c906001600160f81b031962000393828c6200080c565b511660001a62000355828a6200080c565b50605a620003b3838c6200080c565b51821c111562000316565b620002d3565b865162461bcd60e51b815291820181905260248201527f537472696e67733a20686578206c656e67746820696e73756666696369656e74604482015260649150fd5b90600f8116601081101562000461576f181899199a1a9b1b9c1cb0b131b232b360811b901a62000437838c6200080c565b53831c9080156200044c57600019016200028b565b601184634e487b7160e01b6000525260246000fd5b603285634e487b7160e01b6000525260246000fd5b603283634e487b7160e01b6000525260246000fd5b603284634e487b7160e01b6000525260246000fd5b604184634e487b7160e01b6000525260246000fd5b600019019082906f181899199a1a9b1b9c1cb0b131b232b360811b8282061a83530490868262000240575062000246565b9585019562000205565b9590606460029104910195620001f9565b849197920491019538620001ed565b60089197920491019538620001df565b60109197920491019538620001cf565b839197920491019538620001bc565b8997508104915038620001a2565b0151905038806200014f565b90601f198d1691836000528a6000209260005b818110620005b15750918a9391620002359d9e9f80941062000597575b505050811b01905562000163565b015160001960f88460031b161c1916905538808062000589565b828401518555938b0193928c01928c016200056c565b84600052838c600020918d828501881c8401941062000608575b01851c01908a905b828110620005fb57508e91506200012e565b60008155018a90620005e9565b92508192620005e1565b604186634e487b7160e01b6000525260246000fd5b015190503880620000f6565b60008981528c81208c9550929190601f198516908e5b82821062000683575050841162000669575b505050811b0185556200010a565b015160001960f88460031b161c191690553880806200065b565b8385015186558e979095019493840193018e62000649565b90929193506000918a83528383209181870160051c8301948710620006f8575b819492879694928f920160051c01925b838110620006de5750508d9150620000df565b829496508092919395505501918f92918c869593620006cb565b93508193620006bb565b634e487b7160e01b600052604160045260246000fd5b600080fd5b601f909101601f19168101906001600160401b038211908210176200070257604052565b6001600160401b0381116200070257601f01601f191660200190565b60005b838110620007715750506000910152565b818101518382015260200162000760565b81601f82011215620007185780516200079b8162000741565b92620007ab60405194856200071d565b818452602082840101116200071857620007cc91602080850191016200075d565b90565b90600182811c9216801562000801575b6020831014620007eb57565b634e487b7160e01b600052602260045260246000fd5b91607f1691620007df565b9081518110156200081e570160200190565b634e487b7160e01b600052603260045260246000fd5b6000198114620008445760010190565b634e487b7160e01b600052601160045260246000fd5b6003548110156200081e57600360005260206000209060011b0190600090565b9060009160038054935b84811062000b3b5750604080516001600160401b039390929183018481118482101762000702576040528252602091828101948552680100000000000000008610156200070257620008dd60019687810184556200085a565b91909162000b2557519081519085821162000702578791620009008254620007cf565b93601f9485811162000ad0575b50869085831160011462000a6657600091908362000a5a575b505060001982871b1c191690831b1781555b019451805194851162000702578493620009538754620007cf565b838111620009fe575b508092851160011462000993575060009362000987575b505082851b92600019911b1c191617905590565b01519150388062000973565b929190879550601f1985168760005284600020946000905b828210620009e45750508511620009c9575b50505050811b01905590565b01519060f884600019921b161c1916905538808080620009bd565b8484015187558a98909601959384019390810190620009ab565b90919293945086600052816000208480880160051c82019284891062000a50575b918a91899897969594930160051c01915b82811062000a405750506200095c565b600081558897508a910162000a30565b9250819262000a1f565b01519050388062000926565b90601f1983169184600052886000209260005b8a82821062000ab9575050908487959493921062000aa0575b505050811b01815562000938565b015160001983891b60f8161c1916905538808062000a92565b8385015186558e9890950194938401930162000a79565b909192809450600052866000208580850160051c82019289861062000b1b575b908c9695949392910160051c01905b81811062000b0e57506200090d565b600081558b950162000aff565b9250819262000af0565b634e487b7160e01b600052600060045260246000fd5b62000b46816200085a565b50604090815190816000825462000b5d81620007cf565b8084529360019180831690811562000c45575060011462000c00575b505062000b89925003826200071d565b81519062000bdc6020918362000ba3848201928362000c6a565b039362000bb9601f19958681018352826200071d565b5190209351918201928262000bcf898662000c6a565b039081018352826200071d565b5190201462000bf65762000bf09062000834565b62000884565b5050505050600090565b90915060005260209283600020916000925b82841062000c2e575050509162000b8992820101388062000b79565b805487850187015286945092850192810162000c12565b935050505062000b899260209160ff191682840152151560051b820101388062000b79565b6040916020825262000c8c81518092816020860152602086860191016200075d565b601f01601f191601019056fe6040608081526004908136101561001557600080fd5b600091823560e01c908162cd01101461289e57816301ffc9a7146127b157816306fdde03146126dc57816307521754146126aa578163081812fc1461268a578163095ea7b31461256b57816309c3dd87146124dd5781630f485c02146120b257816313d199501461209657816315c77d8414611fc157816318160ddd14611fa257816323b872dd14611f7d578163263f3e7e14611f5d5781632f745c5914611eb3578163310ed7f014611e37578163381c4fce14611de75781633e7e866914611dc5578163404b6e9f14611d8b57816342842e0e14611d6857816342966c68146119b6578163430c208114611978578163449d0772146118c057816349178b25146118515781634f6ccce7146117d25781634f8a0f83146117b257816355cd4e0614611611578163582939e5146115e15781636352211e146115b057816370a082311461158a57816378330ea01461152f578163840f71131461150657816387fe86111461115b5781638c7a63ae146110bc5781638cb0a511146110125781638f28397014610f6757816395d89b4114610e94578163968e8a1314610e5a578163993bef8d14610dcf5781639c0e9a5d14610db35781639cc7f70814610d93578163a22cb46514610cb7578163a30fb02014610c52578163a647e8ec14610c37578163a6a2d1dd14610bc1578163b3875b9514610b98578163b3cea21714610b7b578163b88d4fde14610b1c578163bff2ed7114610ad1578163c87b56dd146109a6578163dee9f53f14610963578163e345e0bc14610934578163e345f05e146108db578163e7f0828814610892578163e8a3d48514610625578163e985e9c5146105d4578163ed08fa80146105b5578163f0e88e7f146102cb575063f851a440146102a057600080fd5b346102c757816003193601126102c75760015490516001600160a01b039091168152602090f35b5080fd5b8383346102c7576102db3661294c565b6102e6829392613601565b6102ef8461363d565b916102f983614f76565b15610456575b6103099085613cd0565b6103138483614ffc565b6103555750839450806103529452600f602052600161033483872054612c10565b5001918254918652600d602052808620848752602052852055613d41565b80f35b90926001600160a01b0390911615908161044d575b508061043e575b61037d575b5050905080f35b8183526020600f8152600161039483862054612c10565b5001928354600019810190811161042b57859650906103b961042396949392866138ff565b9054828652600d84528486208680528452848620549160031b1c6103fa816103e1848a6138ff565b90919082549060031b91821b91600019901b1916179055565b828652600d84528486209086528352838520558352600d81528183209083805252812055613dcb565b808280610376565b634e487b7160e01b865260118752602486fd5b5061044882614f9e565b610371565b9050158561036a565b61045f83614f76565b61056f57835161046e81612a7a565b868152845161047c81612a44565b848152602091828201908152600e5492868a52600f815283888b2055600160401b9283851015610537576104b7600195868101600e55612c10565b91909161055d579085915181550191518051936001600160401b03851161054a5784116105375781906104ef85855481875586613ebc565b01918a52808a20908a5b84811061052657505050505050610309908387806000805160206151248339815191528180a490506102ff565b8351838201559281019285016104f9565b634e487b7160e01b8b5260418c5260248bfd5b634e487b7160e01b8c5260418d5260248cfd5b634e487b7160e01b8c528b8d5260248cfd5b835162461bcd60e51b8152602081890152602c60248201526000805160206150c483398151915260448201526b72656164792065786973747360a01b6064820152608490fd5b5050346102c757816003193601126102c757602090600e549051908152f35b5050346102c757806003193601126102c75760ff816020936105f46129af565b6105fc6129db565b6001600160a01b039182168352600b875283832091168252600201855220549151911615158152f35b90503461088e578260031936011261088e57815161064281612a7a565b838152600c546001600160a01b03169081156106c857508390835192838092631c97e82760e21b82525afa9081156106bc57836106959492610699575b5050905b5191829160208352602083019061298a565b0390f35b6106b592503d8091833e6106ad8183612a95565b810190613661565b388061067f565b505051903d90823e3d90fd5b929391905081156108735783513091606082016001600160401b0381118382101761085e578652602a8252602092838301948736873783511561084b57603086538351906001918210156108385790607860218601536029915b8183116107cd5750505061078c5750849368636f6e74726163742f60b81b9361078693610777602994610695995197856107658a9751809287808b019101612967565b86019384015251809386840190612967565b01036009810184520182612a95565b90610683565b606490838088519262461bcd60e51b845283015260248201527f537472696e67733a20686578206c656e67746820696e73756666696369656e746044820152fd5b909192600f81166010811015610825576f181899199a1a9b1b9c1cb0b131b232b360811b901a6107fd85886136cc565b53841c92801561081257600019019190610722565b634e487b7160e01b825260118552602482fd5b634e487b7160e01b835260328652602483fd5b634e487b7160e01b815260328452602490fd5b634e487b7160e01b815260328352602490fd5b604182634e487b7160e01b6000525260246000fd5b50505080610695915161088581612a7a565b60008152610786565b8280fd5b8284346108d857816003193601126108d857506108cf6020926108b36129db565b906108c960018060a01b03600254163314612dfd565b35612e62565b90519015158152f35b80fd5b5050346102c75760603660031901126102c75760ff816020936108fc6129af565b6109046129c5565b6001600160a01b039182168352601087528383206024358452875283832091168252855220549151911615158152f35b8284346108d857816003193601126108d8575061095c6020926109556129db565b9035613735565b9051908152f35b90503461088e57602036600319011261088e578160209361099d923561099061098b82613924565b6135b5565b8152600a85522054613550565b50549051908152f35b90503461088e5760209081600319360112610acd5780356109c961098b82613924565b8351916109d583612a7a565b858352600c546001600160a01b0316928315610a5657509060248692865194859384926344a5a61760e11b84528301525afa908115610a49578461069593949592610a2e575b5050925b5192828493845283019061298a565b610a4292503d8091833e6106ad8183612a95565b3880610a1b565b50505051903d90823e3d90fd5b9250508483949550600014610ab35761069592610a75610aad92613068565b9286519381610a8d8693518092868087019101612967565b8201610aa182518093868085019101612967565b01038084520182612a95565b92610a1f565b5050506106958251610ac481612a7a565b60008152610aad565b8380fd5b8284346108d8576020610b1683610ae736612bb8565b90610b0060018060a09795971b03600254163314612dfd565b6007548095610b0e82612ee9565b600755613952565b51908152f35b839060803660031901126102c757610b326129af565b610b3a6129db565b906064356001600160401b038111610b775736602382011215610b775761035293816024610b6d93369301359101612ad1565b916044359161384a565b8480fd5b5050346102c757816003193601126102c757602091549051908152f35b5050346102c757816003193601126102c75760025490516001600160a01b039091168152602090f35b8284346108d85760603660031901126108d857610bdc6129af565b926001600160401b03602435818111610acd57610bfc9036908401612d7a565b926044359182116108d8575091610c1c602095926108cf94369101612d7a565b91610c3260018060a01b03600254163314612dfd565b612f22565b83346108d857610352610c4936612be2565b92919091613952565b839150346102c75760203660031901126102c75735906003548210156108d85750610c7c90612c60565b5090610695610c966001610c8f85612cd4565b9401612cd4565b610ca9835194848695865285019061298a565b90838203602085015261298a565b9190503461088e578060031936011261088e57610cd26129af565b9060243580151592838203610d8f576001600160a01b031693338514610d4c5750610d1f90338652600b6020526002838720018587526020528286209060ff801983541691151516179055565b519081527f17307eab39ab6107e8899845ad3d59bd9653f200f220920489ca2b5937696c3160203392a380f35b606490602084519162461bcd60e51b8352820152601c60248201527f43544d5257413030313a20617070726f766520746f2063616c6c6572000000006044820152fd5b8580fd5b8284346108d85760203660031901126108d8575061095c6020923561358b565b5050346102c7576020906108cf610dc936612b26565b906134d4565b905082346108d85760203660031901126108d85750803590600e54821015610dfd5760208361099d84612c10565b608490602084519162461bcd60e51b8352820152603160248201527f43544d525741303031536c6f74456e756d657261626c653a20736c6f7420696e604482015270646578206f7574206f6620626f756e647360781b6064820152fd5b5050346102c7573660031901126108d857610352610e766129af565b610e8b60018060a01b03600254163314612dfd565b60243590613fca565b5050346102c757816003193601126102c75780519082600554610eb681612c9a565b80855291600191808316908115610f3f5750600114610ee2575b50505061068382610695940383612a95565b9450600585527f036b6384b5eca791c62761152d0c79bb0604c104a5fb6f4eb0703f3154bb3db05b828610610f27575050506106838260206106959582010194610ed0565b80546020878701810191909152909501948101610f0a565b61069597508693506020925061068394915060ff191682840152151560051b82010194610ed0565b905082346108d85760203660031901126108d85750610f846129af565b6001549091906001600160a01b03163303610fbe57600180546001600160a01b0319166001600160a01b03841617815560209084906108cf565b608490602084519162461bcd60e51b8352820152602860248201527f43544d5257413030313a205468697320697320616e206f6e6c7941646d696e20604482015267333ab731ba34b7b760c11b6064820152fd5b83915061101e366129f1565b929091906110426001600160a01b038061103785613601565b1690851614156136dd565b61104c8233614e8f565b1561105d5750610352939450614034565b608490602087519162461bcd60e51b8352820152603360248201527f43544d5257413030313a20617070726f76652063616c6c6572206973206e6f74604482015272081bdddb995c881b9bdc88185c1c1c9bdd9959606a1b6064820152fd5b8383346102c7576020908160031936011261088e5760809335906110e261098b83613924565b818452600a83526110f581852054613550565b505493828152600a8452600161114583600261111382862054613550565b50015493868152600a885261112a82822054613550565b506003858060a01b0391015416968152600a88522054613550565b5001549382519586528501528301526060820152f35b8383346102c75761116b3661294c565b9161117e6111798333614e8f565b61505d565b61118a61098b83613924565b818452602092600a84526111a082862054613550565b509260018060a01b03600385015416600192600284870154960191818354106114b557878992859215948580966114ad575b8061149d575b611325575b90816111fa826000805160206150e4833981519152959454613917565b90558851908152a38061131d575b8061130d575b156112495750849550826103529552600f845261122d82872054612c10565b5001928354928652600d81528186209086805252842055613d13565b919293906112578386614ffc565b611266575b5050505050905080f35b848652600f825261127984872054612c10565b500193845460001981019081116112fa578697509061129f6112ef9795949392876138ff565b9054828752600d84528587208588528452858720549160031b1c6112c7816103e1848b6138ff565b828752600d84528587209087528352848620558452600d815282842091845252812055613dcb565b80828080808061125c565b634e487b7160e01b875260118852602487fd5b5061131784614f9e565b1561120e565b508015611208565b925092505061133387614f76565b61145757855161134281612a7a565b89815286519061135182612a44565b888252898201908152600e5491898c52600f8b5282898d2055600160401b92838110156114305780896113879201600e55612c10565b919091611444579088915181550190518051926001600160401b03841161143057831161054a579282828c89968f989582976113c7915481865585613ebc565b019087528487208a885b84811061140d575050505050906000805160206150e483398151915292918a86806000805160206151248339815191528180a4909192506111dd565b9295985092959093965084519401938184015501928c95928895928a8e966113d1565b50634e487b7160e01b8c5260418d5260248cfd5b50634e487b7160e01b8c528b8d5260248cfd5b855162461bcd60e51b8152808b01899052602c60248201526000805160206150c483398151915260448201526b72656164792065786973747360a01b6064820152608490fd5b506114a78a614f76565b156111d8565b5083156111d2565b855162461bcd60e51b8152808b01899052602560248201527f43544d5257413030313a206275726e2076616c756520657863656564732062616044820152646c616e636560d81b6064820152608490fd5b5050346102c757816003193601126102c757600c5490516001600160a01b039091168152602090f35b5050346102c75760203660031901126102c7576020906108cf6115506129af565b61156560018060a01b03600254163314612dfd565b60018060a01b03166bffffffffffffffffffffffff60a01b6001541617600155600190565b5050346102c75760203660031901126102c75760209061095c6115ab6129af565b613766565b8284346108d85760203660031901126108d857506115d060209235613601565b90516001600160a01b039091168152f35b83346108d8576103526115f336612be2565b9261160c60018060a09594951b03600254163314612dfd565b613952565b919050608036600319011261088e576116286129af565b90602435916116356129c5565b91606435801515928382036117ae576001600160a01b0390811694338614801561178d575b1561171a5716958685146116c55750916020916116bd7f7bdf71e6625aa496095bf08b60c677cf81c963f402cf258981e3bd7507d3480c94868a5260108552828a20888b528552828a20898b528552828a209060ff801983541691151516179055565b51908152a480f35b608490602084519162461bcd60e51b8352820152602960248201527f43544d525741303031536c6f74417070726f7661626c653a20617070726f7665604482015268103a379037bbb732b960b91b6064820152fd5b835162461bcd60e51b81526020818a0152604160248201527f43544d525741303031536c6f74417070726f7661626c653a2063616c6c65722060448201527f6973206e6f74206f776e6572206e6f7220617070726f76656420666f7220616c6064820152601b60fa1b608482015260a490fd5b50858952600b6020526002848a2001338a5260205260ff848a20541661165a565b8780fd5b8284346108d85760203660031901126108d8575061095c60209235614f50565b905082346108d85760203660031901126108d857508035906009548210156118005760208361099d84613550565b608490602084519162461bcd60e51b8352820152602560248201527f43544d5257413030313a20676c6f62616c20696e646578206f7574206f6620626044820152646f756e647360d81b6064820152fd5b5050346102c7576020916118b760026118a18461186d3661294c565b959061188360018060a01b038654163314612dfd565b61189461188f82613924565b614274565b8152600a88522054613550565b50019182546118b28282101561432e565b613917565b90555160018152f35b839150346102c7576118d136612bb8565b90926118dd8385613735565b906118e88585614e8f565b158061196c575b6118f7578580f35b82821061191f57506119159495509061190f91613917565b91614034565b8082808080808580f35b608490602088519162461bcd60e51b8352820152602160248201527f43544d5257413030313a20696e73756666696369656e7420616c6c6f77616e636044820152606560f81b6064820152fd5b506000198214156118ef565b5050346102c757806003193601126102c7576020906108cf6119986129af565b6119ad60018060a01b03600254163314612dfd565b60243590614e8f565b8383346102c7576020908160031936011261088e578335906119db6111798333614e8f565b6119e761098b83613924565b818452600a83526119fa81852054613550565b509160018060a01b03908160038501541691600192600284870154960154811592838094611d60575b80611d50575b611c0c575b611a3785614172565b611a418584613e0b565b600954600019810191908211611bf957898b8260058f8b958d918c8652600a8752611a6f8387205499613550565b5092805198611a7d8a612a5f565b84548a52840154888a0152600284015490890152816003840154166060890152820154166080870152018b518094859381845493848152019386528d82872096925b848410611bd8575050505050611ad792500382612a95565b60a0820152611aef81611ae984613550565b90613f03565b518a52600a8952868a205583895288868120556009548015611bc55760001901611b1881613550565b611bb357856000805160206150e48339815191528b8d958f95611b5a6005878a8f9a818a9e9c81809d5584015581600284015581600384015582015501613edf565b6009558b51908152a38188846000805160206151248339815191528380a46000805160206151048339815191528280a48061131d578061130d57156112495750849550826103529552600f845261122d82872054612c10565b634e487b7160e01b8b528a8c5260248bfd5b634e487b7160e01b8a5260318b5260248afd5b909294828493959750885416815201950192018f918d879593969496611abf565b634e487b7160e01b8b5260118c5260248bfd5b611c1588614f76565b611d0a57888751611c2581612a7a565b8b815288518a8a8e611c3684612a44565b828452858401948552600f600e549687948352522055600160401b9283811015611ce357808a611c699201600e55612c10565b919091611cf8579089915181550190518051926001600160401b038411611ce3578311611430578b90611ca184845481865585613ebc565b01908c528a8c20888d5b848110611cd1575050505050878a806000805160206151248339815191528180a4611a2e565b8d845194019381840155018990611cab565b5050634e487b7160e01b8c5260418d5260248cfd5b634e487b7160e01b8e528d8f5260248efd5b865162461bcd60e51b8152808c018a9052602c60248201526000805160206150c483398151915260448201526b72656164792065786973747360a01b6064820152608490fd5b50611d5a88614f76565b15611a29565b508415611a23565b8361035284611d7636612b83565b91925192611d8384612a7a565b85845261384a565b5050346102c7573660031901126108d857610352611da76129af565b611dbc60018060a01b03600254163314612dfd565b60243590613e0b565b5050346102c757816003193601126102c75760209060ff600654169051908152f35b8284346108d85760203660031901126108d8578235906001600160401b0382116108d85750611e1f61069593611e2492369101612b08565b613466565b905191829160208352602083019061298a565b8383611e4236612b69565b92909194303b15610b7757815163224e83b960e11b81523391810191825260208201879052604082018590529190859083908190606001038183305af1908115611eaa5750611e97575b50610352929361438f565b92611ea461035294612a1b565b92611e8c565b513d86823e3d90fd5b905082346108d857826003193601126108d857611ece6129af565b60243592611edb82613766565b841015611f0e57602085611f008682878760018060a01b03168152600b8652206138ff565b91905490519160031b1c8152f35b608490602086519162461bcd60e51b83528201526024808201527f43544d5257413030313a206f776e657220696e646578206f7574206f6620626f604482015263756e647360e01b6064820152fd5b8284346108d85760203660031901126108d8575061095c6020923561363d565b83610352611f8a36612b83565b91611f9d611f988433614e8f565b6137e1565b61478c565b5050346102c757816003193601126102c7576020906009549051908152f35b90503461088e57819061200f611fd636612b69565b9491611ff060018060a09a949a1b03600254163314612dfd565b612001611ffc82613924565b6142d2565b8152600a6020522054613550565b509360018501540361202d57506118b76002602094019182546136bf565b608490602084519162461bcd60e51b8352820152603a60248201527f43544d5257413030313a2044657374696e6174696f6e20736c6f74206973206e60448201527f6f74207468652073616d6520617320736f7572636520736c6f740000000000006064820152fd5b5050346102c7576020906108cf6120ac36612b26565b90614d47565b83836120bd366129f1565b9190303b15610b7757835163224e83b960e11b8152338782019081526020810184905260408101859052869082908190606001038183305af180156124d3576124c4575b506007549461210f86612ee9565b60075561211b8361363d565b916001600160a01b0381169081156124755787156124265761213c88613924565b6123e35761214984614f76565b15612289575b86519861215b8a612a7a565b838a5287519061216a82612a5f565b89825260209a868c840152858a84015284606084015285608084015260a0830152600954908a8652600a8c52818a872055600160401b82101561227657508995936121d18780956121cc610b169c9b9996611ae9876001869901600955613550565b613d64565b826000805160206151048339815191528180a48281836000805160206151248339815191528280a4818152600a8a5261220c88822054613550565b505081816000805160206150e48339815191528c8b51838152a36122308284614ffc565b61226e5782612269938252600f8b5288600161224e82852054612c10565b5001928354928152600d8d528181208582528d522055613d41565b61438f565b50505061438f565b634e487b7160e01b865260419052602485fd5b61229284614f76565b61239d5786516122a181612a7a565b83815287516122af81612a44565b858152602091828201908152600e5492878752600f8152838b882055600160401b9283851015612364576122ea600195868101600e55612c10565b91909161238b579085915181550191518051936001600160401b03851161237857841161236457819061232285855481875586613ebc565b0191875280872090875b848110612353575050505050508383806000805160206151248339815191528180a461214f565b83518382015592810192850161232c565b50634e487b7160e01b875260418d52602487fd5b634e487b7160e01b895260418f52602489fd5b634e487b7160e01b8952888f52602489fd5b865162461bcd60e51b81526020818b0152602c60248201526000805160206150c483398151915260448201526b72656164792065786973747360a01b6064820152608490fd5b865162461bcd60e51b81526020818b0152601f60248201527f43544d5257413030313a20746f6b656e20616c7265616479206d696e746564006044820152606490fd5b865162461bcd60e51b81526020818b0152602360248201527f43544d5257413030313a2063616e6e6f74206d696e74207a65726f20746f6b656044820152621b925960ea1b6064820152608490fd5b865162461bcd60e51b81526020818b0152602360248201527f43544d5257413030313a206d696e7420746f20746865207a65726f206164647260448201526265737360e81b6064820152608490fd5b6124cd90612a1b565b86612101565b85513d88823e3d90fd5b90503461088e57602036600319011261088e578282516124fc81612a7a565b52600c546001600160a01b03169081156125525783906024845180948193633601bfc560e11b83528035908301525afa9081156106bc57836106959492610699575050905191829160208352602083019061298a565b505080516106959261256382612a7a565b815290610683565b839150826003193601126102c7576125816129af565b6024359161258e83613601565b6125978461363d565b6001600160a01b03918216916125b19085168314156136dd565b813314918215612667575b821561263d575b5050156125d557509061035291613fca565b60849085602081519262461bcd60e51b845283015260248201527f43544d5257413030313a20617070726f76652063616c6c6572206973206e6f7460448201527f206f776e6572206e6f7220617070726f76656420666f7220616c6c2f736c6f746064820152fd5b9091508552601060205285852090855260205284842033855260205260ff858520541686806125c3565b8092508652600b60205260028787200133875260205260ff8787205416916125bc565b8284346108d85760203660031901126108d857506115d0602092356138cc565b8390346102c75760203660031901126102c757610352906126d660018060a01b03600254163314612dfd565b35614172565b9190503461088e578260031936011261088e57805191838154906126ff82612c9a565b80865292600192808416908115612786575060011461272a575b6106958686610683828b0383612a95565b815294507f8a35acfbc15ff81a39ae7d344fd709f28e8600b4aa8c65c6b64bfe7fe36bd19b5b82861061276e57505050610683826020610695958201019438612719565b80546020878701810191909152909501948101612750565b905061069597508693506020925061068394915060ff191682840152151560051b8201019438612719565b90503461088e57602036600319011261088e57359063ffffffff60e01b821680920361088e57602092506316d117cb60e31b82149182156127f6575b50519015158152f35b909150631dba0dcf60e11b8114908115612813575b5090386127ed565b6301ffc9a760e01b81149150811561288d575b811561287c575b811561286b575b811561285a575b8115612849575b503861280b565b635b5e139f60e01b14905038612842565b63780e9d6360e01b8114915061283b565b6370b0048160e11b81149150612834565b6380ac58cd60e01b8114915061282d565b630354d60560e61b81149150612826565b905082346108d8576128af3661294c565b926128b982614f50565b8410156128e357602085611f008660016128dc8489898152600f88522054612c10565b50016138ff565b608490602086519162461bcd60e51b8352820152603760248201527f43544d525741303031536c6f74456e756d657261626c653a20736c6f7420746f60448201527f6b656e20696e646578206f7574206f6620626f756e64730000000000000000006064820152fd5b6040906003190112612962576004359060243590565b600080fd5b60005b83811061297a5750506000910152565b818101518382015260200161296a565b906020916129a381518092818552858086019101612967565b601f01601f1916010190565b600435906001600160a01b038216820361296257565b604435906001600160a01b038216820361296257565b602435906001600160a01b038216820361296257565b606090600319011261296257600435906024356001600160a01b0381168103612962579060443590565b6001600160401b038111612a2e57604052565b634e487b7160e01b600052604160045260246000fd5b604081019081106001600160401b03821117612a2e57604052565b60c081019081106001600160401b03821117612a2e57604052565b602081019081106001600160401b03821117612a2e57604052565b90601f801991011681019081106001600160401b03821117612a2e57604052565b6001600160401b038111612a2e57601f01601f191660200190565b929192612add82612ab6565b91612aeb6040519384612a95565b829481845281830111612962578281602093846000960137010152565b9080601f8301121561296257816020612b2393359101612ad1565b90565b906040600319830112612962576001600160401b036004358181116129625783612b5291600401612b08565b9260243591821161296257612b2391600401612b08565b606090600319011261296257600435906024359060443590565b6060906003190112612962576001600160a01b0390600435828116810361296257916024359081168103612962579060443590565b6060906003190112612962576004356001600160a01b038116810361296257906024359060443590565b6080906003190112612962576004356001600160a01b03811681036129625790602435906044359060643590565b600e54811015612c4a57600e60005260011b7fbb7b4a454dc3493923482f07822329ed19e8244eff582cc204f8554c3620c3fd0190600090565b634e487b7160e01b600052603260045260246000fd5b600354811015612c4a57600360005260011b7fc2575a0e9e593c00f959f8c92f12db2869c3395a3b0502d05e2516446f71f85b0190600090565b90600182811c92168015612cca575b6020831014612cb457565b634e487b7160e01b600052602260045260246000fd5b91607f1691612ca9565b9060405191826000825492612ce884612c9a565b908184526001948581169081600014612d575750600114612d14575b5050612d1292500383612a95565b565b9093915060005260209081600020936000915b818310612d3f575050612d1293508201013880612d04565b85548884018501529485019487945091830191612d27565b915050612d1294506020925060ff191682840152151560051b8201013880612d04565b9080601f83011215612962578135906001600160401b0392838311612a2e578260051b60405194602094612db086840188612a95565b865284808701928401019380851161296257858401925b858410612dd8575050505050505090565b8335838111612962578791612df2848480948a0101612b08565b815201930192612dc7565b15612e0457565b60405162461bcd60e51b815260206004820152603060248201527f43544d5257413030313a20546869732063616e206f6e6c792062652063616c6c60448201526f0cac840c4f24086a89aa4ae82606062b60831b6064820152608490fd5b60015490916001600160a01b03918216911603612e8e57600054612e8857600055600190565b50600090565b60405162461bcd60e51b815260206004820152602d60248201527f43544d525741303031583a20617474616368496420697320616e2041646d696e60448201526c27b7363c90333ab731ba34b7b760991b6064820152608490fd5b6000198114612ef85760010190565b634e487b7160e01b600052601160045260246000fd5b8051821015612c4a5760209160051b010190565b60018054909392916001600160a01b03918216911603613023578051825103612fc057829160009182945b612f5a575b505050905090565b8051851015612fbb57612f7a612f708683612f0e565b516120ac46613068565b15612f90575b612f8a8495612ee9565b94612f4d565b612faf612f9d8683612f0e565b51612fa88785612f0e565b51906131e7565b612f8057505091505090565b612f52565b60405162461bcd60e51b815260206004820152603560248201527f43544d5257413030313a204c656e677468206d69736d6174636820636861696e60448201527449647320616e6420636f6e7472616374416464727360581b6064820152608490fd5b60405162461bcd60e51b815260206004820152601e60248201527f43544d525741303031583a2041646d696e4f6e6c792066756e6374696f6e00006044820152606490fd5b806000917a184f03e93ff9f4daa797ed6e38ed64bf6a1f010000000000000000808210156131c2575b506d04ee2d6d415b85acef8100000000808310156131b3575b50662386f26fc10000808310156131a4575b506305f5e10080831015613195575b5061271080831015613186575b506064821015613176575b600a8092101561316c575b6001908160218186019561310187612ab6565b9661310f6040519889612a95565b80885261311e601f1991612ab6565b01366020890137860101905b613136575b5050505090565b600019019083906f181899199a1a9b1b9c1cb0b131b232b360811b8282061a8353049182156131675791908261312a565b61312f565b91600101916130ee565b91906064600291049101916130e3565b600491939204910191386130d8565b600891939204910191386130cb565b601091939204910191386130bc565b602091939204910191386130aa565b604093508104915038613091565b8181106131db575050565b600081556001016131d0565b9060009160038054935b84811061342f57506040519161320683612a44565b8252602090818301938452600160401b851015612a2e5761322d6001958681018355612c60565b939093613419575180516001600160401b0394858211612a2e5787916132538254612c9a565b93601f948581116133eb575b50869085831160011461338657600091908361337b575b505060001982871b1c191690831b1781555b0194518051948511612a2e5784936132a08754612c9a565b838111613343575b50809285116001146132dc57506000936132d1575b505082851b92600019911b1c191617905590565b0151915038806132bd565b929190879550601f1985168760005284600020946000905b82821061332a5750508511613310575b50505050811b01905590565b01519060f884600019921b161c1916905538808080613304565b8484015187558a989096019593840193908101906132f4565b61336c9088600052826000208580890160051c820192858a10613372575b0160051c01906131d0565b386132a8565b92508192613361565b015190503880613276565b90601f1983169184600052886000209260005b8a8282106133d557505090848795949392106133bd575b505050811b018155613288565b015160001983891b60f8161c191690553880806133b0565b8385015186558e98909501949384019301613399565b6134139084600052886000208780860160051c8201928b8710613372570160051c01906131d0565b3861325f565b634e487b7160e01b600052600060045260246000fd5b61344a8361344561343f84612c60565b50612cd4565b614d47565b61345c5761345790612ee9565b6131f1565b5050505050600090565b6003549060005b82811061348a5750505060405161348381612a7a565b6000815290565b6134a961349682612c60565b506134456134a385614dac565b91612cd4565b6134bb576134b690612ee9565b61346d565b612b239250600191506134cd90612c60565b5001612cd4565b6134e06134e691614dac565b91614dac565b6003549160005b8381106134fd5750505050600090565b61351261350c61343f83612c60565b83614d47565b80613533575b61352a5761352590612ee9565b6134ed565b50505050600190565b5061354b61354560016134cd84612c60565b84614d47565b613518565b600954811015612c4a576006906009600052027f6e1540171b6c0c960b71a7020d9f60077f6af931a8bbf590da0223dacf75c7af0190600090565b61359761098b82613924565b600052600a60205260026135af604060002054613550565b50015490565b156135bc57565b60405162461bcd60e51b815260206004820152601b60248201527f43544d5257413030313a20696e76616c696420746f6b656e20494400000000006044820152606490fd5b61360d61098b82613924565b600052600a602052613623604060002054613550565b50600301546001600160a01b031690612d128215156135b5565b61364961098b82613924565b600052600a60205260016135af604060002054613550565b602081830312612962578051906001600160401b038211612962570181601f8201121561296257805161369381612ab6565b926136a16040519485612a95565b8184526020828401011161296257612b239160208085019101612967565b91908201809211612ef857565b908151811015612c4a570160200190565b156136e457565b60405162461bcd60e51b8152602060048201526024808201527f43544d5257413030313a20617070726f76616c20746f2063757272656e74206f6044820152633bb732b960e11b6064820152608490fd5b61374161098b82613924565b600052600860205260406000209060018060a01b031660005260205260406000205490565b6001600160a01b0316801561378657600052600b60205260406000205490565b60405162461bcd60e51b815260206004820152602d60248201527f43544d5257413030313a2062616c616e636520717565727920666f722074686560448201526c207a65726f206164647265737360981b6064820152608490fd5b156137e857565b60405162461bcd60e51b815260206004820152603460248201527f43544d5257413030313a207472616e736665722063616c6c6572206973206e6f6044820152731d081bdddb995c881b9bdc88185c1c1c9bdd995960621b6064820152608490fd5b9061386e93929161385e611f988433614e8f565b61386983838361478c565b614c39565b1561387557565b60405162461bcd60e51b815260206004820152602960248201527f43544d5257413030313a207472616e7366657220746f206e6f6e20455243373260448201526818a932b1b2b4bb32b960b91b6064820152608490fd5b6138d861098b82613924565b600052600a6020526138ee604060002054613550565b50600401546001600160a01b031690565b8054821015612c4a5760005260206000200190600090565b91908203918211612ef857565b60095415159081613933575090565b809150600052600a60205261394c604060002054613550565b50541490565b6001600160a01b03811693919290918415613c7f578315613c2e5761397684613924565b613be95761398382614f76565b15613a91575b60409485519361399885612a7a565b6000948581528751906139aa82612a5f565b878252856020830152868983015283606083015286608083015260a0820152600954878752600a6020528089882055600160401b811015613a7d578780936121cc613a32979694611ae9856001613a049701600955613550565b856000805160206151048339815191528180a48284866000805160206151248339815191528280a484613cd0565b613a3c8382614ffc565b613a7757612d1293818352600f6020526001613a5a82852054612c10565b5001928354928152600d6020528181208582526020522055613d41565b50505050565b634e487b7160e01b87526041600452602487fd5b613a9a82614f76565b613ba157604051613aaa81612a7a565b600090818152604051613abc81612a44565b848152602091828201908152600e5492868552600f8152836040862055600160401b9283851015613b7957613af8600195868101600e55612c10565b919091613b8d579085915181550191518051936001600160401b038511613a7d578411613b795790808392613b36868b999897965481875586613ebc565b0191855280852090855b848110613b6557505050505050806000805160206151248339815191528180a4613989565b835181840155899750928101928501613b40565b634e487b7160e01b86526041600452602486fd5b634e487b7160e01b87526004879052602487fd5b60405162461bcd60e51b815260206004820152602c60248201526000805160206150c483398151915260448201526b72656164792065786973747360a01b6064820152608490fd5b60405162461bcd60e51b815260206004820152601f60248201527f43544d5257413030313a20746f6b656e20616c7265616479206d696e746564006044820152606490fd5b60405162461bcd60e51b815260206004820152602360248201527f43544d5257413030313a2063616e6e6f74206d696e74207a65726f20746f6b656044820152621b925960ea1b6064820152608490fd5b60405162461bcd60e51b815260206004820152602360248201527f43544d5257413030313a206d696e7420746f20746865207a65726f206164647260448201526265737360e81b6064820152608490fd5b906000805160206150e48339815191526020600092848452600a82526002613cfb6040862054613550565b5001613d088282546136bf565b9055604051908152a3565b8054600160401b811015612a2e57613d30916001820181556138ff565b8154906000199060031b1b19169055565b90815491600160401b831015612a2e57826103e1916001612d12950181556138ff565b906040612d1292600090838252600a6020526003613d8484842054613550565b500180546001600160a01b0319166001600160a01b039092169182179055808252600b60208181528484208054878652600191909101825285852055918352905220613d41565b8054908115613df55760001991820191613de583836138ff565b909182549160031b1b1916905555565b634e487b7160e01b600052603160045260246000fd5b919091600090838252600a6020526003613e286040842054613550565b500180546001600160a01b03191690556001600160a01b03168152600b602052604081208054600019810194919291908511613ea857613e6c612d129495846138ff565b90549060031b1c6001840182845280602052604084205491613e92816103e185896138ff565b8452602052604083205581526040812055613dcb565b634e487b7160e01b82526011600452602482fd5b91818110613ec957505050565b612d1292600052602060002091820191016131d0565b80546000825580613eee575050565b612d12916000526020600020908101906131d0565b919061341957805182556020908181015192600193848201556040820151600282015560a060056003830192600180841b039384606087015116906bffffffffffffffffffffffff851b91828254161790556004820190856080880151169082541617905501920151928351936001600160401b038511612a2e57600160401b8511612a2e578190613f9a86865481885587613ebc565b0192600052806000209160005b858110613fb75750505050505050565b8451821684820155938201938601613fa7565b81600052600a6020526004613fe3604060002054613550565b500180546001600160a01b0319166001600160a01b039283169081179091559061400c83613601565b167f8c5be1e5ebec7d5bd14f71427d1e84f3dd0314c0f7b2291e5b200ac8c7c3b925600080a4565b6001600160a01b0380831693919284156141185783614052916141ea565b156140a0575b5060207f621b050de0ad08b51d19b48b3e6df75348c4de6bdd93e81b252ca62e28265b1b918360005260088252604060002085600052825280604060002055604051908152a3565b82600052600a60205260056140b9604060002054613550565b500191825491600160401b831015612a2e576140fe837f621b050de0ad08b51d19b48b3e6df75348c4de6bdd93e81b252ca62e28265b1b9560016020960181556138ff565b819291549060031b9188831b921b19161790559150614058565b60405162461bcd60e51b815260206004820152602c60248201527f43544d5257413030313a20617070726f76652076616c756520746f207468652060448201526b7a65726f206164647265737360a01b6064820152608490fd5b6000818152602090600a82526040600561418e82842054613550565b500193845493835b8581106141ac57505050505050612d1290613edf565b806141ba6141e592896138ff565b90548588526008855286882060039290921b1c6001600160a01b031687528352848620869055612ee9565b614196565b600090828252600a60209080825260409061420782862054613550565b509260058094015496865b8881106142255750505050505050905090565b81885283835261423c81876128dc888c2054613550565b905460039190911b1c6001600160a01b03908116908816146142665761426190612ee9565b614212565b505050505050505050600190565b1561427b57565b60405162461bcd60e51b815260206004820152602960248201527f43544d5257413030313a207472616e736665722066726f6d20696e76616c6964604482015268081d1bdad95b88125160ba1b6064820152608490fd5b156142d957565b60405162461bcd60e51b815260206004820152602760248201527f43544d5257413030313a207472616e7366657220746f20696e76616c696420746044820152661bdad95b88125160ca1b6064820152608490fd5b1561433557565b60405162461bcd60e51b815260206004820152602c60248201527f43544d5257413030313a20696e73756666696369656e742062616c616e63652060448201526b3337b9103a3930b739b332b960a11b6064820152608490fd5b909161439d61188f83613924565b6143a9611ffc84613924565b81600052600a6020526143c0604060002054613550565b509280600052600a6020526143d9604060002054613550565b50936143eb836002830154101561432e565b60018101546001860154810361472e5760038201546001600160a01b03161580614726575b80614716575b614633575b5061442a836002830154613917565b60028201556002850161443e8482546136bf565b905581846000805160206150e48339815191526020604051878152a3600381810154950154600190910154946001600160a01b039182169116158061462b575b8061461a575b1561454c57506144d081856144e696600052600f60205260016144ab604060002054612c10565b500190815490600052600d602052604060002083600052602052604060002055613d41565b604051926144dd84612a7a565b60008452614ae0565b156144ed57565b60405162461bcd60e51b815260206004820152603160248201527f43544d5257413030313a207472616e736665722072656a65637465642062792060448201527021aa26a92ba0981818a932b1b2b4bb32b960791b6064820152608490fd5b1580614612575b80614602575b614568575b6144e693506144d0565b83600052600f6020526001614581604060002054612c10565b50018054600019810191908211612ef8576144e6956145a36145fd93836138ff565b90549060031b1c81600052600d602052604060002087600052602052604060002054906145d4816103e184876138ff565b6000928352600d6020908152604080852092855291905280832091909155868252812055613dcb565b61455e565b5061460d8385614ffc565b614559565b508015614553565b506146258286614ffc565b15614484565b50831561447e565b61463c81614f76565b613ba15760405161464c81612a7a565b600081526040519061465d82612a44565b82825260208201908152600e549183600052600f60205282604060002055600160401b9283811015612a2e578060016146999201600e55612c10565b613419576001915181550190518051926001600160401b038411612a2e578311612a2e576020906146cf84845481865585613ebc565b0190600052602060002060005b83811061470257505050506000806000805160206151248339815191528180a43861441b565b6001906020845194019381840155016146dc565b5061472081614f76565b15614416565b508415614410565b60405162461bcd60e51b815260206004820152603060248201527f43544d5257413030313a207472616e7366657220746f20746f6b656e2077697460448201526f1a08191a5999995c995b9d081cdb1bdd60821b6064820152608490fd5b91909161479882613601565b6001600160a01b039190828216908316819003614a3c5782851680156149e75784916147c38361363d565b966147cd8461358b565b5081159485806149df575b806149cf575b6148b2575b614855916121cc868093816000809c828252600a60205260046148096040842054613550565b500180546001600160a01b031916905561482283613601565b167f8c5be1e5ebec7d5bd14f71427d1e84f3dd0314c0f7b2291e5b200ac8c7c3b9258280a461485082614172565b613e0b565b6000805160206151048339815191528580a4806148aa575b80614899575b156148945782612d12938252600f60205260406001613a5a82852054612c10565b505050565b506148a48284614ffc565b15614873565b50811561486d565b90919293506148c088614f76565b613ba1576040516148d081612a7a565b6000908181526040516148e281612a44565b8a8152602091828201908152600e54928c8552600f8152836040862055600160401b9283851015613b795761491e600195868101600e55612c10565b919091613b8d579085915181550191518051936001600160401b038511613a7d578411613b7957918184928f96948f9c9b9a99989661496290855481875586613ebc565b0191855280852090855b8481106149a35750505050505086809361485595938380600080516020615124833981519152816121cc97a49350505091506147e3565b9085975083819496939597999a9b9c9d50519501948185015501918e9593918e9b9a999897959361496c565b506149d989614f76565b156147de565b5084156147d8565b60405162461bcd60e51b815260206004820152602760248201527f43544d5257413030313a207472616e7366657220746f20746865207a65726f206044820152666164647265737360c81b6064820152608490fd5b60405162461bcd60e51b815260206004820152602660248201527f43544d5257413030313a207472616e736665722066726f6d20696e76616c69646044820152651037bbb732b960d11b6064820152608490fd5b9081602091031261296257516001600160e01b0319811681036129625790565b3d15614adb573d90614ac182612ab6565b91614acf6040519384612a95565b82523d6000602084013e565b606090565b929092614aec84613601565b803b63ffffffff1615614c2f576040516301ffc9a760e01b8152633abe4f5560e21b6004820181905295602095926001600160a01b0316918681602481865afa8091600091614bf9575b5090614b52575050505050505050614b4c614ab0565b50600190565b15614bed5760008694614b91604051978896879586948d865233600487015260248601526044850152606484015260a0608484015260a483019061298a565b03925af1918215614be157600092614bb4575b50506001600160e01b0319161490565b614bd39250803d10614bda575b614bcb8183612a95565b810190614a90565b3880614ba4565b503d614bc1565b6040513d6000823e3d90fd5b50505050505050600190565b8881813d8311614c28575b614c0e8183612a95565b810103126102c757519081151582036108d8575038614b36565b503d614c04565b5050505050600190565b9192813b63ffffffff161561352a57602091614c91916000604051958680958194630a85bd0160e11b9a8b845233600485015260018060a01b038095166024850152604484015260806064840152608483019061298a565b0393165af160009181614d27575b50614d1957614cac614ab0565b80519081614d145760405162461bcd60e51b815260206004820152603260248201527f4552433732313a207472616e7366657220746f206e6f6e20455243373231526560448201527131b2b4bb32b91034b6b83632b6b2b73a32b960711b6064820152608490fd5b602001fd5b6001600160e01b0319161490565b614d4091925060203d8111614bda57614bcb8183612a95565b9038614c9f565b906040519182614d63602082019260208452604083019061298a565b0392614d77601f1994858101835282612a95565b51902091614da56040519182614d99602082019560208752604083019061298a565b03908101835282612a95565b5190201490565b908151614db881612ab6565b90614dc66040519283612a95565b808252614dd5601f1991612ab6565b01602090368284013760005b8451811015614e8857614df481866136cc565b5190604160f892831c101580614e71575b15614e4a5782614e1582886136cc565b51831c019160ff8311612ef857614e4592901b6001600160f81b03191660001a614e3f82866136cc565b53612ee9565b614de1565b614e4591506001600160f81b0319614e6282886136cc565b511660001a614e3f82866136cc565b50605a614e7e82886136cc565b51831c1115614e05565b5090925050565b90614e9c61098b82613924565b614ea581613601565b91614eaf8261363d565b926001600160a01b03918216908216818114939092908415614f3a575b50508215614f11575b8215614ee3575b5050905090565b6040925060ff9360009283526010602052838320908352602052828220908252602052205416803880614edc565b915080600052600b60205260026040600020018260005260205260ff6040600020541691614ed5565b829450614f46906138cc565b1614913880614ecc565b614f5981614f76565b15612e8857600052600f60205260016135af604060002054612c10565b600e5415159081614f85575090565b809150600052600f60205261394c604060002054612c10565b6000818152600f6020526001614fb76040832054612c10565b500190815415159283614fcb575b50505090565b614fec9350906040918152600d6020528181208180526020522054906138ff565b90549060031b1c15388080614fc5565b906000828152600f60205260016150166040832054612c10565b50019081541515938461502a575050505090565b61504c939450906040918152600d6020528181208582526020522054906138ff565b90549060031b1c143880808061312f565b1561506457565b60405162461bcd60e51b815260206004820152603160248201527f43544d5257413030313a2063616c6c6572206973206e6f7420746f6b656e206f6044820152701ddb995c881b9bdc88185c1c1c9bdd9959607a1b6064820152608490fdfe43544d525741303031536c6f74456e756d657261626c653a20736c6f7420616c0b2aac84f3ec956911fd78eae5311062972ff949f38412e8da39069d9f068cc6ddf252ad1be2c89b69c2b068fc378daa952ba7f163c4a11628f55a4df523b3efe4f48c240d3b994948aa54f3e2f5fca59263dfe1d52b6e4cf39a5d249b5ccb65a26469706673582212203074f83b5d6217cfe2d340309cd2d95ef2bb0151d07e00f6d14f755c28a58b0164736f6c63430008140033",
  "linkReferences": {},
  "deployedLinkReferences": {}
}