{
  "_format": "hh-sol-artifact-1",
  "contractName": "CTMRWA001AllRoundMock",
  "sourceName": "contracts/mocks/CTMRWA001AllRoundMock.sol",
  "abi": [
    {
      "inputs": [
        {
          "internalType": "string",
          "name": "name_",
          "type": "string"
        },
        {
          "internalType": "string",
          "name": "symbol_",
          "type": "string"
        },
        {
          "internalType": "uint8",
          "name": "decimals_",
          "type": "uint8"
        },
        {
          "internalType": "address",
          "name": "_feeManager",
          "type": "address"
        },
        {
          "internalType": "address",
          "name": "_gov",
          "type": "address"
        },
        {
          "internalType": "address",
          "name": "_c3CallerProxy",
          "type": "address"
        },
        {
          "internalType": "address",
          "name": "_txSender",
          "type": "address"
        },
        {
          "internalType": "uint256",
          "name": "_dappID",
          "type": "uint256"
        }
      ],
      "stateMutability": "nonpayable",
      "type": "constructor"
    },
    {
      "anonymous": false,
      "inputs": [
        {
          "indexed": true,
          "internalType": "address",
          "name": "_owner",
          "type": "address"
        },
        {
          "indexed": true,
          "internalType": "address",
          "name": "_approved",
          "type": "address"
        },
        {
          "indexed": true,
          "internalType": "uint256",
          "name": "_tokenId",
          "type": "uint256"
        }
      ],
      "name": "Approval",
      "type": "event"
    },
    {
      "anonymous": false,
      "inputs": [
        {
          "indexed": true,
          "internalType": "address",
          "name": "_owner",
          "type": "address"
        },
        {
          "indexed": true,
          "internalType": "address",
          "name": "_operator",
          "type": "address"
        },
        {
          "indexed": false,
          "internalType": "bool",
          "name": "_approved",
          "type": "bool"
        }
      ],
      "name": "ApprovalForAll",
      "type": "event"
    },
    {
      "anonymous": false,
      "inputs": [
        {
          "indexed": true,
          "internalType": "address",
          "name": "_owner",
          "type": "address"
        },
        {
          "indexed": true,
          "internalType": "uint256",
          "name": "_slot",
          "type": "uint256"
        },
        {
          "indexed": true,
          "internalType": "address",
          "name": "_operator",
          "type": "address"
        },
        {
          "indexed": false,
          "internalType": "bool",
          "name": "_approved",
          "type": "bool"
        }
      ],
      "name": "ApprovalForSlot",
      "type": "event"
    },
    {
      "anonymous": false,
      "inputs": [
        {
          "indexed": true,
          "internalType": "uint256",
          "name": "_tokenId",
          "type": "uint256"
        },
        {
          "indexed": true,
          "internalType": "address",
          "name": "_operator",
          "type": "address"
        },
        {
          "indexed": false,
          "internalType": "uint256",
          "name": "_value",
          "type": "uint256"
        }
      ],
      "name": "ApprovalValue",
      "type": "event"
    },
    {
      "anonymous": false,
      "inputs": [
        {
          "indexed": true,
          "internalType": "address",
          "name": "oldGov",
          "type": "address"
        },
        {
          "indexed": true,
          "internalType": "address",
          "name": "newGov",
          "type": "address"
        },
        {
          "indexed": true,
          "internalType": "uint256",
          "name": "effectiveTime",
          "type": "uint256"
        },
        {
          "indexed": false,
          "internalType": "uint256",
          "name": "chainID",
          "type": "uint256"
        }
      ],
      "name": "LogChangeGov",
      "type": "event"
    },
    {
      "anonymous": false,
      "inputs": [
        {
          "indexed": false,
          "internalType": "bytes4",
          "name": "selector",
          "type": "bytes4"
        },
        {
          "indexed": false,
          "internalType": "bytes",
          "name": "data",
          "type": "bytes"
        },
        {
          "indexed": false,
          "internalType": "bytes",
          "name": "reason",
          "type": "bytes"
        }
      ],
      "name": "LogFallback",
      "type": "event"
    },
    {
      "anonymous": false,
      "inputs": [
        {
          "indexed": true,
          "internalType": "address",
          "name": "txSender",
          "type": "address"
        },
        {
          "indexed": false,
          "internalType": "bool",
          "name": "vaild",
          "type": "bool"
        }
      ],
      "name": "LogTxSender",
      "type": "event"
    },
    {
      "anonymous": false,
      "inputs": [
        {
          "indexed": true,
          "internalType": "address",
          "name": "metadataDescriptor",
          "type": "address"
        }
      ],
      "name": "SetMetadataDescriptor",
      "type": "event"
    },
    {
      "anonymous": false,
      "inputs": [
        {
          "indexed": true,
          "internalType": "uint256",
          "name": "_tokenId",
          "type": "uint256"
        },
        {
          "indexed": true,
          "internalType": "uint256",
          "name": "_oldSlot",
          "type": "uint256"
        },
        {
          "indexed": true,
          "internalType": "uint256",
          "name": "_newSlot",
          "type": "uint256"
        }
      ],
      "name": "SlotChanged",
      "type": "event"
    },
    {
      "anonymous": false,
      "inputs": [
        {
          "indexed": true,
          "internalType": "address",
          "name": "_from",
          "type": "address"
        },
        {
          "indexed": true,
          "internalType": "address",
          "name": "_to",
          "type": "address"
        },
        {
          "indexed": true,
          "internalType": "uint256",
          "name": "_tokenId",
          "type": "uint256"
        }
      ],
      "name": "Transfer",
      "type": "event"
    },
    {
      "anonymous": false,
      "inputs": [
        {
          "indexed": true,
          "internalType": "uint256",
          "name": "_fromTokenId",
          "type": "uint256"
        },
        {
          "indexed": true,
          "internalType": "uint256",
          "name": "_toTokenId",
          "type": "uint256"
        },
        {
          "indexed": false,
          "internalType": "uint256",
          "name": "_value",
          "type": "uint256"
        }
      ],
      "name": "TransferValue",
      "type": "event"
    },
    {
      "inputs": [
        {
          "internalType": "address",
          "name": "txSender",
          "type": "address"
        }
      ],
      "name": "addTxSender",
      "outputs": [],
      "stateMutability": "nonpayable",
      "type": "function"
    },
    {
      "inputs": [
        {
          "internalType": "uint256",
          "name": "tokenId_",
          "type": "uint256"
        },
        {
          "internalType": "address",
          "name": "operator_",
          "type": "address"
        }
      ],
      "name": "allowance",
      "outputs": [
        {
          "internalType": "uint256",
          "name": "",
          "type": "uint256"
        }
      ],
      "stateMutability": "view",
      "type": "function"
    },
    {
      "inputs": [
        {
          "internalType": "address",
          "name": "to_",
          "type": "address"
        },
        {
          "internalType": "uint256",
          "name": "tokenId_",
          "type": "uint256"
        }
      ],
      "name": "approve",
      "outputs": [],
      "stateMutability": "payable",
      "type": "function"
    },
    {
      "inputs": [
        {
          "internalType": "uint256",
          "name": "tokenId_",
          "type": "uint256"
        },
        {
          "internalType": "address",
          "name": "to_",
          "type": "address"
        },
        {
          "internalType": "uint256",
          "name": "value_",
          "type": "uint256"
        }
      ],
      "name": "approve",
      "outputs": [],
      "stateMutability": "payable",
      "type": "function"
    },
    {
      "inputs": [
        {
          "internalType": "address",
          "name": "owner_",
          "type": "address"
        }
      ],
      "name": "balanceOf",
      "outputs": [
        {
          "internalType": "uint256",
          "name": "balance",
          "type": "uint256"
        }
      ],
      "stateMutability": "view",
      "type": "function"
    },
    {
      "inputs": [
        {
          "internalType": "uint256",
          "name": "tokenId_",
          "type": "uint256"
        }
      ],
      "name": "balanceOf",
      "outputs": [
        {
          "internalType": "uint256",
          "name": "",
          "type": "uint256"
        }
      ],
      "stateMutability": "view",
      "type": "function"
    },
    {
      "inputs": [
        {
          "internalType": "uint256",
          "name": "tokenId_",
          "type": "uint256"
        }
      ],
      "name": "burn",
      "outputs": [],
      "stateMutability": "nonpayable",
      "type": "function"
    },
    {
      "inputs": [
        {
          "internalType": "uint256",
          "name": "tokenId_",
          "type": "uint256"
        },
        {
          "internalType": "uint256",
          "name": "burnValue_",
          "type": "uint256"
        }
      ],
      "name": "burnValue",
      "outputs": [],
      "stateMutability": "nonpayable",
      "type": "function"
    },
    {
      "inputs": [],
      "name": "c3CallerProxy",
      "outputs": [
        {
          "internalType": "address",
          "name": "",
          "type": "address"
        }
      ],
      "stateMutability": "view",
      "type": "function"
    },
    {
      "inputs": [
        {
          "internalType": "uint256",
          "name": "_dappID",
          "type": "uint256"
        },
        {
          "internalType": "bytes",
          "name": "_data",
          "type": "bytes"
        },
        {
          "internalType": "bytes",
          "name": "_reason",
          "type": "bytes"
        }
      ],
      "name": "c3Fallback",
      "outputs": [
        {
          "internalType": "bool",
          "name": "",
          "type": "bool"
        }
      ],
      "stateMutability": "nonpayable",
      "type": "function"
    },
    {
      "inputs": [
        {
          "internalType": "address",
          "name": "newGov",
          "type": "address"
        }
      ],
      "name": "changeGov",
      "outputs": [],
      "stateMutability": "nonpayable",
      "type": "function"
    },
    {
      "inputs": [],
      "name": "contractURI",
      "outputs": [
        {
          "internalType": "string",
          "name": "",
          "type": "string"
        }
      ],
      "stateMutability": "view",
      "type": "function"
    },
    {
      "inputs": [],
      "name": "dappID",
      "outputs": [
        {
          "internalType": "uint256",
          "name": "",
          "type": "uint256"
        }
      ],
      "stateMutability": "view",
      "type": "function"
    },
    {
      "inputs": [],
      "name": "delay",
      "outputs": [
        {
          "internalType": "uint256",
          "name": "",
          "type": "uint256"
        }
      ],
      "stateMutability": "view",
      "type": "function"
    },
    {
      "inputs": [
        {
          "internalType": "address",
          "name": "txSender",
          "type": "address"
        }
      ],
      "name": "disableTxSender",
      "outputs": [],
      "stateMutability": "nonpayable",
      "type": "function"
    },
    {
      "inputs": [
        {
          "internalType": "string",
          "name": "_to",
          "type": "string"
        },
        {
          "internalType": "string",
          "name": "_toChainID",
          "type": "string"
        },
        {
          "internalType": "bytes",
          "name": "_data",
          "type": "bytes"
        }
      ],
      "name": "doGov",
      "outputs": [],
      "stateMutability": "nonpayable",
      "type": "function"
    },
    {
      "inputs": [
        {
          "internalType": "string[]",
          "name": "_targets",
          "type": "string[]"
        },
        {
          "internalType": "string[]",
          "name": "_toChainIDs",
          "type": "string[]"
        },
        {
          "internalType": "bytes",
          "name": "_data",
          "type": "bytes"
        }
      ],
      "name": "doGovBroadcast",
      "outputs": [],
      "stateMutability": "nonpayable",
      "type": "function"
    },
    {
      "inputs": [
        {
          "internalType": "uint256",
          "name": "tokenId_",
          "type": "uint256"
        }
      ],
      "name": "getApproved",
      "outputs": [
        {
          "internalType": "address",
          "name": "",
          "type": "address"
        }
      ],
      "stateMutability": "view",
      "type": "function"
    },
    {
      "inputs": [],
      "name": "gov",
      "outputs": [
        {
          "internalType": "address",
          "name": "",
          "type": "address"
        }
      ],
      "stateMutability": "view",
      "type": "function"
    },
    {
      "inputs": [
        {
          "internalType": "address",
          "name": "owner_",
          "type": "address"
        },
        {
          "internalType": "address",
          "name": "operator_",
          "type": "address"
        }
      ],
      "name": "isApprovedForAll",
      "outputs": [
        {
          "internalType": "bool",
          "name": "",
          "type": "bool"
        }
      ],
      "stateMutability": "view",
      "type": "function"
    },
    {
      "inputs": [
        {
          "internalType": "address",
          "name": "owner_",
          "type": "address"
        },
        {
          "internalType": "uint256",
          "name": "slot_",
          "type": "uint256"
        },
        {
          "internalType": "address",
          "name": "operator_",
          "type": "address"
        }
      ],
      "name": "isApprovedForSlot",
      "outputs": [
        {
          "internalType": "bool",
          "name": "",
          "type": "bool"
        }
      ],
      "stateMutability": "view",
      "type": "function"
    },
    {
      "inputs": [
        {
          "internalType": "address",
          "name": "txSender",
          "type": "address"
        }
      ],
      "name": "isValidSender",
      "outputs": [
        {
          "internalType": "bool",
          "name": "",
          "type": "bool"
        }
      ],
      "stateMutability": "view",
      "type": "function"
    },
    {
      "inputs": [],
      "name": "metadataDescriptor",
      "outputs": [
        {
          "internalType": "contract ICTMRWA001MetadataDescriptor",
          "name": "",
          "type": "address"
        }
      ],
      "stateMutability": "view",
      "type": "function"
    },
    {
      "inputs": [
        {
          "internalType": "address",
          "name": "mintTo_",
          "type": "address"
        },
        {
          "internalType": "uint256",
          "name": "tokenId_",
          "type": "uint256"
        },
        {
          "internalType": "uint256",
          "name": "slot_",
          "type": "uint256"
        },
        {
          "internalType": "uint256",
          "name": "value_",
          "type": "uint256"
        }
      ],
      "name": "mint",
      "outputs": [],
      "stateMutability": "nonpayable",
      "type": "function"
    },
    {
      "inputs": [
        {
          "internalType": "uint256",
          "name": "tokenId_",
          "type": "uint256"
        },
        {
          "internalType": "uint256",
          "name": "value_",
          "type": "uint256"
        }
      ],
      "name": "mintValue",
      "outputs": [],
      "stateMutability": "nonpayable",
      "type": "function"
    },
    {
      "inputs": [],
      "name": "name",
      "outputs": [
        {
          "internalType": "string",
          "name": "",
          "type": "string"
        }
      ],
      "stateMutability": "view",
      "type": "function"
    },
    {
      "inputs": [
        {
          "internalType": "uint256",
          "name": "tokenId_",
          "type": "uint256"
        }
      ],
      "name": "ownerOf",
      "outputs": [
        {
          "internalType": "address",
          "name": "owner_",
          "type": "address"
        }
      ],
      "stateMutability": "view",
      "type": "function"
    },
    {
      "inputs": [
        {
          "internalType": "address",
          "name": "from_",
          "type": "address"
        },
        {
          "internalType": "address",
          "name": "to_",
          "type": "address"
        },
        {
          "internalType": "uint256",
          "name": "tokenId_",
          "type": "uint256"
        }
      ],
      "name": "safeTransferFrom",
      "outputs": [],
      "stateMutability": "payable",
      "type": "function"
    },
    {
      "inputs": [
        {
          "internalType": "address",
          "name": "from_",
          "type": "address"
        },
        {
          "internalType": "address",
          "name": "to_",
          "type": "address"
        },
        {
          "internalType": "uint256",
          "name": "tokenId_",
          "type": "uint256"
        },
        {
          "internalType": "bytes",
          "name": "data_",
          "type": "bytes"
        }
      ],
      "name": "safeTransferFrom",
      "outputs": [],
      "stateMutability": "payable",
      "type": "function"
    },
    {
      "inputs": [
        {
          "internalType": "address",
          "name": "operator_",
          "type": "address"
        },
        {
          "internalType": "bool",
          "name": "approved_",
          "type": "bool"
        }
      ],
      "name": "setApprovalForAll",
      "outputs": [],
      "stateMutability": "nonpayable",
      "type": "function"
    },
    {
      "inputs": [
        {
          "internalType": "address",
          "name": "owner_",
          "type": "address"
        },
        {
          "internalType": "uint256",
          "name": "slot_",
          "type": "uint256"
        },
        {
          "internalType": "address",
          "name": "operator_",
          "type": "address"
        },
        {
          "internalType": "bool",
          "name": "approved_",
          "type": "bool"
        }
      ],
      "name": "setApprovalForSlot",
      "outputs": [],
      "stateMutability": "payable",
      "type": "function"
    },
    {
      "inputs": [
        {
          "internalType": "uint256",
          "name": "_delay",
          "type": "uint256"
        }
      ],
      "name": "setDelay",
      "outputs": [],
      "stateMutability": "nonpayable",
      "type": "function"
    },
    {
      "inputs": [
        {
          "internalType": "uint256",
          "name": "index_",
          "type": "uint256"
        }
      ],
      "name": "slotByIndex",
      "outputs": [
        {
          "internalType": "uint256",
          "name": "",
          "type": "uint256"
        }
      ],
      "stateMutability": "view",
      "type": "function"
    },
    {
      "inputs": [],
      "name": "slotCount",
      "outputs": [
        {
          "internalType": "uint256",
          "name": "",
          "type": "uint256"
        }
      ],
      "stateMutability": "view",
      "type": "function"
    },
    {
      "inputs": [
        {
          "internalType": "uint256",
          "name": "tokenId_",
          "type": "uint256"
        }
      ],
      "name": "slotOf",
      "outputs": [
        {
          "internalType": "uint256",
          "name": "",
          "type": "uint256"
        }
      ],
      "stateMutability": "view",
      "type": "function"
    },
    {
      "inputs": [
        {
          "internalType": "uint256",
          "name": "slot_",
          "type": "uint256"
        }
      ],
      "name": "slotURI",
      "outputs": [
        {
          "internalType": "string",
          "name": "",
          "type": "string"
        }
      ],
      "stateMutability": "view",
      "type": "function"
    },
    {
      "inputs": [
        {
          "internalType": "bytes4",
          "name": "interfaceId",
          "type": "bytes4"
        }
      ],
      "name": "supportsInterface",
      "outputs": [
        {
          "internalType": "bool",
          "name": "",
          "type": "bool"
        }
      ],
      "stateMutability": "view",
      "type": "function"
    },
    {
      "inputs": [],
      "name": "symbol",
      "outputs": [
        {
          "internalType": "string",
          "name": "",
          "type": "string"
        }
      ],
      "stateMutability": "view",
      "type": "function"
    },
    {
      "inputs": [
        {
          "internalType": "uint256",
          "name": "index_",
          "type": "uint256"
        }
      ],
      "name": "tokenByIndex",
      "outputs": [
        {
          "internalType": "uint256",
          "name": "",
          "type": "uint256"
        }
      ],
      "stateMutability": "view",
      "type": "function"
    },
    {
      "inputs": [
        {
          "internalType": "uint256",
          "name": "slot_",
          "type": "uint256"
        },
        {
          "internalType": "uint256",
          "name": "index_",
          "type": "uint256"
        }
      ],
      "name": "tokenInSlotByIndex",
      "outputs": [
        {
          "internalType": "uint256",
          "name": "",
          "type": "uint256"
        }
      ],
      "stateMutability": "view",
      "type": "function"
    },
    {
      "inputs": [
        {
          "internalType": "address",
          "name": "owner_",
          "type": "address"
        },
        {
          "internalType": "uint256",
          "name": "index_",
          "type": "uint256"
        }
      ],
      "name": "tokenOfOwnerByIndex",
      "outputs": [
        {
          "internalType": "uint256",
          "name": "",
          "type": "uint256"
        }
      ],
      "stateMutability": "view",
      "type": "function"
    },
    {
      "inputs": [
        {
          "internalType": "uint256",
          "name": "slot_",
          "type": "uint256"
        }
      ],
      "name": "tokenSupplyInSlot",
      "outputs": [
        {
          "internalType": "uint256",
          "name": "",
          "type": "uint256"
        }
      ],
      "stateMutability": "view",
      "type": "function"
    },
    {
      "inputs": [
        {
          "internalType": "uint256",
          "name": "tokenId_",
          "type": "uint256"
        }
      ],
      "name": "tokenURI",
      "outputs": [
        {
          "internalType": "string",
          "name": "",
          "type": "string"
        }
      ],
      "stateMutability": "view",
      "type": "function"
    },
    {
      "inputs": [],
      "name": "totalSupply",
      "outputs": [
        {
          "internalType": "uint256",
          "name": "",
          "type": "uint256"
        }
      ],
      "stateMutability": "view",
      "type": "function"
    },
    {
      "inputs": [
        {
          "internalType": "uint256",
          "name": "fromTokenId_",
          "type": "uint256"
        },
        {
          "internalType": "address",
          "name": "to_",
          "type": "address"
        },
        {
          "internalType": "uint256",
          "name": "value_",
          "type": "uint256"
        }
      ],
      "name": "transferFrom",
      "outputs": [
        {
          "internalType": "uint256",
          "name": "newTokenId",
          "type": "uint256"
        }
      ],
      "stateMutability": "payable",
      "type": "function"
    },
    {
      "inputs": [
        {
          "internalType": "address",
          "name": "from_",
          "type": "address"
        },
        {
          "internalType": "address",
          "name": "to_",
          "type": "address"
        },
        {
          "internalType": "uint256",
          "name": "tokenId_",
          "type": "uint256"
        }
      ],
      "name": "transferFrom",
      "outputs": [],
      "stateMutability": "payable",
      "type": "function"
    },
    {
      "inputs": [
        {
          "internalType": "uint256",
          "name": "fromTokenId_",
          "type": "uint256"
        },
        {
          "internalType": "uint256",
          "name": "toTokenId_",
          "type": "uint256"
        },
        {
          "internalType": "uint256",
          "name": "value_",
          "type": "uint256"
        }
      ],
      "name": "transferFrom",
      "outputs": [],
      "stateMutability": "payable",
      "type": "function"
    },
    {
      "inputs": [],
      "name": "valueDecimals",
      "outputs": [
        {
          "internalType": "uint8",
          "name": "",
          "type": "uint8"
        }
      ],
      "stateMutability": "view",
      "type": "function"
    }
  ],
  "bytecode": "0x60806040526202a3006002553480156200001857600080fd5b5060405162004d8138038062004d818339810160408190526200003b91620001f0565b600080546001600160a01b038086166001600160a01b0319928316178355600184815560038054838a1690851681179091556004805490941617909255426005558416825260066020526040909120805460ff191682179055600a558787878787878787878787878787878787878787878787876007620000bd898262000357565b506008620000cc888262000357565b5085600960006101000a81548160ff021916908360ff160217905550505050505050505050505050505050505050505050505050505050505050505062000423565b634e487b7160e01b600052604160045260246000fd5b600082601f8301126200013657600080fd5b81516001600160401b03808211156200015357620001536200010e565b604051601f8301601f19908116603f011681019082821181831017156200017e576200017e6200010e565b816040528381526020925086838588010111156200019b57600080fd5b600091505b83821015620001bf5785820183015181830184015290820190620001a0565b600093810190920192909252949350505050565b80516001600160a01b0381168114620001eb57600080fd5b919050565b600080600080600080600080610100898b0312156200020e57600080fd5b88516001600160401b03808211156200022657600080fd5b620002348c838d0162000124565b995060208b01519150808211156200024b57600080fd5b506200025a8b828c0162000124565b975050604089015160ff811681146200027257600080fd5b95506200028260608a01620001d3565b94506200029260808a01620001d3565b9350620002a260a08a01620001d3565b9250620002b260c08a01620001d3565b915060e089015190509295985092959890939650565b600181811c90821680620002dd57607f821691505b602082108103620002fe57634e487b7160e01b600052602260045260246000fd5b50919050565b601f8211156200035257600081815260208120601f850160051c810160208610156200032d5750805b601f850160051c820191505b818110156200034e5782815560010162000339565b5050505b505050565b81516001600160401b038111156200037357620003736200010e565b6200038b81620003848454620002c8565b8462000304565b602080601f831160018114620003c35760008415620003aa5750858301515b600019600386901b1c1916600185901b1785556200034e565b600085815260208120601f198616915b82811015620003f457888601518255948401946001909101908401620003d3565b5085821015620004135787850151600019600388901b60f8161c191681555b5050505050600190811b01905550565b61494e80620004336000396000f3fe6080604052600436106102925760003560e01c806387fe86111161015a578063d60ad41b116100c1578063e985e9c51161007a578063e985e9c5146107a1578063ed08fa80146107ee578063eebd14af14610803578063f01f2b8b14610823578063f0e88e7f1461085c578063f9e4cbaf1461087c57600080fd5b8063d60ad41b146106bb578063dd64b3e6146106db578063e177246e146106fb578063e345e0bc1461071b578063e345f05e1461073b578063e8a3d4851461078c57600080fd5b8063a647e8ec11610113578063a647e8ec14610612578063a962ef1e14610632578063b121f51d14610652578063b88d4fde14610672578063c516ad1114610685578063c87b56dd1461069b57600080fd5b806387fe86111461056a5780638cb0a5111461058a57806395d89b411461059d578063993bef8d146105b25780639cc7f708146105d2578063a22cb465146105f257600080fd5b8063310ed7f0116101fe57806355cd4e06116101b757806355cd4e06146104c157806358f2c057146104d45780636352211e146104f45780636a42b8f81461051457806370a082311461052a578063840f71131461054a57600080fd5b8063310ed7f0146104195780633e7e86691461042c57806342842e0e1461044e57806342966c68146104615780634f6ccce7146104815780634f8a0f83146104a157600080fd5b80630f485c02116102505780630f485c021461038957806312d43a511461039c57806318160ddd146103b157806323b872dd146103c6578063263f3e7e146103d95780632f745c59146103f957600080fd5b8062cd01101461029757806301ffc9a7146102ca57806306fdde03146102fa578063081812fc1461031c578063095ea7b31461035457806309c3dd8714610369575b600080fd5b3480156102a357600080fd5b506102b76102b2366004613cff565b61089c565b6040519081526020015b60405180910390f35b3480156102d657600080fd5b506102ea6102e5366004613d37565b61097a565b60405190151581526020016102c1565b34801561030657600080fd5b5061030f61099f565b6040516102c19190613da4565b34801561032857600080fd5b5061033c610337366004613db7565b610a31565b6040516001600160a01b0390911681526020016102c1565b610367610362366004613de7565b610a83565b005b34801561037557600080fd5b5061030f610384366004613db7565b610b7f565b6102b7610397366004613e11565b610c71565b3480156103a857600080fd5b5061033c610ca9565b3480156103bd57600080fd5b50600c546102b7565b6103676103d4366004613e46565b610cd4565b3480156103e557600080fd5b506102b76103f4366004613db7565b610d0b565b34801561040557600080fd5b506102b7610414366004613de7565b610d53565b610367610427366004613e72565b610de2565b34801561043857600080fd5b5060095460405160ff90911681526020016102c1565b61036761045c366004613e46565b610df8565b34801561046d57600080fd5b5061036761047c366004613db7565b610e13565b34801561048d57600080fd5b506102b761049c366004613db7565b610e44565b3480156104ad57600080fd5b506102b76104bc366004613db7565b610ed7565b6103676104cf366004613eac565b610f2c565b3480156104e057600080fd5b5060005461033c906001600160a01b031681565b34801561050057600080fd5b5061033c61050f366004613db7565b610fd0565b34801561052057600080fd5b506102b760025481565b34801561053657600080fd5b506102b7610545366004613efb565b611070565b34801561055657600080fd5b50600f5461033c906001600160a01b031681565b34801561057657600080fd5b50610367610585366004613cff565b6110fa565b610367610598366004613e11565b61112f565b3480156105a957600080fd5b5061030f6111ea565b3480156105be57600080fd5b506102b76105cd366004613db7565b6111f9565b3480156105de57600080fd5b506102b76105ed366004613db7565b611298565b3480156105fe57600080fd5b5061036761060d366004613f16565b6112e0565b34801561061e57600080fd5b5061036761062d366004613f4d565b6112eb565b34801561063e57600080fd5b5061036761064d366004613efb565b6112f7565b34801561065e57600080fd5b506102ea61066d366004613fcf565b61141b565b61036761068036600461410e565b611551565b34801561069157600080fd5b506102b760015481565b3480156106a757600080fd5b5061030f6106b6366004613db7565b611582565b3480156106c757600080fd5b506103676106d6366004614176565b611621565b3480156106e757600080fd5b506103676106f636600461429d565b611673565b34801561070757600080fd5b50610367610716366004613db7565b6116f0565b34801561072757600080fd5b506102b76107363660046142f8565b61173c565b34801561074757600080fd5b506102ea610756366004614324565b6001600160a01b039283166000908152601360209081526040808320948352938152838220929094168152925290205460ff1690565b34801561079857600080fd5b5061030f611770565b3480156107ad57600080fd5b506102ea6107bc366004614360565b6001600160a01b039182166000908152600e602090815260408083209390941682526002909201909152205460ff1690565b3480156107fa57600080fd5b506011546102b7565b34801561080f57600080fd5b5061036761081e366004613efb565b61186a565b34801561082f57600080fd5b506102ea61083e366004613efb565b6001600160a01b031660009081526006602052604090205460ff1690565b34801561086857600080fd5b50610367610877366004613cff565b61190f565b34801561088857600080fd5b50610367610897366004613efb565b611919565b60006108a783610ed7565b82106109205760405162461bcd60e51b815260206004820152603760248201527f43544d525741303031536c6f74456e756d657261626c653a20736c6f7420746f60448201527f6b656e20696e646578206f7574206f6620626f756e647300000000000000000060648201526084015b60405180910390fd5b6000838152601260205260409020546011805490919081106109445761094461438a565b906000526020600020906002020160010182815481106109665761096661438a565b906000526020600020015490505b92915050565b60006001600160e01b031982166316d117cb60e31b14806109745750610974826119af565b6060600780546109ae906143a0565b80601f01602080910402602001604051908101604052809291908181526020018280546109da906143a0565b8015610a275780601f106109fc57610100808354040283529160200191610a27565b820191906000526020600020905b815481529060010190602001808311610a0a57829003601f168201915b5050505050905090565b6000610a3c826119d4565b6000828152600d6020526040902054600c80549091908110610a6057610a6061438a565b60009182526020909120600460069092020101546001600160a01b031692915050565b6000610a8e82610fd0565b90506000610a9b83610d0b565b9050816001600160a01b0316846001600160a01b031603610ace5760405162461bcd60e51b8152600401610917906143da565b336001600160a01b0383161480610aea5750610aea82336107bc565b80610afb5750610afb828233610756565b610b6f576040805162461bcd60e51b81526020600482015260248101919091527f43544d5257413030313a20617070726f76652063616c6c6572206973206e6f7460448201527f206f776e6572206e6f7220617070726f76656420666f7220616c6c2f736c6f746064820152608401610917565b610b798484611a29565b50505050565b60606000610b9860408051602081019091526000815290565b600f549091506001600160a01b0316610bf8576000815111610bc95760405180602001604052806000815250610c6a565b80610bd384611ac0565b604051602001610be492919061441e565b604051602081830303815290604052610c6a565b600f54604051633601bfc560e11b8152600481018590526001600160a01b0390911690636c037f8a906024015b600060405180830381865afa158015610c42573d6000803e3d6000fd5b505050506040513d6000823e601f3d908101601f19168201604052610c6a919081019061445e565b9392505050565b6000610c7e338584611b53565b610c8784611bed565b9050610c9e8382610c9787610d0b565b6000611bf7565b610c6a848284611d40565b60006005544210610cc457506004546001600160a01b031690565b506003546001600160a01b031690565b610cdf335b82612088565b610cfb5760405162461bcd60e51b8152600401610917906144cc565b610d06838383612137565b505050565b6000610d16826119d4565b6000828152600d6020526040902054600c80549091908110610d3a57610d3a61438a565b9060005260206000209060060201600101549050919050565b6000610d5e83611070565b8210610db85760405162461bcd60e51b8152602060048201526024808201527f43544d5257413030313a206f776e657220696e646578206f7574206f6620626f604482015263756e647360e01b6064820152608401610917565b6001600160a01b0383166000908152600e602052604090208054839081106109665761096661438a565b610ded338483611b53565b610d06838383611d40565b610d0683838360405180602001604052806000815250611551565b610e1c33610cd9565b610e385760405162461bcd60e51b815260040161091790614520565b610e41816122b4565b50565b6000610e4f600c5490565b8210610eab5760405162461bcd60e51b815260206004820152602560248201527f43544d5257413030313a20676c6f62616c20696e646578206f7574206f6620626044820152646f756e647360d81b6064820152608401610917565b600c8281548110610ebe57610ebe61438a565b9060005260206000209060060201600001549050919050565b6000610ee2826123df565b610eee57506000919050565b600082815260126020526040902054601180549091908110610f1257610f1261438a565b600091825260209091206001600290920201015492915050565b336001600160a01b0385161480610f485750610f4884336107bc565b610fc45760405162461bcd60e51b815260206004820152604160248201527f43544d525741303031536c6f74417070726f7661626c653a2063616c6c65722060448201527f6973206e6f74206f776e6572206e6f7220617070726f76656420666f7220616c6064820152601b60fa1b608482015260a401610917565b610b798484848461242b565b6000610fdb826119d4565b6000828152600d6020526040902054600c80549091908110610fff57610fff61438a565b60009182526020909120600360069092020101546001600160a01b031690508061106b5760405162461bcd60e51b815260206004820152601b60248201527f43544d5257413030313a20696e76616c696420746f6b656e20494400000000006044820152606401610917565b919050565b60006001600160a01b0382166110de5760405162461bcd60e51b815260206004820152602d60248201527f43544d5257413030313a2062616c616e636520717565727920666f722074686560448201526c207a65726f206164647265737360981b6064820152608401610917565b506001600160a01b03166000908152600e602052604090205490565b611105335b83612088565b6111215760405162461bcd60e51b815260040161091790614520565b61112b8282612517565b5050565b600061113a84610fd0565b9050806001600160a01b0316836001600160a01b03160361116d5760405162461bcd60e51b8152600401610917906143da565b6111773385612088565b6111df5760405162461bcd60e51b815260206004820152603360248201527f43544d5257413030313a20617070726f76652063616c6c6572206973206e6f74604482015272081bdddb995c881b9bdc88185c1c1c9bdd9959606a1b6064820152608401610917565b610b79848484612637565b6060600880546109ae906143a0565b600061120460115490565b821061126c5760405162461bcd60e51b815260206004820152603160248201527f43544d525741303031536c6f74456e756d657261626c653a20736c6f7420696e604482015270646578206f7574206f6620626f756e647360781b6064820152608401610917565b6011828154811061127f5761127f61438a565b9060005260206000209060020201600001549050919050565b60006112a3826119d4565b6000828152600d6020526040902054600c805490919081106112c7576112c761438a565b9060005260206000209060060201600201549050919050565b61112b338383612771565b610b7984848484611bf7565b6112ff610ca9565b6001600160a01b0316336001600160a01b0316148061132257506113223361283b565b61133e5760405162461bcd60e51b815260040161091790614571565b6001600160a01b0381166113865760405162461bcd60e51b815260206004820152600f60248201526e6e6577476f7620697320656d70747960881b6044820152606401610917565b61138e610ca9565b600380546001600160a01b03199081166001600160a01b0393841617909155600480549091169183169190911790556002546113ca90426145ae565b60058190556004546003546040514681526001600160a01b0392831692909116907f4552e521eca39a029d33503b3e2003db87de01f8396f9e3fdd9dddddb9b838b49060200160405180910390a450565b60008054604051631eb01f7360e21b81523360048201526001600160a01b0390911690637ac07dcc906024016020604051808303816000875af1158015611466573d6000803e3d6000fd5b505050506040513d601f19601f8201168201806040525081019061148a91906145c1565b6114d65760405162461bcd60e51b815260206004820152601860248201527f433343616c6c6572446170703a206f6e6c7943616c6c657200000000000000006044820152606401610917565b60015486146115195760405162461bcd60e51b815260206004820152600f60248201526e0c8c2e0e0928840c8d2e6dac2e8c6d608b1b6044820152606401610917565b61154761152a6004600087896145de565b61153391614608565b611540866004818a6145de565b86866128ac565b9695505050505050565b61155a336110ff565b6115765760405162461bcd60e51b8152600401610917906144cc565b610b79848484846128f9565b606061158d826119d4565b60006115a460408051602081019091526000815290565b600f549091506001600160a01b03166115f05760008151116115d55760405180602001604052806000815250610c6a565b806115df84611ac0565b604051602001610be4929190614638565b600f546040516344a5a61760e11b8152600481018590526001600160a01b039091169063894b4c2e90602401610c25565b611629610ca9565b6001600160a01b0316336001600160a01b0316148061164c575061164c3361283b565b6116685760405162461bcd60e51b815260040161091790614571565b610d0683838361296e565b61167b610ca9565b6001600160a01b0316336001600160a01b0316148061169e575061169e3361283b565b6116ba5760405162461bcd60e51b815260040161091790614571565b81518351146116e55760405162461bcd60e51b81526020600482015260006024820152604401610917565b610d068383836129dc565b6116f8610ca9565b6001600160a01b0316336001600160a01b0316148061171b575061171b3361283b565b6117375760405162461bcd60e51b815260040161091790614571565b600255565b6000611747836119d4565b506000918252600b602090815260408084206001600160a01b0393909316845291905290205490565b6060600061178960408051602081019091526000815290565b600f549091506001600160a01b03166117e95760008151116117ba5760405180602001604052806000815250611864565b806117c430612a13565b6040516020016117d5929190614667565b604051602081830303815290604052611864565b600f60009054906101000a90046001600160a01b03166001600160a01b031663725fa09c6040518163ffffffff1660e01b8152600401600060405180830381865afa15801561183c573d6000803e3d6000fd5b505050506040513d6000823e601f3d908101601f19168201604052611864919081019061445e565b91505090565b611872610ca9565b6001600160a01b0316336001600160a01b0316148061189557506118953361283b565b6118b15760405162461bcd60e51b815260040161091790614571565b6001600160a01b038116600081815260066020908152604091829020805460ff1916600190811790915591519182527fbfb8b3e2f6221ae729e9cacb0d35f5d9be686ba10cb1d4e34b646bbb87f7a26991015b60405180910390a250565b61112b8282612a29565b611921610ca9565b6001600160a01b0316336001600160a01b0316148061194457506119443361283b565b6119605760405162461bcd60e51b815260040161091790614571565b6001600160a01b0381166000818152600660209081526040808320805460ff19169055519182527fbfb8b3e2f6221ae729e9cacb0d35f5d9be686ba10cb1d4e34b646bbb87f7a2699101611904565b60006001600160e01b03198216631dba0dcf60e11b1480610974575061097482612a6d565b6119dd81612b0f565b610e415760405162461bcd60e51b815260206004820152601b60248201527f43544d5257413030313a20696e76616c696420746f6b656e20494400000000006044820152606401610917565b6000818152600d6020526040902054600c80548492908110611a4d57611a4d61438a565b6000918252602090912060069091020160040180546001600160a01b0319166001600160a01b0392831617905581908316611a8782610fd0565b6001600160a01b03167f8c5be1e5ebec7d5bd14f71427d1e84f3dd0314c0f7b2291e5b200ac8c7c3b92560405160405180910390a45050565b60606000611acd83612b5b565b600101905060008167ffffffffffffffff811115611aed57611aed614049565b6040519080825280601f01601f191660200182016040528015611b17576020820181803683370190505b5090508181016020015b600019016f181899199a1a9b1b9c1cb0b131b232b360811b600a86061a8153600a8504945084611b2157509392505050565b6000611b5f838561173c565b9050611b6b8484612088565b158015611b7a57506000198114155b15610b795781811015611bd95760405162461bcd60e51b815260206004820152602160248201527f43544d5257413030313a20696e73756666696369656e7420616c6c6f77616e636044820152606560f81b6064820152608401610917565b610b798385611be885856146ab565b612637565b6000610974612c33565b6001600160a01b038416611c595760405162461bcd60e51b815260206004820152602360248201527f43544d5257413030313a206d696e7420746f20746865207a65726f206164647260448201526265737360e81b6064820152608401610917565b82600003611cb55760405162461bcd60e51b815260206004820152602360248201527f43544d5257413030313a2063616e6e6f74206d696e74207a65726f20746f6b656044820152621b925960ea1b6064820152608401610917565b611cbe83612b0f565b15611d0b5760405162461bcd60e51b815260206004820152601f60248201527f43544d5257413030313a20746f6b656e20616c7265616479206d696e746564006044820152606401610917565b611d1b6000856000868686612c4d565b611d26848484612c82565b611d308382612d48565b610b796000856000868686612dbb565b611d4983612b0f565b611da75760405162461bcd60e51b815260206004820152602960248201527f43544d5257413030313a207472616e736665722066726f6d20696e76616c6964604482015268081d1bdad95b88125160ba1b6064820152608401610917565b611db082612b0f565b611e0c5760405162461bcd60e51b815260206004820152602760248201527f43544d5257413030313a207472616e7366657220746f20696e76616c696420746044820152661bdad95b88125160ca1b6064820152608401610917565b6000838152600d6020526040812054600c80549091908110611e3057611e3061438a565b906000526020600020906006020190506000600c600d60008681526020019081526020016000205481548110611e6857611e6861438a565b906000526020600020906006020190508282600201541015611ee15760405162461bcd60e51b815260206004820152602c60248201527f43544d5257413030313a20696e73756666696369656e742062616c616e63652060448201526b3337b9103a3930b739b332b960a11b6064820152608401610917565b8060010154826001015414611f515760405162461bcd60e51b815260206004820152603060248201527f43544d5257413030313a207472616e7366657220746f20746f6b656e2077697460448201526f1a08191a5999995c995b9d081cdb1bdd60821b6064820152608401610917565b600380830154908201546001840154611f7c926001600160a01b039081169216908890889088612c4d565b82826002016000828254611f9091906146ab565b9250508190555082816002016000828254611fab91906145ae565b9091555050604051838152849086906000805160206148f98339815191529060200160405180910390a3600380830154908201546001840154612000926001600160a01b039081169216908890889088612dbb565b61201b85858560405180602001604052806000815250612e2c565b6120815760405162461bcd60e51b815260206004820152603160248201527f43544d5257413030313a207472616e736665722072656a65637465642062792060448201527021aa26a92ba0981818a932b1b2b4bb32b960791b6064820152608401610917565b5050505050565b6000612093826119d4565b600061209e83610fd0565b905060006120ab84610d0b565b9050816001600160a01b0316856001600160a01b031614806120e65750846001600160a01b03166120db85610a31565b6001600160a01b0316145b806120f657506120f682866107bc565b8061212e57506001600160a01b03808316600090815260136020908152604080832085845282528083209389168352929052205460ff165b95945050505050565b826001600160a01b031661214a82610fd0565b6001600160a01b0316146121af5760405162461bcd60e51b815260206004820152602660248201527f43544d5257413030313a207472616e736665722066726f6d20696e76616c69646044820152651037bbb732b960d11b6064820152608401610917565b6001600160a01b0382166122155760405162461bcd60e51b815260206004820152602760248201527f43544d5257413030313a207472616e7366657220746f20746865207a65726f206044820152666164647265737360c81b6064820152608401610917565b600061222082610d0b565b9050600061222d83611298565b905061223d858585868686612c4d565b612248600084611a29565b61225183612fa4565b61225b858461304f565b6122658484613170565b82846001600160a01b0316866001600160a01b03167fddf252ad1be2c89b69c2b068fc378daa952ba7f163c4a11628f55a4df523b3ef60405160405180910390a4612081858585868686612dbb565b6122bd816119d4565b6000818152600d6020526040812054600c805490919081106122e1576122e161438a565b600091825260208220600360069092020190810154600182015460028301549294506001600160a01b039091169290919061232190849087818686612c4d565b61232a85612fa4565b612334838661304f565b61233d856131f9565b6000856000805160206148f98339815191528360405161235f91815260200190565b60405180910390a3600082867fe4f48c240d3b994948aa54f3e2f5fca59263dfe1d52b6e4cf39a5d249b5ccb6560405160405180910390a460405185906000906001600160a01b038616907fddf252ad1be2c89b69c2b068fc378daa952ba7f163c4a11628f55a4df523b3ef908390a46120818360008760008686612dbb565b6011546000901580159061097457506000828152601260205260409020546011805484929081106124125761241261438a565b9060005260206000209060020201600001541492915050565b816001600160a01b0316846001600160a01b03160361249e5760405162461bcd60e51b815260206004820152602960248201527f43544d525741303031536c6f74417070726f7661626c653a20617070726f7665604482015268103a379037bbb732b960b91b6064820152608401610917565b6001600160a01b038481166000818152601360209081526040808320888452825280832094871680845294825291829020805460ff191686151590811790915591519182528692917f7bdf71e6625aa496095bf08b60c677cf81c963f402cf258981e3bd7507d3480c910160405180910390a450505050565b612520826119d4565b6000828152600d6020526040812054600c805490919081106125445761254461438a565b600091825260209091206006909102016003810154600182015460028301549293506001600160a01b0390911691848110156125d05760405162461bcd60e51b815260206004820152602560248201527f43544d5257413030313a206275726e2076616c756520657863656564732062616044820152646c616e636560d81b6064820152608401610917565b6125e0836000886000868a612c4d565b848460020160008282546125f491906146ab565b909155505060405185815260009087906000805160206148f98339815191529060200160405180910390a361262f836000886000868a612dbb565b505050505050565b6001600160a01b0382166126a25760405162461bcd60e51b815260206004820152602c60248201527f43544d5257413030313a20617070726f76652076616c756520746f207468652060448201526b7a65726f206164647265737360a01b6064820152608401610917565b6126ac8284613407565b612712576000838152600d6020526040902054600c805490919081106126d4576126d461438a565b60009182526020808320600692909202909101600501805460018101825590835291200180546001600160a01b0319166001600160a01b0384161790555b6000838152600b602090815260408083206001600160a01b038616808552908352928190208490555183815285917f621b050de0ad08b51d19b48b3e6df75348c4de6bdd93e81b252ca62e28265b1b91015b60405180910390a3505050565b816001600160a01b0316836001600160a01b0316036127d25760405162461bcd60e51b815260206004820152601c60248201527f43544d5257413030313a20617070726f766520746f2063616c6c6572000000006044820152606401610917565b6001600160a01b038381166000818152600e602090815260408083209487168084526002909501825291829020805460ff191686151590811790915591519182527f17307eab39ab6107e8899845ad3d59bd9653f200f220920489ca2b5937696c319101612764565b60008054604051631eb01f7360e21b81526001600160a01b03848116600483015290911690637ac07dcc906024016020604051808303816000875af1158015612888573d6000803e3d6000fd5b505050506040513d601f19601f8201168201806040525081019061097491906145c1565b60007fd1b411598268892b6836c5b922cfa272124f6f0bd3a7cf9f9d408f7e50f2230186868686866040516128e59594939291906146e7565b60405180910390a150600195945050505050565b612904848484612137565b612910848484846134da565b610b795760405162461bcd60e51b815260206004820152602960248201527f43544d5257413030313a207472616e7366657220746f206e6f6e20455243373260448201526818a932b1b2b4bb32b960b91b6064820152608401610917565b6000546001546040516304f4c7fb60e31b81526001600160a01b03909216916327a63fd8916129a59187908790879060040161471d565b600060405180830381600087803b1580156129bf57600080fd5b505af11580156129d3573d6000803e3d6000fd5b50505050505050565b60005460015460405163ec6a8b7d60e01b81526001600160a01b039092169163ec6a8b7d916129a5918790879087906004016147ce565b60606109746001600160a01b0383166014613620565b6000612a3483610fd0565b90506000612a4184610d0b565b9050612a536000836000878588612c4d565b612a5d8484612d48565b610b796000836000878588612dbb565b60006001600160e01b031982166301ffc9a760e01b1480612a9e57506001600160e01b03198216630354d60560e61b145b80612ab957506001600160e01b031982166380ac58cd60e01b145b80612ad457506001600160e01b031982166370b0048160e11b145b80612aef57506001600160e01b0319821663780e9d6360e01b145b8061097457506001600160e01b03198216635b5e139f60e01b1492915050565b600c546000901580159061097457506000828152600d6020526040902054600c80548492908110612b4257612b4261438a565b9060005260206000209060060201600001541492915050565b60008072184f03e93ff9f4daa797ed6e38ed64bf6a1f0160401b8310612b9a5772184f03e93ff9f4daa797ed6e38ed64bf6a1f0160401b830492506040015b6d04ee2d6d415b85acef81000000008310612bc6576d04ee2d6d415b85acef8100000000830492506020015b662386f26fc100008310612be457662386f26fc10000830492506010015b6305f5e1008310612bfc576305f5e100830492506008015b6127108310612c1057612710830492506004015b60648310612c22576064830492506002015b600a83106109745760010192915050565b600a805460009182612c4483614818565b91905055905090565b6001600160a01b038616158015612c62575083155b8015612c745750612c72826123df565b155b1561262f5761262f826137bc565b6040805160c081018252838152602080820184905260008284018190526001600160a01b038716606084015260808301819052835181815291820190935260a08201529050612cd081613885565b612cda8484613170565b60405183906001600160a01b038616906000907fddf252ad1be2c89b69c2b068fc378daa952ba7f163c4a11628f55a4df523b3ef908290a4816000847fe4f48c240d3b994948aa54f3e2f5fca59263dfe1d52b6e4cf39a5d249b5ccb6560405160405180910390a450505050565b6000828152600d6020526040902054600c80548392908110612d6c57612d6c61438a565b90600052602060002090600602016002016000828254612d8c91906145ae565b909155505060405181815282906000906000805160206148f98339815191529060200160405180910390a35050565b6001600160a01b038616158015612dd0575083155b8015612de35750612de182846139d7565b155b15612df757612df28284613a62565b61262f565b6001600160a01b038516158015612e0c575082155b8015612e1d5750612e1d82856139d7565b15612df257612df28285613ac3565b600080612e3885610fd0565b9050803b63ffffffff1615612f96576040516301ffc9a760e01b8152633abe4f5560e21b60048201526001600160a01b038216906301ffc9a790602401602060405180830381865afa925050508015612eae575060408051601f3d908101601f19168201909252612eab918101906145c1565b60015b612eed573d808015612edc576040519150601f19603f3d011682016040523d82523d6000602084013e612ee1565b606091505b50600192505050612f9c565b8015612f8b57604051633abe4f5560e21b81526000906001600160a01b0384169063eaf93d5490612f2a9033908c908c908c908c90600401614831565b6020604051808303816000875af1158015612f49573d6000803e3d6000fd5b505050506040513d601f19601f82011682018060405250810190612f6d9190614864565b6001600160e01b031916633abe4f5560e21b149350612f9c92505050565b600192505050612f9c565b60019150505b949350505050565b6000818152600d6020526040812054600c80549091908110612fc857612fc861438a565b600091825260208220600560069092020190810154909250905b818110156130405760008360050182815481106130015761300161438a565b6000918252602080832090910154878352600b825260408084206001600160a01b0390921684529152812055508061303881614818565b915050612fe2565b50610d06600583016000613c2c565b6000818152600d6020526040812054600c805490919081106130735761307361438a565b6000918252602080832060069290920290910160030180546001600160a01b0319166001600160a01b039485161790559184168152600e9091526040812080549091906130c2906001906146ab565b905060008260000182815481106130db576130db61438a565b906000526020600020015490506000836001016000868152602001908152602001600020549050818460000182815481106131185761311861438a565b6000918252602080832090910192909255838152600186019091526040808220839055868252812055835484908061315257613152614881565b60019003818190600052602060002001600090559055505050505050565b6000818152600d6020526040902054600c805484929081106131945761319461438a565b6000918252602080832060069290920290910160030180546001600160a01b0319166001600160a01b03948516179055939091168152600e80845260408083208054858552600182810188529285208190559286529082018155825292902090910155565b600c5460009061320b906001906146ab565b6000838152600d6020526040812054600c80549394509092849081106132335761323361438a565b60009182526020918290206040805160c08101825260069093029091018054835260018101548385015260028101548383015260038101546001600160a01b03908116606085015260048201541660808401526005810180548351818702810187019094528084529394919360a0860193928301828280156132de57602002820191906000526020600020905b81546001600160a01b031681526001909101906020018083116132c0575b505050505081525050905080600c83815481106132fd576132fd61438a565b600091825260209182902083516006909202019081558282015160018201556040830151600282015560608301516003820180546001600160a01b039283166001600160a01b031991821617909155608085015160048401805491909316911617905560a08301518051919261337b92600585019290910190613c4a565b505081516000908152600d602052604080822085905586825281205550600c8054806133a9576133a9614881565b60008281526020812060066000199093019283020181815560018101829055600281018290556003810180546001600160a01b03199081169091556004820180549091169055906133fd6005830182613c2c565b5050905550505050565b6000818152600d6020526040812054600c8054839290811061342b5761342b61438a565b6000918252602082206005600690920201015491505b818110156134cf576000848152600d6020526040902054600c80546001600160a01b038816929081106134765761347661438a565b906000526020600020906006020160050182815481106134985761349861438a565b6000918252602090912001546001600160a01b0316036134bd57600192505050610974565b806134c781614818565b915050613441565b506000949350505050565b6000833b63ffffffff161561361857604051630a85bd0160e11b81526001600160a01b0385169063150b7a029061351b903390899088908890600401614897565b6020604051808303816000875af1925050508015613556575060408051601f3d908101601f1916820190925261355391810190614864565b60015b6135fe573d808015613584576040519150601f19603f3d011682016040523d82523d6000602084013e613589565b606091505b5080516000036135f65760405162461bcd60e51b815260206004820152603260248201527f4552433732313a207472616e7366657220746f206e6f6e20455243373231526560448201527131b2b4bb32b91034b6b83632b6b2b73a32b960711b6064820152608401610917565b805181602001fd5b6001600160e01b031916630a85bd0160e11b149050612f9c565b506001612f9c565b6060600061362f8360026148ca565b61363a9060026145ae565b67ffffffffffffffff81111561365257613652614049565b6040519080825280601f01601f19166020018201604052801561367c576020820181803683370190505b509050600360fc1b816000815181106136975761369761438a565b60200101906001600160f81b031916908160001a905350600f60fb1b816001815181106136c6576136c661438a565b60200101906001600160f81b031916908160001a90535060006136ea8460026148ca565b6136f59060016145ae565b90505b600181111561376d576f181899199a1a9b1b9c1cb0b131b232b360811b85600f16601081106137295761372961438a565b1a60f81b82828151811061373f5761373f61438a565b60200101906001600160f81b031916908160001a90535060049490941c93613766816148e1565b90506136f8565b508315610c6a5760405162461bcd60e51b815260206004820181905260248201527f537472696e67733a20686578206c656e67746820696e73756666696369656e746044820152606401610917565b6137c5816123df565b156138275760405162461bcd60e51b815260206004820152602c60248201527f43544d525741303031536c6f74456e756d657261626c653a20736c6f7420616c60448201526b72656164792065786973747360a01b6064820152608401610917565b60408051808201825282815281516000808252602082810190945292820152905061385181613ba7565b816000807fe4f48c240d3b994948aa54f3e2f5fca59263dfe1d52b6e4cf39a5d249b5ccb6560405160405180910390a45050565b600c805482516000908152600d6020908152604080832084905560018401855593909152835160069092027fdf6966c971051c3d54ec59162606531493a51404a002842f56009d7e5cf4a8c78101928355818501517fdf6966c971051c3d54ec59162606531493a51404a002842f56009d7e5cf4a8c8820155928401517fdf6966c971051c3d54ec59162606531493a51404a002842f56009d7e5cf4a8c984015560608401517fdf6966c971051c3d54ec59162606531493a51404a002842f56009d7e5cf4a8ca840180546001600160a01b039283166001600160a01b03199182161790915560808601517fdf6966c971051c3d54ec59162606531493a51404a002842f56009d7e5cf4a8cb8601805491909316911617905560a084015180518594610b79937fdf6966c971051c3d54ec59162606531493a51404a002842f56009d7e5cf4a8cc909101920190613c4a565b6000828152601260205260408120546011805483929081106139fb576139fb61438a565b9060005260206000209060020201905060008160010180549050118015612f9c575060008481526010602090815260408083208684529091529020546001820180548592908110613a4e57613a4e61438a565b906000526020600020015414949350505050565b600082815260126020526040812054601180549091908110613a8657613a8661438a565b6000918252602080832060016002909302018201805496845260108252604080852087865283528420879055918601825590825290209092015550565b600082815260126020526040812054601180549091908110613ae757613ae761438a565b600091825260208220600160029092020181810154909350613b0991906146ab565b90506000826001018281548110613b2257613b2261438a565b6000918252602080832090910154878352601082526040808420888552909252912054600185018054929350909183919083908110613b6357613b6361438a565b600091825260208083209190910192909255878152601082526040808220858352909252818120839055868152908120556001840180548061315257613152614881565b60118054825160009081526012602090815260408220839055600183018455929052825160029091027f31ecc21a745e3968a04e9570e4425bc18fa8019c68028196b546d1669c200c6881019182558284015180518594610b79937f31ecc21a745e3968a04e9570e4425bc18fa8019c68028196b546d1669c200c6901920190613caf565b5080546000825590600052602060002090810190610e419190613cea565b828054828255906000526020600020908101928215613c9f579160200282015b82811115613c9f57825182546001600160a01b0319166001600160a01b03909116178255602090920191600190910190613c6a565b50613cab929150613cea565b5090565b828054828255906000526020600020908101928215613c9f579160200282015b82811115613c9f578251825591602001919060010190613ccf565b5b80821115613cab5760008155600101613ceb565b60008060408385031215613d1257600080fd5b50508035926020909101359150565b6001600160e01b031981168114610e4157600080fd5b600060208284031215613d4957600080fd5b8135610c6a81613d21565b60005b83811015613d6f578181015183820152602001613d57565b50506000910152565b60008151808452613d90816020860160208601613d54565b601f01601f19169290920160200192915050565b602081526000610c6a6020830184613d78565b600060208284031215613dc957600080fd5b5035919050565b80356001600160a01b038116811461106b57600080fd5b60008060408385031215613dfa57600080fd5b613e0383613dd0565b946020939093013593505050565b600080600060608486031215613e2657600080fd5b83359250613e3660208501613dd0565b9150604084013590509250925092565b600080600060608486031215613e5b57600080fd5b613e6484613dd0565b9250613e3660208501613dd0565b600080600060608486031215613e8757600080fd5b505081359360208301359350604090920135919050565b8015158114610e4157600080fd5b60008060008060808587031215613ec257600080fd5b613ecb85613dd0565b935060208501359250613ee060408601613dd0565b91506060850135613ef081613e9e565b939692955090935050565b600060208284031215613f0d57600080fd5b610c6a82613dd0565b60008060408385031215613f2957600080fd5b613f3283613dd0565b91506020830135613f4281613e9e565b809150509250929050565b60008060008060808587031215613f6357600080fd5b613f6c85613dd0565b966020860135965060408601359560600135945092505050565b60008083601f840112613f9857600080fd5b50813567ffffffffffffffff811115613fb057600080fd5b602083019150836020828501011115613fc857600080fd5b9250929050565b600080600080600060608688031215613fe757600080fd5b85359450602086013567ffffffffffffffff8082111561400657600080fd5b61401289838a01613f86565b9096509450604088013591508082111561402b57600080fd5b5061403888828901613f86565b969995985093965092949392505050565b634e487b7160e01b600052604160045260246000fd5b604051601f8201601f1916810167ffffffffffffffff8111828210171561408857614088614049565b604052919050565b600067ffffffffffffffff8211156140aa576140aa614049565b50601f01601f191660200190565b600082601f8301126140c957600080fd5b81356140dc6140d782614090565b61405f565b8181528460208386010111156140f157600080fd5b816020850160208301376000918101602001919091529392505050565b6000806000806080858703121561412457600080fd5b61412d85613dd0565b935061413b60208601613dd0565b925060408501359150606085013567ffffffffffffffff81111561415e57600080fd5b61416a878288016140b8565b91505092959194509250565b60008060006060848603121561418b57600080fd5b833567ffffffffffffffff808211156141a357600080fd5b6141af878388016140b8565b945060208601359150808211156141c557600080fd5b6141d1878388016140b8565b935060408601359150808211156141e757600080fd5b506141f4868287016140b8565b9150509250925092565b600082601f83011261420f57600080fd5b8135602067ffffffffffffffff8083111561422c5761422c614049565b8260051b61423b83820161405f565b938452858101830193838101908886111561425557600080fd5b84880192505b85831015614291578235848111156142735760008081fd5b6142818a87838c01016140b8565b835250918401919084019061425b565b98975050505050505050565b6000806000606084860312156142b257600080fd5b833567ffffffffffffffff808211156142ca57600080fd5b6142d6878388016141fe565b945060208601359150808211156142ec57600080fd5b6141d1878388016141fe565b6000806040838503121561430b57600080fd5b8235915061431b60208401613dd0565b90509250929050565b60008060006060848603121561433957600080fd5b61434284613dd0565b92506020840135915061435760408501613dd0565b90509250925092565b6000806040838503121561437357600080fd5b61437c83613dd0565b915061431b60208401613dd0565b634e487b7160e01b600052603260045260246000fd5b600181811c908216806143b457607f821691505b6020821081036143d457634e487b7160e01b600052602260045260246000fd5b50919050565b60208082526024908201527f43544d5257413030313a20617070726f76616c20746f2063757272656e74206f6040820152633bb732b960e11b606082015260800190565b60008351614430818460208801613d54565b64736c6f742f60d81b9083019081528351614452816005840160208801613d54565b01600501949350505050565b60006020828403121561447057600080fd5b815167ffffffffffffffff81111561448757600080fd5b8201601f8101841361449857600080fd5b80516144a66140d782614090565b8181528560208385010111156144bb57600080fd5b61212e826020830160208601613d54565b60208082526034908201527f43544d5257413030313a207472616e736665722063616c6c6572206973206e6f6040820152731d081bdddb995c881b9bdc88185c1c1c9bdd995960621b606082015260800190565b60208082526031908201527f43544d5257413030313a2063616c6c6572206973206e6f7420746f6b656e206f6040820152701ddb995c881b9bdc88185c1c1c9bdd9959607a1b606082015260800190565b6020808252600d908201526c23b7bb102327a92124a22222a760991b604082015260600190565b634e487b7160e01b600052601160045260246000fd5b8082018082111561097457610974614598565b6000602082840312156145d357600080fd5b8151610c6a81613e9e565b600080858511156145ee57600080fd5b838611156145fb57600080fd5b5050820193919092039150565b6001600160e01b031981358181169160048510156146305780818660040360031b1b83161692505b505092915050565b6000835161464a818460208801613d54565b83519083019061465e818360208801613d54565b01949350505050565b60008351614679818460208801613d54565b68636f6e74726163742f60b81b908301908152835161469f816009840160208801613d54565b01600901949350505050565b8181038181111561097457610974614598565b81835281816020850137506000828201602090810191909152601f909101601f19169091010190565b63ffffffff60e01b8616815260606020820152600061470a6060830186886146be565b82810360408401526142918185876146be565b84815260a06020820152600061473660a0830186613d78565b82810360408401526147488186613d78565b9050828103606084015261475c8185613d78565b838103608090940193909352505060008152602001949350505050565b600081518084526020808501808196508360051b8101915082860160005b858110156147c15782840389526147af848351613d78565b98850198935090840190600101614797565b5091979650505050505050565b8481526080602082015260006147e76080830186614779565b82810360408401526147f98186614779565b9050828103606084015261480d8185613d78565b979650505050505050565b60006001820161482a5761482a614598565b5060010190565b60018060a01b038616815284602082015283604082015282606082015260a06080820152600061480d60a0830184613d78565b60006020828403121561487657600080fd5b8151610c6a81613d21565b634e487b7160e01b600052603160045260246000fd5b6001600160a01b038581168252841660208201526040810183905260806060820181905260009061154790830184613d78565b808202811582820484141761097457610974614598565b6000816148f0576148f0614598565b50600019019056fe0b2aac84f3ec956911fd78eae5311062972ff949f38412e8da39069d9f068cc6a264697066735822122063e2b2e4dc717463125197c391da50ceb9a22396f975632c61d778a886704c9864736f6c63430008140033",
  "linkReferences": {},
  "deployedLinkReferences": {}
}