{
  "_format": "hh-sol-artifact-1",
  "contractName": "C3GovClient",
  "sourceName": "contracts/c3Caller/C3GovClient.sol",
  "abi": [
    {
      "anonymous": false,
      "inputs": [
        {
          "indexed": true,
          "internalType": "address",
          "name": "oldGov",
          "type": "address"
        },
        {
          "indexed": true,
          "internalType": "address",
          "name": "newGov",
          "type": "address"
        },
        {
          "indexed": false,
          "internalType": "uint256",
          "name": "timestamp",
          "type": "uint256"
        }
      ],
      "name": "ApplyGov",
      "type": "event"
    },
    {
      "anonymous": false,
      "inputs": [
        {
          "indexed": true,
          "internalType": "address",
          "name": "oldGov",
          "type": "address"
        },
        {
          "indexed": true,
          "internalType": "address",
          "name": "newGov",
          "type": "address"
        },
        {
          "indexed": false,
          "internalType": "uint256",
          "name": "timestamp",
          "type": "uint256"
        }
      ],
      "name": "ChangeGov",
      "type": "event"
    },
    {
      "anonymous": false,
      "inputs": [
        {
          "indexed": false,
          "internalType": "uint8",
          "name": "version",
          "type": "uint8"
        }
      ],
      "name": "Initialized",
      "type": "event"
    },
    {
      "inputs": [
        {
          "internalType": "address",
          "name": "_op",
          "type": "address"
        }
      ],
      "name": "addOperator",
      "outputs": [],
      "stateMutability": "nonpayable",
      "type": "function"
    },
    {
      "inputs": [],
      "name": "applyGov",
      "outputs": [],
      "stateMutability": "nonpayable",
      "type": "function"
    },
    {
      "inputs": [
        {
          "internalType": "address",
          "name": "_gov",
          "type": "address"
        }
      ],
      "name": "changeGov",
      "outputs": [],
      "stateMutability": "nonpayable",
      "type": "function"
    },
    {
      "inputs": [],
      "name": "getAllOperators",
      "outputs": [
        {
          "internalType": "address[]",
          "name": "",
          "type": "address[]"
        }
      ],
      "stateMutability": "view",
      "type": "function"
    },
    {
      "inputs": [],
      "name": "gov",
      "outputs": [
        {
          "internalType": "address",
          "name": "",
          "type": "address"
        }
      ],
      "stateMutability": "view",
      "type": "function"
    },
    {
      "inputs": [
        {
          "internalType": "address",
          "name": "",
          "type": "address"
        }
      ],
      "name": "isOperator",
      "outputs": [
        {
          "internalType": "bool",
          "name": "",
          "type": "bool"
        }
      ],
      "stateMutability": "view",
      "type": "function"
    },
    {
      "inputs": [
        {
          "internalType": "uint256",
          "name": "",
          "type": "uint256"
        }
      ],
      "name": "operators",
      "outputs": [
        {
          "internalType": "address",
          "name": "",
          "type": "address"
        }
      ],
      "stateMutability": "view",
      "type": "function"
    },
    {
      "inputs": [],
      "name": "pendingGov",
      "outputs": [
        {
          "internalType": "address",
          "name": "",
          "type": "address"
        }
      ],
      "stateMutability": "view",
      "type": "function"
    },
    {
      "inputs": [
        {
          "internalType": "address",
          "name": "_op",
          "type": "address"
        }
      ],
      "name": "revokeOperator",
      "outputs": [],
      "stateMutability": "nonpayable",
      "type": "function"
    }
  ],
  "bytecode": "0x608060405234801561001057600080fd5b5061080d806100206000396000f3fe608060405234801561001057600080fd5b50600436106100935760003560e01c80639870d7fe116100665780639870d7fe1461011e578063a962ef1e14610131578063d911c63214610144578063e28d490614610159578063fad8b32a1461016c57600080fd5b806312d43a511461009857806325240810146100ce578063459c7695146100e15780636d70f7ae146100eb575b600080fd5b6000546100b1906201000090046001600160a01b031681565b6040516001600160a01b0390911681526020015b60405180910390f35b6001546100b1906001600160a01b031681565b6100e961017f565b005b61010e6100f93660046106a4565b60026020526000908152604090205460ff1681565b60405190151581526020016100c5565b6100e961012c3660046106a4565b610255565b6100e961013f3660046106a4565b610291565b61014c610324565b6040516100c591906106d4565b6100b1610167366004610721565b610386565b6100e961017a3660046106a4565b6103b0565b6001546001600160a01b03166101dc5760405162461bcd60e51b815260206004820152601760248201527f4333476f763a20656d7074792070656e64696e67476f7600000000000000000060448201526064015b60405180910390fd5b600180546000805462010000600160b01b0319166001600160a01b0380841662010000908102929092178084556001600160a01b031990941690945560405142815291939204909116907fff88f8815b3f9faf85529ba09d2f7ff0d9c726c11cc863fd24515698601425909060200160405180910390a3565b6000546201000090046001600160a01b031633146102855760405162461bcd60e51b81526004016101d39061073a565b61028e81610575565b50565b6000546201000090046001600160a01b031633146102c15760405162461bcd60e51b81526004016101d39061073a565b600180546001600160a01b0319166001600160a01b0383811691821790925560005460405142815291926201000090910416907fd098c548c6851f1e61d4e1364996748b40477bb1abe90254bd71352396b2b7be9060200160405180910390a350565b6060600380548060200260200160405190810160405280929190818152602001828054801561037c57602002820191906000526020600020905b81546001600160a01b0316815260019091019060200180831161035e575b5050505050905090565b6003818154811061039657600080fd5b6000918252602090912001546001600160a01b0316905081565b6000546201000090046001600160a01b031633146103e05760405162461bcd60e51b81526004016101d39061073a565b6001600160a01b03811660009081526002602052604090205460ff166104485760405162461bcd60e51b815260206004820152601c60248201527f433343616c6c65723a204f70657261746f72206e6f7420666f756e640000000060448201526064016101d3565b6001600160a01b0381166000908152600260205260408120805460ff19169055600354905b8181101561057057826001600160a01b03166003828154811061049257610492610763565b6000918252602090912001546001600160a01b03160361055e5760036104b960018461078f565b815481106104c9576104c9610763565b600091825260209091200154600380546001600160a01b0390921691839081106104f5576104f5610763565b9060005260206000200160006101000a8154816001600160a01b0302191690836001600160a01b031602179055506003805480610534576105346107a8565b600082815260209020810160001990810180546001600160a01b03191690550190555061028e9050565b80610568816107be565b91505061046d565b505050565b6001600160a01b0381166105cb5760405162461bcd60e51b815260206004820181905260248201527f433343616c6c65723a204f70657261746f72206973206164647265737328302960448201526064016101d3565b6001600160a01b03811660009081526002602052604090205460ff161561063e5760405162461bcd60e51b815260206004820152602160248201527f433343616c6c65723a204f70657261746f7220616c72656164792065786973746044820152607360f81b60648201526084016101d3565b6001600160a01b03166000818152600260205260408120805460ff191660019081179091556003805491820181559091527fc2575a0e9e593c00f959f8c92f12db2869c3395a3b0502d05e2516446f71f85b0180546001600160a01b0319169091179055565b6000602082840312156106b657600080fd5b81356001600160a01b03811681146106cd57600080fd5b9392505050565b6020808252825182820181905260009190848201906040850190845b818110156107155783516001600160a01b0316835292840192918401916001016106f0565b50909695505050505050565b60006020828403121561073357600080fd5b5035919050565b6020808252600f908201526e2199a3b7bb1d1037b7363c9023b7bb60891b604082015260600190565b634e487b7160e01b600052603260045260246000fd5b634e487b7160e01b600052601160045260246000fd5b818103818111156107a2576107a2610779565b92915050565b634e487b7160e01b600052603160045260246000fd5b6000600182016107d0576107d0610779565b506001019056fea26469706673582212204f6ea4e21ba2e8013dffa8635beab912abf116ef919ed8b2895016a73a9d737c64736f6c63430008140033",
  "linkReferences": {},
  "deployedLinkReferences": {}
}