{
  "_format": "hh-sol-artifact-1",
  "contractName": "CTMRWA001SlotEnumerable",
  "sourceName": "contracts/CTMRWA001SlotEnumerable.sol",
  "abi": [
    {
      "inputs": [
        {
          "internalType": "string",
          "name": "name_",
          "type": "string"
        },
        {
          "internalType": "string",
          "name": "symbol_",
          "type": "string"
        },
        {
          "internalType": "uint8",
          "name": "decimals_",
          "type": "uint8"
        },
        {
          "internalType": "address",
          "name": "_ctmRwa001XChain",
          "type": "address"
        }
      ],
      "stateMutability": "nonpayable",
      "type": "constructor"
    },
    {
      "anonymous": false,
      "inputs": [
        {
          "indexed": true,
          "internalType": "address",
          "name": "_owner",
          "type": "address"
        },
        {
          "indexed": true,
          "internalType": "address",
          "name": "_approved",
          "type": "address"
        },
        {
          "indexed": true,
          "internalType": "uint256",
          "name": "_tokenId",
          "type": "uint256"
        }
      ],
      "name": "Approval",
      "type": "event"
    },
    {
      "anonymous": false,
      "inputs": [
        {
          "indexed": true,
          "internalType": "address",
          "name": "_owner",
          "type": "address"
        },
        {
          "indexed": true,
          "internalType": "address",
          "name": "_operator",
          "type": "address"
        },
        {
          "indexed": false,
          "internalType": "bool",
          "name": "_approved",
          "type": "bool"
        }
      ],
      "name": "ApprovalForAll",
      "type": "event"
    },
    {
      "anonymous": false,
      "inputs": [
        {
          "indexed": true,
          "internalType": "uint256",
          "name": "_tokenId",
          "type": "uint256"
        },
        {
          "indexed": true,
          "internalType": "address",
          "name": "_operator",
          "type": "address"
        },
        {
          "indexed": false,
          "internalType": "uint256",
          "name": "_value",
          "type": "uint256"
        }
      ],
      "name": "ApprovalValue",
      "type": "event"
    },
    {
      "anonymous": false,
      "inputs": [
        {
          "indexed": true,
          "internalType": "address",
          "name": "metadataDescriptor",
          "type": "address"
        }
      ],
      "name": "SetMetadataDescriptor",
      "type": "event"
    },
    {
      "anonymous": false,
      "inputs": [
        {
          "indexed": true,
          "internalType": "uint256",
          "name": "_tokenId",
          "type": "uint256"
        },
        {
          "indexed": true,
          "internalType": "uint256",
          "name": "_oldSlot",
          "type": "uint256"
        },
        {
          "indexed": true,
          "internalType": "uint256",
          "name": "_newSlot",
          "type": "uint256"
        }
      ],
      "name": "SlotChanged",
      "type": "event"
    },
    {
      "anonymous": false,
      "inputs": [
        {
          "indexed": true,
          "internalType": "address",
          "name": "_from",
          "type": "address"
        },
        {
          "indexed": true,
          "internalType": "address",
          "name": "_to",
          "type": "address"
        },
        {
          "indexed": true,
          "internalType": "uint256",
          "name": "_tokenId",
          "type": "uint256"
        }
      ],
      "name": "Transfer",
      "type": "event"
    },
    {
      "anonymous": false,
      "inputs": [
        {
          "indexed": true,
          "internalType": "uint256",
          "name": "_fromTokenId",
          "type": "uint256"
        },
        {
          "indexed": true,
          "internalType": "uint256",
          "name": "_toTokenId",
          "type": "uint256"
        },
        {
          "indexed": false,
          "internalType": "uint256",
          "name": "_value",
          "type": "uint256"
        }
      ],
      "name": "TransferValue",
      "type": "event"
    },
    {
      "inputs": [
        {
          "internalType": "address",
          "name": "_admin",
          "type": "address"
        },
        {
          "internalType": "string[]",
          "name": "_chainIdsStr",
          "type": "string[]"
        },
        {
          "internalType": "string[]",
          "name": "_contractAddrsStr",
          "type": "string[]"
        }
      ],
      "name": "addXTokenInfo",
      "outputs": [
        {
          "internalType": "bool",
          "name": "",
          "type": "bool"
        }
      ],
      "stateMutability": "nonpayable",
      "type": "function"
    },
    {
      "inputs": [],
      "name": "admin",
      "outputs": [
        {
          "internalType": "address",
          "name": "",
          "type": "address"
        }
      ],
      "stateMutability": "view",
      "type": "function"
    },
    {
      "inputs": [
        {
          "internalType": "uint256",
          "name": "tokenId_",
          "type": "uint256"
        },
        {
          "internalType": "address",
          "name": "operator_",
          "type": "address"
        }
      ],
      "name": "allowance",
      "outputs": [
        {
          "internalType": "uint256",
          "name": "",
          "type": "uint256"
        }
      ],
      "stateMutability": "view",
      "type": "function"
    },
    {
      "inputs": [
        {
          "internalType": "address",
          "name": "to_",
          "type": "address"
        },
        {
          "internalType": "uint256",
          "name": "tokenId_",
          "type": "uint256"
        }
      ],
      "name": "approve",
      "outputs": [],
      "stateMutability": "payable",
      "type": "function"
    },
    {
      "inputs": [
        {
          "internalType": "uint256",
          "name": "tokenId_",
          "type": "uint256"
        },
        {
          "internalType": "address",
          "name": "to_",
          "type": "address"
        },
        {
          "internalType": "uint256",
          "name": "value_",
          "type": "uint256"
        }
      ],
      "name": "approve",
      "outputs": [],
      "stateMutability": "payable",
      "type": "function"
    },
    {
      "inputs": [
        {
          "internalType": "address",
          "name": "to_",
          "type": "address"
        },
        {
          "internalType": "uint256",
          "name": "tokenId_",
          "type": "uint256"
        }
      ],
      "name": "approveFromX",
      "outputs": [],
      "stateMutability": "nonpayable",
      "type": "function"
    },
    {
      "inputs": [
        {
          "internalType": "address",
          "name": "owner_",
          "type": "address"
        }
      ],
      "name": "balanceOf",
      "outputs": [
        {
          "internalType": "uint256",
          "name": "balance",
          "type": "uint256"
        }
      ],
      "stateMutability": "view",
      "type": "function"
    },
    {
      "inputs": [
        {
          "internalType": "uint256",
          "name": "tokenId_",
          "type": "uint256"
        }
      ],
      "name": "balanceOf",
      "outputs": [
        {
          "internalType": "uint256",
          "name": "",
          "type": "uint256"
        }
      ],
      "stateMutability": "view",
      "type": "function"
    },
    {
      "inputs": [
        {
          "internalType": "uint256",
          "name": "fromTokenId_",
          "type": "uint256"
        },
        {
          "internalType": "uint256",
          "name": "value_",
          "type": "uint256"
        }
      ],
      "name": "burnValueX",
      "outputs": [
        {
          "internalType": "bool",
          "name": "",
          "type": "bool"
        }
      ],
      "stateMutability": "nonpayable",
      "type": "function"
    },
    {
      "inputs": [
        {
          "internalType": "address",
          "name": "_admin",
          "type": "address"
        }
      ],
      "name": "changeAdmin",
      "outputs": [
        {
          "internalType": "bool",
          "name": "",
          "type": "bool"
        }
      ],
      "stateMutability": "nonpayable",
      "type": "function"
    },
    {
      "inputs": [
        {
          "internalType": "address",
          "name": "_admin",
          "type": "address"
        }
      ],
      "name": "changeAdminX",
      "outputs": [
        {
          "internalType": "bool",
          "name": "",
          "type": "bool"
        }
      ],
      "stateMutability": "nonpayable",
      "type": "function"
    },
    {
      "inputs": [
        {
          "internalType": "string",
          "name": "_otherChainIdStr",
          "type": "string"
        },
        {
          "internalType": "string",
          "name": "_otherContractStr",
          "type": "string"
        }
      ],
      "name": "checkTokenCompatibility",
      "outputs": [
        {
          "internalType": "bool",
          "name": "",
          "type": "bool"
        }
      ],
      "stateMutability": "view",
      "type": "function"
    },
    {
      "inputs": [
        {
          "internalType": "uint256",
          "name": "tokenId_",
          "type": "uint256"
        }
      ],
      "name": "clearApprovedValues",
      "outputs": [],
      "stateMutability": "nonpayable",
      "type": "function"
    },
    {
      "inputs": [],
      "name": "contractURI",
      "outputs": [
        {
          "internalType": "string",
          "name": "",
          "type": "string"
        }
      ],
      "stateMutability": "view",
      "type": "function"
    },
    {
      "inputs": [],
      "name": "ctmRwa001XChain",
      "outputs": [
        {
          "internalType": "address",
          "name": "",
          "type": "address"
        }
      ],
      "stateMutability": "view",
      "type": "function"
    },
    {
      "inputs": [
        {
          "internalType": "uint256",
          "name": "tokenId_",
          "type": "uint256"
        }
      ],
      "name": "getApproved",
      "outputs": [
        {
          "internalType": "address",
          "name": "",
          "type": "address"
        }
      ],
      "stateMutability": "view",
      "type": "function"
    },
    {
      "inputs": [
        {
          "internalType": "string",
          "name": "_chainIdStr",
          "type": "string"
        }
      ],
      "name": "getTokenContract",
      "outputs": [
        {
          "internalType": "string",
          "name": "",
          "type": "string"
        }
      ],
      "stateMutability": "view",
      "type": "function"
    },
    {
      "inputs": [
        {
          "internalType": "uint256",
          "name": "tokenId_",
          "type": "uint256"
        }
      ],
      "name": "getTokenInfo",
      "outputs": [
        {
          "internalType": "uint256",
          "name": "",
          "type": "uint256"
        },
        {
          "internalType": "uint256",
          "name": "",
          "type": "uint256"
        },
        {
          "internalType": "address",
          "name": "",
          "type": "address"
        },
        {
          "internalType": "uint256",
          "name": "",
          "type": "uint256"
        }
      ],
      "stateMutability": "view",
      "type": "function"
    },
    {
      "inputs": [
        {
          "internalType": "uint256",
          "name": "tokenId_",
          "type": "uint256"
        }
      ],
      "name": "idOf",
      "outputs": [
        {
          "internalType": "uint256",
          "name": "",
          "type": "uint256"
        }
      ],
      "stateMutability": "view",
      "type": "function"
    },
    {
      "inputs": [
        {
          "internalType": "address",
          "name": "owner_",
          "type": "address"
        },
        {
          "internalType": "address",
          "name": "operator_",
          "type": "address"
        }
      ],
      "name": "isApprovedForAll",
      "outputs": [
        {
          "internalType": "bool",
          "name": "",
          "type": "bool"
        }
      ],
      "stateMutability": "view",
      "type": "function"
    },
    {
      "inputs": [
        {
          "internalType": "address",
          "name": "operator_",
          "type": "address"
        },
        {
          "internalType": "uint256",
          "name": "tokenId_",
          "type": "uint256"
        }
      ],
      "name": "isApprovedOrOwner",
      "outputs": [
        {
          "internalType": "bool",
          "name": "",
          "type": "bool"
        }
      ],
      "stateMutability": "view",
      "type": "function"
    },
    {
      "inputs": [],
      "name": "metadataDescriptor",
      "outputs": [
        {
          "internalType": "contract ICTMRWA001MetadataDescriptor",
          "name": "",
          "type": "address"
        }
      ],
      "stateMutability": "view",
      "type": "function"
    },
    {
      "inputs": [
        {
          "internalType": "address",
          "name": "to_",
          "type": "address"
        },
        {
          "internalType": "uint256",
          "name": "tokenId_",
          "type": "uint256"
        },
        {
          "internalType": "uint256",
          "name": "slot_",
          "type": "uint256"
        },
        {
          "internalType": "uint256",
          "name": "value_",
          "type": "uint256"
        }
      ],
      "name": "mintFromX",
      "outputs": [],
      "stateMutability": "nonpayable",
      "type": "function"
    },
    {
      "inputs": [
        {
          "internalType": "address",
          "name": "to_",
          "type": "address"
        },
        {
          "internalType": "uint256",
          "name": "slot_",
          "type": "uint256"
        },
        {
          "internalType": "uint256",
          "name": "value_",
          "type": "uint256"
        }
      ],
      "name": "mintFromX",
      "outputs": [
        {
          "internalType": "uint256",
          "name": "tokenId",
          "type": "uint256"
        }
      ],
      "stateMutability": "nonpayable",
      "type": "function"
    },
    {
      "inputs": [
        {
          "internalType": "uint256",
          "name": "toTokenId_",
          "type": "uint256"
        },
        {
          "internalType": "uint256",
          "name": "slot_",
          "type": "uint256"
        },
        {
          "internalType": "uint256",
          "name": "value_",
          "type": "uint256"
        }
      ],
      "name": "mintValueX",
      "outputs": [
        {
          "internalType": "bool",
          "name": "",
          "type": "bool"
        }
      ],
      "stateMutability": "nonpayable",
      "type": "function"
    },
    {
      "inputs": [],
      "name": "name",
      "outputs": [
        {
          "internalType": "string",
          "name": "",
          "type": "string"
        }
      ],
      "stateMutability": "view",
      "type": "function"
    },
    {
      "inputs": [
        {
          "internalType": "uint256",
          "name": "tokenId_",
          "type": "uint256"
        }
      ],
      "name": "ownerOf",
      "outputs": [
        {
          "internalType": "address",
          "name": "owner_",
          "type": "address"
        }
      ],
      "stateMutability": "view",
      "type": "function"
    },
    {
      "inputs": [
        {
          "internalType": "address",
          "name": "from_",
          "type": "address"
        },
        {
          "internalType": "uint256",
          "name": "tokenId_",
          "type": "uint256"
        }
      ],
      "name": "removeTokenFromOwnerEnumeration",
      "outputs": [],
      "stateMutability": "nonpayable",
      "type": "function"
    },
    {
      "inputs": [
        {
          "internalType": "address",
          "name": "from_",
          "type": "address"
        },
        {
          "internalType": "address",
          "name": "to_",
          "type": "address"
        },
        {
          "internalType": "uint256",
          "name": "tokenId_",
          "type": "uint256"
        }
      ],
      "name": "safeTransferFrom",
      "outputs": [],
      "stateMutability": "payable",
      "type": "function"
    },
    {
      "inputs": [
        {
          "internalType": "address",
          "name": "from_",
          "type": "address"
        },
        {
          "internalType": "address",
          "name": "to_",
          "type": "address"
        },
        {
          "internalType": "uint256",
          "name": "tokenId_",
          "type": "uint256"
        },
        {
          "internalType": "bytes",
          "name": "data_",
          "type": "bytes"
        }
      ],
      "name": "safeTransferFrom",
      "outputs": [],
      "stateMutability": "payable",
      "type": "function"
    },
    {
      "inputs": [
        {
          "internalType": "address",
          "name": "operator_",
          "type": "address"
        },
        {
          "internalType": "bool",
          "name": "approved_",
          "type": "bool"
        }
      ],
      "name": "setApprovalForAll",
      "outputs": [],
      "stateMutability": "nonpayable",
      "type": "function"
    },
    {
      "inputs": [
        {
          "internalType": "uint256",
          "name": "index_",
          "type": "uint256"
        }
      ],
      "name": "slotByIndex",
      "outputs": [
        {
          "internalType": "uint256",
          "name": "",
          "type": "uint256"
        }
      ],
      "stateMutability": "view",
      "type": "function"
    },
    {
      "inputs": [],
      "name": "slotCount",
      "outputs": [
        {
          "internalType": "uint256",
          "name": "",
          "type": "uint256"
        }
      ],
      "stateMutability": "view",
      "type": "function"
    },
    {
      "inputs": [
        {
          "internalType": "uint256",
          "name": "tokenId_",
          "type": "uint256"
        }
      ],
      "name": "slotOf",
      "outputs": [
        {
          "internalType": "uint256",
          "name": "",
          "type": "uint256"
        }
      ],
      "stateMutability": "view",
      "type": "function"
    },
    {
      "inputs": [
        {
          "internalType": "uint256",
          "name": "slot_",
          "type": "uint256"
        }
      ],
      "name": "slotURI",
      "outputs": [
        {
          "internalType": "string",
          "name": "",
          "type": "string"
        }
      ],
      "stateMutability": "view",
      "type": "function"
    },
    {
      "inputs": [
        {
          "internalType": "address",
          "name": "operator_",
          "type": "address"
        },
        {
          "internalType": "uint256",
          "name": "tokenId_",
          "type": "uint256"
        },
        {
          "internalType": "uint256",
          "name": "value_",
          "type": "uint256"
        }
      ],
      "name": "spendAllowance",
      "outputs": [],
      "stateMutability": "nonpayable",
      "type": "function"
    },
    {
      "inputs": [
        {
          "internalType": "string",
          "name": "a",
          "type": "string"
        },
        {
          "internalType": "string",
          "name": "b",
          "type": "string"
        }
      ],
      "name": "stringsEqual",
      "outputs": [
        {
          "internalType": "bool",
          "name": "",
          "type": "bool"
        }
      ],
      "stateMutability": "pure",
      "type": "function"
    },
    {
      "inputs": [
        {
          "internalType": "bytes4",
          "name": "interfaceId",
          "type": "bytes4"
        }
      ],
      "name": "supportsInterface",
      "outputs": [
        {
          "internalType": "bool",
          "name": "",
          "type": "bool"
        }
      ],
      "stateMutability": "view",
      "type": "function"
    },
    {
      "inputs": [],
      "name": "symbol",
      "outputs": [
        {
          "internalType": "string",
          "name": "",
          "type": "string"
        }
      ],
      "stateMutability": "view",
      "type": "function"
    },
    {
      "inputs": [
        {
          "internalType": "uint256",
          "name": "index_",
          "type": "uint256"
        }
      ],
      "name": "tokenByIndex",
      "outputs": [
        {
          "internalType": "uint256",
          "name": "",
          "type": "uint256"
        }
      ],
      "stateMutability": "view",
      "type": "function"
    },
    {
      "inputs": [
        {
          "internalType": "uint256",
          "name": "",
          "type": "uint256"
        }
      ],
      "name": "tokenContract",
      "outputs": [
        {
          "internalType": "string",
          "name": "chainIdStr",
          "type": "string"
        },
        {
          "internalType": "string",
          "name": "contractStr",
          "type": "string"
        }
      ],
      "stateMutability": "view",
      "type": "function"
    },
    {
      "inputs": [
        {
          "internalType": "uint256",
          "name": "slot_",
          "type": "uint256"
        },
        {
          "internalType": "uint256",
          "name": "index_",
          "type": "uint256"
        }
      ],
      "name": "tokenInSlotByIndex",
      "outputs": [
        {
          "internalType": "uint256",
          "name": "",
          "type": "uint256"
        }
      ],
      "stateMutability": "view",
      "type": "function"
    },
    {
      "inputs": [
        {
          "internalType": "address",
          "name": "owner_",
          "type": "address"
        },
        {
          "internalType": "uint256",
          "name": "index_",
          "type": "uint256"
        }
      ],
      "name": "tokenOfOwnerByIndex",
      "outputs": [
        {
          "internalType": "uint256",
          "name": "",
          "type": "uint256"
        }
      ],
      "stateMutability": "view",
      "type": "function"
    },
    {
      "inputs": [
        {
          "internalType": "uint256",
          "name": "slot_",
          "type": "uint256"
        }
      ],
      "name": "tokenSupplyInSlot",
      "outputs": [
        {
          "internalType": "uint256",
          "name": "",
          "type": "uint256"
        }
      ],
      "stateMutability": "view",
      "type": "function"
    },
    {
      "inputs": [
        {
          "internalType": "uint256",
          "name": "tokenId_",
          "type": "uint256"
        }
      ],
      "name": "tokenURI",
      "outputs": [
        {
          "internalType": "string",
          "name": "",
          "type": "string"
        }
      ],
      "stateMutability": "view",
      "type": "function"
    },
    {
      "inputs": [],
      "name": "totalSupply",
      "outputs": [
        {
          "internalType": "uint256",
          "name": "",
          "type": "uint256"
        }
      ],
      "stateMutability": "view",
      "type": "function"
    },
    {
      "inputs": [
        {
          "internalType": "uint256",
          "name": "fromTokenId_",
          "type": "uint256"
        },
        {
          "internalType": "address",
          "name": "to_",
          "type": "address"
        },
        {
          "internalType": "uint256",
          "name": "value_",
          "type": "uint256"
        }
      ],
      "name": "transferFrom",
      "outputs": [
        {
          "internalType": "uint256",
          "name": "newTokenId",
          "type": "uint256"
        }
      ],
      "stateMutability": "payable",
      "type": "function"
    },
    {
      "inputs": [
        {
          "internalType": "address",
          "name": "from_",
          "type": "address"
        },
        {
          "internalType": "address",
          "name": "to_",
          "type": "address"
        },
        {
          "internalType": "uint256",
          "name": "tokenId_",
          "type": "uint256"
        }
      ],
      "name": "transferFrom",
      "outputs": [],
      "stateMutability": "payable",
      "type": "function"
    },
    {
      "inputs": [
        {
          "internalType": "uint256",
          "name": "fromTokenId_",
          "type": "uint256"
        },
        {
          "internalType": "uint256",
          "name": "toTokenId_",
          "type": "uint256"
        },
        {
          "internalType": "uint256",
          "name": "value_",
          "type": "uint256"
        }
      ],
      "name": "transferFrom",
      "outputs": [],
      "stateMutability": "payable",
      "type": "function"
    },
    {
      "inputs": [],
      "name": "valueDecimals",
      "outputs": [
        {
          "internalType": "uint8",
          "name": "",
          "type": "uint8"
        }
      ],
      "stateMutability": "view",
      "type": "function"
    }
  ],
  "bytecode": "0x6080604081815234620007045762004d97803803809162000021828662000709565b8439820190608083830312620007045782516001600160401b03908181116200070457836200005291860162000784565b92602090818601519083821162000704576200007091870162000784565b94838101519260ff918285168095036200070457606001516001600160a01b0381169290839003620007045760018060a01b031993600093338686541617855560019586600655895197858911620006f05760039880620000d28b54620007d1565b601f9d818f80931162000691575b50879183116001146200062e578a9262000622575b5050600019828c1b1c191690891b1789555b8b518681116200060e5760049b620001208d54620007d1565b818111620005ca575b508c9d8c9d8a9d9c9d50879284116001146200053d57509b8291620002329d8b9362000531575b5050828b1b92600019911b1c1916178c555b60ff196005541617600555865416178555468086867a184f03e93ff9f4daa797ed6e38ed64bf6a1f0100000000000000008084101562000520575b50846d04ee2d6d415b85acef81000000008086101562000513575b5050662386f26fc100008085101562000505575b506305f5e10080851015620004f7575b508c61271080861015620004ea575b50506064841015620004db575b60219082600a80961015620004d3575b810162000223620002198262000743565b9c519c8d62000709565b808c52601f199c8d9162000743565b0136878d01378a0101905b620004a2575b505050308851936060850190858210908211176200048f578952602a8452818401893682378451156200047c5760309053835186101562000469576078602185015360295b868111620003fd5750620003bc57825196620002c0620002a88962000743565b98620002b78b519a8b62000709565b808a5262000743565b01368289013783855b620002eb575b88620002dc89896200087c565b5051614109908162000c8e8239f35b8351811015620003b6576200030181856200080e565b51604160f891821c1015806200039c575b156200037157826200032583876200080e565b51821c018481116200035e576200035792911b6001600160f81b031916861a62000350828b6200080e565b5362000836565b85620002c9565b634e487b7160e01b875260118c52602487fd5b5062000357906001600160f81b03196200038c82876200080e565b5116861a62000350828b6200080e565b50605a620003ab83876200080e565b51821c111562000312565b620002cf565b88816064928a519262461bcd60e51b845283015260248201527f537472696e67733a20686578206c656e67746820696e73756666696369656e746044820152fd5b90600f8116601081101562000456576f181899199a1a9b1b9c1cb0b131b232b360811b901a6200042e83876200080e565b538a1c90801562000443576000190162000288565b634e487b7160e01b865260118b52602486fd5b634e487b7160e01b875260328c52602487fd5b634e487b7160e01b855260328a52602485fd5b634e487b7160e01b865260328b52602486fd5b634e487b7160e01b865260418b52602486fd5b600019019082906f181899199a1a9b1b9c1cb0b131b232b360811b8282061a8353049087826200023d575062000243565b018262000208565b606490930492600201620001f8565b90940493018c38620001eb565b6008919404930138620001dc565b6010919404930138620001cc565b90940493018438620001b8565b92935050508104908688386200019d565b01519150388062000150565b8a52868a20929c9190601f198e168b5b818110620005935750918e9391620002329f8e96941062000578575b50505050811b018c5562000162565b01519060f884600019921b161c191690553880808062000569565b93948d9f97999b9d8497999b9d9f508c92939491839286015181550196019301908f9d9b999795949392919e9c9a98969e6200054d565b8d8a52868a208280850160051c82019289861062000604575b0160051c01905b818110620005f9575062000129565b8a81558b01620005ea565b92508192620005e3565b634e487b7160e01b88526041600452602488fd5b015190503880620000f5565b8c8b52878b208c94509190601f1984168c5b8a8282106200067a575050841162000661575b505050811b01895562000107565b0151600019838e1b60f8161c1916905538808062000653565b8385015186558f9790950194938401930162000640565b915091508b8a528d878b209080850160051c820192898610620006e6575b859492828f929593950160051c01915b828110620006cf575050620000e0565b8d91939550809294505501918e918c8594620006bf565b92508192620006af565b634e487b7160e01b87526041600452602487fd5b600080fd5b601f909101601f19168101906001600160401b038211908210176200072d57604052565b634e487b7160e01b600052604160045260246000fd5b6001600160401b0381116200072d57601f01601f191660200190565b60005b838110620007735750506000910152565b818101518382015260200162000762565b81601f82011215620007045780516200079d8162000743565b92620007ad604051948562000709565b818452602082840101116200070457620007ce91602080850191016200075f565b90565b90600182811c9216801562000803575b6020831014620007ed57565b634e487b7160e01b600052602260045260246000fd5b91607f1691620007e1565b90815181101562000820570160200190565b634e487b7160e01b600052603260045260246000fd5b6000198114620008465760010190565b634e487b7160e01b600052601160045260246000fd5b6002548110156200082057600260005260206000209060011b0190600090565b60025490929160005b82811062000b31575060408051946001600160401b03918601828111878210176200072d576040528552602094858101928352680100000000000000008410156200072d57620008dd6001948581016002556200085c565b91909162000b1b5751908151908382116200072d578591620009008254620007d1565b93601f9485811162000ac6575b50899085831160011462000a5b57600091908362000a4f575b5050600019600383901b1c191690831b1781555b0192519586519283116200072d57620009548454620007d1565b82811162000a04575b50809183116001146200099b575081929394956000926200098f575b5050600019600383901b1c191690831b17905590565b01519050388062000979565b90601f198316968460005282600020926000905b898210620009ec5750508386979896959610620009d2575b505050811b01905590565b015160001960f88460031b161c19169055388080620009c7565b808885968294968601518155019501930190620009af565b84600052816000208380860160051c82019284871062000a45575b0160051c019086905b82811062000a385750506200095d565b6000815501869062000a28565b9250819262000a1f565b01519050388062000926565b90601f19831691846000528b6000209260005b8d82821062000aaf575050908487959493921062000a95575b505050811b0181556200093a565b015160001960f88460031b161c1916905538808062000a87565b8385015186558c9890950194938401930162000a6e565b909192809450600052896000208580850160051c8201928c861062000b11575b908a9695949392910160051c01905b81811062000b0457506200090d565b6000815589950162000af5565b9250819262000ae6565b634e487b7160e01b600052600060045260246000fd5b62000b3c816200085c565b50604090815190816000825462000b5381620007d1565b8084529360019180831690811562000c3a575060011462000bf5575b505062000b7f9250038262000709565b81519062000bd26020918362000b99848201928362000c5f565b039362000baf601f199586810183528262000709565b5190209351918201928262000bc58b8662000c5f565b0390810183528262000709565b5190201462000bec5762000be69062000836565b62000885565b50600093505050565b90915060005260209283600020916000925b82841062000c23575050509162000b7f92820101388062000b6f565b805487850187015286945092850192810162000c07565b935050505062000b7f9260209160ff191682840152151560051b820101388062000b6f565b6040916020825262000c8181518092816020860152602086860191016200075f565b601f01601f191601019056fe6080604052600436101561001257600080fd5b6000803560e01c8062cd011014611bb057806301ffc9a714611adf57806306fdde0314611a395780630752175414611a07578063081812fc146119e8578063095ea7b31461190657806309c3dd87146118765780630f485c021461134b57806313d199501461133157806315c77d841461126b57806318160ddd1461124d57806323b872dd14611228578063263f3e7e146112095780632f745c591461115f578063310ed7f0146110ec578063381c4fce146110b05780633e7e86691461108f578063404b6e9f1461105457806342842e0e14611031578063430c208114610ff4578063449d077214610f4457806349178b2514610ed25780634f6ccce714610e555780634f8a0f8314610e36578063582939e514610df35780636352211e14610dc257806370a0823114610d9e57806378330ea014610d45578063840f711314610d1c5780638c7a63ae14610c745780638cb0a51114610bd05780638f28397014610b2757806395d89b4114610a56578063968e8a1314610a1b578063993bef8d146109925780639c0e9a5d146109785780639cc7f70814610959578063a22cb46514610886578063a30fb0201461081f578063a6a2d1dd1461079c578063b3875b9514610773578063b88d4fde14610711578063bff2ed71146106ce578063c87b56dd146105ae578063dee9f53f14610569578063e345e0bc1461053a578063e8a3d485146102dc578063e985e9c514610289578063ed08fa801461026b5763f851a4401461024257600080fd5b34610268578060031936011261026857546040516001600160a01b039091168152602090f35b80fd5b50346102685780600319360112610268576020600d54604051908152f35b50346102685760403660031901126102685760ff60406020926102aa611cc1565b6102b2611cd7565b6001600160a01b039182168352600a86528383209116825260020184522054604051911615158152f35b50346102685780600319360112610268576040516102f981611d60565b818152600b5482906001600160a01b0316801561038357604051631c97e82760e21b81529250829060049082905afa90811561037857826103519392610355575b50505b604051918291602083526020830190611c9c565b0390f35b61037192503d8091833e6103698183611d7b565b810190612882565b388061033a565b6040513d84823e3d90fd5b50508115610520573091604051606081018181106001600160401b0382111761050a57604052602a81526020938482019260403685378251156104f657603084538251906001918210156104f65790607860218501536029915b818311610488575050506104455768636f6e74726163742f60b81b926104409261035195610431602994604051978561041f8a9751809287808b019101611c79565b86019384015251809386840190611c79565b01036009810184520182611d7b565b61033d565b6064846040519062461bcd60e51b825280600483015260248201527f537472696e67733a20686578206c656e67746820696e73756666696369656e746044820152fd5b909192600f811660108110156104e2576f181899199a1a9b1b9c1cb0b131b232b360811b901a6104b885876128ed565b5360041c9280156104ce576000190191906103dd565b634e487b7160e01b82526011600452602482fd5b634e487b7160e01b83526032600452602483fd5b634e487b7160e01b81526032600452602490fd5b634e487b7160e01b600052604160045260246000fd5b505061035160405161053181611d60565b6000815261033d565b5034610268576040366003190112610268576020610561610559611cd7565b600435612956565b604051908152f35b5034610268576020366003190112610268576105a4604060209260043561059761059282612bb6565b6127d6565b8152600984522054612771565b5054604051908152f35b50346102685760209081600319360112610268576004356105d161059282612bb6565b604051906105de82611d60565b828252600b546001600160a01b03169184831561066057505082906024604051809481936344a5a61760e11b835260048301525afa918215610654578092610639575b5050905b610351604051928284938452830190611c9c565b61064d92503d8091833e6103698183611d7b565b3880610621565b604051903d90823e3d90fd5b919250926000146106b6576106776106b092612289565b9260405193816106908693518092868087019101611c79565b82016106a482518093868085019101611c79565b01038084520182611d7b565b90610625565b5050506040516106c581611d60565b600081526106b0565b50346102685760206105616106e236611e9e565b906106fb60018060a09695961b036001541633146120b5565b60065480946107098261211a565b600655612be4565b50608036600319011261026857610726611cc1565b61072e611cd7565b606435916001600160401b03831161076f573660238401121561076f5761076261076c933690602481600401359101611db7565b9160443591612a6b565b80f35b8380fd5b50346102685780600319360112610268576001546040516001600160a01b039091168152602090f35b5034610268576060366003190112610268576107b6611cc1565b906001600160401b0360243581811161081b576107d7903690600401612032565b9160443591821161026857602061081185856107f63660048801612032565b9161080c60018060a01b036001541633146120b5565b612153565b6040519015158152f35b8280fd5b503461026857602036600319011261026857600435906002548210156102685761087861084b83611f18565b50610351610864600161085d84611f8c565b9301611f8c565b604051938493604085526040850190611c9c565b908382036020850152611c9c565b5034610268576040366003190112610268576108a0611cc1565b6024359081151580920361081b576001600160a01b03169033821461091457338352600a602052600260408420018284526020526040832060ff1981541660ff83161790556040519081527f17307eab39ab6107e8899845ad3d59bd9653f200f220920489ca2b5937696c3160203392a380f35b60405162461bcd60e51b815260206004820152601c60248201527f43544d5257413030313a20617070726f766520746f2063616c6c6572000000006044820152606490fd5b50346102685760203660031901126102685760206105616004356127ac565b503461026857602061081161098c36611e0c565b906126fe565b503461026857602036600319011261026857600435600d548110156109bc576105a4602091611ec8565b60405162461bcd60e51b815260206004820152603160248201527f43544d525741303031536c6f74456e756d657261626c653a20736c6f7420696e604482015270646578206f7574206f6620626f756e647360781b6064820152608490fd5b50346102685760403660031901126102685761076c610a38611cc1565b610a4d60018060a01b036001541633146120b5565b602435906130f8565b50346102685780600319360112610268576040519080600454610a7881611f52565b80855291600191808316908115610afd5750600114610aa2575b6103518561033d81870382611d7b565b9250600483527f8a35acfbc15ff81a39ae7d344fd709f28e8600b4aa8c65c6b64bfe7fe36bd19b5b828410610ae557505050810160200161033d82610351610a92565b80546020858701810191909152909301928101610aca565b8695506103519693506020925061033d94915060ff191682840152151560051b8201019293610a92565b503461026857602036600319011261026857610b41611cc1565b90546001600160a01b03163303610b7a57600080546001600160a01b0319166001600160a01b0390921691909117905560206001610811565b60405162461bcd60e51b815260206004820152602860248201527f43544d5257413030313a205468697320697320616e206f6e6c7941646d696e20604482015267333ab731ba34b7b760c11b6064820152608490fd5b50610bda36611ced565b90610bfb6001600160a01b0380610bf086612822565b1690831614156128fe565b610c058333612b38565b15610c135761076c92613162565b60405162461bcd60e51b815260206004820152603360248201527f43544d5257413030313a20617070726f76652063616c6c6572206973206e6f74604482015272081bdddb995c881b9bdc88185c1c1c9bdd9959606a1b6064820152608490fd5b503461026857602080600319360112610d185790608091600435610c9a61059282612bb6565b80835260098252610cae6040842054612771565b505492818152600983526001610cff60406002610ccd82862054612771565b5001549385815260098752610ce482822054612771565b506003858060a01b0391015416958152600987522054612771565b5001549260405194855284015260408301526060820152f35b5080fd5b5034610268578060031936011261026857600b546040516001600160a01b039091168152602090f35b5034610268576020366003190112610268576020610811610d64611cc1565b610d7960018060a01b036001541633146120b5565b60018060a01b03166bffffffffffffffffffffffff60a01b6000541617600055600190565b5034610268576020366003190112610268576020610561610dbd611cc1565b612987565b5034610268576020366003190112610268576020610de1600435612822565b6040516001600160a01b039091168152f35b50346102685760803660031901126102685761076c610e10611cc1565b610e2560018060a01b036001541633146120b5565b606435906044359060243590612be4565b5034610268576020366003190112610268576020610561600435613ffe565b503461026857602036600319011261026857600435600854811015610e7f576105a4602091612771565b60405162461bcd60e51b815260206004820152602560248201527f43544d5257413030313a20676c6f62616c20696e646578206f7574206f6620626044820152646f756e647360d81b6064820152608490fd5b503461026857610f376002610f216040610eeb36611c5e565b9590610f0260018060a01b036001541633146120b5565b610f13610f0e82612bb6565b6133c2565b815260096020522054612771565b5001918254610f328282101561347c565b612ba9565b9055602060405160018152f35b503461026857610f5336611e9e565b91610f5e8183612956565b610f688383612b38565b1580610fe8575b610f77578480f35b838110610f9957610f9193610f8b91612ba9565b91613162565b388080808480f35b60405162461bcd60e51b815260206004820152602160248201527f43544d5257413030313a20696e73756666696369656e7420616c6c6f77616e636044820152606560f81b6064820152608490fd5b50600019811415610f6f565b5034610268576040366003190112610268576020610811611013611cc1565b61102860018060a01b036001541633146120b5565b60243590612b38565b5061076c61103e36611e69565b906040519261104c84611d60565b858452612a6b565b50346102685760403660031901126102685761076c611071611cc1565b61108660018060a01b036001541633146120b5565b6024359061301e565b5034610268578060031936011261026857602060ff60055416604051908152f35b503461026857602036600319011261026857600435906001600160401b0382116102685761035161033d6110e73660048601611dee565b612690565b506110f636611e4f565b90929192303b1561081b5760405163224e83b960e11b81523360048201526024810185905260448101839052838160648183305af1801561115457611141575b5061076c92936134dd565b9261114e61076c94611d17565b92611136565b6040513d86823e3d90fd5b503461026857604036600319011261026857611179611cc1565b9060243561118683612987565b8110156111b85760406111aa9260209460018060a01b03168152600a855220612b20565b90546040519160031b1c8152f35b60405162461bcd60e51b8152602060048201526024808201527f43544d5257413030313a206f776e657220696e646578206f7574206f6620626f604482015263756e647360e01b6064820152608490fd5b503461026857602036600319011261026857602061056160043561285e565b5061076c61123536611e69565b916112486112438433612b38565b612a02565b6138c7565b50346102685780600319360112610268576020600854604051908152f35b5034610268576040906112ab61128036611e4f565b949161129a60018060a09794971b036001541633146120b5565b610f136112a682612bb6565b613420565b50906001820154036112c6576002610f3791019182546128e0565b60405162461bcd60e51b815260206004820152603a60248201527f43544d5257413030313a2044657374696e6174696f6e20736c6f74206973206e60448201527f6f74207468652073616d6520617320736f7572636520736c6f740000000000006064820152608490fd5b503461026857602061081161134536611e0c565b90613eb6565b5061135536611ced565b909291303b1561081b5760405163224e83b960e11b81523360048201526024810182905260448101839052838160648183305af1801561115457611867575b50600654926113a28461211a565b6006556113ae8261285e565b6001600160a01b038616156118165784156117c5576113cc85612bb6565b611780576113d98161402a565b15611620575b604051956113ec87611d60565b8287526040516113fb81611d45565b868152602081018381526040820198858a526060830160018060a01b0385168152608084019187835260a08501526008549a8a885260096020528b6040892055600160401b8c101561160c5761145860019c8d8101600855612771565b9490946115f8578551855551848d0155516002840155516003830180546001600160a01b03199081166001600160a01b03938416179091559151600484018054909316911617905560a09190910151805191600501906001600160401b0383116115e4576020906114c984846130de565b0190855260208520855b8381106115c857506020896105618a828b8f828d8d828e6114f48282612f77565b6001600160a01b0316837fddf252ad1be2c89b69c2b068fc378daa952ba7f163c4a11628f55a4df523b3ef8180a48082846000805160206140b48339815191528280a482825260098a5261154b6040832054612771565b505082827f0b2aac84f3ec956911fd78eae5311062972ff949f38412e8da39069d9f068cc68c604051838152a36115828382614052565b6115bf5760406115ba94828452600e8c5261159f82852054611ec8565b5001928354928152600c8c528181208582528c522055612f3b565b6134dd565b505050506134dd565b82516001600160a01b0316818301556020909201918a016114d3565b634e487b7160e01b86526041600452602486fd5b634e487b7160e01b89526004899052602489fd5b634e487b7160e01b88526041600452602488fd5b6116298161402a565b6117265760405161163981611d60565b82815260405161164881611d2a565b828152602091828201908152600d5492848652600e8152836040872055600160401b92838510156116fe57611684600195868101600d55611ec8565b919091611712579085915181550191518051936001600160401b03851161160c5784116116fe5781906116bc858554818755866130bb565b0191865280862090865b8481106116ed575050505050508082806000805160206140b48339815191528180a46113df565b8351838201559281019285016116c6565b634e487b7160e01b87526041600452602487fd5b634e487b7160e01b88526004889052602488fd5b60405162461bcd60e51b815260206004820152602c60248201527f43544d525741303031536c6f74456e756d657261626c653a20736c6f7420616c60448201526b72656164792065786973747360a01b6064820152608490fd5b60405162461bcd60e51b815260206004820152601f60248201527f43544d5257413030313a20746f6b656e20616c7265616479206d696e746564006044820152606490fd5b60405162461bcd60e51b815260206004820152602360248201527f43544d5257413030313a2063616e6e6f74206d696e74207a65726f20746f6b656044820152621b925960ea1b6064820152608490fd5b60405162461bcd60e51b815260206004820152602360248201527f43544d5257413030313a206d696e7420746f20746865207a65726f206164647260448201526265737360e81b6064820152608490fd5b61187090611d17565b38611394565b5034610268576020366003190112610268578060405161189581611d60565b52600b546001600160a01b031680156118ee578160249160405192838092633601bfc560e11b825260043560048301525afa90811561037857826103519392610355575050604051918291602083526020830190611c9c565b50604051610351916118ff82611d60565b815261033d565b5060403660031901126102685761191b611cc1565b6024356001600160a01b0361193f8161193384612822565b168092851614156128fe565b8033149081156119c4575b50156119595761076c916130f8565b60405162461bcd60e51b815260206004820152603b60248201527f43544d5257413030313a20617070726f76652063616c6c6572206973206e6f7460448201527f206f776e6572206e6f7220617070726f76656420666f7220616c6c00000000006064820152608490fd5b90508352600a6020526002604084200133845260205260ff6040842054163861194a565b5034610268576020366003190112610268576020610de1600435612aed565b503461026857602036600319011261026857611a2e60018060a01b036001541633146120b5565b61076c6004356132a0565b50346102685780600319360112610268576040519080600354611a5b81611f52565b80855291600191808316908115610afd5750600114611a84576103518561033d81870382611d7b565b9250600383527fc2575a0e9e593c00f959f8c92f12db2869c3395a3b0502d05e2516446f71f85b5b828410611ac757505050810160200161033d82610351610a92565b80546020858701810191909152909301928101611aac565b50346102685760203660031901126102685760043563ffffffff60e01b8116809103610d1857602090631dba0dcf60e11b8114908115611b25575b506040519015158152f35b6301ffc9a760e01b811491508115611b9f575b8115611b8e575b8115611b7d575b8115611b6c575b8115611b5b575b5082611b1a565b635b5e139f60e01b14905082611b54565b63780e9d6360e01b81149150611b4d565b6370b0048160e11b81149150611b46565b6380ac58cd60e01b81149150611b3f565b630354d60560e61b81149150611b38565b503461026857611bbf36611c5e565b611bca829392613ffe565b811015611bf3576001611bec6040846020966111aa9652600e87522054611ec8565b5001612b20565b60405162461bcd60e51b815260206004820152603760248201527f43544d525741303031536c6f74456e756d657261626c653a20736c6f7420746f60448201527f6b656e20696e646578206f7574206f6620626f756e64730000000000000000006064820152608490fd5b6040906003190112611c74576004359060243590565b600080fd5b60005b838110611c8c5750506000910152565b8181015183820152602001611c7c565b90602091611cb581518092818552858086019101611c79565b601f01601f1916010190565b600435906001600160a01b0382168203611c7457565b602435906001600160a01b0382168203611c7457565b6060906003190112611c7457600435906024356001600160a01b0381168103611c74579060443590565b6001600160401b03811161050a57604052565b604081019081106001600160401b0382111761050a57604052565b60c081019081106001600160401b0382111761050a57604052565b602081019081106001600160401b0382111761050a57604052565b90601f801991011681019081106001600160401b0382111761050a57604052565b6001600160401b03811161050a57601f01601f191660200190565b929192611dc382611d9c565b91611dd16040519384611d7b565b829481845281830111611c74578281602093846000960137010152565b9080601f83011215611c7457816020611e0993359101611db7565b90565b906040600319830112611c74576001600160401b03600435818111611c745783611e3891600401611dee565b92602435918211611c7457611e0991600401611dee565b6060906003190112611c7457600435906024359060443590565b6060906003190112611c74576001600160a01b03906004358281168103611c7457916024359081168103611c74579060443590565b6060906003190112611c74576004356001600160a01b0381168103611c7457906024359060443590565b600d54811015611f0257600d60005260011b7fd7b6990105719101dabeb77144f2a3385c8033acd3af97e9423a695e81ad1eb50190600090565b634e487b7160e01b600052603260045260246000fd5b600254811015611f0257600260005260011b7f405787fa12a823e0f2b7631cc41b3ba8828b3321ca811111fa75cd3aa3bb5ace0190600090565b90600182811c92168015611f82575b6020831014611f6c57565b634e487b7160e01b600052602260045260246000fd5b91607f1691611f61565b9060405191826000825492611fa084611f52565b90818452600194858116908160001461200f5750600114611fcc575b5050611fca92500383611d7b565b565b9093915060005260209081600020936000915b818310611ff7575050611fca93508201013880611fbc565b85548884018501529485019487945091830191611fdf565b915050611fca94506020925060ff191682840152151560051b8201013880611fbc565b9080601f83011215611c74578135906001600160401b039283831161050a578260051b6040519460209461206886840188611d7b565b8652848087019284010193808511611c7457858401925b858410612090575050505050505090565b8335838111611c745787916120aa848480948a0101611dee565b81520193019261207f565b156120bc57565b60405162461bcd60e51b815260206004820152603060248201527f43544d5257413030313a20546869732063616e206f6e6c792062652063616c6c60448201526f0cac840c4f24086a89aa4ae82606062b60831b6064820152608490fd5b60001981146121295760010190565b634e487b7160e01b600052601160045260246000fd5b8051821015611f025760209160051b010190565b600080549293909290916001600160a01b039182169116036122445782518151036121e157815b83518110156121d85761219a612190828661213f565b5161134546612289565b156121ae575b6121a99061211a565b61217a565b6121cd6121bb828661213f565b516121c6838561213f565b5190612408565b6121a0575050905090565b50505050600190565b60405162461bcd60e51b815260206004820152603560248201527f43544d5257413030313a204c656e677468206d69736d6174636820636861696e60448201527449647320616e6420636f6e7472616374416464727360581b6064820152608490fd5b60405162461bcd60e51b815260206004820152601e60248201527f43544d525741303031583a2041646d696e4f6e6c792066756e6374696f6e00006044820152606490fd5b806000917a184f03e93ff9f4daa797ed6e38ed64bf6a1f010000000000000000808210156123e3575b506d04ee2d6d415b85acef8100000000808310156123d4575b50662386f26fc10000808310156123c5575b506305f5e100808310156123b6575b50612710808310156123a7575b506064821015612397575b600a8092101561238d575b6001908160218186019561232287611d9c565b966123306040519889611d7b565b80885261233f601f1991611d9c565b01366020890137860101905b612357575b5050505090565b600019019083906f181899199a1a9b1b9c1cb0b131b232b360811b8282061a8353049182156123885791908261234b565b612350565b916001019161230f565b9190606460029104910191612304565b600491939204910191386122f9565b600891939204910191386122ec565b601091939204910191386122dd565b602091939204910191386122cb565b6040935081049150386122b2565b8181106123fc575050565b600081556001016123f1565b60025490929160005b82811061265a57506040519361242685611d2a565b8452602093848101918252600160401b83101561050a5761244e600193848101600255611f18565b919091612644575180516001600160401b039283821161050a5785916124748254611f52565b93601f948a868211612615575b505089908583116001146125af5760009190836125a4575b5050600019600383901b1c191690831b1781555b01925195865192831161050a576124c48454611f52565b82811161256c575b5080918311600114612507575081929394956000926124fc575b5050600019600383901b1c191690831b17905590565b0151905038806124e6565b90601f198316968460005282600020926000905b898210612555575050838697989695961061253c575b505050811b01905590565b015160001960f88460031b161c19169055388080612531565b80888596829496860151815501950193019061251b565b6125959085600052826000208480870160051c82019285881061259b575b0160051c01906123f1565b386124cc565b9250819261258a565b015190503880612499565b90601f19831691846000528b6000209260005b8d8282106125ff57505090848795949392106125e6575b505050811b0181556124ad565b015160001960f88460031b161c191690553880806125d9565b8385015186558c989095019493840193016125c2565b61263d918560005287826000209181870160051c830193871061259b570160051c01906123f1565b388a612481565b634e487b7160e01b600052600060045260246000fd5b6126758561267061266a84611f18565b50611f8c565b613eb6565b612687576126829061211a565b612411565b50600093505050565b6002549060005b8281106126b4575050506040516126ad81611d60565b6000815290565b6126d36126c082611f18565b506126706126cd85613f1b565b91611f8c565b6126e5576126e09061211a565b612697565b611e099250600191506126f790611f18565b5001611f8c565b61270a61271091613f1b565b91613f1b565b6002549160005b8381106127275750505050600090565b61273c61273661266a83611f18565b83613eb6565b80612754575b6121d85761274f9061211a565b612717565b5061276c61276660016126f784611f18565b84613eb6565b612742565b600854811015611f02576006906008600052027ff3f7a9fe364faab93b216da50a3214154f22a0a2b415b23a84c8169e8b636ee30190600090565b6127b861059282612bb6565b600052600960205260026127d0604060002054612771565b50015490565b156127dd57565b60405162461bcd60e51b815260206004820152601b60248201527f43544d5257413030313a20696e76616c696420746f6b656e20494400000000006044820152606490fd5b61282e61059282612bb6565b6000526009602052612844604060002054612771565b50600301546001600160a01b031690611fca8215156127d6565b61286a61059282612bb6565b600052600960205260016127d0604060002054612771565b602081830312611c74578051906001600160401b038211611c74570181601f82011215611c745780516128b481611d9c565b926128c26040519485611d7b565b81845260208284010111611c7457611e099160208085019101611c79565b9190820180921161212957565b908151811015611f02570160200190565b1561290557565b60405162461bcd60e51b8152602060048201526024808201527f43544d5257413030313a20617070726f76616c20746f2063757272656e74206f6044820152633bb732b960e11b6064820152608490fd5b61296261059282612bb6565b600052600760205260406000209060018060a01b031660005260205260406000205490565b6001600160a01b031680156129a757600052600a60205260406000205490565b60405162461bcd60e51b815260206004820152602d60248201527f43544d5257413030313a2062616c616e636520717565727920666f722074686560448201526c207a65726f206164647265737360981b6064820152608490fd5b15612a0957565b60405162461bcd60e51b815260206004820152603460248201527f43544d5257413030313a207472616e736665722063616c6c6572206973206e6f6044820152731d081bdddb995c881b9bdc88185c1c1c9bdd995960621b6064820152608490fd5b90612a8f939291612a7f6112438433612b38565b612a8a8383836138c7565b613da8565b15612a9657565b60405162461bcd60e51b815260206004820152602960248201527f43544d5257413030313a207472616e7366657220746f206e6f6e20455243373260448201526818a932b1b2b4bb32b960b91b6064820152608490fd5b612af961059282612bb6565b6000526009602052612b0f604060002054612771565b50600401546001600160a01b031690565b8054821015611f025760005260206000200190600090565b906001600160a01b038080612b4c84612822565b16931691838314938415612b7f575b508315612b69575b50505090565b612b7591929350612aed565b1614388080612b63565b909350600052600a60205260026040600020018260005260205260ff604060002054169238612b5b565b9190820391821161212957565b60085415159081612bc5575090565b8091506000526009602052612bde604060002054612771565b50541490565b919290916001600160a01b038116156118165782156117c557612c0683612bb6565b61178057612c138461402a565b15612e3f575b604051612c2581611d60565b6000815260405190612c3682611d45565b8482528560208301526000604083015260018060a01b03831660608301526000608083015260a082015260085484600052600960205280604060002055600160401b81101561050a57806001612c8f9201600855612771565b6126445781518155602082015160018201556040820151600282015560608201516003820180546001600160a01b039283166001600160a01b031991821617909155608084015160048401805491909316911617905560a090910151805191600501906001600160401b03831161050a579060208392612d1288979695846130de565b0190600052602060002060005b838110612e1f575050505060206000928483612d5c827f0b2aac84f3ec956911fd78eae5311062972ff949f38412e8da39069d9f068cc696612f77565b6001600160a01b0316857fddf252ad1be2c89b69c2b068fc378daa952ba7f163c4a11628f55a4df523b3ef8180a48684866000805160206140b48339815191528280a4848452600982526002612db56040862054612771565b5001612dc28282546128e0565b9055604051908152a3612dd58183614052565b612e1b5781611fca92600052600e6020526001612df6604060002054611ec8565b500190815490600052600c602052604060002083600052602052604060002055612f3b565b5050565b82516001600160a01b031681830155879650602090920191600101612d1f565b612e488461402a565b61172657604051612e5881611d60565b600090818152604051612e6a81611d2a565b868152602091828201908152600d5492888552600e8152836040862055600160401b92838510156115e457612ea6600195868101600d55611ec8565b919091612f27579085915181550191518051936001600160401b0385116116fe5784116115e45790808392612ee4868d9998979654818755866130bb565b0191855280852090855b848110612f1357505050505050806000805160206140b48339815191528180a4612c19565b8351818401558b9750928101928501612eee565b634e487b7160e01b87526004879052602487fd5b90815491600160401b83101561050a5782612f5e916001611fca95018155612b20565b90919082549060031b91821b91600019901b1916179055565b906040611fca9260009083825260096020526003612f9784842054612771565b500180546001600160a01b0319166001600160a01b039092169182179055808252600a60208181528484208054878652600191909101825285852055918352905220612f3b565b80549081156130085760001991820191612ff88383612b20565b909182549160031b1b1916905555565b634e487b7160e01b600052603160045260246000fd5b9190916000908382526009602052600361303b6040842054612771565b500180546001600160a01b03191690556001600160a01b03168152600a6020526040812080546000198101949192919085116104ce5761307f611fca949584612b20565b90549060031b1c60018401828452806020526040842054916130a581612f5e8589612b20565b8452602052604083205581526040812055612fde565b918181106130c857505050565b611fca92600052602060002091820191016123f1565b90600160401b811161050a578154818355611fca926130bb565b8160005260096020526004613111604060002054612771565b500180546001600160a01b0319166001600160a01b039283169081179091559061313a83612822565b167f8c5be1e5ebec7d5bd14f71427d1e84f3dd0314c0f7b2291e5b200ac8c7c3b925600080a4565b6001600160a01b038083169391928415613246578361318091613338565b156131ce575b5060207f621b050de0ad08b51d19b48b3e6df75348c4de6bdd93e81b252ca62e28265b1b918360005260078252604060002085600052825280604060002055604051908152a3565b82600052600960205260056131e7604060002054612771565b500191825491600160401b83101561050a5761322c837f621b050de0ad08b51d19b48b3e6df75348c4de6bdd93e81b252ca62e28265b1b956001602096018155612b20565b819291549060031b9188831b921b19161790559150613186565b60405162461bcd60e51b815260206004820152602c60248201527f43544d5257413030313a20617070726f76652076616c756520746f207468652060448201526b7a65726f206164647265737360a01b6064820152608490fd5b600081815260206009815260409260056132bc85852054612771565b500193845491845b8381106132fa5750505050825491808455826132e1575b50505050565b6132f193815220908101906123f1565b388080806132db565b806133086133339289612b20565b90548489526007885285892060039290921b1c6001600160a01b03168852865283872087905561211a565b6132c4565b600090828252600960209080825260409061335582862054612771565b509260058094015496865b8881106133735750505050505050905090565b81885283835261338a8187611bec888c2054612771565b905460039190911b1c6001600160a01b03908116908816146133b4576133af9061211a565b613360565b505050505050505050600190565b156133c957565b60405162461bcd60e51b815260206004820152602960248201527f43544d5257413030313a207472616e736665722066726f6d20696e76616c6964604482015268081d1bdad95b88125160ba1b6064820152608490fd5b1561342757565b60405162461bcd60e51b815260206004820152602760248201527f43544d5257413030313a207472616e7366657220746f20696e76616c696420746044820152661bdad95b88125160ca1b6064820152608490fd5b1561348357565b60405162461bcd60e51b815260206004820152602c60248201527f43544d5257413030313a20696e73756666696369656e742062616c616e63652060448201526b3337b9103a3930b739b332b960a11b6064820152608490fd5b90916134eb610f0e83612bb6565b6134f76112a684612bb6565b81600052600960205261350e604060002054612771565b5092806000526009602052613527604060002054612771565b5093613539836002830154101561347c565b6001810154600186015481036138695760038201546001600160a01b03161580613861575b80613851575b61376e575b50613578836002830154612ba9565b60028201556002850161358c8482546128e0565b905581847f0b2aac84f3ec956911fd78eae5311062972ff949f38412e8da39069d9f068cc66020604051878152a3600381810154950154600190910154946001600160a01b0391821691161580613766575b80613755575b15613687575061360b818561362196600052600e6020526001612df6604060002054611ec8565b6040519261361884611d60565b60008452613c4f565b1561362857565b60405162461bcd60e51b815260206004820152603160248201527f43544d5257413030313a207472616e736665722072656a65637465642062792060448201527021aa26a92ba0981818a932b1b2b4bb32b960791b6064820152608490fd5b158061374d575b8061373d575b6136a3575b613621935061360b565b83600052600e60205260016136bc604060002054611ec8565b5001805460001981019190821161212957613621956136de6137389383612b20565b90549060031b1c81600052600c6020526040600020876000526020526040600020549061370f81612f5e8487612b20565b6000928352600c6020908152604080852092855291905280832091909155868252812055612fde565b613699565b506137488385614052565b613694565b50801561368e565b506137608286614052565b156135e4565b5083156135de565b6137778161402a565b6117265760405161378781611d60565b600081526040519061379882611d2a565b82825260208201908152600d549183600052600e60205282604060002055600160401b928381101561050a578060016137d49201600d55611ec8565b612644576001915181550190518051926001600160401b03841161050a57831161050a5760209061380a848454818655856130bb565b0190600052602060002060005b83811061383d57505050506000806000805160206140b48339815191528180a438613569565b600190602084519401938184015501613817565b5061385b8161402a565b15613564565b50841561355e565b60405162461bcd60e51b815260206004820152603060248201527f43544d5257413030313a207472616e7366657220746f20746f6b656e2077697460448201526f1a08191a5999995c995b9d081cdb1bdd60821b6064820152608490fd5b9190916138d382612822565b6001600160a01b039190828216908316819003613bab578285168015613b565784916138fe8361285e565b96613908846127ac565b508115948580613b4e575b80613b3e575b613a21575b61399591613990868093816000809c828252600960205260046139446040842054612771565b500180546001600160a01b031916905561395d83612822565b167f8c5be1e5ebec7d5bd14f71427d1e84f3dd0314c0f7b2291e5b200ac8c7c3b9258280a461398b826132a0565b61301e565b612f77565b7fddf252ad1be2c89b69c2b068fc378daa952ba7f163c4a11628f55a4df523b3ef8580a480613a19575b80613a08575b15613a035782611fca938252600e602052604060016139e682852054611ec8565b5001928354928152600c6020528181208582526020522055612f3b565b505050565b50613a138284614052565b156139c5565b5081156139bf565b9091929350613a2f8861402a565b61172657604051613a3f81611d60565b600090818152604051613a5181611d2a565b8a8152602091828201908152600d54928c8552600e8152836040862055600160401b92838510156115e457613a8d600195868101600d55611ec8565b919091612f27579085915181550191518051936001600160401b0385116116fe5784116115e457918184928f96948f9c9b9a999896613ad1908554818755866130bb565b0191855280852090855b848110613b1257505050505050868093613995959383806000805160206140b48339815191528161399097a493505050915061391e565b9085975083819496939597999a9b9c9d50519501948185015501918e9593918e9b9a9998979593613adb565b50613b488961402a565b15613919565b508415613913565b60405162461bcd60e51b815260206004820152602760248201527f43544d5257413030313a207472616e7366657220746f20746865207a65726f206044820152666164647265737360c81b6064820152608490fd5b60405162461bcd60e51b815260206004820152602660248201527f43544d5257413030313a207472616e736665722066726f6d20696e76616c69646044820152651037bbb732b960d11b6064820152608490fd5b90816020910312611c7457516001600160e01b031981168103611c745790565b3d15613c4a573d90613c3082611d9c565b91613c3e6040519384611d7b565b82523d6000602084013e565b606090565b929092613c5b84612822565b803b63ffffffff1615613d9e576040516301ffc9a760e01b8152633abe4f5560e21b6004820181905295602095926001600160a01b0316918681602481865afa8091600091613d68575b5090613cc1575050505050505050613cbb613c1f565b50600190565b15613d5c5760008694613d00604051978896879586948d865233600487015260248601526044850152606484015260a0608484015260a4830190611c9c565b03925af1918215613d5057600092613d23575b50506001600160e01b0319161490565b613d429250803d10613d49575b613d3a8183611d7b565b810190613bff565b3880613d13565b503d613d30565b6040513d6000823e3d90fd5b50505050505050600190565b8881813d8311613d97575b613d7d8183611d7b565b81010312610d185751908115158203610268575038613ca5565b503d613d73565b5050505050600190565b9192813b63ffffffff16156121d857602091613e00916000604051958680958194630a85bd0160e11b9a8b845233600485015260018060a01b0380951660248501526044840152608060648401526084830190611c9c565b0393165af160009181613e96575b50613e8857613e1b613c1f565b80519081613e835760405162461bcd60e51b815260206004820152603260248201527f4552433732313a207472616e7366657220746f206e6f6e20455243373231526560448201527131b2b4bb32b91034b6b83632b6b2b73a32b960711b6064820152608490fd5b602001fd5b6001600160e01b0319161490565b613eaf91925060203d8111613d4957613d3a8183611d7b565b9038613e0e565b906040519182613ed26020820192602084526040830190611c9c565b0392613ee6601f1994858101835282611d7b565b51902091613f146040519182613f086020820195602087526040830190611c9c565b03908101835282611d7b565b5190201490565b908151613f2781611d9c565b90613f356040519283611d7b565b808252613f44601f1991611d9c565b01602090368284013760005b8451811015613ff757613f6381866128ed565b5190604160f892831c101580613fe0575b15613fb95782613f8482886128ed565b51831c019160ff831161212957613fb492901b6001600160f81b03191660001a613fae82866128ed565b5361211a565b613f50565b613fb491506001600160f81b0319613fd182886128ed565b511660001a613fae82866128ed565b50605a613fed82886128ed565b51831c1115613f74565b5090925050565b6140078161402a565b1561402457600052600e60205260016127d0604060002054611ec8565b50600090565b600d5415159081614039575090565b809150600052600e602052612bde604060002054611ec8565b906000828152600e602052600161406c6040832054611ec8565b500190815415159384614080575050505090565b6140a2939450906040918152600c602052818120858252602052205490612b20565b90549060031b1c143880808061235056fee4f48c240d3b994948aa54f3e2f5fca59263dfe1d52b6e4cf39a5d249b5ccb65a2646970667358221220764d219babbd4297661fd25740e57bf8d5707be37feaa44750b62d77f6467b6964736f6c63430008140033",
  "linkReferences": {},
  "deployedLinkReferences": {}
}