{
  "_format": "hh-sol-artifact-1",
  "contractName": "CTM3525XUpgradeable",
  "sourceName": "contracts/CTM3525XUpgradeable.sol",
  "abi": [
    {
      "anonymous": false,
      "inputs": [
        {
          "indexed": true,
          "internalType": "address",
          "name": "_owner",
          "type": "address"
        },
        {
          "indexed": true,
          "internalType": "address",
          "name": "_approved",
          "type": "address"
        },
        {
          "indexed": true,
          "internalType": "uint256",
          "name": "_tokenId",
          "type": "uint256"
        }
      ],
      "name": "Approval",
      "type": "event"
    },
    {
      "anonymous": false,
      "inputs": [
        {
          "indexed": true,
          "internalType": "address",
          "name": "_owner",
          "type": "address"
        },
        {
          "indexed": true,
          "internalType": "address",
          "name": "_operator",
          "type": "address"
        },
        {
          "indexed": false,
          "internalType": "bool",
          "name": "_approved",
          "type": "bool"
        }
      ],
      "name": "ApprovalForAll",
      "type": "event"
    },
    {
      "anonymous": false,
      "inputs": [
        {
          "indexed": true,
          "internalType": "uint256",
          "name": "_tokenId",
          "type": "uint256"
        },
        {
          "indexed": true,
          "internalType": "address",
          "name": "_operator",
          "type": "address"
        },
        {
          "indexed": false,
          "internalType": "uint256",
          "name": "_value",
          "type": "uint256"
        }
      ],
      "name": "ApprovalValue",
      "type": "event"
    },
    {
      "anonymous": false,
      "inputs": [
        {
          "indexed": false,
          "internalType": "uint8",
          "name": "version",
          "type": "uint8"
        }
      ],
      "name": "Initialized",
      "type": "event"
    },
    {
      "anonymous": false,
      "inputs": [
        {
          "indexed": true,
          "internalType": "address",
          "name": "metadataDescriptor",
          "type": "address"
        }
      ],
      "name": "SetMetadataDescriptor",
      "type": "event"
    },
    {
      "anonymous": false,
      "inputs": [
        {
          "indexed": true,
          "internalType": "uint256",
          "name": "_tokenId",
          "type": "uint256"
        },
        {
          "indexed": true,
          "internalType": "uint256",
          "name": "_oldSlot",
          "type": "uint256"
        },
        {
          "indexed": true,
          "internalType": "uint256",
          "name": "_newSlot",
          "type": "uint256"
        }
      ],
      "name": "SlotChanged",
      "type": "event"
    },
    {
      "anonymous": false,
      "inputs": [
        {
          "indexed": true,
          "internalType": "address",
          "name": "_from",
          "type": "address"
        },
        {
          "indexed": true,
          "internalType": "address",
          "name": "_to",
          "type": "address"
        },
        {
          "indexed": true,
          "internalType": "uint256",
          "name": "_tokenId",
          "type": "uint256"
        }
      ],
      "name": "Transfer",
      "type": "event"
    },
    {
      "anonymous": false,
      "inputs": [
        {
          "indexed": true,
          "internalType": "uint256",
          "name": "_fromTokenId",
          "type": "uint256"
        },
        {
          "indexed": true,
          "internalType": "uint256",
          "name": "_toTokenId",
          "type": "uint256"
        },
        {
          "indexed": false,
          "internalType": "uint256",
          "name": "_value",
          "type": "uint256"
        }
      ],
      "name": "TransferValue",
      "type": "event"
    },
    {
      "inputs": [
        {
          "internalType": "uint256",
          "name": "tokenId_",
          "type": "uint256"
        },
        {
          "internalType": "address",
          "name": "operator_",
          "type": "address"
        }
      ],
      "name": "allowance",
      "outputs": [
        {
          "internalType": "uint256",
          "name": "",
          "type": "uint256"
        }
      ],
      "stateMutability": "view",
      "type": "function"
    },
    {
      "inputs": [
        {
          "internalType": "address",
          "name": "to_",
          "type": "address"
        },
        {
          "internalType": "uint256",
          "name": "tokenId_",
          "type": "uint256"
        }
      ],
      "name": "approve",
      "outputs": [],
      "stateMutability": "payable",
      "type": "function"
    },
    {
      "inputs": [
        {
          "internalType": "uint256",
          "name": "tokenId_",
          "type": "uint256"
        },
        {
          "internalType": "address",
          "name": "to_",
          "type": "address"
        },
        {
          "internalType": "uint256",
          "name": "value_",
          "type": "uint256"
        }
      ],
      "name": "approve",
      "outputs": [],
      "stateMutability": "payable",
      "type": "function"
    },
    {
      "inputs": [
        {
          "internalType": "address",
          "name": "owner_",
          "type": "address"
        }
      ],
      "name": "balanceOf",
      "outputs": [
        {
          "internalType": "uint256",
          "name": "balance",
          "type": "uint256"
        }
      ],
      "stateMutability": "view",
      "type": "function"
    },
    {
      "inputs": [
        {
          "internalType": "uint256",
          "name": "tokenId_",
          "type": "uint256"
        }
      ],
      "name": "balanceOf",
      "outputs": [
        {
          "internalType": "uint256",
          "name": "",
          "type": "uint256"
        }
      ],
      "stateMutability": "view",
      "type": "function"
    },
    {
      "inputs": [],
      "name": "contractURI",
      "outputs": [
        {
          "internalType": "string",
          "name": "",
          "type": "string"
        }
      ],
      "stateMutability": "view",
      "type": "function"
    },
    {
      "inputs": [
        {
          "internalType": "uint256",
          "name": "tokenId_",
          "type": "uint256"
        }
      ],
      "name": "getApproved",
      "outputs": [
        {
          "internalType": "address",
          "name": "",
          "type": "address"
        }
      ],
      "stateMutability": "view",
      "type": "function"
    },
    {
      "inputs": [
        {
          "internalType": "address",
          "name": "owner_",
          "type": "address"
        },
        {
          "internalType": "address",
          "name": "operator_",
          "type": "address"
        }
      ],
      "name": "isApprovedForAll",
      "outputs": [
        {
          "internalType": "bool",
          "name": "",
          "type": "bool"
        }
      ],
      "stateMutability": "view",
      "type": "function"
    },
    {
      "inputs": [],
      "name": "metadataDescriptor",
      "outputs": [
        {
          "internalType": "contract ICTM3525XMetadataDescriptorUpgradeable",
          "name": "",
          "type": "address"
        }
      ],
      "stateMutability": "view",
      "type": "function"
    },
    {
      "inputs": [],
      "name": "name",
      "outputs": [
        {
          "internalType": "string",
          "name": "",
          "type": "string"
        }
      ],
      "stateMutability": "view",
      "type": "function"
    },
    {
      "inputs": [
        {
          "internalType": "uint256",
          "name": "tokenId_",
          "type": "uint256"
        }
      ],
      "name": "ownerOf",
      "outputs": [
        {
          "internalType": "address",
          "name": "owner_",
          "type": "address"
        }
      ],
      "stateMutability": "view",
      "type": "function"
    },
    {
      "inputs": [
        {
          "internalType": "address",
          "name": "from_",
          "type": "address"
        },
        {
          "internalType": "address",
          "name": "to_",
          "type": "address"
        },
        {
          "internalType": "uint256",
          "name": "tokenId_",
          "type": "uint256"
        }
      ],
      "name": "safeTransferFrom",
      "outputs": [],
      "stateMutability": "payable",
      "type": "function"
    },
    {
      "inputs": [
        {
          "internalType": "address",
          "name": "from_",
          "type": "address"
        },
        {
          "internalType": "address",
          "name": "to_",
          "type": "address"
        },
        {
          "internalType": "uint256",
          "name": "tokenId_",
          "type": "uint256"
        },
        {
          "internalType": "bytes",
          "name": "data_",
          "type": "bytes"
        }
      ],
      "name": "safeTransferFrom",
      "outputs": [],
      "stateMutability": "payable",
      "type": "function"
    },
    {
      "inputs": [
        {
          "internalType": "address",
          "name": "operator_",
          "type": "address"
        },
        {
          "internalType": "bool",
          "name": "approved_",
          "type": "bool"
        }
      ],
      "name": "setApprovalForAll",
      "outputs": [],
      "stateMutability": "nonpayable",
      "type": "function"
    },
    {
      "inputs": [
        {
          "internalType": "uint256",
          "name": "tokenId_",
          "type": "uint256"
        }
      ],
      "name": "slotOf",
      "outputs": [
        {
          "internalType": "uint256",
          "name": "",
          "type": "uint256"
        }
      ],
      "stateMutability": "view",
      "type": "function"
    },
    {
      "inputs": [
        {
          "internalType": "uint256",
          "name": "slot_",
          "type": "uint256"
        }
      ],
      "name": "slotURI",
      "outputs": [
        {
          "internalType": "string",
          "name": "",
          "type": "string"
        }
      ],
      "stateMutability": "view",
      "type": "function"
    },
    {
      "inputs": [
        {
          "internalType": "bytes4",
          "name": "interfaceId",
          "type": "bytes4"
        }
      ],
      "name": "supportsInterface",
      "outputs": [
        {
          "internalType": "bool",
          "name": "",
          "type": "bool"
        }
      ],
      "stateMutability": "view",
      "type": "function"
    },
    {
      "inputs": [],
      "name": "symbol",
      "outputs": [
        {
          "internalType": "string",
          "name": "",
          "type": "string"
        }
      ],
      "stateMutability": "view",
      "type": "function"
    },
    {
      "inputs": [
        {
          "internalType": "uint256",
          "name": "index_",
          "type": "uint256"
        }
      ],
      "name": "tokenByIndex",
      "outputs": [
        {
          "internalType": "uint256",
          "name": "",
          "type": "uint256"
        }
      ],
      "stateMutability": "view",
      "type": "function"
    },
    {
      "inputs": [
        {
          "internalType": "address",
          "name": "owner_",
          "type": "address"
        },
        {
          "internalType": "uint256",
          "name": "index_",
          "type": "uint256"
        }
      ],
      "name": "tokenOfOwnerByIndex",
      "outputs": [
        {
          "internalType": "uint256",
          "name": "",
          "type": "uint256"
        }
      ],
      "stateMutability": "view",
      "type": "function"
    },
    {
      "inputs": [
        {
          "internalType": "uint256",
          "name": "tokenId_",
          "type": "uint256"
        }
      ],
      "name": "tokenURI",
      "outputs": [
        {
          "internalType": "string",
          "name": "",
          "type": "string"
        }
      ],
      "stateMutability": "view",
      "type": "function"
    },
    {
      "inputs": [],
      "name": "totalSupply",
      "outputs": [
        {
          "internalType": "uint256",
          "name": "",
          "type": "uint256"
        }
      ],
      "stateMutability": "view",
      "type": "function"
    },
    {
      "inputs": [
        {
          "internalType": "uint256",
          "name": "fromTokenId_",
          "type": "uint256"
        },
        {
          "internalType": "address",
          "name": "to_",
          "type": "address"
        },
        {
          "internalType": "uint256",
          "name": "value_",
          "type": "uint256"
        }
      ],
      "name": "transferFrom",
      "outputs": [
        {
          "internalType": "uint256",
          "name": "newTokenId",
          "type": "uint256"
        }
      ],
      "stateMutability": "payable",
      "type": "function"
    },
    {
      "inputs": [
        {
          "internalType": "address",
          "name": "from_",
          "type": "address"
        },
        {
          "internalType": "address",
          "name": "to_",
          "type": "address"
        },
        {
          "internalType": "uint256",
          "name": "tokenId_",
          "type": "uint256"
        }
      ],
      "name": "transferFrom",
      "outputs": [],
      "stateMutability": "payable",
      "type": "function"
    },
    {
      "inputs": [
        {
          "internalType": "uint256",
          "name": "fromTokenId_",
          "type": "uint256"
        },
        {
          "internalType": "uint256",
          "name": "toTokenId_",
          "type": "uint256"
        },
        {
          "internalType": "uint256",
          "name": "value_",
          "type": "uint256"
        }
      ],
      "name": "transferFrom",
      "outputs": [],
      "stateMutability": "payable",
      "type": "function"
    },
    {
      "inputs": [],
      "name": "valueDecimals",
      "outputs": [
        {
          "internalType": "uint8",
          "name": "",
          "type": "uint8"
        }
      ],
      "stateMutability": "view",
      "type": "function"
    }
  ],
  "bytecode": "0x608060405234801561001057600080fd5b50612c06806100206000396000f3fe6080604052600436106101815760003560e01c80634f6ccce7116100d15780639cc7f7081161008a578063c87b56dd11610064578063c87b56dd14610416578063e345e0bc14610436578063e8a3d48514610456578063e985e9c51461046b57600080fd5b80639cc7f708146103c3578063a22cb465146103e3578063b88d4fde1461040357600080fd5b80634f6ccce71461031b5780636352211e1461033b57806370a082311461035b578063840f71131461037b5780638cb0a5111461039b57806395d89b41146103ae57600080fd5b806318160ddd1161013e5780632f745c59116101185780632f745c59146102b3578063310ed7f0146102d35780633e7e8669146102e657806342842e0e1461030857600080fd5b806318160ddd1461026b57806323b872dd14610280578063263f3e7e1461029357600080fd5b806301ffc9a71461018657806306fdde03146101bb578063081812fc146101dd578063095ea7b31461021557806309c3dd871461022a5780630f485c021461024a575b600080fd5b34801561019257600080fd5b506101a66101a136600461253b565b6104b8565b60405190151581526020015b60405180910390f35b3480156101c757600080fd5b506101d061055b565b6040516101b291906125a8565b3480156101e957600080fd5b506101fd6101f83660046125bb565b6105ed565b6040516001600160a01b0390911681526020016101b2565b6102286102233660046125eb565b61063f565b005b34801561023657600080fd5b506101d06102453660046125bb565b610723565b61025d610258366004612615565b610815565b6040519081526020016101b2565b34801561027757600080fd5b5060385461025d565b61022861028e36600461264a565b61084d565b34801561029f57600080fd5b5061025d6102ae3660046125bb565b61087e565b3480156102bf57600080fd5b5061025d6102ce3660046125eb565b6108c6565b6102286102e1366004612676565b610968565b3480156102f257600080fd5b5060355460405160ff90911681526020016101b2565b61022861031636600461264a565b61097e565b34801561032757600080fd5b5061025d6103363660046125bb565b610999565b34801561034757600080fd5b506101fd6103563660046125bb565b610a2a565b34801561036757600080fd5b5061025d6103763660046126a2565b610aca565b34801561038757600080fd5b50603b546101fd906001600160a01b031681565b6102286103a9366004612615565b610b53565b3480156103ba57600080fd5b506101d0610c13565b3480156103cf57600080fd5b5061025d6103de3660046125bb565b610c22565b3480156103ef57600080fd5b506102286103fe3660046126cb565b610c6a565b610228610411366004612771565b610c79565b34801561042257600080fd5b506101d06104313660046125bb565b610cab565b34801561044257600080fd5b5061025d61045136600461281c565b610d4a565b34801561046257600080fd5b506101d0610d7e565b34801561047757600080fd5b506101a6610486366004612848565b6001600160a01b039182166000908152603a602090815260408083209390941682526002909201909152205460ff1690565b60006001600160e01b031982166301ffc9a760e01b14806104e957506001600160e01b03198216630354d60560e61b145b8061050457506001600160e01b031982166380ac58cd60e01b145b8061051f57506001600160e01b031982166370b0048160e11b145b8061053a57506001600160e01b0319821663780e9d6360e01b145b8061055557506001600160e01b03198216635b5e139f60e01b145b92915050565b60606033805461056a90612872565b80601f016020809104026020016040519081016040528092919081815260200182805461059690612872565b80156105e35780601f106105b8576101008083540402835291602001916105e3565b820191906000526020600020905b8154815290600101906020018083116105c657829003601f168201915b5050505050905090565b60006105f882610e78565b60008281526039602052604090205460388054909190811061061c5761061c6128ac565b60009182526020909120600460069092020101546001600160a01b031692915050565b600061064a82610a2a565b9050806001600160a01b0316836001600160a01b0316036106865760405162461bcd60e51b815260040161067d906128c2565b60405180910390fd5b336001600160a01b03821614806106a257506106a28133610486565b6107145760405162461bcd60e51b815260206004820152603a60248201527f43544d33353235583a20617070726f76652063616c6c6572206973206e6f742060448201527f6f776e6572206e6f7220617070726f76656420666f7220616c6c000000000000606482015260840161067d565b61071e8383610ed0565b505050565b6060600061073c60408051602081019091526000815290565b603b549091506001600160a01b031661079c57600081511161076d576040518060200160405280600081525061080e565b8061077784610f67565b604051602001610788929190612905565b60405160208183030381529060405261080e565b603b54604051633601bfc560e11b8152600481018590526001600160a01b0390911690636c037f8a906024015b600060405180830381865afa1580156107e6573d6000803e3d6000fd5b505050506040513d6000823e601f3d908101601f1916820160405261080e9190810190612945565b9392505050565b6000610822338584610ffa565b61082b8461108a565b9050610842838261083b8761087e565b6000611094565b61080e8482846111c0565b61085733826114be565b6108735760405162461bcd60e51b815260040161067d906129bc565b61071e838383611541565b600061088982610e78565b6000828152603960205260409020546038805490919081106108ad576108ad6128ac565b9060005260206000209060060201600101549050919050565b60006108d183610aca565b821061092b5760405162461bcd60e51b815260206004820152602360248201527f43544d33353235583a206f776e657220696e646578206f7574206f6620626f756044820152626e647360e81b606482015260840161067d565b6001600160a01b0383166000908152603a60205260409020805483908110610955576109556128ac565b9060005260206000200154905092915050565b610973338483610ffa565b61071e8383836111c0565b61071e83838360405180602001604052806000815250610c79565b60006109a460385490565b82106109fe5760405162461bcd60e51b8152602060048201526024808201527f43544d33353235583a20676c6f62616c20696e646578206f7574206f6620626f604482015263756e647360e01b606482015260840161067d565b60388281548110610a1157610a116128ac565b9060005260206000209060060201600001549050919050565b6000610a3582610e78565b600082815260396020526040902054603880549091908110610a5957610a596128ac565b60009182526020909120600360069092020101546001600160a01b0316905080610ac55760405162461bcd60e51b815260206004820152601a60248201527f43544d33353235583a20696e76616c696420746f6b656e204944000000000000604482015260640161067d565b919050565b60006001600160a01b038216610b375760405162461bcd60e51b815260206004820152602c60248201527f43544d33353235583a2062616c616e636520717565727920666f72207468652060448201526b7a65726f206164647265737360a01b606482015260840161067d565b506001600160a01b03166000908152603a602052604090205490565b6000610b5e84610a2a565b9050806001600160a01b0316836001600160a01b031603610b915760405162461bcd60e51b815260040161067d906128c2565b610b9b33856114be565b610c025760405162461bcd60e51b815260206004820152603260248201527f43544d33353235583a20617070726f76652063616c6c6572206973206e6f74206044820152711bdddb995c881b9bdc88185c1c1c9bdd995960721b606482015260840161067d565b610c0d8484846116a5565b50505050565b60606034805461056a90612872565b6000610c2d82610e78565b600082815260396020526040902054603880549091908110610c5157610c516128ac565b9060005260206000209060060201600201549050919050565b610c753383836117de565b5050565b610c8333836114be565b610c9f5760405162461bcd60e51b815260040161067d906129bc565b610c0d848484846118a8565b6060610cb682610e78565b6000610ccd60408051602081019091526000815290565b603b549091506001600160a01b0316610d19576000815111610cfe576040518060200160405280600081525061080e565b80610d0884610f67565b604051602001610788929190612a0f565b603b546040516344a5a61760e11b8152600481018590526001600160a01b039091169063894b4c2e906024016107c9565b6000610d5583610e78565b5060009182526037602090815260408084206001600160a01b0393909316845291905290205490565b60606000610d9760408051602081019091526000815290565b603b549091506001600160a01b0316610df7576000815111610dc85760405180602001604052806000815250610e72565b80610dd23061191c565b604051602001610de3929190612a3e565b604051602081830303815290604052610e72565b603b60009054906101000a90046001600160a01b03166001600160a01b031663725fa09c6040518163ffffffff1660e01b8152600401600060405180830381865afa158015610e4a573d6000803e3d6000fd5b505050506040513d6000823e601f3d908101601f19168201604052610e729190810190612945565b91505090565b610e8181611932565b610ecd5760405162461bcd60e51b815260206004820152601a60248201527f43544d33353235583a20696e76616c696420746f6b656e204944000000000000604482015260640161067d565b50565b600081815260396020526040902054603880548492908110610ef457610ef46128ac565b6000918252602090912060069091020160040180546001600160a01b0319166001600160a01b0392831617905581908316610f2e82610a2a565b6001600160a01b03167f8c5be1e5ebec7d5bd14f71427d1e84f3dd0314c0f7b2291e5b200ac8c7c3b92560405160405180910390a45050565b60606000610f748361197e565b600101905060008167ffffffffffffffff811115610f9457610f94612702565b6040519080825280601f01601f191660200182016040528015610fbe576020820181803683370190505b5090508181016020015b600019016f181899199a1a9b1b9c1cb0b131b232b360811b600a86061a8153600a8504945084610fc857509392505050565b60006110068385610d4a565b905061101284846114be565b15801561102157506000198114155b15610c0d57818110156110765760405162461bcd60e51b815260206004820181905260248201527f43544d33353235583a20696e73756666696369656e7420616c6c6f77616e6365604482015260640161067d565b610c0d83856110858585612a98565b6116a5565b6000610555611a56565b6001600160a01b0384166110f55760405162461bcd60e51b815260206004820152602260248201527f43544d33353235583a206d696e7420746f20746865207a65726f206164647265604482015261737360f01b606482015260840161067d565b826000036111505760405162461bcd60e51b815260206004820152602260248201527f43544d33353235583a2063616e6e6f74206d696e74207a65726f20746f6b656e604482015261125960f21b606482015260840161067d565b61115983611932565b156111a65760405162461bcd60e51b815260206004820152601e60248201527f43544d33353235583a20746f6b656e20616c7265616479206d696e7465640000604482015260640161067d565b6111b1848484611a70565b6111bb8382611b36565b610c0d565b6111c983611932565b6112265760405162461bcd60e51b815260206004820152602860248201527f43544d33353235583a207472616e736665722066726f6d20696e76616c6964206044820152671d1bdad95b88125160c21b606482015260840161067d565b61122f82611932565b61128a5760405162461bcd60e51b815260206004820152602660248201527f43544d33353235583a207472616e7366657220746f20696e76616c696420746f6044820152651ad95b88125160d21b606482015260840161067d565b6000838152603960205260408120546038805490919081106112ae576112ae6128ac565b90600052602060002090600602019050600060386039600086815260200190815260200160002054815481106112e6576112e66128ac565b90600052602060002090600602019050828260020154101561135e5760405162461bcd60e51b815260206004820152602b60248201527f43544d33353235583a20696e73756666696369656e742062616c616e6365206660448201526a37b9103a3930b739b332b960a91b606482015260840161067d565b80600101548260010154146113cd5760405162461bcd60e51b815260206004820152602f60248201527f43544d33353235583a207472616e7366657220746f20746f6b656e207769746860448201526e08191a5999995c995b9d081cdb1bdd608a1b606482015260840161067d565b828260020160008282546113e19190612a98565b92505081905550828160020160008282546113fc9190612aab565b9091555050604051838152849086907f0b2aac84f3ec956911fd78eae5311062972ff949f38412e8da39069d9f068cc69060200160405180910390a361145385858560405180602001604052806000815250611bbb565b6114b75760405162461bcd60e51b815260206004820152602f60248201527f43544d33353235583a207472616e736665722072656a6563746564206279204360448201526e2a26999a991aac2932b1b2b4bb32b960891b606482015260840161067d565b5050505050565b6000806114ca83610a2a565b9050806001600160a01b0316846001600160a01b0316148061151557506001600160a01b038082166000908152603a60209081526040808320938816835260029093019052205460ff165b806115395750836001600160a01b031661152e846105ed565b6001600160a01b0316145b949350505050565b826001600160a01b031661155482610a2a565b6001600160a01b0316146115b85760405162461bcd60e51b815260206004820152602560248201527f43544d33353235583a207472616e736665722066726f6d20696e76616c69642060448201526437bbb732b960d91b606482015260840161067d565b6001600160a01b03821661161d5760405162461bcd60e51b815260206004820152602660248201527f43544d33353235583a207472616e7366657220746f20746865207a65726f206160448201526564647265737360d01b606482015260840161067d565b60006116288261087e565b9050600061163583610c22565b9050611642600084610ed0565b61164b83611d31565b6116558584611ddc565b61165f8484611efd565b82846001600160a01b0316866001600160a01b03167fddf252ad1be2c89b69c2b068fc378daa952ba7f163c4a11628f55a4df523b3ef60405160405180910390a46114b7565b6001600160a01b03821661170f5760405162461bcd60e51b815260206004820152602b60248201527f43544d33353235583a20617070726f76652076616c756520746f20746865207a60448201526a65726f206164647265737360a81b606482015260840161067d565b6117198284611f86565b61177f57600083815260396020526040902054603880549091908110611741576117416128ac565b60009182526020808320600692909202909101600501805460018101825590835291200180546001600160a01b0319166001600160a01b0384161790555b60008381526037602090815260408083206001600160a01b038616808552908352928190208490555183815285917f621b050de0ad08b51d19b48b3e6df75348c4de6bdd93e81b252ca62e28265b1b91015b60405180910390a3505050565b816001600160a01b0316836001600160a01b03160361183f5760405162461bcd60e51b815260206004820152601b60248201527f43544d33353235583a20617070726f766520746f2063616c6c65720000000000604482015260640161067d565b6001600160a01b038381166000818152603a602090815260408083209487168084526002909501825291829020805460ff191686151590811790915591519182527f17307eab39ab6107e8899845ad3d59bd9653f200f220920489ca2b5937696c3191016117d1565b6118b3848484611541565b6118bf84848484612059565b610c0d5760405162461bcd60e51b815260206004820152602860248201527f43544d33353235583a207472616e7366657220746f206e6f6e204552433732316044820152672932b1b2b4bb32b960c11b606482015260840161067d565b60606105556001600160a01b038316601461219f565b603854600090158015906105555750600082815260396020526040902054603880548492908110611965576119656128ac565b9060005260206000209060060201600001541492915050565b60008072184f03e93ff9f4daa797ed6e38ed64bf6a1f0160401b83106119bd5772184f03e93ff9f4daa797ed6e38ed64bf6a1f0160401b830492506040015b6d04ee2d6d415b85acef810000000083106119e9576d04ee2d6d415b85acef8100000000830492506020015b662386f26fc100008310611a0757662386f26fc10000830492506010015b6305f5e1008310611a1f576305f5e100830492506008015b6127108310611a3357612710830492506004015b60648310611a45576064830492506002015b600a83106105555760010192915050565b6036805460009182611a6783612abe565b91905055905090565b6040805160c081018252838152602080820184905260008284018190526001600160a01b038716606084015260808301819052835181815291820190935260a08201529050611abe8161233b565b611ac88484611efd565b60405183906001600160a01b038616906000907fddf252ad1be2c89b69c2b068fc378daa952ba7f163c4a11628f55a4df523b3ef908290a4816000847fe4f48c240d3b994948aa54f3e2f5fca59263dfe1d52b6e4cf39a5d249b5ccb6560405160405180910390a450505050565b600082815260396020526040902054603880548392908110611b5a57611b5a6128ac565b90600052602060002090600602016002016000828254611b7a9190612aab565b909155505060405181815282906000907f0b2aac84f3ec956911fd78eae5311062972ff949f38412e8da39069d9f068cc69060200160405180910390a35050565b600080611bc785610a2a565b9050803b63ffffffff1615611d25576040516301ffc9a760e01b81526301e9d27f60e31b60048201526001600160a01b038216906301ffc9a790602401602060405180830381865afa925050508015611c3d575060408051601f3d908101601f19168201909252611c3a91810190612ad7565b60015b611c7c573d808015611c6b576040519150601f19603f3d011682016040523d82523d6000602084013e611c70565b606091505b50600192505050611539565b8015611d1a576040516301e9d27f60e31b81526000906001600160a01b03841690630f4e93f890611cb99033908c908c908c908c90600401612af4565b6020604051808303816000875af1158015611cd8573d6000803e3d6000fd5b505050506040513d601f19601f82011682018060405250810190611cfc9190612b32565b6001600160e01b0319166301e9d27f60e31b14935061153992505050565b600192505050611539565b50600195945050505050565b600081815260396020526040812054603880549091908110611d5557611d556128ac565b600091825260208220600560069092020190810154909250905b81811015611dcd576000836005018281548110611d8e57611d8e6128ac565b60009182526020808320909101548783526037825260408084206001600160a01b03909216845291528120555080611dc581612abe565b915050611d6f565b5061071e60058301600061248d565b600081815260396020526040812054603880549091908110611e0057611e006128ac565b6000918252602080832060069290920290910160030180546001600160a01b0319166001600160a01b039485161790559184168152603a909152604081208054909190611e4f90600190612a98565b90506000826000018281548110611e6857611e686128ac565b90600052602060002001549050600083600101600086815260200190815260200160002054905081846000018281548110611ea557611ea56128ac565b60009182526020808320909101929092558381526001860190915260408082208390558682528120558354849080611edf57611edf612b4f565b60019003818190600052602060002001600090559055505050505050565b600081815260396020526040902054603880548492908110611f2157611f216128ac565b6000918252602080832060069290920290910160030180546001600160a01b0319166001600160a01b03948516179055939091168152603a80845260408083208054858552600182810188529285208190559286529082018155825292902090910155565b600081815260396020526040812054603880548392908110611faa57611faa6128ac565b6000918252602082206005600690920201015491505b8181101561204e57600084815260396020526040902054603880546001600160a01b03881692908110611ff557611ff56128ac565b90600052602060002090600602016005018281548110612017576120176128ac565b6000918252602090912001546001600160a01b03160361203c57600192505050610555565b8061204681612abe565b915050611fc0565b506000949350505050565b6000833b63ffffffff161561219757604051630a85bd0160e11b81526001600160a01b0385169063150b7a029061209a903390899088908890600401612b65565b6020604051808303816000875af19250505080156120d5575060408051601f3d908101601f191682019092526120d291810190612b32565b60015b61217d573d808015612103576040519150601f19603f3d011682016040523d82523d6000602084013e612108565b606091505b5080516000036121755760405162461bcd60e51b815260206004820152603260248201527f4552433732313a207472616e7366657220746f206e6f6e20455243373231526560448201527131b2b4bb32b91034b6b83632b6b2b73a32b960711b606482015260840161067d565b805181602001fd5b6001600160e01b031916630a85bd0160e11b149050611539565b506001611539565b606060006121ae836002612ba2565b6121b9906002612aab565b67ffffffffffffffff8111156121d1576121d1612702565b6040519080825280601f01601f1916602001820160405280156121fb576020820181803683370190505b509050600360fc1b81600081518110612216576122166128ac565b60200101906001600160f81b031916908160001a905350600f60fb1b81600181518110612245576122456128ac565b60200101906001600160f81b031916908160001a9053506000612269846002612ba2565b612274906001612aab565b90505b60018111156122ec576f181899199a1a9b1b9c1cb0b131b232b360811b85600f16601081106122a8576122a86128ac565b1a60f81b8282815181106122be576122be6128ac565b60200101906001600160f81b031916908160001a90535060049490941c936122e581612bb9565b9050612277565b50831561080e5760405162461bcd60e51b815260206004820181905260248201527f537472696e67733a20686578206c656e67746820696e73756666696369656e74604482015260640161067d565b603880548251600090815260396020908152604080832084905560018401855593909152835160069092027f38395c5dceade9603479b177b68959049485df8aa97b39f3533039af5f4561998101928355818501517f38395c5dceade9603479b177b68959049485df8aa97b39f3533039af5f45619a820155928401517f38395c5dceade9603479b177b68959049485df8aa97b39f3533039af5f45619b84015560608401517f38395c5dceade9603479b177b68959049485df8aa97b39f3533039af5f45619c840180546001600160a01b039283166001600160a01b03199182161790915560808601517f38395c5dceade9603479b177b68959049485df8aa97b39f3533039af5f45619d8601805491909316911617905560a084015180518594610c0d937f38395c5dceade9603479b177b68959049485df8aa97b39f3533039af5f45619e9091019201906124ab565b5080546000825590600052602060002090810190610ecd9190612510565b828054828255906000526020600020908101928215612500579160200282015b8281111561250057825182546001600160a01b0319166001600160a01b039091161782556020909201916001909101906124cb565b5061250c929150612510565b5090565b5b8082111561250c5760008155600101612511565b6001600160e01b031981168114610ecd57600080fd5b60006020828403121561254d57600080fd5b813561080e81612525565b60005b8381101561257357818101518382015260200161255b565b50506000910152565b60008151808452612594816020860160208601612558565b601f01601f19169290920160200192915050565b60208152600061080e602083018461257c565b6000602082840312156125cd57600080fd5b5035919050565b80356001600160a01b0381168114610ac557600080fd5b600080604083850312156125fe57600080fd5b612607836125d4565b946020939093013593505050565b60008060006060848603121561262a57600080fd5b8335925061263a602085016125d4565b9150604084013590509250925092565b60008060006060848603121561265f57600080fd5b612668846125d4565b925061263a602085016125d4565b60008060006060848603121561268b57600080fd5b505081359360208301359350604090920135919050565b6000602082840312156126b457600080fd5b61080e826125d4565b8015158114610ecd57600080fd5b600080604083850312156126de57600080fd5b6126e7836125d4565b915060208301356126f7816126bd565b809150509250929050565b634e487b7160e01b600052604160045260246000fd5b604051601f8201601f1916810167ffffffffffffffff8111828210171561274157612741612702565b604052919050565b600067ffffffffffffffff82111561276357612763612702565b50601f01601f191660200190565b6000806000806080858703121561278757600080fd5b612790856125d4565b935061279e602086016125d4565b925060408501359150606085013567ffffffffffffffff8111156127c157600080fd5b8501601f810187136127d257600080fd5b80356127e56127e082612749565b612718565b8181528860208385010111156127fa57600080fd5b8160208401602083013760006020838301015280935050505092959194509250565b6000806040838503121561282f57600080fd5b8235915061283f602084016125d4565b90509250929050565b6000806040838503121561285b57600080fd5b612864836125d4565b915061283f602084016125d4565b600181811c9082168061288657607f821691505b6020821081036128a657634e487b7160e01b600052602260045260246000fd5b50919050565b634e487b7160e01b600052603260045260246000fd5b60208082526023908201527f43544d33353235583a20617070726f76616c20746f2063757272656e74206f776040820152623732b960e91b606082015260800190565b60008351612917818460208801612558565b64736c6f742f60d81b9083019081528351612939816005840160208801612558565b01600501949350505050565b60006020828403121561295757600080fd5b815167ffffffffffffffff81111561296e57600080fd5b8201601f8101841361297f57600080fd5b805161298d6127e082612749565b8181528560208385010111156129a257600080fd5b6129b3826020830160208601612558565b95945050505050565b60208082526033908201527f43544d33353235583a207472616e736665722063616c6c6572206973206e6f74604082015272081bdddb995c881b9bdc88185c1c1c9bdd9959606a1b606082015260800190565b60008351612a21818460208801612558565b835190830190612a35818360208801612558565b01949350505050565b60008351612a50818460208801612558565b68636f6e74726163742f60b81b9083019081528351612a76816009840160208801612558565b01600901949350505050565b634e487b7160e01b600052601160045260246000fd5b8181038181111561055557610555612a82565b8082018082111561055557610555612a82565b600060018201612ad057612ad0612a82565b5060010190565b600060208284031215612ae957600080fd5b815161080e816126bd565b60018060a01b038616815284602082015283604082015282606082015260a060808201526000612b2760a083018461257c565b979650505050505050565b600060208284031215612b4457600080fd5b815161080e81612525565b634e487b7160e01b600052603160045260246000fd5b6001600160a01b0385811682528416602082015260408101839052608060608201819052600090612b989083018461257c565b9695505050505050565b808202811582820484141761055557610555612a82565b600081612bc857612bc8612a82565b50600019019056fea26469706673582212206ef3d030f7a37877f1685e129ba9e3ba989b673f1d108da94e1e6f8a527e6aaf64736f6c63430008140033",
  "linkReferences": {},
  "deployedLinkReferences": {}
}