{
  "_format": "hh-sol-artifact-1",
  "contractName": "FeeManager",
  "sourceName": "contracts/FeeManager.sol",
  "abi": [
    {
      "inputs": [
        {
          "internalType": "address",
          "name": "_gov",
          "type": "address"
        },
        {
          "internalType": "address",
          "name": "_c3callerProxy",
          "type": "address"
        },
        {
          "internalType": "address",
          "name": "_txSender",
          "type": "address"
        },
        {
          "internalType": "uint256",
          "name": "_dappID",
          "type": "uint256"
        }
      ],
      "stateMutability": "nonpayable",
      "type": "constructor"
    },
    {
      "anonymous": false,
      "inputs": [
        {
          "indexed": true,
          "internalType": "address",
          "name": "_feeToken",
          "type": "address"
        }
      ],
      "name": "AddFeeToken",
      "type": "event"
    },
    {
      "anonymous": false,
      "inputs": [
        {
          "indexed": true,
          "internalType": "address",
          "name": "_feeToken",
          "type": "address"
        }
      ],
      "name": "DelFeeToken",
      "type": "event"
    },
    {
      "anonymous": false,
      "inputs": [
        {
          "indexed": true,
          "internalType": "address",
          "name": "oldGov",
          "type": "address"
        },
        {
          "indexed": true,
          "internalType": "address",
          "name": "newGov",
          "type": "address"
        },
        {
          "indexed": true,
          "internalType": "uint256",
          "name": "effectiveTime",
          "type": "uint256"
        },
        {
          "indexed": false,
          "internalType": "uint256",
          "name": "chainID",
          "type": "uint256"
        }
      ],
      "name": "LogChangeGov",
      "type": "event"
    },
    {
      "anonymous": false,
      "inputs": [
        {
          "indexed": true,
          "internalType": "address",
          "name": "txSender",
          "type": "address"
        },
        {
          "indexed": false,
          "internalType": "bool",
          "name": "vaild",
          "type": "bool"
        }
      ],
      "name": "LogTxSender",
      "type": "event"
    },
    {
      "anonymous": false,
      "inputs": [
        {
          "indexed": false,
          "internalType": "address",
          "name": "_oldFeeToken",
          "type": "address"
        },
        {
          "indexed": false,
          "internalType": "address",
          "name": "_recipient",
          "type": "address"
        },
        {
          "indexed": false,
          "internalType": "uint256",
          "name": "_oldTokenContractBalance",
          "type": "uint256"
        }
      ],
      "name": "Withdrawal",
      "type": "event"
    },
    {
      "inputs": [],
      "name": "FROM_CHAIN_PAY",
      "outputs": [
        {
          "internalType": "uint256",
          "name": "",
          "type": "uint256"
        }
      ],
      "stateMutability": "view",
      "type": "function"
    },
    {
      "inputs": [],
      "name": "TO_CHAIN_PAY",
      "outputs": [
        {
          "internalType": "uint256",
          "name": "",
          "type": "uint256"
        }
      ],
      "stateMutability": "view",
      "type": "function"
    },
    {
      "inputs": [
        {
          "internalType": "address",
          "name": "_feeToken",
          "type": "address"
        }
      ],
      "name": "addFeeToken",
      "outputs": [
        {
          "internalType": "bool",
          "name": "",
          "type": "bool"
        }
      ],
      "stateMutability": "nonpayable",
      "type": "function"
    },
    {
      "inputs": [
        {
          "internalType": "address",
          "name": "txSender",
          "type": "address"
        }
      ],
      "name": "addTxSender",
      "outputs": [],
      "stateMutability": "nonpayable",
      "type": "function"
    },
    {
      "inputs": [],
      "name": "c3CallerProxy",
      "outputs": [
        {
          "internalType": "address",
          "name": "",
          "type": "address"
        }
      ],
      "stateMutability": "view",
      "type": "function"
    },
    {
      "inputs": [
        {
          "internalType": "uint256",
          "name": "_dappID",
          "type": "uint256"
        },
        {
          "internalType": "bytes",
          "name": "_data",
          "type": "bytes"
        },
        {
          "internalType": "bytes",
          "name": "_reason",
          "type": "bytes"
        }
      ],
      "name": "c3Fallback",
      "outputs": [
        {
          "internalType": "bool",
          "name": "",
          "type": "bool"
        }
      ],
      "stateMutability": "nonpayable",
      "type": "function"
    },
    {
      "inputs": [
        {
          "internalType": "address",
          "name": "newGov",
          "type": "address"
        }
      ],
      "name": "changeGov",
      "outputs": [],
      "stateMutability": "nonpayable",
      "type": "function"
    },
    {
      "inputs": [],
      "name": "dappID",
      "outputs": [
        {
          "internalType": "uint256",
          "name": "",
          "type": "uint256"
        }
      ],
      "stateMutability": "view",
      "type": "function"
    },
    {
      "inputs": [
        {
          "internalType": "address",
          "name": "_feeToken",
          "type": "address"
        }
      ],
      "name": "delFeeToken",
      "outputs": [
        {
          "internalType": "bool",
          "name": "",
          "type": "bool"
        }
      ],
      "stateMutability": "nonpayable",
      "type": "function"
    },
    {
      "inputs": [],
      "name": "delay",
      "outputs": [
        {
          "internalType": "uint256",
          "name": "",
          "type": "uint256"
        }
      ],
      "stateMutability": "view",
      "type": "function"
    },
    {
      "inputs": [
        {
          "internalType": "address",
          "name": "txSender",
          "type": "address"
        }
      ],
      "name": "disableTxSender",
      "outputs": [],
      "stateMutability": "nonpayable",
      "type": "function"
    },
    {
      "inputs": [
        {
          "internalType": "string",
          "name": "_to",
          "type": "string"
        },
        {
          "internalType": "string",
          "name": "_toChainID",
          "type": "string"
        },
        {
          "internalType": "bytes",
          "name": "_data",
          "type": "bytes"
        }
      ],
      "name": "doGov",
      "outputs": [],
      "stateMutability": "nonpayable",
      "type": "function"
    },
    {
      "inputs": [
        {
          "internalType": "string[]",
          "name": "_targets",
          "type": "string[]"
        },
        {
          "internalType": "string[]",
          "name": "_toChainIDs",
          "type": "string[]"
        },
        {
          "internalType": "bytes",
          "name": "_data",
          "type": "bytes"
        }
      ],
      "name": "doGovBroadcast",
      "outputs": [],
      "stateMutability": "nonpayable",
      "type": "function"
    },
    {
      "inputs": [
        {
          "internalType": "address",
          "name": "",
          "type": "address"
        }
      ],
      "name": "feeParams",
      "outputs": [
        {
          "internalType": "uint256",
          "name": "basePrice",
          "type": "uint256"
        },
        {
          "internalType": "uint256",
          "name": "lowGas",
          "type": "uint256"
        },
        {
          "internalType": "uint256",
          "name": "normalGas",
          "type": "uint256"
        },
        {
          "internalType": "uint256",
          "name": "highGas",
          "type": "uint256"
        },
        {
          "internalType": "uint256",
          "name": "veryHighGas",
          "type": "uint256"
        },
        {
          "internalType": "uint256",
          "name": "lowGasFee",
          "type": "uint256"
        },
        {
          "internalType": "uint256",
          "name": "normalGasFee",
          "type": "uint256"
        },
        {
          "internalType": "uint256",
          "name": "highGasFee",
          "type": "uint256"
        },
        {
          "internalType": "uint256",
          "name": "veryHighGasFee",
          "type": "uint256"
        }
      ],
      "stateMutability": "view",
      "type": "function"
    },
    {
      "inputs": [
        {
          "internalType": "address",
          "name": "",
          "type": "address"
        }
      ],
      "name": "feeTokenIndexMap",
      "outputs": [
        {
          "internalType": "uint256",
          "name": "",
          "type": "uint256"
        }
      ],
      "stateMutability": "view",
      "type": "function"
    },
    {
      "inputs": [
        {
          "internalType": "uint256",
          "name": "",
          "type": "uint256"
        }
      ],
      "name": "feeTokenList",
      "outputs": [
        {
          "internalType": "address",
          "name": "",
          "type": "address"
        }
      ],
      "stateMutability": "view",
      "type": "function"
    },
    {
      "inputs": [
        {
          "internalType": "address",
          "name": "feeToken",
          "type": "address"
        }
      ],
      "name": "getFeeTokenIndexMap",
      "outputs": [
        {
          "internalType": "uint256",
          "name": "",
          "type": "uint256"
        }
      ],
      "stateMutability": "view",
      "type": "function"
    },
    {
      "inputs": [],
      "name": "getFeeTokenList",
      "outputs": [
        {
          "internalType": "address[]",
          "name": "",
          "type": "address[]"
        }
      ],
      "stateMutability": "view",
      "type": "function"
    },
    {
      "inputs": [
        {
          "internalType": "address",
          "name": "_feeToken",
          "type": "address"
        }
      ],
      "name": "getFeeTokenParams",
      "outputs": [
        {
          "components": [
            {
              "internalType": "uint256",
              "name": "basePrice",
              "type": "uint256"
            },
            {
              "internalType": "uint256",
              "name": "lowGas",
              "type": "uint256"
            },
            {
              "internalType": "uint256",
              "name": "normalGas",
              "type": "uint256"
            },
            {
              "internalType": "uint256",
              "name": "highGas",
              "type": "uint256"
            },
            {
              "internalType": "uint256",
              "name": "veryHighGas",
              "type": "uint256"
            },
            {
              "internalType": "uint256",
              "name": "lowGasFee",
              "type": "uint256"
            },
            {
              "internalType": "uint256",
              "name": "normalGasFee",
              "type": "uint256"
            },
            {
              "internalType": "uint256",
              "name": "highGasFee",
              "type": "uint256"
            },
            {
              "internalType": "uint256",
              "name": "veryHighGasFee",
              "type": "uint256"
            }
          ],
          "internalType": "struct FeeManager.FeeParams",
          "name": "",
          "type": "tuple"
        }
      ],
      "stateMutability": "view",
      "type": "function"
    },
    {
      "inputs": [
        {
          "internalType": "string",
          "name": "fromChainIDStr",
          "type": "string"
        },
        {
          "internalType": "address",
          "name": "feeToken",
          "type": "address"
        }
      ],
      "name": "getFromChainFee",
      "outputs": [
        {
          "internalType": "uint256",
          "name": "",
          "type": "uint256"
        }
      ],
      "stateMutability": "view",
      "type": "function"
    },
    {
      "inputs": [
        {
          "internalType": "uint256",
          "name": "toChainId",
          "type": "uint256"
        },
        {
          "internalType": "address",
          "name": "feeToken",
          "type": "address"
        }
      ],
      "name": "getGasFee",
      "outputs": [
        {
          "internalType": "uint256",
          "name": "",
          "type": "uint256"
        }
      ],
      "stateMutability": "view",
      "type": "function"
    },
    {
      "inputs": [
        {
          "internalType": "string",
          "name": "toChainIDStr",
          "type": "string"
        },
        {
          "internalType": "address",
          "name": "feeToken",
          "type": "address"
        }
      ],
      "name": "getToChainFee",
      "outputs": [
        {
          "internalType": "uint256",
          "name": "",
          "type": "uint256"
        }
      ],
      "stateMutability": "view",
      "type": "function"
    },
    {
      "inputs": [
        {
          "internalType": "string",
          "name": "fromChainIDStr",
          "type": "string"
        },
        {
          "internalType": "string",
          "name": "toChainIDStr",
          "type": "string"
        },
        {
          "internalType": "address",
          "name": "feeToken",
          "type": "address"
        }
      ],
      "name": "getXChainFee",
      "outputs": [
        {
          "internalType": "uint256",
          "name": "",
          "type": "uint256"
        }
      ],
      "stateMutability": "view",
      "type": "function"
    },
    {
      "inputs": [],
      "name": "gov",
      "outputs": [
        {
          "internalType": "address",
          "name": "",
          "type": "address"
        }
      ],
      "stateMutability": "view",
      "type": "function"
    },
    {
      "inputs": [
        {
          "internalType": "address",
          "name": "txSender",
          "type": "address"
        }
      ],
      "name": "isValidSender",
      "outputs": [
        {
          "internalType": "bool",
          "name": "",
          "type": "bool"
        }
      ],
      "stateMutability": "view",
      "type": "function"
    },
    {
      "inputs": [
        {
          "internalType": "uint256",
          "name": "fee",
          "type": "uint256"
        },
        {
          "internalType": "address",
          "name": "feeToken",
          "type": "address"
        }
      ],
      "name": "payFee",
      "outputs": [
        {
          "internalType": "uint256",
          "name": "",
          "type": "uint256"
        }
      ],
      "stateMutability": "nonpayable",
      "type": "function"
    },
    {
      "inputs": [
        {
          "internalType": "uint256",
          "name": "_delay",
          "type": "uint256"
        }
      ],
      "name": "setDelay",
      "outputs": [],
      "stateMutability": "nonpayable",
      "type": "function"
    },
    {
      "inputs": [
        {
          "internalType": "string",
          "name": "srcChainIDStr",
          "type": "string"
        },
        {
          "internalType": "string",
          "name": "dstChainIDStr",
          "type": "string"
        },
        {
          "internalType": "uint256",
          "name": "payFrom",
          "type": "uint256"
        },
        {
          "internalType": "address[]",
          "name": "feetokens",
          "type": "address[]"
        },
        {
          "internalType": "uint256[]",
          "name": "fee",
          "type": "uint256[]"
        }
      ],
      "name": "setFeeConfig",
      "outputs": [
        {
          "internalType": "bool",
          "name": "",
          "type": "bool"
        }
      ],
      "stateMutability": "nonpayable",
      "type": "function"
    },
    {
      "inputs": [
        {
          "internalType": "address",
          "name": "_feeToken",
          "type": "address"
        },
        {
          "components": [
            {
              "internalType": "uint256",
              "name": "basePrice",
              "type": "uint256"
            },
            {
              "internalType": "uint256",
              "name": "lowGas",
              "type": "uint256"
            },
            {
              "internalType": "uint256",
              "name": "normalGas",
              "type": "uint256"
            },
            {
              "internalType": "uint256",
              "name": "highGas",
              "type": "uint256"
            },
            {
              "internalType": "uint256",
              "name": "veryHighGas",
              "type": "uint256"
            },
            {
              "internalType": "uint256",
              "name": "lowGasFee",
              "type": "uint256"
            },
            {
              "internalType": "uint256",
              "name": "normalGasFee",
              "type": "uint256"
            },
            {
              "internalType": "uint256",
              "name": "highGasFee",
              "type": "uint256"
            },
            {
              "internalType": "uint256",
              "name": "veryHighGasFee",
              "type": "uint256"
            }
          ],
          "internalType": "struct FeeManager.FeeParams",
          "name": "fee",
          "type": "tuple"
        }
      ],
      "name": "setFeeTokenParams",
      "outputs": [
        {
          "internalType": "bool",
          "name": "",
          "type": "bool"
        }
      ],
      "stateMutability": "nonpayable",
      "type": "function"
    },
    {
      "inputs": [
        {
          "internalType": "address",
          "name": "feeToken",
          "type": "address"
        },
        {
          "internalType": "uint256",
          "name": "amount",
          "type": "uint256"
        }
      ],
      "name": "withdrawFee",
      "outputs": [
        {
          "internalType": "bool",
          "name": "",
          "type": "bool"
        }
      ],
      "stateMutability": "nonpayable",
      "type": "function"
    }
  ],
  "bytecode": "0x608034620000d857601f62001f1a38819003918201601f19168301916001600160401b03831184841017620000dd57808492608094604052833981010312620000d8576200004d81620000f3565b906200005c60208201620000f3565b60606200006c60408401620000f3565b92015160018060a01b039384918260018060a01b031994168460005416176000556001556202a3006002551690818160035416176003556004541617600455426005551660005260066020526040600020600160ff19825416179055604051611e119081620001098239f35b600080fd5b634e487b7160e01b600052604160045260246000fd5b51906001600160a01b0382168203620000d85756fe608080604052600436101561001357600080fd5b60009060e08235811c91826312d43a511461184b575081631587c1e8146118075781631f300b8f1461177557816325f076df146116aa5781633558879e1461158e5781633bdde5f4146115725781633f57d8511461154357816353ecc8b514610ec75781635865233b1461144557816358f2c0571461141e5781636a42b8f8146114005781636d6f096114610f00578163a36d450514610ec7578163a6e30bb314610dbb57508063a962ef1e14610ca8578063aa2eded214610bbe578063ab81334d14610a2b578063b121f51d146108d6578063c497971f1461089f578063c516ad1114610881578063d60ad41b14610749578063dc39df7414610711578063dd64b3e6146105aa578063e177246e14610558578063e28ab27714610492578063eb77f2ad14610476578063eebd14af146103dd578063f01f2b8b1461039e578063f9e4cbaf146103095763fd9be5221461016d57600080fd5b34610306576040366003190112610306576101866118c2565b60243591906001600160a01b038061019c611d32565b16331480156102f2575b6101af90611ac0565b839116906040516370a0823160e01b81523060048201526020948582602481875afa9182156102e7579186939186959386926102a8575b50906044929181106102a0575b50604051948593849263a9059cbb60e01b845233600485015260248401525af19182156102945791610267575b501561022f5760405160018152f35b6064906040519062461bcd60e51b82526004820152601160248201527011934e881d1c985b9cd9995c8819985a5b607a1b6044820152fd5b6102879150823d841161028d575b61027f8183611938565b810190611bc3565b38610220565b503d610275565b604051903d90823e3d90fd5b9050386101f3565b929483919496508092503d83116102e0575b6102c48183611938565b810103126102dc5785928594926044925191926101e6565b8480fd5b503d6102ba565b6040513d87823e3d90fd5b506101af6102ff33611ccc565b90506101a6565b80fd5b5034610306576020366003190112610306576103236118c2565b6001600160a01b039081610335611d32565b163314801561038a575b61034890611ac0565b1680825260066020526040822060ff1981541690557fbfb8b3e2f6221ae729e9cacb0d35f5d9be686ba10cb1d4e34b646bbb87f7a2696020604051848152a280f35b5061034861039733611ccc565b905061033f565b50346103065760203660031901126103065760209060ff906040906001600160a01b036103c96118c2565b168152600684522054166040519015158152f35b5034610306576020366003190112610306576103f76118c2565b6001600160a01b039081610409611d32565b1633148015610462575b61041c90611ac0565b16808252600660205260408220600160ff198254161790557fbfb8b3e2f6221ae729e9cacb0d35f5d9be686ba10cb1d4e34b646bbb87f7a269602060405160018152a280f35b5061041c61046f33611ccc565b9050610413565b5034610306578060031936011261030657602060405160028152f35b503461030657806003193601126103065760405180916007549081835260208093018092600783527fa66cc928b5edb82af9bd49922954155ab7b0942694bea4ce44661d9a8736c68890835b81811061053b57505050846104f4910385611938565b60405193838594850191818652518092526040850193925b82811061051b57505050500390f35b83516001600160a01b03168552869550938101939281019260010161050c565b82546001600160a01b0316845292860192600192830192016104de565b5034610306576020366003190112610306576001600160a01b0361057a611d32565b1633148015610596575b61058d90611ac0565b60043560025580f35b5061058d6105a333611ccc565b9050610584565b50346103065760031990606036830112610306576001600160401b0360043581811161070d576105de903690600401611a40565b92602435828111610709576105f7903690600401611a40565b9160443590811161070957610610903690600401611974565b6001600160a01b039485610622611d32565b16331480156106f5575b61063590611ac0565b80518451036106d65784958554169060015493823b156106d25786946106a68692610687966106976040519a8b998a98899763ec6a8b7d60e01b89526004890152608060248901526084880190611d7f565b9084878303016044880152611d7f565b91848303016064850152611d5a565b03925af180156106c7576106b75750f35b6106c090611925565b6103065780f35b6040513d84823e3d90fd5b8680fd5b60405162461bcd60e51b81526020600482015260248101869052604490fd5b5061063561070233611ccc565b905061062c565b8380fd5b8280fd5b50346103065761072a610723366119ff565b9190611b9d565b9060018060a01b03166000526020526020604060002054604051908152f35b50346103065760031960603682011261087d57816001600160401b0360043581811161070d5761077d903690600401611974565b9060243581811161070957610796903690600401611974565b90604435908111610709576107af903690600401611974565b906001600160a01b03806107c1611d32565b1633148015610869575b6107d490611ac0565b8454169160015491833b156108655761081b968661083b819461082b6020956040519c8d9b8c9a6304f4c7fb60e31b8c5260048c015260a060248c015260a48b0190611d5a565b90868a83030160448b0152611d5a565b9084888303016064890152611d5a565b85810392830160848701525201925af180156106c757610859575080f35b61086290611925565b80f35b8580fd5b506107d461087633611ccc565b90506107cb565b5080fd5b50346103065780600319360112610306576020600154604051908152f35b50346103065760406020916108bd6108b6366119ff565b9190611b77565b6001600160a01b03909116825283522054604051908152f35b503461030657606036600319011261030657806001600160401b03602435818111610a27576109099036906004016119d2565b9160443591508111610a27576109239036906004016119d2565b50508154604051631eb01f7360e21b815233600482015260209490918591839160249183916001600160a01b03165af1908115610a1c5783916109ff575b50156109ba576001546004350361098357600411610306575060405160018152f35b60405162461bcd60e51b815260048101849052600f60248201526e0c8c2e0e0928840c8d2e6dac2e8c6d608b1b6044820152606490fd5b60405162461bcd60e51b815260048101849052601860248201527f433343616c6c6572446170703a206f6e6c7943616c6c657200000000000000006044820152606490fd5b610a169150843d861161028d5761027f8183611938565b38610961565b6040513d85823e3d90fd5b5050fd5b5034610306576020908160031936011261030657610a476118c2565b6001600160a01b0390819081610a5b611d32565b1633148015610baa575b610a6e90611ac0565b169081835260088452604083205415610b6f578183526008845260408320546007549091818303610ad157505050610aa4611afc565b7fe17b67df49a97a5c46e1b0225f0c262cd3ce94c1c47aca1e171d3787f136ace86040519280a260018152f35b60001991808301908111610b5b57610ae890611875565b90549060031b1c1690610af9611afc565b8201828111610b475781610b0f610b2e92611875565b90919082549060031b9160018060a01b03809116831b921b1916179055565b8352600884526040832055808252816040812055610aa4565b634e487b7160e01b85526011600452602485fd5b634e487b7160e01b86526011600452602486fd5b60405162461bcd60e51b815260048101859052601360248201527211934e881d1bdad95b881b9bdd08195e1a5cdd606a1b6044820152606490fd5b50610a6e610bb733611ccc565b9050610a65565b503461030657602036600319011261030657610bd86118c2565b906001600160a01b0380610bea611d32565b1633148015610c94575b610bfd90611ac0565b6007549068010000000000000000821015610c805760018201809281600755610c2986610b0f83611875565b11610c6c5760209316908183526008845260408320557f1394cfab38f3fc78ed77ea6f9318782a446d96e7dc8e9a6b0149f6be25c08bcf6040519280a260018152f35b634e487b7160e01b83526011600452602483fd5b634e487b7160e01b83526041600452602483fd5b50610bfd610ca133611ccc565b9050610bf4565b503461030657602036600319011261030657610cc26118c2565b6001600160a01b0390819081610cd6611d32565b1633148015610da7575b610ce990611ac0565b16908115610d7057610cf9611d32565b1690806bffffffffffffffffffffffff60a01b838160035416176003556004541617600455600254420191824211610d5c57826005557f4552e521eca39a029d33503b3e2003db87de01f8396f9e3fdd9dddddb9b838b46020604051468152a480f35b634e487b7160e01b84526011600452602484fd5b60405162461bcd60e51b815260206004820152600f60248201526e6e6577476f7620697320656d70747960881b6044820152606490fd5b50610ce9610db433611ccc565b9050610ce0565b90503461087d5761014036600319011261087d57610dd76118c2565b61012036602319011261070d5760405192600892610df4856118f3565b6024358552602085016044358152604086016064358152606087016084358152608088019160a435835260a089019360c4358552604060c08b019660e43588528b01976101043589526101008c0199610124358b5260018060a01b039081610e5a611d32565b1633148015610eb3575b610e6d90611ac0565b16815260096020522099518a555160018a015551600289015551600388015551600487015551600586015551600685015551600784015551910155602060405160018152f35b50610e6d610ec033611ccc565b9050610e64565b8234610306576020366003190112610306576020906040906001600160a01b03610eef6118c2565b168152600883522054604051908152f35b82346103065760a0366003190112610306576001600160401b039060043582811161087d57610f33903690600401611974565b60243583811161070d57610f4b903690600401611974565b90606435908482116107095736602383011215610709578160040135610f70816119bb565b92610f7e6040519485611938565b8184526024602085019260051b820101903682116106d257602401915b8183106113dc57505050608435948511610709573660238601121561070957846004013594610fc9866119bb565b95610fd76040519788611938565b8087526024602088019160051b830101913683116106d257602401905b8282106113cc57506001600160a01b0391506110109050611d32565b16331480156113b8575b61102390611ac0565b51158015906113ae575b1561137557600160443514808015611369575b1561132e5781518551036112f15783945b82518610156112e6576001600160a01b0361106c8785611b40565b5116855260086020526040852054156112a1578493468072184f03e93ff9f4daa797ed6e38ed64bf6a1f0160401b81101561127e575b600a906d04ee2d6d415b85acef810000000080821015611271575b50662386f26fc1000080821015611264575b506305f5e10080821015611257575b506127108082101561124a575b50606481101561123c575b1015611232575b600a602161110d60018901611959565b9761111b604051998a611938565b60018101808a52601f199061112f90611959565b013660208b01378801015b60001901916f181899199a1a9b1b9c1cb0b131b232b360811b8282061a83530490811561116957600a9061113a565b505093959095826000146111d85761119b6020611186848a611b40565b51928160405193828580945193849201611b54565b600a908201908152030190206001600160a01b036111b98487611b40565b5116875260205260408620555b6000198114610b475760010194611051565b506002604435036111c6576111ed8187611b40565b5160405160208187516112038183858c01611b54565b600b908201908152030190206001600160a01b036112218487611b40565b5116875260205260408620556111c6565b94600101946110fd565b6064600291049701966110f6565b600491049701968a6110eb565b600891049701968a6110de565b601091049701968a6110cf565b602091049701968a6110bd565b506040955072184f03e93ff9f4daa797ed6e38ed64bf6a1f0160401b81046110a2565b60405162461bcd60e51b815260206004820152601c60248201527f464d3a2066656520746f6b656e20646f6573206e6f74206578697374000000006044820152606490fd5b602060405160018152f35b60405162461bcd60e51b8152602060048201526015602482015274464d3a20496e76616c6964206c6973742073697a6560581b6044820152606490fd5b60405162461bcd60e51b8152602060048201526013602482015272464d3a20496e76616c69642070617946726f6d60681b6044820152606490fd5b50600260443514611040565b60405162461bcd60e51b8152602060048201526011602482015270464d3a20436861696e494420656d70747960781b6044820152606490fd5b508151151561102d565b506110236113c533611ccc565b905061101a565b8135815260209182019101610ff4565b82356001600160a01b03811681036113fc57815260209283019201610f9b565b8780fd5b82346103065780600319360112610306576020600254604051908152f35b8234610306578060031936011261030657546040516001600160a01b039091168152602090f35b8234610306576060366003190112610306576001600160401b039060043582811161087d57611478903690600401611974565b9160243590811161087d57611491903690600401611974565b906044356001600160a01b0381169081900361087d57835115801590611539575b156114fb576114c2602094611b77565b818352845260408220549283156114df575b505050604051908152f35b604093506114ec90611b9d565b908252835220548280806114d4565b60405162461bcd60e51b815260206004820152601660248201527523269d1024b73b30b634b21031b430b4b724a229ba3960511b6044820152606490fd5b50825115156114b2565b823461030657604036600319011261030657602061156a6115626118dd565b600435611c04565b604051908152f35b8234610306578060031936011261030657602060405160018152f35b90503461087d57602036600319011261087d576101209160406115af6118c2565b918151926115bc846118f3565b81845281602085015281838501528160608501528160808501528160a08501528160c08501528185850152816101008095015260018060a01b03168152600960205220916040519061160d826118f3565b8354938483526001810154602084019081526002820154604085019081526003830154606086019081526004840154906080870191825260058501549260a0880193845260068601549460c089019586528960086007890154988a8c01998a52015499019889526040519a8b525160208b01525160408a01525160608901525160808801525160a08701525160c086015251908401525190820152f35b823461030657604036600319011261030657600435908060206001600160a01b036116d36118dd565b166064604051809481936323b872dd60e01b83523360048401523060248401528860448401525af19182156102945791611757575b501561171957602090604051908152f35b60405162461bcd60e51b815260206004820152601660248201527511934e88119959481c185e5b595b9d0819985a5b195960521b6044820152606490fd5b61176f915060203d811161028d5761027f8183611938565b82611708565b90503461087d57602036600319011261087d57610120916040906001600160a01b0361179f6118c2565b168152600960205220908154916001810154916002820154600383015460048401546005850154916006860154936008600788015497015497604051998a5260208a015260408901526060880152608087015260a086015260c0850152830152610100820152f35b8234610306576020366003190112610306576004359060075482101561030657602061183283611875565b905460405160039290921b1c6001600160a01b03168152f35b83903461087d578160031936011261087d576020906001600160a01b03611870611d32565b168152f35b6007548110156118ac5760076000527fa66cc928b5edb82af9bd49922954155ab7b0942694bea4ce44661d9a8736c6880190600090565b634e487b7160e01b600052603260045260246000fd5b600435906001600160a01b03821682036118d857565b600080fd5b602435906001600160a01b03821682036118d857565b61012081019081106001600160401b0382111761190f57604052565b634e487b7160e01b600052604160045260246000fd5b6001600160401b03811161190f57604052565b90601f801991011681019081106001600160401b0382111761190f57604052565b6001600160401b03811161190f57601f01601f191660200190565b81601f820112156118d85780359061198b82611959565b926119996040519485611938565b828452602083830101116118d857816000926020809301838601378301015290565b6001600160401b03811161190f5760051b60200190565b9181601f840112156118d8578235916001600160401b0383116118d857602083818601950101116118d857565b60406003198201126118d857600435906001600160401b0382116118d857611a2991600401611974565b906024356001600160a01b03811681036118d85790565b9080601f830112156118d857813590611a58826119bb565b92611a666040519485611938565b828452602092838086019160051b830101928084116118d857848301915b848310611a945750505050505090565b82356001600160401b0381116118d8578691611ab584848094890101611974565b815201920191611a84565b15611ac757565b60405162461bcd60e51b815260206004820152600d60248201526c23b7bb102327a92124a22222a760991b6044820152606490fd5b6007548015611b2a5760001901611b1281611875565b81549060018060a01b039060031b1b19169055600755565b634e487b7160e01b600052603160045260246000fd5b80518210156118ac5760209160051b010190565b60005b838110611b675750506000910152565b8181015183820152602001611b57565b6020611b90918160405193828580945193849201611b54565b8101600a81520301902090565b6020611bb6918160405193828580945193849201611b54565b8101600b81520301902090565b908160209103126118d8575180151581036118d85790565b81810292918115918404141715611bee57565b634e487b7160e01b600052601160045260246000fd5b6001600160a01b039091166000818152600960205260408120805491938215611cc557600103611cbf5760018101543a1015611c5b57505081604091611c5893526009602052206005815491015490611bdb565b90565b60028101543a1015611c8557505081604091611c5893526009602052206006815491015490611bdb565b60038101543a1015611caf57505081604091611c5893526009602052206007815491015490611bdb565b60080154611c5893509150611bdb565b50505090565b5050505090565b60008054604051631eb01f7360e21b81526001600160a01b039384166004820152926020928492602492849291165af1908115611d2657600091611d0e575090565b611c58915060203d811161028d5761027f8183611938565b6040513d6000823e3d90fd5b600554421015611d4b576003546001600160a01b031690565b6004546001600160a01b031690565b90602091611d7381518092818552858086019101611b54565b601f01601f1916010190565b908082519081815260208091019281808460051b8301019501936000915b848310611dad5750505050505090565b9091929394958480611dcb600193601f198682030187528a51611d5a565b9801930193019194939290611d9d56fea2646970667358221220bfeaaa5c31728ccc4cb489345017fdf20b0e18b6f1ca8123a39e1b1a8d39981f64736f6c63430008140033",
  "linkReferences": {},
  "deployedLinkReferences": {}
}