{
  "_format": "hh-sol-artifact-1",
  "contractName": "CTMRWA001TxFee",
  "sourceName": "contracts/mocks/CTMRWA001TxFee.sol",
  "abi": [
    {
      "inputs": [
        {
          "internalType": "string",
          "name": "name_",
          "type": "string"
        },
        {
          "internalType": "string",
          "name": "symbol_",
          "type": "string"
        },
        {
          "internalType": "uint8",
          "name": "decimals_",
          "type": "uint8"
        },
        {
          "internalType": "address",
          "name": "_ctmRwa001XChain",
          "type": "address"
        }
      ],
      "stateMutability": "nonpayable",
      "type": "constructor"
    },
    {
      "anonymous": false,
      "inputs": [
        {
          "indexed": true,
          "internalType": "address",
          "name": "_owner",
          "type": "address"
        },
        {
          "indexed": true,
          "internalType": "address",
          "name": "_approved",
          "type": "address"
        },
        {
          "indexed": true,
          "internalType": "uint256",
          "name": "_tokenId",
          "type": "uint256"
        }
      ],
      "name": "Approval",
      "type": "event"
    },
    {
      "anonymous": false,
      "inputs": [
        {
          "indexed": true,
          "internalType": "address",
          "name": "_owner",
          "type": "address"
        },
        {
          "indexed": true,
          "internalType": "address",
          "name": "_operator",
          "type": "address"
        },
        {
          "indexed": false,
          "internalType": "bool",
          "name": "_approved",
          "type": "bool"
        }
      ],
      "name": "ApprovalForAll",
      "type": "event"
    },
    {
      "anonymous": false,
      "inputs": [
        {
          "indexed": true,
          "internalType": "address",
          "name": "_owner",
          "type": "address"
        },
        {
          "indexed": true,
          "internalType": "uint256",
          "name": "_slot",
          "type": "uint256"
        },
        {
          "indexed": true,
          "internalType": "address",
          "name": "_operator",
          "type": "address"
        },
        {
          "indexed": false,
          "internalType": "bool",
          "name": "_approved",
          "type": "bool"
        }
      ],
      "name": "ApprovalForSlot",
      "type": "event"
    },
    {
      "anonymous": false,
      "inputs": [
        {
          "indexed": true,
          "internalType": "uint256",
          "name": "_tokenId",
          "type": "uint256"
        },
        {
          "indexed": true,
          "internalType": "address",
          "name": "_operator",
          "type": "address"
        },
        {
          "indexed": false,
          "internalType": "uint256",
          "name": "_value",
          "type": "uint256"
        }
      ],
      "name": "ApprovalValue",
      "type": "event"
    },
    {
      "anonymous": false,
      "inputs": [
        {
          "indexed": true,
          "internalType": "address",
          "name": "metadataDescriptor",
          "type": "address"
        }
      ],
      "name": "SetMetadataDescriptor",
      "type": "event"
    },
    {
      "anonymous": false,
      "inputs": [
        {
          "indexed": true,
          "internalType": "uint256",
          "name": "_tokenId",
          "type": "uint256"
        },
        {
          "indexed": true,
          "internalType": "uint256",
          "name": "_oldSlot",
          "type": "uint256"
        },
        {
          "indexed": true,
          "internalType": "uint256",
          "name": "_newSlot",
          "type": "uint256"
        }
      ],
      "name": "SlotChanged",
      "type": "event"
    },
    {
      "anonymous": false,
      "inputs": [
        {
          "indexed": true,
          "internalType": "address",
          "name": "_from",
          "type": "address"
        },
        {
          "indexed": true,
          "internalType": "address",
          "name": "_to",
          "type": "address"
        },
        {
          "indexed": true,
          "internalType": "uint256",
          "name": "_tokenId",
          "type": "uint256"
        }
      ],
      "name": "Transfer",
      "type": "event"
    },
    {
      "anonymous": false,
      "inputs": [
        {
          "indexed": true,
          "internalType": "uint256",
          "name": "_fromTokenId",
          "type": "uint256"
        },
        {
          "indexed": true,
          "internalType": "uint256",
          "name": "_toTokenId",
          "type": "uint256"
        },
        {
          "indexed": false,
          "internalType": "uint256",
          "name": "_value",
          "type": "uint256"
        }
      ],
      "name": "TransferValue",
      "type": "event"
    },
    {
      "inputs": [
        {
          "internalType": "address",
          "name": "_admin",
          "type": "address"
        },
        {
          "internalType": "string[]",
          "name": "_chainIdsStr",
          "type": "string[]"
        },
        {
          "internalType": "string[]",
          "name": "_contractAddrsStr",
          "type": "string[]"
        }
      ],
      "name": "addXTokenInfo",
      "outputs": [
        {
          "internalType": "bool",
          "name": "",
          "type": "bool"
        }
      ],
      "stateMutability": "nonpayable",
      "type": "function"
    },
    {
      "inputs": [],
      "name": "admin",
      "outputs": [
        {
          "internalType": "address",
          "name": "",
          "type": "address"
        }
      ],
      "stateMutability": "view",
      "type": "function"
    },
    {
      "inputs": [
        {
          "internalType": "uint256",
          "name": "tokenId_",
          "type": "uint256"
        },
        {
          "internalType": "address",
          "name": "operator_",
          "type": "address"
        }
      ],
      "name": "allowance",
      "outputs": [
        {
          "internalType": "uint256",
          "name": "",
          "type": "uint256"
        }
      ],
      "stateMutability": "view",
      "type": "function"
    },
    {
      "inputs": [
        {
          "internalType": "address",
          "name": "to_",
          "type": "address"
        },
        {
          "internalType": "uint256",
          "name": "tokenId_",
          "type": "uint256"
        }
      ],
      "name": "approve",
      "outputs": [],
      "stateMutability": "payable",
      "type": "function"
    },
    {
      "inputs": [
        {
          "internalType": "uint256",
          "name": "tokenId_",
          "type": "uint256"
        },
        {
          "internalType": "address",
          "name": "to_",
          "type": "address"
        },
        {
          "internalType": "uint256",
          "name": "value_",
          "type": "uint256"
        }
      ],
      "name": "approve",
      "outputs": [],
      "stateMutability": "payable",
      "type": "function"
    },
    {
      "inputs": [
        {
          "internalType": "address",
          "name": "to_",
          "type": "address"
        },
        {
          "internalType": "uint256",
          "name": "tokenId_",
          "type": "uint256"
        }
      ],
      "name": "approveFromX",
      "outputs": [],
      "stateMutability": "nonpayable",
      "type": "function"
    },
    {
      "inputs": [
        {
          "internalType": "address",
          "name": "owner_",
          "type": "address"
        }
      ],
      "name": "balanceOf",
      "outputs": [
        {
          "internalType": "uint256",
          "name": "balance",
          "type": "uint256"
        }
      ],
      "stateMutability": "view",
      "type": "function"
    },
    {
      "inputs": [
        {
          "internalType": "uint256",
          "name": "tokenId_",
          "type": "uint256"
        }
      ],
      "name": "balanceOf",
      "outputs": [
        {
          "internalType": "uint256",
          "name": "",
          "type": "uint256"
        }
      ],
      "stateMutability": "view",
      "type": "function"
    },
    {
      "inputs": [
        {
          "internalType": "uint256",
          "name": "tokenId_",
          "type": "uint256"
        }
      ],
      "name": "burn",
      "outputs": [],
      "stateMutability": "nonpayable",
      "type": "function"
    },
    {
      "inputs": [
        {
          "internalType": "uint256",
          "name": "tokenId_",
          "type": "uint256"
        },
        {
          "internalType": "uint256",
          "name": "burnValue_",
          "type": "uint256"
        }
      ],
      "name": "burnValue",
      "outputs": [],
      "stateMutability": "nonpayable",
      "type": "function"
    },
    {
      "inputs": [
        {
          "internalType": "uint256",
          "name": "fromTokenId_",
          "type": "uint256"
        },
        {
          "internalType": "uint256",
          "name": "value_",
          "type": "uint256"
        }
      ],
      "name": "burnValueX",
      "outputs": [
        {
          "internalType": "bool",
          "name": "",
          "type": "bool"
        }
      ],
      "stateMutability": "nonpayable",
      "type": "function"
    },
    {
      "inputs": [
        {
          "internalType": "address",
          "name": "_admin",
          "type": "address"
        }
      ],
      "name": "changeAdmin",
      "outputs": [
        {
          "internalType": "bool",
          "name": "",
          "type": "bool"
        }
      ],
      "stateMutability": "nonpayable",
      "type": "function"
    },
    {
      "inputs": [
        {
          "internalType": "address",
          "name": "_admin",
          "type": "address"
        }
      ],
      "name": "changeAdminX",
      "outputs": [
        {
          "internalType": "bool",
          "name": "",
          "type": "bool"
        }
      ],
      "stateMutability": "nonpayable",
      "type": "function"
    },
    {
      "inputs": [
        {
          "internalType": "string",
          "name": "_otherChainIdStr",
          "type": "string"
        },
        {
          "internalType": "string",
          "name": "_otherContractStr",
          "type": "string"
        }
      ],
      "name": "checkTokenCompatibility",
      "outputs": [
        {
          "internalType": "bool",
          "name": "",
          "type": "bool"
        }
      ],
      "stateMutability": "view",
      "type": "function"
    },
    {
      "inputs": [
        {
          "internalType": "uint256",
          "name": "tokenId_",
          "type": "uint256"
        }
      ],
      "name": "clearApprovedValues",
      "outputs": [],
      "stateMutability": "nonpayable",
      "type": "function"
    },
    {
      "inputs": [],
      "name": "contractURI",
      "outputs": [
        {
          "internalType": "string",
          "name": "",
          "type": "string"
        }
      ],
      "stateMutability": "view",
      "type": "function"
    },
    {
      "inputs": [],
      "name": "ctmRwa001XChain",
      "outputs": [
        {
          "internalType": "address",
          "name": "",
          "type": "address"
        }
      ],
      "stateMutability": "view",
      "type": "function"
    },
    {
      "inputs": [
        {
          "internalType": "uint256",
          "name": "tokenId_",
          "type": "uint256"
        }
      ],
      "name": "getApproved",
      "outputs": [
        {
          "internalType": "address",
          "name": "",
          "type": "address"
        }
      ],
      "stateMutability": "view",
      "type": "function"
    },
    {
      "inputs": [
        {
          "internalType": "string",
          "name": "_chainIdStr",
          "type": "string"
        }
      ],
      "name": "getTokenContract",
      "outputs": [
        {
          "internalType": "string",
          "name": "",
          "type": "string"
        }
      ],
      "stateMutability": "view",
      "type": "function"
    },
    {
      "inputs": [
        {
          "internalType": "uint256",
          "name": "tokenId_",
          "type": "uint256"
        }
      ],
      "name": "getTokenInfo",
      "outputs": [
        {
          "internalType": "uint256",
          "name": "",
          "type": "uint256"
        },
        {
          "internalType": "uint256",
          "name": "",
          "type": "uint256"
        },
        {
          "internalType": "address",
          "name": "",
          "type": "address"
        },
        {
          "internalType": "uint256",
          "name": "",
          "type": "uint256"
        }
      ],
      "stateMutability": "view",
      "type": "function"
    },
    {
      "inputs": [
        {
          "internalType": "uint256",
          "name": "tokenId_",
          "type": "uint256"
        }
      ],
      "name": "idOf",
      "outputs": [
        {
          "internalType": "uint256",
          "name": "",
          "type": "uint256"
        }
      ],
      "stateMutability": "view",
      "type": "function"
    },
    {
      "inputs": [
        {
          "internalType": "address",
          "name": "owner_",
          "type": "address"
        },
        {
          "internalType": "address",
          "name": "operator_",
          "type": "address"
        }
      ],
      "name": "isApprovedForAll",
      "outputs": [
        {
          "internalType": "bool",
          "name": "",
          "type": "bool"
        }
      ],
      "stateMutability": "view",
      "type": "function"
    },
    {
      "inputs": [
        {
          "internalType": "address",
          "name": "owner_",
          "type": "address"
        },
        {
          "internalType": "uint256",
          "name": "slot_",
          "type": "uint256"
        },
        {
          "internalType": "address",
          "name": "operator_",
          "type": "address"
        }
      ],
      "name": "isApprovedForSlot",
      "outputs": [
        {
          "internalType": "bool",
          "name": "",
          "type": "bool"
        }
      ],
      "stateMutability": "view",
      "type": "function"
    },
    {
      "inputs": [
        {
          "internalType": "address",
          "name": "operator_",
          "type": "address"
        },
        {
          "internalType": "uint256",
          "name": "tokenId_",
          "type": "uint256"
        }
      ],
      "name": "isApprovedOrOwner",
      "outputs": [
        {
          "internalType": "bool",
          "name": "",
          "type": "bool"
        }
      ],
      "stateMutability": "view",
      "type": "function"
    },
    {
      "inputs": [],
      "name": "metadataDescriptor",
      "outputs": [
        {
          "internalType": "contract ICTMRWA001MetadataDescriptor",
          "name": "",
          "type": "address"
        }
      ],
      "stateMutability": "view",
      "type": "function"
    },
    {
      "inputs": [
        {
          "internalType": "address",
          "name": "mintTo_",
          "type": "address"
        },
        {
          "internalType": "uint256",
          "name": "tokenId_",
          "type": "uint256"
        },
        {
          "internalType": "uint256",
          "name": "slot_",
          "type": "uint256"
        },
        {
          "internalType": "uint256",
          "name": "value_",
          "type": "uint256"
        }
      ],
      "name": "mint",
      "outputs": [],
      "stateMutability": "nonpayable",
      "type": "function"
    },
    {
      "inputs": [
        {
          "internalType": "address",
          "name": "to_",
          "type": "address"
        },
        {
          "internalType": "uint256",
          "name": "tokenId_",
          "type": "uint256"
        },
        {
          "internalType": "uint256",
          "name": "slot_",
          "type": "uint256"
        },
        {
          "internalType": "uint256",
          "name": "value_",
          "type": "uint256"
        }
      ],
      "name": "mintFromX",
      "outputs": [],
      "stateMutability": "nonpayable",
      "type": "function"
    },
    {
      "inputs": [
        {
          "internalType": "address",
          "name": "to_",
          "type": "address"
        },
        {
          "internalType": "uint256",
          "name": "slot_",
          "type": "uint256"
        },
        {
          "internalType": "uint256",
          "name": "value_",
          "type": "uint256"
        }
      ],
      "name": "mintFromX",
      "outputs": [
        {
          "internalType": "uint256",
          "name": "tokenId",
          "type": "uint256"
        }
      ],
      "stateMutability": "nonpayable",
      "type": "function"
    },
    {
      "inputs": [
        {
          "internalType": "uint256",
          "name": "tokenId_",
          "type": "uint256"
        },
        {
          "internalType": "uint256",
          "name": "value_",
          "type": "uint256"
        }
      ],
      "name": "mintValue",
      "outputs": [],
      "stateMutability": "nonpayable",
      "type": "function"
    },
    {
      "inputs": [
        {
          "internalType": "uint256",
          "name": "toTokenId_",
          "type": "uint256"
        },
        {
          "internalType": "uint256",
          "name": "slot_",
          "type": "uint256"
        },
        {
          "internalType": "uint256",
          "name": "value_",
          "type": "uint256"
        }
      ],
      "name": "mintValueX",
      "outputs": [
        {
          "internalType": "bool",
          "name": "",
          "type": "bool"
        }
      ],
      "stateMutability": "nonpayable",
      "type": "function"
    },
    {
      "inputs": [],
      "name": "name",
      "outputs": [
        {
          "internalType": "string",
          "name": "",
          "type": "string"
        }
      ],
      "stateMutability": "view",
      "type": "function"
    },
    {
      "inputs": [
        {
          "internalType": "uint256",
          "name": "tokenId_",
          "type": "uint256"
        }
      ],
      "name": "ownerOf",
      "outputs": [
        {
          "internalType": "address",
          "name": "owner_",
          "type": "address"
        }
      ],
      "stateMutability": "view",
      "type": "function"
    },
    {
      "inputs": [
        {
          "internalType": "address",
          "name": "from_",
          "type": "address"
        },
        {
          "internalType": "uint256",
          "name": "tokenId_",
          "type": "uint256"
        }
      ],
      "name": "removeTokenFromOwnerEnumeration",
      "outputs": [],
      "stateMutability": "nonpayable",
      "type": "function"
    },
    {
      "inputs": [
        {
          "internalType": "address",
          "name": "from_",
          "type": "address"
        },
        {
          "internalType": "address",
          "name": "to_",
          "type": "address"
        },
        {
          "internalType": "uint256",
          "name": "tokenId_",
          "type": "uint256"
        }
      ],
      "name": "safeTransferFrom",
      "outputs": [],
      "stateMutability": "payable",
      "type": "function"
    },
    {
      "inputs": [
        {
          "internalType": "address",
          "name": "from_",
          "type": "address"
        },
        {
          "internalType": "address",
          "name": "to_",
          "type": "address"
        },
        {
          "internalType": "uint256",
          "name": "tokenId_",
          "type": "uint256"
        },
        {
          "internalType": "bytes",
          "name": "data_",
          "type": "bytes"
        }
      ],
      "name": "safeTransferFrom",
      "outputs": [],
      "stateMutability": "payable",
      "type": "function"
    },
    {
      "inputs": [
        {
          "internalType": "address",
          "name": "operator_",
          "type": "address"
        },
        {
          "internalType": "bool",
          "name": "approved_",
          "type": "bool"
        }
      ],
      "name": "setApprovalForAll",
      "outputs": [],
      "stateMutability": "nonpayable",
      "type": "function"
    },
    {
      "inputs": [
        {
          "internalType": "address",
          "name": "owner_",
          "type": "address"
        },
        {
          "internalType": "uint256",
          "name": "slot_",
          "type": "uint256"
        },
        {
          "internalType": "address",
          "name": "operator_",
          "type": "address"
        },
        {
          "internalType": "bool",
          "name": "approved_",
          "type": "bool"
        }
      ],
      "name": "setApprovalForSlot",
      "outputs": [],
      "stateMutability": "payable",
      "type": "function"
    },
    {
      "inputs": [
        {
          "internalType": "uint256",
          "name": "index_",
          "type": "uint256"
        }
      ],
      "name": "slotByIndex",
      "outputs": [
        {
          "internalType": "uint256",
          "name": "",
          "type": "uint256"
        }
      ],
      "stateMutability": "view",
      "type": "function"
    },
    {
      "inputs": [],
      "name": "slotCount",
      "outputs": [
        {
          "internalType": "uint256",
          "name": "",
          "type": "uint256"
        }
      ],
      "stateMutability": "view",
      "type": "function"
    },
    {
      "inputs": [
        {
          "internalType": "uint256",
          "name": "tokenId_",
          "type": "uint256"
        }
      ],
      "name": "slotOf",
      "outputs": [
        {
          "internalType": "uint256",
          "name": "",
          "type": "uint256"
        }
      ],
      "stateMutability": "view",
      "type": "function"
    },
    {
      "inputs": [
        {
          "internalType": "uint256",
          "name": "slot_",
          "type": "uint256"
        }
      ],
      "name": "slotURI",
      "outputs": [
        {
          "internalType": "string",
          "name": "",
          "type": "string"
        }
      ],
      "stateMutability": "view",
      "type": "function"
    },
    {
      "inputs": [
        {
          "internalType": "address",
          "name": "operator_",
          "type": "address"
        },
        {
          "internalType": "uint256",
          "name": "tokenId_",
          "type": "uint256"
        },
        {
          "internalType": "uint256",
          "name": "value_",
          "type": "uint256"
        }
      ],
      "name": "spendAllowance",
      "outputs": [],
      "stateMutability": "nonpayable",
      "type": "function"
    },
    {
      "inputs": [
        {
          "internalType": "string",
          "name": "a",
          "type": "string"
        },
        {
          "internalType": "string",
          "name": "b",
          "type": "string"
        }
      ],
      "name": "stringsEqual",
      "outputs": [
        {
          "internalType": "bool",
          "name": "",
          "type": "bool"
        }
      ],
      "stateMutability": "pure",
      "type": "function"
    },
    {
      "inputs": [
        {
          "internalType": "bytes4",
          "name": "interfaceId",
          "type": "bytes4"
        }
      ],
      "name": "supportsInterface",
      "outputs": [
        {
          "internalType": "bool",
          "name": "",
          "type": "bool"
        }
      ],
      "stateMutability": "view",
      "type": "function"
    },
    {
      "inputs": [],
      "name": "symbol",
      "outputs": [
        {
          "internalType": "string",
          "name": "",
          "type": "string"
        }
      ],
      "stateMutability": "view",
      "type": "function"
    },
    {
      "inputs": [
        {
          "internalType": "uint256",
          "name": "index_",
          "type": "uint256"
        }
      ],
      "name": "tokenByIndex",
      "outputs": [
        {
          "internalType": "uint256",
          "name": "",
          "type": "uint256"
        }
      ],
      "stateMutability": "view",
      "type": "function"
    },
    {
      "inputs": [
        {
          "internalType": "uint256",
          "name": "",
          "type": "uint256"
        }
      ],
      "name": "tokenContract",
      "outputs": [
        {
          "internalType": "string",
          "name": "chainIdStr",
          "type": "string"
        },
        {
          "internalType": "string",
          "name": "contractStr",
          "type": "string"
        }
      ],
      "stateMutability": "view",
      "type": "function"
    },
    {
      "inputs": [
        {
          "internalType": "uint256",
          "name": "slot_",
          "type": "uint256"
        },
        {
          "internalType": "uint256",
          "name": "index_",
          "type": "uint256"
        }
      ],
      "name": "tokenInSlotByIndex",
      "outputs": [
        {
          "internalType": "uint256",
          "name": "",
          "type": "uint256"
        }
      ],
      "stateMutability": "view",
      "type": "function"
    },
    {
      "inputs": [
        {
          "internalType": "address",
          "name": "owner_",
          "type": "address"
        },
        {
          "internalType": "uint256",
          "name": "index_",
          "type": "uint256"
        }
      ],
      "name": "tokenOfOwnerByIndex",
      "outputs": [
        {
          "internalType": "uint256",
          "name": "",
          "type": "uint256"
        }
      ],
      "stateMutability": "view",
      "type": "function"
    },
    {
      "inputs": [
        {
          "internalType": "uint256",
          "name": "slot_",
          "type": "uint256"
        }
      ],
      "name": "tokenSupplyInSlot",
      "outputs": [
        {
          "internalType": "uint256",
          "name": "",
          "type": "uint256"
        }
      ],
      "stateMutability": "view",
      "type": "function"
    },
    {
      "inputs": [
        {
          "internalType": "uint256",
          "name": "tokenId_",
          "type": "uint256"
        }
      ],
      "name": "tokenURI",
      "outputs": [
        {
          "internalType": "string",
          "name": "",
          "type": "string"
        }
      ],
      "stateMutability": "view",
      "type": "function"
    },
    {
      "inputs": [],
      "name": "totalSupply",
      "outputs": [
        {
          "internalType": "uint256",
          "name": "",
          "type": "uint256"
        }
      ],
      "stateMutability": "view",
      "type": "function"
    },
    {
      "inputs": [
        {
          "internalType": "uint256",
          "name": "fromTokenId_",
          "type": "uint256"
        },
        {
          "internalType": "address",
          "name": "to_",
          "type": "address"
        },
        {
          "internalType": "uint256",
          "name": "value_",
          "type": "uint256"
        }
      ],
      "name": "transferFrom",
      "outputs": [
        {
          "internalType": "uint256",
          "name": "newTokenId",
          "type": "uint256"
        }
      ],
      "stateMutability": "payable",
      "type": "function"
    },
    {
      "inputs": [
        {
          "internalType": "address",
          "name": "from_",
          "type": "address"
        },
        {
          "internalType": "address",
          "name": "to_",
          "type": "address"
        },
        {
          "internalType": "uint256",
          "name": "tokenId_",
          "type": "uint256"
        }
      ],
      "name": "transferFrom",
      "outputs": [],
      "stateMutability": "payable",
      "type": "function"
    },
    {
      "inputs": [
        {
          "internalType": "uint256",
          "name": "fromTokenId_",
          "type": "uint256"
        },
        {
          "internalType": "uint256",
          "name": "toTokenId_",
          "type": "uint256"
        },
        {
          "internalType": "uint256",
          "name": "value_",
          "type": "uint256"
        }
      ],
      "name": "transferFrom",
      "outputs": [],
      "stateMutability": "payable",
      "type": "function"
    },
    {
      "inputs": [],
      "name": "valueDecimals",
      "outputs": [
        {
          "internalType": "uint8",
          "name": "",
          "type": "uint8"
        }
      ],
      "stateMutability": "view",
      "type": "function"
    }
  ],
  "bytecode": "0x6080604081815234620007045762005d01803803809162000021828662000709565b8439820190608083830312620007045782516001600160401b03908181116200070457836200005291860162000784565b92602090818601519083821162000704576200007091870162000784565b94838101519260ff918285168095036200070457606001516001600160a01b0381169290839003620007045760018060a01b031993600093338686541617855560019586600655895197858911620006f05760039880620000d28b54620007d1565b601f9d818f80931162000691575b50879183116001146200062e578a9262000622575b5050600019828c1b1c191690891b1789555b8b518681116200060e5760049b620001208d54620007d1565b818111620005ca575b508c9d8c9d8a9d9c9d50879284116001146200053d57509b8291620002329d8b9362000531575b5050828b1b92600019911b1c1916178c555b60ff196005541617600555865416178555468086867a184f03e93ff9f4daa797ed6e38ed64bf6a1f0100000000000000008084101562000520575b50846d04ee2d6d415b85acef81000000008086101562000513575b5050662386f26fc100008085101562000505575b506305f5e10080851015620004f7575b508c61271080861015620004ea575b50506064841015620004db575b60219082600a80961015620004d3575b810162000223620002198262000743565b9c519c8d62000709565b808c52601f199c8d9162000743565b0136878d01378a0101905b620004a2575b505050308851936060850190858210908211176200048f578952602a8452818401893682378451156200047c5760309053835186101562000469576078602185015360295b868111620003fd5750620003bc57825196620002c0620002a88962000743565b98620002b78b519a8b62000709565b808a5262000743565b01368289013783855b620002eb575b88620002dc89896200087c565b5051615073908162000c8e8239f35b8351811015620003b6576200030181856200080e565b51604160f891821c1015806200039c575b156200037157826200032583876200080e565b51821c018481116200035e576200035792911b6001600160f81b031916861a62000350828b6200080e565b5362000836565b85620002c9565b634e487b7160e01b875260118c52602487fd5b5062000357906001600160f81b03196200038c82876200080e565b5116861a62000350828b6200080e565b50605a620003ab83876200080e565b51821c111562000312565b620002cf565b88816064928a519262461bcd60e51b845283015260248201527f537472696e67733a20686578206c656e67746820696e73756666696369656e746044820152fd5b90600f8116601081101562000456576f181899199a1a9b1b9c1cb0b131b232b360811b901a6200042e83876200080e565b538a1c90801562000443576000190162000288565b634e487b7160e01b865260118b52602486fd5b634e487b7160e01b875260328c52602487fd5b634e487b7160e01b855260328a52602485fd5b634e487b7160e01b865260328b52602486fd5b634e487b7160e01b865260418b52602486fd5b600019019082906f181899199a1a9b1b9c1cb0b131b232b360811b8282061a8353049087826200023d575062000243565b018262000208565b606490930492600201620001f8565b90940493018c38620001eb565b6008919404930138620001dc565b6010919404930138620001cc565b90940493018438620001b8565b92935050508104908688386200019d565b01519150388062000150565b8a52868a20929c9190601f198e168b5b818110620005935750918e9391620002329f8e96941062000578575b50505050811b018c5562000162565b01519060f884600019921b161c191690553880808062000569565b93948d9f97999b9d8497999b9d9f508c92939491839286015181550196019301908f9d9b999795949392919e9c9a98969e6200054d565b8d8a52868a208280850160051c82019289861062000604575b0160051c01905b818110620005f9575062000129565b8a81558b01620005ea565b92508192620005e3565b634e487b7160e01b88526041600452602488fd5b015190503880620000f5565b8c8b52878b208c94509190601f1984168c5b8a8282106200067a575050841162000661575b505050811b01895562000107565b0151600019838e1b60f8161c1916905538808062000653565b8385015186558f9790950194938401930162000640565b915091508b8a528d878b209080850160051c820192898610620006e6575b859492828f929593950160051c01915b828110620006cf575050620000e0565b8d91939550809294505501918e918c8594620006bf565b92508192620006af565b634e487b7160e01b87526041600452602487fd5b600080fd5b601f909101601f19168101906001600160401b038211908210176200072d57604052565b634e487b7160e01b600052604160045260246000fd5b6001600160401b0381116200072d57601f01601f191660200190565b60005b838110620007735750506000910152565b818101518382015260200162000762565b81601f82011215620007045780516200079d8162000743565b92620007ad604051948562000709565b818452602082840101116200070457620007ce91602080850191016200075f565b90565b90600182811c9216801562000803575b6020831014620007ed57565b634e487b7160e01b600052602260045260246000fd5b91607f1691620007e1565b90815181101562000820570160200190565b634e487b7160e01b600052603260045260246000fd5b6000198114620008465760010190565b634e487b7160e01b600052601160045260246000fd5b6002548110156200082057600260005260206000209060011b0190600090565b60025490929160005b82811062000b31575060408051946001600160401b03918601828111878210176200072d576040528552602094858101928352680100000000000000008410156200072d57620008dd6001948581016002556200085c565b91909162000b1b5751908151908382116200072d578591620009008254620007d1565b93601f9485811162000ac6575b50899085831160011462000a5b57600091908362000a4f575b5050600019600383901b1c191690831b1781555b0192519586519283116200072d57620009548454620007d1565b82811162000a04575b50809183116001146200099b575081929394956000926200098f575b5050600019600383901b1c191690831b17905590565b01519050388062000979565b90601f198316968460005282600020926000905b898210620009ec5750508386979896959610620009d2575b505050811b01905590565b015160001960f88460031b161c19169055388080620009c7565b808885968294968601518155019501930190620009af565b84600052816000208380860160051c82019284871062000a45575b0160051c019086905b82811062000a385750506200095d565b6000815501869062000a28565b9250819262000a1f565b01519050388062000926565b90601f19831691846000528b6000209260005b8d82821062000aaf575050908487959493921062000a95575b505050811b0181556200093a565b015160001960f88460031b161c1916905538808062000a87565b8385015186558c9890950194938401930162000a6e565b909192809450600052896000208580850160051c8201928c861062000b11575b908a9695949392910160051c01905b81811062000b0457506200090d565b6000815589950162000af5565b9250819262000ae6565b634e487b7160e01b600052600060045260246000fd5b62000b3c816200085c565b50604090815190816000825462000b5381620007d1565b8084529360019180831690811562000c3a575060011462000bf5575b505062000b7f9250038262000709565b81519062000bd26020918362000b99848201928362000c5f565b039362000baf601f199586810183528262000709565b5190209351918201928262000bc58b8662000c5f565b0390810183528262000709565b5190201462000bec5762000be69062000836565b62000885565b50600093505050565b90915060005260209283600020916000925b82841062000c23575050509162000b7f92820101388062000b6f565b805487850187015286945092850192810162000c07565b935050505062000b7f9260209160ff191682840152151560051b820101388062000b6f565b6040916020825262000c8181518092816020860152602086860191016200075f565b601f01601f191601019056fe6040608081526004908136101561001557600080fd5b600091823560e01c908162cd01101461282957816301ffc9a71461273c57816306fdde03146126695781630752175414612637578163081812fc14612617578163095ea7b3146124f857816309c3dd871461246a5781630f485c021461203f57816313d199501461202357816315c77d8414611f4e57816318160ddd14611f2f57816323b872dd14611f0a578163263f3e7e14611eea5781632f745c5914611e40578163310ed7f014611dc4578163381c4fce14611d745781633e7e866914611d52578163404b6e9f14611d1857816342842e0e14611cf557816342966c6814611943578163430c208114611905578163449d07721461184d57816349178b25146117dd5781634f6ccce71461175e5781634f8a0f831461173e57816355cd4e061461159d578163582939e51461156d5781636352211e1461153c57816370a082311461151657816378330ea0146114bb578163840f71131461149257816387fe8611146110e75781638c7a63ae146110485781638cb0a51114610f9e5781638f28397014610ef857816395d89b4114610e23578163968e8a1314610de9578163993bef8d14610d5e5781639c0e9a5d14610d425781639cc7f70814610d22578163a22cb46514610c46578163a30fb02014610be1578163a647e8ec14610bc6578163a6a2d1dd14610b47578163b3875b9514610b1e578163b88d4fde14610abf578163bff2ed7114610a74578163c87b56dd14610949578163dee9f53f14610906578163e345e0bc146108d4578163e345f05e1461087b578163e8a3d4851461060e578163e985e9c5146105bd578163ed08fa801461059e578163f0e88e7f146102b4575063f851a4401461028a57600080fd5b346102b057816003193601126102b057905490516001600160a01b039091168152602090f35b5080fd5b8383346102b0576102c4366128d7565b6102cf8293926134f6565b6102d884613532565b916102e283614973565b1561043f575b6102f29085613ada565b6102fc84836149f9565b61033e57508394508061033b9452600e602052600161031d83872054612b9b565b5001918254918652600c602052808620848752602052852055613b4b565b80f35b90926001600160a01b03909116159081610436575b5080610427575b610366575b5050905080f35b8183526020600e8152600161037d83862054612b9b565b5001928354600019810190811161041457859650906103a261040c9694939286613709565b9054828652600c84528486208680528452848620549160031b1c6103e3816103ca848a613709565b90919082549060031b91821b91600019901b1916179055565b828652600c84528486209086528352838520558352600c81528183209083805252812055613bd5565b80828061035f565b634e487b7160e01b865260118752602486fd5b506104318261499b565b61035a565b90501585610353565b61044883614973565b61055857835161045781612a05565b8681528451610465816129cf565b848152602091828201908152600d5492868a52600e815283888b2055600160401b9283851015610520576104a0600195868101600d55612b9b565b919091610546579085915181550191518051936001600160401b0385116105335784116105205781906104d885855481875586613cc6565b01918a52808a20908a5b84811061050f575050505050506102f29083878060008051602061501e8339815191528180a490506102e8565b8351838201559281019285016104e2565b634e487b7160e01b8b5260418c5260248bfd5b634e487b7160e01b8c5260418d5260248cfd5b634e487b7160e01b8c528b8d5260248cfd5b835162461bcd60e51b8152602081890152602c6024820152600080516020614fbe83398151915260448201526b72656164792065786973747360a01b6064820152608490fd5b5050346102b057816003193601126102b057602090600d549051908152f35b5050346102b057806003193601126102b05760ff816020936105dd61293a565b6105e5612966565b6001600160a01b039182168352600a875283832091168252600201855220549151911615158152f35b905034610877578260031936011261087757815161062b81612a05565b838152600b546001600160a01b03169081156106b157508390835192838092631c97e82760e21b82525afa9081156106a5578361067e9492610682575b5050905b51918291602083526020830190612915565b0390f35b61069e92503d8091833e6106968183612a20565b810190613556565b3880610668565b505051903d90823e3d90fd5b9293919050811561085c5783513091606082016001600160401b03811183821017610847578652602a8252602092838301948736873783511561083457603086538351906001918210156108215790607860218601536029915b8183116107b6575050506107755750849368636f6e74726163742f60b81b9361076f9361076060299461067e9951978561074e8a9751809287808b0191016128f2565b860193840152518093868401906128f2565b01036009810184520182612a20565b9061066c565b606490838088519262461bcd60e51b845283015260248201527f537472696e67733a20686578206c656e67746820696e73756666696369656e746044820152fd5b909192600f8116601081101561080e576f181899199a1a9b1b9c1cb0b131b232b360811b901a6107e685886135c1565b53841c9280156107fb5760001901919061070b565b634e487b7160e01b825260118552602482fd5b634e487b7160e01b835260328652602483fd5b634e487b7160e01b815260328452602490fd5b634e487b7160e01b815260328352602490fd5b604182634e487b7160e01b6000525260246000fd5b5050508061067e915161086e81612a05565b6000815261076f565b8280fd5b5050346102b05760603660031901126102b05760ff8160209361089c61293a565b6108a4612950565b6001600160a01b039182168352600f87528383206024358452875283832091168252855220549151911615158152f35b828434610903578160031936011261090357506108fc6020926108f5612966565b903561362a565b9051908152f35b80fd5b9050346108775760203660031901126108775781602093610940923561093361092e8261372e565b6134aa565b8152600985522054613445565b50549051908152f35b9050346108775760209081600319360112610a7057803561096c61092e8261372e565b83519161097883612a05565b858352600b546001600160a01b03169283156109f957509060248692865194859384926344a5a61760e11b84528301525afa9081156109ec578461067e939495926109d1575b5050925b51928284938452830190612915565b6109e592503d8091833e6106968183612a20565b38806109be565b50505051903d90823e3d90fd5b9250508483949550600014610a565761067e92610a18610a5092612f5d565b9286519381610a3086935180928680870191016128f2565b8201610a44825180938680850191016128f2565b01038084520182612a20565b926109c2565b50505061067e8251610a6781612a05565b60008152610a50565b8380fd5b828434610903576020610ab983610a8a36612b43565b90610aa360018060a09795971b03600154163314612d88565b6006548095610ab182612ded565b60065561375c565b51908152f35b839060803660031901126102b057610ad561293a565b610add612966565b906064356001600160401b038111610b1a5736602382011215610b1a5761033b93816024610b1093369301359101612a5c565b9160443591614e2d565b8480fd5b5050346102b057816003193601126102b05760015490516001600160a01b039091168152602090f35b82843461090357606036600319011261090357610b6261293a565b926001600160401b03602435818111610a7057610b829036908401612d05565b92604435918211610903575091610ba260209592610bbd94369101612d05565b91610bb860018060a01b03600154163314612d88565b612e26565b90519015158152f35b83346109035761033b610bd836612b6d565b9291909161375c565b839150346102b05760203660031901126102b05735906002548210156109035750610c0b90612beb565b509061067e610c256001610c1e85612c5f565b9401612c5f565b610c388351948486958652850190612915565b908382036020850152612915565b91905034610877578060031936011261087757610c6161293a565b9060243580151592838203610d1e576001600160a01b031693338514610cdb5750610cae90338652600a6020526002838720018587526020528286209060ff801983541691151516179055565b519081527f17307eab39ab6107e8899845ad3d59bd9653f200f220920489ca2b5937696c3160203392a380f35b606490602084519162461bcd60e51b8352820152601c60248201527f43544d5257413030313a20617070726f766520746f2063616c6c6572000000006044820152fd5b8580fd5b82843461090357602036600319011261090357506108fc60209235613480565b5050346102b057602090610bbd610d5836612ab1565b906133d2565b905082346109035760203660031901126109035750803590600d54821015610d8c5760208361094084612b9b565b608490602084519162461bcd60e51b8352820152603160248201527f43544d525741303031536c6f74456e756d657261626c653a20736c6f7420696e604482015270646578206f7574206f6620626f756e647360781b6064820152fd5b5050346102b0573660031901126109035761033b610e0561293a565b610e1a60018060a01b03600154163314612d88565b60243590613dd4565b9190503461087757826003193601126108775780519183815490610e4682612c25565b80865292600192808416908115610ecd5750600114610e71575b61067e868661066c828b0383612a20565b815294507f8a35acfbc15ff81a39ae7d344fd709f28e8600b4aa8c65c6b64bfe7fe36bd19b5b828610610eb55750505061066c82602061067e958201019438610e60565b80546020878701810191909152909501948101610e97565b905061067e97508693506020925061066c94915060ff191682840152151560051b8201019438610e60565b839150346102b05760203660031901126102b057610f1461293a565b91546001600160a01b03163303610f4a57600080546001600160a01b0319166001600160a01b0384161790556020836001610bbd565b608490602084519162461bcd60e51b8352820152602860248201527f43544d5257413030313a205468697320697320616e206f6e6c7941646d696e20604482015267333ab731ba34b7b760c11b6064820152fd5b839150610faa3661297c565b92909190610fce6001600160a01b0380610fc3856134f6565b1690851614156135d2565b610fd88233614887565b15610fe9575061033b939450613e3e565b608490602087519162461bcd60e51b8352820152603360248201527f43544d5257413030313a20617070726f76652063616c6c6572206973206e6f74604482015272081bdddb995c881b9bdc88185c1c1c9bdd9959606a1b6064820152fd5b8383346102b0576020908160031936011261087757608093359061106e61092e8361372e565b8184526009835261108181852054613445565b5054938281526009845260016110d183600261109f82862054613445565b50015493868152600988526110b682822054613445565b506003858060a01b0391015416968152600988522054613445565b5001549382519586528501528301526060820152f35b8383346102b0576110f7366128d7565b9161110a6111058333614887565b614a5a565b61111661092e8361372e565b8184526020926009845261112c82862054613445565b509260018060a01b03600385015416600192600284870154960191818354106114415787899285921594858096611439575b80611429575b6112b1575b908161118682600080516020614fde833981519152959454613721565b90558851908152a3806112a9575b80611299575b156111d557508495508261033b9552600e84526111b982872054612b9b565b5001928354928652600c81528186209086805252842055613b1d565b919293906111e383866149f9565b6111f2575b5050505050905080f35b848652600e825261120584872054612b9b565b50019384546000198101908111611286578697509061122b61127b979594939287613709565b9054828752600c84528587208588528452858720549160031b1c611253816103ca848b613709565b828752600c84528587209087528352848620558452600c815282842091845252812055613bd5565b8082808080806111e8565b634e487b7160e01b875260118852602487fd5b506112a38461499b565b1561119a565b508015611194565b92509250506112bf87614973565b6113e35785516112ce81612a05565b8981528651906112dd826129cf565b888252898201908152600d5491898c52600e8b5282898d2055600160401b92838110156113bc5780896113139201600d55612b9b565b9190916113d0579088915181550190518051926001600160401b0384116113bc578311610533579282828c89968f98958297611353915481865585613cc6565b019087528487208a885b84811061139957505050505090600080516020614fde83398151915292918a868060008051602061501e8339815191528180a490919250611169565b9295985092959093965084519401938184015501928c95928895928a8e9661135d565b50634e487b7160e01b8c5260418d5260248cfd5b50634e487b7160e01b8c528b8d5260248cfd5b855162461bcd60e51b8152808b01899052602c6024820152600080516020614fbe83398151915260448201526b72656164792065786973747360a01b6064820152608490fd5b506114338a614973565b15611164565b50831561115e565b855162461bcd60e51b8152808b01899052602560248201527f43544d5257413030313a206275726e2076616c756520657863656564732062616044820152646c616e636560d81b6064820152608490fd5b5050346102b057816003193601126102b057600b5490516001600160a01b039091168152602090f35b5050346102b05760203660031901126102b057602090610bbd6114dc61293a565b6114f160018060a01b03600154163314612d88565b60018060a01b03166bffffffffffffffffffffffff60a01b6000541617600055600190565b5050346102b05760203660031901126102b0576020906108fc61153761293a565b61365b565b828434610903576020366003190112610903575061155c602092356134f6565b90516001600160a01b039091168152f35b83346109035761033b61157f36612b6d565b9261159860018060a09594951b03600154163314612d88565b61375c565b9190506080366003190112610877576115b461293a565b90602435916115c1612950565b916064358015159283820361173a576001600160a01b03908116943386148015611719575b156116a65716958685146116515750916020916116497f7bdf71e6625aa496095bf08b60c677cf81c963f402cf258981e3bd7507d3480c94868a52600f8552828a20888b528552828a20898b528552828a209060ff801983541691151516179055565b51908152a480f35b608490602084519162461bcd60e51b8352820152602960248201527f43544d525741303031536c6f74417070726f7661626c653a20617070726f7665604482015268103a379037bbb732b960b91b6064820152fd5b835162461bcd60e51b81526020818a0152604160248201527f43544d525741303031536c6f74417070726f7661626c653a2063616c6c65722060448201527f6973206e6f74206f776e6572206e6f7220617070726f76656420666f7220616c6064820152601b60fa1b608482015260a490fd5b50858952600a6020526002848a2001338a5260205260ff848a2054166115e6565b8780fd5b82843461090357602036600319011261090357506108fc60209235614947565b90508234610903576020366003190112610903575080359060085482101561178c5760208361094084613445565b608490602084519162461bcd60e51b8352820152602560248201527f43544d5257413030313a20676c6f62616c20696e646578206f7574206f6620626044820152646f756e647360d81b6064820152fd5b5050346102b057602091611844600261182e846117f9366128d7565b959061181060018060a01b03600154163314612d88565b61182161181c8261372e565b61407e565b8152600988522054613445565b500191825461183f82821015614138565b613721565b90555160018152f35b839150346102b05761185e36612b43565b909261186a838561362a565b906118758585614887565b15806118f9575b611884578580f35b8282106118ac57506118a29495509061189c91613721565b91613e3e565b8082808080808580f35b608490602088519162461bcd60e51b8352820152602160248201527f43544d5257413030313a20696e73756666696369656e7420616c6c6f77616e636044820152606560f81b6064820152fd5b5060001982141561187c565b5050346102b057806003193601126102b057602090610bbd61192561293a565b61193a60018060a01b03600154163314612d88565b60243590614887565b8383346102b05760209081600319360112610877578335906119686111058333614887565b61197461092e8361372e565b8184526009835261198781852054613445565b509160018060a01b03908160038501541691600192600284870154960154811592838094611ced575b80611cdd575b611b99575b6119c485613f7c565b6119ce8584613c15565b600854600019810191908211611b8657898b8260058f8b958d918c8652600987526119fc8387205499613445565b5092805198611a0a8a6129ea565b84548a52840154888a0152600284015490890152816003840154166060890152820154166080870152018b518094859381845493848152019386528d82872096925b848410611b65575050505050611a6492500382612a20565b60a0820152611a7c81611a7684613445565b90613d0d565b518a5260098952868a205583895288868120556008548015611b525760001901611aa581613445565b611b405785600080516020614fde8339815191528b8d958f95611ae76005878a8f9a818a9e9c81809d5584015581600284015581600384015582015501613ce9565b6008558b51908152a381888460008051602061501e8339815191528380a4600080516020614ffe8339815191528280a4806112a9578061129957156111d557508495508261033b9552600e84526111b982872054612b9b565b634e487b7160e01b8b528a8c5260248bfd5b634e487b7160e01b8a5260318b5260248afd5b909294828493959750885416815201950192018f918d879593969496611a4c565b634e487b7160e01b8b5260118c5260248bfd5b611ba288614973565b611c9757888751611bb281612a05565b8b815288518a8a8e611bc3846129cf565b828452858401948552600e600d549687948352522055600160401b9283811015611c7057808a611bf69201600d55612b9b565b919091611c85579089915181550190518051926001600160401b038411611c705783116113bc578b90611c2e84845481865585613cc6565b01908c528a8c20888d5b848110611c5e575050505050878a8060008051602061501e8339815191528180a46119bb565b8d845194019381840155018990611c38565b5050634e487b7160e01b8c5260418d5260248cfd5b634e487b7160e01b8e528d8f5260248efd5b865162461bcd60e51b8152808c018a9052602c6024820152600080516020614fbe83398151915260448201526b72656164792065786973747360a01b6064820152608490fd5b50611ce788614973565b156119b6565b5084156119b0565b8361033b84611d0336612b0e565b91925192611d1084612a05565b858452614e2d565b5050346102b0573660031901126109035761033b611d3461293a565b611d4960018060a01b03600154163314612d88565b60243590613c15565b5050346102b057816003193601126102b05760209060ff600554169051908152f35b828434610903576020366003190112610903578235906001600160401b0382116109035750611dac61067e93611db192369101612a93565b613364565b9051918291602083526020830190612915565b8383611dcf36612af4565b92909194303b15610b1a57815163224e83b960e11b81523391810191825260208201879052604082018590529190859083908190606001038183305af1908115611e375750611e24575b5061033b9293614199565b92611e3161033b946129a6565b92611e19565b513d86823e3d90fd5b90508234610903578260031936011261090357611e5b61293a565b60243592611e688261365b565b841015611e9b57602085611e8d8682878760018060a01b03168152600a865220613709565b91905490519160031b1c8152f35b608490602086519162461bcd60e51b83528201526024808201527f43544d5257413030313a206f776e657220696e646578206f7574206f6620626f604482015263756e647360e01b6064820152fd5b82843461090357602036600319011261090357506108fc60209235613532565b8361033b611f1736612b0e565b91611f2a611f258433614887565b614ac0565b614b29565b5050346102b057816003193601126102b0576020906008549051908152f35b905034610877578190611f9c611f6336612af4565b9491611f7d60018060a09a949a1b03600154163314612d88565b611f8e611f898261372e565b6140dc565b815260096020522054613445565b5093600185015403611fba57506118446002602094019182546135b4565b608490602084519162461bcd60e51b8352820152603a60248201527f43544d5257413030313a2044657374696e6174696f6e20736c6f74206973206e60448201527f6f74207468652073616d6520617320736f7572636520736c6f740000000000006064820152fd5b5050346102b057602090610bbd61203936612ab1565b9061473f565b838361204a3661297c565b9190303b15610b1a57835163224e83b960e11b8152338782019081526020810184905260408101859052869082908190606001038183305af1801561246057612451575b506006549461209c86612ded565b6006556120a883613532565b916001600160a01b0381169081156124025787156123b3576120c98861372e565b612370576120d684614973565b15612216575b8651986120e88a612a05565b838a528751906120f7826129ea565b89825260209a868c840152858a84015284606084015285608084015260a0830152600854908a865260098c52818a872055600160401b821015612203575089959361215e878095612159610ab99c9b9996611a76876001869901600855613445565b613b6e565b82600080516020614ffe8339815191528180a482818360008051602061501e8339815191528280a481815260098a5261219988822054613445565b50508181600080516020614fde8339815191528c8b51838152a36121bd82846149f9565b6121fb57826121f6938252600e8b528860016121db82852054612b9b565b5001928354928152600c8d528181208582528d522055613b4b565b614199565b505050614199565b634e487b7160e01b865260419052602485fd5b61221f84614973565b61232a57865161222e81612a05565b838152875161223c816129cf565b858152602091828201908152600d5492878752600e8152838b882055600160401b92838510156122f157612277600195868101600d55612b9b565b919091612318579085915181550191518051936001600160401b0385116123055784116122f15781906122af85855481875586613cc6565b0191875280872090875b8481106122e05750505050505083838060008051602061501e8339815191528180a46120dc565b8351838201559281019285016122b9565b50634e487b7160e01b875260418d52602487fd5b634e487b7160e01b895260418f52602489fd5b634e487b7160e01b8952888f52602489fd5b865162461bcd60e51b81526020818b0152602c6024820152600080516020614fbe83398151915260448201526b72656164792065786973747360a01b6064820152608490fd5b865162461bcd60e51b81526020818b0152601f60248201527f43544d5257413030313a20746f6b656e20616c7265616479206d696e746564006044820152606490fd5b865162461bcd60e51b81526020818b0152602360248201527f43544d5257413030313a2063616e6e6f74206d696e74207a65726f20746f6b656044820152621b925960ea1b6064820152608490fd5b865162461bcd60e51b81526020818b0152602360248201527f43544d5257413030313a206d696e7420746f20746865207a65726f206164647260448201526265737360e81b6064820152608490fd5b61245a906129a6565b8661208e565b85513d88823e3d90fd5b9050346108775760203660031901126108775782825161248981612a05565b52600b546001600160a01b03169081156124df5783906024845180948193633601bfc560e11b83528035908301525afa9081156106a5578361067e94926106825750509051918291602083526020830190612915565b5050805161067e926124f082612a05565b81529061066c565b839150826003193601126102b05761250e61293a565b6024359161251b836134f6565b61252484613532565b6001600160a01b039182169161253e9085168314156135d2565b8133149182156125f4575b82156125ca575b50501561256257509061033b91613dd4565b60849085602081519262461bcd60e51b845283015260248201527f43544d5257413030313a20617070726f76652063616c6c6572206973206e6f7460448201527f206f776e6572206e6f7220617070726f76656420666f7220616c6c2f736c6f746064820152fd5b9091508552600f60205285852090855260205284842033855260205260ff85852054168680612550565b8092508652600a60205260028787200133875260205260ff878720541691612549565b828434610903576020366003190112610903575061155c602092356136d6565b8390346102b05760203660031901126102b05761033b9061266360018060a01b03600154163314612d88565b35613f7c565b5050346102b057816003193601126102b0578051908260035461268b81612c25565b8085529160019180831690811561271457506001146126b7575b50505061066c8261067e940383612a20565b9450600385527fc2575a0e9e593c00f959f8c92f12db2869c3395a3b0502d05e2516446f71f85b5b8286106126fc5750505061066c82602061067e95820101946126a5565b805460208787018101919091529095019481016126df565b61067e97508693506020925061066c94915060ff191682840152151560051b820101946126a5565b90503461087757602036600319011261087757359063ffffffff60e01b821680920361087757602092506316d117cb60e31b8214918215612781575b50519015158152f35b909150631dba0dcf60e11b811490811561279e575b509038612778565b6301ffc9a760e01b811491508115612818575b8115612807575b81156127f6575b81156127e5575b81156127d4575b5038612796565b635b5e139f60e01b149050386127cd565b63780e9d6360e01b811491506127c6565b6370b0048160e11b811491506127bf565b6380ac58cd60e01b811491506127b8565b630354d60560e61b811491506127b1565b905082346109035761283a366128d7565b9261284482614947565b84101561286e57602085611e8d8660016128678489898152600e88522054612b9b565b5001613709565b608490602086519162461bcd60e51b8352820152603760248201527f43544d525741303031536c6f74456e756d657261626c653a20736c6f7420746f60448201527f6b656e20696e646578206f7574206f6620626f756e64730000000000000000006064820152fd5b60409060031901126128ed576004359060243590565b600080fd5b60005b8381106129055750506000910152565b81810151838201526020016128f5565b9060209161292e815180928185528580860191016128f2565b601f01601f1916010190565b600435906001600160a01b03821682036128ed57565b604435906001600160a01b03821682036128ed57565b602435906001600160a01b03821682036128ed57565b60609060031901126128ed57600435906024356001600160a01b03811681036128ed579060443590565b6001600160401b0381116129b957604052565b634e487b7160e01b600052604160045260246000fd5b604081019081106001600160401b038211176129b957604052565b60c081019081106001600160401b038211176129b957604052565b602081019081106001600160401b038211176129b957604052565b90601f801991011681019081106001600160401b038211176129b957604052565b6001600160401b0381116129b957601f01601f191660200190565b929192612a6882612a41565b91612a766040519384612a20565b8294818452818301116128ed578281602093846000960137010152565b9080601f830112156128ed57816020612aae93359101612a5c565b90565b9060406003198301126128ed576001600160401b036004358181116128ed5783612add91600401612a93565b926024359182116128ed57612aae91600401612a93565b60609060031901126128ed57600435906024359060443590565b60609060031901126128ed576001600160a01b039060043582811681036128ed579160243590811681036128ed579060443590565b60609060031901126128ed576004356001600160a01b03811681036128ed57906024359060443590565b60809060031901126128ed576004356001600160a01b03811681036128ed5790602435906044359060643590565b600d54811015612bd557600d60005260011b7fd7b6990105719101dabeb77144f2a3385c8033acd3af97e9423a695e81ad1eb50190600090565b634e487b7160e01b600052603260045260246000fd5b600254811015612bd557600260005260011b7f405787fa12a823e0f2b7631cc41b3ba8828b3321ca811111fa75cd3aa3bb5ace0190600090565b90600182811c92168015612c55575b6020831014612c3f57565b634e487b7160e01b600052602260045260246000fd5b91607f1691612c34565b9060405191826000825492612c7384612c25565b908184526001948581169081600014612ce25750600114612c9f575b5050612c9d92500383612a20565b565b9093915060005260209081600020936000915b818310612cca575050612c9d93508201013880612c8f565b85548884018501529485019487945091830191612cb2565b915050612c9d94506020925060ff191682840152151560051b8201013880612c8f565b9080601f830112156128ed578135906001600160401b03928383116129b9578260051b60405194602094612d3b86840188612a20565b86528480870192840101938085116128ed57858401925b858410612d63575050505050505090565b83358381116128ed578791612d7d848480948a0101612a93565b815201930192612d52565b15612d8f57565b60405162461bcd60e51b815260206004820152603060248201527f43544d5257413030313a20546869732063616e206f6e6c792062652063616c6c60448201526f0cac840c4f24086a89aa4ae82606062b60831b6064820152608490fd5b6000198114612dfc5760010190565b634e487b7160e01b600052601160045260246000fd5b8051821015612bd55760209160051b010190565b600080549293909290916001600160a01b03918216911603612f18578251815103612eb557815b8351811015612eac57612e6d612e638286612e12565b5161203946612f5d565b15612e81575b612e7c90612ded565b612e4d565b612ea0612e8e8286612e12565b51612e998385612e12565b51906130dc565b612e73575b5050905090565b50505050600190565b60405162461bcd60e51b815260206004820152603560248201527f43544d5257413030313a204c656e677468206d69736d6174636820636861696e60448201527449647320616e6420636f6e7472616374416464727360581b6064820152608490fd5b60405162461bcd60e51b815260206004820152601e60248201527f43544d525741303031583a2041646d696e4f6e6c792066756e6374696f6e00006044820152606490fd5b806000917a184f03e93ff9f4daa797ed6e38ed64bf6a1f010000000000000000808210156130b7575b506d04ee2d6d415b85acef8100000000808310156130a8575b50662386f26fc1000080831015613099575b506305f5e1008083101561308a575b506127108083101561307b575b50606482101561306b575b600a80921015613061575b60019081602181860195612ff687612a41565b966130046040519889612a20565b808852613013601f1991612a41565b01366020890137860101905b61302b575b5050505090565b600019019083906f181899199a1a9b1b9c1cb0b131b232b360811b8282061a83530491821561305c5791908261301f565b613024565b9160010191612fe3565b9190606460029104910191612fd8565b60049193920491019138612fcd565b60089193920491019138612fc0565b60109193920491019138612fb1565b60209193920491019138612f9f565b604093508104915038612f86565b8181106130d0575050565b600081556001016130c5565b60025490929160005b82811061332e5750604051936130fa856129cf565b8452602093848101918252600160401b8310156129b957613122600193848101600255612beb565b919091613318575180516001600160401b03928382116129b95785916131488254612c25565b93601f948a8682116132e9575b50508990858311600114613283576000919083613278575b5050600019600383901b1c191690831b1781555b0192519586519283116129b9576131988454612c25565b828111613240575b50809183116001146131db575081929394956000926131d0575b5050600019600383901b1c191690831b17905590565b0151905038806131ba565b90601f198316968460005282600020926000905b8982106132295750508386979896959610613210575b505050811b01905590565b015160001960f88460031b161c19169055388080613205565b8088859682949686015181550195019301906131ef565b6132699085600052826000208480870160051c82019285881061326f575b0160051c01906130c5565b386131a0565b9250819261325e565b01519050388061316d565b90601f19831691846000528b6000209260005b8d8282106132d357505090848795949392106132ba575b505050811b018155613181565b015160001960f88460031b161c191690553880806132ad565b8385015186558c98909501949384019301613296565b613311918560005287826000209181870160051c830193871061326f570160051c01906130c5565b388a613155565b634e487b7160e01b600052600060045260246000fd5b6133498561334461333e84612beb565b50612c5f565b61473f565b61335b5761335690612ded565b6130e5565b50600093505050565b6002549060005b8281106133885750505060405161338181612a05565b6000815290565b6133a761339482612beb565b506133446133a1856147a4565b91612c5f565b6133b9576133b490612ded565b61336b565b612aae9250600191506133cb90612beb565b5001612c5f565b6133de6133e4916147a4565b916147a4565b6002549160005b8381106133fb5750505050600090565b61341061340a61333e83612beb565b8361473f565b80613428575b612eac5761342390612ded565b6133eb565b5061344061343a60016133cb84612beb565b8461473f565b613416565b600854811015612bd5576006906008600052027ff3f7a9fe364faab93b216da50a3214154f22a0a2b415b23a84c8169e8b636ee30190600090565b61348c61092e8261372e565b600052600960205260026134a4604060002054613445565b50015490565b156134b157565b60405162461bcd60e51b815260206004820152601b60248201527f43544d5257413030313a20696e76616c696420746f6b656e20494400000000006044820152606490fd5b61350261092e8261372e565b6000526009602052613518604060002054613445565b50600301546001600160a01b031690612c9d8215156134aa565b61353e61092e8261372e565b600052600960205260016134a4604060002054613445565b6020818303126128ed578051906001600160401b0382116128ed570181601f820112156128ed57805161358881612a41565b926135966040519485612a20565b818452602082840101116128ed57612aae91602080850191016128f2565b91908201809211612dfc57565b908151811015612bd5570160200190565b156135d957565b60405162461bcd60e51b8152602060048201526024808201527f43544d5257413030313a20617070726f76616c20746f2063757272656e74206f6044820152633bb732b960e11b6064820152608490fd5b61363661092e8261372e565b600052600760205260406000209060018060a01b031660005260205260406000205490565b6001600160a01b0316801561367b57600052600a60205260406000205490565b60405162461bcd60e51b815260206004820152602d60248201527f43544d5257413030313a2062616c616e636520717565727920666f722074686560448201526c207a65726f206164647265737360981b6064820152608490fd5b6136e261092e8261372e565b60005260096020526136f8604060002054613445565b50600401546001600160a01b031690565b8054821015612bd55760005260206000200190600090565b91908203918211612dfc57565b6008541515908161373d575090565b8091506000526009602052613756604060002054613445565b50541490565b6001600160a01b03811693919290918415613a89578315613a38576137808461372e565b6139f35761378d82614973565b1561389b575b6040948551936137a285612a05565b6000948581528751906137b4826129ea565b878252856020830152868983015283606083015286608083015260a082015260085487875260096020528089882055600160401b8110156138875787809361215961383c979694611a7685600161380e9701600855613445565b85600080516020614ffe8339815191528180a482848660008051602061501e8339815191528280a484613ada565b61384683826149f9565b61388157612c9d93818352600e602052600161386482852054612b9b565b5001928354928152600c6020528181208582526020522055613b4b565b50505050565b634e487b7160e01b87526041600452602487fd5b6138a482614973565b6139ab576040516138b481612a05565b6000908181526040516138c6816129cf565b848152602091828201908152600d5492868552600e8152836040862055600160401b928385101561398357613902600195868101600d55612b9b565b919091613997579085915181550191518051936001600160401b0385116138875784116139835790808392613940868b999897965481875586613cc6565b0191855280852090855b84811061396f575050505050508060008051602061501e8339815191528180a4613793565b83518184015589975092810192850161394a565b634e487b7160e01b86526041600452602486fd5b634e487b7160e01b87526004879052602487fd5b60405162461bcd60e51b815260206004820152602c6024820152600080516020614fbe83398151915260448201526b72656164792065786973747360a01b6064820152608490fd5b60405162461bcd60e51b815260206004820152601f60248201527f43544d5257413030313a20746f6b656e20616c7265616479206d696e746564006044820152606490fd5b60405162461bcd60e51b815260206004820152602360248201527f43544d5257413030313a2063616e6e6f74206d696e74207a65726f20746f6b656044820152621b925960ea1b6064820152608490fd5b60405162461bcd60e51b815260206004820152602360248201527f43544d5257413030313a206d696e7420746f20746865207a65726f206164647260448201526265737360e81b6064820152608490fd5b90600080516020614fde8339815191526020600092848452600982526002613b056040862054613445565b5001613b128282546135b4565b9055604051908152a3565b8054600160401b8110156129b957613b3a91600182018155613709565b8154906000199060031b1b19169055565b90815491600160401b8310156129b957826103ca916001612c9d95018155613709565b906040612c9d9260009083825260096020526003613b8e84842054613445565b500180546001600160a01b0319166001600160a01b039092169182179055808252600a60208181528484208054878652600191909101825285852055918352905220613b4b565b8054908115613bff5760001991820191613bef8383613709565b909182549160031b1b1916905555565b634e487b7160e01b600052603160045260246000fd5b91909160009083825260096020526003613c326040842054613445565b500180546001600160a01b03191690556001600160a01b03168152600a602052604081208054600019810194919291908511613cb257613c76612c9d949584613709565b90549060031b1c6001840182845280602052604084205491613c9c816103ca8589613709565b8452602052604083205581526040812055613bd5565b634e487b7160e01b82526011600452602482fd5b91818110613cd357505050565b612c9d92600052602060002091820191016130c5565b80546000825580613cf8575050565b612c9d916000526020600020908101906130c5565b919061331857805182556020908181015192600193848201556040820151600282015560a060056003830192600180841b039384606087015116906bffffffffffffffffffffffff851b91828254161790556004820190856080880151169082541617905501920151928351936001600160401b0385116129b957600160401b85116129b9578190613da486865481885587613cc6565b0192600052806000209160005b858110613dc15750505050505050565b8451821684820155938201938601613db1565b8160005260096020526004613ded604060002054613445565b500180546001600160a01b0319166001600160a01b0392831690811790915590613e16836134f6565b167f8c5be1e5ebec7d5bd14f71427d1e84f3dd0314c0f7b2291e5b200ac8c7c3b925600080a4565b6001600160a01b038083169391928415613f225783613e5c91613ff4565b15613eaa575b5060207f621b050de0ad08b51d19b48b3e6df75348c4de6bdd93e81b252ca62e28265b1b918360005260078252604060002085600052825280604060002055604051908152a3565b8260005260096020526005613ec3604060002054613445565b500191825491600160401b8310156129b957613f08837f621b050de0ad08b51d19b48b3e6df75348c4de6bdd93e81b252ca62e28265b1b956001602096018155613709565b819291549060031b9188831b921b19161790559150613e62565b60405162461bcd60e51b815260206004820152602c60248201527f43544d5257413030313a20617070726f76652076616c756520746f207468652060448201526b7a65726f206164647265737360a01b6064820152608490fd5b60008181526020906009825260406005613f9882842054613445565b500193845493835b858110613fb657505050505050612c9d90613ce9565b80613fc4613fef9289613709565b90548588526007855286882060039290921b1c6001600160a01b031687528352848620869055612ded565b613fa0565b600090828252600960209080825260409061401182862054613445565b509260058094015496865b88811061402f5750505050505050905090565b8188528383526140468187612867888c2054613445565b905460039190911b1c6001600160a01b03908116908816146140705761406b90612ded565b61401c565b505050505050505050600190565b1561408557565b60405162461bcd60e51b815260206004820152602960248201527f43544d5257413030313a207472616e736665722066726f6d20696e76616c6964604482015268081d1bdad95b88125160ba1b6064820152608490fd5b156140e357565b60405162461bcd60e51b815260206004820152602760248201527f43544d5257413030313a207472616e7366657220746f20696e76616c696420746044820152661bdad95b88125160ca1b6064820152608490fd5b1561413f57565b60405162461bcd60e51b815260206004820152602c60248201527f43544d5257413030313a20696e73756666696369656e742062616c616e63652060448201526b3337b9103a3930b739b332b960a11b6064820152608490fd5b90916141a761181c8361372e565b6141b3611f898461372e565b8160005260096020526141ca604060002054613445565b50928060005260096020526141e3604060002054613445565b50936141f58360028301541015614138565b6001810154600186015481036145385760038201546001600160a01b03161580614530575b80614520575b61443d575b50614234836002830154613721565b6002820155600285016142488482546135b4565b90558184600080516020614fde8339815191526020604051878152a3600381810154950154600190910154946001600160a01b0391821691161580614435575b80614424575b1561435657506142da81856142f096600052600e60205260016142b5604060002054612b9b565b500190815490600052600c602052604060002083600052602052604060002055613b4b565b604051926142e784612a05565b600084526145e6565b156142f757565b60405162461bcd60e51b815260206004820152603160248201527f43544d5257413030313a207472616e736665722072656a65637465642062792060448201527021aa26a92ba0981818a932b1b2b4bb32b960791b6064820152608490fd5b158061441c575b8061440c575b614372575b6142f093506142da565b83600052600e602052600161438b604060002054612b9b565b50018054600019810191908211612dfc576142f0956143ad6144079383613709565b90549060031b1c81600052600c602052604060002087600052602052604060002054906143de816103ca8487613709565b6000928352600c6020908152604080852092855291905280832091909155868252812055613bd5565b614368565b5061441783856149f9565b614363565b50801561435d565b5061442f82866149f9565b1561428e565b508315614288565b61444681614973565b6139ab5760405161445681612a05565b6000815260405190614467826129cf565b82825260208201908152600d549183600052600e60205282604060002055600160401b92838110156129b9578060016144a39201600d55612b9b565b613318576001915181550190518051926001600160401b0384116129b95783116129b9576020906144d984845481865585613cc6565b0190600052602060002060005b83811061450c575050505060008060008051602061501e8339815191528180a438614225565b6001906020845194019381840155016144e6565b5061452a81614973565b15614220565b50841561421a565b60405162461bcd60e51b815260206004820152603060248201527f43544d5257413030313a207472616e7366657220746f20746f6b656e2077697460448201526f1a08191a5999995c995b9d081cdb1bdd60821b6064820152608490fd5b908160209103126128ed57516001600160e01b0319811681036128ed5790565b3d156145e1573d906145c782612a41565b916145d56040519384612a20565b82523d6000602084013e565b606090565b9290926145f2846134f6565b803b63ffffffff1615614735576040516301ffc9a760e01b8152633abe4f5560e21b6004820181905295602095926001600160a01b0316918681602481865afa80916000916146ff575b50906146585750505050505050506146526145b6565b50600190565b156146f35760008694614697604051978896879586948d865233600487015260248601526044850152606484015260a0608484015260a4830190612915565b03925af19182156146e7576000926146ba575b50506001600160e01b0319161490565b6146d99250803d106146e0575b6146d18183612a20565b810190614596565b38806146aa565b503d6146c7565b6040513d6000823e3d90fd5b50505050505050600190565b8881813d831161472e575b6147148183612a20565b810103126102b0575190811515820361090357503861463c565b503d61470a565b5050505050600190565b90604051918261475b6020820192602084526040830190612915565b039261476f601f1994858101835282612a20565b5190209161479d60405191826147916020820195602087526040830190612915565b03908101835282612a20565b5190201490565b9081516147b081612a41565b906147be6040519283612a20565b8082526147cd601f1991612a41565b01602090368284013760005b8451811015614880576147ec81866135c1565b5190604160f892831c101580614869575b15614842578261480d82886135c1565b51831c019160ff8311612dfc5761483d92901b6001600160f81b03191660001a61483782866135c1565b53612ded565b6147d9565b61483d91506001600160f81b031961485a82886135c1565b511660001a61483782866135c1565b50605a61487682886135c1565b51831c11156147fd565b5090925050565b9061489461092e8261372e565b61489d816134f6565b916148a782613532565b926001600160a01b03918216908216818114939092908415614931575b50508215614908575b82156148da575050905090565b6040925060ff936000928352600f602052838320908352602052828220908252602052205416803880612ea5565b915080600052600a60205260026040600020018260005260205260ff60406000205416916148cd565b82945061493d906136d6565b16149138806148c4565b61495081614973565b1561496d57600052600e60205260016134a4604060002054612b9b565b50600090565b600d5415159081614982575090565b809150600052600e602052613756604060002054612b9b565b6000818152600e60205260016149b46040832054612b9b565b5001908154151592836149c8575b50505090565b6149e99350906040918152600c602052818120818052602052205490613709565b90549060031b1c153880806149c2565b906000828152600e6020526001614a136040832054612b9b565b500190815415159384614a27575050505090565b614a49939450906040918152600c602052818120858252602052205490613709565b90549060031b1c1438808080613024565b15614a6157565b60405162461bcd60e51b815260206004820152603160248201527f43544d5257413030313a2063616c6c6572206973206e6f7420746f6b656e206f6044820152701ddb995c881b9bdc88185c1c1c9bdd9959607a1b6064820152608490fd5b15614ac757565b60405162461bcd60e51b815260206004820152603460248201527f43544d5257413030313a207472616e736665722063616c6c6572206973206e6f6044820152731d081bdddb995c881b9bdc88185c1c1c9bdd995960621b6064820152608490fd5b919091614b35826134f6565b6001600160a01b039190828216908316819003614dd9578285168015614d84578491614b6083613532565b96614b6a84613480565b508115948580614d7c575b80614d6c575b614c4f575b614bf291612159868093816000809c82825260096020526004614ba66040842054613445565b500180546001600160a01b0319169055614bbf836134f6565b167f8c5be1e5ebec7d5bd14f71427d1e84f3dd0314c0f7b2291e5b200ac8c7c3b9258280a4614bed82613f7c565b613c15565b600080516020614ffe8339815191528580a480614c47575b80614c36575b15614c315782612c9d938252600e6020526040600161386482852054612b9b565b505050565b50614c4182846149f9565b15614c10565b508115614c0a565b9091929350614c5d88614973565b6139ab57604051614c6d81612a05565b600090818152604051614c7f816129cf565b8a8152602091828201908152600d54928c8552600e8152836040862055600160401b928385101561398357614cbb600195868101600d55612b9b565b919091613997579085915181550191518051936001600160401b03851161388757841161398357918184928f96948f9c9b9a999896614cff90855481875586613cc6565b0191855280852090855b848110614d4057505050505050868093614bf29593838060008051602061501e8339815191528161215997a4935050509150614b80565b9085975083819496939597999a9b9c9d50519501948185015501918e9593918e9b9a9998979593614d09565b50614d7689614973565b15614b7b565b508415614b75565b60405162461bcd60e51b815260206004820152602760248201527f43544d5257413030313a207472616e7366657220746f20746865207a65726f206044820152666164647265737360c81b6064820152608490fd5b60405162461bcd60e51b815260206004820152602660248201527f43544d5257413030313a207472616e736665722066726f6d20696e76616c69646044820152651037bbb732b960d11b6064820152608490fd5b90614e51939291614e41611f258433614887565b614e4c838383614b29565b614eaf565b15614e5857565b60405162461bcd60e51b815260206004820152602960248201527f43544d5257413030313a207472616e7366657220746f206e6f6e20455243373260448201526818a932b1b2b4bb32b960b91b6064820152608490fd5b9192813b63ffffffff1615612eac57602091614f07916000604051958680958194630a85bd0160e11b9a8b845233600485015260018060a01b0380951660248501526044840152608060648401526084830190612915565b0393165af160009181614f9d575b50614f8f57614f226145b6565b80519081614f8a5760405162461bcd60e51b815260206004820152603260248201527f4552433732313a207472616e7366657220746f206e6f6e20455243373231526560448201527131b2b4bb32b91034b6b83632b6b2b73a32b960711b6064820152608490fd5b602001fd5b6001600160e01b0319161490565b614fb691925060203d81116146e0576146d18183612a20565b9038614f1556fe43544d525741303031536c6f74456e756d657261626c653a20736c6f7420616c0b2aac84f3ec956911fd78eae5311062972ff949f38412e8da39069d9f068cc6ddf252ad1be2c89b69c2b068fc378daa952ba7f163c4a11628f55a4df523b3efe4f48c240d3b994948aa54f3e2f5fca59263dfe1d52b6e4cf39a5d249b5ccb65a2646970667358221220cea86587b280ee752bf9702d8af853fd501523e89636c88cfe12bb272e15b37164736f6c63430008140033",
  "linkReferences": {},
  "deployedLinkReferences": {}
}