{
  "_format": "hh-sol-artifact-1",
  "contractName": "CTMRWA001TxFee",
  "sourceName": "contracts/mocks/CTMRWA001TxFee.sol",
  "abi": [
    {
      "inputs": [
        {
          "internalType": "string",
          "name": "name_",
          "type": "string"
        },
        {
          "internalType": "string",
          "name": "symbol_",
          "type": "string"
        },
        {
          "internalType": "uint8",
          "name": "decimals_",
          "type": "uint8"
        },
        {
          "internalType": "address",
          "name": "_ctmRwa001XChain",
          "type": "address"
        }
      ],
      "stateMutability": "nonpayable",
      "type": "constructor"
    },
    {
      "anonymous": false,
      "inputs": [
        {
          "indexed": true,
          "internalType": "address",
          "name": "_owner",
          "type": "address"
        },
        {
          "indexed": true,
          "internalType": "address",
          "name": "_approved",
          "type": "address"
        },
        {
          "indexed": true,
          "internalType": "uint256",
          "name": "_tokenId",
          "type": "uint256"
        }
      ],
      "name": "Approval",
      "type": "event"
    },
    {
      "anonymous": false,
      "inputs": [
        {
          "indexed": true,
          "internalType": "address",
          "name": "_owner",
          "type": "address"
        },
        {
          "indexed": true,
          "internalType": "address",
          "name": "_operator",
          "type": "address"
        },
        {
          "indexed": false,
          "internalType": "bool",
          "name": "_approved",
          "type": "bool"
        }
      ],
      "name": "ApprovalForAll",
      "type": "event"
    },
    {
      "anonymous": false,
      "inputs": [
        {
          "indexed": true,
          "internalType": "address",
          "name": "_owner",
          "type": "address"
        },
        {
          "indexed": true,
          "internalType": "uint256",
          "name": "_slot",
          "type": "uint256"
        },
        {
          "indexed": true,
          "internalType": "address",
          "name": "_operator",
          "type": "address"
        },
        {
          "indexed": false,
          "internalType": "bool",
          "name": "_approved",
          "type": "bool"
        }
      ],
      "name": "ApprovalForSlot",
      "type": "event"
    },
    {
      "anonymous": false,
      "inputs": [
        {
          "indexed": true,
          "internalType": "uint256",
          "name": "_tokenId",
          "type": "uint256"
        },
        {
          "indexed": true,
          "internalType": "address",
          "name": "_operator",
          "type": "address"
        },
        {
          "indexed": false,
          "internalType": "uint256",
          "name": "_value",
          "type": "uint256"
        }
      ],
      "name": "ApprovalValue",
      "type": "event"
    },
    {
      "anonymous": false,
      "inputs": [
        {
          "indexed": true,
          "internalType": "address",
          "name": "metadataDescriptor",
          "type": "address"
        }
      ],
      "name": "SetMetadataDescriptor",
      "type": "event"
    },
    {
      "anonymous": false,
      "inputs": [
        {
          "indexed": true,
          "internalType": "uint256",
          "name": "_tokenId",
          "type": "uint256"
        },
        {
          "indexed": true,
          "internalType": "uint256",
          "name": "_oldSlot",
          "type": "uint256"
        },
        {
          "indexed": true,
          "internalType": "uint256",
          "name": "_newSlot",
          "type": "uint256"
        }
      ],
      "name": "SlotChanged",
      "type": "event"
    },
    {
      "anonymous": false,
      "inputs": [
        {
          "indexed": true,
          "internalType": "address",
          "name": "_from",
          "type": "address"
        },
        {
          "indexed": true,
          "internalType": "address",
          "name": "_to",
          "type": "address"
        },
        {
          "indexed": true,
          "internalType": "uint256",
          "name": "_tokenId",
          "type": "uint256"
        }
      ],
      "name": "Transfer",
      "type": "event"
    },
    {
      "anonymous": false,
      "inputs": [
        {
          "indexed": true,
          "internalType": "uint256",
          "name": "_fromTokenId",
          "type": "uint256"
        },
        {
          "indexed": true,
          "internalType": "uint256",
          "name": "_toTokenId",
          "type": "uint256"
        },
        {
          "indexed": false,
          "internalType": "uint256",
          "name": "_value",
          "type": "uint256"
        }
      ],
      "name": "TransferValue",
      "type": "event"
    },
    {
      "inputs": [
        {
          "internalType": "address",
          "name": "_admin",
          "type": "address"
        },
        {
          "internalType": "string[]",
          "name": "_chainIdsStr",
          "type": "string[]"
        },
        {
          "internalType": "string[]",
          "name": "_contractAddrsStr",
          "type": "string[]"
        }
      ],
      "name": "addXTokenInfo",
      "outputs": [
        {
          "internalType": "bool",
          "name": "",
          "type": "bool"
        }
      ],
      "stateMutability": "nonpayable",
      "type": "function"
    },
    {
      "inputs": [],
      "name": "admin",
      "outputs": [
        {
          "internalType": "address",
          "name": "",
          "type": "address"
        }
      ],
      "stateMutability": "view",
      "type": "function"
    },
    {
      "inputs": [
        {
          "internalType": "uint256",
          "name": "tokenId_",
          "type": "uint256"
        },
        {
          "internalType": "address",
          "name": "operator_",
          "type": "address"
        }
      ],
      "name": "allowance",
      "outputs": [
        {
          "internalType": "uint256",
          "name": "",
          "type": "uint256"
        }
      ],
      "stateMutability": "view",
      "type": "function"
    },
    {
      "inputs": [
        {
          "internalType": "address",
          "name": "to_",
          "type": "address"
        },
        {
          "internalType": "uint256",
          "name": "tokenId_",
          "type": "uint256"
        }
      ],
      "name": "approve",
      "outputs": [],
      "stateMutability": "payable",
      "type": "function"
    },
    {
      "inputs": [
        {
          "internalType": "uint256",
          "name": "tokenId_",
          "type": "uint256"
        },
        {
          "internalType": "address",
          "name": "to_",
          "type": "address"
        },
        {
          "internalType": "uint256",
          "name": "value_",
          "type": "uint256"
        }
      ],
      "name": "approve",
      "outputs": [],
      "stateMutability": "payable",
      "type": "function"
    },
    {
      "inputs": [
        {
          "internalType": "address",
          "name": "to_",
          "type": "address"
        },
        {
          "internalType": "uint256",
          "name": "tokenId_",
          "type": "uint256"
        }
      ],
      "name": "approveFromX",
      "outputs": [],
      "stateMutability": "nonpayable",
      "type": "function"
    },
    {
      "inputs": [
        {
          "internalType": "address",
          "name": "owner_",
          "type": "address"
        }
      ],
      "name": "balanceOf",
      "outputs": [
        {
          "internalType": "uint256",
          "name": "balance",
          "type": "uint256"
        }
      ],
      "stateMutability": "view",
      "type": "function"
    },
    {
      "inputs": [
        {
          "internalType": "uint256",
          "name": "tokenId_",
          "type": "uint256"
        }
      ],
      "name": "balanceOf",
      "outputs": [
        {
          "internalType": "uint256",
          "name": "",
          "type": "uint256"
        }
      ],
      "stateMutability": "view",
      "type": "function"
    },
    {
      "inputs": [
        {
          "internalType": "uint256",
          "name": "tokenId_",
          "type": "uint256"
        }
      ],
      "name": "burn",
      "outputs": [],
      "stateMutability": "nonpayable",
      "type": "function"
    },
    {
      "inputs": [
        {
          "internalType": "uint256",
          "name": "tokenId_",
          "type": "uint256"
        },
        {
          "internalType": "uint256",
          "name": "burnValue_",
          "type": "uint256"
        }
      ],
      "name": "burnValue",
      "outputs": [],
      "stateMutability": "nonpayable",
      "type": "function"
    },
    {
      "inputs": [
        {
          "internalType": "uint256",
          "name": "fromTokenId_",
          "type": "uint256"
        },
        {
          "internalType": "uint256",
          "name": "value_",
          "type": "uint256"
        }
      ],
      "name": "burnValueX",
      "outputs": [
        {
          "internalType": "bool",
          "name": "",
          "type": "bool"
        }
      ],
      "stateMutability": "nonpayable",
      "type": "function"
    },
    {
      "inputs": [
        {
          "internalType": "address",
          "name": "_admin",
          "type": "address"
        }
      ],
      "name": "changeAdmin",
      "outputs": [
        {
          "internalType": "bool",
          "name": "",
          "type": "bool"
        }
      ],
      "stateMutability": "nonpayable",
      "type": "function"
    },
    {
      "inputs": [
        {
          "internalType": "string",
          "name": "_otherChainIdStr",
          "type": "string"
        },
        {
          "internalType": "string",
          "name": "_otherContractStr",
          "type": "string"
        }
      ],
      "name": "checkTokenCompatibility",
      "outputs": [
        {
          "internalType": "bool",
          "name": "",
          "type": "bool"
        }
      ],
      "stateMutability": "view",
      "type": "function"
    },
    {
      "inputs": [
        {
          "internalType": "uint256",
          "name": "tokenId_",
          "type": "uint256"
        }
      ],
      "name": "clearApprovedValues",
      "outputs": [],
      "stateMutability": "nonpayable",
      "type": "function"
    },
    {
      "inputs": [],
      "name": "contractURI",
      "outputs": [
        {
          "internalType": "string",
          "name": "",
          "type": "string"
        }
      ],
      "stateMutability": "view",
      "type": "function"
    },
    {
      "inputs": [],
      "name": "ctmRwa001XChain",
      "outputs": [
        {
          "internalType": "address",
          "name": "",
          "type": "address"
        }
      ],
      "stateMutability": "view",
      "type": "function"
    },
    {
      "inputs": [
        {
          "internalType": "uint256",
          "name": "tokenId_",
          "type": "uint256"
        }
      ],
      "name": "getApproved",
      "outputs": [
        {
          "internalType": "address",
          "name": "",
          "type": "address"
        }
      ],
      "stateMutability": "view",
      "type": "function"
    },
    {
      "inputs": [
        {
          "internalType": "string",
          "name": "_chainIdStr",
          "type": "string"
        }
      ],
      "name": "getTokenContract",
      "outputs": [
        {
          "internalType": "string",
          "name": "",
          "type": "string"
        }
      ],
      "stateMutability": "view",
      "type": "function"
    },
    {
      "inputs": [
        {
          "internalType": "uint256",
          "name": "tokenId_",
          "type": "uint256"
        }
      ],
      "name": "getTokenInfo",
      "outputs": [
        {
          "internalType": "uint256",
          "name": "",
          "type": "uint256"
        },
        {
          "internalType": "uint256",
          "name": "",
          "type": "uint256"
        },
        {
          "internalType": "address",
          "name": "",
          "type": "address"
        },
        {
          "internalType": "uint256",
          "name": "",
          "type": "uint256"
        }
      ],
      "stateMutability": "view",
      "type": "function"
    },
    {
      "inputs": [
        {
          "internalType": "uint256",
          "name": "tokenId_",
          "type": "uint256"
        }
      ],
      "name": "idOf",
      "outputs": [
        {
          "internalType": "uint256",
          "name": "",
          "type": "uint256"
        }
      ],
      "stateMutability": "view",
      "type": "function"
    },
    {
      "inputs": [
        {
          "internalType": "address",
          "name": "owner_",
          "type": "address"
        },
        {
          "internalType": "address",
          "name": "operator_",
          "type": "address"
        }
      ],
      "name": "isApprovedForAll",
      "outputs": [
        {
          "internalType": "bool",
          "name": "",
          "type": "bool"
        }
      ],
      "stateMutability": "view",
      "type": "function"
    },
    {
      "inputs": [
        {
          "internalType": "address",
          "name": "owner_",
          "type": "address"
        },
        {
          "internalType": "uint256",
          "name": "slot_",
          "type": "uint256"
        },
        {
          "internalType": "address",
          "name": "operator_",
          "type": "address"
        }
      ],
      "name": "isApprovedForSlot",
      "outputs": [
        {
          "internalType": "bool",
          "name": "",
          "type": "bool"
        }
      ],
      "stateMutability": "view",
      "type": "function"
    },
    {
      "inputs": [
        {
          "internalType": "address",
          "name": "operator_",
          "type": "address"
        },
        {
          "internalType": "uint256",
          "name": "tokenId_",
          "type": "uint256"
        }
      ],
      "name": "isApprovedOrOwner",
      "outputs": [
        {
          "internalType": "bool",
          "name": "",
          "type": "bool"
        }
      ],
      "stateMutability": "view",
      "type": "function"
    },
    {
      "inputs": [],
      "name": "metadataDescriptor",
      "outputs": [
        {
          "internalType": "contract ICTMRWA001MetadataDescriptor",
          "name": "",
          "type": "address"
        }
      ],
      "stateMutability": "view",
      "type": "function"
    },
    {
      "inputs": [
        {
          "internalType": "address",
          "name": "mintTo_",
          "type": "address"
        },
        {
          "internalType": "uint256",
          "name": "tokenId_",
          "type": "uint256"
        },
        {
          "internalType": "uint256",
          "name": "slot_",
          "type": "uint256"
        },
        {
          "internalType": "uint256",
          "name": "value_",
          "type": "uint256"
        }
      ],
      "name": "mint",
      "outputs": [],
      "stateMutability": "nonpayable",
      "type": "function"
    },
    {
      "inputs": [
        {
          "internalType": "address",
          "name": "to_",
          "type": "address"
        },
        {
          "internalType": "uint256",
          "name": "tokenId_",
          "type": "uint256"
        },
        {
          "internalType": "uint256",
          "name": "slot_",
          "type": "uint256"
        },
        {
          "internalType": "uint256",
          "name": "value_",
          "type": "uint256"
        }
      ],
      "name": "mintFromX",
      "outputs": [],
      "stateMutability": "nonpayable",
      "type": "function"
    },
    {
      "inputs": [
        {
          "internalType": "address",
          "name": "to_",
          "type": "address"
        },
        {
          "internalType": "uint256",
          "name": "slot_",
          "type": "uint256"
        },
        {
          "internalType": "uint256",
          "name": "value_",
          "type": "uint256"
        }
      ],
      "name": "mintFromX",
      "outputs": [
        {
          "internalType": "uint256",
          "name": "tokenId",
          "type": "uint256"
        }
      ],
      "stateMutability": "nonpayable",
      "type": "function"
    },
    {
      "inputs": [
        {
          "internalType": "uint256",
          "name": "tokenId_",
          "type": "uint256"
        },
        {
          "internalType": "uint256",
          "name": "value_",
          "type": "uint256"
        }
      ],
      "name": "mintValue",
      "outputs": [],
      "stateMutability": "nonpayable",
      "type": "function"
    },
    {
      "inputs": [
        {
          "internalType": "uint256",
          "name": "toTokenId_",
          "type": "uint256"
        },
        {
          "internalType": "uint256",
          "name": "slot_",
          "type": "uint256"
        },
        {
          "internalType": "uint256",
          "name": "value_",
          "type": "uint256"
        }
      ],
      "name": "mintValueX",
      "outputs": [
        {
          "internalType": "bool",
          "name": "",
          "type": "bool"
        }
      ],
      "stateMutability": "nonpayable",
      "type": "function"
    },
    {
      "inputs": [],
      "name": "name",
      "outputs": [
        {
          "internalType": "string",
          "name": "",
          "type": "string"
        }
      ],
      "stateMutability": "view",
      "type": "function"
    },
    {
      "inputs": [
        {
          "internalType": "uint256",
          "name": "tokenId_",
          "type": "uint256"
        }
      ],
      "name": "ownerOf",
      "outputs": [
        {
          "internalType": "address",
          "name": "owner_",
          "type": "address"
        }
      ],
      "stateMutability": "view",
      "type": "function"
    },
    {
      "inputs": [
        {
          "internalType": "address",
          "name": "from_",
          "type": "address"
        },
        {
          "internalType": "uint256",
          "name": "tokenId_",
          "type": "uint256"
        }
      ],
      "name": "removeTokenFromOwnerEnumeration",
      "outputs": [],
      "stateMutability": "nonpayable",
      "type": "function"
    },
    {
      "inputs": [
        {
          "internalType": "address",
          "name": "from_",
          "type": "address"
        },
        {
          "internalType": "address",
          "name": "to_",
          "type": "address"
        },
        {
          "internalType": "uint256",
          "name": "tokenId_",
          "type": "uint256"
        }
      ],
      "name": "safeTransferFrom",
      "outputs": [],
      "stateMutability": "payable",
      "type": "function"
    },
    {
      "inputs": [
        {
          "internalType": "address",
          "name": "from_",
          "type": "address"
        },
        {
          "internalType": "address",
          "name": "to_",
          "type": "address"
        },
        {
          "internalType": "uint256",
          "name": "tokenId_",
          "type": "uint256"
        },
        {
          "internalType": "bytes",
          "name": "data_",
          "type": "bytes"
        }
      ],
      "name": "safeTransferFrom",
      "outputs": [],
      "stateMutability": "payable",
      "type": "function"
    },
    {
      "inputs": [
        {
          "internalType": "address",
          "name": "operator_",
          "type": "address"
        },
        {
          "internalType": "bool",
          "name": "approved_",
          "type": "bool"
        }
      ],
      "name": "setApprovalForAll",
      "outputs": [],
      "stateMutability": "nonpayable",
      "type": "function"
    },
    {
      "inputs": [
        {
          "internalType": "address",
          "name": "owner_",
          "type": "address"
        },
        {
          "internalType": "uint256",
          "name": "slot_",
          "type": "uint256"
        },
        {
          "internalType": "address",
          "name": "operator_",
          "type": "address"
        },
        {
          "internalType": "bool",
          "name": "approved_",
          "type": "bool"
        }
      ],
      "name": "setApprovalForSlot",
      "outputs": [],
      "stateMutability": "payable",
      "type": "function"
    },
    {
      "inputs": [
        {
          "internalType": "uint256",
          "name": "index_",
          "type": "uint256"
        }
      ],
      "name": "slotByIndex",
      "outputs": [
        {
          "internalType": "uint256",
          "name": "",
          "type": "uint256"
        }
      ],
      "stateMutability": "view",
      "type": "function"
    },
    {
      "inputs": [],
      "name": "slotCount",
      "outputs": [
        {
          "internalType": "uint256",
          "name": "",
          "type": "uint256"
        }
      ],
      "stateMutability": "view",
      "type": "function"
    },
    {
      "inputs": [
        {
          "internalType": "uint256",
          "name": "tokenId_",
          "type": "uint256"
        }
      ],
      "name": "slotOf",
      "outputs": [
        {
          "internalType": "uint256",
          "name": "",
          "type": "uint256"
        }
      ],
      "stateMutability": "view",
      "type": "function"
    },
    {
      "inputs": [
        {
          "internalType": "uint256",
          "name": "slot_",
          "type": "uint256"
        }
      ],
      "name": "slotURI",
      "outputs": [
        {
          "internalType": "string",
          "name": "",
          "type": "string"
        }
      ],
      "stateMutability": "view",
      "type": "function"
    },
    {
      "inputs": [
        {
          "internalType": "address",
          "name": "operator_",
          "type": "address"
        },
        {
          "internalType": "uint256",
          "name": "tokenId_",
          "type": "uint256"
        },
        {
          "internalType": "uint256",
          "name": "value_",
          "type": "uint256"
        }
      ],
      "name": "spendAllowance",
      "outputs": [],
      "stateMutability": "nonpayable",
      "type": "function"
    },
    {
      "inputs": [
        {
          "internalType": "string",
          "name": "a",
          "type": "string"
        },
        {
          "internalType": "string",
          "name": "b",
          "type": "string"
        }
      ],
      "name": "stringsEqual",
      "outputs": [
        {
          "internalType": "bool",
          "name": "",
          "type": "bool"
        }
      ],
      "stateMutability": "pure",
      "type": "function"
    },
    {
      "inputs": [
        {
          "internalType": "bytes4",
          "name": "interfaceId",
          "type": "bytes4"
        }
      ],
      "name": "supportsInterface",
      "outputs": [
        {
          "internalType": "bool",
          "name": "",
          "type": "bool"
        }
      ],
      "stateMutability": "view",
      "type": "function"
    },
    {
      "inputs": [],
      "name": "symbol",
      "outputs": [
        {
          "internalType": "string",
          "name": "",
          "type": "string"
        }
      ],
      "stateMutability": "view",
      "type": "function"
    },
    {
      "inputs": [
        {
          "internalType": "uint256",
          "name": "index_",
          "type": "uint256"
        }
      ],
      "name": "tokenByIndex",
      "outputs": [
        {
          "internalType": "uint256",
          "name": "",
          "type": "uint256"
        }
      ],
      "stateMutability": "view",
      "type": "function"
    },
    {
      "inputs": [
        {
          "internalType": "uint256",
          "name": "",
          "type": "uint256"
        }
      ],
      "name": "tokenContract",
      "outputs": [
        {
          "internalType": "string",
          "name": "chainIdStr",
          "type": "string"
        },
        {
          "internalType": "string",
          "name": "contractStr",
          "type": "string"
        }
      ],
      "stateMutability": "view",
      "type": "function"
    },
    {
      "inputs": [
        {
          "internalType": "uint256",
          "name": "slot_",
          "type": "uint256"
        },
        {
          "internalType": "uint256",
          "name": "index_",
          "type": "uint256"
        }
      ],
      "name": "tokenInSlotByIndex",
      "outputs": [
        {
          "internalType": "uint256",
          "name": "",
          "type": "uint256"
        }
      ],
      "stateMutability": "view",
      "type": "function"
    },
    {
      "inputs": [
        {
          "internalType": "address",
          "name": "owner_",
          "type": "address"
        },
        {
          "internalType": "uint256",
          "name": "index_",
          "type": "uint256"
        }
      ],
      "name": "tokenOfOwnerByIndex",
      "outputs": [
        {
          "internalType": "uint256",
          "name": "",
          "type": "uint256"
        }
      ],
      "stateMutability": "view",
      "type": "function"
    },
    {
      "inputs": [
        {
          "internalType": "uint256",
          "name": "slot_",
          "type": "uint256"
        }
      ],
      "name": "tokenSupplyInSlot",
      "outputs": [
        {
          "internalType": "uint256",
          "name": "",
          "type": "uint256"
        }
      ],
      "stateMutability": "view",
      "type": "function"
    },
    {
      "inputs": [
        {
          "internalType": "uint256",
          "name": "tokenId_",
          "type": "uint256"
        }
      ],
      "name": "tokenURI",
      "outputs": [
        {
          "internalType": "string",
          "name": "",
          "type": "string"
        }
      ],
      "stateMutability": "view",
      "type": "function"
    },
    {
      "inputs": [],
      "name": "totalSupply",
      "outputs": [
        {
          "internalType": "uint256",
          "name": "",
          "type": "uint256"
        }
      ],
      "stateMutability": "view",
      "type": "function"
    },
    {
      "inputs": [
        {
          "internalType": "uint256",
          "name": "fromTokenId_",
          "type": "uint256"
        },
        {
          "internalType": "address",
          "name": "to_",
          "type": "address"
        },
        {
          "internalType": "uint256",
          "name": "value_",
          "type": "uint256"
        }
      ],
      "name": "transferFrom",
      "outputs": [
        {
          "internalType": "uint256",
          "name": "newTokenId",
          "type": "uint256"
        }
      ],
      "stateMutability": "payable",
      "type": "function"
    },
    {
      "inputs": [
        {
          "internalType": "address",
          "name": "from_",
          "type": "address"
        },
        {
          "internalType": "address",
          "name": "to_",
          "type": "address"
        },
        {
          "internalType": "uint256",
          "name": "tokenId_",
          "type": "uint256"
        }
      ],
      "name": "transferFrom",
      "outputs": [],
      "stateMutability": "payable",
      "type": "function"
    },
    {
      "inputs": [
        {
          "internalType": "uint256",
          "name": "fromTokenId_",
          "type": "uint256"
        },
        {
          "internalType": "uint256",
          "name": "toTokenId_",
          "type": "uint256"
        },
        {
          "internalType": "uint256",
          "name": "value_",
          "type": "uint256"
        }
      ],
      "name": "transferFrom",
      "outputs": [],
      "stateMutability": "payable",
      "type": "function"
    },
    {
      "inputs": [],
      "name": "valueDecimals",
      "outputs": [
        {
          "internalType": "uint8",
          "name": "",
          "type": "uint8"
        }
      ],
      "stateMutability": "view",
      "type": "function"
    }
  ],
  "bytecode": "0x6080604081815234620007045762005ca9803803809162000021828662000709565b8439820190608083830312620007045782516001600160401b03908181116200070457836200005291860162000784565b92602090818601519083821162000704576200007091870162000784565b94838101519260ff918285168095036200070457606001516001600160a01b0381169290839003620007045760018060a01b031993600093338686541617855560019586600655895197858911620006f05760039880620000d28b54620007d1565b601f9d818f80931162000691575b50879183116001146200062e578a9262000622575b5050600019828c1b1c191690891b1789555b8b518681116200060e5760049b620001208d54620007d1565b818111620005ca575b508c9d8c9d8a9d9c9d50879284116001146200053d57509b8291620002329d8b9362000531575b5050828b1b92600019911b1c1916178c555b60ff196005541617600555865416178555468086867a184f03e93ff9f4daa797ed6e38ed64bf6a1f0100000000000000008084101562000520575b50846d04ee2d6d415b85acef81000000008086101562000513575b5050662386f26fc100008085101562000505575b506305f5e10080851015620004f7575b508c61271080861015620004ea575b50506064841015620004db575b60219082600a80961015620004d3575b810162000223620002198262000743565b9c519c8d62000709565b808c52601f199c8d9162000743565b0136878d01378a0101905b620004a2575b505050308851936060850190858210908211176200048f578952602a8452818401893682378451156200047c5760309053835186101562000469576078602185015360295b868111620003fd5750620003bc57825196620002c0620002a88962000743565b98620002b78b519a8b62000709565b808a5262000743565b01368289013783855b620002eb575b88620002dc89896200087c565b505161501b908162000c8e8239f35b8351811015620003b6576200030181856200080e565b51604160f891821c1015806200039c575b156200037157826200032583876200080e565b51821c018481116200035e576200035792911b6001600160f81b031916861a62000350828b6200080e565b5362000836565b85620002c9565b634e487b7160e01b875260118c52602487fd5b5062000357906001600160f81b03196200038c82876200080e565b5116861a62000350828b6200080e565b50605a620003ab83876200080e565b51821c111562000312565b620002cf565b88816064928a519262461bcd60e51b845283015260248201527f537472696e67733a20686578206c656e67746820696e73756666696369656e746044820152fd5b90600f8116601081101562000456576f181899199a1a9b1b9c1cb0b131b232b360811b901a6200042e83876200080e565b538a1c90801562000443576000190162000288565b634e487b7160e01b865260118b52602486fd5b634e487b7160e01b875260328c52602487fd5b634e487b7160e01b855260328a52602485fd5b634e487b7160e01b865260328b52602486fd5b634e487b7160e01b865260418b52602486fd5b600019019082906f181899199a1a9b1b9c1cb0b131b232b360811b8282061a8353049087826200023d575062000243565b018262000208565b606490930492600201620001f8565b90940493018c38620001eb565b6008919404930138620001dc565b6010919404930138620001cc565b90940493018438620001b8565b92935050508104908688386200019d565b01519150388062000150565b8a52868a20929c9190601f198e168b5b818110620005935750918e9391620002329f8e96941062000578575b50505050811b018c5562000162565b01519060f884600019921b161c191690553880808062000569565b93948d9f97999b9d8497999b9d9f508c92939491839286015181550196019301908f9d9b999795949392919e9c9a98969e6200054d565b8d8a52868a208280850160051c82019289861062000604575b0160051c01905b818110620005f9575062000129565b8a81558b01620005ea565b92508192620005e3565b634e487b7160e01b88526041600452602488fd5b015190503880620000f5565b8c8b52878b208c94509190601f1984168c5b8a8282106200067a575050841162000661575b505050811b01895562000107565b0151600019838e1b60f8161c1916905538808062000653565b8385015186558f9790950194938401930162000640565b915091508b8a528d878b209080850160051c820192898610620006e6575b859492828f929593950160051c01915b828110620006cf575050620000e0565b8d91939550809294505501918e918c8594620006bf565b92508192620006af565b634e487b7160e01b87526041600452602487fd5b600080fd5b601f909101601f19168101906001600160401b038211908210176200072d57604052565b634e487b7160e01b600052604160045260246000fd5b6001600160401b0381116200072d57601f01601f191660200190565b60005b838110620007735750506000910152565b818101518382015260200162000762565b81601f82011215620007045780516200079d8162000743565b92620007ad604051948562000709565b818452602082840101116200070457620007ce91602080850191016200075f565b90565b90600182811c9216801562000803575b6020831014620007ed57565b634e487b7160e01b600052602260045260246000fd5b91607f1691620007e1565b90815181101562000820570160200190565b634e487b7160e01b600052603260045260246000fd5b6000198114620008465760010190565b634e487b7160e01b600052601160045260246000fd5b6002548110156200082057600260005260206000209060011b0190600090565b60025490929160005b82811062000b31575060408051946001600160401b03918601828111878210176200072d576040528552602094858101928352680100000000000000008410156200072d57620008dd6001948581016002556200085c565b91909162000b1b5751908151908382116200072d578591620009008254620007d1565b93601f9485811162000ac6575b50899085831160011462000a5b57600091908362000a4f575b5050600019600383901b1c191690831b1781555b0192519586519283116200072d57620009548454620007d1565b82811162000a04575b50809183116001146200099b575081929394956000926200098f575b5050600019600383901b1c191690831b17905590565b01519050388062000979565b90601f198316968460005282600020926000905b898210620009ec5750508386979896959610620009d2575b505050811b01905590565b015160001960f88460031b161c19169055388080620009c7565b808885968294968601518155019501930190620009af565b84600052816000208380860160051c82019284871062000a45575b0160051c019086905b82811062000a385750506200095d565b6000815501869062000a28565b9250819262000a1f565b01519050388062000926565b90601f19831691846000528b6000209260005b8d82821062000aaf575050908487959493921062000a95575b505050811b0181556200093a565b015160001960f88460031b161c1916905538808062000a87565b8385015186558c9890950194938401930162000a6e565b909192809450600052896000208580850160051c8201928c861062000b11575b908a9695949392910160051c01905b81811062000b0457506200090d565b6000815589950162000af5565b9250819262000ae6565b634e487b7160e01b600052600060045260246000fd5b62000b3c816200085c565b50604090815190816000825462000b5381620007d1565b8084529360019180831690811562000c3a575060011462000bf5575b505062000b7f9250038262000709565b81519062000bd26020918362000b99848201928362000c5f565b039362000baf601f199586810183528262000709565b5190209351918201928262000bc58b8662000c5f565b0390810183528262000709565b5190201462000bec5762000be69062000836565b62000885565b50600093505050565b90915060005260209283600020916000925b82841062000c23575050509162000b7f92820101388062000b6f565b805487850187015286945092850192810162000c07565b935050505062000b7f9260209160ff191682840152151560051b820101388062000b6f565b6040916020825262000c8181518092816020860152602086860191016200075f565b601f01601f191601019056fe6040608081526004908136101561001557600080fd5b600091823560e01c908162cd0110146127d157816301ffc9a7146126e457816306fdde031461261157816307521754146125df578163081812fc146125bf578163095ea7b3146124a057816309c3dd87146124125781630f485c0214611fe757816313d1995014611fcb57816315c77d8414611ef657816318160ddd14611ed757816323b872dd14611eb2578163263f3e7e14611e925781632f745c5914611de8578163310ed7f014611d6c578163381c4fce14611d1c5781633e7e866914611cfa578163404b6e9f14611cc057816342842e0e14611c9d57816342966c68146118eb578163430c2081146118ad578163449d0772146117f557816349178b25146117855781634f6ccce7146117065781634f8a0f83146116e657816355cd4e0614611545578163582939e5146115155781636352211e146114e457816370a08231146114be578163840f71131461149557816387fe8611146110ea5781638c7a63ae1461104b5781638cb0a51114610fa15781638f28397014610eed57816395d89b4114610e18578163968e8a1314610dde578163993bef8d14610d535781639c0e9a5d14610d375781639cc7f70814610d17578163a22cb46514610c3b578163a30fb02014610bd6578163a647e8ec14610bbb578163a6a2d1dd14610b3c578163b3875b9514610b13578163b88d4fde14610ab4578163bff2ed7114610a69578163c87b56dd1461093e578163dee9f53f146108fb578163e345e0bc146108c9578163e345f05e14610870578163e8a3d48514610603578163e985e9c5146105b2578163ed08fa8014610593578163f0e88e7f146102a9575063f851a4401461027f57600080fd5b346102a557816003193601126102a557905490516001600160a01b039091168152602090f35b5080fd5b8383346102a5576102b93661287f565b6102c482939261349e565b6102cd846134da565b916102d78361491b565b15610434575b6102e79085613a82565b6102f184836149a1565b6103335750839450806103309452600e602052600161031283872054612b43565b5001918254918652600c602052808620848752602052852055613af3565b80f35b90926001600160a01b0390911615908161042b575b508061041c575b61035b575b5050905080f35b8183526020600e8152600161037283862054612b43565b50019283546000198101908111610409578596509061039761040196949392866136b1565b9054828652600c84528486208680528452848620549160031b1c6103d8816103bf848a6136b1565b90919082549060031b91821b91600019901b1916179055565b828652600c84528486209086528352838520558352600c81528183209083805252812055613b7d565b808280610354565b634e487b7160e01b865260118752602486fd5b5061042682614943565b61034f565b90501585610348565b61043d8361491b565b61054d57835161044c816129ad565b868152845161045a81612977565b848152602091828201908152600d5492868a52600e815283888b2055600160401b928385101561051557610495600195868101600d55612b43565b91909161053b579085915181550191518051936001600160401b0385116105285784116105155781906104cd85855481875586613c6e565b01918a52808a20908a5b848110610504575050505050506102e790838780600080516020614fc68339815191528180a490506102dd565b8351838201559281019285016104d7565b634e487b7160e01b8b5260418c5260248bfd5b634e487b7160e01b8c5260418d5260248cfd5b634e487b7160e01b8c528b8d5260248cfd5b835162461bcd60e51b8152602081890152602c6024820152600080516020614f6683398151915260448201526b72656164792065786973747360a01b6064820152608490fd5b5050346102a557816003193601126102a557602090600d549051908152f35b5050346102a557806003193601126102a55760ff816020936105d26128e2565b6105da61290e565b6001600160a01b039182168352600a875283832091168252600201855220549151911615158152f35b90503461086c578260031936011261086c578151610620816129ad565b838152600b546001600160a01b03169081156106a657508390835192838092631c97e82760e21b82525afa90811561069a57836106739492610677575b5050905b519182916020835260208301906128bd565b0390f35b61069392503d8091833e61068b81836129c8565b8101906134fe565b388061065d565b505051903d90823e3d90fd5b929391905081156108515783513091606082016001600160401b0381118382101761083c578652602a8252602092838301948736873783511561082957603086538351906001918210156108165790607860218601536029915b8183116107ab5750505061076a5750849368636f6e74726163742f60b81b9361076493610755602994610673995197856107438a9751809287808b01910161289a565b8601938401525180938684019061289a565b010360098101845201826129c8565b90610661565b606490838088519262461bcd60e51b845283015260248201527f537472696e67733a20686578206c656e67746820696e73756666696369656e746044820152fd5b909192600f81166010811015610803576f181899199a1a9b1b9c1cb0b131b232b360811b901a6107db8588613569565b53841c9280156107f057600019019190610700565b634e487b7160e01b825260118552602482fd5b634e487b7160e01b835260328652602483fd5b634e487b7160e01b815260328452602490fd5b634e487b7160e01b815260328352602490fd5b604182634e487b7160e01b6000525260246000fd5b505050806106739151610863816129ad565b60008152610764565b8280fd5b5050346102a55760603660031901126102a55760ff816020936108916128e2565b6108996128f8565b6001600160a01b039182168352600f87528383206024358452875283832091168252855220549151911615158152f35b8284346108f857816003193601126108f857506108f16020926108ea61290e565b90356135d2565b9051908152f35b80fd5b90503461086c57602036600319011261086c57816020936109359235610928610923826136d6565b613452565b81526009855220546133ed565b50549051908152f35b90503461086c5760209081600319360112610a65578035610961610923826136d6565b83519161096d836129ad565b858352600b546001600160a01b03169283156109ee57509060248692865194859384926344a5a61760e11b84528301525afa9081156109e15784610673939495926109c6575b5050925b519282849384528301906128bd565b6109da92503d8091833e61068b81836129c8565b38806109b3565b50505051903d90823e3d90fd5b9250508483949550600014610a4b5761067392610a0d610a4592612f05565b9286519381610a25869351809286808701910161289a565b8201610a398251809386808501910161289a565b010380845201826129c8565b926109b7565b5050506106738251610a5c816129ad565b60008152610a45565b8380fd5b8284346108f8576020610aae83610a7f36612aeb565b90610a9860018060a09795971b03600154163314612d30565b6006548095610aa682612d95565b600655613704565b51908152f35b839060803660031901126102a557610aca6128e2565b610ad261290e565b906064356001600160401b038111610b0f5736602382011215610b0f5761033093816024610b0593369301359101612a04565b9160443591614dd5565b8480fd5b5050346102a557816003193601126102a55760015490516001600160a01b039091168152602090f35b8284346108f85760603660031901126108f857610b576128e2565b926001600160401b03602435818111610a6557610b779036908401612cad565b926044359182116108f8575091610b9760209592610bb294369101612cad565b91610bad60018060a01b03600154163314612d30565b612dce565b90519015158152f35b83346108f857610330610bcd36612b15565b92919091613704565b839150346102a55760203660031901126102a55735906002548210156108f85750610c0090612b93565b5090610673610c1a6001610c1385612c07565b9401612c07565b610c2d83519484869586528501906128bd565b9083820360208501526128bd565b9190503461086c578060031936011261086c57610c566128e2565b9060243580151592838203610d13576001600160a01b031693338514610cd05750610ca390338652600a6020526002838720018587526020528286209060ff801983541691151516179055565b519081527f17307eab39ab6107e8899845ad3d59bd9653f200f220920489ca2b5937696c3160203392a380f35b606490602084519162461bcd60e51b8352820152601c60248201527f43544d5257413030313a20617070726f766520746f2063616c6c6572000000006044820152fd5b8580fd5b8284346108f85760203660031901126108f857506108f160209235613428565b5050346102a557602090610bb2610d4d36612a59565b9061337a565b905082346108f85760203660031901126108f85750803590600d54821015610d815760208361093584612b43565b608490602084519162461bcd60e51b8352820152603160248201527f43544d525741303031536c6f74456e756d657261626c653a20736c6f7420696e604482015270646578206f7574206f6620626f756e647360781b6064820152fd5b5050346102a5573660031901126108f857610330610dfa6128e2565b610e0f60018060a01b03600154163314612d30565b60243590613d7c565b9190503461086c578260031936011261086c5780519183815490610e3b82612bcd565b80865292600192808416908115610ec25750600114610e66575b6106738686610661828b03836129c8565b815294507f8a35acfbc15ff81a39ae7d344fd709f28e8600b4aa8c65c6b64bfe7fe36bd19b5b828610610eaa57505050610661826020610673958201019438610e55565b80546020878701810191909152909501948101610e8c565b905061067397508693506020925061066194915060ff191682840152151560051b8201019438610e55565b8284346108f85760203660031901126108f857610f086128e2565b8154906001600160a01b03908183163303610f4d5760209550610f3082600154163314612d30565b16906bffffffffffffffffffffffff60a01b161790555160018152f35b845162461bcd60e51b8152602081880152602860248201527f43544d5257413030313a205468697320697320616e206f6e6c7941646d696e20604482015267333ab731ba34b7b760c11b6064820152608490fd5b839150610fad36612924565b92909190610fd16001600160a01b0380610fc68561349e565b16908516141561357a565b610fdb823361482f565b15610fec5750610330939450613de6565b608490602087519162461bcd60e51b8352820152603360248201527f43544d5257413030313a20617070726f76652063616c6c6572206973206e6f74604482015272081bdddb995c881b9bdc88185c1c1c9bdd9959606a1b6064820152fd5b8383346102a5576020908160031936011261086c576080933590611071610923836136d6565b81845260098352611084818520546133ed565b5054938281526009845260016110d48360026110a2828620546133ed565b50015493868152600988526110b9828220546133ed565b506003858060a01b03910154169681526009885220546133ed565b5001549382519586528501528301526060820152f35b8383346102a5576110fa3661287f565b9161110d611108833361482f565b614a02565b611119610923836136d6565b8184526020926009845261112f828620546133ed565b509260018060a01b0360038501541660019260028487015496019181835410611444578789928592159485809661143c575b8061142c575b6112b4575b908161118982600080516020614f868339815191529594546136c9565b90558851908152a3806112ac575b8061129c575b156111d85750849550826103309552600e84526111bc82872054612b43565b5001928354928652600c81528186209086805252842055613ac5565b919293906111e683866149a1565b6111f5575b5050505050905080f35b848652600e825261120884872054612b43565b50019384546000198101908111611289578697509061122e61127e9795949392876136b1565b9054828752600c84528587208588528452858720549160031b1c611256816103bf848b6136b1565b828752600c84528587209087528352848620558452600c815282842091845252812055613b7d565b8082808080806111eb565b634e487b7160e01b875260118852602487fd5b506112a684614943565b1561119d565b508015611197565b92509250506112c28761491b565b6113e65785516112d1816129ad565b8981528651906112e082612977565b888252898201908152600d5491898c52600e8b5282898d2055600160401b92838110156113bf5780896113169201600d55612b43565b9190916113d3579088915181550190518051926001600160401b0384116113bf578311610528579282828c89968f98958297611356915481865585613c6e565b019087528487208a885b84811061139c57505050505090600080516020614f8683398151915292918a8680600080516020614fc68339815191528180a49091925061116c565b9295985092959093965084519401938184015501928c95928895928a8e96611360565b50634e487b7160e01b8c5260418d5260248cfd5b50634e487b7160e01b8c528b8d5260248cfd5b855162461bcd60e51b8152808b01899052602c6024820152600080516020614f6683398151915260448201526b72656164792065786973747360a01b6064820152608490fd5b506114368a61491b565b15611167565b508315611161565b855162461bcd60e51b8152808b01899052602560248201527f43544d5257413030313a206275726e2076616c756520657863656564732062616044820152646c616e636560d81b6064820152608490fd5b5050346102a557816003193601126102a557600b5490516001600160a01b039091168152602090f35b5050346102a55760203660031901126102a5576020906108f16114df6128e2565b613603565b8284346108f85760203660031901126108f857506115046020923561349e565b90516001600160a01b039091168152f35b83346108f85761033061152736612b15565b9261154060018060a09594951b03600154163314612d30565b613704565b919050608036600319011261086c5761155c6128e2565b90602435916115696128f8565b91606435801515928382036116e2576001600160a01b039081169433861480156116c1575b1561164e5716958685146115f95750916020916115f17f7bdf71e6625aa496095bf08b60c677cf81c963f402cf258981e3bd7507d3480c94868a52600f8552828a20888b528552828a20898b528552828a209060ff801983541691151516179055565b51908152a480f35b608490602084519162461bcd60e51b8352820152602960248201527f43544d525741303031536c6f74417070726f7661626c653a20617070726f7665604482015268103a379037bbb732b960b91b6064820152fd5b835162461bcd60e51b81526020818a0152604160248201527f43544d525741303031536c6f74417070726f7661626c653a2063616c6c65722060448201527f6973206e6f74206f776e6572206e6f7220617070726f76656420666f7220616c6064820152601b60fa1b608482015260a490fd5b50858952600a6020526002848a2001338a5260205260ff848a20541661158e565b8780fd5b8284346108f85760203660031901126108f857506108f1602092356148ef565b905082346108f85760203660031901126108f8575080359060085482101561173457602083610935846133ed565b608490602084519162461bcd60e51b8352820152602560248201527f43544d5257413030313a20676c6f62616c20696e646578206f7574206f6620626044820152646f756e647360d81b6064820152fd5b5050346102a5576020916117ec60026117d6846117a13661287f565b95906117b860018060a01b03600154163314612d30565b6117c96117c4826136d6565b614026565b81526009885220546133ed565b50019182546117e7828210156140e0565b6136c9565b90555160018152f35b839150346102a55761180636612aeb565b909261181283856135d2565b9061181d858561482f565b15806118a1575b61182c578580f35b828210611854575061184a94955090611844916136c9565b91613de6565b8082808080808580f35b608490602088519162461bcd60e51b8352820152602160248201527f43544d5257413030313a20696e73756666696369656e7420616c6c6f77616e636044820152606560f81b6064820152fd5b50600019821415611824565b5050346102a557806003193601126102a557602090610bb26118cd6128e2565b6118e260018060a01b03600154163314612d30565b6024359061482f565b8383346102a5576020908160031936011261086c57833590611910611108833361482f565b61191c610923836136d6565b8184526009835261192f818520546133ed565b509160018060a01b03908160038501541691600192600284870154960154811592838094611c95575b80611c85575b611b41575b61196c85613f24565b6119768584613bbd565b600854600019810191908211611b2e57898b8260058f8b958d918c8652600987526119a483872054996133ed565b50928051986119b28a612992565b84548a52840154888a0152600284015490890152816003840154166060890152820154166080870152018b518094859381845493848152019386528d82872096925b848410611b0d575050505050611a0c925003826129c8565b60a0820152611a2481611a1e846133ed565b90613cb5565b518a5260098952868a205583895288868120556008548015611afa5760001901611a4d816133ed565b611ae85785600080516020614f868339815191528b8d958f95611a8f6005878a8f9a818a9e9c81809d5584015581600284015581600384015582015501613c91565b6008558b51908152a3818884600080516020614fc68339815191528380a4600080516020614fa68339815191528280a4806112ac578061129c57156111d85750849550826103309552600e84526111bc82872054612b43565b634e487b7160e01b8b528a8c5260248bfd5b634e487b7160e01b8a5260318b5260248afd5b909294828493959750885416815201950192018f918d8795939694966119f4565b634e487b7160e01b8b5260118c5260248bfd5b611b4a8861491b565b611c3f57888751611b5a816129ad565b8b815288518a8a8e611b6b84612977565b828452858401948552600e600d549687948352522055600160401b9283811015611c1857808a611b9e9201600d55612b43565b919091611c2d579089915181550190518051926001600160401b038411611c185783116113bf578b90611bd684845481865585613c6e565b01908c528a8c20888d5b848110611c06575050505050878a80600080516020614fc68339815191528180a4611963565b8d845194019381840155018990611be0565b5050634e487b7160e01b8c5260418d5260248cfd5b634e487b7160e01b8e528d8f5260248efd5b865162461bcd60e51b8152808c018a9052602c6024820152600080516020614f6683398151915260448201526b72656164792065786973747360a01b6064820152608490fd5b50611c8f8861491b565b1561195e565b508415611958565b8361033084611cab36612ab6565b91925192611cb8846129ad565b858452614dd5565b5050346102a5573660031901126108f857610330611cdc6128e2565b611cf160018060a01b03600154163314612d30565b60243590613bbd565b5050346102a557816003193601126102a55760209060ff600554169051908152f35b8284346108f85760203660031901126108f8578235906001600160401b0382116108f85750611d5461067393611d5992369101612a3b565b61330c565b90519182916020835260208301906128bd565b8383611d7736612a9c565b92909194303b15610b0f57815163224e83b960e11b81523391810191825260208201879052604082018590529190859083908190606001038183305af1908115611ddf5750611dcc575b506103309293614141565b92611dd96103309461294e565b92611dc1565b513d86823e3d90fd5b905082346108f857826003193601126108f857611e036128e2565b60243592611e1082613603565b841015611e4357602085611e358682878760018060a01b03168152600a8652206136b1565b91905490519160031b1c8152f35b608490602086519162461bcd60e51b83528201526024808201527f43544d5257413030313a206f776e657220696e646578206f7574206f6620626f604482015263756e647360e01b6064820152fd5b8284346108f85760203660031901126108f857506108f1602092356134da565b83610330611ebf36612ab6565b91611ed2611ecd843361482f565b614a68565b614ad1565b5050346102a557816003193601126102a5576020906008549051908152f35b90503461086c578190611f44611f0b36612a9c565b9491611f2560018060a09a949a1b03600154163314612d30565b611f36611f31826136d6565b614084565b8152600960205220546133ed565b5093600185015403611f6257506117ec60026020940191825461355c565b608490602084519162461bcd60e51b8352820152603a60248201527f43544d5257413030313a2044657374696e6174696f6e20736c6f74206973206e60448201527f6f74207468652073616d6520617320736f7572636520736c6f740000000000006064820152fd5b5050346102a557602090610bb2611fe136612a59565b906146e7565b8383611ff236612924565b9190303b15610b0f57835163224e83b960e11b8152338782019081526020810184905260408101859052869082908190606001038183305af18015612408576123f9575b506006549461204486612d95565b600655612050836134da565b916001600160a01b0381169081156123aa57871561235b57612071886136d6565b6123185761207e8461491b565b156121be575b8651986120908a6129ad565b838a5287519061209f82612992565b89825260209a868c840152858a84015284606084015285608084015260a0830152600854908a865260098c52818a872055600160401b8210156121ab5750899593612106878095612101610aae9c9b9996611a1e8760018699016008556133ed565b613b16565b82600080516020614fa68339815191528180a4828183600080516020614fc68339815191528280a481815260098a52612141888220546133ed565b50508181600080516020614f868339815191528c8b51838152a361216582846149a1565b6121a3578261219e938252600e8b5288600161218382852054612b43565b5001928354928152600c8d528181208582528d522055613af3565b614141565b505050614141565b634e487b7160e01b865260419052602485fd5b6121c78461491b565b6122d25786516121d6816129ad565b83815287516121e481612977565b858152602091828201908152600d5492878752600e8152838b882055600160401b92838510156122995761221f600195868101600d55612b43565b9190916122c0579085915181550191518051936001600160401b0385116122ad57841161229957819061225785855481875586613c6e565b0191875280872090875b84811061228857505050505050838380600080516020614fc68339815191528180a4612084565b835183820155928101928501612261565b50634e487b7160e01b875260418d52602487fd5b634e487b7160e01b895260418f52602489fd5b634e487b7160e01b8952888f52602489fd5b865162461bcd60e51b81526020818b0152602c6024820152600080516020614f6683398151915260448201526b72656164792065786973747360a01b6064820152608490fd5b865162461bcd60e51b81526020818b0152601f60248201527f43544d5257413030313a20746f6b656e20616c7265616479206d696e746564006044820152606490fd5b865162461bcd60e51b81526020818b0152602360248201527f43544d5257413030313a2063616e6e6f74206d696e74207a65726f20746f6b656044820152621b925960ea1b6064820152608490fd5b865162461bcd60e51b81526020818b0152602360248201527f43544d5257413030313a206d696e7420746f20746865207a65726f206164647260448201526265737360e81b6064820152608490fd5b6124029061294e565b86612036565b85513d88823e3d90fd5b90503461086c57602036600319011261086c57828251612431816129ad565b52600b546001600160a01b03169081156124875783906024845180948193633601bfc560e11b83528035908301525afa90811561069a5783610673949261067757505090519182916020835260208301906128bd565b5050805161067392612498826129ad565b815290610661565b839150826003193601126102a5576124b66128e2565b602435916124c38361349e565b6124cc846134da565b6001600160a01b03918216916124e690851683141561357a565b81331491821561259c575b8215612572575b50501561250a57509061033091613d7c565b60849085602081519262461bcd60e51b845283015260248201527f43544d5257413030313a20617070726f76652063616c6c6572206973206e6f7460448201527f206f776e6572206e6f7220617070726f76656420666f7220616c6c2f736c6f746064820152fd5b9091508552600f60205285852090855260205284842033855260205260ff858520541686806124f8565b8092508652600a60205260028787200133875260205260ff8787205416916124f1565b8284346108f85760203660031901126108f857506115046020923561367e565b8390346102a55760203660031901126102a5576103309061260b60018060a01b03600154163314612d30565b35613f24565b5050346102a557816003193601126102a5578051908260035461263381612bcd565b808552916001918083169081156126bc575060011461265f575b505050610661826106739403836129c8565b9450600385527fc2575a0e9e593c00f959f8c92f12db2869c3395a3b0502d05e2516446f71f85b5b8286106126a457505050610661826020610673958201019461264d565b80546020878701810191909152909501948101612687565b61067397508693506020925061066194915060ff191682840152151560051b8201019461264d565b90503461086c57602036600319011261086c57359063ffffffff60e01b821680920361086c57602092506316d117cb60e31b8214918215612729575b50519015158152f35b909150631dba0dcf60e11b8114908115612746575b509038612720565b6301ffc9a760e01b8114915081156127c0575b81156127af575b811561279e575b811561278d575b811561277c575b503861273e565b635b5e139f60e01b14905038612775565b63780e9d6360e01b8114915061276e565b6370b0048160e11b81149150612767565b6380ac58cd60e01b81149150612760565b630354d60560e61b81149150612759565b905082346108f8576127e23661287f565b926127ec826148ef565b84101561281657602085611e3586600161280f8489898152600e88522054612b43565b50016136b1565b608490602086519162461bcd60e51b8352820152603760248201527f43544d525741303031536c6f74456e756d657261626c653a20736c6f7420746f60448201527f6b656e20696e646578206f7574206f6620626f756e64730000000000000000006064820152fd5b6040906003190112612895576004359060243590565b600080fd5b60005b8381106128ad5750506000910152565b818101518382015260200161289d565b906020916128d68151809281855285808601910161289a565b601f01601f1916010190565b600435906001600160a01b038216820361289557565b604435906001600160a01b038216820361289557565b602435906001600160a01b038216820361289557565b606090600319011261289557600435906024356001600160a01b0381168103612895579060443590565b6001600160401b03811161296157604052565b634e487b7160e01b600052604160045260246000fd5b604081019081106001600160401b0382111761296157604052565b60c081019081106001600160401b0382111761296157604052565b602081019081106001600160401b0382111761296157604052565b90601f801991011681019081106001600160401b0382111761296157604052565b6001600160401b03811161296157601f01601f191660200190565b929192612a10826129e9565b91612a1e60405193846129c8565b829481845281830111612895578281602093846000960137010152565b9080601f8301121561289557816020612a5693359101612a04565b90565b906040600319830112612895576001600160401b036004358181116128955783612a8591600401612a3b565b9260243591821161289557612a5691600401612a3b565b606090600319011261289557600435906024359060443590565b6060906003190112612895576001600160a01b0390600435828116810361289557916024359081168103612895579060443590565b6060906003190112612895576004356001600160a01b038116810361289557906024359060443590565b6080906003190112612895576004356001600160a01b03811681036128955790602435906044359060643590565b600d54811015612b7d57600d60005260011b7fd7b6990105719101dabeb77144f2a3385c8033acd3af97e9423a695e81ad1eb50190600090565b634e487b7160e01b600052603260045260246000fd5b600254811015612b7d57600260005260011b7f405787fa12a823e0f2b7631cc41b3ba8828b3321ca811111fa75cd3aa3bb5ace0190600090565b90600182811c92168015612bfd575b6020831014612be757565b634e487b7160e01b600052602260045260246000fd5b91607f1691612bdc565b9060405191826000825492612c1b84612bcd565b908184526001948581169081600014612c8a5750600114612c47575b5050612c45925003836129c8565b565b9093915060005260209081600020936000915b818310612c72575050612c4593508201013880612c37565b85548884018501529485019487945091830191612c5a565b915050612c4594506020925060ff191682840152151560051b8201013880612c37565b9080601f83011215612895578135906001600160401b0392838311612961578260051b60405194602094612ce3868401886129c8565b865284808701928401019380851161289557858401925b858410612d0b575050505050505090565b8335838111612895578791612d25848480948a0101612a3b565b815201930192612cfa565b15612d3757565b60405162461bcd60e51b815260206004820152603060248201527f43544d5257413030313a20546869732063616e206f6e6c792062652063616c6c60448201526f0cac840c4f24086a89aa4ae82606062b60831b6064820152608490fd5b6000198114612da45760010190565b634e487b7160e01b600052601160045260246000fd5b8051821015612b7d5760209160051b010190565b600080549293909290916001600160a01b03918216911603612ec0578251815103612e5d57815b8351811015612e5457612e15612e0b8286612dba565b51611fe146612f05565b15612e29575b612e2490612d95565b612df5565b612e48612e368286612dba565b51612e418385612dba565b5190613084565b612e1b575b5050905090565b50505050600190565b60405162461bcd60e51b815260206004820152603560248201527f43544d5257413030313a204c656e677468206d69736d6174636820636861696e60448201527449647320616e6420636f6e7472616374416464727360581b6064820152608490fd5b60405162461bcd60e51b815260206004820152601e60248201527f43544d525741303031583a2041646d696e4f6e6c792066756e6374696f6e00006044820152606490fd5b806000917a184f03e93ff9f4daa797ed6e38ed64bf6a1f0100000000000000008082101561305f575b506d04ee2d6d415b85acef810000000080831015613050575b50662386f26fc1000080831015613041575b506305f5e10080831015613032575b5061271080831015613023575b506064821015613013575b600a80921015613009575b60019081602181860195612f9e876129e9565b96612fac60405198896129c8565b808852612fbb601f19916129e9565b01366020890137860101905b612fd3575b5050505090565b600019019083906f181899199a1a9b1b9c1cb0b131b232b360811b8282061a83530491821561300457919082612fc7565b612fcc565b9160010191612f8b565b9190606460029104910191612f80565b60049193920491019138612f75565b60089193920491019138612f68565b60109193920491019138612f59565b60209193920491019138612f47565b604093508104915038612f2e565b818110613078575050565b6000815560010161306d565b60025490929160005b8281106132d65750604051936130a285612977565b8452602093848101918252600160401b831015612961576130ca600193848101600255612b93565b9190916132c0575180516001600160401b03928382116129615785916130f08254612bcd565b93601f948a868211613291575b5050899085831160011461322b576000919083613220575b5050600019600383901b1c191690831b1781555b019251958651928311612961576131408454612bcd565b8281116131e8575b508091831160011461318357508192939495600092613178575b5050600019600383901b1c191690831b17905590565b015190503880613162565b90601f198316968460005282600020926000905b8982106131d157505083869798969596106131b8575b505050811b01905590565b015160001960f88460031b161c191690553880806131ad565b808885968294968601518155019501930190613197565b6132119085600052826000208480870160051c820192858810613217575b0160051c019061306d565b38613148565b92508192613206565b015190503880613115565b90601f19831691846000528b6000209260005b8d82821061327b5750509084879594939210613262575b505050811b018155613129565b015160001960f88460031b161c19169055388080613255565b8385015186558c9890950194938401930161323e565b6132b9918560005287826000209181870160051c8301938710613217570160051c019061306d565b388a6130fd565b634e487b7160e01b600052600060045260246000fd5b6132f1856132ec6132e684612b93565b50612c07565b6146e7565b613303576132fe90612d95565b61308d565b50600093505050565b6002549060005b82811061333057505050604051613329816129ad565b6000815290565b61334f61333c82612b93565b506132ec6133498561474c565b91612c07565b6133615761335c90612d95565b613313565b612a5692506001915061337390612b93565b5001612c07565b61338661338c9161474c565b9161474c565b6002549160005b8381106133a35750505050600090565b6133b86133b26132e683612b93565b836146e7565b806133d0575b612e54576133cb90612d95565b613393565b506133e86133e2600161337384612b93565b846146e7565b6133be565b600854811015612b7d576006906008600052027ff3f7a9fe364faab93b216da50a3214154f22a0a2b415b23a84c8169e8b636ee30190600090565b613434610923826136d6565b6000526009602052600261344c6040600020546133ed565b50015490565b1561345957565b60405162461bcd60e51b815260206004820152601b60248201527f43544d5257413030313a20696e76616c696420746f6b656e20494400000000006044820152606490fd5b6134aa610923826136d6565b60005260096020526134c06040600020546133ed565b50600301546001600160a01b031690612c45821515613452565b6134e6610923826136d6565b6000526009602052600161344c6040600020546133ed565b602081830312612895578051906001600160401b038211612895570181601f82011215612895578051613530816129e9565b9261353e60405194856129c8565b8184526020828401011161289557612a56916020808501910161289a565b91908201809211612da457565b908151811015612b7d570160200190565b1561358157565b60405162461bcd60e51b8152602060048201526024808201527f43544d5257413030313a20617070726f76616c20746f2063757272656e74206f6044820152633bb732b960e11b6064820152608490fd5b6135de610923826136d6565b600052600760205260406000209060018060a01b031660005260205260406000205490565b6001600160a01b0316801561362357600052600a60205260406000205490565b60405162461bcd60e51b815260206004820152602d60248201527f43544d5257413030313a2062616c616e636520717565727920666f722074686560448201526c207a65726f206164647265737360981b6064820152608490fd5b61368a610923826136d6565b60005260096020526136a06040600020546133ed565b50600401546001600160a01b031690565b8054821015612b7d5760005260206000200190600090565b91908203918211612da457565b600854151590816136e5575090565b80915060005260096020526136fe6040600020546133ed565b50541490565b6001600160a01b03811693919290918415613a315783156139e057613728846136d6565b61399b576137358261491b565b15613843575b60409485519361374a856129ad565b60009485815287519061375c82612992565b878252856020830152868983015283606083015286608083015260a082015260085487875260096020528089882055600160401b81101561382f578780936121016137e4979694611a1e8560016137b697016008556133ed565b85600080516020614fa68339815191528180a4828486600080516020614fc68339815191528280a484613a82565b6137ee83826149a1565b61382957612c4593818352600e602052600161380c82852054612b43565b5001928354928152600c6020528181208582526020522055613af3565b50505050565b634e487b7160e01b87526041600452602487fd5b61384c8261491b565b6139535760405161385c816129ad565b60009081815260405161386e81612977565b848152602091828201908152600d5492868552600e8152836040862055600160401b928385101561392b576138aa600195868101600d55612b43565b91909161393f579085915181550191518051936001600160401b03851161382f57841161392b57908083926138e8868b999897965481875586613c6e565b0191855280852090855b8481106139175750505050505080600080516020614fc68339815191528180a461373b565b8351818401558997509281019285016138f2565b634e487b7160e01b86526041600452602486fd5b634e487b7160e01b87526004879052602487fd5b60405162461bcd60e51b815260206004820152602c6024820152600080516020614f6683398151915260448201526b72656164792065786973747360a01b6064820152608490fd5b60405162461bcd60e51b815260206004820152601f60248201527f43544d5257413030313a20746f6b656e20616c7265616479206d696e746564006044820152606490fd5b60405162461bcd60e51b815260206004820152602360248201527f43544d5257413030313a2063616e6e6f74206d696e74207a65726f20746f6b656044820152621b925960ea1b6064820152608490fd5b60405162461bcd60e51b815260206004820152602360248201527f43544d5257413030313a206d696e7420746f20746865207a65726f206164647260448201526265737360e81b6064820152608490fd5b90600080516020614f868339815191526020600092848452600982526002613aad60408620546133ed565b5001613aba82825461355c565b9055604051908152a3565b8054600160401b81101561296157613ae2916001820181556136b1565b8154906000199060031b1b19169055565b90815491600160401b83101561296157826103bf916001612c45950181556136b1565b906040612c459260009083825260096020526003613b36848420546133ed565b500180546001600160a01b0319166001600160a01b039092169182179055808252600a60208181528484208054878652600191909101825285852055918352905220613af3565b8054908115613ba75760001991820191613b9783836136b1565b909182549160031b1b1916905555565b634e487b7160e01b600052603160045260246000fd5b91909160009083825260096020526003613bda60408420546133ed565b500180546001600160a01b03191690556001600160a01b03168152600a602052604081208054600019810194919291908511613c5a57613c1e612c459495846136b1565b90549060031b1c6001840182845280602052604084205491613c44816103bf85896136b1565b8452602052604083205581526040812055613b7d565b634e487b7160e01b82526011600452602482fd5b91818110613c7b57505050565b612c45926000526020600020918201910161306d565b80546000825580613ca0575050565b612c459160005260206000209081019061306d565b91906132c057805182556020908181015192600193848201556040820151600282015560a060056003830192600180841b039384606087015116906bffffffffffffffffffffffff851b91828254161790556004820190856080880151169082541617905501920151928351936001600160401b03851161296157600160401b8511612961578190613d4c86865481885587613c6e565b0192600052806000209160005b858110613d695750505050505050565b8451821684820155938201938601613d59565b8160005260096020526004613d956040600020546133ed565b500180546001600160a01b0319166001600160a01b0392831690811790915590613dbe8361349e565b167f8c5be1e5ebec7d5bd14f71427d1e84f3dd0314c0f7b2291e5b200ac8c7c3b925600080a4565b6001600160a01b038083169391928415613eca5783613e0491613f9c565b15613e52575b5060207f621b050de0ad08b51d19b48b3e6df75348c4de6bdd93e81b252ca62e28265b1b918360005260078252604060002085600052825280604060002055604051908152a3565b8260005260096020526005613e6b6040600020546133ed565b500191825491600160401b83101561296157613eb0837f621b050de0ad08b51d19b48b3e6df75348c4de6bdd93e81b252ca62e28265b1b9560016020960181556136b1565b819291549060031b9188831b921b19161790559150613e0a565b60405162461bcd60e51b815260206004820152602c60248201527f43544d5257413030313a20617070726f76652076616c756520746f207468652060448201526b7a65726f206164647265737360a01b6064820152608490fd5b60008181526020906009825260406005613f40828420546133ed565b500193845493835b858110613f5e57505050505050612c4590613c91565b80613f6c613f9792896136b1565b90548588526007855286882060039290921b1c6001600160a01b031687528352848620869055612d95565b613f48565b6000908282526009602090808252604090613fb9828620546133ed565b509260058094015496865b888110613fd75750505050505050905090565b818852838352613fee818761280f888c20546133ed565b905460039190911b1c6001600160a01b03908116908816146140185761401390612d95565b613fc4565b505050505050505050600190565b1561402d57565b60405162461bcd60e51b815260206004820152602960248201527f43544d5257413030313a207472616e736665722066726f6d20696e76616c6964604482015268081d1bdad95b88125160ba1b6064820152608490fd5b1561408b57565b60405162461bcd60e51b815260206004820152602760248201527f43544d5257413030313a207472616e7366657220746f20696e76616c696420746044820152661bdad95b88125160ca1b6064820152608490fd5b156140e757565b60405162461bcd60e51b815260206004820152602c60248201527f43544d5257413030313a20696e73756666696369656e742062616c616e63652060448201526b3337b9103a3930b739b332b960a11b6064820152608490fd5b909161414f6117c4836136d6565b61415b611f31846136d6565b8160005260096020526141726040600020546133ed565b509280600052600960205261418b6040600020546133ed565b509361419d83600283015410156140e0565b6001810154600186015481036144e05760038201546001600160a01b031615806144d8575b806144c8575b6143e5575b506141dc8360028301546136c9565b6002820155600285016141f084825461355c565b90558184600080516020614f868339815191526020604051878152a3600381810154950154600190910154946001600160a01b03918216911615806143dd575b806143cc575b156142fe5750614282818561429896600052600e602052600161425d604060002054612b43565b500190815490600052600c602052604060002083600052602052604060002055613af3565b6040519261428f846129ad565b6000845261458e565b1561429f57565b60405162461bcd60e51b815260206004820152603160248201527f43544d5257413030313a207472616e736665722072656a65637465642062792060448201527021aa26a92ba0981818a932b1b2b4bb32b960791b6064820152608490fd5b15806143c4575b806143b4575b61431a575b6142989350614282565b83600052600e6020526001614333604060002054612b43565b50018054600019810191908211612da457614298956143556143af93836136b1565b90549060031b1c81600052600c60205260406000208760005260205260406000205490614386816103bf84876136b1565b6000928352600c6020908152604080852092855291905280832091909155868252812055613b7d565b614310565b506143bf83856149a1565b61430b565b508015614305565b506143d782866149a1565b15614236565b508315614230565b6143ee8161491b565b613953576040516143fe816129ad565b600081526040519061440f82612977565b82825260208201908152600d549183600052600e60205282604060002055600160401b92838110156129615780600161444b9201600d55612b43565b6132c0576001915181550190518051926001600160401b0384116129615783116129615760209061448184845481865585613c6e565b0190600052602060002060005b8381106144b45750505050600080600080516020614fc68339815191528180a4386141cd565b60019060208451940193818401550161448e565b506144d28161491b565b156141c8565b5084156141c2565b60405162461bcd60e51b815260206004820152603060248201527f43544d5257413030313a207472616e7366657220746f20746f6b656e2077697460448201526f1a08191a5999995c995b9d081cdb1bdd60821b6064820152608490fd5b9081602091031261289557516001600160e01b0319811681036128955790565b3d15614589573d9061456f826129e9565b9161457d60405193846129c8565b82523d6000602084013e565b606090565b92909261459a8461349e565b803b63ffffffff16156146dd576040516301ffc9a760e01b8152633abe4f5560e21b6004820181905295602095926001600160a01b0316918681602481865afa80916000916146a7575b50906146005750505050505050506145fa61455e565b50600190565b1561469b576000869461463f604051978896879586948d865233600487015260248601526044850152606484015260a0608484015260a48301906128bd565b03925af191821561468f57600092614662575b50506001600160e01b0319161490565b6146819250803d10614688575b61467981836129c8565b81019061453e565b3880614652565b503d61466f565b6040513d6000823e3d90fd5b50505050505050600190565b8881813d83116146d6575b6146bc81836129c8565b810103126102a557519081151582036108f85750386145e4565b503d6146b2565b5050505050600190565b90604051918261470360208201926020845260408301906128bd565b0392614717601f19948581018352826129c8565b51902091614745604051918261473960208201956020875260408301906128bd565b039081018352826129c8565b5190201490565b908151614758816129e9565b9061476660405192836129c8565b808252614775601f19916129e9565b01602090368284013760005b8451811015614828576147948186613569565b5190604160f892831c101580614811575b156147ea57826147b58288613569565b51831c019160ff8311612da4576147e592901b6001600160f81b03191660001a6147df8286613569565b53612d95565b614781565b6147e591506001600160f81b03196148028288613569565b511660001a6147df8286613569565b50605a61481e8288613569565b51831c11156147a5565b5090925050565b9061483c610923826136d6565b6148458161349e565b9161484f826134da565b926001600160a01b039182169082168181149390929084156148d9575b505082156148b0575b8215614882575050905090565b6040925060ff936000928352600f602052838320908352602052828220908252602052205416803880612e4d565b915080600052600a60205260026040600020018260005260205260ff6040600020541691614875565b8294506148e59061367e565b161491388061486c565b6148f88161491b565b1561491557600052600e602052600161344c604060002054612b43565b50600090565b600d541515908161492a575090565b809150600052600e6020526136fe604060002054612b43565b6000818152600e602052600161495c6040832054612b43565b500190815415159283614970575b50505090565b6149919350906040918152600c6020528181208180526020522054906136b1565b90549060031b1c1538808061496a565b906000828152600e60205260016149bb6040832054612b43565b5001908154151593846149cf575050505090565b6149f1939450906040918152600c6020528181208582526020522054906136b1565b90549060031b1c1438808080612fcc565b15614a0957565b60405162461bcd60e51b815260206004820152603160248201527f43544d5257413030313a2063616c6c6572206973206e6f7420746f6b656e206f6044820152701ddb995c881b9bdc88185c1c1c9bdd9959607a1b6064820152608490fd5b15614a6f57565b60405162461bcd60e51b815260206004820152603460248201527f43544d5257413030313a207472616e736665722063616c6c6572206973206e6f6044820152731d081bdddb995c881b9bdc88185c1c1c9bdd995960621b6064820152608490fd5b919091614add8261349e565b6001600160a01b039190828216908316819003614d81578285168015614d2c578491614b08836134da565b96614b1284613428565b508115948580614d24575b80614d14575b614bf7575b614b9a91612101868093816000809c82825260096020526004614b4e60408420546133ed565b500180546001600160a01b0319169055614b678361349e565b167f8c5be1e5ebec7d5bd14f71427d1e84f3dd0314c0f7b2291e5b200ac8c7c3b9258280a4614b9582613f24565b613bbd565b600080516020614fa68339815191528580a480614bef575b80614bde575b15614bd95782612c45938252600e6020526040600161380c82852054612b43565b505050565b50614be982846149a1565b15614bb8565b508115614bb2565b9091929350614c058861491b565b61395357604051614c15816129ad565b600090818152604051614c2781612977565b8a8152602091828201908152600d54928c8552600e8152836040862055600160401b928385101561392b57614c63600195868101600d55612b43565b91909161393f579085915181550191518051936001600160401b03851161382f57841161392b57918184928f96948f9c9b9a999896614ca790855481875586613c6e565b0191855280852090855b848110614ce857505050505050868093614b9a95938380600080516020614fc68339815191528161210197a4935050509150614b28565b9085975083819496939597999a9b9c9d50519501948185015501918e9593918e9b9a9998979593614cb1565b50614d1e8961491b565b15614b23565b508415614b1d565b60405162461bcd60e51b815260206004820152602760248201527f43544d5257413030313a207472616e7366657220746f20746865207a65726f206044820152666164647265737360c81b6064820152608490fd5b60405162461bcd60e51b815260206004820152602660248201527f43544d5257413030313a207472616e736665722066726f6d20696e76616c69646044820152651037bbb732b960d11b6064820152608490fd5b90614df9939291614de9611ecd843361482f565b614df4838383614ad1565b614e57565b15614e0057565b60405162461bcd60e51b815260206004820152602960248201527f43544d5257413030313a207472616e7366657220746f206e6f6e20455243373260448201526818a932b1b2b4bb32b960b91b6064820152608490fd5b9192813b63ffffffff1615612e5457602091614eaf916000604051958680958194630a85bd0160e11b9a8b845233600485015260018060a01b03809516602485015260448401526080606484015260848301906128bd565b0393165af160009181614f45575b50614f3757614eca61455e565b80519081614f325760405162461bcd60e51b815260206004820152603260248201527f4552433732313a207472616e7366657220746f206e6f6e20455243373231526560448201527131b2b4bb32b91034b6b83632b6b2b73a32b960711b6064820152608490fd5b602001fd5b6001600160e01b0319161490565b614f5e91925060203d81116146885761467981836129c8565b9038614ebd56fe43544d525741303031536c6f74456e756d657261626c653a20736c6f7420616c0b2aac84f3ec956911fd78eae5311062972ff949f38412e8da39069d9f068cc6ddf252ad1be2c89b69c2b068fc378daa952ba7f163c4a11628f55a4df523b3efe4f48c240d3b994948aa54f3e2f5fca59263dfe1d52b6e4cf39a5d249b5ccb65a26469706673582212202a4a7d5a70e6fcdfba9173f65a5701c791c42fcc7186dd3692def992e20be31e64736f6c63430008140033",
  "linkReferences": {},
  "deployedLinkReferences": {}
}