{
  "_format": "hh-sol-artifact-1",
  "contractName": "C3UUIDKeeper",
  "sourceName": "contracts/c3Caller/C3UUIDKeeper.sol",
  "abi": [
    {
      "inputs": [],
      "stateMutability": "nonpayable",
      "type": "constructor"
    },
    {
      "anonymous": false,
      "inputs": [
        {
          "indexed": true,
          "internalType": "address",
          "name": "oldGov",
          "type": "address"
        },
        {
          "indexed": true,
          "internalType": "address",
          "name": "newGov",
          "type": "address"
        },
        {
          "indexed": false,
          "internalType": "uint256",
          "name": "timestamp",
          "type": "uint256"
        }
      ],
      "name": "ApplyGov",
      "type": "event"
    },
    {
      "anonymous": false,
      "inputs": [
        {
          "indexed": true,
          "internalType": "address",
          "name": "oldGov",
          "type": "address"
        },
        {
          "indexed": true,
          "internalType": "address",
          "name": "newGov",
          "type": "address"
        },
        {
          "indexed": false,
          "internalType": "uint256",
          "name": "timestamp",
          "type": "uint256"
        }
      ],
      "name": "ChangeGov",
      "type": "event"
    },
    {
      "anonymous": false,
      "inputs": [
        {
          "indexed": false,
          "internalType": "uint8",
          "name": "version",
          "type": "uint8"
        }
      ],
      "name": "Initialized",
      "type": "event"
    },
    {
      "inputs": [
        {
          "internalType": "address",
          "name": "_op",
          "type": "address"
        }
      ],
      "name": "addOperator",
      "outputs": [],
      "stateMutability": "nonpayable",
      "type": "function"
    },
    {
      "inputs": [],
      "name": "admin",
      "outputs": [
        {
          "internalType": "address",
          "name": "",
          "type": "address"
        }
      ],
      "stateMutability": "view",
      "type": "function"
    },
    {
      "inputs": [],
      "name": "applyGov",
      "outputs": [],
      "stateMutability": "nonpayable",
      "type": "function"
    },
    {
      "inputs": [
        {
          "internalType": "address",
          "name": "from",
          "type": "address"
        },
        {
          "internalType": "uint256",
          "name": "dappID",
          "type": "uint256"
        },
        {
          "internalType": "string",
          "name": "to",
          "type": "string"
        },
        {
          "internalType": "string",
          "name": "toChainID",
          "type": "string"
        },
        {
          "internalType": "bytes",
          "name": "data",
          "type": "bytes"
        }
      ],
      "name": "calcCallerEncode",
      "outputs": [
        {
          "internalType": "bytes",
          "name": "",
          "type": "bytes"
        }
      ],
      "stateMutability": "view",
      "type": "function"
    },
    {
      "inputs": [
        {
          "internalType": "address",
          "name": "from",
          "type": "address"
        },
        {
          "internalType": "uint256",
          "name": "dappID",
          "type": "uint256"
        },
        {
          "internalType": "string",
          "name": "to",
          "type": "string"
        },
        {
          "internalType": "string",
          "name": "toChainID",
          "type": "string"
        },
        {
          "internalType": "bytes",
          "name": "data",
          "type": "bytes"
        }
      ],
      "name": "calcCallerUUID",
      "outputs": [
        {
          "internalType": "bytes32",
          "name": "",
          "type": "bytes32"
        }
      ],
      "stateMutability": "view",
      "type": "function"
    },
    {
      "inputs": [
        {
          "internalType": "address",
          "name": "_gov",
          "type": "address"
        }
      ],
      "name": "changeGov",
      "outputs": [],
      "stateMutability": "nonpayable",
      "type": "function"
    },
    {
      "inputs": [
        {
          "internalType": "bytes32",
          "name": "",
          "type": "bytes32"
        }
      ],
      "name": "completedSwapin",
      "outputs": [
        {
          "internalType": "bool",
          "name": "",
          "type": "bool"
        }
      ],
      "stateMutability": "view",
      "type": "function"
    },
    {
      "inputs": [],
      "name": "currentNonce",
      "outputs": [
        {
          "internalType": "uint256",
          "name": "",
          "type": "uint256"
        }
      ],
      "stateMutability": "view",
      "type": "function"
    },
    {
      "inputs": [
        {
          "internalType": "uint256",
          "name": "dappID",
          "type": "uint256"
        },
        {
          "internalType": "string",
          "name": "to",
          "type": "string"
        },
        {
          "internalType": "string",
          "name": "toChainID",
          "type": "string"
        },
        {
          "internalType": "bytes",
          "name": "data",
          "type": "bytes"
        }
      ],
      "name": "genUUID",
      "outputs": [
        {
          "internalType": "bytes32",
          "name": "uuid",
          "type": "bytes32"
        }
      ],
      "stateMutability": "nonpayable",
      "type": "function"
    },
    {
      "inputs": [],
      "name": "getAllOperators",
      "outputs": [
        {
          "internalType": "address[]",
          "name": "",
          "type": "address[]"
        }
      ],
      "stateMutability": "view",
      "type": "function"
    },
    {
      "inputs": [],
      "name": "gov",
      "outputs": [
        {
          "internalType": "address",
          "name": "",
          "type": "address"
        }
      ],
      "stateMutability": "view",
      "type": "function"
    },
    {
      "inputs": [
        {
          "internalType": "bytes32",
          "name": "uuid",
          "type": "bytes32"
        }
      ],
      "name": "isCompleted",
      "outputs": [
        {
          "internalType": "bool",
          "name": "",
          "type": "bool"
        }
      ],
      "stateMutability": "view",
      "type": "function"
    },
    {
      "inputs": [
        {
          "internalType": "address",
          "name": "",
          "type": "address"
        }
      ],
      "name": "isOperator",
      "outputs": [
        {
          "internalType": "bool",
          "name": "",
          "type": "bool"
        }
      ],
      "stateMutability": "view",
      "type": "function"
    },
    {
      "inputs": [
        {
          "internalType": "bytes32",
          "name": "uuid",
          "type": "bytes32"
        }
      ],
      "name": "isUUIDExist",
      "outputs": [
        {
          "internalType": "bool",
          "name": "",
          "type": "bool"
        }
      ],
      "stateMutability": "view",
      "type": "function"
    },
    {
      "inputs": [
        {
          "internalType": "uint256",
          "name": "",
          "type": "uint256"
        }
      ],
      "name": "operators",
      "outputs": [
        {
          "internalType": "address",
          "name": "",
          "type": "address"
        }
      ],
      "stateMutability": "view",
      "type": "function"
    },
    {
      "inputs": [],
      "name": "pendingGov",
      "outputs": [
        {
          "internalType": "address",
          "name": "",
          "type": "address"
        }
      ],
      "stateMutability": "view",
      "type": "function"
    },
    {
      "inputs": [
        {
          "internalType": "bytes32",
          "name": "uuid",
          "type": "bytes32"
        }
      ],
      "name": "registerUUID",
      "outputs": [],
      "stateMutability": "nonpayable",
      "type": "function"
    },
    {
      "inputs": [
        {
          "internalType": "address",
          "name": "_op",
          "type": "address"
        }
      ],
      "name": "revokeOperator",
      "outputs": [],
      "stateMutability": "nonpayable",
      "type": "function"
    },
    {
      "inputs": [
        {
          "internalType": "bytes32",
          "name": "uuid",
          "type": "bytes32"
        }
      ],
      "name": "revokeSwapin",
      "outputs": [],
      "stateMutability": "nonpayable",
      "type": "function"
    },
    {
      "inputs": [
        {
          "internalType": "bytes32",
          "name": "",
          "type": "bytes32"
        }
      ],
      "name": "uuid2Nonce",
      "outputs": [
        {
          "internalType": "uint256",
          "name": "",
          "type": "uint256"
        }
      ],
      "stateMutability": "view",
      "type": "function"
    }
  ],
  "bytecode": "0x6080806040523461017957600090815460ff8160081c16159182809361016c575b8015610155575b156100fc575060ff1981166001178355816100eb575b50815462010000600160b01b0319811633601081901b62010000600160b01b0316918217855560405142815291939185907fff88f8815b3f9faf85529ba09d2f7ff0d9c726c11cc863fd245156986014259090602090a36100a8575b604051610e05908161017f8239f35b610100600160b01b031916179055604051600181527f7f26b83ff96e1f2b6a682f133852f6798a09c465da95921460cefb384740249890602090a1388080610099565b61ffff19166101011782553861003d565b62461bcd60e51b815260206004820152602e60248201527f496e697469616c697a61626c653a20636f6e747261637420697320616c72656160448201526d191e481a5b9a5d1a585b1a5e995960921b6064820152608490fd5b50303b1580156100275750600160ff831614610027565b50600160ff831610610020565b600080fdfe60806040908082526004918236101561001757600080fd5b600092833560e01c9283630b68f721146109f85750826312cab5451461063657826312d43a51146109cc5782631547d532146109a3578263252408101461097a578263459c7695146108a457826362ae45ab146108645782636d70f7ae1461082657826382e7a58a146107b15782639870d7fe146106645782639bc4fe6914610636578263a962ef1e146105b7578263adb610a314610598578263ae74db05146104d5578263d911c63214610410578263e28d4906146103ce578263f1a9bff914610227578263f2c271841461016e578263f851a4401461014157505063fad8b32a1461010357600080fd5b3461013e57602036600319011261013e5761013b61011f610a1e565b61013660018060a01b03845460101c163314610b32565b610bcd565b80f35b80fd5b9091503461016a578260031936011261016a575490516001600160a01b03909116815260209150f35b8280fd5b8382346102235761017e36610a67565b93919092600799979996959654926001840180941161021057896101b497989a9b9c5051998a986020809e469130908d01610d69565b036101c7601f1991828101855284610b70565b8351948592818452845191828186015281955b8387106101f85750508394508582601f949501015201168101030190f35b868101820151898801890152958101958895506101da565b634e487b7160e01b895260118c52602489fd5b5080fd5b91503461016a57608036600319011261016a5767ffffffffffffffff926024358481116102235761025b9036908501610a39565b946044358181116103ca576102739036908701610a39565b916064359081116103c65790610290879594939236908701610a39565b85549196913360109190911c6001600160a01b03161480156103b1575b6102b690610d05565b6007546102c290610ba8565b968760075587895195869560209d8e8801998a97354633306102e39b610d69565b03601f19810182526102f59082610b70565b519020938351630b68f72160e01b81528582820152868130815a91602492fa9081156103a7578391610371575b506103395750808484925260068652205551908152f35b835162461bcd60e51b815290810186905260126024820152711d5d5a5908185b1c9958591e48195e1a5cdd60721b6044820152606490fd5b90508681813d83116103a0575b6103888183610b70565b8101031261016a5751801515810361016a5738610322565b503d61037e565b85513d85823e3d90fd5b5033865260026020528786205460ff166102ad565b8480fd5b8380fd5b9091503461016a57602036600319011261016a57359160035483101561013e57506103fa602092610ae5565b60018060a01b0391549060031b1c169051908152f35b50823461013e578060031936011261013e579080519182906003549182855260208095018093600384527fc2575a0e9e593c00f959f8c92f12db2869c3395a3b0502d05e2516446f71f85b90845b8181106104b85750505081610474910382610b70565b83519485948186019282875251809352850193925b82811061049857505050500390f35b83516001600160a01b031685528695509381019392810192600101610489565b82546001600160a01b03168452928801926001928301920161045e565b9091503461016a57602036600319011261016a5780359060018060a01b03845460101c1633148015610583575b61050b90610d05565b818452600560205260ff83852054166105365750825260056020528120805460ff1916600117905580f35b608490602084519162461bcd60e51b8352820152602160248201527f43335377617049444b65657065723a207575696420697320636f6d706c6574656044820152601960fa1b6064820152fd5b5033845260026020528284205460ff16610502565b8382346102235781600319360112610223576020906007549051908152f35b838234610223576020366003190112610223576105d2610a1e565b825460101c6001600160a01b03908116917fd098c548c6851f1e61d4e1364996748b40477bb1abe90254bd71352396b2b7be91602091610613338614610b32565b1693846bffffffffffffffffffffffff60a01b600154161760015551428152a380f35b9091503461016a57602036600319011261016a578160209360ff923581526005855220541690519015158152f35b838234610223576020908160031936011261016a57610681610a1e565b9160018060a01b0361069a81865460101c163314610b32565b83168015610770578085526002825260ff8386205416610723578452600290528220805460ff19166001179055600354926801000000000000000084101561071057506106f183600161013b949501600355610ae5565b90919082549060031b9160018060a01b03809116831b921b1916179055565b634e487b7160e01b835260419052602482fd5b825162461bcd60e51b8152808701839052602160248201527f433343616c6c65723a204f70657261746f7220616c72656164792065786973746044820152607360f81b6064820152608490fd5b606486838086519262461bcd60e51b845283015260248201527f433343616c6c65723a204f70657261746f7220697320616464726573732830296044820152fd5b90833461013e576107c136610a67565b9496979290936007549360018501809511610813575060209a5091610809969593916107fb95938b51998a988e8a01809d46913090610d69565b03601f198101835282610b70565b5190209051908152f35b634e487b7160e01b815260118c52602490fd5b8382346102235760203660031901126102235760209160ff9082906001600160a01b03610851610a1e565b1681526002855220541690519015158152f35b9091503461016a57602036600319011261016a5761088f60018060a01b03845460101c163314610b32565b35825260056020528120805460ff1916905580f35b839034610223578160031936011261022357600154906001600160a01b0390818316156109375750825462010000600160b01b031916601083811b62010000600160b01b0316919091178085556001600160a01b031990931660015593514281529293849392901c16907fff88f8815b3f9faf85529ba09d2f7ff0d9c726c11cc863fd245156986014259090602090a380f35b606490602086519162461bcd60e51b8352820152601760248201527f4333476f763a20656d7074792070656e64696e67476f760000000000000000006044820152fd5b83823461022357816003193601126102235760015490516001600160a01b039091168152602090f35b9091503461016a57602036600319011261016a5760209282913581526006845220549051908152f35b8382346102235781600319360112610223579054905160109190911c6001600160a01b03168152602090f35b9250346103ca5760203660031901126103ca579260209335815260068452205415158152f35b600435906001600160a01b0382168203610a3457565b600080fd5b9181601f84011215610a345782359167ffffffffffffffff8311610a345760208381860195010111610a3457565b9060a0600319830112610a34576004356001600160a01b0381168103610a3457916024359167ffffffffffffffff604435818111610a345783610aac91600401610a39565b93909392606435838111610a345782610ac791600401610a39565b93909392608435918211610a3457610ae191600401610a39565b9091565b600354811015610b1c5760036000527fc2575a0e9e593c00f959f8c92f12db2869c3395a3b0502d05e2516446f71f85b0190600090565b634e487b7160e01b600052603260045260246000fd5b15610b3957565b60405162461bcd60e51b815260206004820152600f60248201526e2199a3b7bb1d1037b7363c9023b7bb60891b6044820152606490fd5b90601f8019910116810190811067ffffffffffffffff821117610b9257604052565b634e487b7160e01b600052604160045260246000fd5b6000198114610bb75760010190565b634e487b7160e01b600052601160045260246000fd5b6001600160a01b0390811660008181526002602052604081205491929160ff1615610cc057828152600260205260408120805460ff19169055600380549091805b828110610c1d57505050505050565b8585610c2883610ae5565b905490871b1c1614610c4257610c3d90610ba8565b610c0e565b93945091926000199291838101908111610cac57906106f186610c67610c7494610ae5565b905490881b1c1691610ae5565b8254908115610c9857500191610c8983610ae5565b9091825491841b1b1916905555565b634e487b7160e01b81526031600452602490fd5b634e487b7160e01b83526011600452602483fd5b60405162461bcd60e51b815260206004820152601c60248201527f433343616c6c65723a204f70657261746f72206e6f7420666f756e64000000006044820152606490fd5b15610d0c57565b60405162461bcd60e51b81526020600482015260146024820152732199a3b7bb1d1037b7363c9027b832b930ba37b960611b6044820152606490fd5b908060209392818452848401376000828201840152601f01601f1916010190565b96949193610dab93610db99792610dcc9d9b9c9a9660018060a01b038092168b521660208a015260408901526060880152610100806080890152870191610d48565b9184830360a0860152610d48565b9360c082015260e0818503910152610d48565b9056fea26469706673582212201981996ab669706f6e8a3cd6b39d4aa38fe1ed58330387cf3c3d5a21fed5712b64736f6c63430008140033",
  "linkReferences": {},
  "deployedLinkReferences": {}
}