{
  "_format": "hh-sol-artifact-1",
  "contractName": "C3UUIDKeeper",
  "sourceName": "contracts/c3Caller/C3UUIDKeeper.sol",
  "abi": [
    {
      "inputs": [],
      "stateMutability": "nonpayable",
      "type": "constructor"
    },
    {
      "anonymous": false,
      "inputs": [
        {
          "indexed": true,
          "internalType": "address",
          "name": "oldGov",
          "type": "address"
        },
        {
          "indexed": true,
          "internalType": "address",
          "name": "newGov",
          "type": "address"
        },
        {
          "indexed": false,
          "internalType": "uint256",
          "name": "timestamp",
          "type": "uint256"
        }
      ],
      "name": "ApplyGov",
      "type": "event"
    },
    {
      "anonymous": false,
      "inputs": [
        {
          "indexed": true,
          "internalType": "address",
          "name": "oldGov",
          "type": "address"
        },
        {
          "indexed": true,
          "internalType": "address",
          "name": "newGov",
          "type": "address"
        },
        {
          "indexed": false,
          "internalType": "uint256",
          "name": "timestamp",
          "type": "uint256"
        }
      ],
      "name": "ChangeGov",
      "type": "event"
    },
    {
      "anonymous": false,
      "inputs": [
        {
          "indexed": false,
          "internalType": "uint8",
          "name": "version",
          "type": "uint8"
        }
      ],
      "name": "Initialized",
      "type": "event"
    },
    {
      "inputs": [
        {
          "internalType": "address",
          "name": "_op",
          "type": "address"
        }
      ],
      "name": "addOperator",
      "outputs": [],
      "stateMutability": "nonpayable",
      "type": "function"
    },
    {
      "inputs": [],
      "name": "admin",
      "outputs": [
        {
          "internalType": "address",
          "name": "",
          "type": "address"
        }
      ],
      "stateMutability": "view",
      "type": "function"
    },
    {
      "inputs": [],
      "name": "applyGov",
      "outputs": [],
      "stateMutability": "nonpayable",
      "type": "function"
    },
    {
      "inputs": [
        {
          "internalType": "address",
          "name": "from",
          "type": "address"
        },
        {
          "internalType": "uint256",
          "name": "dappID",
          "type": "uint256"
        },
        {
          "internalType": "string",
          "name": "to",
          "type": "string"
        },
        {
          "internalType": "string",
          "name": "toChainID",
          "type": "string"
        },
        {
          "internalType": "bytes",
          "name": "data",
          "type": "bytes"
        }
      ],
      "name": "calcCallerEncode",
      "outputs": [
        {
          "internalType": "bytes",
          "name": "",
          "type": "bytes"
        }
      ],
      "stateMutability": "view",
      "type": "function"
    },
    {
      "inputs": [
        {
          "internalType": "address",
          "name": "from",
          "type": "address"
        },
        {
          "internalType": "uint256",
          "name": "dappID",
          "type": "uint256"
        },
        {
          "internalType": "string",
          "name": "to",
          "type": "string"
        },
        {
          "internalType": "string",
          "name": "toChainID",
          "type": "string"
        },
        {
          "internalType": "bytes",
          "name": "data",
          "type": "bytes"
        }
      ],
      "name": "calcCallerUUID",
      "outputs": [
        {
          "internalType": "bytes32",
          "name": "",
          "type": "bytes32"
        }
      ],
      "stateMutability": "view",
      "type": "function"
    },
    {
      "inputs": [
        {
          "internalType": "address",
          "name": "_gov",
          "type": "address"
        }
      ],
      "name": "changeGov",
      "outputs": [],
      "stateMutability": "nonpayable",
      "type": "function"
    },
    {
      "inputs": [
        {
          "internalType": "bytes32",
          "name": "",
          "type": "bytes32"
        }
      ],
      "name": "completedSwapin",
      "outputs": [
        {
          "internalType": "bool",
          "name": "",
          "type": "bool"
        }
      ],
      "stateMutability": "view",
      "type": "function"
    },
    {
      "inputs": [],
      "name": "currentNonce",
      "outputs": [
        {
          "internalType": "uint256",
          "name": "",
          "type": "uint256"
        }
      ],
      "stateMutability": "view",
      "type": "function"
    },
    {
      "inputs": [
        {
          "internalType": "uint256",
          "name": "dappID",
          "type": "uint256"
        },
        {
          "internalType": "string",
          "name": "to",
          "type": "string"
        },
        {
          "internalType": "string",
          "name": "toChainID",
          "type": "string"
        },
        {
          "internalType": "bytes",
          "name": "data",
          "type": "bytes"
        }
      ],
      "name": "genUUID",
      "outputs": [
        {
          "internalType": "bytes32",
          "name": "uuid",
          "type": "bytes32"
        }
      ],
      "stateMutability": "nonpayable",
      "type": "function"
    },
    {
      "inputs": [],
      "name": "getAllOperators",
      "outputs": [
        {
          "internalType": "address[]",
          "name": "",
          "type": "address[]"
        }
      ],
      "stateMutability": "view",
      "type": "function"
    },
    {
      "inputs": [],
      "name": "gov",
      "outputs": [
        {
          "internalType": "address",
          "name": "",
          "type": "address"
        }
      ],
      "stateMutability": "view",
      "type": "function"
    },
    {
      "inputs": [
        {
          "internalType": "bytes32",
          "name": "uuid",
          "type": "bytes32"
        }
      ],
      "name": "isCompleted",
      "outputs": [
        {
          "internalType": "bool",
          "name": "",
          "type": "bool"
        }
      ],
      "stateMutability": "view",
      "type": "function"
    },
    {
      "inputs": [
        {
          "internalType": "address",
          "name": "",
          "type": "address"
        }
      ],
      "name": "isOperator",
      "outputs": [
        {
          "internalType": "bool",
          "name": "",
          "type": "bool"
        }
      ],
      "stateMutability": "view",
      "type": "function"
    },
    {
      "inputs": [
        {
          "internalType": "bytes32",
          "name": "uuid",
          "type": "bytes32"
        }
      ],
      "name": "isUUIDExist",
      "outputs": [
        {
          "internalType": "bool",
          "name": "",
          "type": "bool"
        }
      ],
      "stateMutability": "view",
      "type": "function"
    },
    {
      "inputs": [
        {
          "internalType": "uint256",
          "name": "",
          "type": "uint256"
        }
      ],
      "name": "operators",
      "outputs": [
        {
          "internalType": "address",
          "name": "",
          "type": "address"
        }
      ],
      "stateMutability": "view",
      "type": "function"
    },
    {
      "inputs": [],
      "name": "pendingGov",
      "outputs": [
        {
          "internalType": "address",
          "name": "",
          "type": "address"
        }
      ],
      "stateMutability": "view",
      "type": "function"
    },
    {
      "inputs": [
        {
          "internalType": "bytes32",
          "name": "uuid",
          "type": "bytes32"
        }
      ],
      "name": "registerUUID",
      "outputs": [],
      "stateMutability": "nonpayable",
      "type": "function"
    },
    {
      "inputs": [
        {
          "internalType": "address",
          "name": "_op",
          "type": "address"
        }
      ],
      "name": "revokeOperator",
      "outputs": [],
      "stateMutability": "nonpayable",
      "type": "function"
    },
    {
      "inputs": [
        {
          "internalType": "bytes32",
          "name": "uuid",
          "type": "bytes32"
        }
      ],
      "name": "revokeSwapin",
      "outputs": [],
      "stateMutability": "nonpayable",
      "type": "function"
    },
    {
      "inputs": [
        {
          "internalType": "bytes32",
          "name": "",
          "type": "bytes32"
        }
      ],
      "name": "uuid2Nonce",
      "outputs": [
        {
          "internalType": "uint256",
          "name": "",
          "type": "uint256"
        }
      ],
      "stateMutability": "view",
      "type": "function"
    }
  ],
  "bytecode": "0x608060405234801561001057600080fd5b5061001a3361001f565b61018a565b600054610100900460ff161580801561003f5750600054600160ff909116105b806100595750303b158015610059575060005460ff166001145b6100c05760405162461bcd60e51b815260206004820152602e60248201527f496e697469616c697a61626c653a20636f6e747261637420697320616c72656160448201526d191e481a5b9a5d1a585b1a5e995960921b606482015260840160405180910390fd5b6000805460ff1916600117905580156100e3576000805461ff0019166101001790555b6000805462010000600160b01b031916620100006001600160a01b0385169081029190911782556040514281529091907fff88f8815b3f9faf85529ba09d2f7ff0d9c726c11cc863fd24515698601425909060200160405180910390a38015610186576000805461ff0019169055604051600181527f7f26b83ff96e1f2b6a682f133852f6798a09c465da95921460cefb38474024989060200160405180910390a15b5050565b611018806101996000396000f3fe608060405234801561001057600080fd5b506004361061012c5760003560e01c80639bc4fe69116100ad578063e28d490611610071578063e28d4906146102ca578063f1a9bff9146102dd578063f2c27184146102f0578063f851a44014610310578063fad8b32a1461032357600080fd5b80639bc4fe6914610263578063a962ef1e14610286578063adb610a314610299578063ae74db05146102a2578063d911c632146102b557600080fd5b8063459c7695116100f4578063459c7695146101fd57806362ae45ab146102075780636d70f7ae1461021a57806382e7a58a1461023d5780639870d7fe1461025057600080fd5b80630b68f7211461013157806312cab5451461016857806312d43a511461018b5780631547d532146101bc57806325240810146101ea575b600080fd5b61015361013f366004610bd6565b600090815260066020526040902054151590565b60405190151581526020015b60405180910390f35b610153610176366004610bd6565b60009081526005602052604090205460ff1690565b6000546101a4906201000090046001600160a01b031681565b6040516001600160a01b03909116815260200161015f565b6101dc6101ca366004610bd6565b60066020526000908152604090205481565b60405190815260200161015f565b6001546101a4906001600160a01b031681565b610205610336565b005b610205610215366004610bd6565b61040c565b610153610228366004610c0b565b60026020526000908152604090205460ff1681565b6101dc61024b366004610c76565b610454565b61020561025e366004610c0b565b6104b2565b610153610271366004610bd6565b60056020526000908152604090205460ff1681565b610205610294366004610c0b565b6104ee565b6101dc60075481565b6102056102b0366004610bd6565b610581565b6102bd610679565b60405161015f9190610d2a565b6101a46102d8366004610bd6565b6106db565b6101dc6102eb366004610d77565b610705565b6103036102fe366004610c76565b61088a565b60405161015f9190610e1b565b6004546101a4906001600160a01b031681565b610205610331366004610c0b565b6108e2565b6001546001600160a01b03166103935760405162461bcd60e51b815260206004820152601760248201527f4333476f763a20656d7074792070656e64696e67476f7600000000000000000060448201526064015b60405180910390fd5b600180546000805462010000600160b01b0319166001600160a01b0380841662010000908102929092178084556001600160a01b031990941690945560405142815291939204909116907fff88f8815b3f9faf85529ba09d2f7ff0d9c726c11cc863fd24515698601425909060200160405180910390a3565b6000546201000090046001600160a01b0316331461043c5760405162461bcd60e51b815260040161038a90610e69565b6000908152600560205260409020805460ff19169055565b60008060075460016104669190610ea8565b9050308a468b8b8b8b8b888c8c60405160200161048d9b9a99989796959493929190610eea565b6040516020818303038152906040528051906020012091505098975050505050505050565b6000546201000090046001600160a01b031633146104e25760405162461bcd60e51b815260040161038a90610e69565b6104eb81610aa7565b50565b6000546201000090046001600160a01b0316331461051e5760405162461bcd60e51b815260040161038a90610e69565b600180546001600160a01b0319166001600160a01b0383811691821790925560005460405142815291926201000090910416907fd098c548c6851f1e61d4e1364996748b40477bb1abe90254bd71352396b2b7be9060200160405180910390a350565b6000546201000090046001600160a01b03163314806105af57503360009081526002602052604090205460ff165b6105f25760405162461bcd60e51b81526020600482015260146024820152732199a3b7bb1d1037b7363c9027b832b930ba37b960611b604482015260640161038a565b600081815260056020526040902054819060ff161561065d5760405162461bcd60e51b815260206004820152602160248201527f43335377617049444b65657065723a207575696420697320636f6d706c6574656044820152601960fa1b606482015260840161038a565b506000908152600560205260409020805460ff19166001179055565b606060038054806020026020016040519081016040528092919081815260200182805480156106d157602002820191906000526020600020905b81546001600160a01b031681526001909101906020018083116106b3575b5050505050905090565b600381815481106106eb57600080fd5b6000918252602090912001546001600160a01b0316905081565b600080546201000090046001600160a01b031633148061073457503360009081526002602052604090205460ff165b6107775760405162461bcd60e51b81526020600482015260146024820152732199a3b7bb1d1037b7363c9027b832b930ba37b960611b604482015260640161038a565b6007805490600061078783610f68565b91905055503033468a8a8a8a8a6007548b8b6040516020016107b39b9a99989796959493929190610eea565b60408051808303601f19018152908290528051602090910120630b68f72160e01b82526004820181905291503090630b68f72190602401602060405180830381865afa158015610807573d6000803e3d6000fd5b505050506040513d601f19601f8201168201806040525081019061082b9190610f81565b1561086d5760405162461bcd60e51b81526020600482015260126024820152711d5d5a5908185b1c9958591e48195e1a5cdd60721b604482015260640161038a565b600754600082815260066020526040902055979650505050505050565b60606000600754600161089d9190610ea8565b9050308a468b8b8b8b8b888c8c6040516020016108c49b9a99989796959493929190610eea565b60405160208183030381529060405291505098975050505050505050565b6000546201000090046001600160a01b031633146109125760405162461bcd60e51b815260040161038a90610e69565b6001600160a01b03811660009081526002602052604090205460ff1661097a5760405162461bcd60e51b815260206004820152601c60248201527f433343616c6c65723a204f70657261746f72206e6f7420666f756e6400000000604482015260640161038a565b6001600160a01b0381166000908152600260205260408120805460ff19169055600354905b81811015610aa257826001600160a01b0316600382815481106109c4576109c4610fa3565b6000918252602090912001546001600160a01b031603610a905760036109eb600184610fb9565b815481106109fb576109fb610fa3565b600091825260209091200154600380546001600160a01b039092169183908110610a2757610a27610fa3565b9060005260206000200160006101000a8154816001600160a01b0302191690836001600160a01b031602179055506003805480610a6657610a66610fcc565b600082815260209020810160001990810180546001600160a01b0319169055019055506104eb9050565b80610a9a81610f68565b91505061099f565b505050565b6001600160a01b038116610afd5760405162461bcd60e51b815260206004820181905260248201527f433343616c6c65723a204f70657261746f722069732061646472657373283029604482015260640161038a565b6001600160a01b03811660009081526002602052604090205460ff1615610b705760405162461bcd60e51b815260206004820152602160248201527f433343616c6c65723a204f70657261746f7220616c72656164792065786973746044820152607360f81b606482015260840161038a565b6001600160a01b03166000818152600260205260408120805460ff191660019081179091556003805491820181559091527fc2575a0e9e593c00f959f8c92f12db2869c3395a3b0502d05e2516446f71f85b0180546001600160a01b0319169091179055565b600060208284031215610be857600080fd5b5035919050565b80356001600160a01b0381168114610c0657600080fd5b919050565b600060208284031215610c1d57600080fd5b610c2682610bef565b9392505050565b60008083601f840112610c3f57600080fd5b50813567ffffffffffffffff811115610c5757600080fd5b602083019150836020828501011115610c6f57600080fd5b9250929050565b60008060008060008060008060a0898b031215610c9257600080fd5b610c9b89610bef565b975060208901359650604089013567ffffffffffffffff80821115610cbf57600080fd5b610ccb8c838d01610c2d565b909850965060608b0135915080821115610ce457600080fd5b610cf08c838d01610c2d565b909650945060808b0135915080821115610d0957600080fd5b50610d168b828c01610c2d565b999c989b5096995094979396929594505050565b6020808252825182820181905260009190848201906040850190845b81811015610d6b5783516001600160a01b031683529284019291840191600101610d46565b50909695505050505050565b60008060008060008060006080888a031215610d9257600080fd5b87359650602088013567ffffffffffffffff80821115610db157600080fd5b610dbd8b838c01610c2d565b909850965060408a0135915080821115610dd657600080fd5b610de28b838c01610c2d565b909650945060608a0135915080821115610dfb57600080fd5b50610e088a828b01610c2d565b989b979a50959850939692959293505050565b600060208083528351808285015260005b81811015610e4857858101830151858201604001528201610e2c565b506000604082860101526040601f19601f8301168501019250505092915050565b6020808252600f908201526e2199a3b7bb1d1037b7363c9023b7bb60891b604082015260600190565b634e487b7160e01b600052601160045260246000fd5b80820180821115610ebb57610ebb610e92565b92915050565b81835281816020850137506000828201602090810191909152601f909101601f19169091010190565b6001600160a01b038c811682528b166020820152604081018a90526060810189905261010060808201819052600090610f268382018a8c610ec1565b905082810360a0840152610f3b81888a610ec1565b90508560c084015282810360e0840152610f56818587610ec1565b9e9d5050505050505050505050505050565b600060018201610f7a57610f7a610e92565b5060010190565b600060208284031215610f9357600080fd5b81518015158114610c2657600080fd5b634e487b7160e01b600052603260045260246000fd5b81810381811115610ebb57610ebb610e92565b634e487b7160e01b600052603160045260246000fdfea2646970667358221220dcc6c72e6ef1e7a50da2d8b72d6f1172ab3905763f8944405bc2969640a2394064736f6c63430008140033",
  "linkReferences": {},
  "deployedLinkReferences": {}
}