{
  "_format": "hh-sol-artifact-1",
  "contractName": "CTMRWA001SlotApprovable",
  "sourceName": "contracts/CTMRWA001SlotApprovable.sol",
  "abi": [
    {
      "inputs": [
        {
          "internalType": "string",
          "name": "name_",
          "type": "string"
        },
        {
          "internalType": "string",
          "name": "symbol_",
          "type": "string"
        },
        {
          "internalType": "uint8",
          "name": "decimals_",
          "type": "uint8"
        },
        {
          "internalType": "address",
          "name": "_ctmRwa001XChain",
          "type": "address"
        }
      ],
      "stateMutability": "nonpayable",
      "type": "constructor"
    },
    {
      "anonymous": false,
      "inputs": [
        {
          "indexed": true,
          "internalType": "address",
          "name": "_owner",
          "type": "address"
        },
        {
          "indexed": true,
          "internalType": "address",
          "name": "_approved",
          "type": "address"
        },
        {
          "indexed": true,
          "internalType": "uint256",
          "name": "_tokenId",
          "type": "uint256"
        }
      ],
      "name": "Approval",
      "type": "event"
    },
    {
      "anonymous": false,
      "inputs": [
        {
          "indexed": true,
          "internalType": "address",
          "name": "_owner",
          "type": "address"
        },
        {
          "indexed": true,
          "internalType": "address",
          "name": "_operator",
          "type": "address"
        },
        {
          "indexed": false,
          "internalType": "bool",
          "name": "_approved",
          "type": "bool"
        }
      ],
      "name": "ApprovalForAll",
      "type": "event"
    },
    {
      "anonymous": false,
      "inputs": [
        {
          "indexed": true,
          "internalType": "address",
          "name": "_owner",
          "type": "address"
        },
        {
          "indexed": true,
          "internalType": "uint256",
          "name": "_slot",
          "type": "uint256"
        },
        {
          "indexed": true,
          "internalType": "address",
          "name": "_operator",
          "type": "address"
        },
        {
          "indexed": false,
          "internalType": "bool",
          "name": "_approved",
          "type": "bool"
        }
      ],
      "name": "ApprovalForSlot",
      "type": "event"
    },
    {
      "anonymous": false,
      "inputs": [
        {
          "indexed": true,
          "internalType": "uint256",
          "name": "_tokenId",
          "type": "uint256"
        },
        {
          "indexed": true,
          "internalType": "address",
          "name": "_operator",
          "type": "address"
        },
        {
          "indexed": false,
          "internalType": "uint256",
          "name": "_value",
          "type": "uint256"
        }
      ],
      "name": "ApprovalValue",
      "type": "event"
    },
    {
      "anonymous": false,
      "inputs": [
        {
          "indexed": true,
          "internalType": "address",
          "name": "metadataDescriptor",
          "type": "address"
        }
      ],
      "name": "SetMetadataDescriptor",
      "type": "event"
    },
    {
      "anonymous": false,
      "inputs": [
        {
          "indexed": true,
          "internalType": "uint256",
          "name": "_tokenId",
          "type": "uint256"
        },
        {
          "indexed": true,
          "internalType": "uint256",
          "name": "_oldSlot",
          "type": "uint256"
        },
        {
          "indexed": true,
          "internalType": "uint256",
          "name": "_newSlot",
          "type": "uint256"
        }
      ],
      "name": "SlotChanged",
      "type": "event"
    },
    {
      "anonymous": false,
      "inputs": [
        {
          "indexed": true,
          "internalType": "address",
          "name": "_from",
          "type": "address"
        },
        {
          "indexed": true,
          "internalType": "address",
          "name": "_to",
          "type": "address"
        },
        {
          "indexed": true,
          "internalType": "uint256",
          "name": "_tokenId",
          "type": "uint256"
        }
      ],
      "name": "Transfer",
      "type": "event"
    },
    {
      "anonymous": false,
      "inputs": [
        {
          "indexed": true,
          "internalType": "uint256",
          "name": "_fromTokenId",
          "type": "uint256"
        },
        {
          "indexed": true,
          "internalType": "uint256",
          "name": "_toTokenId",
          "type": "uint256"
        },
        {
          "indexed": false,
          "internalType": "uint256",
          "name": "_value",
          "type": "uint256"
        }
      ],
      "name": "TransferValue",
      "type": "event"
    },
    {
      "inputs": [
        {
          "internalType": "address",
          "name": "_admin",
          "type": "address"
        },
        {
          "internalType": "string[]",
          "name": "_chainIdsStr",
          "type": "string[]"
        },
        {
          "internalType": "string[]",
          "name": "_contractAddrsStr",
          "type": "string[]"
        }
      ],
      "name": "addXTokenInfo",
      "outputs": [
        {
          "internalType": "bool",
          "name": "",
          "type": "bool"
        }
      ],
      "stateMutability": "nonpayable",
      "type": "function"
    },
    {
      "inputs": [],
      "name": "admin",
      "outputs": [
        {
          "internalType": "address",
          "name": "",
          "type": "address"
        }
      ],
      "stateMutability": "view",
      "type": "function"
    },
    {
      "inputs": [
        {
          "internalType": "uint256",
          "name": "tokenId_",
          "type": "uint256"
        },
        {
          "internalType": "address",
          "name": "operator_",
          "type": "address"
        }
      ],
      "name": "allowance",
      "outputs": [
        {
          "internalType": "uint256",
          "name": "",
          "type": "uint256"
        }
      ],
      "stateMutability": "view",
      "type": "function"
    },
    {
      "inputs": [
        {
          "internalType": "address",
          "name": "to_",
          "type": "address"
        },
        {
          "internalType": "uint256",
          "name": "tokenId_",
          "type": "uint256"
        }
      ],
      "name": "approve",
      "outputs": [],
      "stateMutability": "payable",
      "type": "function"
    },
    {
      "inputs": [
        {
          "internalType": "uint256",
          "name": "tokenId_",
          "type": "uint256"
        },
        {
          "internalType": "address",
          "name": "to_",
          "type": "address"
        },
        {
          "internalType": "uint256",
          "name": "value_",
          "type": "uint256"
        }
      ],
      "name": "approve",
      "outputs": [],
      "stateMutability": "payable",
      "type": "function"
    },
    {
      "inputs": [
        {
          "internalType": "address",
          "name": "to_",
          "type": "address"
        },
        {
          "internalType": "uint256",
          "name": "tokenId_",
          "type": "uint256"
        }
      ],
      "name": "approveFromX",
      "outputs": [],
      "stateMutability": "nonpayable",
      "type": "function"
    },
    {
      "inputs": [
        {
          "internalType": "address",
          "name": "owner_",
          "type": "address"
        }
      ],
      "name": "balanceOf",
      "outputs": [
        {
          "internalType": "uint256",
          "name": "balance",
          "type": "uint256"
        }
      ],
      "stateMutability": "view",
      "type": "function"
    },
    {
      "inputs": [
        {
          "internalType": "uint256",
          "name": "tokenId_",
          "type": "uint256"
        }
      ],
      "name": "balanceOf",
      "outputs": [
        {
          "internalType": "uint256",
          "name": "",
          "type": "uint256"
        }
      ],
      "stateMutability": "view",
      "type": "function"
    },
    {
      "inputs": [
        {
          "internalType": "uint256",
          "name": "fromTokenId_",
          "type": "uint256"
        },
        {
          "internalType": "uint256",
          "name": "value_",
          "type": "uint256"
        }
      ],
      "name": "burnValueX",
      "outputs": [
        {
          "internalType": "bool",
          "name": "",
          "type": "bool"
        }
      ],
      "stateMutability": "nonpayable",
      "type": "function"
    },
    {
      "inputs": [
        {
          "internalType": "address",
          "name": "_admin",
          "type": "address"
        }
      ],
      "name": "changeAdmin",
      "outputs": [
        {
          "internalType": "bool",
          "name": "",
          "type": "bool"
        }
      ],
      "stateMutability": "nonpayable",
      "type": "function"
    },
    {
      "inputs": [
        {
          "internalType": "string",
          "name": "_otherChainIdStr",
          "type": "string"
        },
        {
          "internalType": "string",
          "name": "_otherContractStr",
          "type": "string"
        }
      ],
      "name": "checkTokenCompatibility",
      "outputs": [
        {
          "internalType": "bool",
          "name": "",
          "type": "bool"
        }
      ],
      "stateMutability": "view",
      "type": "function"
    },
    {
      "inputs": [
        {
          "internalType": "uint256",
          "name": "tokenId_",
          "type": "uint256"
        }
      ],
      "name": "clearApprovedValues",
      "outputs": [],
      "stateMutability": "nonpayable",
      "type": "function"
    },
    {
      "inputs": [],
      "name": "contractURI",
      "outputs": [
        {
          "internalType": "string",
          "name": "",
          "type": "string"
        }
      ],
      "stateMutability": "view",
      "type": "function"
    },
    {
      "inputs": [],
      "name": "ctmRwa001XChain",
      "outputs": [
        {
          "internalType": "address",
          "name": "",
          "type": "address"
        }
      ],
      "stateMutability": "view",
      "type": "function"
    },
    {
      "inputs": [
        {
          "internalType": "uint256",
          "name": "tokenId_",
          "type": "uint256"
        }
      ],
      "name": "getApproved",
      "outputs": [
        {
          "internalType": "address",
          "name": "",
          "type": "address"
        }
      ],
      "stateMutability": "view",
      "type": "function"
    },
    {
      "inputs": [
        {
          "internalType": "string",
          "name": "_chainIdStr",
          "type": "string"
        }
      ],
      "name": "getTokenContract",
      "outputs": [
        {
          "internalType": "string",
          "name": "",
          "type": "string"
        }
      ],
      "stateMutability": "view",
      "type": "function"
    },
    {
      "inputs": [
        {
          "internalType": "uint256",
          "name": "tokenId_",
          "type": "uint256"
        }
      ],
      "name": "getTokenInfo",
      "outputs": [
        {
          "internalType": "uint256",
          "name": "",
          "type": "uint256"
        },
        {
          "internalType": "uint256",
          "name": "",
          "type": "uint256"
        },
        {
          "internalType": "address",
          "name": "",
          "type": "address"
        },
        {
          "internalType": "uint256",
          "name": "",
          "type": "uint256"
        }
      ],
      "stateMutability": "view",
      "type": "function"
    },
    {
      "inputs": [
        {
          "internalType": "uint256",
          "name": "tokenId_",
          "type": "uint256"
        }
      ],
      "name": "idOf",
      "outputs": [
        {
          "internalType": "uint256",
          "name": "",
          "type": "uint256"
        }
      ],
      "stateMutability": "view",
      "type": "function"
    },
    {
      "inputs": [
        {
          "internalType": "address",
          "name": "owner_",
          "type": "address"
        },
        {
          "internalType": "address",
          "name": "operator_",
          "type": "address"
        }
      ],
      "name": "isApprovedForAll",
      "outputs": [
        {
          "internalType": "bool",
          "name": "",
          "type": "bool"
        }
      ],
      "stateMutability": "view",
      "type": "function"
    },
    {
      "inputs": [
        {
          "internalType": "address",
          "name": "owner_",
          "type": "address"
        },
        {
          "internalType": "uint256",
          "name": "slot_",
          "type": "uint256"
        },
        {
          "internalType": "address",
          "name": "operator_",
          "type": "address"
        }
      ],
      "name": "isApprovedForSlot",
      "outputs": [
        {
          "internalType": "bool",
          "name": "",
          "type": "bool"
        }
      ],
      "stateMutability": "view",
      "type": "function"
    },
    {
      "inputs": [
        {
          "internalType": "address",
          "name": "operator_",
          "type": "address"
        },
        {
          "internalType": "uint256",
          "name": "tokenId_",
          "type": "uint256"
        }
      ],
      "name": "isApprovedOrOwner",
      "outputs": [
        {
          "internalType": "bool",
          "name": "",
          "type": "bool"
        }
      ],
      "stateMutability": "view",
      "type": "function"
    },
    {
      "inputs": [],
      "name": "metadataDescriptor",
      "outputs": [
        {
          "internalType": "contract ICTMRWA001MetadataDescriptor",
          "name": "",
          "type": "address"
        }
      ],
      "stateMutability": "view",
      "type": "function"
    },
    {
      "inputs": [
        {
          "internalType": "address",
          "name": "to_",
          "type": "address"
        },
        {
          "internalType": "uint256",
          "name": "tokenId_",
          "type": "uint256"
        },
        {
          "internalType": "uint256",
          "name": "slot_",
          "type": "uint256"
        },
        {
          "internalType": "uint256",
          "name": "value_",
          "type": "uint256"
        }
      ],
      "name": "mintFromX",
      "outputs": [],
      "stateMutability": "nonpayable",
      "type": "function"
    },
    {
      "inputs": [
        {
          "internalType": "address",
          "name": "to_",
          "type": "address"
        },
        {
          "internalType": "uint256",
          "name": "slot_",
          "type": "uint256"
        },
        {
          "internalType": "uint256",
          "name": "value_",
          "type": "uint256"
        }
      ],
      "name": "mintFromX",
      "outputs": [
        {
          "internalType": "uint256",
          "name": "tokenId",
          "type": "uint256"
        }
      ],
      "stateMutability": "nonpayable",
      "type": "function"
    },
    {
      "inputs": [
        {
          "internalType": "uint256",
          "name": "toTokenId_",
          "type": "uint256"
        },
        {
          "internalType": "uint256",
          "name": "slot_",
          "type": "uint256"
        },
        {
          "internalType": "uint256",
          "name": "value_",
          "type": "uint256"
        }
      ],
      "name": "mintValueX",
      "outputs": [
        {
          "internalType": "bool",
          "name": "",
          "type": "bool"
        }
      ],
      "stateMutability": "nonpayable",
      "type": "function"
    },
    {
      "inputs": [],
      "name": "name",
      "outputs": [
        {
          "internalType": "string",
          "name": "",
          "type": "string"
        }
      ],
      "stateMutability": "view",
      "type": "function"
    },
    {
      "inputs": [
        {
          "internalType": "uint256",
          "name": "tokenId_",
          "type": "uint256"
        }
      ],
      "name": "ownerOf",
      "outputs": [
        {
          "internalType": "address",
          "name": "owner_",
          "type": "address"
        }
      ],
      "stateMutability": "view",
      "type": "function"
    },
    {
      "inputs": [
        {
          "internalType": "address",
          "name": "from_",
          "type": "address"
        },
        {
          "internalType": "uint256",
          "name": "tokenId_",
          "type": "uint256"
        }
      ],
      "name": "removeTokenFromOwnerEnumeration",
      "outputs": [],
      "stateMutability": "nonpayable",
      "type": "function"
    },
    {
      "inputs": [
        {
          "internalType": "address",
          "name": "from_",
          "type": "address"
        },
        {
          "internalType": "address",
          "name": "to_",
          "type": "address"
        },
        {
          "internalType": "uint256",
          "name": "tokenId_",
          "type": "uint256"
        }
      ],
      "name": "safeTransferFrom",
      "outputs": [],
      "stateMutability": "payable",
      "type": "function"
    },
    {
      "inputs": [
        {
          "internalType": "address",
          "name": "from_",
          "type": "address"
        },
        {
          "internalType": "address",
          "name": "to_",
          "type": "address"
        },
        {
          "internalType": "uint256",
          "name": "tokenId_",
          "type": "uint256"
        },
        {
          "internalType": "bytes",
          "name": "data_",
          "type": "bytes"
        }
      ],
      "name": "safeTransferFrom",
      "outputs": [],
      "stateMutability": "payable",
      "type": "function"
    },
    {
      "inputs": [
        {
          "internalType": "address",
          "name": "operator_",
          "type": "address"
        },
        {
          "internalType": "bool",
          "name": "approved_",
          "type": "bool"
        }
      ],
      "name": "setApprovalForAll",
      "outputs": [],
      "stateMutability": "nonpayable",
      "type": "function"
    },
    {
      "inputs": [
        {
          "internalType": "address",
          "name": "owner_",
          "type": "address"
        },
        {
          "internalType": "uint256",
          "name": "slot_",
          "type": "uint256"
        },
        {
          "internalType": "address",
          "name": "operator_",
          "type": "address"
        },
        {
          "internalType": "bool",
          "name": "approved_",
          "type": "bool"
        }
      ],
      "name": "setApprovalForSlot",
      "outputs": [],
      "stateMutability": "payable",
      "type": "function"
    },
    {
      "inputs": [
        {
          "internalType": "uint256",
          "name": "index_",
          "type": "uint256"
        }
      ],
      "name": "slotByIndex",
      "outputs": [
        {
          "internalType": "uint256",
          "name": "",
          "type": "uint256"
        }
      ],
      "stateMutability": "view",
      "type": "function"
    },
    {
      "inputs": [],
      "name": "slotCount",
      "outputs": [
        {
          "internalType": "uint256",
          "name": "",
          "type": "uint256"
        }
      ],
      "stateMutability": "view",
      "type": "function"
    },
    {
      "inputs": [
        {
          "internalType": "uint256",
          "name": "tokenId_",
          "type": "uint256"
        }
      ],
      "name": "slotOf",
      "outputs": [
        {
          "internalType": "uint256",
          "name": "",
          "type": "uint256"
        }
      ],
      "stateMutability": "view",
      "type": "function"
    },
    {
      "inputs": [
        {
          "internalType": "uint256",
          "name": "slot_",
          "type": "uint256"
        }
      ],
      "name": "slotURI",
      "outputs": [
        {
          "internalType": "string",
          "name": "",
          "type": "string"
        }
      ],
      "stateMutability": "view",
      "type": "function"
    },
    {
      "inputs": [
        {
          "internalType": "address",
          "name": "operator_",
          "type": "address"
        },
        {
          "internalType": "uint256",
          "name": "tokenId_",
          "type": "uint256"
        },
        {
          "internalType": "uint256",
          "name": "value_",
          "type": "uint256"
        }
      ],
      "name": "spendAllowance",
      "outputs": [],
      "stateMutability": "nonpayable",
      "type": "function"
    },
    {
      "inputs": [
        {
          "internalType": "string",
          "name": "a",
          "type": "string"
        },
        {
          "internalType": "string",
          "name": "b",
          "type": "string"
        }
      ],
      "name": "stringsEqual",
      "outputs": [
        {
          "internalType": "bool",
          "name": "",
          "type": "bool"
        }
      ],
      "stateMutability": "pure",
      "type": "function"
    },
    {
      "inputs": [
        {
          "internalType": "bytes4",
          "name": "interfaceId",
          "type": "bytes4"
        }
      ],
      "name": "supportsInterface",
      "outputs": [
        {
          "internalType": "bool",
          "name": "",
          "type": "bool"
        }
      ],
      "stateMutability": "view",
      "type": "function"
    },
    {
      "inputs": [],
      "name": "symbol",
      "outputs": [
        {
          "internalType": "string",
          "name": "",
          "type": "string"
        }
      ],
      "stateMutability": "view",
      "type": "function"
    },
    {
      "inputs": [
        {
          "internalType": "uint256",
          "name": "index_",
          "type": "uint256"
        }
      ],
      "name": "tokenByIndex",
      "outputs": [
        {
          "internalType": "uint256",
          "name": "",
          "type": "uint256"
        }
      ],
      "stateMutability": "view",
      "type": "function"
    },
    {
      "inputs": [
        {
          "internalType": "uint256",
          "name": "",
          "type": "uint256"
        }
      ],
      "name": "tokenContract",
      "outputs": [
        {
          "internalType": "string",
          "name": "chainIdStr",
          "type": "string"
        },
        {
          "internalType": "string",
          "name": "contractStr",
          "type": "string"
        }
      ],
      "stateMutability": "view",
      "type": "function"
    },
    {
      "inputs": [
        {
          "internalType": "uint256",
          "name": "slot_",
          "type": "uint256"
        },
        {
          "internalType": "uint256",
          "name": "index_",
          "type": "uint256"
        }
      ],
      "name": "tokenInSlotByIndex",
      "outputs": [
        {
          "internalType": "uint256",
          "name": "",
          "type": "uint256"
        }
      ],
      "stateMutability": "view",
      "type": "function"
    },
    {
      "inputs": [
        {
          "internalType": "address",
          "name": "owner_",
          "type": "address"
        },
        {
          "internalType": "uint256",
          "name": "index_",
          "type": "uint256"
        }
      ],
      "name": "tokenOfOwnerByIndex",
      "outputs": [
        {
          "internalType": "uint256",
          "name": "",
          "type": "uint256"
        }
      ],
      "stateMutability": "view",
      "type": "function"
    },
    {
      "inputs": [
        {
          "internalType": "uint256",
          "name": "slot_",
          "type": "uint256"
        }
      ],
      "name": "tokenSupplyInSlot",
      "outputs": [
        {
          "internalType": "uint256",
          "name": "",
          "type": "uint256"
        }
      ],
      "stateMutability": "view",
      "type": "function"
    },
    {
      "inputs": [
        {
          "internalType": "uint256",
          "name": "tokenId_",
          "type": "uint256"
        }
      ],
      "name": "tokenURI",
      "outputs": [
        {
          "internalType": "string",
          "name": "",
          "type": "string"
        }
      ],
      "stateMutability": "view",
      "type": "function"
    },
    {
      "inputs": [],
      "name": "totalSupply",
      "outputs": [
        {
          "internalType": "uint256",
          "name": "",
          "type": "uint256"
        }
      ],
      "stateMutability": "view",
      "type": "function"
    },
    {
      "inputs": [
        {
          "internalType": "uint256",
          "name": "fromTokenId_",
          "type": "uint256"
        },
        {
          "internalType": "address",
          "name": "to_",
          "type": "address"
        },
        {
          "internalType": "uint256",
          "name": "value_",
          "type": "uint256"
        }
      ],
      "name": "transferFrom",
      "outputs": [
        {
          "internalType": "uint256",
          "name": "newTokenId",
          "type": "uint256"
        }
      ],
      "stateMutability": "payable",
      "type": "function"
    },
    {
      "inputs": [
        {
          "internalType": "address",
          "name": "from_",
          "type": "address"
        },
        {
          "internalType": "address",
          "name": "to_",
          "type": "address"
        },
        {
          "internalType": "uint256",
          "name": "tokenId_",
          "type": "uint256"
        }
      ],
      "name": "transferFrom",
      "outputs": [],
      "stateMutability": "payable",
      "type": "function"
    },
    {
      "inputs": [
        {
          "internalType": "uint256",
          "name": "fromTokenId_",
          "type": "uint256"
        },
        {
          "internalType": "uint256",
          "name": "toTokenId_",
          "type": "uint256"
        },
        {
          "internalType": "uint256",
          "name": "value_",
          "type": "uint256"
        }
      ],
      "name": "transferFrom",
      "outputs": [],
      "stateMutability": "payable",
      "type": "function"
    },
    {
      "inputs": [],
      "name": "valueDecimals",
      "outputs": [
        {
          "internalType": "uint8",
          "name": "",
          "type": "uint8"
        }
      ],
      "stateMutability": "view",
      "type": "function"
    }
  ],
  "bytecode": "0x608060408181523462000704576200501e803803809162000021828662000709565b8439820190608083830312620007045782516001600160401b03908181116200070457836200005291860162000784565b92602090818601519083821162000704576200007091870162000784565b94838101519260ff918285168095036200070457606001516001600160a01b0381169290839003620007045760018060a01b031993600093338686541617855560019586600655895197858911620006f05760039880620000d28b54620007d1565b601f9d818f80931162000691575b50879183116001146200062e578a9262000622575b5050600019828c1b1c191690891b1789555b8b518681116200060e5760049b620001208d54620007d1565b818111620005ca575b508c9d8c9d8a9d9c9d50879284116001146200053d57509b8291620002329d8b9362000531575b5050828b1b92600019911b1c1916178c555b60ff196005541617600555865416178555468086867a184f03e93ff9f4daa797ed6e38ed64bf6a1f0100000000000000008084101562000520575b50846d04ee2d6d415b85acef81000000008086101562000513575b5050662386f26fc100008085101562000505575b506305f5e10080851015620004f7575b508c61271080861015620004ea575b50506064841015620004db575b60219082600a80961015620004d3575b810162000223620002198262000743565b9c519c8d62000709565b808c52601f199c8d9162000743565b0136878d01378a0101905b620004a2575b505050308851936060850190858210908211176200048f578952602a8452818401893682378451156200047c5760309053835186101562000469576078602185015360295b868111620003fd5750620003bc57825196620002c0620002a88962000743565b98620002b78b519a8b62000709565b808a5262000743565b01368289013783855b620002eb575b88620002dc89896200087c565b5051614390908162000c8e8239f35b8351811015620003b6576200030181856200080e565b51604160f891821c1015806200039c575b156200037157826200032583876200080e565b51821c018481116200035e576200035792911b6001600160f81b031916861a62000350828b6200080e565b5362000836565b85620002c9565b634e487b7160e01b875260118c52602487fd5b5062000357906001600160f81b03196200038c82876200080e565b5116861a62000350828b6200080e565b50605a620003ab83876200080e565b51821c111562000312565b620002cf565b88816064928a519262461bcd60e51b845283015260248201527f537472696e67733a20686578206c656e67746820696e73756666696369656e746044820152fd5b90600f8116601081101562000456576f181899199a1a9b1b9c1cb0b131b232b360811b901a6200042e83876200080e565b538a1c90801562000443576000190162000288565b634e487b7160e01b865260118b52602486fd5b634e487b7160e01b875260328c52602487fd5b634e487b7160e01b855260328a52602485fd5b634e487b7160e01b865260328b52602486fd5b634e487b7160e01b865260418b52602486fd5b600019019082906f181899199a1a9b1b9c1cb0b131b232b360811b8282061a8353049087826200023d575062000243565b018262000208565b606490930492600201620001f8565b90940493018c38620001eb565b6008919404930138620001dc565b6010919404930138620001cc565b90940493018438620001b8565b92935050508104908688386200019d565b01519150388062000150565b8a52868a20929c9190601f198e168b5b818110620005935750918e9391620002329f8e96941062000578575b50505050811b018c5562000162565b01519060f884600019921b161c191690553880808062000569565b93948d9f97999b9d8497999b9d9f508c92939491839286015181550196019301908f9d9b999795949392919e9c9a98969e6200054d565b8d8a52868a208280850160051c82019289861062000604575b0160051c01905b818110620005f9575062000129565b8a81558b01620005ea565b92508192620005e3565b634e487b7160e01b88526041600452602488fd5b015190503880620000f5565b8c8b52878b208c94509190601f1984168c5b8a8282106200067a575050841162000661575b505050811b01895562000107565b0151600019838e1b60f8161c1916905538808062000653565b8385015186558f9790950194938401930162000640565b915091508b8a528d878b209080850160051c820192898610620006e6575b859492828f929593950160051c01915b828110620006cf575050620000e0565b8d91939550809294505501918e918c8594620006bf565b92508192620006af565b634e487b7160e01b87526041600452602487fd5b600080fd5b601f909101601f19168101906001600160401b038211908210176200072d57604052565b634e487b7160e01b600052604160045260246000fd5b6001600160401b0381116200072d57601f01601f191660200190565b60005b838110620007735750506000910152565b818101518382015260200162000762565b81601f82011215620007045780516200079d8162000743565b92620007ad604051948562000709565b818452602082840101116200070457620007ce91602080850191016200075f565b90565b90600182811c9216801562000803575b6020831014620007ed57565b634e487b7160e01b600052602260045260246000fd5b91607f1691620007e1565b90815181101562000820570160200190565b634e487b7160e01b600052603260045260246000fd5b6000198114620008465760010190565b634e487b7160e01b600052601160045260246000fd5b6002548110156200082057600260005260206000209060011b0190600090565b60025490929160005b82811062000b31575060408051946001600160401b03918601828111878210176200072d576040528552602094858101928352680100000000000000008410156200072d57620008dd6001948581016002556200085c565b91909162000b1b5751908151908382116200072d578591620009008254620007d1565b93601f9485811162000ac6575b50899085831160011462000a5b57600091908362000a4f575b5050600019600383901b1c191690831b1781555b0192519586519283116200072d57620009548454620007d1565b82811162000a04575b50809183116001146200099b575081929394956000926200098f575b5050600019600383901b1c191690831b17905590565b01519050388062000979565b90601f198316968460005282600020926000905b898210620009ec5750508386979896959610620009d2575b505050811b01905590565b015160001960f88460031b161c19169055388080620009c7565b808885968294968601518155019501930190620009af565b84600052816000208380860160051c82019284871062000a45575b0160051c019086905b82811062000a385750506200095d565b6000815501869062000a28565b9250819262000a1f565b01519050388062000926565b90601f19831691846000528b6000209260005b8d82821062000aaf575050908487959493921062000a95575b505050811b0181556200093a565b015160001960f88460031b161c1916905538808062000a87565b8385015186558c9890950194938401930162000a6e565b909192809450600052896000208580850160051c8201928c861062000b11575b908a9695949392910160051c01905b81811062000b0457506200090d565b6000815589950162000af5565b9250819262000ae6565b634e487b7160e01b600052600060045260246000fd5b62000b3c816200085c565b50604090815190816000825462000b5381620007d1565b8084529360019180831690811562000c3a575060011462000bf5575b505062000b7f9250038262000709565b81519062000bd26020918362000b99848201928362000c5f565b039362000baf601f199586810183528262000709565b5190209351918201928262000bc58b8662000c5f565b0390810183528262000709565b5190201462000bec5762000be69062000836565b62000885565b50600093505050565b90915060005260209283600020916000925b82841062000c23575050509162000b7f92820101388062000b6f565b805487850187015286945092850192810162000c07565b935050505062000b7f9260209160ff191682840152151560051b820101388062000b6f565b6040916020825262000c8181518092816020860152602086860191016200075f565b601f01601f191601019056fe6080604052600436101561001257600080fd5b6000803560e01c8062cd011014611dd157806301ffc9a714611ce657806306fdde0314611c405780630752175414611c0e578063081812fc14611bef578063095ea7b314611acd57806309c3dd8714611a3d5780630f485c021461151257806313d19950146114f857806315c77d841461143257806318160ddd1461141457806323b872dd146113ef578063263f3e7e146113d05780632f745c5914611326578063310ed7f0146112b3578063381c4fce146112775780633e7e866914611256578063404b6e9f1461121b57806342842e0e146111f8578063430c2081146111bb578063449d07721461110b57806349178b25146110995780634f6ccce71461101c5780634f8a0f8314610ffd57806355cd4e0614610e57578063582939e514610e145780636352211e14610de357806370a0823114610dbf578063840f711314610d965780638c7a63ae14610cee5780638cb0a51114610c4a5780638f28397014610b9557806395d89b4114610ac4578063968e8a1314610a89578063993bef8d14610a005780639c0e9a5d146109e65780639cc7f708146109c7578063a22cb465146108eb578063a30fb02014610884578063a6a2d1dd14610801578063b3875b95146107d8578063b88d4fde14610776578063bff2ed7114610733578063c87b56dd14610613578063dee9f53f146105ce578063e345e0bc1461059f578063e345f05e14610545578063e8a3d485146102e7578063e985e9c514610294578063ed08fa80146102765763f851a4401461024d57600080fd5b34610273578060031936011261027357546040516001600160a01b039091168152602090f35b80fd5b50346102735780600319360112610273576020600d54604051908152f35b50346102735760403660031901126102735760ff60406020926102b5611ee2565b6102bd611f0e565b6001600160a01b039182168352600a86528383209116825260020184522054604051911615158152f35b503461027357806003193601126102735760405161030481611f97565b818152600b5482906001600160a01b0316801561038e57604051631c97e82760e21b81529250829060049082905afa908115610383578261035c9392610360575b50505b604051918291602083526020830190611ebd565b0390f35b61037c92503d8091833e6103748183611fb2565b810190612aba565b3880610345565b6040513d84823e3d90fd5b5050811561052b573091604051606081018181106001600160401b0382111761051557604052602a815260209384820192604036853782511561050157603084538251906001918210156105015790607860218501536029915b818311610493575050506104505768636f6e74726163742f60b81b9261044b9261035c9561043c602994604051978561042a8a9751809287808b019101611e9a565b86019384015251809386840190611e9a565b01036009810184520182611fb2565b610348565b6064846040519062461bcd60e51b825280600483015260248201527f537472696e67733a20686578206c656e67746820696e73756666696369656e746044820152fd5b909192600f811660108110156104ed576f181899199a1a9b1b9c1cb0b131b232b360811b901a6104c38587612b25565b5360041c9280156104d9576000190191906103e8565b634e487b7160e01b82526011600452602482fd5b634e487b7160e01b83526032600452602483fd5b634e487b7160e01b81526032600452602490fd5b634e487b7160e01b600052604160045260246000fd5b505061035c60405161053c81611f97565b60008152610348565b50346102735760603660031901126102735760ff6040602092610566611ee2565b61056e611ef8565b6001600160a01b039182168352600f8652838320602435845286528383209116825284522054604051911615158152f35b50346102735760403660031901126102735760206105c66105be611f0e565b600435612b8e565b604051908152f35b50346102735760203660031901126102735761060960406020926004356105fc6105f782612d7d565b612a0e565b81526009845220546129a9565b5054604051908152f35b50346102735760209081600319360112610273576004356106366105f782612d7d565b6040519061064382611f97565b828252600b546001600160a01b0316918483156106c557505082906024604051809481936344a5a61760e11b835260048301525afa9182156106b957809261069e575b5050905b61035c604051928284938452830190611ebd565b6106b292503d8091833e6103748183611fb2565b3880610686565b604051903d90823e3d90fd5b9192509260001461071b576106dc610715926124c1565b9260405193816106f58693518092868087019101611e9a565b820161070982518093868085019101611e9a565b01038084520182611fb2565b9061068a565b50505060405161072a81611f97565b60008152610715565b50346102735760206105c6610747366120d5565b9061076060018060a09695961b036001541633146122ec565b600654809461076e82612351565b600655612dab565b5060803660031901126102735761078b611ee2565b610793611f0e565b606435916001600160401b0383116107d457366023840112156107d4576107c76107d1933690602481600401359101611fee565b9160443591612ca3565b80f35b8380fd5b50346102735780600319360112610273576001546040516001600160a01b039091168152602090f35b50346102735760603660031901126102735761081b611ee2565b906001600160401b036024358181116108805761083c903690600401612269565b91604435918211610273576020610876858561085b3660048801612269565b9161087160018060a01b036001541633146122ec565b61238a565b6040519015158152f35b8280fd5b50346102735760203660031901126102735760043590600254821015610273576108dd6108b08361214f565b5061035c6108c960016108c2846121c3565b93016121c3565b604051938493604085526040850190611ebd565b908382036020850152611ebd565b503461027357604036600319011261027357610905611ee2565b60243590811515908183036107d4576001600160a01b0316913383146109825761095390338552600a60205260026040862001848652602052604085209060ff801983541691151516179055565b6040519081527f17307eab39ab6107e8899845ad3d59bd9653f200f220920489ca2b5937696c3160203392a380f35b60405162461bcd60e51b815260206004820152601c60248201527f43544d5257413030313a20617070726f766520746f2063616c6c6572000000006044820152606490fd5b50346102735760203660031901126102735760206105c66004356129e4565b50346102735760206108766109fa36612043565b90612936565b503461027357602036600319011261027357600435600d54811015610a2a576106096020916120ff565b60405162461bcd60e51b815260206004820152603160248201527f43544d525741303031536c6f74456e756d657261626c653a20736c6f7420696e604482015270646578206f7574206f6620626f756e647360781b6064820152608490fd5b5034610273576040366003190112610273576107d1610aa6611ee2565b610abb60018060a01b036001541633146122ec565b602435906132bf565b50346102735780600319360112610273576040519080600454610ae681612189565b80855291600191808316908115610b6b5750600114610b10575b61035c8561034881870382611fb2565b9250600483527f8a35acfbc15ff81a39ae7d344fd709f28e8600b4aa8c65c6b64bfe7fe36bd19b5b828410610b535750505081016020016103488261035c610b00565b80546020858701810191909152909301928101610b38565b86955061035c9693506020925061034894915060ff191682840152151560051b8201019293610b00565b503461027357602036600319011261027357610baf611ee2565b8154906001600160a01b03908183163303610bf457610bd3826001541633146122ec565b16906bffffffffffffffffffffffff60a01b16179055602060405160018152f35b60405162461bcd60e51b815260206004820152602860248201527f43544d5257413030313a205468697320697320616e206f6e6c7941646d696e20604482015267333ab731ba34b7b760c11b6064820152608490fd5b50610c5436611f24565b90610c756001600160a01b0380610c6a86612a5a565b169083161415612b36565b610c7f83336141c5565b15610c8d576107d192613329565b60405162461bcd60e51b815260206004820152603360248201527f43544d5257413030313a20617070726f76652063616c6c6572206973206e6f74604482015272081bdddb995c881b9bdc88185c1c1c9bdd9959606a1b6064820152608490fd5b503461027357602080600319360112610d925790608091600435610d146105f782612d7d565b80835260098252610d2860408420546129a9565b505492818152600983526001610d7960406002610d47828620546129a9565b5001549385815260098752610d5e828220546129a9565b506003858060a01b03910154169581526009875220546129a9565b5001549260405194855284015260408301526060820152f35b5080fd5b5034610273578060031936011261027357600b546040516001600160a01b039091168152602090f35b50346102735760203660031901126102735760206105c6610dde611ee2565b612bbf565b5034610273576020366003190112610273576020610e02600435612a5a565b6040516001600160a01b039091168152f35b5034610273576080366003190112610273576107d1610e31611ee2565b610e4660018060a01b036001541633146122ec565b606435906044359060243590612dab565b50608036600319011261027357610e6c611ee2565b602435610e77611ef8565b6064359283151590818503610ff9576001600160a01b03908116923384148015610fd6575b15610f61571693848314610f0a577f7bdf71e6625aa496095bf08b60c677cf81c963f402cf258981e3bd7507d3480c91610f00602092858952600f845260408920878a52845260408920888a528452604089209060ff801983541691151516179055565b604051908152a480f35b60405162461bcd60e51b815260206004820152602960248201527f43544d525741303031536c6f74417070726f7661626c653a20617070726f7665604482015268103a379037bbb732b960b91b6064820152608490fd5b60405162461bcd60e51b815260206004820152604160248201527f43544d525741303031536c6f74417070726f7661626c653a2063616c6c65722060448201527f6973206e6f74206f776e6572206e6f7220617070726f76656420666f7220616c6064820152601b60fa1b608482015260a490fd5b50838752600a6020526002604088200133885260205260ff604088205416610e9c565b8580fd5b50346102735760203660031901126102735760206105c6600435614285565b503461027357602036600319011261027357600435600854811015611046576106096020916129a9565b60405162461bcd60e51b815260206004820152602560248201527f43544d5257413030313a20676c6f62616c20696e646578206f7574206f6620626044820152646f756e647360d81b6064820152608490fd5b5034610273576110fe60026110e860406110b236611e7f565b95906110c960018060a01b036001541633146122ec565b6110da6110d582612d7d565b613589565b8152600960205220546129a9565b50019182546110f982821015613643565b612d70565b9055602060405160018152f35b50346102735761111a366120d5565b916111258183612b8e565b61112f83836141c5565b15806111af575b61113e578480f35b838110611160576111589361115291612d70565b91613329565b388080808480f35b60405162461bcd60e51b815260206004820152602160248201527f43544d5257413030313a20696e73756666696369656e7420616c6c6f77616e636044820152606560f81b6064820152608490fd5b50600019811415611136565b50346102735760403660031901126102735760206108766111da611ee2565b6111ef60018060a01b036001541633146122ec565b602435906141c5565b506107d1611205366120a0565b906040519261121384611f97565b858452612ca3565b5034610273576040366003190112610273576107d1611238611ee2565b61124d60018060a01b036001541633146122ec565b602435906131e5565b5034610273578060031936011261027357602060ff60055416604051908152f35b503461027357602036600319011261027357600435906001600160401b0382116102735761035c6103486112ae3660048601612025565b6128c8565b506112bd36612086565b90929192303b156108805760405163224e83b960e11b81523360048201526024810185905260448101839052838160648183305af1801561131b57611308575b506107d192936136a4565b926113156107d194611f4e565b926112fd565b6040513d86823e3d90fd5b503461027357604036600319011261027357611340611ee2565b9060243561134d83612bbf565b81101561137f5760406113719260209460018060a01b03168152600a855220612d58565b90546040519160031b1c8152f35b60405162461bcd60e51b8152602060048201526024808201527f43544d5257413030313a206f776e657220696e646578206f7574206f6620626f604482015263756e647360e01b6064820152608490fd5b50346102735760203660031901126102735760206105c6600435612a96565b506107d16113fc366120a0565b9161140f61140a84336141c5565b612c3a565b613a8e565b50346102735780600319360112610273576020600854604051908152f35b50346102735760409061147261144736612086565b949161146160018060a09794971b036001541633146122ec565b6110da61146d82612d7d565b6135e7565b509060018201540361148d5760026110fe9101918254612b18565b60405162461bcd60e51b815260206004820152603a60248201527f43544d5257413030313a2044657374696e6174696f6e20736c6f74206973206e60448201527f6f74207468652073616d6520617320736f7572636520736c6f740000000000006064820152608490fd5b503461027357602061087661150c36612043565b9061407d565b5061151c36611f24565b909291303b156108805760405163224e83b960e11b81523360048201526024810182905260448101839052838160648183305af1801561131b57611a2e575b506006549261156984612351565b60065561157582612a96565b6001600160a01b038616156119dd57841561198c5761159385612d7d565b611947576115a0816142b1565b156117e7575b604051956115b387611f97565b8287526040516115c281611f7c565b868152602081018381526040820198858a526060830160018060a01b0385168152608084019187835260a08501526008549a8a885260096020528b6040892055600160401b8c10156117d35761161f60019c8d81016008556129a9565b9490946117bf578551855551848d0155516002840155516003830180546001600160a01b03199081166001600160a01b03938416179091559151600484018054909316911617905560a09190910151805191600501906001600160401b0383116117ab5760209061169084846132a5565b0190855260208520855b83811061178f57506020896105c68a828b8f828d8d828e6116bb828261313e565b6001600160a01b0316837fddf252ad1be2c89b69c2b068fc378daa952ba7f163c4a11628f55a4df523b3ef8180a480828460008051602061433b8339815191528280a482825260098a5261171260408320546129a9565b505082827f0b2aac84f3ec956911fd78eae5311062972ff949f38412e8da39069d9f068cc68c604051838152a361174983826142d9565b61178657604061178194828452600e8c52611766828520546120ff565b5001928354928152600c8c528181208582528c522055613102565b6136a4565b505050506136a4565b82516001600160a01b0316818301556020909201918a0161169a565b634e487b7160e01b86526041600452602486fd5b634e487b7160e01b89526004899052602489fd5b634e487b7160e01b88526041600452602488fd5b6117f0816142b1565b6118ed5760405161180081611f97565b82815260405161180f81611f61565b828152602091828201908152600d5492848652600e8152836040872055600160401b92838510156118c55761184b600195868101600d556120ff565b9190916118d9579085915181550191518051936001600160401b0385116117d35784116118c557819061188385855481875586613282565b0191865280862090865b8481106118b45750505050505080828060008051602061433b8339815191528180a46115a6565b83518382015592810192850161188d565b634e487b7160e01b87526041600452602487fd5b634e487b7160e01b88526004889052602488fd5b60405162461bcd60e51b815260206004820152602c60248201527f43544d525741303031536c6f74456e756d657261626c653a20736c6f7420616c60448201526b72656164792065786973747360a01b6064820152608490fd5b60405162461bcd60e51b815260206004820152601f60248201527f43544d5257413030313a20746f6b656e20616c7265616479206d696e746564006044820152606490fd5b60405162461bcd60e51b815260206004820152602360248201527f43544d5257413030313a2063616e6e6f74206d696e74207a65726f20746f6b656044820152621b925960ea1b6064820152608490fd5b60405162461bcd60e51b815260206004820152602360248201527f43544d5257413030313a206d696e7420746f20746865207a65726f206164647260448201526265737360e81b6064820152608490fd5b611a3790611f4e565b3861155b565b50346102735760203660031901126102735780604051611a5c81611f97565b52600b546001600160a01b03168015611ab5578160249160405192838092633601bfc560e11b825260043560048301525afa908115610383578261035c9392610360575050604051918291602083526020830190611ebd565b5060405161035c91611ac682611f97565b8152610348565b50604036600319011261027357611ae2611ee2565b602435611aee81612a5a565b611af782612a96565b6001600160a01b0391821691611b11908516831415612b36565b813314918215611bca575b8215611b9d575b505015611b33576107d1916132bf565b608460405162461bcd60e51b815260206004820152604060248201527f43544d5257413030313a20617070726f76652063616c6c6572206973206e6f7460448201527f206f776e6572206e6f7220617070726f76656420666f7220616c6c2f736c6f746064820152fd5b9091508452600f602052604084209084526020526040832033845260205260ff6040842054163880611b23565b8092508552600a6020526002604086200133865260205260ff60408620541691611b1c565b5034610273576020366003190112610273576020610e02600435612d25565b503461027357602036600319011261027357611c3560018060a01b036001541633146122ec565b6107d1600435613467565b50346102735780600319360112610273576040519080600354611c6281612189565b80855291600191808316908115610b6b5750600114611c8b5761035c8561034881870382611fb2565b9250600383527fc2575a0e9e593c00f959f8c92f12db2869c3395a3b0502d05e2516446f71f85b5b828410611cce5750505081016020016103488261035c610b00565b80546020858701810191909152909301928101611cb3565b50346102735760203660031901126102735760043563ffffffff60e01b8116809103610d92576020906316d117cb60e31b8114908115611d2c575b506040519015158152f35b631dba0dcf60e11b811491508115611d46575b5082611d21565b6301ffc9a760e01b811491508115611dc0575b8115611daf575b8115611d9e575b8115611d8d575b8115611d7c575b5082611d3f565b635b5e139f60e01b14905082611d75565b63780e9d6360e01b81149150611d6e565b6370b0048160e11b81149150611d67565b6380ac58cd60e01b81149150611d60565b630354d60560e61b81149150611d59565b503461027357611de036611e7f565b611deb829392614285565b811015611e14576001611e0d6040846020966113719652600e875220546120ff565b5001612d58565b60405162461bcd60e51b815260206004820152603760248201527f43544d525741303031536c6f74456e756d657261626c653a20736c6f7420746f60448201527f6b656e20696e646578206f7574206f6620626f756e64730000000000000000006064820152608490fd5b6040906003190112611e95576004359060243590565b600080fd5b60005b838110611ead5750506000910152565b8181015183820152602001611e9d565b90602091611ed681518092818552858086019101611e9a565b601f01601f1916010190565b600435906001600160a01b0382168203611e9557565b604435906001600160a01b0382168203611e9557565b602435906001600160a01b0382168203611e9557565b6060906003190112611e9557600435906024356001600160a01b0381168103611e95579060443590565b6001600160401b03811161051557604052565b604081019081106001600160401b0382111761051557604052565b60c081019081106001600160401b0382111761051557604052565b602081019081106001600160401b0382111761051557604052565b90601f801991011681019081106001600160401b0382111761051557604052565b6001600160401b03811161051557601f01601f191660200190565b929192611ffa82611fd3565b916120086040519384611fb2565b829481845281830111611e95578281602093846000960137010152565b9080601f83011215611e955781602061204093359101611fee565b90565b906040600319830112611e95576001600160401b03600435818111611e95578361206f91600401612025565b92602435918211611e955761204091600401612025565b6060906003190112611e9557600435906024359060443590565b6060906003190112611e95576001600160a01b03906004358281168103611e9557916024359081168103611e95579060443590565b6060906003190112611e95576004356001600160a01b0381168103611e9557906024359060443590565b600d5481101561213957600d60005260011b7fd7b6990105719101dabeb77144f2a3385c8033acd3af97e9423a695e81ad1eb50190600090565b634e487b7160e01b600052603260045260246000fd5b60025481101561213957600260005260011b7f405787fa12a823e0f2b7631cc41b3ba8828b3321ca811111fa75cd3aa3bb5ace0190600090565b90600182811c921680156121b9575b60208310146121a357565b634e487b7160e01b600052602260045260246000fd5b91607f1691612198565b90604051918260008254926121d784612189565b9081845260019485811690816000146122465750600114612203575b505061220192500383611fb2565b565b9093915060005260209081600020936000915b81831061222e575050612201935082010138806121f3565b85548884018501529485019487945091830191612216565b91505061220194506020925060ff191682840152151560051b82010138806121f3565b9080601f83011215611e95578135906001600160401b0392838311610515578260051b6040519460209461229f86840188611fb2565b8652848087019284010193808511611e9557858401925b8584106122c7575050505050505090565b8335838111611e955787916122e1848480948a0101612025565b8152019301926122b6565b156122f357565b60405162461bcd60e51b815260206004820152603060248201527f43544d5257413030313a20546869732063616e206f6e6c792062652063616c6c60448201526f0cac840c4f24086a89aa4ae82606062b60831b6064820152608490fd5b60001981146123605760010190565b634e487b7160e01b600052601160045260246000fd5b80518210156121395760209160051b010190565b600080549293909290916001600160a01b0391821691160361247c57825181510361241957815b8351811015612410576123d16123c78286612376565b5161150c466124c1565b156123e5575b6123e090612351565b6123b1565b6124046123f28286612376565b516123fd8385612376565b5190612640565b6123d7575b5050905090565b50505050600190565b60405162461bcd60e51b815260206004820152603560248201527f43544d5257413030313a204c656e677468206d69736d6174636820636861696e60448201527449647320616e6420636f6e7472616374416464727360581b6064820152608490fd5b60405162461bcd60e51b815260206004820152601e60248201527f43544d525741303031583a2041646d696e4f6e6c792066756e6374696f6e00006044820152606490fd5b806000917a184f03e93ff9f4daa797ed6e38ed64bf6a1f0100000000000000008082101561261b575b506d04ee2d6d415b85acef81000000008083101561260c575b50662386f26fc10000808310156125fd575b506305f5e100808310156125ee575b50612710808310156125df575b5060648210156125cf575b600a809210156125c5575b6001908160218186019561255a87611fd3565b966125686040519889611fb2565b808852612577601f1991611fd3565b01366020890137860101905b61258f575b5050505090565b600019019083906f181899199a1a9b1b9c1cb0b131b232b360811b8282061a8353049182156125c057919082612583565b612588565b9160010191612547565b919060646002910491019161253c565b60049193920491019138612531565b60089193920491019138612524565b60109193920491019138612515565b60209193920491019138612503565b6040935081049150386124ea565b818110612634575050565b60008155600101612629565b60025490929160005b82811061289257506040519361265e85611f61565b8452602093848101918252600160401b8310156105155761268660019384810160025561214f565b91909161287c575180516001600160401b03928382116105155785916126ac8254612189565b93601f948a86821161284d575b505089908583116001146127e75760009190836127dc575b5050600019600383901b1c191690831b1781555b019251958651928311610515576126fc8454612189565b8281116127a4575b508091831160011461273f57508192939495600092612734575b5050600019600383901b1c191690831b17905590565b01519050388061271e565b90601f198316968460005282600020926000905b89821061278d5750508386979896959610612774575b505050811b01905590565b015160001960f88460031b161c19169055388080612769565b808885968294968601518155019501930190612753565b6127cd9085600052826000208480870160051c8201928588106127d3575b0160051c0190612629565b38612704565b925081926127c2565b0151905038806126d1565b90601f19831691846000528b6000209260005b8d828210612837575050908487959493921061281e575b505050811b0181556126e5565b015160001960f88460031b161c19169055388080612811565b8385015186558c989095019493840193016127fa565b612875918560005287826000209181870160051c83019387106127d3570160051c0190612629565b388a6126b9565b634e487b7160e01b600052600060045260246000fd5b6128ad856128a86128a28461214f565b506121c3565b61407d565b6128bf576128ba90612351565b612649565b50600093505050565b6002549060005b8281106128ec575050506040516128e581611f97565b6000815290565b61290b6128f88261214f565b506128a8612905856140e2565b916121c3565b61291d5761291890612351565b6128cf565b61204092506001915061292f9061214f565b50016121c3565b612942612948916140e2565b916140e2565b6002549160005b83811061295f5750505050600090565b61297461296e6128a28361214f565b8361407d565b8061298c575b6124105761298790612351565b61294f565b506129a461299e600161292f8461214f565b8461407d565b61297a565b600854811015612139576006906008600052027ff3f7a9fe364faab93b216da50a3214154f22a0a2b415b23a84c8169e8b636ee30190600090565b6129f06105f782612d7d565b60005260096020526002612a086040600020546129a9565b50015490565b15612a1557565b60405162461bcd60e51b815260206004820152601b60248201527f43544d5257413030313a20696e76616c696420746f6b656e20494400000000006044820152606490fd5b612a666105f782612d7d565b6000526009602052612a7c6040600020546129a9565b50600301546001600160a01b031690612201821515612a0e565b612aa26105f782612d7d565b60005260096020526001612a086040600020546129a9565b602081830312611e95578051906001600160401b038211611e95570181601f82011215611e95578051612aec81611fd3565b92612afa6040519485611fb2565b81845260208284010111611e95576120409160208085019101611e9a565b9190820180921161236057565b908151811015612139570160200190565b15612b3d57565b60405162461bcd60e51b8152602060048201526024808201527f43544d5257413030313a20617070726f76616c20746f2063757272656e74206f6044820152633bb732b960e11b6064820152608490fd5b612b9a6105f782612d7d565b600052600760205260406000209060018060a01b031660005260205260406000205490565b6001600160a01b03168015612bdf57600052600a60205260406000205490565b60405162461bcd60e51b815260206004820152602d60248201527f43544d5257413030313a2062616c616e636520717565727920666f722074686560448201526c207a65726f206164647265737360981b6064820152608490fd5b15612c4157565b60405162461bcd60e51b815260206004820152603460248201527f43544d5257413030313a207472616e736665722063616c6c6572206973206e6f6044820152731d081bdddb995c881b9bdc88185c1c1c9bdd995960621b6064820152608490fd5b90612cc7939291612cb761140a84336141c5565b612cc2838383613a8e565b613f6f565b15612cce57565b60405162461bcd60e51b815260206004820152602960248201527f43544d5257413030313a207472616e7366657220746f206e6f6e20455243373260448201526818a932b1b2b4bb32b960b91b6064820152608490fd5b612d316105f782612d7d565b6000526009602052612d476040600020546129a9565b50600401546001600160a01b031690565b80548210156121395760005260206000200190600090565b9190820391821161236057565b60085415159081612d8c575090565b8091506000526009602052612da56040600020546129a9565b50541490565b919290916001600160a01b038116156119dd57821561198c57612dcd83612d7d565b61194757612dda846142b1565b15613006575b604051612dec81611f97565b6000815260405190612dfd82611f7c565b8482528560208301526000604083015260018060a01b03831660608301526000608083015260a082015260085484600052600960205280604060002055600160401b81101561051557806001612e5692016008556129a9565b61287c5781518155602082015160018201556040820151600282015560608201516003820180546001600160a01b039283166001600160a01b031991821617909155608084015160048401805491909316911617905560a090910151805191600501906001600160401b038311610515579060208392612ed988979695846132a5565b0190600052602060002060005b838110612fe6575050505060206000928483612f23827f0b2aac84f3ec956911fd78eae5311062972ff949f38412e8da39069d9f068cc69661313e565b6001600160a01b0316857fddf252ad1be2c89b69c2b068fc378daa952ba7f163c4a11628f55a4df523b3ef8180a486848660008051602061433b8339815191528280a4848452600982526002612f7c60408620546129a9565b5001612f89828254612b18565b9055604051908152a3612f9c81836142d9565b612fe2578161220192600052600e6020526001612fbd6040600020546120ff565b500190815490600052600c602052604060002083600052602052604060002055613102565b5050565b82516001600160a01b031681830155879650602090920191600101612ee6565b61300f846142b1565b6118ed5760405161301f81611f97565b60009081815260405161303181611f61565b868152602091828201908152600d5492888552600e8152836040862055600160401b92838510156117ab5761306d600195868101600d556120ff565b9190916130ee579085915181550191518051936001600160401b0385116118c55784116117ab57908083926130ab868d999897965481875586613282565b0191855280852090855b8481106130da575050505050508060008051602061433b8339815191528180a4612de0565b8351818401558b97509281019285016130b5565b634e487b7160e01b87526004879052602487fd5b90815491600160401b831015610515578261312591600161220195018155612d58565b90919082549060031b91821b91600019901b1916179055565b906040612201926000908382526009602052600361315e848420546129a9565b500180546001600160a01b0319166001600160a01b039092169182179055808252600a60208181528484208054878652600191909101825285852055918352905220613102565b80549081156131cf57600019918201916131bf8383612d58565b909182549160031b1b1916905555565b634e487b7160e01b600052603160045260246000fd5b9190916000908382526009602052600361320260408420546129a9565b500180546001600160a01b03191690556001600160a01b03168152600a6020526040812080546000198101949192919085116104d957613246612201949584612d58565b90549060031b1c600184018284528060205260408420549161326c816131258589612d58565b84526020526040832055815260408120556131a5565b9181811061328f57505050565b6122019260005260206000209182019101612629565b90600160401b811161051557815481835561220192613282565b81600052600960205260046132d86040600020546129a9565b500180546001600160a01b0319166001600160a01b039283169081179091559061330183612a5a565b167f8c5be1e5ebec7d5bd14f71427d1e84f3dd0314c0f7b2291e5b200ac8c7c3b925600080a4565b6001600160a01b03808316939192841561340d5783613347916134ff565b15613395575b5060207f621b050de0ad08b51d19b48b3e6df75348c4de6bdd93e81b252ca62e28265b1b918360005260078252604060002085600052825280604060002055604051908152a3565b82600052600960205260056133ae6040600020546129a9565b500191825491600160401b831015610515576133f3837f621b050de0ad08b51d19b48b3e6df75348c4de6bdd93e81b252ca62e28265b1b956001602096018155612d58565b819291549060031b9188831b921b1916179055915061334d565b60405162461bcd60e51b815260206004820152602c60248201527f43544d5257413030313a20617070726f76652076616c756520746f207468652060448201526b7a65726f206164647265737360a01b6064820152608490fd5b60008181526020600981526040926005613483858520546129a9565b500193845491845b8381106134c15750505050825491808455826134a8575b50505050565b6134b89381522090810190612629565b388080806134a2565b806134cf6134fa9289612d58565b90548489526007885285892060039290921b1c6001600160a01b031688528652838720879055612351565b61348b565b600090828252600960209080825260409061351c828620546129a9565b509260058094015496865b88811061353a5750505050505050905090565b8188528383526135518187611e0d888c20546129a9565b905460039190911b1c6001600160a01b039081169088161461357b5761357690612351565b613527565b505050505050505050600190565b1561359057565b60405162461bcd60e51b815260206004820152602960248201527f43544d5257413030313a207472616e736665722066726f6d20696e76616c6964604482015268081d1bdad95b88125160ba1b6064820152608490fd5b156135ee57565b60405162461bcd60e51b815260206004820152602760248201527f43544d5257413030313a207472616e7366657220746f20696e76616c696420746044820152661bdad95b88125160ca1b6064820152608490fd5b1561364a57565b60405162461bcd60e51b815260206004820152602c60248201527f43544d5257413030313a20696e73756666696369656e742062616c616e63652060448201526b3337b9103a3930b739b332b960a11b6064820152608490fd5b90916136b26110d583612d7d565b6136be61146d84612d7d565b8160005260096020526136d56040600020546129a9565b50928060005260096020526136ee6040600020546129a9565b50936137008360028301541015613643565b600181015460018601548103613a305760038201546001600160a01b03161580613a28575b80613a18575b613935575b5061373f836002830154612d70565b600282015560028501613753848254612b18565b905581847f0b2aac84f3ec956911fd78eae5311062972ff949f38412e8da39069d9f068cc66020604051878152a3600381810154950154600190910154946001600160a01b039182169116158061392d575b8061391c575b1561384e57506137d281856137e896600052600e6020526001612fbd6040600020546120ff565b604051926137df84611f97565b60008452613e16565b156137ef57565b60405162461bcd60e51b815260206004820152603160248201527f43544d5257413030313a207472616e736665722072656a65637465642062792060448201527021aa26a92ba0981818a932b1b2b4bb32b960791b6064820152608490fd5b1580613914575b80613904575b61386a575b6137e893506137d2565b83600052600e60205260016138836040600020546120ff565b50018054600019810191908211612360576137e8956138a56138ff9383612d58565b90549060031b1c81600052600c602052604060002087600052602052604060002054906138d6816131258487612d58565b6000928352600c60209081526040808520928552919052808320919091558682528120556131a5565b613860565b5061390f83856142d9565b61385b565b508015613855565b5061392782866142d9565b156137ab565b5083156137a5565b61393e816142b1565b6118ed5760405161394e81611f97565b600081526040519061395f82611f61565b82825260208201908152600d549183600052600e60205282604060002055600160401b92838110156105155780600161399b9201600d556120ff565b61287c576001915181550190518051926001600160401b038411610515578311610515576020906139d184845481865585613282565b0190600052602060002060005b838110613a04575050505060008060008051602061433b8339815191528180a438613730565b6001906020845194019381840155016139de565b50613a22816142b1565b1561372b565b508415613725565b60405162461bcd60e51b815260206004820152603060248201527f43544d5257413030313a207472616e7366657220746f20746f6b656e2077697460448201526f1a08191a5999995c995b9d081cdb1bdd60821b6064820152608490fd5b919091613a9a82612a5a565b6001600160a01b039190828216908316819003613d72578285168015613d1d578491613ac583612a96565b96613acf846129e4565b508115948580613d15575b80613d05575b613be8575b613b5c91613b57868093816000809c82825260096020526004613b0b60408420546129a9565b500180546001600160a01b0319169055613b2483612a5a565b167f8c5be1e5ebec7d5bd14f71427d1e84f3dd0314c0f7b2291e5b200ac8c7c3b9258280a4613b5282613467565b6131e5565b61313e565b7fddf252ad1be2c89b69c2b068fc378daa952ba7f163c4a11628f55a4df523b3ef8580a480613be0575b80613bcf575b15613bca5782612201938252600e60205260406001613bad828520546120ff565b5001928354928152600c6020528181208582526020522055613102565b505050565b50613bda82846142d9565b15613b8c565b508115613b86565b9091929350613bf6886142b1565b6118ed57604051613c0681611f97565b600090818152604051613c1881611f61565b8a8152602091828201908152600d54928c8552600e8152836040862055600160401b92838510156117ab57613c54600195868101600d556120ff565b9190916130ee579085915181550191518051936001600160401b0385116118c55784116117ab57918184928f96948f9c9b9a999896613c9890855481875586613282565b0191855280852090855b848110613cd957505050505050868093613b5c9593838060008051602061433b83398151915281613b5797a4935050509150613ae5565b9085975083819496939597999a9b9c9d50519501948185015501918e9593918e9b9a9998979593613ca2565b50613d0f896142b1565b15613ae0565b508415613ada565b60405162461bcd60e51b815260206004820152602760248201527f43544d5257413030313a207472616e7366657220746f20746865207a65726f206044820152666164647265737360c81b6064820152608490fd5b60405162461bcd60e51b815260206004820152602660248201527f43544d5257413030313a207472616e736665722066726f6d20696e76616c69646044820152651037bbb732b960d11b6064820152608490fd5b90816020910312611e9557516001600160e01b031981168103611e955790565b3d15613e11573d90613df782611fd3565b91613e056040519384611fb2565b82523d6000602084013e565b606090565b929092613e2284612a5a565b803b63ffffffff1615613f65576040516301ffc9a760e01b8152633abe4f5560e21b6004820181905295602095926001600160a01b0316918681602481865afa8091600091613f2f575b5090613e88575050505050505050613e82613de6565b50600190565b15613f235760008694613ec7604051978896879586948d865233600487015260248601526044850152606484015260a0608484015260a4830190611ebd565b03925af1918215613f1757600092613eea575b50506001600160e01b0319161490565b613f099250803d10613f10575b613f018183611fb2565b810190613dc6565b3880613eda565b503d613ef7565b6040513d6000823e3d90fd5b50505050505050600190565b8881813d8311613f5e575b613f448183611fb2565b81010312610d925751908115158203610273575038613e6c565b503d613f3a565b5050505050600190565b9192813b63ffffffff161561241057602091613fc7916000604051958680958194630a85bd0160e11b9a8b845233600485015260018060a01b0380951660248501526044840152608060648401526084830190611ebd565b0393165af16000918161405d575b5061404f57613fe2613de6565b8051908161404a5760405162461bcd60e51b815260206004820152603260248201527f4552433732313a207472616e7366657220746f206e6f6e20455243373231526560448201527131b2b4bb32b91034b6b83632b6b2b73a32b960711b6064820152608490fd5b602001fd5b6001600160e01b0319161490565b61407691925060203d8111613f1057613f018183611fb2565b9038613fd5565b9060405191826140996020820192602084526040830190611ebd565b03926140ad601f1994858101835282611fb2565b519020916140db60405191826140cf6020820195602087526040830190611ebd565b03908101835282611fb2565b5190201490565b9081516140ee81611fd3565b906140fc6040519283611fb2565b80825261410b601f1991611fd3565b01602090368284013760005b84518110156141be5761412a8186612b25565b5190604160f892831c1015806141a7575b15614180578261414b8288612b25565b51831c019160ff83116123605761417b92901b6001600160f81b03191660001a6141758286612b25565b53612351565b614117565b61417b91506001600160f81b03196141988288612b25565b511660001a6141758286612b25565b50605a6141b48288612b25565b51831c111561413b565b5090925050565b906141d26105f782612d7d565b6141db81612a5a565b916141e582612a96565b926001600160a01b0391821690821681811493909290841561426f575b50508215614246575b8215614218575050905090565b6040925060ff936000928352600f602052838320908352602052828220908252602052205416803880612409565b915080600052600a60205260026040600020018260005260205260ff604060002054169161420b565b82945061427b90612d25565b1614913880614202565b61428e816142b1565b156142ab57600052600e6020526001612a086040600020546120ff565b50600090565b600d54151590816142c0575090565b809150600052600e602052612da56040600020546120ff565b906000828152600e60205260016142f360408320546120ff565b500190815415159384614307575050505090565b614329939450906040918152600c602052818120858252602052205490612d58565b90549060031b1c143880808061258856fee4f48c240d3b994948aa54f3e2f5fca59263dfe1d52b6e4cf39a5d249b5ccb65a26469706673582212204d99ca4b418c7334e7d5b97b2d556649bc6672b1178eb1c1eac10ec81779643564736f6c63430008140033",
  "linkReferences": {},
  "deployedLinkReferences": {}
}