{
  "_format": "hh-sol-artifact-1",
  "contractName": "CTMRWA001SlotApprovable",
  "sourceName": "contracts/CTMRWA001SlotApprovable.sol",
  "abi": [
    {
      "inputs": [
        {
          "internalType": "string",
          "name": "name_",
          "type": "string"
        },
        {
          "internalType": "string",
          "name": "symbol_",
          "type": "string"
        },
        {
          "internalType": "uint8",
          "name": "decimals_",
          "type": "uint8"
        },
        {
          "internalType": "address",
          "name": "_ctmRwa001XChain",
          "type": "address"
        }
      ],
      "stateMutability": "nonpayable",
      "type": "constructor"
    },
    {
      "anonymous": false,
      "inputs": [
        {
          "indexed": true,
          "internalType": "address",
          "name": "_owner",
          "type": "address"
        },
        {
          "indexed": true,
          "internalType": "address",
          "name": "_approved",
          "type": "address"
        },
        {
          "indexed": true,
          "internalType": "uint256",
          "name": "_tokenId",
          "type": "uint256"
        }
      ],
      "name": "Approval",
      "type": "event"
    },
    {
      "anonymous": false,
      "inputs": [
        {
          "indexed": true,
          "internalType": "address",
          "name": "_owner",
          "type": "address"
        },
        {
          "indexed": true,
          "internalType": "address",
          "name": "_operator",
          "type": "address"
        },
        {
          "indexed": false,
          "internalType": "bool",
          "name": "_approved",
          "type": "bool"
        }
      ],
      "name": "ApprovalForAll",
      "type": "event"
    },
    {
      "anonymous": false,
      "inputs": [
        {
          "indexed": true,
          "internalType": "address",
          "name": "_owner",
          "type": "address"
        },
        {
          "indexed": true,
          "internalType": "uint256",
          "name": "_slot",
          "type": "uint256"
        },
        {
          "indexed": true,
          "internalType": "address",
          "name": "_operator",
          "type": "address"
        },
        {
          "indexed": false,
          "internalType": "bool",
          "name": "_approved",
          "type": "bool"
        }
      ],
      "name": "ApprovalForSlot",
      "type": "event"
    },
    {
      "anonymous": false,
      "inputs": [
        {
          "indexed": true,
          "internalType": "uint256",
          "name": "_tokenId",
          "type": "uint256"
        },
        {
          "indexed": true,
          "internalType": "address",
          "name": "_operator",
          "type": "address"
        },
        {
          "indexed": false,
          "internalType": "uint256",
          "name": "_value",
          "type": "uint256"
        }
      ],
      "name": "ApprovalValue",
      "type": "event"
    },
    {
      "anonymous": false,
      "inputs": [
        {
          "indexed": true,
          "internalType": "address",
          "name": "metadataDescriptor",
          "type": "address"
        }
      ],
      "name": "SetMetadataDescriptor",
      "type": "event"
    },
    {
      "anonymous": false,
      "inputs": [
        {
          "indexed": true,
          "internalType": "uint256",
          "name": "_tokenId",
          "type": "uint256"
        },
        {
          "indexed": true,
          "internalType": "uint256",
          "name": "_oldSlot",
          "type": "uint256"
        },
        {
          "indexed": true,
          "internalType": "uint256",
          "name": "_newSlot",
          "type": "uint256"
        }
      ],
      "name": "SlotChanged",
      "type": "event"
    },
    {
      "anonymous": false,
      "inputs": [
        {
          "indexed": true,
          "internalType": "address",
          "name": "_from",
          "type": "address"
        },
        {
          "indexed": true,
          "internalType": "address",
          "name": "_to",
          "type": "address"
        },
        {
          "indexed": true,
          "internalType": "uint256",
          "name": "_tokenId",
          "type": "uint256"
        }
      ],
      "name": "Transfer",
      "type": "event"
    },
    {
      "anonymous": false,
      "inputs": [
        {
          "indexed": true,
          "internalType": "uint256",
          "name": "_fromTokenId",
          "type": "uint256"
        },
        {
          "indexed": true,
          "internalType": "uint256",
          "name": "_toTokenId",
          "type": "uint256"
        },
        {
          "indexed": false,
          "internalType": "uint256",
          "name": "_value",
          "type": "uint256"
        }
      ],
      "name": "TransferValue",
      "type": "event"
    },
    {
      "inputs": [],
      "name": "ID",
      "outputs": [
        {
          "internalType": "uint256",
          "name": "",
          "type": "uint256"
        }
      ],
      "stateMutability": "view",
      "type": "function"
    },
    {
      "inputs": [
        {
          "internalType": "address",
          "name": "_admin",
          "type": "address"
        },
        {
          "internalType": "string[]",
          "name": "_chainIdsStr",
          "type": "string[]"
        },
        {
          "internalType": "string[]",
          "name": "_contractAddrsStr",
          "type": "string[]"
        }
      ],
      "name": "addXTokenInfo",
      "outputs": [
        {
          "internalType": "bool",
          "name": "",
          "type": "bool"
        }
      ],
      "stateMutability": "nonpayable",
      "type": "function"
    },
    {
      "inputs": [],
      "name": "admin",
      "outputs": [
        {
          "internalType": "address",
          "name": "",
          "type": "address"
        }
      ],
      "stateMutability": "view",
      "type": "function"
    },
    {
      "inputs": [
        {
          "internalType": "uint256",
          "name": "tokenId_",
          "type": "uint256"
        },
        {
          "internalType": "address",
          "name": "operator_",
          "type": "address"
        }
      ],
      "name": "allowance",
      "outputs": [
        {
          "internalType": "uint256",
          "name": "",
          "type": "uint256"
        }
      ],
      "stateMutability": "view",
      "type": "function"
    },
    {
      "inputs": [
        {
          "internalType": "address",
          "name": "to_",
          "type": "address"
        },
        {
          "internalType": "uint256",
          "name": "tokenId_",
          "type": "uint256"
        }
      ],
      "name": "approve",
      "outputs": [],
      "stateMutability": "payable",
      "type": "function"
    },
    {
      "inputs": [
        {
          "internalType": "uint256",
          "name": "tokenId_",
          "type": "uint256"
        },
        {
          "internalType": "address",
          "name": "to_",
          "type": "address"
        },
        {
          "internalType": "uint256",
          "name": "value_",
          "type": "uint256"
        }
      ],
      "name": "approve",
      "outputs": [],
      "stateMutability": "payable",
      "type": "function"
    },
    {
      "inputs": [
        {
          "internalType": "address",
          "name": "to_",
          "type": "address"
        },
        {
          "internalType": "uint256",
          "name": "tokenId_",
          "type": "uint256"
        }
      ],
      "name": "approveFromX",
      "outputs": [],
      "stateMutability": "nonpayable",
      "type": "function"
    },
    {
      "inputs": [
        {
          "internalType": "uint256",
          "name": "nextID",
          "type": "uint256"
        },
        {
          "internalType": "address",
          "name": "_admin",
          "type": "address"
        }
      ],
      "name": "attachId",
      "outputs": [
        {
          "internalType": "bool",
          "name": "",
          "type": "bool"
        }
      ],
      "stateMutability": "nonpayable",
      "type": "function"
    },
    {
      "inputs": [
        {
          "internalType": "address",
          "name": "owner_",
          "type": "address"
        }
      ],
      "name": "balanceOf",
      "outputs": [
        {
          "internalType": "uint256",
          "name": "balance",
          "type": "uint256"
        }
      ],
      "stateMutability": "view",
      "type": "function"
    },
    {
      "inputs": [
        {
          "internalType": "uint256",
          "name": "tokenId_",
          "type": "uint256"
        }
      ],
      "name": "balanceOf",
      "outputs": [
        {
          "internalType": "uint256",
          "name": "",
          "type": "uint256"
        }
      ],
      "stateMutability": "view",
      "type": "function"
    },
    {
      "inputs": [
        {
          "internalType": "uint256",
          "name": "fromTokenId_",
          "type": "uint256"
        },
        {
          "internalType": "uint256",
          "name": "value_",
          "type": "uint256"
        }
      ],
      "name": "burnValueX",
      "outputs": [
        {
          "internalType": "bool",
          "name": "",
          "type": "bool"
        }
      ],
      "stateMutability": "nonpayable",
      "type": "function"
    },
    {
      "inputs": [
        {
          "internalType": "address",
          "name": "_admin",
          "type": "address"
        }
      ],
      "name": "changeAdmin",
      "outputs": [
        {
          "internalType": "bool",
          "name": "",
          "type": "bool"
        }
      ],
      "stateMutability": "nonpayable",
      "type": "function"
    },
    {
      "inputs": [
        {
          "internalType": "address",
          "name": "_admin",
          "type": "address"
        }
      ],
      "name": "changeAdminX",
      "outputs": [
        {
          "internalType": "bool",
          "name": "",
          "type": "bool"
        }
      ],
      "stateMutability": "nonpayable",
      "type": "function"
    },
    {
      "inputs": [
        {
          "internalType": "string",
          "name": "_otherChainIdStr",
          "type": "string"
        },
        {
          "internalType": "string",
          "name": "_otherContractStr",
          "type": "string"
        }
      ],
      "name": "checkTokenCompatibility",
      "outputs": [
        {
          "internalType": "bool",
          "name": "",
          "type": "bool"
        }
      ],
      "stateMutability": "view",
      "type": "function"
    },
    {
      "inputs": [
        {
          "internalType": "uint256",
          "name": "tokenId_",
          "type": "uint256"
        }
      ],
      "name": "clearApprovedValues",
      "outputs": [],
      "stateMutability": "nonpayable",
      "type": "function"
    },
    {
      "inputs": [],
      "name": "contractURI",
      "outputs": [
        {
          "internalType": "string",
          "name": "",
          "type": "string"
        }
      ],
      "stateMutability": "view",
      "type": "function"
    },
    {
      "inputs": [],
      "name": "ctmRwa001XChain",
      "outputs": [
        {
          "internalType": "address",
          "name": "",
          "type": "address"
        }
      ],
      "stateMutability": "view",
      "type": "function"
    },
    {
      "inputs": [
        {
          "internalType": "uint256",
          "name": "tokenId_",
          "type": "uint256"
        }
      ],
      "name": "getApproved",
      "outputs": [
        {
          "internalType": "address",
          "name": "",
          "type": "address"
        }
      ],
      "stateMutability": "view",
      "type": "function"
    },
    {
      "inputs": [
        {
          "internalType": "string",
          "name": "_chainIdStr",
          "type": "string"
        }
      ],
      "name": "getTokenContract",
      "outputs": [
        {
          "internalType": "string",
          "name": "",
          "type": "string"
        }
      ],
      "stateMutability": "view",
      "type": "function"
    },
    {
      "inputs": [
        {
          "internalType": "uint256",
          "name": "tokenId_",
          "type": "uint256"
        }
      ],
      "name": "getTokenInfo",
      "outputs": [
        {
          "internalType": "uint256",
          "name": "",
          "type": "uint256"
        },
        {
          "internalType": "uint256",
          "name": "",
          "type": "uint256"
        },
        {
          "internalType": "address",
          "name": "",
          "type": "address"
        },
        {
          "internalType": "uint256",
          "name": "",
          "type": "uint256"
        }
      ],
      "stateMutability": "view",
      "type": "function"
    },
    {
      "inputs": [
        {
          "internalType": "uint256",
          "name": "tokenId_",
          "type": "uint256"
        }
      ],
      "name": "idOf",
      "outputs": [
        {
          "internalType": "uint256",
          "name": "",
          "type": "uint256"
        }
      ],
      "stateMutability": "view",
      "type": "function"
    },
    {
      "inputs": [
        {
          "internalType": "address",
          "name": "owner_",
          "type": "address"
        },
        {
          "internalType": "address",
          "name": "operator_",
          "type": "address"
        }
      ],
      "name": "isApprovedForAll",
      "outputs": [
        {
          "internalType": "bool",
          "name": "",
          "type": "bool"
        }
      ],
      "stateMutability": "view",
      "type": "function"
    },
    {
      "inputs": [
        {
          "internalType": "address",
          "name": "owner_",
          "type": "address"
        },
        {
          "internalType": "uint256",
          "name": "slot_",
          "type": "uint256"
        },
        {
          "internalType": "address",
          "name": "operator_",
          "type": "address"
        }
      ],
      "name": "isApprovedForSlot",
      "outputs": [
        {
          "internalType": "bool",
          "name": "",
          "type": "bool"
        }
      ],
      "stateMutability": "view",
      "type": "function"
    },
    {
      "inputs": [
        {
          "internalType": "address",
          "name": "operator_",
          "type": "address"
        },
        {
          "internalType": "uint256",
          "name": "tokenId_",
          "type": "uint256"
        }
      ],
      "name": "isApprovedOrOwner",
      "outputs": [
        {
          "internalType": "bool",
          "name": "",
          "type": "bool"
        }
      ],
      "stateMutability": "view",
      "type": "function"
    },
    {
      "inputs": [],
      "name": "metadataDescriptor",
      "outputs": [
        {
          "internalType": "contract ICTMRWA001MetadataDescriptor",
          "name": "",
          "type": "address"
        }
      ],
      "stateMutability": "view",
      "type": "function"
    },
    {
      "inputs": [
        {
          "internalType": "address",
          "name": "to_",
          "type": "address"
        },
        {
          "internalType": "uint256",
          "name": "tokenId_",
          "type": "uint256"
        },
        {
          "internalType": "uint256",
          "name": "slot_",
          "type": "uint256"
        },
        {
          "internalType": "uint256",
          "name": "value_",
          "type": "uint256"
        }
      ],
      "name": "mintFromX",
      "outputs": [],
      "stateMutability": "nonpayable",
      "type": "function"
    },
    {
      "inputs": [
        {
          "internalType": "address",
          "name": "to_",
          "type": "address"
        },
        {
          "internalType": "uint256",
          "name": "slot_",
          "type": "uint256"
        },
        {
          "internalType": "uint256",
          "name": "value_",
          "type": "uint256"
        }
      ],
      "name": "mintFromX",
      "outputs": [
        {
          "internalType": "uint256",
          "name": "tokenId",
          "type": "uint256"
        }
      ],
      "stateMutability": "nonpayable",
      "type": "function"
    },
    {
      "inputs": [
        {
          "internalType": "uint256",
          "name": "toTokenId_",
          "type": "uint256"
        },
        {
          "internalType": "uint256",
          "name": "slot_",
          "type": "uint256"
        },
        {
          "internalType": "uint256",
          "name": "value_",
          "type": "uint256"
        }
      ],
      "name": "mintValueX",
      "outputs": [
        {
          "internalType": "bool",
          "name": "",
          "type": "bool"
        }
      ],
      "stateMutability": "nonpayable",
      "type": "function"
    },
    {
      "inputs": [],
      "name": "name",
      "outputs": [
        {
          "internalType": "string",
          "name": "",
          "type": "string"
        }
      ],
      "stateMutability": "view",
      "type": "function"
    },
    {
      "inputs": [
        {
          "internalType": "uint256",
          "name": "tokenId_",
          "type": "uint256"
        }
      ],
      "name": "ownerOf",
      "outputs": [
        {
          "internalType": "address",
          "name": "owner_",
          "type": "address"
        }
      ],
      "stateMutability": "view",
      "type": "function"
    },
    {
      "inputs": [
        {
          "internalType": "address",
          "name": "from_",
          "type": "address"
        },
        {
          "internalType": "uint256",
          "name": "tokenId_",
          "type": "uint256"
        }
      ],
      "name": "removeTokenFromOwnerEnumeration",
      "outputs": [],
      "stateMutability": "nonpayable",
      "type": "function"
    },
    {
      "inputs": [
        {
          "internalType": "address",
          "name": "from_",
          "type": "address"
        },
        {
          "internalType": "address",
          "name": "to_",
          "type": "address"
        },
        {
          "internalType": "uint256",
          "name": "tokenId_",
          "type": "uint256"
        }
      ],
      "name": "safeTransferFrom",
      "outputs": [],
      "stateMutability": "payable",
      "type": "function"
    },
    {
      "inputs": [
        {
          "internalType": "address",
          "name": "from_",
          "type": "address"
        },
        {
          "internalType": "address",
          "name": "to_",
          "type": "address"
        },
        {
          "internalType": "uint256",
          "name": "tokenId_",
          "type": "uint256"
        },
        {
          "internalType": "bytes",
          "name": "data_",
          "type": "bytes"
        }
      ],
      "name": "safeTransferFrom",
      "outputs": [],
      "stateMutability": "payable",
      "type": "function"
    },
    {
      "inputs": [
        {
          "internalType": "address",
          "name": "operator_",
          "type": "address"
        },
        {
          "internalType": "bool",
          "name": "approved_",
          "type": "bool"
        }
      ],
      "name": "setApprovalForAll",
      "outputs": [],
      "stateMutability": "nonpayable",
      "type": "function"
    },
    {
      "inputs": [
        {
          "internalType": "address",
          "name": "owner_",
          "type": "address"
        },
        {
          "internalType": "uint256",
          "name": "slot_",
          "type": "uint256"
        },
        {
          "internalType": "address",
          "name": "operator_",
          "type": "address"
        },
        {
          "internalType": "bool",
          "name": "approved_",
          "type": "bool"
        }
      ],
      "name": "setApprovalForSlot",
      "outputs": [],
      "stateMutability": "payable",
      "type": "function"
    },
    {
      "inputs": [
        {
          "internalType": "uint256",
          "name": "index_",
          "type": "uint256"
        }
      ],
      "name": "slotByIndex",
      "outputs": [
        {
          "internalType": "uint256",
          "name": "",
          "type": "uint256"
        }
      ],
      "stateMutability": "view",
      "type": "function"
    },
    {
      "inputs": [],
      "name": "slotCount",
      "outputs": [
        {
          "internalType": "uint256",
          "name": "",
          "type": "uint256"
        }
      ],
      "stateMutability": "view",
      "type": "function"
    },
    {
      "inputs": [
        {
          "internalType": "uint256",
          "name": "tokenId_",
          "type": "uint256"
        }
      ],
      "name": "slotOf",
      "outputs": [
        {
          "internalType": "uint256",
          "name": "",
          "type": "uint256"
        }
      ],
      "stateMutability": "view",
      "type": "function"
    },
    {
      "inputs": [
        {
          "internalType": "uint256",
          "name": "slot_",
          "type": "uint256"
        }
      ],
      "name": "slotURI",
      "outputs": [
        {
          "internalType": "string",
          "name": "",
          "type": "string"
        }
      ],
      "stateMutability": "view",
      "type": "function"
    },
    {
      "inputs": [
        {
          "internalType": "address",
          "name": "operator_",
          "type": "address"
        },
        {
          "internalType": "uint256",
          "name": "tokenId_",
          "type": "uint256"
        },
        {
          "internalType": "uint256",
          "name": "value_",
          "type": "uint256"
        }
      ],
      "name": "spendAllowance",
      "outputs": [],
      "stateMutability": "nonpayable",
      "type": "function"
    },
    {
      "inputs": [
        {
          "internalType": "string",
          "name": "a",
          "type": "string"
        },
        {
          "internalType": "string",
          "name": "b",
          "type": "string"
        }
      ],
      "name": "stringsEqual",
      "outputs": [
        {
          "internalType": "bool",
          "name": "",
          "type": "bool"
        }
      ],
      "stateMutability": "pure",
      "type": "function"
    },
    {
      "inputs": [
        {
          "internalType": "bytes4",
          "name": "interfaceId",
          "type": "bytes4"
        }
      ],
      "name": "supportsInterface",
      "outputs": [
        {
          "internalType": "bool",
          "name": "",
          "type": "bool"
        }
      ],
      "stateMutability": "view",
      "type": "function"
    },
    {
      "inputs": [],
      "name": "symbol",
      "outputs": [
        {
          "internalType": "string",
          "name": "",
          "type": "string"
        }
      ],
      "stateMutability": "view",
      "type": "function"
    },
    {
      "inputs": [
        {
          "internalType": "uint256",
          "name": "index_",
          "type": "uint256"
        }
      ],
      "name": "tokenByIndex",
      "outputs": [
        {
          "internalType": "uint256",
          "name": "",
          "type": "uint256"
        }
      ],
      "stateMutability": "view",
      "type": "function"
    },
    {
      "inputs": [
        {
          "internalType": "uint256",
          "name": "",
          "type": "uint256"
        }
      ],
      "name": "tokenContract",
      "outputs": [
        {
          "internalType": "string",
          "name": "chainIdStr",
          "type": "string"
        },
        {
          "internalType": "string",
          "name": "contractStr",
          "type": "string"
        }
      ],
      "stateMutability": "view",
      "type": "function"
    },
    {
      "inputs": [
        {
          "internalType": "uint256",
          "name": "slot_",
          "type": "uint256"
        },
        {
          "internalType": "uint256",
          "name": "index_",
          "type": "uint256"
        }
      ],
      "name": "tokenInSlotByIndex",
      "outputs": [
        {
          "internalType": "uint256",
          "name": "",
          "type": "uint256"
        }
      ],
      "stateMutability": "view",
      "type": "function"
    },
    {
      "inputs": [
        {
          "internalType": "address",
          "name": "owner_",
          "type": "address"
        },
        {
          "internalType": "uint256",
          "name": "index_",
          "type": "uint256"
        }
      ],
      "name": "tokenOfOwnerByIndex",
      "outputs": [
        {
          "internalType": "uint256",
          "name": "",
          "type": "uint256"
        }
      ],
      "stateMutability": "view",
      "type": "function"
    },
    {
      "inputs": [
        {
          "internalType": "uint256",
          "name": "slot_",
          "type": "uint256"
        }
      ],
      "name": "tokenSupplyInSlot",
      "outputs": [
        {
          "internalType": "uint256",
          "name": "",
          "type": "uint256"
        }
      ],
      "stateMutability": "view",
      "type": "function"
    },
    {
      "inputs": [
        {
          "internalType": "uint256",
          "name": "tokenId_",
          "type": "uint256"
        }
      ],
      "name": "tokenURI",
      "outputs": [
        {
          "internalType": "string",
          "name": "",
          "type": "string"
        }
      ],
      "stateMutability": "view",
      "type": "function"
    },
    {
      "inputs": [],
      "name": "totalSupply",
      "outputs": [
        {
          "internalType": "uint256",
          "name": "",
          "type": "uint256"
        }
      ],
      "stateMutability": "view",
      "type": "function"
    },
    {
      "inputs": [
        {
          "internalType": "uint256",
          "name": "fromTokenId_",
          "type": "uint256"
        },
        {
          "internalType": "address",
          "name": "to_",
          "type": "address"
        },
        {
          "internalType": "uint256",
          "name": "value_",
          "type": "uint256"
        }
      ],
      "name": "transferFrom",
      "outputs": [
        {
          "internalType": "uint256",
          "name": "newTokenId",
          "type": "uint256"
        }
      ],
      "stateMutability": "payable",
      "type": "function"
    },
    {
      "inputs": [
        {
          "internalType": "address",
          "name": "from_",
          "type": "address"
        },
        {
          "internalType": "address",
          "name": "to_",
          "type": "address"
        },
        {
          "internalType": "uint256",
          "name": "tokenId_",
          "type": "uint256"
        }
      ],
      "name": "transferFrom",
      "outputs": [],
      "stateMutability": "payable",
      "type": "function"
    },
    {
      "inputs": [
        {
          "internalType": "uint256",
          "name": "fromTokenId_",
          "type": "uint256"
        },
        {
          "internalType": "uint256",
          "name": "toTokenId_",
          "type": "uint256"
        },
        {
          "internalType": "uint256",
          "name": "value_",
          "type": "uint256"
        }
      ],
      "name": "transferFrom",
      "outputs": [],
      "stateMutability": "payable",
      "type": "function"
    },
    {
      "inputs": [],
      "name": "valueDecimals",
      "outputs": [
        {
          "internalType": "uint8",
          "name": "",
          "type": "uint8"
        }
      ],
      "stateMutability": "view",
      "type": "function"
    }
  ],
  "bytecode": "0x60806040908082523462000718576200518280380380916200002282856200071d565b8339810191608082840312620007185781516001600160401b0392908381116200071857846200005491830162000782565b602094858301519085821162000718576200007191840162000782565b91838101519160ff918284168094036200071857606001516001600160a01b03811690819003620007185760018060a01b03196001943382875416178655856007558351968988116200070257878b98600496620000d08854620007cf565b90601f9e8f928381116200069b575b50508b918311600114620006335760009262000627575b5050600019600383901b1c191690881b1785555b80519a8a8c1162000612576005918c620001258454620007cf565b838111620005c7575b505089918d1160011462000559579b8091620002359b9c9d6000926200054d575b5050600019600383901b1c191690881b1790555b60ff19600654161760065560025416176002554693846000957a184f03e93ff9f4daa797ed6e38ed64bf6a1f010000000000000000808210156200053f575b506d04ee2d6d415b85acef81000000008083101562000530575b50662386f26fc100008083101562000520575b506305f5e1008083101562000510575b506127108083101562000501575b506064821015620004f0575b600a80921015620004e6575b85602181890198620002178a62000741565b99620002268d519b8c6200071d565b808b52601f199b8c9162000741565b0136878c0137890101905b620004b5575b5050503087519860608a01908a821090821117620004a0578852602a8952818901883682378951156200048b576030905388518510156200047657607860218a015360295b858111620004065750620003c457875195620002c3620002ab8862000741565b97620002ba8a51998a6200071d565b80895262000741565b0136828801376000845b620002ef575b87620002e088886200087a565b50516144e9908162000c998239f35b8851811015620003be5762000305818a6200080c565b51604160f891821c101580620003a4575b1562000378578262000329838c6200080c565b51821c0185811162000363576200035c92911b6001600160f81b03191660001a62000355828a6200080c565b5362000834565b84620002cd565b601185634e487b7160e01b6000525260246000fd5b506200035c906001600160f81b031962000393828c6200080c565b511660001a62000355828a6200080c565b50605a620003b3838c6200080c565b51821c111562000316565b620002d3565b865162461bcd60e51b815291820181905260248201527f537472696e67733a20686578206c656e67746820696e73756666696369656e74604482015260649150fd5b90600f8116601081101562000461576f181899199a1a9b1b9c1cb0b131b232b360811b901a62000437838c6200080c565b53831c9080156200044c57600019016200028b565b601184634e487b7160e01b6000525260246000fd5b603285634e487b7160e01b6000525260246000fd5b603283634e487b7160e01b6000525260246000fd5b603284634e487b7160e01b6000525260246000fd5b604184634e487b7160e01b6000525260246000fd5b600019019082906f181899199a1a9b1b9c1cb0b131b232b360811b8282061a83530490868262000240575062000246565b9585019562000205565b9590606460029104910195620001f9565b849197920491019538620001ed565b60089197920491019538620001df565b60109197920491019538620001cf565b839197920491019538620001bc565b8997508104915038620001a2565b0151905038806200014f565b90601f198d1691836000528a6000209260005b818110620005b15750918a9391620002359d9e9f80941062000597575b505050811b01905562000163565b015160001960f88460031b161c1916905538808062000589565b828401518555938b0193928c01928c016200056c565b84600052838c600020918d828501881c8401941062000608575b01851c01908a905b828110620005fb57508e91506200012e565b60008155018a90620005e9565b92508192620005e1565b604186634e487b7160e01b6000525260246000fd5b015190503880620000f6565b60008981528c81208c9550929190601f198516908e5b82821062000683575050841162000669575b505050811b0185556200010a565b015160001960f88460031b161c191690553880806200065b565b8385015186558e979095019493840193018e62000649565b90929193506000918a83528383209181870160051c8301948710620006f8575b819492879694928f920160051c01925b838110620006de5750508d9150620000df565b829496508092919395505501918f92918c869593620006cb565b93508193620006bb565b634e487b7160e01b600052604160045260246000fd5b600080fd5b601f909101601f19168101906001600160401b038211908210176200070257604052565b6001600160401b0381116200070257601f01601f191660200190565b60005b838110620007715750506000910152565b818101518382015260200162000760565b81601f82011215620007185780516200079b8162000741565b92620007ab60405194856200071d565b818452602082840101116200071857620007cc91602080850191016200075d565b90565b90600182811c9216801562000801575b6020831014620007eb57565b634e487b7160e01b600052602260045260246000fd5b91607f1691620007df565b9081518110156200081e570160200190565b634e487b7160e01b600052603260045260246000fd5b6000198114620008445760010190565b634e487b7160e01b600052601160045260246000fd5b6003548110156200081e57600360005260206000209060011b0190600090565b9060009160038054935b84811062000b3b5750604080516001600160401b039390929183018481118482101762000702576040528252602091828101948552680100000000000000008610156200070257620008dd60019687810184556200085a565b91909162000b2557519081519085821162000702578791620009008254620007cf565b93601f9485811162000ad0575b50869085831160011462000a6657600091908362000a5a575b505060001982871b1c191690831b1781555b019451805194851162000702578493620009538754620007cf565b838111620009fe575b508092851160011462000993575060009362000987575b505082851b92600019911b1c191617905590565b01519150388062000973565b929190879550601f1985168760005284600020946000905b828210620009e45750508511620009c9575b50505050811b01905590565b01519060f884600019921b161c1916905538808080620009bd565b8484015187558a98909601959384019390810190620009ab565b90919293945086600052816000208480880160051c82019284891062000a50575b918a91899897969594930160051c01915b82811062000a405750506200095c565b600081558897508a910162000a30565b9250819262000a1f565b01519050388062000926565b90601f1983169184600052886000209260005b8a82821062000ab9575050908487959493921062000aa0575b505050811b01815562000938565b015160001983891b60f8161c1916905538808062000a92565b8385015186558e9890950194938401930162000a79565b909192809450600052866000208580850160051c82019289861062000b1b575b908c9695949392910160051c01905b81811062000b0e57506200090d565b600081558b950162000aff565b9250819262000af0565b634e487b7160e01b600052600060045260246000fd5b62000b46816200085a565b50604090815190816000825462000b5d81620007cf565b8084529360019180831690811562000c45575060011462000c00575b505062000b89925003826200071d565b81519062000bdc6020918362000ba3848201928362000c6a565b039362000bb9601f19958681018352826200071d565b5190209351918201928262000bcf898662000c6a565b039081018352826200071d565b5190201462000bf65762000bf09062000834565b62000884565b5050505050600090565b90915060005260209283600020916000925b82841062000c2e575050509162000b8992820101388062000b79565b805487850187015286945092850192810162000c12565b935050505062000b899260209160ff191682840152151560051b820101388062000b79565b6040916020825262000c8c81518092816020860152602086860191016200075d565b601f01601f191601019056fe6080604052600436101561001257600080fd5b6000803560e01c8062cd011014611e9957806301ffc9a714611dae57806306fdde0314611d085780630752175414611cd6578063081812fc14611cb7578063095ea7b314611b9557806309c3dd8714611b055780630f485c02146115da57806313d19950146115c057806315c77d84146114fa57806318160ddd146114dc57806323b872dd146114b7578063263f3e7e146114985780632f745c59146113ee578063310ed7f01461137b578063381c4fce1461133f5780633e7e86691461131e578063404b6e9f146112e357806342842e0e146112c0578063430c208114611283578063449d0772146111d357806349178b25146111625780634f6ccce7146110e55780634f8a0f83146110c657806355cd4e0614610f20578063582939e514610edd5780636352211e14610eac57806370a0823114610e8857806378330ea014610e2f578063840f711314610e065780638c7a63ae14610d5e5780638cb0a51114610cba5780638f28397014610c1157806395d89b4114610b40578063968e8a1314610b05578063993bef8d14610a7c5780639c0e9a5d14610a625780639cc7f70814610a43578063a22cb46514610967578063a30fb02014610900578063a6a2d1dd14610887578063b3875b951461085e578063b3cea21714610841578063b88d4fde146107df578063bff2ed711461079c578063c87b56dd1461067c578063dee9f53f14610637578063e345e0bc14610608578063e345f05e146105ae578063e7f0828814610568578063e8a3d4851461030a578063e985e9c5146102b7578063ed08fa80146102995763f851a4401461026e57600080fd5b346102965780600319360112610296576001546040516001600160a01b039091168152602090f35b80fd5b50346102965780600319360112610296576020600e54604051908152f35b50346102965760403660031901126102965760ff60406020926102d8611faa565b6102e0611fd6565b6001600160a01b039182168352600b86528383209116825260020184522054604051911615158152f35b50346102965780600319360112610296576040516103278161205f565b818152600c5482906001600160a01b031680156103b157604051631c97e82760e21b81529250829060049082905afa9081156103a6578261037f9392610383575b50505b604051918291602083526020830190611f85565b0390f35b61039f92503d8091833e610397818361207a565b810190612c18565b3880610368565b6040513d84823e3d90fd5b5050811561054e573091604051606081018181106001600160401b0382111761053857604052602a815260209384820192604036853782511561052457603084538251906001918210156105245790607860218501536029915b8183116104b6575050506104735768636f6e74726163742f60b81b9261046e9261037f9561045f602994604051978561044d8a9751809287808b019101611f62565b86019384015251809386840190611f62565b0103600981018452018261207a565b61036b565b6064846040519062461bcd60e51b825280600483015260248201527f537472696e67733a20686578206c656e67746820696e73756666696369656e746044820152fd5b909192600f81166010811015610510576f181899199a1a9b1b9c1cb0b131b232b360811b901a6104e68587612c83565b5360041c9280156104fc5760001901919061040b565b634e487b7160e01b82526011600452602482fd5b634e487b7160e01b83526032600452602483fd5b634e487b7160e01b81526032600452602490fd5b634e487b7160e01b600052604160045260246000fd5b505061037f60405161055f8161205f565b6000815261036b565b50346102965760403660031901126102965760206105a4610587611fd6565b61059c60018060a01b036002541633146123b4565b600435612419565b6040519015158152f35b50346102965760603660031901126102965760ff60406020926105cf611faa565b6105d7611fc0565b6001600160a01b03918216835260108652838320602435845286528383209116825284522054604051911615158152f35b503461029657604036600319011261029657602061062f610627611fd6565b600435612cec565b604051908152f35b503461029657602036600319011261029657610672604060209260043561066561066082612edb565b612b6c565b8152600a84522054612b07565b5054604051908152f35b503461029657602090816003193601126102965760043561069f61066082612edb565b604051906106ac8261205f565b828252600c546001600160a01b03169184831561072e57505082906024604051809481936344a5a61760e11b835260048301525afa918215610722578092610707575b5050905b61037f604051928284938452830190611f85565b61071b92503d8091833e610397818361207a565b38806106ef565b604051903d90823e3d90fd5b919250926000146107845761074561077e9261261f565b92604051938161075e8693518092868087019101611f62565b820161077282518093868085019101611f62565b0103808452018261207a565b906106f3565b5050506040516107938161205f565b6000815261077e565b503461029657602061062f6107b03661219d565b906107c960018060a09695961b036002541633146123b4565b60075480946107d7826124a0565b600755612f09565b506080366003190112610296576107f4611faa565b6107fc611fd6565b606435916001600160401b03831161083d573660238401121561083d5761083061083a9336906024816004013591016120b6565b9160443591612e01565b80f35b8380fd5b503461029657806003193601126102965760209054604051908152f35b50346102965780600319360112610296576002546040516001600160a01b039091168152602090f35b5034610296576060366003190112610296576108a1611faa565b906001600160401b036024358181116108fc576108c2903690600401612331565b916044359182116102965760206105a485856108e13660048801612331565b916108f760018060a01b036002541633146123b4565b6124d9565b8280fd5b503461029657602036600319011261029657600435906003548210156102965761095961092c83612217565b5061037f610945600161093e8461228b565b930161228b565b604051938493604085526040850190611f85565b908382036020850152611f85565b503461029657604036600319011261029657610981611faa565b602435908115159081830361083d576001600160a01b0316913383146109fe576109cf90338552600b60205260026040862001848652602052604085209060ff801983541691151516179055565b6040519081527f17307eab39ab6107e8899845ad3d59bd9653f200f220920489ca2b5937696c3160203392a380f35b60405162461bcd60e51b815260206004820152601c60248201527f43544d5257413030313a20617070726f766520746f2063616c6c6572000000006044820152606490fd5b503461029657602036600319011261029657602061062f600435612b42565b50346102965760206105a4610a763661210b565b90612a8b565b503461029657602036600319011261029657600435600e54811015610aa6576106726020916121c7565b60405162461bcd60e51b815260206004820152603160248201527f43544d525741303031536c6f74456e756d657261626c653a20736c6f7420696e604482015270646578206f7574206f6620626f756e647360781b6064820152608490fd5b50346102965760403660031901126102965761083a610b22611faa565b610b3760018060a01b036002541633146123b4565b6024359061341d565b50346102965780600319360112610296576040519080600554610b6281612251565b80855291600191808316908115610be75750600114610b8c575b61037f8561036b8187038261207a565b9250600583527f036b6384b5eca791c62761152d0c79bb0604c104a5fb6f4eb0703f3154bb3db05b828410610bcf57505050810160200161036b8261037f610b7c565b80546020858701810191909152909301928101610bb4565b86955061037f9693506020925061036b94915060ff191682840152151560051b8201019293610b7c565b503461029657602036600319011261029657610c2b611faa565b6001546001600160a01b03163303610c6457600180546001600160a01b0319166001600160a01b039092169190911781556020906105a4565b60405162461bcd60e51b815260206004820152602860248201527f43544d5257413030313a205468697320697320616e206f6e6c7941646d696e20604482015267333ab731ba34b7b760c11b6064820152608490fd5b50610cc436611fec565b90610ce56001600160a01b0380610cda86612bb8565b169083161415612c94565b610cef8333614323565b15610cfd5761083a92613487565b60405162461bcd60e51b815260206004820152603360248201527f43544d5257413030313a20617070726f76652063616c6c6572206973206e6f74604482015272081bdddb995c881b9bdc88185c1c1c9bdd9959606a1b6064820152608490fd5b503461029657602080600319360112610e025790608091600435610d8461066082612edb565b808352600a8252610d986040842054612b07565b505492818152600a83526001610de960406002610db782862054612b07565b50015493858152600a8752610dce82822054612b07565b506003858060a01b0391015416958152600a87522054612b07565b5001549260405194855284015260408301526060820152f35b5080fd5b5034610296578060031936011261029657600c546040516001600160a01b039091168152602090f35b50346102965760203660031901126102965760206105a4610e4e611faa565b610e6360018060a01b036002541633146123b4565b60018060a01b03166bffffffffffffffffffffffff60a01b6001541617600155600190565b503461029657602036600319011261029657602061062f610ea7611faa565b612d1d565b5034610296576020366003190112610296576020610ecb600435612bb8565b6040516001600160a01b039091168152f35b50346102965760803660031901126102965761083a610efa611faa565b610f0f60018060a01b036002541633146123b4565b606435906044359060243590612f09565b50608036600319011261029657610f35611faa565b602435610f40611fc0565b60643592831515908185036110c2576001600160a01b0390811692338414801561109f575b1561102a571693848314610fd3577f7bdf71e6625aa496095bf08b60c677cf81c963f402cf258981e3bd7507d3480c91610fc96020928589526010845260408920878a52845260408920888a528452604089209060ff801983541691151516179055565b604051908152a480f35b60405162461bcd60e51b815260206004820152602960248201527f43544d525741303031536c6f74417070726f7661626c653a20617070726f7665604482015268103a379037bbb732b960b91b6064820152608490fd5b60405162461bcd60e51b815260206004820152604160248201527f43544d525741303031536c6f74417070726f7661626c653a2063616c6c65722060448201527f6973206e6f74206f776e6572206e6f7220617070726f76656420666f7220616c6064820152601b60fa1b608482015260a490fd5b50838752600b6020526002604088200133885260205260ff604088205416610f65565b8580fd5b503461029657602036600319011261029657602061062f6004356143e4565b50346102965760203660031901126102965760043560095481101561110f57610672602091612b07565b60405162461bcd60e51b815260206004820152602560248201527f43544d5257413030313a20676c6f62616c20696e646578206f7574206f6620626044820152646f756e647360d81b6064820152608490fd5b5034610296576111c660026111b0604061117b36611f47565b959061119160018060a01b0386541633146123b4565b6111a261119d82612edb565b6136e7565b8152600a6020522054612b07565b50019182546111c1828210156137a1565b612ece565b9055602060405160018152f35b5034610296576111e23661219d565b916111ed8183612cec565b6111f78383614323565b1580611277575b611206578480f35b838110611228576112209361121a91612ece565b91613487565b388080808480f35b60405162461bcd60e51b815260206004820152602160248201527f43544d5257413030313a20696e73756666696369656e7420616c6c6f77616e636044820152606560f81b6064820152608490fd5b506000198114156111fe565b50346102965760403660031901126102965760206105a46112a2611faa565b6112b760018060a01b036002541633146123b4565b60243590614323565b5061083a6112cd36612168565b90604051926112db8461205f565b858452612e01565b50346102965760403660031901126102965761083a611300611faa565b61131560018060a01b036002541633146123b4565b60243590613343565b5034610296578060031936011261029657602060ff60065416604051908152f35b503461029657602036600319011261029657600435906001600160401b0382116102965761037f61036b61137636600486016120ed565b612a1d565b506113853661214e565b90929192303b156108fc5760405163224e83b960e11b81523360048201526024810185905260448101839052838160648183305af180156113e3576113d0575b5061083a9293613802565b926113dd61083a94612016565b926113c5565b6040513d86823e3d90fd5b503461029657604036600319011261029657611408611faa565b9060243561141583612d1d565b8110156114475760406114399260209460018060a01b03168152600b855220612eb6565b90546040519160031b1c8152f35b60405162461bcd60e51b8152602060048201526024808201527f43544d5257413030313a206f776e657220696e646578206f7574206f6620626f604482015263756e647360e01b6064820152608490fd5b503461029657602036600319011261029657602061062f600435612bf4565b5061083a6114c436612168565b916114d76114d28433614323565b612d98565b613bec565b50346102965780600319360112610296576020600954604051908152f35b50346102965760409061153a61150f3661214e565b949161152960018060a09794971b036002541633146123b4565b6111a261153582612edb565b613745565b50906001820154036115555760026111c69101918254612c76565b60405162461bcd60e51b815260206004820152603a60248201527f43544d5257413030313a2044657374696e6174696f6e20736c6f74206973206e60448201527f6f74207468652073616d6520617320736f7572636520736c6f740000000000006064820152608490fd5b50346102965760206105a46115d43661210b565b906141db565b506115e436611fec565b909291303b156108fc5760405163224e83b960e11b81523360048201526024810182905260448101839052838160648183305af180156113e357611af6575b5060075492611631846124a0565b60075561163d82612bf4565b6001600160a01b03861615611aa5578415611a545761165b85612edb565b611a0f576116688161440a565b156118af575b6040519561167b8761205f565b82875260405161168a81612044565b868152602081018381526040820198858a526060830160018060a01b0385168152608084019187835260a08501526009549a8a8852600a6020528b6040892055600160401b8c101561189b576116e760019c8d8101600955612b07565b949094611887578551855551848d0155516002840155516003830180546001600160a01b03199081166001600160a01b03938416179091559151600484018054909316911617905560a09190910151805191600501906001600160401b038311611873576020906117588484613403565b0190855260208520855b838110611857575060208961062f8a828b8f828d8d828e611783828261329c565b6001600160a01b0316837fddf252ad1be2c89b69c2b068fc378daa952ba7f163c4a11628f55a4df523b3ef8180a48082846000805160206144948339815191528280a4828252600a8a526117da6040832054612b07565b505082827f0b2aac84f3ec956911fd78eae5311062972ff949f38412e8da39069d9f068cc68c604051838152a36118118382614432565b61184e57604061184994828452600f8c5261182e828520546121c7565b5001928354928152600d8c528181208582528c522055613260565b613802565b50505050613802565b82516001600160a01b0316818301556020909201918a01611762565b634e487b7160e01b86526041600452602486fd5b634e487b7160e01b89526004899052602489fd5b634e487b7160e01b88526041600452602488fd5b6118b88161440a565b6119b5576040516118c88161205f565b8281526040516118d781612029565b828152602091828201908152600e5492848652600f8152836040872055600160401b928385101561198d57611913600195868101600e556121c7565b9190916119a1579085915181550191518051936001600160401b03851161189b57841161198d57819061194b858554818755866133e0565b0191865280862090865b84811061197c575050505050508082806000805160206144948339815191528180a461166e565b835183820155928101928501611955565b634e487b7160e01b87526041600452602487fd5b634e487b7160e01b88526004889052602488fd5b60405162461bcd60e51b815260206004820152602c60248201527f43544d525741303031536c6f74456e756d657261626c653a20736c6f7420616c60448201526b72656164792065786973747360a01b6064820152608490fd5b60405162461bcd60e51b815260206004820152601f60248201527f43544d5257413030313a20746f6b656e20616c7265616479206d696e746564006044820152606490fd5b60405162461bcd60e51b815260206004820152602360248201527f43544d5257413030313a2063616e6e6f74206d696e74207a65726f20746f6b656044820152621b925960ea1b6064820152608490fd5b60405162461bcd60e51b815260206004820152602360248201527f43544d5257413030313a206d696e7420746f20746865207a65726f206164647260448201526265737360e81b6064820152608490fd5b611aff90612016565b38611623565b50346102965760203660031901126102965780604051611b248161205f565b52600c546001600160a01b03168015611b7d578160249160405192838092633601bfc560e11b825260043560048301525afa9081156103a6578261037f9392610383575050604051918291602083526020830190611f85565b5060405161037f91611b8e8261205f565b815261036b565b50604036600319011261029657611baa611faa565b602435611bb681612bb8565b611bbf82612bf4565b6001600160a01b0391821691611bd9908516831415612c94565b813314918215611c92575b8215611c65575b505015611bfb5761083a9161341d565b608460405162461bcd60e51b815260206004820152604060248201527f43544d5257413030313a20617070726f76652063616c6c6572206973206e6f7460448201527f206f776e6572206e6f7220617070726f76656420666f7220616c6c2f736c6f746064820152fd5b90915084526010602052604084209084526020526040832033845260205260ff6040842054163880611beb565b8092508552600b6020526002604086200133865260205260ff60408620541691611be4565b5034610296576020366003190112610296576020610ecb600435612e83565b503461029657602036600319011261029657611cfd60018060a01b036002541633146123b4565b61083a6004356135c5565b50346102965780600319360112610296576040519080600454611d2a81612251565b80855291600191808316908115610be75750600114611d535761037f8561036b8187038261207a565b9250600483527f8a35acfbc15ff81a39ae7d344fd709f28e8600b4aa8c65c6b64bfe7fe36bd19b5b828410611d9657505050810160200161036b8261037f610b7c565b80546020858701810191909152909301928101611d7b565b50346102965760203660031901126102965760043563ffffffff60e01b8116809103610e02576020906316d117cb60e31b8114908115611df4575b506040519015158152f35b631dba0dcf60e11b811491508115611e0e575b5082611de9565b6301ffc9a760e01b811491508115611e88575b8115611e77575b8115611e66575b8115611e55575b8115611e44575b5082611e07565b635b5e139f60e01b14905082611e3d565b63780e9d6360e01b81149150611e36565b6370b0048160e11b81149150611e2f565b6380ac58cd60e01b81149150611e28565b630354d60560e61b81149150611e21565b503461029657611ea836611f47565b611eb38293926143e4565b811015611edc576001611ed56040846020966114399652600f875220546121c7565b5001612eb6565b60405162461bcd60e51b815260206004820152603760248201527f43544d525741303031536c6f74456e756d657261626c653a20736c6f7420746f60448201527f6b656e20696e646578206f7574206f6620626f756e64730000000000000000006064820152608490fd5b6040906003190112611f5d576004359060243590565b600080fd5b60005b838110611f755750506000910152565b8181015183820152602001611f65565b90602091611f9e81518092818552858086019101611f62565b601f01601f1916010190565b600435906001600160a01b0382168203611f5d57565b604435906001600160a01b0382168203611f5d57565b602435906001600160a01b0382168203611f5d57565b6060906003190112611f5d57600435906024356001600160a01b0381168103611f5d579060443590565b6001600160401b03811161053857604052565b604081019081106001600160401b0382111761053857604052565b60c081019081106001600160401b0382111761053857604052565b602081019081106001600160401b0382111761053857604052565b90601f801991011681019081106001600160401b0382111761053857604052565b6001600160401b03811161053857601f01601f191660200190565b9291926120c28261209b565b916120d0604051938461207a565b829481845281830111611f5d578281602093846000960137010152565b9080601f83011215611f5d57816020612108933591016120b6565b90565b906040600319830112611f5d576001600160401b03600435818111611f5d5783612137916004016120ed565b92602435918211611f5d57612108916004016120ed565b6060906003190112611f5d57600435906024359060443590565b6060906003190112611f5d576001600160a01b03906004358281168103611f5d57916024359081168103611f5d579060443590565b6060906003190112611f5d576004356001600160a01b0381168103611f5d57906024359060443590565b600e5481101561220157600e60005260011b7fbb7b4a454dc3493923482f07822329ed19e8244eff582cc204f8554c3620c3fd0190600090565b634e487b7160e01b600052603260045260246000fd5b60035481101561220157600360005260011b7fc2575a0e9e593c00f959f8c92f12db2869c3395a3b0502d05e2516446f71f85b0190600090565b90600182811c92168015612281575b602083101461226b57565b634e487b7160e01b600052602260045260246000fd5b91607f1691612260565b906040519182600082549261229f84612251565b90818452600194858116908160001461230e57506001146122cb575b50506122c99250038361207a565b565b9093915060005260209081600020936000915b8183106122f65750506122c9935082010138806122bb565b855488840185015294850194879450918301916122de565b9150506122c994506020925060ff191682840152151560051b82010138806122bb565b9080601f83011215611f5d578135906001600160401b0392838311610538578260051b604051946020946123678684018861207a565b8652848087019284010193808511611f5d57858401925b85841061238f575050505050505090565b8335838111611f5d5787916123a9848480948a01016120ed565b81520193019261237e565b156123bb57565b60405162461bcd60e51b815260206004820152603060248201527f43544d5257413030313a20546869732063616e206f6e6c792062652063616c6c60448201526f0cac840c4f24086a89aa4ae82606062b60831b6064820152608490fd5b60015490916001600160a01b039182169116036124455760005461243f57600055600190565b50600090565b60405162461bcd60e51b815260206004820152602d60248201527f43544d525741303031583a20617474616368496420697320616e2041646d696e60448201526c27b7363c90333ab731ba34b7b760991b6064820152608490fd5b60001981146124af5760010190565b634e487b7160e01b600052601160045260246000fd5b80518210156122015760209160051b010190565b60018054909392916001600160a01b039182169116036125da57805182510361257757829160009182945b612511575b505050905090565b80518510156125725761253161252786836124c5565b516115d44661261f565b15612547575b61254184956124a0565b94612504565b61256661255486836124c5565b5161255f87856124c5565b519061279e565b61253757505091505090565b612509565b60405162461bcd60e51b815260206004820152603560248201527f43544d5257413030313a204c656e677468206d69736d6174636820636861696e60448201527449647320616e6420636f6e7472616374416464727360581b6064820152608490fd5b60405162461bcd60e51b815260206004820152601e60248201527f43544d525741303031583a2041646d696e4f6e6c792066756e6374696f6e00006044820152606490fd5b806000917a184f03e93ff9f4daa797ed6e38ed64bf6a1f01000000000000000080821015612779575b506d04ee2d6d415b85acef81000000008083101561276a575b50662386f26fc100008083101561275b575b506305f5e1008083101561274c575b506127108083101561273d575b50606482101561272d575b600a80921015612723575b600190816021818601956126b88761209b565b966126c6604051988961207a565b8088526126d5601f199161209b565b01366020890137860101905b6126ed575b5050505090565b600019019083906f181899199a1a9b1b9c1cb0b131b232b360811b8282061a83530491821561271e579190826126e1565b6126e6565b91600101916126a5565b919060646002910491019161269a565b6004919392049101913861268f565b60089193920491019138612682565b60109193920491019138612673565b60209193920491019138612661565b604093508104915038612648565b818110612792575050565b60008155600101612787565b9060009160038054935b8481106129e65750604051916127bd83612029565b8252602090818301938452600160401b851015610538576127e46001958681018355612217565b9390936129d0575180516001600160401b039485821161053857879161280a8254612251565b93601f948581116129a2575b50869085831160011461293d576000919083612932575b505060001982871b1c191690831b1781555b01945180519485116105385784936128578754612251565b8381116128fa575b50809285116001146128935750600093612888575b505082851b92600019911b1c191617905590565b015191503880612874565b929190879550601f1985168760005284600020946000905b8282106128e157505085116128c7575b50505050811b01905590565b01519060f884600019921b161c19169055388080806128bb565b8484015187558a989096019593840193908101906128ab565b6129239088600052826000208580890160051c820192858a10612929575b0160051c0190612787565b3861285f565b92508192612918565b01519050388061282d565b90601f1983169184600052886000209260005b8a82821061298c5750509084879594939210612974575b505050811b01815561283f565b015160001983891b60f8161c19169055388080612967565b8385015186558e98909501949384019301612950565b6129ca9084600052886000208780860160051c8201928b8710612929570160051c0190612787565b38612816565b634e487b7160e01b600052600060045260246000fd5b612a01836129fc6129f684612217565b5061228b565b6141db565b612a1357612a0e906124a0565b6127a8565b5050505050600090565b6003549060005b828110612a4157505050604051612a3a8161205f565b6000815290565b612a60612a4d82612217565b506129fc612a5a85614240565b9161228b565b612a7257612a6d906124a0565b612a24565b612108925060019150612a8490612217565b500161228b565b612a97612a9d91614240565b91614240565b6003549160005b838110612ab45750505050600090565b612ac9612ac36129f683612217565b836141db565b80612aea575b612ae157612adc906124a0565b612aa4565b50505050600190565b50612b02612afc6001612a8484612217565b846141db565b612acf565b600954811015612201576006906009600052027f6e1540171b6c0c960b71a7020d9f60077f6af931a8bbf590da0223dacf75c7af0190600090565b612b4e61066082612edb565b600052600a6020526002612b66604060002054612b07565b50015490565b15612b7357565b60405162461bcd60e51b815260206004820152601b60248201527f43544d5257413030313a20696e76616c696420746f6b656e20494400000000006044820152606490fd5b612bc461066082612edb565b600052600a602052612bda604060002054612b07565b50600301546001600160a01b0316906122c9821515612b6c565b612c0061066082612edb565b600052600a6020526001612b66604060002054612b07565b602081830312611f5d578051906001600160401b038211611f5d570181601f82011215611f5d578051612c4a8161209b565b92612c58604051948561207a565b81845260208284010111611f5d576121089160208085019101611f62565b919082018092116124af57565b908151811015612201570160200190565b15612c9b57565b60405162461bcd60e51b8152602060048201526024808201527f43544d5257413030313a20617070726f76616c20746f2063757272656e74206f6044820152633bb732b960e11b6064820152608490fd5b612cf861066082612edb565b600052600860205260406000209060018060a01b031660005260205260406000205490565b6001600160a01b03168015612d3d57600052600b60205260406000205490565b60405162461bcd60e51b815260206004820152602d60248201527f43544d5257413030313a2062616c616e636520717565727920666f722074686560448201526c207a65726f206164647265737360981b6064820152608490fd5b15612d9f57565b60405162461bcd60e51b815260206004820152603460248201527f43544d5257413030313a207472616e736665722063616c6c6572206973206e6f6044820152731d081bdddb995c881b9bdc88185c1c1c9bdd995960621b6064820152608490fd5b90612e25939291612e156114d28433614323565b612e20838383613bec565b6140cd565b15612e2c57565b60405162461bcd60e51b815260206004820152602960248201527f43544d5257413030313a207472616e7366657220746f206e6f6e20455243373260448201526818a932b1b2b4bb32b960b91b6064820152608490fd5b612e8f61066082612edb565b600052600a602052612ea5604060002054612b07565b50600401546001600160a01b031690565b80548210156122015760005260206000200190600090565b919082039182116124af57565b60095415159081612eea575090565b809150600052600a602052612f03604060002054612b07565b50541490565b919290916001600160a01b03811615611aa5578215611a5457612f2b83612edb565b611a0f57612f388461440a565b15613164575b604051612f4a8161205f565b6000815260405190612f5b82612044565b8482528560208301526000604083015260018060a01b03831660608301526000608083015260a082015260095484600052600a60205280604060002055600160401b81101561053857806001612fb49201600955612b07565b6129d05781518155602082015160018201556040820151600282015560608201516003820180546001600160a01b039283166001600160a01b031991821617909155608084015160048401805491909316911617905560a090910151805191600501906001600160401b0383116105385790602083926130378897969584613403565b0190600052602060002060005b838110613144575050505060206000928483613081827f0b2aac84f3ec956911fd78eae5311062972ff949f38412e8da39069d9f068cc69661329c565b6001600160a01b0316857fddf252ad1be2c89b69c2b068fc378daa952ba7f163c4a11628f55a4df523b3ef8180a48684866000805160206144948339815191528280a4848452600a825260026130da6040862054612b07565b50016130e7828254612c76565b9055604051908152a36130fa8183614432565b61314057816122c992600052600f602052600161311b6040600020546121c7565b500190815490600052600d602052604060002083600052602052604060002055613260565b5050565b82516001600160a01b031681830155879650602090920191600101613044565b61316d8461440a565b6119b55760405161317d8161205f565b60009081815260405161318f81612029565b868152602091828201908152600e5492888552600f8152836040862055600160401b9283851015611873576131cb600195868101600e556121c7565b91909161324c579085915181550191518051936001600160401b03851161198d5784116118735790808392613209868d9998979654818755866133e0565b0191855280852090855b84811061323857505050505050806000805160206144948339815191528180a4612f3e565b8351818401558b9750928101928501613213565b634e487b7160e01b87526004879052602487fd5b90815491600160401b83101561053857826132839160016122c995018155612eb6565b90919082549060031b91821b91600019901b1916179055565b9060406122c992600090838252600a60205260036132bc84842054612b07565b500180546001600160a01b0319166001600160a01b039092169182179055808252600b60208181528484208054878652600191909101825285852055918352905220613260565b805490811561332d576000199182019161331d8383612eb6565b909182549160031b1b1916905555565b634e487b7160e01b600052603160045260246000fd5b919091600090838252600a60205260036133606040842054612b07565b500180546001600160a01b03191690556001600160a01b03168152600b6020526040812080546000198101949192919085116104fc576133a46122c9949584612eb6565b90549060031b1c60018401828452806020526040842054916133ca816132838589612eb6565b8452602052604083205581526040812055613303565b918181106133ed57505050565b6122c99260005260206000209182019101612787565b90600160401b81116105385781548183556122c9926133e0565b81600052600a6020526004613436604060002054612b07565b500180546001600160a01b0319166001600160a01b039283169081179091559061345f83612bb8565b167f8c5be1e5ebec7d5bd14f71427d1e84f3dd0314c0f7b2291e5b200ac8c7c3b925600080a4565b6001600160a01b03808316939192841561356b57836134a59161365d565b156134f3575b5060207f621b050de0ad08b51d19b48b3e6df75348c4de6bdd93e81b252ca62e28265b1b918360005260088252604060002085600052825280604060002055604051908152a3565b82600052600a602052600561350c604060002054612b07565b500191825491600160401b83101561053857613551837f621b050de0ad08b51d19b48b3e6df75348c4de6bdd93e81b252ca62e28265b1b956001602096018155612eb6565b819291549060031b9188831b921b191617905591506134ab565b60405162461bcd60e51b815260206004820152602c60248201527f43544d5257413030313a20617070726f76652076616c756520746f207468652060448201526b7a65726f206164647265737360a01b6064820152608490fd5b60008181526020600a815260409260056135e185852054612b07565b500193845491845b83811061361f575050505082549180845582613606575b50505050565b6136169381522090810190612787565b38808080613600565b8061362d6136589289612eb6565b90548489526008885285892060039290921b1c6001600160a01b0316885286528387208790556124a0565b6135e9565b600090828252600a60209080825260409061367a82862054612b07565b509260058094015496865b8881106136985750505050505050905090565b8188528383526136af8187611ed5888c2054612b07565b905460039190911b1c6001600160a01b03908116908816146136d9576136d4906124a0565b613685565b505050505050505050600190565b156136ee57565b60405162461bcd60e51b815260206004820152602960248201527f43544d5257413030313a207472616e736665722066726f6d20696e76616c6964604482015268081d1bdad95b88125160ba1b6064820152608490fd5b1561374c57565b60405162461bcd60e51b815260206004820152602760248201527f43544d5257413030313a207472616e7366657220746f20696e76616c696420746044820152661bdad95b88125160ca1b6064820152608490fd5b156137a857565b60405162461bcd60e51b815260206004820152602c60248201527f43544d5257413030313a20696e73756666696369656e742062616c616e63652060448201526b3337b9103a3930b739b332b960a11b6064820152608490fd5b909161381061119d83612edb565b61381c61153584612edb565b81600052600a602052613833604060002054612b07565b509280600052600a60205261384c604060002054612b07565b509361385e83600283015410156137a1565b600181015460018601548103613b8e5760038201546001600160a01b03161580613b86575b80613b76575b613a93575b5061389d836002830154612ece565b6002820155600285016138b1848254612c76565b905581847f0b2aac84f3ec956911fd78eae5311062972ff949f38412e8da39069d9f068cc66020604051878152a3600381810154950154600190910154946001600160a01b0391821691161580613a8b575b80613a7a575b156139ac5750613930818561394696600052600f602052600161311b6040600020546121c7565b6040519261393d8461205f565b60008452613f74565b1561394d57565b60405162461bcd60e51b815260206004820152603160248201527f43544d5257413030313a207472616e736665722072656a65637465642062792060448201527021aa26a92ba0981818a932b1b2b4bb32b960791b6064820152608490fd5b1580613a72575b80613a62575b6139c8575b6139469350613930565b83600052600f60205260016139e16040600020546121c7565b500180546000198101919082116124af5761394695613a03613a5d9383612eb6565b90549060031b1c81600052600d60205260406000208760005260205260406000205490613a34816132838487612eb6565b6000928352600d6020908152604080852092855291905280832091909155868252812055613303565b6139be565b50613a6d8385614432565b6139b9565b5080156139b3565b50613a858286614432565b15613909565b508315613903565b613a9c8161440a565b6119b557604051613aac8161205f565b6000815260405190613abd82612029565b82825260208201908152600e549183600052600f60205282604060002055600160401b928381101561053857806001613af99201600e556121c7565b6129d0576001915181550190518051926001600160401b03841161053857831161053857602090613b2f848454818655856133e0565b0190600052602060002060005b838110613b6257505050506000806000805160206144948339815191528180a43861388e565b600190602084519401938184015501613b3c565b50613b808161440a565b15613889565b508415613883565b60405162461bcd60e51b815260206004820152603060248201527f43544d5257413030313a207472616e7366657220746f20746f6b656e2077697460448201526f1a08191a5999995c995b9d081cdb1bdd60821b6064820152608490fd5b919091613bf882612bb8565b6001600160a01b039190828216908316819003613ed0578285168015613e7b578491613c2383612bf4565b96613c2d84612b42565b508115948580613e73575b80613e63575b613d46575b613cba91613cb5868093816000809c828252600a6020526004613c696040842054612b07565b500180546001600160a01b0319169055613c8283612bb8565b167f8c5be1e5ebec7d5bd14f71427d1e84f3dd0314c0f7b2291e5b200ac8c7c3b9258280a4613cb0826135c5565b613343565b61329c565b7fddf252ad1be2c89b69c2b068fc378daa952ba7f163c4a11628f55a4df523b3ef8580a480613d3e575b80613d2d575b15613d2857826122c9938252600f60205260406001613d0b828520546121c7565b5001928354928152600d6020528181208582526020522055613260565b505050565b50613d388284614432565b15613cea565b508115613ce4565b9091929350613d548861440a565b6119b557604051613d648161205f565b600090818152604051613d7681612029565b8a8152602091828201908152600e54928c8552600f8152836040862055600160401b928385101561187357613db2600195868101600e556121c7565b91909161324c579085915181550191518051936001600160401b03851161198d57841161187357918184928f96948f9c9b9a999896613df6908554818755866133e0565b0191855280852090855b848110613e3757505050505050868093613cba9593838060008051602061449483398151915281613cb597a4935050509150613c43565b9085975083819496939597999a9b9c9d50519501948185015501918e9593918e9b9a9998979593613e00565b50613e6d8961440a565b15613c3e565b508415613c38565b60405162461bcd60e51b815260206004820152602760248201527f43544d5257413030313a207472616e7366657220746f20746865207a65726f206044820152666164647265737360c81b6064820152608490fd5b60405162461bcd60e51b815260206004820152602660248201527f43544d5257413030313a207472616e736665722066726f6d20696e76616c69646044820152651037bbb732b960d11b6064820152608490fd5b90816020910312611f5d57516001600160e01b031981168103611f5d5790565b3d15613f6f573d90613f558261209b565b91613f63604051938461207a565b82523d6000602084013e565b606090565b929092613f8084612bb8565b803b63ffffffff16156140c3576040516301ffc9a760e01b8152633abe4f5560e21b6004820181905295602095926001600160a01b0316918681602481865afa809160009161408d575b5090613fe6575050505050505050613fe0613f44565b50600190565b156140815760008694614025604051978896879586948d865233600487015260248601526044850152606484015260a0608484015260a4830190611f85565b03925af191821561407557600092614048575b50506001600160e01b0319161490565b6140679250803d1061406e575b61405f818361207a565b810190613f24565b3880614038565b503d614055565b6040513d6000823e3d90fd5b50505050505050600190565b8881813d83116140bc575b6140a2818361207a565b81010312610e025751908115158203610296575038613fca565b503d614098565b5050505050600190565b9192813b63ffffffff1615612ae157602091614125916000604051958680958194630a85bd0160e11b9a8b845233600485015260018060a01b0380951660248501526044840152608060648401526084830190611f85565b0393165af1600091816141bb575b506141ad57614140613f44565b805190816141a85760405162461bcd60e51b815260206004820152603260248201527f4552433732313a207472616e7366657220746f206e6f6e20455243373231526560448201527131b2b4bb32b91034b6b83632b6b2b73a32b960711b6064820152608490fd5b602001fd5b6001600160e01b0319161490565b6141d491925060203d811161406e5761405f818361207a565b9038614133565b9060405191826141f76020820192602084526040830190611f85565b039261420b601f199485810183528261207a565b51902091614239604051918261422d6020820195602087526040830190611f85565b0390810183528261207a565b5190201490565b90815161424c8161209b565b9061425a604051928361207a565b808252614269601f199161209b565b01602090368284013760005b845181101561431c576142888186612c83565b5190604160f892831c101580614305575b156142de57826142a98288612c83565b51831c019160ff83116124af576142d992901b6001600160f81b03191660001a6142d38286612c83565b536124a0565b614275565b6142d991506001600160f81b03196142f68288612c83565b511660001a6142d38286612c83565b50605a6143128288612c83565b51831c1115614299565b5090925050565b9061433061066082612edb565b61433981612bb8565b9161434382612bf4565b926001600160a01b039182169082168181149390929084156143ce575b505082156143a5575b8215614377575b5050905090565b6040925060ff9360009283526010602052838320908352602052828220908252602052205416803880614370565b915080600052600b60205260026040600020018260005260205260ff6040600020541691614369565b8294506143da90612e83565b1614913880614360565b6143ed8161440a565b1561243f57600052600f6020526001612b666040600020546121c7565b600e5415159081614419575090565b809150600052600f602052612f036040600020546121c7565b906000828152600f602052600161444c60408320546121c7565b500190815415159384614460575050505090565b614482939450906040918152600d602052818120858252602052205490612eb6565b90549060031b1c14388080806126e656fee4f48c240d3b994948aa54f3e2f5fca59263dfe1d52b6e4cf39a5d249b5ccb65a264697066735822122030c015c3dd4a88ba093a21e8a4bf0d0ae69c1912a4ef506aeac9c7af2e26ce7864736f6c63430008140033",
  "linkReferences": {},
  "deployedLinkReferences": {}
}