{
  "_format": "hh-sol-artifact-1",
  "contractName": "CTMRWA001X",
  "sourceName": "contracts/CTMRWA001X.sol",
  "abi": [
    {
      "inputs": [
        {
          "internalType": "address",
          "name": "_feeManager",
          "type": "address"
        },
        {
          "internalType": "address",
          "name": "_gov",
          "type": "address"
        },
        {
          "internalType": "address",
          "name": "_c3callerProxy",
          "type": "address"
        },
        {
          "internalType": "address",
          "name": "_txSender",
          "type": "address"
        },
        {
          "internalType": "uint256",
          "name": "_dappID",
          "type": "uint256"
        }
      ],
      "stateMutability": "nonpayable",
      "type": "constructor"
    },
    {
      "anonymous": false,
      "inputs": [
        {
          "indexed": false,
          "internalType": "string",
          "name": "fromChainIdStr",
          "type": "string"
        },
        {
          "indexed": false,
          "internalType": "string",
          "name": "fromContractStr",
          "type": "string"
        },
        {
          "indexed": false,
          "internalType": "string[]",
          "name": "chainIdsStr",
          "type": "string[]"
        },
        {
          "indexed": false,
          "internalType": "string[]",
          "name": "ctmRwa001AddrsStr",
          "type": "string[]"
        }
      ],
      "name": "AddNewChainAndToken",
      "type": "event"
    },
    {
      "anonymous": false,
      "inputs": [
        {
          "indexed": false,
          "internalType": "string",
          "name": "currentAdminStr",
          "type": "string"
        },
        {
          "indexed": false,
          "internalType": "string",
          "name": "newAdminStr",
          "type": "string"
        },
        {
          "indexed": false,
          "internalType": "string",
          "name": "fromChainIdStr",
          "type": "string"
        }
      ],
      "name": "ChangeAdminDest",
      "type": "event"
    },
    {
      "anonymous": false,
      "inputs": [
        {
          "indexed": true,
          "internalType": "address",
          "name": "oldGov",
          "type": "address"
        },
        {
          "indexed": true,
          "internalType": "address",
          "name": "newGov",
          "type": "address"
        },
        {
          "indexed": true,
          "internalType": "uint256",
          "name": "effectiveTime",
          "type": "uint256"
        },
        {
          "indexed": false,
          "internalType": "uint256",
          "name": "chainID",
          "type": "uint256"
        }
      ],
      "name": "LogChangeGov",
      "type": "event"
    },
    {
      "anonymous": false,
      "inputs": [
        {
          "indexed": false,
          "internalType": "bytes4",
          "name": "selector",
          "type": "bytes4"
        },
        {
          "indexed": false,
          "internalType": "bytes",
          "name": "data",
          "type": "bytes"
        },
        {
          "indexed": false,
          "internalType": "bytes",
          "name": "reason",
          "type": "bytes"
        }
      ],
      "name": "LogFallback",
      "type": "event"
    },
    {
      "anonymous": false,
      "inputs": [
        {
          "indexed": true,
          "internalType": "address",
          "name": "txSender",
          "type": "address"
        },
        {
          "indexed": false,
          "internalType": "bool",
          "name": "vaild",
          "type": "bool"
        }
      ],
      "name": "LogTxSender",
      "type": "event"
    },
    {
      "anonymous": false,
      "inputs": [
        {
          "indexed": false,
          "internalType": "string[]",
          "name": "chainIdsStr",
          "type": "string[]"
        },
        {
          "indexed": false,
          "internalType": "string[]",
          "name": "contractAddrsStr",
          "type": "string[]"
        },
        {
          "indexed": false,
          "internalType": "string",
          "name": "fromContractStr",
          "type": "string"
        },
        {
          "indexed": false,
          "internalType": "string",
          "name": "fromChainIdStr",
          "type": "string"
        }
      ],
      "name": "SetChainContract",
      "type": "event"
    },
    {
      "anonymous": false,
      "inputs": [
        {
          "indexed": false,
          "internalType": "string",
          "name": "fromAddressStr",
          "type": "string"
        },
        {
          "indexed": false,
          "internalType": "string",
          "name": "toAddressStr",
          "type": "string"
        },
        {
          "indexed": false,
          "internalType": "uint256",
          "name": "fromtokenId",
          "type": "uint256"
        },
        {
          "indexed": false,
          "internalType": "uint256",
          "name": "toTokenId",
          "type": "uint256"
        },
        {
          "indexed": false,
          "internalType": "uint256",
          "name": "slot",
          "type": "uint256"
        },
        {
          "indexed": false,
          "internalType": "uint256",
          "name": "value",
          "type": "uint256"
        },
        {
          "indexed": false,
          "internalType": "string",
          "name": "fromCtmRwa001AddrStr",
          "type": "string"
        },
        {
          "indexed": false,
          "internalType": "string",
          "name": "toCtmRwa001AddrStr",
          "type": "string"
        }
      ],
      "name": "TransferFromSourceX",
      "type": "event"
    },
    {
      "anonymous": false,
      "inputs": [
        {
          "indexed": false,
          "internalType": "string",
          "name": "fromAddressStr",
          "type": "string"
        },
        {
          "indexed": false,
          "internalType": "string",
          "name": "toAddressStr",
          "type": "string"
        },
        {
          "indexed": false,
          "internalType": "uint256",
          "name": "fromTokenId",
          "type": "uint256"
        },
        {
          "indexed": false,
          "internalType": "uint256",
          "name": "toTokenId",
          "type": "uint256"
        },
        {
          "indexed": false,
          "internalType": "uint256",
          "name": "slot",
          "type": "uint256"
        },
        {
          "indexed": false,
          "internalType": "uint256",
          "name": "value",
          "type": "uint256"
        },
        {
          "indexed": false,
          "internalType": "string",
          "name": "fromContractStr",
          "type": "string"
        },
        {
          "indexed": false,
          "internalType": "string",
          "name": "ctmRwa001AddrStr",
          "type": "string"
        }
      ],
      "name": "TransferToDestX",
      "type": "event"
    },
    {
      "inputs": [
        {
          "internalType": "string",
          "name": "toChainIdStr_",
          "type": "string"
        },
        {
          "internalType": "string[]",
          "name": "_chainIdsStr",
          "type": "string[]"
        },
        {
          "internalType": "string[]",
          "name": "_otherCtmRwa001AddrsStr",
          "type": "string[]"
        },
        {
          "internalType": "string",
          "name": "_ctmRwa001AddrStr",
          "type": "string"
        }
      ],
      "name": "addNewChainIdAndToken",
      "outputs": [],
      "stateMutability": "payable",
      "type": "function"
    },
    {
      "inputs": [
        {
          "internalType": "string",
          "name": "_adminStr",
          "type": "string"
        },
        {
          "internalType": "uint256",
          "name": "_Id",
          "type": "uint256"
        },
        {
          "internalType": "string[]",
          "name": "_chainIdsStr",
          "type": "string[]"
        },
        {
          "internalType": "string[]",
          "name": "_otherCtmRwa001AddrsStr",
          "type": "string[]"
        },
        {
          "internalType": "string",
          "name": "_fromContractStr",
          "type": "string"
        },
        {
          "internalType": "string",
          "name": "_ctmRwa001AddrStr",
          "type": "string"
        }
      ],
      "name": "addNewChainIdAndTokenX",
      "outputs": [
        {
          "internalType": "bool",
          "name": "",
          "type": "bool"
        }
      ],
      "stateMutability": "nonpayable",
      "type": "function"
    },
    {
      "inputs": [
        {
          "internalType": "address",
          "name": "txSender",
          "type": "address"
        }
      ],
      "name": "addTxSender",
      "outputs": [],
      "stateMutability": "nonpayable",
      "type": "function"
    },
    {
      "inputs": [
        {
          "internalType": "string",
          "name": "_tochainIdStr",
          "type": "string"
        },
        {
          "internalType": "string",
          "name": "_toContractStr",
          "type": "string"
        },
        {
          "internalType": "string[]",
          "name": "_chainIdsStr",
          "type": "string[]"
        },
        {
          "internalType": "string[]",
          "name": "_contractAddrsStr",
          "type": "string[]"
        }
      ],
      "name": "addXChainInfo",
      "outputs": [],
      "stateMutability": "payable",
      "type": "function"
    },
    {
      "inputs": [
        {
          "internalType": "string[]",
          "name": "_chainIdsStr",
          "type": "string[]"
        },
        {
          "internalType": "string[]",
          "name": "_contractAddrsStr",
          "type": "string[]"
        },
        {
          "internalType": "string",
          "name": "_fromContractStr",
          "type": "string"
        }
      ],
      "name": "addXChainInfoX",
      "outputs": [
        {
          "internalType": "bool",
          "name": "",
          "type": "bool"
        }
      ],
      "stateMutability": "nonpayable",
      "type": "function"
    },
    {
      "inputs": [
        {
          "internalType": "string",
          "name": "_currentAdminStr",
          "type": "string"
        },
        {
          "internalType": "string",
          "name": "_newAdminStr",
          "type": "string"
        },
        {
          "internalType": "string",
          "name": "_fromContractStr",
          "type": "string"
        },
        {
          "internalType": "string",
          "name": "_ctmRwa001AddrStr",
          "type": "string"
        }
      ],
      "name": "adminX",
      "outputs": [
        {
          "internalType": "bool",
          "name": "",
          "type": "bool"
        }
      ],
      "stateMutability": "nonpayable",
      "type": "function"
    },
    {
      "inputs": [
        {
          "internalType": "address",
          "name": "_ctmRwa001Addr",
          "type": "address"
        }
      ],
      "name": "attachCTMRWA001ID",
      "outputs": [
        {
          "internalType": "uint256",
          "name": "",
          "type": "uint256"
        },
        {
          "internalType": "bool",
          "name": "",
          "type": "bool"
        }
      ],
      "stateMutability": "nonpayable",
      "type": "function"
    },
    {
      "inputs": [],
      "name": "c3CallerProxy",
      "outputs": [
        {
          "internalType": "address",
          "name": "",
          "type": "address"
        }
      ],
      "stateMutability": "view",
      "type": "function"
    },
    {
      "inputs": [
        {
          "internalType": "uint256",
          "name": "_dappID",
          "type": "uint256"
        },
        {
          "internalType": "bytes",
          "name": "_data",
          "type": "bytes"
        },
        {
          "internalType": "bytes",
          "name": "_reason",
          "type": "bytes"
        }
      ],
      "name": "c3Fallback",
      "outputs": [
        {
          "internalType": "bool",
          "name": "",
          "type": "bool"
        }
      ],
      "stateMutability": "nonpayable",
      "type": "function"
    },
    {
      "inputs": [],
      "name": "chainIdStr",
      "outputs": [
        {
          "internalType": "string",
          "name": "",
          "type": "string"
        }
      ],
      "stateMutability": "view",
      "type": "function"
    },
    {
      "inputs": [
        {
          "internalType": "string",
          "name": "_newAdminStr",
          "type": "string"
        },
        {
          "internalType": "string",
          "name": "toChainIdStr_",
          "type": "string"
        },
        {
          "internalType": "string",
          "name": "_ctmRwa001AddrStr",
          "type": "string"
        },
        {
          "internalType": "address",
          "name": "feeToken",
          "type": "address"
        }
      ],
      "name": "changeAdminCrossChain",
      "outputs": [
        {
          "internalType": "bool",
          "name": "",
          "type": "bool"
        }
      ],
      "stateMutability": "payable",
      "type": "function"
    },
    {
      "inputs": [
        {
          "internalType": "address",
          "name": "newGov",
          "type": "address"
        }
      ],
      "name": "changeGov",
      "outputs": [],
      "stateMutability": "nonpayable",
      "type": "function"
    },
    {
      "inputs": [
        {
          "internalType": "address",
          "name": "_ctmRwa001Addr",
          "type": "address"
        }
      ],
      "name": "checkAttached",
      "outputs": [
        {
          "internalType": "bool",
          "name": "",
          "type": "bool"
        },
        {
          "internalType": "uint256",
          "name": "",
          "type": "uint256"
        }
      ],
      "stateMutability": "view",
      "type": "function"
    },
    {
      "inputs": [],
      "name": "dappID",
      "outputs": [
        {
          "internalType": "uint256",
          "name": "",
          "type": "uint256"
        }
      ],
      "stateMutability": "view",
      "type": "function"
    },
    {
      "inputs": [],
      "name": "delay",
      "outputs": [
        {
          "internalType": "uint256",
          "name": "",
          "type": "uint256"
        }
      ],
      "stateMutability": "view",
      "type": "function"
    },
    {
      "inputs": [
        {
          "internalType": "string",
          "name": "_adminStr",
          "type": "string"
        },
        {
          "internalType": "uint256",
          "name": "_value",
          "type": "uint256"
        }
      ],
      "name": "deployCTMRWA001",
      "outputs": [
        {
          "internalType": "bool",
          "name": "",
          "type": "bool"
        }
      ],
      "stateMutability": "nonpayable",
      "type": "function"
    },
    {
      "inputs": [
        {
          "internalType": "address",
          "name": "txSender",
          "type": "address"
        }
      ],
      "name": "disableTxSender",
      "outputs": [],
      "stateMutability": "nonpayable",
      "type": "function"
    },
    {
      "inputs": [
        {
          "internalType": "string",
          "name": "_to",
          "type": "string"
        },
        {
          "internalType": "string",
          "name": "_toChainID",
          "type": "string"
        },
        {
          "internalType": "bytes",
          "name": "_data",
          "type": "bytes"
        }
      ],
      "name": "doGov",
      "outputs": [],
      "stateMutability": "nonpayable",
      "type": "function"
    },
    {
      "inputs": [
        {
          "internalType": "string[]",
          "name": "_targets",
          "type": "string[]"
        },
        {
          "internalType": "string[]",
          "name": "_toChainIDs",
          "type": "string[]"
        },
        {
          "internalType": "bytes",
          "name": "_data",
          "type": "bytes"
        }
      ],
      "name": "doGovBroadcast",
      "outputs": [],
      "stateMutability": "nonpayable",
      "type": "function"
    },
    {
      "inputs": [],
      "name": "feeManager",
      "outputs": [
        {
          "internalType": "address",
          "name": "",
          "type": "address"
        }
      ],
      "stateMutability": "view",
      "type": "function"
    },
    {
      "inputs": [
        {
          "internalType": "string",
          "name": "_chainIdStr",
          "type": "string"
        }
      ],
      "name": "getChainContract",
      "outputs": [
        {
          "internalType": "string",
          "name": "",
          "type": "string"
        }
      ],
      "stateMutability": "view",
      "type": "function"
    },
    {
      "inputs": [],
      "name": "gov",
      "outputs": [
        {
          "internalType": "address",
          "name": "",
          "type": "address"
        }
      ],
      "stateMutability": "view",
      "type": "function"
    },
    {
      "inputs": [
        {
          "internalType": "address",
          "name": "txSender",
          "type": "address"
        }
      ],
      "name": "isValidSender",
      "outputs": [
        {
          "internalType": "bool",
          "name": "",
          "type": "bool"
        }
      ],
      "stateMutability": "view",
      "type": "function"
    },
    {
      "inputs": [
        {
          "internalType": "string",
          "name": "toAddressStr_",
          "type": "string"
        },
        {
          "internalType": "string",
          "name": "toChainIdStr_",
          "type": "string"
        },
        {
          "internalType": "uint256",
          "name": "slot_",
          "type": "uint256"
        },
        {
          "internalType": "uint256",
          "name": "value_",
          "type": "uint256"
        },
        {
          "internalType": "string",
          "name": "_ctmRwa001AddrStr",
          "type": "string"
        },
        {
          "internalType": "address",
          "name": "feeToken",
          "type": "address"
        }
      ],
      "name": "mintNewToken",
      "outputs": [],
      "stateMutability": "payable",
      "type": "function"
    },
    {
      "inputs": [
        {
          "internalType": "string",
          "name": "fromAddressStr_",
          "type": "string"
        },
        {
          "internalType": "string",
          "name": "toAddressStr_",
          "type": "string"
        },
        {
          "internalType": "uint256",
          "name": "fromTokenId_",
          "type": "uint256"
        },
        {
          "internalType": "uint256",
          "name": "toTokenId_",
          "type": "uint256"
        },
        {
          "internalType": "uint256",
          "name": "slot_",
          "type": "uint256"
        },
        {
          "internalType": "uint256",
          "name": "value_",
          "type": "uint256"
        },
        {
          "internalType": "string",
          "name": "_fromContractStr",
          "type": "string"
        },
        {
          "internalType": "string",
          "name": "_ctmRwa001AddrStr",
          "type": "string"
        }
      ],
      "name": "mintX",
      "outputs": [
        {
          "internalType": "bool",
          "name": "",
          "type": "bool"
        }
      ],
      "stateMutability": "nonpayable",
      "type": "function"
    },
    {
      "inputs": [
        {
          "internalType": "string",
          "name": "fromAddressStr_",
          "type": "string"
        },
        {
          "internalType": "string",
          "name": "toAddressStr_",
          "type": "string"
        },
        {
          "internalType": "uint256",
          "name": "fromTokenId_",
          "type": "uint256"
        },
        {
          "internalType": "uint256",
          "name": "slot_",
          "type": "uint256"
        },
        {
          "internalType": "uint256",
          "name": "balance_",
          "type": "uint256"
        },
        {
          "internalType": "string",
          "name": "_fromContractStr",
          "type": "string"
        },
        {
          "internalType": "string",
          "name": "_ctmRwa001AddrStr",
          "type": "string"
        }
      ],
      "name": "mintX",
      "outputs": [
        {
          "internalType": "bool",
          "name": "",
          "type": "bool"
        }
      ],
      "stateMutability": "nonpayable",
      "type": "function"
    },
    {
      "inputs": [
        {
          "internalType": "uint256",
          "name": "_delay",
          "type": "uint256"
        }
      ],
      "name": "setDelay",
      "outputs": [],
      "stateMutability": "nonpayable",
      "type": "function"
    },
    {
      "inputs": [
        {
          "internalType": "string",
          "name": "_str",
          "type": "string"
        }
      ],
      "name": "strToUint",
      "outputs": [
        {
          "internalType": "uint256",
          "name": "res",
          "type": "uint256"
        },
        {
          "internalType": "bool",
          "name": "err",
          "type": "bool"
        }
      ],
      "stateMutability": "pure",
      "type": "function"
    },
    {
      "inputs": [
        {
          "internalType": "string",
          "name": "str",
          "type": "string"
        }
      ],
      "name": "stringToAddress",
      "outputs": [
        {
          "internalType": "address",
          "name": "",
          "type": "address"
        }
      ],
      "stateMutability": "pure",
      "type": "function"
    },
    {
      "inputs": [
        {
          "internalType": "string",
          "name": "a",
          "type": "string"
        },
        {
          "internalType": "string",
          "name": "b",
          "type": "string"
        }
      ],
      "name": "stringsEqual",
      "outputs": [
        {
          "internalType": "bool",
          "name": "",
          "type": "bool"
        }
      ],
      "stateMutability": "pure",
      "type": "function"
    },
    {
      "inputs": [
        {
          "internalType": "uint256",
          "name": "fromTokenId_",
          "type": "uint256"
        },
        {
          "internalType": "string",
          "name": "toAddressStr_",
          "type": "string"
        },
        {
          "internalType": "uint256",
          "name": "toTokenId_",
          "type": "uint256"
        },
        {
          "internalType": "string",
          "name": "toChainIdStr_",
          "type": "string"
        },
        {
          "internalType": "uint256",
          "name": "value_",
          "type": "uint256"
        },
        {
          "internalType": "string",
          "name": "_ctmRwa001AddrStr",
          "type": "string"
        },
        {
          "internalType": "address",
          "name": "feeToken",
          "type": "address"
        }
      ],
      "name": "transferFromX",
      "outputs": [],
      "stateMutability": "payable",
      "type": "function"
    },
    {
      "inputs": [
        {
          "internalType": "uint256",
          "name": "fromTokenId_",
          "type": "uint256"
        },
        {
          "internalType": "string",
          "name": "toAddressStr_",
          "type": "string"
        },
        {
          "internalType": "string",
          "name": "toChainIdStr_",
          "type": "string"
        },
        {
          "internalType": "uint256",
          "name": "value_",
          "type": "uint256"
        },
        {
          "internalType": "string",
          "name": "_ctmRwa001AddrStr",
          "type": "string"
        },
        {
          "internalType": "address",
          "name": "feeToken",
          "type": "address"
        }
      ],
      "name": "transferFromX",
      "outputs": [],
      "stateMutability": "payable",
      "type": "function"
    },
    {
      "inputs": [
        {
          "internalType": "string",
          "name": "toAddressStr_",
          "type": "string"
        },
        {
          "internalType": "string",
          "name": "toChainIdStr_",
          "type": "string"
        },
        {
          "internalType": "uint256",
          "name": "fromTokenId_",
          "type": "uint256"
        },
        {
          "internalType": "string",
          "name": "_ctmRwa001AddrStr",
          "type": "string"
        },
        {
          "internalType": "address",
          "name": "feeToken",
          "type": "address"
        }
      ],
      "name": "transferFromX",
      "outputs": [],
      "stateMutability": "payable",
      "type": "function"
    }
  ],
  "bytecode": "0x60808060405234620002265760a081620056b480380380916200002382856200022b565b8339810103126200022657620000398162000265565b906020916200004a83830162000265565b620000586040840162000265565b926080620000696060830162000265565b9101519260018060a01b0380928160018060a01b0319958160009916878a541617895560019788556202a30060025516808660035416176003558560045416176004554260055516855260068652604085208460ff1982541617905516906007541617600755620000da46620002d3565b805192906001600160401b0384116200021257620000fa6008546200027a565b601f8111620001c6575b508491601f85116001146200015d57939450849291908362000151575b50501b916000199060031b1c1916176008555b620001403046620004af565b50604051614b0f908162000ba58239f35b01519250388062000121565b6008815285812093958591601f198316915b88838310620001ab575050501062000191575b505050811b0160085562000134565b015160001960f88460031b161c1916905538808062000182565b8587015188559096019594850194879350908101906200016f565b60088352858320601f860160051c81019187871062000207575b601f0160051c019084905b828110620001fb57505062000104565b848155018490620001eb565b9091508190620001e0565b634e487b7160e01b82526041600452602482fd5b600080fd5b601f909101601f19168101906001600160401b038211908210176200024f57604052565b634e487b7160e01b600052604160045260246000fd5b51906001600160a01b03821682036200022657565b90600182811c92168015620002ac575b60208310146200029657565b634e487b7160e01b600052602260045260246000fd5b91607f16916200028a565b6001600160401b0381116200024f57601f01601f191660200190565b806000917a184f03e93ff9f4daa797ed6e38ed64bf6a1f0100000000000000008082101562000444575b506d04ee2d6d415b85acef81000000008083101562000434575b50662386f26fc100008083101562000424575b506305f5e1008083101562000414575b506127108083101562000404575b506064821015620003f3575b600a80921015620003e8575b600190816021818601956200037587620002b7565b966200038560405198896200022b565b80885262000396601f1991620002b7565b01366020890137860101905b620003af575b5050505090565b600019019083906f181899199a1a9b1b9c1cb0b131b232b360811b8282061a835304918215620003e257919082620003a2565b620003a8565b916001019162000360565b919060646002910491019162000354565b6004919392049101913862000348565b600891939204910191386200033a565b601091939204910191386200032a565b6020919392049101913862000317565b604093508104915038620002fd565b6000198114620004635760010190565b634e487b7160e01b600052601160045260246000fd5b6009548110156200049957600960005260206000209060011b0190600090565b634e487b7160e01b600052603260045260246000fd5b620004bd90929192620002d3565b6040805190936001600160a01b0316916001600160401b0390606090818401838111858210176200024f578752602a84526020908185018836823785511562000499576030905384519560019687101562000499576078602187015360295b87811162000ad6575062000a94576200055b978551956200053d87620002b7565b966200054c835198896200022b565b808852601f199a8b91620002b7565b0136858901376000885b620009cc575b50506009549160005b838110620008b157505080519381850191858310878411176200024f578290526000600854620005a4816200027a565b808552908a81169081156200089157506001146200084c575b50620005d29150859003603f1901826200022b565b8352818301948552680100000000000000008110156200024f578086620005fd920160095562000479565b929092620008365751918251908482116200024f5786916200062082546200027a565b94601f95868111620007e1575b508490868311600114620007785760009190836200076c575b5050600019600383901b1c191690831b1781555b0193519687519384116200024f576200067485546200027a565b83811162000721575b5081928411600114620006bc5750508192939495600092620006b0575b5050600019600383901b1c191690831b17905590565b0151905038806200069a565b6000858152828120918516989193925b898210620007095750508386979896959610620006ef575b505050811b01905590565b015160001960f88460031b161c19169055388080620006e4565b808885968294968601518155019501930190620006cc565b85600052826000208480870160051c82019285881062000762575b0160051c019087905b828110620007555750506200067d565b6000815501879062000745565b925081926200073c565b01519050388062000646565b908b83169184600052866000209260005b88828210620007ca5750509084879594939210620007b0575b505050811b0181556200065a565b015160001960f88460031b161c19169055388080620007a2565b8385015186558d9890950194938401930162000789565b909192809450600052846000208680850160051c8201928786106200082c575b908b9695949392910160051c01905b8181106200081f57506200062d565b600081558a950162000810565b9250819262000801565b634e487b7160e01b600052600060045260246000fd5b919050600860005284600020858a6000925b8584106200087957505050620005d2925086010138620005bd565b80548a8501860152919092019187918c91016200085e565b60ff19168885015250620005d29290151560051b870101905038620005bd565b620008bc8162000479565b50898451809260009080548a620008d3826200027a565b808652958216918215620009aa57505060011462000963575b50620008fb925003826200022b565b83516200091f8d82620009128a8201958662000b59565b039081018352826200022b565b5190208b84516200093a888201928262000912888662000b59565b5190201462000954576200094e9062000453565b62000574565b50600099505050505050505050565b915050600052818780600020928d6000945b8286106200098f57505050620008fb9282010138620008ec565b8091929450548386880101520192019183918d8a9262000975565b60ff191685820152620008fb95151560051b8501019250389150620008ec9050565b815181101562000a8e57620009e2818362000b47565b519089604160f893841c10158062000a74575b1562000a4757508562000a09828562000b47565b51831c019060ff821162000463578a9262000a4092901b6001600160f81b03191660001a62000a39828c62000b47565b5362000453565b9062000565565b915062000a40906001600160f81b031962000a63828662000b47565b511660001a62000a39828c62000b47565b50605a62000a83838662000b47565b51841c1115620009f5565b6200056b565b60648289519062461bcd60e51b825280600483015260248201527f537472696e67733a20686578206c656e67746820696e73756666696369656e746044820152fd5b90600f8116601081101562000b32576f181899199a1a9b1b9c1cb0b131b232b360811b901a62000b07838962000b47565b5360041c90801562000b1d57600019016200051c565b60246000634e487b7160e01b81526011600452fd5b60246000634e487b7160e01b81526032600452fd5b90815181101562000499570160200190565b6020808252825181830181905290939260005b82811062000b8f57505060409293506000838284010152601f8019910116010190565b81810186015184820160400152850162000b6c56fe6040608081526004908136101561001557600080fd5b600091823560e01c90816307cdd39014612f1857816310de50b414612a5e57816312d43a5114612a4157816313d19950146129e357816315706fdf1461299b57816326c724a81461274e578163321de7be146123285781633b12b2391461209a578163443c82c314611c78578163472804d914611a5957816358f2c05714611a315781636a42b8f814611a125781636aacc0a0146119a957816375a1f0ee1461174357838263a7bfa12d1461168157508163a962ef1e14611578578163b121f51d146113fa578163c516ad11146113db578163c5ef3ec51461139e578163ca37008b14611360578163cc6a292c14611323578163d0fb0203146112fa578163d326e2b514610dc4578163d43a0aa7146109d0578163d4422ca01461099e578163d60ad41b146108f6578163da8e669e146104e2578163dd64b3e61461037d578163e177246e1461032c57508063eebd14af14610296578063f01f2b8b14610259578063f9038f10146102255763f9e4cbaf1461019057600080fd5b34610221576020366003190112610221577fbfb8b3e2f6221ae729e9cacb0d35f5d9be686ba10cb1d4e34b646bbb87f7a26960206101cc61326d565b6001600160a01b0390816101de614a71565b163314801561020d575b6101f19061364c565b1680855260068252838520805460ff191690559251848152a280f35b506101f161021a33614876565b90506101e8565b5080fd5b5034610221578160031936011261022157610255906102426133b5565b9051918291602083526020830190613356565b0390f35b50346102215760203660031901126102215760209160ff9082906001600160a01b0361028361326d565b1681526006855220541690519015158152f35b5034610221576020366003190112610221577fbfb8b3e2f6221ae729e9cacb0d35f5d9be686ba10cb1d4e34b646bbb87f7a26960206102d361326d565b6001600160a01b0390816102e5614a71565b1633148015610318575b6102f89061364c565b169283855260068252808520600160ff198254161790555160018152a280f35b506102f861032533614876565b90506102ef565b839034610221576020366003190112610221576001600160a01b0361034f614a71565b1633148015610369575b6103629061364c565b3560025580f35b5061036261037633614876565b9050610359565b83833461022157600319906060368301126104de576001600160401b039184358381116104da576103b19036908701613283565b6024358481116104d6576103c89036908801613283565b936044359081116104d6576103e09036908801613210565b6001600160a01b0396876103f2614a71565b16331480156104c2575b6104059061364c565b82518651036104a65786978754169160015491833b156104a257610473899687936104646104549b8b519c8d9a8b998a9863ec6a8b7d60e01b8a52890152608060248901526084880190613688565b9084878303016044880152613688565b91848303016064850152613356565b03925af190811561049957506104865750f35b61048f9061315a565b6104965780f35b80fd5b513d84823e3d90fd5b8880fd5b60449087602087519262461bcd60e51b84528301526024820152fd5b506104056104cf33614876565b90506103fc565b8580fd5b8480fd5b8280fd5b905060803660031901126104de576001600160401b039080358281116104da5761050f9036908301613210565b916024358181116104d6576105279036908401613210565b906044359081116104d65761053f9036908401613210565b6001600160a01b0393606435939085851685036107bf5761057161056b61056546613b44565b86614734565b15613cac565b8561057b846144e8565b16918751986303e1469160e61b8a526020998a81848185895af19081156108605782916108c1575b50888116330361086a576105b6906136dd565b96818a518096631c0e27e760e11b82528d8683015281806105da602482018d613356565b03915afa948515610860578295610844575b50895163331a8a4b60e21b81528381018c905298828a80610610602482018c613356565b0381305afa998a1561083a57839a610816575b506106308a511515613d82565b60075416818c898d61065d61064446613b44565b9151635865233b60e01b815294859384938b8501613de4565b0381855afa90811561080c57908c8e94939286926107d6575b50516325f076df60e01b81529586019081526001600160a01b03909216602083015284918290859082906040015b03925af19081156107cb575090899161079d575b50508651926106c6846131b9565b602a8085527f61646d696e5828737472696e672c737472696e672c737472696e672c737472698a8601908152696e672c737472696e672960b01b958a0195909552885194206001600160e01b0319169361071f9061315a565b87519586948a860152602485016080905260a4850161073d91613356565b91602319928386820301604487015261075591613356565b8285820301606486015261076891613356565b9083820301608484015261077b91613356565b03601f198101835261078d90836131d4565b610796926149ce565b5160018152f35b813d83116107c4575b6107b081836131d4565b810103126107bf5787386106b8565b600080fd5b503d6107a6565b8951903d90823e3d90fd5b948092508591503d8311610805575b6107ef81836131d4565b810103126107bf5791518c92908c6106a4610676565b503d6107e5565b8c513d86823e3d90fd5b610833919a503d8085833e61082b81836131d4565b810190613d5d565b9838610623565b8b513d85823e3d90fd5b6108599195503d8084833e61082b81836131d4565b93386105ec565b8a513d84823e3d90fd5b895162461bcd60e51b81528084018c9052602b60248201527f43544d525741303031583a204f6e6c792061646d696e2063616e206368616e6760448201526a32903a34329030b236b4b760a91b6064820152608490fd5b90508a81813d83116108ef575b6108d881836131d4565b81010312610221576108e990613d07565b386105a3565b503d6108ce565b839034610221576060366003190112610221576001600160401b03813581811161099a576109279036908401613210565b906024358181116104da5761093f9036908501613210565b906044359081116104da576109839361095a91369101613210565b916001600160a01b0361096b614a71565b1633148015610986575b61097e9061364c565b6149ce565b80f35b5061097e61099333614876565b9050610975565b8380fd5b82843461049657602036600319011261049657506109c26109bd61326d565b613e78565b825191151582526020820152f35b91905060803660031901126104de576001600160401b0382358181116104da576109fd9036908501613210565b906024908135818111610dc057610a179036908701613283565b90604435818111610dbc57610a2f9036908801613283565b90606435908111610dbc57610a479036908801613210565b6001600160a01b039390919084610a5d846144e8565b16875180966303e1469160e61b82528b828c60209a8b93875af1918215610c7e578c92610d81575b5081163303610d3f57610a97906136dd565b918851916306a2116560e51b8352808b84015289838381305afa928315610c7e578c908d94610d0d575b5015610ca5578951631c0e27e760e11b8152808c01899052969594939291908c9088908180610af28187018f613356565b03915afa968715610c7e578c97610c88575b50895163331a8a4b60e21b81529a8b018890528b8b80610b268482018d613356565b0381305afa9a8b15610c7e578c9b610c61575b508a511515610b4790613d82565b895199610b538b61319e565b604d808c527f6164644e6577436861696e4964416e64546f6b656e5828737472696e672c75698a8d019081527f6e743235362c737472696e672c737472696e675b5d2c737472696e675b5d2c73838e01526c7472696e672c737472696e672960981b6060909d019c909c5281519b206001600160e01b0319169a610bd69061315a565b51998a988901528701526044860160c0905260e48601610bf591613356565b926023199384878203016064880152610c0d91613688565b83868203016084870152610c2091613688565b828582030160a4860152610c3391613356565b908382030160c4840152610c4691613356565b03601f1981018352610c5890836131d4565b610983926149ce565b610c77919b508c3d8091833e61082b81836131d4565b9938610b39565b8a513d8e823e3d90fd5b610c9e9197508c3d8091833e61082b81836131d4565b9538610b04565b895162461bcd60e51b8152808c01899052603c818401527f43544d525741303031583a205468652043544d52574130303120636f6e74726160448201527f637420686173206e6f7420796574206265656e206174746163686564000000006064820152608490fd5b9050610d309193508a3d8c11610d38575b610d2881836131d4565b810190613edb565b929038610ac1565b503d610d1e565b885162461bcd60e51b8152808b01889052601f818501527f43544d525741303031583a204f6e6c792061646d696e2066756e6374696f6e006044820152606490fd5b9091508781813d8311610db5575b610d9981836131d4565b81010312610db157610daa90613d07565b9038610a85565b8b80fd5b503d610d8f565b8780fd5b8680fd5b905060a03660031901126104de576001600160401b039181358381116104da57610df19036908401613210565b9060248035858111610dc057610e0a9036908601613210565b9360443595606435908111610dbc57610e269036908301613210565b608435966001600160a01b039491939185891689036107bf57610e5461056b610e4e46613b44565b8a614734565b85610e5e866144e8565b825163430c208160e01b81523387820190815260208082018790529c9290931695928c90829081906040010381895afa9081156111c9578d916112c5575b5015611265578b90610ead336136dd565b98600754168b8d610ebd46613b44565b8a610eda868a519586948594635865233b60e01b86528501613de4565b0381855afa90811561125b57908e9392918591611223575b5086516325f076df60e01b8152808b019182526001600160a01b0390931660208201529193849283919082906040015b03925af180156111f057908b916111fa575b5050815163331a8a4b60e21b81528581018b9052998b8b80610f588582018e613356565b0381305afa9182156111f057610f9f98999a9b8d936111d3575b50610f7f83511515613d82565b8c8c8551809b8192631c0e27e760e11b8352868c84015285830190613356565b0381895afa9889156111c9578d996111ac575b508c84519763463d31d760e11b895286818a015260808984818b5afa9788156111385782998399611174575b50803b156104de57865163968e8a1360e01b8152600083820152848101899052838160448183865af1801561115657908491611160575b5050803b156104de5786516301d485d560e21b81528281018990528381868183865af1801561115657908491611142575b5050803b156104de57865163404b6e9f60e01b81523392810192835260208301899052918391839182908490829060400103925af180156111385761110c575b505092600080516020614a9a8339815191529b819361097e6110fc946110ee8f9d8f9d6111069f9d829f9d829f9d829f9e829f829f6110c3614260565b9d6110e081519f63ffffffff60e01b908d8151910120169f61315a565b519d8e9a8b015289016142c9565b03601f1981018552846131d4565b5197889788614323565b0390a180f35b611120909a9998979695949a93929361315a565b61113457908c389993949596979899611086565b8c80fd5b86513d84823e3d90fd5b61114b9061315a565b6104de578238611046565b88513d86823e3d90fd5b6111699061315a565b6104de578238611015565b90985061119991995060803d81116111a5575b61119181836131d4565b81019061423d565b9a925050989738610fde565b503d611187565b6111c29199508d3d8091833e61082b81836131d4565b9738610fb2565b84513d8f823e3d90fd5b6111e99193508d3d8091833e61082b81836131d4565b9138610f72565b83513d8e823e3d90fd5b813d831161121c575b61120d81836131d4565b810103126107bf578938610f34565b503d611203565b93809295508491503d8311611254575b61123d81836131d4565b810103126107bf57610f22928e8e93519094610ef2565b503d611233565b86513d86823e3d90fd5b825162461bcd60e51b81528087018c90526035818401527f43544d525741303031583a207472616e736665722063616c6c6572206973206e6044820152741bdd081bdddb995c881b9bdc88185c1c1c9bdd9959605a1b6064820152608490fd5b90508b81813d83116112f3575b6112dc81836131d4565b81010312611134576112ed90613802565b38610e9c565b503d6112d2565b50503461022157816003193601126102215760075490516001600160a01b039091168152602090f35b828434610496576020366003190112610496578235906001600160401b038211610496575061135b6102559361024292369101613210565b6135c6565b505034610221576020366003190112610221576102559061138761138261326d565b613ef8565b915190815290151560208201529081906040820190565b828434610496576020366003190112610496578235906001600160401b03821161049657506113d66102559361138792369101613210565b6143db565b5050346102215781600319360112610221576020906001549051908152f35b9050346104de5760031960603682011261099a576001600160401b036024358181116104d65761142d9036908501613306565b9091604435908111610dc0576114469036908601613306565b9190928760018060a01b03815416885190631eb01f7360e21b825233898301528160248160209d8e945af1801561156e578290611538575b611488915061380f565b600154873503611503578287116104965750916114ec7fd1b411598268892b6836c5b922cfa272124f6f0bd3a7cf9f9d408f7e50f22301969594926114f994895197889763ffffffff60e01b833516895260608d8a015260608901930191016148fb565b91848303888601526148fb565b0390a15160018152f35b875162461bcd60e51b81528088018a9052600f60248201526e0c8c2e0e0928840c8d2e6dac2e8c6d608b1b6044820152606490fd5b508981813d8311611567575b61154e81836131d4565b810103126102215761156261148891613802565b61147e565b503d611544565b89513d84823e3d90fd5b9050346104de5760203660031901126104de5761159361326d565b6001600160a01b0391908290816115a8614a71565b163314801561166d575b6115bb9061364c565b169182156116385760207f4552e521eca39a029d33503b3e2003db87de01f8396f9e3fdd9dddddb9b838b4916115ef614a71565b1686600354956bffffffffffffffffffffffff60a01b95838789161760035581815497881617905581611624600254426137e4565b98896005555196468852161795161792a480f35b835162461bcd60e51b8152602081840152600f60248201526e6e6577476f7620697320656d70747960881b6044820152606490fd5b506115bb61167a33614876565b90506115b2565b9150346102215782600319360112610221578035906001600160401b0382116104de576116b360209236908301613210565b5082548451631eb01f7360e21b815233928101929092529092839160249183916001600160a01b03165af19283156117385780936116f8575b6020836107968661380f565b9092506020833d8211611730575b81611713602093836131d4565b81010312610496575061079661172a602093613802565b926116ec565b3d9150611706565b8251903d90823e3d90fd5b919050346104de5760603660031901126104de576001600160401b039082358281116104da576117769036908501613283565b9360249182358481116104de576117909036908701613283565b604494853590811161099a576117a99036908801613210565b968360018060a01b03815416845190631eb01f7360e21b8252338a8301528188816020998a945af1801561199f578290611969575b6117e8915061380f565b6117fb6117f361491c565b509050614799565b905b82518110156118fc57611819611813828561385b565b516143db565b806118f3575b156118b257611837611831838761385b565b516144e8565b90468103611850575b505061184b90613517565b6117fd565b9061185a9161386f565b15611866573880611840565b845162461bcd60e51b8152808a018790526022818901527f43544d525741303031583a205f61646458436861696e496e666f58206661696c818a015261195960f21b6064820152608490fd5b855162461bcd60e51b8152808b01889052601b818a01527f43544d525741303031583a20496c6c6567616c20636861696e49640000000000818b0152606490fd5b5080151561181f565b50906114f96119419261195b8b61194e7f8723f273745543d7f7acc5a1717b1601664f11a2bb7474128343791fb817cbe5978951978897608089526080890190613688565b908782038c890152613688565b9085820389870152613356565b908382036060850152613356565b508581813d8311611998575b61197f81836131d4565b81010312610221576119936117e891613802565b6117de565b503d611975565b85513d84823e3d90fd5b839060c0366003190112610221576001600160401b0390803582811161099a576119d69036908301613210565b5060243582811161099a576119ee9036908301613210565b506084359182116104de57611a0591369101613210565b50611a0e613257565b5080f35b5050346102215781600319360112610221576020906002549051908152f35b505034610221578160031936011261022157905490516001600160a01b039091168152602090f35b8391506080366003190112610221576001600160401b0390803582811161099a57611a879036908301613210565b906024358381116104da57611a9f9036908301613210565b906044358481116104d657611ab79036908301613283565b936064359081116104d657611acf9036908301613283565b906001600160a01b03611ae0614a71565b1633148015611c64575b611af39061364c565b845115611c15578451825103611bb3575061098394956110ee61097e92611b19306136dd565b610464611ba0855195611b2b876131b9565b602f87526e7472696e675b5d2c737472696e672960881b8160208901987f61646458436861696e496e666f5828737472696e672c737472696e675b5d2c738a520152611b86815197602f63ffffffff60e01b9120169761315a565b51998a966020880152606060248801526084870190613688565b6023199384878303016044880152613688565b608490602088519162461bcd60e51b8352820152603660248201527f43544d525741303031583a204c656e677468206d69736d6174636820636861696044820152756e49647320616e6420636f6e7472616374416464727360501b6064820152fd5b608490602088519162461bcd60e51b83528201526024808201527f43544d525741303031583a205a65726f206c656e677468205f636861696e496460448201526339a9ba3960e11b6064820152fd5b50611af3611c7133614876565b9050611aea565b9050346104de576003199260c036850112610496576001600160401b039180358381116104de57611cac9036908301613210565b9260443581811161099a57611cc49036908401613283565b916064358281116104da57611cdc9036908301613283565b9360843583811161022157611cf49036908401613210565b9260a43590811161022157611d0d829136908501613210565b81548951631eb01f7360e21b8152338682015260209b6024956001600160a01b0394939192918e9183918991839189165af18015611fba578590612064575b611d56915061380f565b82611d74611d6e611d686117f361491c565b9c6144e8565b936144e8565b16928b51926303e1469160e61b84528d84898189895af193841561205a578694612022575b50811692168203611fc4578a516306a2116560e51b81528681018490528b818781305afa8015611fba5785918691611f9b575b5081611f90575b5015611f2f576060928c928588611e1d8f958e611e0e8f8d99519b8c9a8b998a9863a6a2d1dd60e01b8a528901528701526064860190613688565b91848303016044850152613688565b03925af19182156107cb578092611ef7575b505015611ea4575050611e7c92611e967f0c55df6a0b75f1b5afffec4a402e7f9d52fa9f2571f84e51e783a1f7c06f336a9593611e896114f9948951978897608089526080890190613356565b908782038c890152613356565b9085820389870152613688565b908382036060850152613688565b865162461bcd60e51b81529182018890526028908201527f43544d525741303031583a206164644e6577436861696e4964416e64546f6b656044820152671b8819985a5b195960c21b6064820152608490fd5b9091508982813d8311611f28575b611f0f81836131d4565b810103126104965750611f2190613802565b3880611e2f565b503d611f05565b8a5162461bcd60e51b81528087018d90526036818701527f43544d525741303031583a20496e636f7272656374206f7220756e61747461636044820152751a19590810d5135495d04c0c0c4818dbdb9d1c9858dd60521b6064820152608490fd5b905085351438611dd3565b9050611fb491508c8d3d10610d3857610d2881836131d4565b38611dcc565b8c513d87823e3d90fd5b8a5162461bcd60e51b81528087018d90526033818701527f43544d525741303031583a204e6f2061646d696e2061636365737320746f2061604482015272646420636861696e732f636f6e74726163747360681b6064820152608490fd5b9093508d81813d8311612053575b61203a81836131d4565b810103126104d65761204c8291613d07565b9390611d99565b503d612030565b8d513d88823e3d90fd5b508c81813d8311612093575b61207a81836131d4565b810103126104da5761208e611d5691613802565b611d4c565b503d612070565b9050346104de5760803660031901126104de576001600160401b0381358181116104da576120cb9036908401613210565b916024358281116104d6576120e39036908301613210565b9085604435848111610221576120fc9036908401613210565b93606435908111610221576121149036908401613210565b81548751631eb01f7360e21b815233858201526020996001600160a01b0393928b918391602491839188165af190811561231e5784916122e0575b509061215d6121629261380f565b6144e8565b9461216c856144e8565b90826121796117f361491c565b9716908951631c0e27e760e11b81528b8782015285818061219d602482018d613356565b0381865afa9081156122d657926121cb6121c68e979694899460249786916122bc575b50614734565b613e1e565b8b5197889586946303c1987560e51b865216908401525af180156122b05761224a575b5050916114f96122309261223d7f14cf4818ffaf499810bbce5d0f41b82e988e8746fe5a8dcca1f2664dd66c4336958751958695606087526060870190613356565b908582038a870152613356565b9083820387850152613356565b8682813d83116122a9575b61225f81836131d4565b8101031261049657506122309261223d7f14cf4818ffaf499810bbce5d0f41b82e988e8746fe5a8dcca1f2664dd66c4336959361229e6114f994613802565b5093955050926121ee565b503d612255565b508551903d90823e3d90fd5b6122d091503d8088833e61082b81836131d4565b386121c0565b8b513d88823e3d90fd5b90508981813d8311612317575b6122f781836131d4565b8101031261099a579061215d61230f61216293613802565b91925061214f565b503d6122ed565b89513d86823e3d90fd5b905060c03660031901126104de578035918360249182356001600160401b039081811161099a5761235c9036908701613210565b946044358281116104da576123749036908301613210565b96606435926084359081116104d6576123909036908401613210565b93612399613257565b986123af61056b6123a946613b44565b83614734565b6001600160a01b03806123c1886144e8565b1698893b156104a257835163224e83b960e11b81523387820190815260208101879052604081018990528a90829081900360600181838f5af1801561274457908a91612730575b50506124168b5115156141d9565b61241f336136dd565b9984519c8d9363331a8a4b60e21b85528b602095868b820152806124458782018a613356565b0381305afa9e8f15612726578c9f612708575b506124658f511515613d82565b60075416858561247446613b44565b8b612491868c519586948594635865233b60e01b86528501613de4565b0381855afa9081156126fe578d916126c9575b5087516325f076df60e01b8152808b019182526001600160a01b0390931660208201528591839182908f90829060400103925af180156126915761269b575b50845163463d31d760e11b8152878101879052966080888481855afa978815612691578b9861266d575b508551631c0e27e760e11b81528181018590529a808c806125308782018a613356565b0381865afa9b8c1561266157819c61263b575b50604485928992895195869485936349178b2560e01b85528401528d888401525af1801561262f576125ac575b50928092600080516020614a9a8339815191529c61097e6110fc946110ee8f9d8f9d6111069f9d829f9d829f9d829f9e829f829f6110c3614260565b98979695949392828a813d8311612628575b6125c881836131d4565b8101031261262457600080516020614a9a8339815191529c61097e6110fc946110ee8f8f6111069f8f928f928f92918f92918f929c8f9d61260890613802565b509c5050505050505050509450509c5092939495969798612570565b8d80fd5b503d6125be565b8e8651903d90823e3d90fd5b819c5085926126576044928b943d8091833e61082b81836131d4565b9d92509250612543565b508651903d90823e3d90fd5b61268691985060803d81116111a55761119181836131d4565b92505050963861250d565b86513d8d823e3d90fd5b8380929b503d83116126c2575b6126b281836131d4565b810103126107bf578c98386124e3565b503d6126a8565b8092939d50868092503d83116126f7575b6126e481836131d4565b810103126107bf57518f9b9190856124a4565b503d6126da565b88513d8f823e3d90fd5b6124659f50612720903d808f833e61082b81836131d4565b9e612458565b87513d8e823e3d90fd5b6127399061315a565b6104a2578838612408565b85513d8c823e3d90fd5b8284346104965760e0366003190112610496576001600160401b03908335828111610221576127809036908601613210565b90602435838111610221576127989036908701613210565b906064359360843560a43582811161099a576127b79036908a01613210565b9160c43590811161099a576127cf9036908a01613210565b83548851631eb01f7360e21b815233818c015260209a9295926001600160a01b03929091908c908290851681875a92602493f190811561299157908b9392918591612952575b5061281f9061380f565b612864848d61282f6117f361491c565b906128398b6144e8565b956128438d6144e8565b961696519384928392631c0e27e760e11b8452878401526024830190613356565b0381875afa908115611fba5792858c938f958f6128916121c68d8d9b986128c395889161293e5750614734565b519788968795869463bff2ed7160e01b86528501604091949392606082019560018060a01b0316825260208201520152565b03925af19182156107cb57916128fb575b5090600080516020614aba833981519152966114f994939289519788976044359189614376565b93929190508884813d8311612937575b61291581836131d4565b810103126107bf57925191929091600080516020614aba8339815191526128d4565b503d61290b565b6122d091503d808a833e61082b81836131d4565b80929394508d8092503d831161298a575b61296d81836131d4565b8101031261099a579061281f6129848c9493613802565b90612815565b503d612963565b8b513d86823e3d90fd5b828434610496576020366003190112610496578235906001600160401b038211610496575061215d6020936129d292369101613210565b90516001600160a01b039091168152f35b9050346104de57816003193601126104de576001600160401b0381358181116104da57612a139036908401613210565b93602435918211610496575092612a32612a3892602095369101613210565b90614734565b90519015158152f35b5050346102215781600319360112610221576020906129d2614a71565b83915060e03660031901126102215760248035936001600160401b03948581116104da57612a8f9036908501613210565b916064358681116104d657612aa79036908601613210565b9560a4359081116104d657612abf9036908601613210565b60c435946001600160a01b03939192918487168703610dbc57612aed61056b612ae746613b44565b8b614734565b84612af7856144e8565b16803b156104a257815163224e83b960e11b81523384820190815284356020820181905260843560408301819052929c909a92969092918c908e908190606001038183885af18015612f0e57612ef4575b8b9c50612b5b8a9b9c999a5115156141d9565b612b64336136dd565b996007541691612b7346613b44565b928651635865233b60e01b8152888180612b94868a60209a8b968501613de4565b0381855afa908115612eea578c91612eb5575b5087516325f076df60e01b8152808a019182526001600160a01b0390931660208201528491839182908e90829060400103925af18015612e7d57612e87575b50845163331a8a4b60e21b815286810183905293898580612c0985820188613356565b0381305afa948515612e7d578a95612e61575b50612c2985511515613d82565b855163463d31d760e11b81528781018e9052966080888481855afa978815612e57578b98612e33575b508651631c0e27e760e11b81528181018590529a808c80612c758782018a613356565b0381865afa9b8c15612e2757908f9291819d612e01575b508592916044918a5195869485936349178b2560e01b85528401528d888401525af18015612df5578a8a8f95938f999897958f94908d928d92612dae575b508a5198612cd78a61319e565b6049808b527f6d696e745828737472696e672c737472696e672c737472696e672c75696e7432898c019081527f35362c75696e743235362c75696e743235362c75696e743235362c737472696e8e8d015268672c737472696e672960b81b6060909c019b909b528c519a206001600160e01b03191699612d569061315a565b8b51998a988901526044359c8d92890197612d7098614376565b03601f1981018352612d8290836131d4565b612d8b926149ce565b51978897612d999789614376565b03600080516020614a9a83398151915291a180f35b9b50975050505050508086813d8311612dee575b612dcc81836131d4565b81010312612624578a8a8a8f958f998c91612de78d92613802565b5038612cca565b503d612dc2565b8e8751903d90823e3d90fd5b819d5091612e1d8794936044933d8091833e61082b81836131d4565b9d91509192612c8c565b508751903d90823e3d90fd5b612e4c91985060803d81116111a55761119181836131d4565b92505050968f612c52565b87513d8d823e3d90fd5b612e769195503d808c833e61082b81836131d4565b938e612c1c565b86513d8c823e3d90fd5b8280929a503d8311612eae575b612e9e81836131d4565b810103126107bf578b978d612be6565b503d612e94565b8092939c50858092503d8311612ee3575b612ed081836131d4565b810103126107bf57518e9a919084612ba7565b503d612ec6565b88513d8e823e3d90fd5b9798999a909b612f039061315a565b999897968b90612b48565b85513d8e823e3d90fd5b82843461049657610100366003190112610496576001600160401b0383358181116104de57612f4a9036908601613210565b9160243582811161022157612f629036908701613210565b9160a43560843560643560c4358481116104d657612f839036908b01613210565b9360e4359081116104d657612f9b9036908b01613210565b85548951631eb01f7360e21b815233818d015260209b929792916001600160a01b0391908d908290841681875a92602493f190811561080c57849392918e918e9691613112575b50918491612ff26130289461380f565b612ffb8c6144e8565b916130076117f361491c565b921696519384928392631c0e27e760e11b8452878401526024830190613356565b0381875afa908115613108578d92848e6130506121c68d8b9760649786916122bc5750614734565b519687948593630571df6160e21b85528401528960248401528a60448401525af180156130fc576130a6575b5050916114f99391600080516020614aba8339815191529796959389519788976044359189614376565b8a82813d83116130f5575b6130bb81836131d4565b81010312610496575091600080516020614aba83398151915297969593916130e66114f99694613802565b5091939596978193955061307c565b503d6130b1565b508951903d90823e3d90fd5b8c513d85823e3d90fd5b92939495505081813d8311613153575b61312c81836131d4565b8101031261099a57838c9493928e612ff261314961302895613802565b9294505091612fe2565b503d613122565b6001600160401b03811161316d57604052565b634e487b7160e01b600052604160045260246000fd5b604081019081106001600160401b0382111761316d57604052565b608081019081106001600160401b0382111761316d57604052565b606081019081106001600160401b0382111761316d57604052565b90601f801991011681019081106001600160401b0382111761316d57604052565b6001600160401b03811161316d57601f01601f191660200190565b81601f820112156107bf57803590613227826131f5565b9261323560405194856131d4565b828452602083830101116107bf57816000926020809301838601378301015290565b60a435906001600160a01b03821682036107bf57565b600435906001600160a01b03821682036107bf57565b9080601f830112156107bf578135906001600160401b039283831161316d578260051b604051946020946132b9868401886131d4565b86528480870192840101938085116107bf57858401925b8584106132e1575050505050505090565b83358381116107bf5787916132fb848480948a0101613210565b8152019301926132d0565b9181601f840112156107bf578235916001600160401b0383116107bf57602083818601950101116107bf57565b60005b8381106133465750506000910152565b8181015183820152602001613336565b9060209161336f81518092818552858086019101613333565b601f01601f1916010190565b90600182811c921680156133ab575b602083101461339557565b634e487b7160e01b600052602260045260246000fd5b91607f169161338a565b60405190600082600854916133c98361337b565b8083529260019081811690811561345157506001146133f2575b506133f0925003836131d4565b565b6008600090815291507ff3f7a9fe364faab93b216da50a3214154f22a0a2b415b23a84c8169e8b636ee35b84831061343657506133f09350508101602001386133e3565b81935090816020925483858a0101520191019091859261341d565b9050602092506133f094915060ff191682840152151560051b820101386133e3565b90604051918260008254926134878461337b565b9081845260019485811690816000146134f457506001146134b1575b50506133f0925003836131d4565b9093915060005260209081600020936000915b8183106134dc5750506133f0935082010138806134a3565b855488840185015294850194879450918301916134c4565b9150506133f094506020925060ff191682840152151560051b82010138806134a3565b60001981146135265760010190565b634e487b7160e01b600052601160045260246000fd5b60095481101561357657600960005260011b7f6e1540171b6c0c960b71a7020d9f60077f6af931a8bbf590da0223dacf75c7af0190600090565b634e487b7160e01b600052603260045260246000fd5b600a5481101561357657600a60005260011b7fc65a7bb8d6351c1cf70c95a316cc6a92839c986682d98bc35f958f4883f9d2a80190600090565b6009549060005b8281106135fa57505050604051602081018181106001600160401b0382111761316d576040526000815290565b61361e6136068261353c565b5061361961361385614799565b91613473565b614734565b6136305761362b90613517565b6135cd565b6136499250600191506136429061353c565b5001613473565b90565b1561365357565b60405162461bcd60e51b815260206004820152600d60248201526c23b7bb102327a92124a22222a760991b6044820152606490fd5b90815180825260208092019182818360051b85019501936000915b8483106136b35750505050505090565b90919293949584806136cd83856001950387528a51613356565b98019301930191949392906136a3565b604051906001600160a01b03166136f3826131b9565b602a82526020820160403682378251156135765760309053815160019081101561357657607860218401536029905b8082116137765750506137325790565b606460405162461bcd60e51b815260206004820152602060248201527f537472696e67733a20686578206c656e67746820696e73756666696369656e746044820152fd5b9091600f811660108110156137cf576f181899199a1a9b1b9c1cb0b131b232b360811b901a6137a584866137f1565b5360041c9180156137ba576000190190613722565b60246000634e487b7160e01b81526011600452fd5b60246000634e487b7160e01b81526032600452fd5b9190820180921161352657565b908151811015613576570160200190565b519081151582036107bf57565b1561381657565b60405162461bcd60e51b815260206004820152601860248201527f433343616c6c6572446170703a206f6e6c7943616c6c657200000000000000006044820152606490fd5b80518210156135765760209160051b010190565b61388761388161388c92949394613b44565b936136dd565b614799565b600954909260005b828110613b13575050604051926138aa84613183565b6138b26133b5565b8452602093848101918252600160401b83101561316d576138da60019384810160095561353c565b919091613afd575180516001600160401b039283821161316d578591613900825461337b565b93601f94858111613aad575b508990858311600114613a47576000919083613a3c575b5050600019600383901b1c191690831b1781555b01925195865192831161316d5761394e845461337b565b8281116139f6575b508091831160011461399157508192939495600092613986575b5050600019600383901b1c191690831b17905590565b015190503880613970565b90601f198316968460005282600020926000905b8982106139df57505083869798969596106139c6575b505050811b01905590565b015160001960f88460031b161c191690553880806139bb565b8088859682949686015181550195019301906139a5565b84600052816000208380860160051c820192848710613a33575b0160051c019086905b828110613a27575050613956565b60008155018690613a19565b92508192613a10565b015190503880613923565b90601f19831691846000528b6000209260005b8d828210613a975750509084879594939210613a7e575b505050811b018155613937565b015160001960f88460031b161c19169055388080613a71565b8385015186558c98909501949384019301613a5a565b909192809450600052896000208580850160051c8201928c8610613af4575b908a9695949392910160051c01905b818110613ae8575061390c565b60008155899501613adb565b92508192613acc565b634e487b7160e01b600052600060045260246000fd5b613b2982613619613b238461353c565b50613473565b613b3b57613b3690613517565b613894565b50600093505050565b806000917a184f03e93ff9f4daa797ed6e38ed64bf6a1f01000000000000000080821015613c9e575b506d04ee2d6d415b85acef810000000080831015613c8f575b50662386f26fc1000080831015613c80575b506305f5e10080831015613c71575b5061271080831015613c62575b506064821015613c52575b600a80921015613c48575b60019081602181860195613bdd876131f5565b96613beb60405198896131d4565b808852613bfa601f19916131f5565b01366020890137860101905b613c12575b5050505090565b600019019083906f181899199a1a9b1b9c1cb0b131b232b360811b8282061a835304918215613c4357919082613c06565b613c0b565b9160010191613bca565b9190606460029104910191613bbf565b60049193920491019138613bb4565b60089193920491019138613ba7565b60109193920491019138613b98565b60209193920491019138613b86565b604093508104915038613b6d565b15613cb357565b60405162461bcd60e51b815260206004820152602660248201527f43544d525741303031583a204e6f7420612063726f73732d636861696e20747260448201526530b739b332b960d11b6064820152608490fd5b51906001600160a01b03821682036107bf57565b81601f820112156107bf578051613d31816131f5565b92613d3f60405194856131d4565b818452602082840101116107bf576136499160208085019101613333565b906020828203126107bf5781516001600160401b0381116107bf576136499201613d1b565b15613d8957565b60405162461bcd60e51b815260206004820152602d60248201527f43544d525741303031583a2054617267657420636f6e7472616374206164647260448201526c195cdcc81b9bdd08199bdd5b99609a1b6064820152608490fd5b91613e0e90613e00604093969596606086526060860190613356565b908482036020860152613356565b6001600160a01b03909416910152565b15613e2557565b60405162461bcd60e51b815260206004820152602560248201527f43544d525741303031583a2046726f6d20616e20696e76616c69642043544d52604482015264574130303160d81b6064820152608490fd5b600a5460005b818110613e9057505050600090600090565b613e998161358c565b50613eb6613ea9613887866136dd565b6136196001809401613473565b613ec95750613ec490613517565b613e7e565b939250613ed6915061358c565b505490565b91908260409103126107bf576020613ef283613802565b92015190565b604080516306a2116560e51b81526001600160a01b03831660048083018290529094939192918284602481305afa9384156141ce5760009081956141ac575b5061419e57600a5495600196878101809111614189578451631cfe105160e31b81528481019182523360208381019190915293929091849183918290600090829060400103925af190811561417e57600091614149575b501561413a57613887613fa0916136dd565b9251613fab81613183565b848152818101938452600a54600160401b811015614125578088613fd29201600a5561358c565b919091614111579087915181550192518051926001600160401b0384116140fc5750908291614001855461337b565b601f81116140a7575b5081601f84116001146140425750600092614037575b5050600019600383901b1c191690851b1790559190565b015190503880614020565b9190889450601f1984168660005283600020936000905b82821061408e5750508411614075575b505050811b0190559190565b015160001960f88460031b161c19169055388080614069565b8484015186558b97909501949384019390810190614059565b909192508460005282600020601f850160051c8101918486106140f2575b8594939291601f8b920160051c01915b8281106140e357505061400a565b600081558695508a91016140d5565b90915081906140c5565b604190634e487b7160e01b6000525260246000fd5b600084634e487b7160e01b82525260246000fd5b604184634e487b7160e01b6000525260246000fd5b50505050509050600090600090565b908382813d8311614177575b61415f81836131d4565b81010312610496575061417190613802565b38613f8e565b503d614155565b85513d6000823e3d90fd5b601184634e487b7160e01b6000525260246000fd5b505050509050600090600090565b90506141c6919450833d8511610d3857610d2881836131d4565b939038613f37565b83513d6000823e3d90fd5b156141e057565b60405162461bcd60e51b815260206004820152602f60248201527f43544d525741303031583a2044657374696e6174696f6e20616464726573732060448201526e0d0c2e640f4cae4de40d8cadccee8d608b1b6064820152608490fd5b91908260809103126107bf578151916020810151916060613ef260408401613d07565b6040519061426d8261319e565b60418252602960f81b6060837f6d696e745828737472696e672c737472696e672c737472696e672c75696e743260208201527f35362c75696e743235362c75696e743235362c737472696e672c737472696e6760408201520152565b9591936142f8614315956142ea6136499a989460e08b5260e08b0190613356565b9089820360208b0152613356565b9360408801526060870152608086015284820360a0860152613356565b9160c0818403910152613356565b959193614344614368956142ea6136499a9894610100808c528b0190613356565b93604088015260006060880152608087015260a086015284820360c0860152613356565b9160e0818403910152613356565b9692936143a66136499997936143986143689894610100808d528c0190613356565b908a820360208c0152613356565b9460408901526060880152608087015260a086015284820360c0860152613356565b60ff602f199116019060ff821161352657565b906000808351156144ce5780915b84518310156144c4576143fc83866137f1565b519061440b60f892831c6143c8565b5060ff9160098361442761441f888b6137f1565b51841c6143c8565b16116144ba576144439061443b86896137f1565b51901c6143c8565b9186518581039081116144a65760001981019081116144a657604d81116144a657600a0a92168281029281840414901517156144925761448c91614486916137e4565b92613517565b916143e9565b634e487b7160e01b83526011600452602483fd5b634e487b7160e01b85526011600452602485fd5b5050509250508190565b9350600192915050565b92506001919050565b60ff16600a019060ff821161352657565b602a815103614622576040516144fd81613183565b6014908181526020810192602036853760005b8381106145565750505191516bffffffffffffffffffffffff199283821692808210614542575b505050905060601c90565b849293500360031b1b161680388080614537565b8060011b60029082810482148315171561352657808201809211613526576001600160f81b03199161459590839061458e90876137f1565b5116614672565b90600491821b90610ff060f083169216820361460d57600390810180911161460d579061458e92916145cc8560ff9586938a6137f1565b16019182116145f85750906145f3929160f81b1660001a6145ed82866137f1565b53613517565b614510565b601190634e487b7160e01b6000525260246000fd5b601183634e487b7160e01b6000525260246000fd5b60405162461bcd60e51b815260206004820152602260248201527f43544d525741303031583a20496e76616c69642061646472657373206c656e676044820152610e8d60f31b6064820152608490fd5b60f81c603081101580614729575b1561468e57613649906143c8565b60618110158061471e575b156146b95760ff6146ac606019926144d7565b160160ff81116135265790565b604181101580614713575b6147055760405162461bcd60e51b815260206004820152601560248201527424b73b30b634b2103432bc1031b430b930b1ba32b960591b6044820152606490fd5b60ff6146ac604019926144d7565b5060468111156146c4565b506066811115614699565b506039811115614680565b9060405191826147506020820192602084526040830190613356565b0392614764601f19948581018352826131d4565b5190209161479260405191826147866020820195602087526040830190613356565b039081018352826131d4565b5190201490565b9081516147a5816131f5565b906147b360405192836131d4565b8082526147c2601f19916131f5565b01602090368284013760005b845181101561486f576147e181866137f1565b5190604160f892831c101580614858575b15614831578261480282886137f1565b51831c019160ff83116135265761482c92901b6001600160f81b03191660001a6145ed82866137f1565b6147ce565b61482c91506001600160f81b031961484982886137f1565b511660001a6145ed82866137f1565b50605a61486582886137f1565b51831c11156147f2565b5090925050565b60008054604051631eb01f7360e21b81526001600160a01b0393841660048201529192602091839160249183918791165af19182156148ef5780926148ba57505090565b9091506020823d82116148e7575b816148d5602093836131d4565b81010312610496575061364990613802565b3d91506148c8565b604051903d90823e3d90fd5b908060209392818452848401376000828201840152601f01601f1916010190565b60008054604051636824b6b560e11b81529192908390839060049082906001600160a01b03165afa9182156149c357839084809461495c575b5050929190565b93509350503d8083853e61497081856131d4565b83016060848203126104de578351936020810151906001600160401b03918281116104d657836149a1918301613d1b565b94604082015192831161049657506149ba929101613d1b565b91923880614955565b6040513d85823e3d90fd5b92919060009160018060a01b038354169160015491833b156104da579184602081959382614a49614a269a9b97614a396040519c8d9a8b996304f4c7fb60e31b8b5260048b015260a060248b015260a48a0190613356565b60031995868a83030160448b0152613356565b9084888303016064890152613356565b85810392830160848701525201925af19081156148ef5750614a685750565b6133f09061315a565b600554421015614a8a576003546001600160a01b031690565b6004546001600160a01b03169056fe6050e2c25b5869fcc2d8325771b7fc2d7386bac470b5b49b439d0f1006429fb7c34928714e1fd89875f0f8da58eef016fbe648c6052a0307e94d88df4bed4b67a2646970667358221220f3c6577f4ea8cf8d63767f30cd2843123a12e1e4a11aae3bededae5410c3e1d164736f6c63430008140033",
  "linkReferences": {},
  "deployedLinkReferences": {}
}