{
  "_format": "hh-sol-artifact-1",
  "contractName": "CTMRWA001X",
  "sourceName": "contracts/CTMRWA001X.sol",
  "abi": [
    {
      "inputs": [
        {
          "internalType": "address",
          "name": "_feeManager",
          "type": "address"
        },
        {
          "internalType": "address",
          "name": "_ctmRwa001Deployer",
          "type": "address"
        },
        {
          "internalType": "address",
          "name": "_gov",
          "type": "address"
        },
        {
          "internalType": "address",
          "name": "_c3callerProxy",
          "type": "address"
        },
        {
          "internalType": "address",
          "name": "_txSender",
          "type": "address"
        },
        {
          "internalType": "uint256",
          "name": "_dappID",
          "type": "uint256"
        }
      ],
      "stateMutability": "nonpayable",
      "type": "constructor"
    },
    {
      "anonymous": false,
      "inputs": [
        {
          "indexed": false,
          "internalType": "string",
          "name": "fromChainIdStr",
          "type": "string"
        },
        {
          "indexed": false,
          "internalType": "string",
          "name": "fromContractStr",
          "type": "string"
        },
        {
          "indexed": false,
          "internalType": "string[]",
          "name": "chainIdsStr",
          "type": "string[]"
        },
        {
          "indexed": false,
          "internalType": "string[]",
          "name": "ctmRwa001AddrsStr",
          "type": "string[]"
        }
      ],
      "name": "AddNewChainAndToken",
      "type": "event"
    },
    {
      "anonymous": false,
      "inputs": [
        {
          "indexed": false,
          "internalType": "string",
          "name": "currentAdminStr",
          "type": "string"
        },
        {
          "indexed": false,
          "internalType": "string",
          "name": "newAdminStr",
          "type": "string"
        },
        {
          "indexed": false,
          "internalType": "string",
          "name": "fromChainIdStr",
          "type": "string"
        }
      ],
      "name": "ChangeAdminDest",
      "type": "event"
    },
    {
      "anonymous": false,
      "inputs": [
        {
          "indexed": false,
          "internalType": "address",
          "name": "ctmRwa001Token",
          "type": "address"
        },
        {
          "indexed": false,
          "internalType": "uint256",
          "name": "ID",
          "type": "uint256"
        },
        {
          "indexed": false,
          "internalType": "address",
          "name": "newAdmin",
          "type": "address"
        },
        {
          "indexed": false,
          "internalType": "string",
          "name": "fromChainIdStr",
          "type": "string"
        },
        {
          "indexed": false,
          "internalType": "string",
          "name": "fromContractStr",
          "type": "string"
        }
      ],
      "name": "CreateNewCTMRWA001",
      "type": "event"
    },
    {
      "anonymous": false,
      "inputs": [
        {
          "indexed": true,
          "internalType": "address",
          "name": "oldGov",
          "type": "address"
        },
        {
          "indexed": true,
          "internalType": "address",
          "name": "newGov",
          "type": "address"
        },
        {
          "indexed": true,
          "internalType": "uint256",
          "name": "effectiveTime",
          "type": "uint256"
        },
        {
          "indexed": false,
          "internalType": "uint256",
          "name": "chainID",
          "type": "uint256"
        }
      ],
      "name": "LogChangeGov",
      "type": "event"
    },
    {
      "anonymous": false,
      "inputs": [
        {
          "indexed": false,
          "internalType": "bytes4",
          "name": "selector",
          "type": "bytes4"
        },
        {
          "indexed": false,
          "internalType": "bytes",
          "name": "data",
          "type": "bytes"
        },
        {
          "indexed": false,
          "internalType": "bytes",
          "name": "reason",
          "type": "bytes"
        }
      ],
      "name": "LogFallback",
      "type": "event"
    },
    {
      "anonymous": false,
      "inputs": [
        {
          "indexed": true,
          "internalType": "address",
          "name": "txSender",
          "type": "address"
        },
        {
          "indexed": false,
          "internalType": "bool",
          "name": "vaild",
          "type": "bool"
        }
      ],
      "name": "LogTxSender",
      "type": "event"
    },
    {
      "anonymous": false,
      "inputs": [
        {
          "indexed": false,
          "internalType": "string[]",
          "name": "chainIdsStr",
          "type": "string[]"
        },
        {
          "indexed": false,
          "internalType": "string[]",
          "name": "contractAddrsStr",
          "type": "string[]"
        },
        {
          "indexed": false,
          "internalType": "string",
          "name": "fromContractStr",
          "type": "string"
        },
        {
          "indexed": false,
          "internalType": "string",
          "name": "fromChainIdStr",
          "type": "string"
        }
      ],
      "name": "SetChainContract",
      "type": "event"
    },
    {
      "anonymous": false,
      "inputs": [
        {
          "indexed": false,
          "internalType": "string",
          "name": "fromAddressStr",
          "type": "string"
        },
        {
          "indexed": false,
          "internalType": "string",
          "name": "toAddressStr",
          "type": "string"
        },
        {
          "indexed": false,
          "internalType": "uint256",
          "name": "fromtokenId",
          "type": "uint256"
        },
        {
          "indexed": false,
          "internalType": "uint256",
          "name": "toTokenId",
          "type": "uint256"
        },
        {
          "indexed": false,
          "internalType": "uint256",
          "name": "slot",
          "type": "uint256"
        },
        {
          "indexed": false,
          "internalType": "uint256",
          "name": "value",
          "type": "uint256"
        },
        {
          "indexed": false,
          "internalType": "string",
          "name": "fromCtmRwa001AddrStr",
          "type": "string"
        },
        {
          "indexed": false,
          "internalType": "string",
          "name": "toCtmRwa001AddrStr",
          "type": "string"
        }
      ],
      "name": "TransferFromSourceX",
      "type": "event"
    },
    {
      "anonymous": false,
      "inputs": [
        {
          "indexed": false,
          "internalType": "string",
          "name": "fromAddressStr",
          "type": "string"
        },
        {
          "indexed": false,
          "internalType": "string",
          "name": "toAddressStr",
          "type": "string"
        },
        {
          "indexed": false,
          "internalType": "uint256",
          "name": "fromTokenId",
          "type": "uint256"
        },
        {
          "indexed": false,
          "internalType": "uint256",
          "name": "toTokenId",
          "type": "uint256"
        },
        {
          "indexed": false,
          "internalType": "uint256",
          "name": "slot",
          "type": "uint256"
        },
        {
          "indexed": false,
          "internalType": "uint256",
          "name": "value",
          "type": "uint256"
        },
        {
          "indexed": false,
          "internalType": "string",
          "name": "fromContractStr",
          "type": "string"
        },
        {
          "indexed": false,
          "internalType": "string",
          "name": "ctmRwa001AddrStr",
          "type": "string"
        }
      ],
      "name": "TransferToDestX",
      "type": "event"
    },
    {
      "inputs": [
        {
          "internalType": "string",
          "name": "toChainIdStr_",
          "type": "string"
        },
        {
          "internalType": "string[]",
          "name": "_chainIdsStr",
          "type": "string[]"
        },
        {
          "internalType": "string[]",
          "name": "_otherCtmRwa001AddrsStr",
          "type": "string[]"
        },
        {
          "internalType": "string",
          "name": "_ctmRwa001AddrStr",
          "type": "string"
        }
      ],
      "name": "addNewChainIdAndToken",
      "outputs": [],
      "stateMutability": "payable",
      "type": "function"
    },
    {
      "inputs": [
        {
          "internalType": "string",
          "name": "_adminStr",
          "type": "string"
        },
        {
          "internalType": "uint256",
          "name": "_Id",
          "type": "uint256"
        },
        {
          "internalType": "string[]",
          "name": "_chainIdsStr",
          "type": "string[]"
        },
        {
          "internalType": "string[]",
          "name": "_otherCtmRwa001AddrsStr",
          "type": "string[]"
        },
        {
          "internalType": "string",
          "name": "_fromContractStr",
          "type": "string"
        },
        {
          "internalType": "string",
          "name": "_ctmRwa001AddrStr",
          "type": "string"
        }
      ],
      "name": "addNewChainIdAndTokenX",
      "outputs": [
        {
          "internalType": "bool",
          "name": "",
          "type": "bool"
        }
      ],
      "stateMutability": "nonpayable",
      "type": "function"
    },
    {
      "inputs": [
        {
          "internalType": "address",
          "name": "txSender",
          "type": "address"
        }
      ],
      "name": "addTxSender",
      "outputs": [],
      "stateMutability": "nonpayable",
      "type": "function"
    },
    {
      "inputs": [
        {
          "internalType": "string",
          "name": "_tochainIdStr",
          "type": "string"
        },
        {
          "internalType": "string",
          "name": "_toContractStr",
          "type": "string"
        },
        {
          "internalType": "string[]",
          "name": "_chainIdsStr",
          "type": "string[]"
        },
        {
          "internalType": "string[]",
          "name": "_contractAddrsStr",
          "type": "string[]"
        }
      ],
      "name": "addXChainInfo",
      "outputs": [],
      "stateMutability": "payable",
      "type": "function"
    },
    {
      "inputs": [
        {
          "internalType": "string[]",
          "name": "_chainIdsStr",
          "type": "string[]"
        },
        {
          "internalType": "string[]",
          "name": "_contractAddrsStr",
          "type": "string[]"
        },
        {
          "internalType": "string",
          "name": "_fromContractStr",
          "type": "string"
        }
      ],
      "name": "addXChainInfoX",
      "outputs": [
        {
          "internalType": "bool",
          "name": "",
          "type": "bool"
        }
      ],
      "stateMutability": "nonpayable",
      "type": "function"
    },
    {
      "inputs": [
        {
          "internalType": "string",
          "name": "_currentAdminStr",
          "type": "string"
        },
        {
          "internalType": "string",
          "name": "_newAdminStr",
          "type": "string"
        },
        {
          "internalType": "string",
          "name": "_fromContractStr",
          "type": "string"
        },
        {
          "internalType": "string",
          "name": "_ctmRwa001AddrStr",
          "type": "string"
        }
      ],
      "name": "adminX",
      "outputs": [
        {
          "internalType": "bool",
          "name": "",
          "type": "bool"
        }
      ],
      "stateMutability": "nonpayable",
      "type": "function"
    },
    {
      "inputs": [],
      "name": "c3CallerProxy",
      "outputs": [
        {
          "internalType": "address",
          "name": "",
          "type": "address"
        }
      ],
      "stateMutability": "view",
      "type": "function"
    },
    {
      "inputs": [
        {
          "internalType": "uint256",
          "name": "_dappID",
          "type": "uint256"
        },
        {
          "internalType": "bytes",
          "name": "_data",
          "type": "bytes"
        },
        {
          "internalType": "bytes",
          "name": "_reason",
          "type": "bytes"
        }
      ],
      "name": "c3Fallback",
      "outputs": [
        {
          "internalType": "bool",
          "name": "",
          "type": "bool"
        }
      ],
      "stateMutability": "nonpayable",
      "type": "function"
    },
    {
      "inputs": [],
      "name": "chainIdStr",
      "outputs": [
        {
          "internalType": "string",
          "name": "",
          "type": "string"
        }
      ],
      "stateMutability": "view",
      "type": "function"
    },
    {
      "inputs": [
        {
          "internalType": "string",
          "name": "_newAdminStr",
          "type": "string"
        },
        {
          "internalType": "string",
          "name": "toChainIdStr_",
          "type": "string"
        },
        {
          "internalType": "string",
          "name": "_ctmRwa001AddrStr",
          "type": "string"
        },
        {
          "internalType": "address",
          "name": "feeToken",
          "type": "address"
        }
      ],
      "name": "changeAdminCrossChain",
      "outputs": [
        {
          "internalType": "bool",
          "name": "",
          "type": "bool"
        }
      ],
      "stateMutability": "payable",
      "type": "function"
    },
    {
      "inputs": [
        {
          "internalType": "address",
          "name": "newGov",
          "type": "address"
        }
      ],
      "name": "changeGov",
      "outputs": [],
      "stateMutability": "nonpayable",
      "type": "function"
    },
    {
      "inputs": [
        {
          "internalType": "address",
          "name": "_ctmRwa001Addr",
          "type": "address"
        }
      ],
      "name": "checkAttached",
      "outputs": [
        {
          "internalType": "bool",
          "name": "",
          "type": "bool"
        },
        {
          "internalType": "uint256",
          "name": "",
          "type": "uint256"
        }
      ],
      "stateMutability": "view",
      "type": "function"
    },
    {
      "inputs": [],
      "name": "ctmRwa001Deployer",
      "outputs": [
        {
          "internalType": "address",
          "name": "",
          "type": "address"
        }
      ],
      "stateMutability": "view",
      "type": "function"
    },
    {
      "inputs": [],
      "name": "dappID",
      "outputs": [
        {
          "internalType": "uint256",
          "name": "",
          "type": "uint256"
        }
      ],
      "stateMutability": "view",
      "type": "function"
    },
    {
      "inputs": [],
      "name": "delay",
      "outputs": [
        {
          "internalType": "uint256",
          "name": "",
          "type": "uint256"
        }
      ],
      "stateMutability": "view",
      "type": "function"
    },
    {
      "inputs": [
        {
          "internalType": "bool",
          "name": "includeLocal",
          "type": "bool"
        },
        {
          "internalType": "uint256",
          "name": "_ID",
          "type": "uint256"
        },
        {
          "internalType": "string",
          "name": "tokenName_",
          "type": "string"
        },
        {
          "internalType": "string",
          "name": "symbol_",
          "type": "string"
        },
        {
          "internalType": "uint8",
          "name": "decimals_",
          "type": "uint8"
        },
        {
          "internalType": "string[]",
          "name": "toChainIdsStr_",
          "type": "string[]"
        },
        {
          "internalType": "address",
          "name": "feeToken",
          "type": "address"
        }
      ],
      "name": "deployAllCTMRWA001X",
      "outputs": [],
      "stateMutability": "payable",
      "type": "function"
    },
    {
      "inputs": [
        {
          "internalType": "string",
          "name": "_newAdminStr",
          "type": "string"
        },
        {
          "internalType": "uint256",
          "name": "_ID",
          "type": "uint256"
        },
        {
          "internalType": "string",
          "name": "tokenName_",
          "type": "string"
        },
        {
          "internalType": "string",
          "name": "symbol_",
          "type": "string"
        },
        {
          "internalType": "uint8",
          "name": "decimals_",
          "type": "uint8"
        },
        {
          "internalType": "string",
          "name": "_fromContractStr",
          "type": "string"
        }
      ],
      "name": "deployCTMRWA001",
      "outputs": [
        {
          "internalType": "bool",
          "name": "",
          "type": "bool"
        }
      ],
      "stateMutability": "nonpayable",
      "type": "function"
    },
    {
      "inputs": [
        {
          "internalType": "uint256",
          "name": "_ID",
          "type": "uint256"
        },
        {
          "internalType": "string",
          "name": "tokenName_",
          "type": "string"
        },
        {
          "internalType": "string",
          "name": "symbol_",
          "type": "string"
        },
        {
          "internalType": "uint8",
          "name": "decimals_",
          "type": "uint8"
        }
      ],
      "name": "deployCTMRWA001Local",
      "outputs": [
        {
          "internalType": "address",
          "name": "",
          "type": "address"
        }
      ],
      "stateMutability": "payable",
      "type": "function"
    },
    {
      "inputs": [
        {
          "internalType": "address",
          "name": "txSender",
          "type": "address"
        }
      ],
      "name": "disableTxSender",
      "outputs": [],
      "stateMutability": "nonpayable",
      "type": "function"
    },
    {
      "inputs": [
        {
          "internalType": "string",
          "name": "_to",
          "type": "string"
        },
        {
          "internalType": "string",
          "name": "_toChainID",
          "type": "string"
        },
        {
          "internalType": "bytes",
          "name": "_data",
          "type": "bytes"
        }
      ],
      "name": "doGov",
      "outputs": [],
      "stateMutability": "nonpayable",
      "type": "function"
    },
    {
      "inputs": [
        {
          "internalType": "string[]",
          "name": "_targets",
          "type": "string[]"
        },
        {
          "internalType": "string[]",
          "name": "_toChainIDs",
          "type": "string[]"
        },
        {
          "internalType": "bytes",
          "name": "_data",
          "type": "bytes"
        }
      ],
      "name": "doGovBroadcast",
      "outputs": [],
      "stateMutability": "nonpayable",
      "type": "function"
    },
    {
      "inputs": [],
      "name": "feeManager",
      "outputs": [
        {
          "internalType": "address",
          "name": "",
          "type": "address"
        }
      ],
      "stateMutability": "view",
      "type": "function"
    },
    {
      "inputs": [
        {
          "internalType": "string",
          "name": "_chainIdStr",
          "type": "string"
        }
      ],
      "name": "getChainContract",
      "outputs": [
        {
          "internalType": "string",
          "name": "",
          "type": "string"
        }
      ],
      "stateMutability": "view",
      "type": "function"
    },
    {
      "inputs": [],
      "name": "gov",
      "outputs": [
        {
          "internalType": "address",
          "name": "",
          "type": "address"
        }
      ],
      "stateMutability": "view",
      "type": "function"
    },
    {
      "inputs": [
        {
          "internalType": "uint256",
          "name": "_ID",
          "type": "uint256"
        }
      ],
      "name": "isUniqueId",
      "outputs": [
        {
          "internalType": "bool",
          "name": "",
          "type": "bool"
        }
      ],
      "stateMutability": "view",
      "type": "function"
    },
    {
      "inputs": [
        {
          "internalType": "address",
          "name": "txSender",
          "type": "address"
        }
      ],
      "name": "isValidSender",
      "outputs": [
        {
          "internalType": "bool",
          "name": "",
          "type": "bool"
        }
      ],
      "stateMutability": "view",
      "type": "function"
    },
    {
      "inputs": [
        {
          "internalType": "string",
          "name": "toAddressStr_",
          "type": "string"
        },
        {
          "internalType": "string",
          "name": "toChainIdStr_",
          "type": "string"
        },
        {
          "internalType": "uint256",
          "name": "slot_",
          "type": "uint256"
        },
        {
          "internalType": "uint256",
          "name": "value_",
          "type": "uint256"
        },
        {
          "internalType": "string",
          "name": "_ctmRwa001AddrStr",
          "type": "string"
        },
        {
          "internalType": "address",
          "name": "feeToken",
          "type": "address"
        }
      ],
      "name": "mintNewToken",
      "outputs": [],
      "stateMutability": "payable",
      "type": "function"
    },
    {
      "inputs": [
        {
          "internalType": "string",
          "name": "fromAddressStr_",
          "type": "string"
        },
        {
          "internalType": "string",
          "name": "toAddressStr_",
          "type": "string"
        },
        {
          "internalType": "uint256",
          "name": "fromTokenId_",
          "type": "uint256"
        },
        {
          "internalType": "uint256",
          "name": "toTokenId_",
          "type": "uint256"
        },
        {
          "internalType": "uint256",
          "name": "slot_",
          "type": "uint256"
        },
        {
          "internalType": "uint256",
          "name": "value_",
          "type": "uint256"
        },
        {
          "internalType": "string",
          "name": "_fromContractStr",
          "type": "string"
        },
        {
          "internalType": "string",
          "name": "_ctmRwa001AddrStr",
          "type": "string"
        }
      ],
      "name": "mintX",
      "outputs": [
        {
          "internalType": "bool",
          "name": "",
          "type": "bool"
        }
      ],
      "stateMutability": "nonpayable",
      "type": "function"
    },
    {
      "inputs": [
        {
          "internalType": "string",
          "name": "fromAddressStr_",
          "type": "string"
        },
        {
          "internalType": "string",
          "name": "toAddressStr_",
          "type": "string"
        },
        {
          "internalType": "uint256",
          "name": "fromTokenId_",
          "type": "uint256"
        },
        {
          "internalType": "uint256",
          "name": "slot_",
          "type": "uint256"
        },
        {
          "internalType": "uint256",
          "name": "balance_",
          "type": "uint256"
        },
        {
          "internalType": "string",
          "name": "_fromContractStr",
          "type": "string"
        },
        {
          "internalType": "string",
          "name": "_ctmRwa001AddrStr",
          "type": "string"
        }
      ],
      "name": "mintX",
      "outputs": [
        {
          "internalType": "bool",
          "name": "",
          "type": "bool"
        }
      ],
      "stateMutability": "nonpayable",
      "type": "function"
    },
    {
      "inputs": [
        {
          "internalType": "uint256",
          "name": "_delay",
          "type": "uint256"
        }
      ],
      "name": "setDelay",
      "outputs": [],
      "stateMutability": "nonpayable",
      "type": "function"
    },
    {
      "inputs": [
        {
          "internalType": "string",
          "name": "_str",
          "type": "string"
        }
      ],
      "name": "strToUint",
      "outputs": [
        {
          "internalType": "uint256",
          "name": "res",
          "type": "uint256"
        },
        {
          "internalType": "bool",
          "name": "err",
          "type": "bool"
        }
      ],
      "stateMutability": "pure",
      "type": "function"
    },
    {
      "inputs": [
        {
          "internalType": "string",
          "name": "str",
          "type": "string"
        }
      ],
      "name": "stringToAddress",
      "outputs": [
        {
          "internalType": "address",
          "name": "",
          "type": "address"
        }
      ],
      "stateMutability": "pure",
      "type": "function"
    },
    {
      "inputs": [
        {
          "internalType": "string",
          "name": "a",
          "type": "string"
        },
        {
          "internalType": "string",
          "name": "b",
          "type": "string"
        }
      ],
      "name": "stringsEqual",
      "outputs": [
        {
          "internalType": "bool",
          "name": "",
          "type": "bool"
        }
      ],
      "stateMutability": "pure",
      "type": "function"
    },
    {
      "inputs": [
        {
          "internalType": "uint256",
          "name": "fromTokenId_",
          "type": "uint256"
        },
        {
          "internalType": "string",
          "name": "toAddressStr_",
          "type": "string"
        },
        {
          "internalType": "uint256",
          "name": "toTokenId_",
          "type": "uint256"
        },
        {
          "internalType": "string",
          "name": "toChainIdStr_",
          "type": "string"
        },
        {
          "internalType": "uint256",
          "name": "value_",
          "type": "uint256"
        },
        {
          "internalType": "string",
          "name": "_ctmRwa001AddrStr",
          "type": "string"
        },
        {
          "internalType": "address",
          "name": "feeToken",
          "type": "address"
        }
      ],
      "name": "transferFromX",
      "outputs": [],
      "stateMutability": "payable",
      "type": "function"
    },
    {
      "inputs": [
        {
          "internalType": "uint256",
          "name": "fromTokenId_",
          "type": "uint256"
        },
        {
          "internalType": "string",
          "name": "toAddressStr_",
          "type": "string"
        },
        {
          "internalType": "string",
          "name": "toChainIdStr_",
          "type": "string"
        },
        {
          "internalType": "uint256",
          "name": "value_",
          "type": "uint256"
        },
        {
          "internalType": "string",
          "name": "_ctmRwa001AddrStr",
          "type": "string"
        },
        {
          "internalType": "address",
          "name": "feeToken",
          "type": "address"
        }
      ],
      "name": "transferFromX",
      "outputs": [],
      "stateMutability": "payable",
      "type": "function"
    },
    {
      "inputs": [
        {
          "internalType": "string",
          "name": "toAddressStr_",
          "type": "string"
        },
        {
          "internalType": "string",
          "name": "toChainIdStr_",
          "type": "string"
        },
        {
          "internalType": "uint256",
          "name": "fromTokenId_",
          "type": "uint256"
        },
        {
          "internalType": "string",
          "name": "_ctmRwa001AddrStr",
          "type": "string"
        },
        {
          "internalType": "address",
          "name": "feeToken",
          "type": "address"
        }
      ],
      "name": "transferFromX",
      "outputs": [],
      "stateMutability": "payable",
      "type": "function"
    }
  ],
  "bytecode": "0x60808060405234620002415760c0816200602c803803809162000023828562000246565b8339810103126200024157620000398162000280565b6020916200004983820162000280565b91620000586040830162000280565b90620000676060840162000280565b9360a0620000786080860162000280565b9401519360018060a01b03928380928160018060a01b0319978160009b16898c5416178b556001998a556202a30060025516808860035416176003558760045416176004554260055516875260068852604087208660ff198254161790551683600754161760075516906008541617600855620000f546620002ee565b805192906001600160401b0384116200022d576200011560095462000295565b601f8111620001e1575b508491601f8511600114620001785793945084929190836200016c575b50501b916000199060031b1c1916176009555b6200015b3046620004ca565b5060405161546c908162000bc08239f35b0151925038806200013c565b6009815285812093958591601f198316915b88838310620001c65750505010620001ac575b505050811b016009556200014f565b015160001960f88460031b161c191690553880806200019d565b8587015188559096019594850194879350908101906200018a565b60098352858320601f860160051c81019187871062000222575b601f0160051c019084905b828110620002165750506200011f565b84815501849062000206565b9091508190620001fb565b634e487b7160e01b82526041600452602482fd5b600080fd5b601f909101601f19168101906001600160401b038211908210176200026a57604052565b634e487b7160e01b600052604160045260246000fd5b51906001600160a01b03821682036200024157565b90600182811c92168015620002c7575b6020831014620002b157565b634e487b7160e01b600052602260045260246000fd5b91607f1691620002a5565b6001600160401b0381116200026a57601f01601f191660200190565b806000917a184f03e93ff9f4daa797ed6e38ed64bf6a1f010000000000000000808210156200045f575b506d04ee2d6d415b85acef8100000000808310156200044f575b50662386f26fc10000808310156200043f575b506305f5e100808310156200042f575b50612710808310156200041f575b5060648210156200040e575b600a8092101562000403575b600190816021818601956200039087620002d2565b96620003a0604051988962000246565b808852620003b1601f1991620002d2565b01366020890137860101905b620003ca575b5050505090565b600019019083906f181899199a1a9b1b9c1cb0b131b232b360811b8282061a835304918215620003fd57919082620003bd565b620003c3565b91600101916200037b565b91906064600291049101916200036f565b6004919392049101913862000363565b6008919392049101913862000355565b6010919392049101913862000345565b6020919392049101913862000332565b60409350810491503862000318565b60001981146200047e5760010190565b634e487b7160e01b600052601160045260246000fd5b600a54811015620004b457600a60005260206000209060011b0190600090565b634e487b7160e01b600052603260045260246000fd5b620004d890929192620002ee565b6040805190936001600160a01b0316916001600160401b0390606090818401838111858210176200026a578752602a845260209081850188368237855115620004b45760309053845195600196871015620004b4576078602187015360295b87811162000af1575062000aaf5762000576978551956200055887620002d2565b96620005678351988962000246565b808852601f199a8b91620002d2565b0136858901376000885b620009e7575b5050600a549160005b838110620008cc57505080519381850191858310878411176200026a578290526000600954620005bf8162000295565b808552908a8116908115620008ac575060011462000867575b50620005ed9150859003603f19018262000246565b8352818301948552680100000000000000008110156200026a578086620006189201600a5562000494565b929092620008515751918251908482116200026a5786916200063b825462000295565b94601f95868111620007fc575b5084908683116001146200079357600091908362000787575b5050600019600383901b1c191690831b1781555b0193519687519384116200026a576200068f855462000295565b8381116200073c575b5081928411600114620006d75750508192939495600092620006cb575b5050600019600383901b1c191690831b17905590565b015190503880620006b5565b6000858152828120918516989193925b8982106200072457505083869798969596106200070a575b505050811b01905590565b015160001960f88460031b161c19169055388080620006ff565b808885968294968601518155019501930190620006e7565b85600052826000208480870160051c8201928588106200077d575b0160051c019087905b8281106200077057505062000698565b6000815501879062000760565b9250819262000757565b01519050388062000661565b908b83169184600052866000209260005b88828210620007e55750509084879594939210620007cb575b505050811b01815562000675565b015160001960f88460031b161c19169055388080620007bd565b8385015186558d98909501949384019301620007a4565b909192809450600052846000208680850160051c82019287861062000847575b908b9695949392910160051c01905b8181106200083a575062000648565b600081558a95016200082b565b925081926200081c565b634e487b7160e01b600052600060045260246000fd5b919050600960005284600020858a6000925b8584106200089457505050620005ed925086010138620005d8565b80548a8501860152919092019187918c910162000879565b60ff19168885015250620005ed9290151560051b870101905038620005d8565b620008d78162000494565b50898451809260009080548a620008ee8262000295565b808652958216918215620009c55750506001146200097e575b50620009169250038262000246565b83516200093a8d826200092d8a8201958662000b74565b0390810183528262000246565b5190208b84516200095588820192826200092d888662000b74565b519020146200096f5762000969906200046e565b6200058f565b50600099505050505050505050565b915050600052818780600020928d6000945b828610620009aa5750505062000916928201013862000907565b8091929450548386880101520192019183918d8a9262000990565b60ff1916858201526200091695151560051b8501019250389150620009079050565b815181101562000aa957620009fd818362000b62565b519089604160f893841c10158062000a8f575b1562000a6257508562000a24828562000b62565b51831c019060ff82116200047e578a9262000a5b92901b6001600160f81b03191660001a62000a54828c62000b62565b536200046e565b9062000580565b915062000a5b906001600160f81b031962000a7e828662000b62565b511660001a62000a54828c62000b62565b50605a62000a9e838662000b62565b51841c111562000a10565b62000586565b60648289519062461bcd60e51b825280600483015260248201527f537472696e67733a20686578206c656e67746820696e73756666696369656e746044820152fd5b90600f8116601081101562000b4d576f181899199a1a9b1b9c1cb0b131b232b360811b901a62000b22838962000b62565b5360041c90801562000b38576000190162000537565b60246000634e487b7160e01b81526011600452fd5b60246000634e487b7160e01b81526032600452fd5b908151811015620004b4570160200190565b6020808252825181830181905290939260005b82811062000baa57505060409293506000838284010152601f8019910116010190565b81810186015184820160400152850162000b8756fe6080604052600436101561001257600080fd5b6000803560e01c806306abc35a14613c1057806307cdd390146139ea57806310911df31461370057806310de50b41461328b57806312d43a511461327057806313d199501461321057806315706fdf146131c857806326c724a814612f8f578063321de7be14612ba35780633b12b23914612935578063443c82c31461250c578063472804d9146122e957806358f2c057146122c25780636a42b8f8146122a45780636aacc0a01461223857806375a1f0ee14611fdb57806379751a29146119945780638c69f4dd146116965780639829de511461166d578063a962ef1e14611561578063b121f51d146113e1578063c516ad11146113c3578063c5ef3ec51461137a578063cc6a292c1461133e578063d0fb020314611315578063d326e2b514610e10578063d43a0aa714610a0a578063d4422ca0146109d8578063d60ad41b14610933578063da8e669e14610505578063dd64b3e61461039e578063e177246e1461034c578063eebd14af146102b3578063f01f2b8b14610274578063f9038f10146102405763f9e4cbaf146101a957600080fd5b3461023d57602036600319011261023d576101c2613d4d565b6001600160a01b0390816101d46153ae565b1633148015610229575b6101e79061412c565b1680825260066020526040822060ff1981541690557fbfb8b3e2f6221ae729e9cacb0d35f5d9be686ba10cb1d4e34b646bbb87f7a2696020604051848152a280f35b506101e7610236336151ca565b90506101de565b80fd5b503461023d578060031936011261023d5761027061025c613e95565b604051918291602083526020830190613e36565b0390f35b503461023d57602036600319011261023d5760209060ff906040906001600160a01b0361029f613d4d565b168152600684522054166040519015158152f35b503461023d57602036600319011261023d576102cd613d4d565b6001600160a01b0390816102df6153ae565b1633148015610338575b6102f29061412c565b16808252600660205260408220600160ff198254161790557fbfb8b3e2f6221ae729e9cacb0d35f5d9be686ba10cb1d4e34b646bbb87f7a269602060405160018152a280f35b506102f2610345336151ca565b90506102e9565b503461023d57602036600319011261023d576001600160a01b0361036e6153ae565b163314801561038a575b6103819061412c565b60043560025580f35b50610381610397336151ca565b9050610378565b503461023d576003199060603683011261023d576001600160401b03600435818111610501576103d2903690600401613d63565b926024358281116104fd576103eb903690600401613d63565b916044359081116104fd57610404903690600401613cca565b6001600160a01b0394856104166153ae565b16331480156104e9575b6104299061412c565b80518451036104ca5784958554169060015493823b156104c657869461049a869261047b9661048b6040519a8b998a98899763ec6a8b7d60e01b89526004890152608060248901526084880190614168565b9084878303016044880152614168565b91848303016064850152613e36565b03925af180156104bb576104ab5750f35b6104b490613c2f565b61023d5780f35b6040513d84823e3d90fd5b8680fd5b60405162461bcd60e51b81526020600482015260248101869052604490fd5b506104296104f6336151ca565b9050610420565b8380fd5b8280fd5b50608036600319011261023d576001600160401b039060043582811161092f57610533903690600401613cca565b9060243583811161092f5761054c903690600401613cca565b9260443590811161092f57610565903690600401613cca565b606435936001600160a01b039390919084861686036107f35761059961059361058d46614636565b85615088565b156149a9565b846105a383614e2c565b1690604051966303e1469160e61b885260209788816004818a885af19081156109245787916108ef575b508781163303610896576105e0906141c4565b95806040518095631c0e27e760e11b82528b60048301528180610606602482018c613e36565b03915afa93841561088957819461086d575b5060405163331a8a4b60e21b8152600481018a90529781898061063e602482018b613e36565b0381305afa9889156104bb578299610849575b5061065e895115156148b7565b6007541691808a8861066f46614636565b61068d6040519485938493635865233b60e01b85526004850161496f565b0381875afa90811561083e57908b9291849161080b575b506040516325f076df60e01b815260048101919091526001600160a01b039091166024820152928390818481604481015b03925af19081156107ff57509088916107d1575b5050604051926106f884613c73565b602a8085527f61646d696e5828737472696e672c737472696e672c737472696e672c73747269898601908152696e672c737472696e672960b01b604096870152945194206001600160e01b0319169361075090613c2f565b60405195869489860152602485016080905260a4850161076f91613e36565b91602319928386820301604487015261078791613e36565b8285820301606486015261079a91613e36565b908382030160848401526107ad91613e36565b03601f19810183526107bf9083613c8e565b6107c89261530b565b60405160018152f35b813d83116107f8575b6107e48183613c8e565b810103126107f35786386106e9565b600080fd5b503d6107da565b604051903d90823e3d90fd5b83819492503d8311610837575b6108228183613c8e565b810103126107f35790518a91906106d56106a4565b503d610818565b6040513d85823e3d90fd5b6108669199503d8084833e61085e8183613c8e565b810190614892565b9738610651565b6108829194503d8086833e61085e8183613c8e565b9238610618565b50604051903d90823e3d90fd5b60405162461bcd60e51b8152600481018a9052602b60248201527f43544d525741303031583a204f6e6c792061646d696e2063616e206368616e6760448201526a32903a34329030b236b4b760a91b6064820152608490fd5b90508881813d831161091d575b6109068183613c8e565b810103126104c6576109179061479e565b386105cd565b503d6108fc565b6040513d89823e3d90fd5b5080fd5b503461023d57606036600319011261023d576001600160401b0360043581811161050157610965903690600401613cca565b6024358281116104fd5761097d903690600401613cca565b6044359283116104fd576109986109c1933690600401613cca565b916001600160a01b036109a96153ae565b16331480156109c4575b6109bc9061412c565b61530b565b80f35b506109bc6109d1336151ca565b90506109b3565b503461023d57602036600319011261023d5760406109fc6109f7613d4d565b614a9d565b825191151582526020820152f35b50608036600319011261023d576001600160401b0360043581811161050157610a37903690600401613cca565b6024908135838111610e0c57610a51903690600401613d63565b604435848111610e0857610a69903690600401613d63565b93606435908111610e0857610a82903690600401613cca565b6001600160a01b039182610a9583614e2c565b16916040516303e1469160e61b815260209485826004818d895af1918215610ce0578a92610dcd575b5081163303610d8957610ad0906141c4565b96604051976306a2116560e51b89528460048a01526040898981305afa988915610ce0578a908b9a610d55575b5015610ceb57896040518096631c0e27e760e11b82528860048301528180610b278d82018d613e36565b03915afa948515610ce0578a95610cc4575b5060405163331a8a4b60e21b815260048101879052988a8a80610b5e8c82018c613e36565b0381305afa998a15610cb9578b9a610c9d575b5089511515610b7f906148b7565b60405198610b8c8a613c58565b604d8a52878a01997f6164644e6577436861696e4964416e64546f6b656e5828737472696e672c75698b52604081017f6e743235362c737472696e672c737472696e675b5d2c737472696e675b5d2c7390526060016c7472696e672c737472696e672960981b90526040519963ffffffff60e01b90604d90201699610c1090613c2f565b604051998a988901528701526044860160c0905260e48601610c3191613e36565b926023199384878203016064880152610c4991614168565b83868203016084870152610c5c91614168565b828582030160a4860152610c6f91613e36565b908382030160c4840152610c8291613e36565b03601f1981018352610c949083613c8e565b6109c19261530b565b610cb2919a503d808d833e61085e8183613c8e565b9838610b71565b6040513d8d823e3d90fd5b610cd99195503d808c833e61085e8183613c8e565b9338610b39565b6040513d8c823e3d90fd5b60405162461bcd60e51b815260048101879052603c818a01527f43544d525741303031583a205468652043544d52574130303120636f6e74726160448201527f637420686173206e6f7420796574206265656e206174746163686564000000006064820152608490fd5b9050610d7a91995060403d604011610d82575b610d728183613c8e565b810190614b00565b989038610afd565b503d610d68565b60405162461bcd60e51b815260048101869052601f818901527f43544d525741303031583a204f6e6c792061646d696e2066756e6374696f6e006044820152606490fd5b9091508581813d8311610e01575b610de58183613c8e565b81010312610dfd57610df69061479e565b9038610abe565b8980fd5b503d610ddb565b8580fd5b8480fd5b5060a036600319011261023d576001600160401b0360043581811161050157610e3d903690600401613cca565b6024918235818111610e0c57610e57903690600401613cca565b9260443591606435908111610e0857610e74903690600401613cca565b6001600160a01b03926084359084821682036107f357610e9f610593610e9946614636565b89615088565b84610ea984614e2c565b60405163430c208160e01b8152336004820152602481018490526020949190921692918481604481875afa908115610cb9578b916112dc575b501561127a57610ef1336141c4565b96600754169080858b610f0346614636565b610f216040519586938493635865233b60e01b85526004850161496f565b0381865afa801561126f5786928d9161123c575b506040516325f076df60e01b815260048101919091526001600160a01b039091166024820152918290818d81604481015b03925af1908115610ce0578491611213575b505060405163331a8a4b60e21b81526004810184905294898680610f9e8482018d613e36565b0381305afa958615610ce0578a966111f7575b50610fbe865115156148b7565b604051631c0e27e760e11b815260048101859052958a8780610fe28582018e613e36565b0381875afa968715610cb9578b976111db575b5060405163463d31d760e11b815260048101849052948b6080878581895afa95861561088957819782976111a3575b50803b1561092f5760405163968e8a1360e01b815260006004820152858101879052828160448183865af190811561083e57839161118f575b5050803b1561092f576040516301d485d560e21b8152600481018790528281878183865af190811561083e57839161117b575b5050803b1561092f5760405163404b6e9f60e01b8152336004820152602481018790529082908290604490829084905af180156104bb57611153575b5050916000805160206153d78339815191529a611141926109bc86956111338c8f9c8f9c61114d9f9e9c809c839f9e839f611105614ba4565b9c6111236040519e63ffffffff60e01b908c8151910120169e613c2f565b6040519d8e9a8b01528901614c0d565b03601f198101855284613c8e565b60405197889788614c67565b0390a180f35b61116590999897969594929399613c2f565b61117757919293949596908b386110cc565b8b80fd5b61118490613c2f565b61092f578138611090565b61119890613c2f565b61092f57813861105d565b9096506111c891975060803d81116111d4575b6111c08183613c8e565b810190614b81565b98925050969538611024565b503d6111b6565b6111f09197503d808d833e61085e8183613c8e565b9538610ff5565b61120c9196503d808c833e61085e8183613c8e565b9438610fb1565b813d8311611235575b6112268183613c8e565b810103126107f3578238610f78565b503d61121c565b83819492503d8311611268575b6112538183613c8e565b810103126107f3579051859190610f66610f35565b503d611249565b6040513d8e823e3d90fd5b60405162461bcd60e51b8152600481018590526035818801527f43544d525741303031583a207472616e736665722063616c6c6572206973206e6044820152741bdd081bdddb995c881b9bdc88185c1c1c9bdd9959605a1b6064820152608490fd5b90508481813d831161130e575b6112f38183613c8e565b8101031261130a57611304906142e9565b38610ee2565b8a80fd5b503d6112e9565b503461023d578060031936011261023d576007546040516001600160a01b039091168152602090f35b503461023d57602036600319011261023d57600435906001600160401b03821161023d5761027061025c6113753660048601613cca565b6140a6565b503461023d57602036600319011261023d57600435906001600160401b03821161023d5760406113b56113b03660048601613cca565b614d1f565b825191825215156020820152f35b503461023d578060031936011261023d576020600154604051908152f35b503461023d5760031960603682011261092f576001600160401b036024358181116104fd57611414903690600401613de6565b9091604435908111610e0c5761142e903690600401613de6565b9190928560018060a01b0381541660405190631eb01f7360e21b82523360048301528160248160209b8c945af180156104bb57829061152b575b61147291506142f6565b600154600435036114f4578260041161023d5750927fd1b411598268892b6836c5b922cfa272124f6f0bd3a7cf9f9d408f7e50f2230194926114da6114e89360049660405197889763ffffffff60e01b833516895260608c8a01526060890193019101615243565b918483036040860152615243565b0390a160405160018152f35b60405162461bcd60e51b815260048101889052600f60248201526e0c8c2e0e0928840c8d2e6dac2e8c6d608b1b6044820152606490fd5b508781813d831161155a575b6115418183613c8e565b8101031261092f57611555611472916142e9565b611468565b503d611537565b503461023d57602036600319011261023d5761157b613d4d565b6001600160a01b039081908161158f6153ae565b1633148015611659575b6115a29061412c565b16908115611622576115b26153ae565b16600354907f4552e521eca39a029d33503b3e2003db87de01f8396f9e3fdd9dddddb9b838b460206bffffffffffffffffffffffff60a01b92808486161760035585600454948516176004558661160b600254426142cb565b96876005558160405196468852161795161792a480f35b60405162461bcd60e51b815260206004820152600f60248201526e6e6577476f7620697320656d70747960881b6044820152606490fd5b506115a2611666336151ca565b9050611599565b503461023d578060031936011261023d576008546040516001600160a01b039091168152602090f35b503461023d5760c036600319011261023d576001600160401b039060043582811161092f576116c9903690600401613cca565b602435906044358481116104fd576116e5903690600401613cca565b606435858111610e0c576116fd903690600401613cca565b90611706613d11565b9560a435908111610e08579061172186923690600401613cca565b9660018060a01b03948584541660405190631eb01f7360e21b82523360048301528160248160209c8d945af190811561198957918893918a938791611946575b509061176f611774926142f6565b614e2c565b93611788611780615264565b5090506150ed565b96868960085416926117b16040519788968795869462d3fec560e61b86523093600487016147b2565b03925af190811561083e57908591849161190e575b50604051631cfe105160e31b815260048101889052336024820152911694908781604481878a5af180156119035784906118cd575b61180591506147f9565b6040516303c1987560e51b815291166004820181905291868260248184895af180156108895761187b575b50509461186d6114e8926000805160206153f78339815191529697604051968796875289870152604086015260a0606086015260a0850190613e36565b908382036080850152613e36565b8682813d83116118c6575b6118908183613c8e565b8101031261023d57506114e8926000805160206153f78339815191529697926118bb61186d936142e9565b509297965092611830565b503d611886565b508781813d83116118fc575b6118e38183613c8e565b810103126104fd576118f7611805916142e9565b6117fb565b503d6118d9565b6040513d86823e3d90fd5b809250888092503d831161193f575b6119278183613c8e565b8101031261050157611939859161479e565b386117c6565b503d61191d565b929450509181813d8311611982575b61195f8183613c8e565b81010312610e0c5791611774899261176f61197a8b966142e9565b919250611761565b503d611955565b6040513d87823e3d90fd5b5060031960e03682011261092f57600435908115158203610501576001600160401b0390604435828111610e0c576119d0903690600401613cca565b606435838111610e08576119e8903690600401613cca565b916119f1613d11565b9360a4359081116104c657611a0a903690600401613d63565b611a12613d21565b918151968715611f875715611e94576040516310911df360e01b8152602480356004830152608090820152908190611a6190611a516084840188613e36565b9083820301604484015287613e36565b60ff8816606483015281602092839203818c305af1918215611e89578992611e52575b506040516303c1987560e51b81523360048201529080826024818d6001600160a01b0388165af18015610ce057611e14575b5050611ac4611ac9916141c4565b6150ed565b915b6007546001600160a01b031688805b898110611d7c57506040516325f076df60e01b815260048101919091526001600160a01b03929092166024830152602090829060449082908c905af18015611d7157611d46575b50865b868110611b2f578780f35b611b398183614342565b5190611b50610593611b4a46614636565b84615088565b8860206001600160a01b03611b6487614e2c565b166004604051809481936303e1469160e61b83525af18015610ce0578a90611d0b575b611ba59150611ba0336001600160a01b03831614614919565b6141c4565b60405163331a8a4b60e21b815260206004820152908a8280611bca6024820188613e36565b0381305afa938415610cb957611cec94611ce7938d91611cf1575b50611bf2815115156148b7565b6109bc8a6111338d8c60ff611cd160405195611c0d87613c58565b611c84604397888152626e672960e81b606060208301927f6465706c6f7943544d52574130303128737472696e672c737472696e672c756984527f6e743235362c737472696e672c737472696e672c75696e743235362c73747269604082015201526040519863ffffffff60e01b91201697613c2f565b611cc1611ca66040519c8d9960208b015260c060248b015260e48a0190613e36565b60243560448a015260231995868a83030160648b0152613e36565b9084888303016084890152613e36565b921660a48501528382030160c48401528b613e36565b613ff7565b611b24565b611d0591503d808f833e61085e8183613c8e565b38611be5565b506020813d602011611d3e575b81611d2560209383613c8e565b81010312610dfd57611d39611ba59161479e565b611b87565b3d9150611d18565b602090813d8311611d6a575b611d5c8183613c8e565b810103126107f35738611b21565b503d611d52565b6040513d8a823e3d90fd5b90836020611d8946614636565b611d938589614342565b51604051635865233b60e01b81529384928392611db492916004850161496f565b0381875afa90811561126f578c91611de0575b50611dd590611ddb926142cb565b91613ff7565b611ada565b90506020813d602011611e0c575b81611dfb60209383613c8e565b810103126107f35751611ddb611dc7565b3d9150611dee565b81813d8311611e4b575b611e288183613c8e565b81010312611e4757611ac991611e40611ac4926142e9565b5091611ab6565b8880fd5b503d611e1e565b9080925081813d8311611e82575b611e6a8183613c8e565b81010312611e4757611e7b9061479e565b9038611a84565b503d611e60565b6040513d8b823e3d90fd5b50611ec59187611ea346614636565b6040518095819263331a8a4b60e21b8352602060048401526024830190613e36565b0381305afa928315611d71578893611f6b575b5087611efc602085611eec815115156148b7565b6001600160a01b03928391614e2c565b166004604051809581936303e1469160e61b83525af18015610ce0578a90611f31575b611f2c9250163314614919565b611acb565b506020823d8211611f63575b81611f4a60209383613c8e565b81010312610dfd57611f5e611f2c9261479e565b611f1f565b3d9150611f3d565b611f809193503d808a833e61085e8183613c8e565b9138611ed8565b60405162461bcd60e51b815260206004820152602660248201527f43544d525741303031583a205a65726f206c656e67746820746f436861696e4960448201526564735374725f60d01b6064820152608490fd5b503461023d57606036600319011261023d576001600160401b039060043582811161092f5761200e903690600401613d63565b91602480358281116104fd57612028903690600401613d63565b6044928335908111610e0c57612042903690600401613cca565b948460018060a01b0381541660405190631eb01f7360e21b825233600483015281868160209a8b945af180156104bb578290612202575b61208391506142f6565b61208e611780615264565b905b8251811015612193576120ac6120a68285614342565b51614d1f565b8061218a575b15612147576120ca6120c48387614342565b51614e2c565b904681036120e3575b50506120de90613ff7565b612090565b906120ed91614356565b156120f95738806120d3565b60405162461bcd60e51b8152600481018890526022818701527f43544d525741303031583a205f61646458436861696e496e666f58206661696c8188015261195960f21b6064820152608490fd5b60405162461bcd60e51b815260048101899052601b818801527f43544d525741303031583a20496c6c6567616c20636861696e4964000000000081890152606490fd5b508015156120b2565b867f8723f273745543d7f7acc5a1717b1601664f11a2bb7474128343791fb817cbe56121d9856114e8866121f48e6121e68c604051978897608089526080890190614168565b908782038b890152614168565b908582036040870152613e36565b908382036060850152613e36565b508681813d8311612231575b6122188183613c8e565b8101031261092f5761222c612083916142e9565b612079565b503d61220e565b5060c036600319011261023d576001600160401b0360043581811161050157612265903690600401613cca565b506024358181116105015761227e903690600401613cca565b5060843590811161092f57612297903690600401613cca565b506122a0613d37565b5080f35b503461023d578060031936011261023d576020600254604051908152f35b503461023d578060031936011261023d57546040516001600160a01b039091168152602090f35b50608036600319011261023d576001600160401b0360043581811161050157612316903690600401613cca565b906024358181116104fd5761232f903690600401613cca565b91604435828111610e0c57612348903690600401613d63565b91606435908111610e0c57612361903690600401613d63565b926001600160a01b036123726153ae565b16331480156124f8575b6123859061412c565b8251156124a7578251845103612443576109bc6109c1946111336123a8306141c4565b91604051926123b684613c73565b602f84527f61646458436861696e496e666f5828737472696e672c737472696e675b5d2c7360208501526e7472696e675b5d2c737472696e672960881b604094850152925163284728ed60e21b939061240e90613c2f565b61048b612430604051998a966020880152606060248801526084870190614168565b6023199384878303016044880152614168565b60405162461bcd60e51b815260206004820152603660248201527f43544d525741303031583a204c656e677468206d69736d6174636820636861696044820152756e49647320616e6420636f6e7472616374416464727360501b6064820152608490fd5b60405162461bcd60e51b8152602060048201526024808201527f43544d525741303031583a205a65726f206c656e677468205f636861696e496460448201526339a9ba3960e11b6064820152608490fd5b50612385612505336151ca565b905061237c565b503461023d5760031960c03682011261092f576001600160401b036004358181116104fd5761253f903690600401613cca565b90604435818111610e0c57612558903690600401613d63565b606435828111610e0857612570903690600401613d63565b918560843582811161092f5761258a903690600401613cca565b9160a43590811161092f576125a3903690600401613cca565b8154604051631eb01f7360e21b8152336004820152602499602099936001600160a01b03939092918b9183918e9183919088165af180156119895785906128ff575b6125ef91506142f6565b8161260d612607612601611780615264565b9a614e2c565b92614e2c565b1691604051916303e1469160e61b83528a8360048189885af19283156128f45786936128bc575b5081169116810361285c576040516306a2116560e51b81528260048201526040818c81305afa8015611989578591869161283b575b5081612830575b50156127cd5788918a856060936126b96040519788968795869463a6a2d1dd60e01b865260048601528401526126a9606484018d614168565b908382030160448401528c614168565b03925af19182156107ff578092612795575b50501561274057612717926127327f0c55df6a0b75f1b5afffec4a402e7f9d52fa9f2571f84e51e783a1f7c06f336a95936127246114e894604051978897608089526080890190613e36565b908782038b890152613e36565b908582036040870152614168565b908382036060850152614168565b60405162461bcd60e51b8152600481018690526028818801527f43544d525741303031583a206164644e6577436861696e4964416e64546f6b656044820152671b8819985a5b195960c21b6064820152608490fd5b9091508682813d83116127c6575b6127ad8183613c8e565b8101031261023d57506127bf906142e9565b38806126cb565b503d6127a3565b60405162461bcd60e51b8152600481018a90526036818c01527f43544d525741303031583a20496e636f7272656374206f7220756e61747461636044820152751a19590810d5135495d04c0c0c4818dbdb9d1c9858dd60521b6064820152608490fd5b90508a351438612670565b9050612856915060403d604011610d8257610d728183613c8e565b38612669565b60405162461bcd60e51b8152600481018a90526033818c01527f43544d525741303031583a204e6f2061646d696e2061636365737320746f2061604482015272646420636861696e732f636f6e74726163747360681b6064820152608490fd5b9092508a81813d83116128ed575b6128d48183613c8e565b81010312610e08576128e6829161479e565b9290612634565b503d6128ca565b6040513d88823e3d90fd5b508981813d831161292e575b6129158183613c8e565b81010312610e0c576129296125ef916142e9565b6125e5565b503d61290b565b503461023d57608036600319011261023d576001600160401b0360043581811161050157612967903690600401613cca565b906024358181116104fd57612980903690600401613cca565b604435828111610e0c57612998903690600401613cca565b91606435908111610e0c576129b1903690600401613cca565b918460018060a01b03938482541660405190631eb01f7360e21b82523360048301528160248160209b8c945af190811561083e578391612b65575b509061176f6129fa926142f6565b93612a0484614e2c565b81612a10611780615264565b961693604051631c0e27e760e11b8152896004820152848180612a36602482018c613e36565b0381895afa90811561198957612a5d6024938c969593612a62938991612b4b575b50615088565b614a04565b8460405196879485936303c1987560e51b85521660048401525af1801561088957612ae5575b857f14cf4818ffaf499810bbce5d0f41b82e988e8746fe5a8dcca1f2664dd66c4336612aca876114e888612ad789604051958695606087526060870190613e36565b9085820389870152613e36565b908382036040850152613e36565b8582813d8311612b44575b612afa8183613c8e565b8101031261023d5750612aca92612ad77f14cf4818ffaf499810bbce5d0f41b82e988e8746fe5a8dcca1f2664dd66c43369593612b396114e8946142e9565b509395505092612a88565b503d612af0565b612b5f91503d808b833e61085e8183613c8e565b38612a57565b90508781813d8311612b9c575b612b7c8183613c8e565b81010312610501579061176f612b946129fa936142e9565b9192506129ec565b503d612b72565b5060c036600319011261023d5760043560246001600160401b038135818111610e0c57612bd4903690600401613cca565b91604435828111610e0857612bed903690600401613cca565b91606435906084359081116104c657612c0a903690600401613cca565b90612c13613d37565b93612c29610593612c2346614636565b83615088565b6001600160a01b039687612c3c85614e2c565b1694853b15610dfd5760405163224e83b960e11b815233600482015260248101839052604481018590528a908181606481838c5af180156104bb57612f7b575b5050600492612c8d89511515614b1d565b8a612c97336141c4565b986040519b63331a8a4b60e21b8d528c60209788910152828d80612cbd88820188613e36565b0381305afa9c8d1561083e57839d612f59575b508190612cdf8e5115156148b7565b600754168785612cee46614636565b612d0c6040519687938493635865233b60e01b85526004850161496f565b0381845afa80156119035788938591612f21575b506040516325f076df60e01b815260048101919091526001600160a01b0390921660248301529092839190829081604481015b03925af190811561126f578591612ef8575b505060405163463d31d760e11b8152600481018490529360808584818b5afa94851561126f578c95612ed4575b508b60405198631c0e27e760e11b8a528260048b0152818a80612db788820188613e36565b0381845afa998a156104bb57829a612eb6575b5082906044604051809481936349178b2560e01b83528a60048401528c8a8401525af18015612eab57612e30575b5091611141916000805160206153d78339815191529b6109bc86956111338c8f9c8f9c61114d9f9e9c809c839f9e839f611105614ba4565b97969594939290918289813d8311612ea4575b612e4d8183613c8e565b81010312612ea0576000805160206153d78339815191529b6109bc611141946111338b8f8f61114d9f8b8f938f938f93612e86906142e9565b5050505050505050509395969798999a50509b5091612df8565b8c80fd5b503d612e43565b6040513d8f823e3d90fd5b83919a50612ecd903d8085833e61085e8183613c8e565b9990612dca565b612eed91955060803d81116111d4576111c08183613c8e565b925050509338612d92565b813d8311612f1a575b612f0b8183613c8e565b810103126107f3578338612d65565b503d612f01565b93809295508491503d8311612f52575b612f3b8183613c8e565b810103126107f357612d53928e8893519094612d20565b503d612f31565b612cdf9d5090612f7383923d8087833e61085e8183613c8e565b9d5090612cd0565b612f8490613c2f565b610dfd578938612c7c565b503461023d5760e036600319011261023d576001600160401b0360043581811161050157612fc1903690600401613cca565b6024358281116104fd57612fd9903690600401613cca565b606435926084359060a4358181116104c657612ff9903690600401613cca565b9060c4359081116104c657613012903690600401613cca565b918660018060a01b038082541660405190631eb01f7360e21b82523360048301528160248160209d8e945af1801561083e578390613192575b61305591506142f6565b613060611780615264565b9061309d8361306e88614e2c565b926130788a614e2c565b9316938c6040519384928392631c0e27e760e11b845260048401526024830190613e36565b0381865afa90811561190357928a858d946130c7612a5d8b8b976131029a869161317e5750615088565b60405163bff2ed7160e01b81526001600160a01b03909116600482015260248101929092526044820193909352938492839182906064820190565b03925af19182156107ff579161313b575b5090600080516020615417833981519152966114e89493926040519788976044359189614cba565b93929190508784813d8311613177575b6131558183613c8e565b810103126107f357925191929091600080516020615417833981519152613113565b503d61314b565b612b5f91503d8088833e61085e8183613c8e565b508981813d83116131c1575b6131a88183613c8e565b81010312610501576131bc613055916142e9565b61304b565b503d61319e565b503461023d57602036600319011261023d57600435906001600160401b03821161023d5760206131fe61176f3660048601613cca565b6040516001600160a01b039091168152f35b503461023d57604036600319011261023d576001600160401b0360043581811161050157613242903690600401613cca565b9160243591821161023d576020613266846132603660048701613cca565b90615088565b6040519015158152f35b503461023d578060031936011261023d5760206131fe6153ae565b5060e036600319011261023d576001600160401b03602480358281116104fd576132b9903690600401613cca565b90606435838111610e0c576132d2903690600401613cca565b9260a435908111610e0c576132eb903690600401613cca565b926132f4613d21565b93613304610593611b4a46614636565b6001600160a01b03928361331783614e2c565b1692833b156136fc5760405163224e83b960e11b81523360048083019190915235602482018190526084356044830181905290989093918a81606481838b5af18015610cb9576136e7575b50899183916133738a511515614b1d565b61337c336141c4565b98600754169061338b46614636565b9160405192635865233b60e01b845283806133ae8560209b8c956004850161496f565b0381845afa80156128f457879387916136b0575b506040516325f076df60e01b815260048101919091526001600160a01b0390921660248301529091908290818781604481015b03925af1908115611903578591613681575b505060405163331a8a4b60e21b8152600481018590529183838061342d85820185613e36565b0381305afa928315611903578493613665575b5061344d835115156148b7565b60405163463d31d760e11b8152600481018c90529460808684818c5afa958615611989578596613641575b50604051631c0e27e760e11b81526004810182905298858a8061349d87820187613e36565b0381845afa998a156128f4578d90879b61361e575b50906044839260405198899384926349178b2560e01b845260048401528c898401525af1948515612eab578989898f968f99908f958c926135d7575b50604051986134fc8a613c58565b60498a52878a01997f6d696e745828737472696e672c737472696e672c737472696e672c75696e74328b52604081017f35362c75696e743235362c75696e743235362c75696e743235362c737472696e905260600168672c737472696e672960b81b90526040519963ffffffff60e01b9060499020169961357c90613c2f565b604051998a988901526044359b8c9289019761359798614cba565b03601f19810183526135a99083613c8e565b6135b29261530b565b6040519788976135c29789614cba565b036000805160206153d783398151915291a180f35b9a50975050505050508085813d8311613617575b6135f58183613c8e565b81010312612ea057898989898f968f99906136108c926142e9565b50386134ee565b503d6135eb565b8392919b506136386044913d808b833e61085e8183613c8e565b9b9192506134b2565b61365a91965060803d81116111d4576111c08183613c8e565b925050509438613478565b61367a9193503d8086833e61085e8183613c8e565b9138613440565b90809294503d83116136a9575b6136988183613c8e565b810103126107f35789918338613407565b503d61368e565b929650509181813d83116136e0575b6136c98183613c8e565b810103126107f357518c94869290916133f56133c2565b503d6136bf565b996136f48492939b613c2f565b999190613362565b8780fd5b50608036600319011261023d57600435602435916001600160401b039283811161092f57613732903690600401613cca565b9260443590811161092f5761374b903690600401613cca565b60643560ff8116810361050157604051630355e1ad60e11b815260048101859052602095908681602481305afa9081156119895785916139b5575b501561394a5760085460405162d3fec560e61b81526001600160a01b03949093889385938716928492899284926137c69230929091908e600487016147b2565b03925af190811561083e578391613915575b50604051631cfe105160e31b81526004810185905233602482015291169290848160448186885af1801561083e5783906138df575b61381791506147f9565b6040516303c1987560e51b815233600482015291848360248184885af1801561088957908591613898575b6000805160206153f7833981519152935061388161385f46614636565b604051948786528486015233604086015260a0606086015260a0850190613e36565b9083820391826080860152520190a1604051908152f35b91929081813d83116138d8575b6138af8183613c8e565b8101031261092f576000805160206153f783398151915292916138d286926142e9565b50613842565b503d6138a5565b508481813d831161390e575b6138f58183613c8e565b8101031261050157613909613817916142e9565b61380d565b503d6138eb565b90508481813d8311613943575b61392c8183613c8e565b810103126105015761393d9061479e565b386137d8565b503d613922565b60405162461bcd60e51b815260048101879052603860248201527f43544d525741303031583a2041206c6f63616c20636f6e74726163742077697460448201527f68207468697320494420616c72656164792065786973747300000000000000006064820152608490fd5b90508681813d83116139e3575b6139cc8183613c8e565b81010312610e0c576139dd906142e9565b38613786565b503d6139c2565b503461023d5761010036600319011261023d576001600160401b039060043582811161092f57613a1e903690600401613cca565b60243583811161050157613a36903690600401613cca565b6064359360a43560843560c4358381116104c657613a58903690600401613cca565b9260e4359081116104c657613a71903690600401613cca565b968660018060a01b038082541660405190631eb01f7360e21b82523360048301528160248160209d8e945af1801561083e578390613bda575b613ab491506142f6565b613af282613ac18c614e2c565b92613acd611780615264565b9316928b6040519384928392631c0e27e760e11b845260048401526024830190613e36565b0381855afa90811561083e5791613b16612a5d898d9487968791613bc65750615088565b606460405180958193630571df6160e21b83528860048401528960248401528a60448401525af1801561088957613b72575b5050916114e893916000805160206154178339815191529798936040519788976044359189614cba565b8882813d8311613bbf575b613b878183613c8e565b8101031261023d57509160008051602061541783398151915297989391613bb16114e896946142e9565b509193989781939550613b48565b503d613b7d565b612b5f91503d8089833e61085e8183613c8e565b508981813d8311613c09575b613bf08183613c8e565b8101031261050157613c04613ab4916142e9565b613aaa565b503d613be6565b503461023d57602036600319011261023d576020613266600435614a5e565b6001600160401b038111613c4257604052565b634e487b7160e01b600052604160045260246000fd5b608081019081106001600160401b03821117613c4257604052565b606081019081106001600160401b03821117613c4257604052565b90601f801991011681019081106001600160401b03821117613c4257604052565b6001600160401b038111613c4257601f01601f191660200190565b81601f820112156107f357803590613ce182613caf565b92613cef6040519485613c8e565b828452602083830101116107f357816000926020809301838601378301015290565b6084359060ff821682036107f357565b60c435906001600160a01b03821682036107f357565b60a435906001600160a01b03821682036107f357565b600435906001600160a01b03821682036107f357565b9080601f830112156107f3578135906001600160401b0392838311613c42578260051b60405194602094613d9986840188613c8e565b86528480870192840101938085116107f357858401925b858410613dc1575050505050505090565b83358381116107f3578791613ddb848480948a0101613cca565b815201930192613db0565b9181601f840112156107f3578235916001600160401b0383116107f357602083818601950101116107f357565b60005b838110613e265750506000910152565b8181015183820152602001613e16565b90602091613e4f81518092818552858086019101613e13565b601f01601f1916010190565b90600182811c92168015613e8b575b6020831014613e7557565b634e487b7160e01b600052602260045260246000fd5b91607f1691613e6a565b6040519060008260095491613ea983613e5b565b80835292600190818116908115613f315750600114613ed2575b50613ed092500383613c8e565b565b6009600090815291507f6e1540171b6c0c960b71a7020d9f60077f6af931a8bbf590da0223dacf75c7af5b848310613f165750613ed0935050810160200138613ec3565b81935090816020925483858a01015201910190918592613efd565b905060209250613ed094915060ff191682840152151560051b82010138613ec3565b9060405191826000825492613f6784613e5b565b908184526001948581169081600014613fd45750600114613f91575b5050613ed092500383613c8e565b9093915060005260209081600020936000915b818310613fbc575050613ed093508201013880613f83565b85548884018501529485019487945091830191613fa4565b915050613ed094506020925060ff191682840152151560051b8201013880613f83565b60001981146140065760010190565b634e487b7160e01b600052601160045260246000fd5b600a5481101561405657600a60005260011b7fc65a7bb8d6351c1cf70c95a316cc6a92839c986682d98bc35f958f4883f9d2a80190600090565b634e487b7160e01b600052603260045260246000fd5b600b5481101561405657600b60005260011b7f0175b7a638427703f0dbe7bb9bbf987a2551717b34e79f33b5b1008d1fa01db90190600090565b600a549060005b8281106140da57505050604051602081018181106001600160401b03821117613c42576040526000815290565b6140fe6140e68261401c565b506140f96140f3856150ed565b91613f53565b615088565b6141105761410b90613ff7565b6140ad565b6141299250600191506141229061401c565b5001613f53565b90565b1561413357565b60405162461bcd60e51b815260206004820152600d60248201526c23b7bb102327a92124a22222a760991b6044820152606490fd5b908082519081815260208091019281808460051b8301019501936000915b8483106141965750505050505090565b90919293949584806141b4600193601f198682030187528a51613e36565b9801930193019194939290614186565b604051906001600160a01b03166141da82613c73565b602a82526020820160403682378251156140565760309053815160019081101561405657607860218401536029905b80821161425d5750506142195790565b606460405162461bcd60e51b815260206004820152602060248201527f537472696e67733a20686578206c656e67746820696e73756666696369656e746044820152fd5b9091600f811660108110156142b6576f181899199a1a9b1b9c1cb0b131b232b360811b901a61428c84866142d8565b5360041c9180156142a1576000190190614209565b60246000634e487b7160e01b81526011600452fd5b60246000634e487b7160e01b81526032600452fd5b9190820180921161400657565b908151811015614056570160200190565b519081151582036107f357565b156142fd57565b60405162461bcd60e51b815260206004820152601860248201527f433343616c6c6572446170703a206f6e6c7943616c6c657200000000000000006044820152606490fd5b80518210156140565760209160051b010190565b611ac461436861436e92949394614636565b936141c4565b600a54909260005b82811061460557505060405192604084016001600160401b039085811082821117613c42576040526143a6613e95565b855260209485810192835268010000000000000000841015613c42576143d3600194858101600a5561401c565b9190916145ef575190815190838211613c425785916143f28254613e5b565b93601f9485811161459f575b50899085831160011461453957600091908361452e575b5050600019600383901b1c191690831b1781555b019251958651928311613c42576144408454613e5b565b8281116144e8575b508091831160011461448357508192939495600092614478575b5050600019600383901b1c191690831b17905590565b015190503880614462565b90601f198316968460005282600020926000905b8982106144d157505083869798969596106144b8575b505050811b01905590565b015160001960f88460031b161c191690553880806144ad565b808885968294968601518155019501930190614497565b84600052816000208380860160051c820192848710614525575b0160051c019086905b828110614519575050614448565b6000815501869061450b565b92508192614502565b015190503880614415565b90601f19831691846000528b6000209260005b8d8282106145895750509084879594939210614570575b505050811b018155614429565b015160001960f88460031b161c19169055388080614563565b8385015186558c9890950194938401930161454c565b909192809450600052896000208580850160051c8201928c86106145e6575b908a9695949392910160051c01905b8181106145da57506143fe565b600081558995016145cd565b925081926145be565b634e487b7160e01b600052600060045260246000fd5b61461b826140f96146158461401c565b50613f53565b61462d5761462890613ff7565b614376565b50600093505050565b806000917a184f03e93ff9f4daa797ed6e38ed64bf6a1f01000000000000000080821015614790575b506d04ee2d6d415b85acef810000000080831015614781575b50662386f26fc1000080831015614772575b506305f5e10080831015614763575b5061271080831015614754575b506064821015614744575b600a8092101561473a575b600190816021818601956146cf87613caf565b966146dd6040519889613c8e565b8088526146ec601f1991613caf565b01366020890137860101905b614704575b5050505090565b600019019083906f181899199a1a9b1b9c1cb0b131b232b360811b8282061a835304918215614735579190826146f8565b6146fd565b91600101916146bc565b91906064600291049101916146b1565b600491939204910191386146a6565b60089193920491019138614699565b6010919392049101913861468a565b60209193920491019138614678565b60409350810491503861465f565b51906001600160a01b03821682036107f357565b939594916080936147d66147e49260ff94885260a0602089015260a0880190613e36565b908682036040880152613e36565b951660608401526001600160a01b0316910152565b1561480057565b60405162461bcd60e51b815260206004820152602260248201527f43544d525741303031583a204661696c656420746f2073657420746f6b656e20604482015261125160f21b6064820152608490fd5b81601f820112156107f357805161486681613caf565b926148746040519485613c8e565b818452602082840101116107f3576141299160208085019101613e13565b906020828203126107f35781516001600160401b0381116107f3576141299201614850565b156148be57565b60405162461bcd60e51b815260206004820152602d60248201527f43544d525741303031583a2054617267657420636f6e7472616374206164647260448201526c195cdcc81b9bdd08199bdd5b99609a1b6064820152608490fd5b1561492057565b60405162461bcd60e51b815260206004820152602160248201527f43544d525741303031583a204f6e6c792061646d696e2063616e206465706c6f6044820152607960f81b6064820152608490fd5b916149999061498b604093969596606086526060860190613e36565b908482036020860152613e36565b6001600160a01b03909416910152565b156149b057565b60405162461bcd60e51b815260206004820152602660248201527f43544d525741303031583a204e6f7420612063726f73732d636861696e20747260448201526530b739b332b960d11b6064820152608490fd5b15614a0b57565b60405162461bcd60e51b815260206004820152602560248201527f43544d525741303031583a2046726f6d20616e20696e76616c69642043544d52604482015264574130303160d81b6064820152608490fd5b60008091600b54925b838110614a775750505050600190565b81614a818261406c565b505414614a9657614a9190613ff7565b614a67565b5050905090565b600b5460005b818110614ab557505050600090600090565b614abe8161406c565b50614adb614ace611ac4866141c4565b6140f96001809401613f53565b614aee5750614ae990613ff7565b614aa3565b939250614afb915061406c565b505490565b91908260409103126107f3576020614b17836142e9565b92015190565b15614b2457565b60405162461bcd60e51b815260206004820152602f60248201527f43544d525741303031583a2044657374696e6174696f6e20616464726573732060448201526e0d0c2e640f4cae4de40d8cadccee8d608b1b6064820152608490fd5b91908260809103126107f3578151916020810151916060614b176040840161479e565b60405190614bb182613c58565b60418252602960f81b6060837f6d696e745828737472696e672c737472696e672c737472696e672c75696e743260208201527f35362c75696e743235362c75696e743235362c737472696e672c737472696e6760408201520152565b959193614c3c614c5995614c2e6141299a989460e08b5260e08b0190613e36565b9089820360208b0152613e36565b9360408801526060870152608086015284820360a0860152613e36565b9160c0818403910152613e36565b959193614c88614cac95614c2e6141299a9894610100808c528b0190613e36565b93604088015260006060880152608087015260a086015284820360c0860152613e36565b9160e0818403910152613e36565b969293614cea614129999793614cdc614cac9894610100808d528c0190613e36565b908a820360208c0152613e36565b9460408901526060880152608087015260a086015284820360c0860152613e36565b60ff602f199116019060ff821161400657565b90600080835115614e125780915b8451831015614e0857614d4083866142d8565b5190614d4f60f892831c614d0c565b5060ff91600983614d6b614d63888b6142d8565b51841c614d0c565b1611614dfe57614d8790614d7f86896142d8565b51901c614d0c565b918651858103908111614dea576000198101908111614dea57604d8111614dea57600a0a9216828102928184041490151715614dd657614dd091614dca916142cb565b92613ff7565b91614d2d565b634e487b7160e01b83526011600452602483fd5b634e487b7160e01b85526011600452602485fd5b5050509250508190565b9350600192915050565b92506001919050565b60ff16600a019060ff821161400657565b602a815103614f7657604051604081018181106001600160401b03821117613c42576040526014908181526020810192602036853760005b838110614eaa5750505191516bffffffffffffffffffffffff199283821692808210614e96575b505050905060601c90565b849293500360031b1b161680388080614e8b565b8060011b60029082810482148315171561400657808201809211614006576001600160f81b031991614ee9908390614ee290876142d8565b5116614fc6565b90600491821b90610ff060f0831692168203614f61576003908101809111614f615790614ee29291614f208560ff9586938a6142d8565b1601918211614f4c575090614f47929160f81b1660001a614f4182866142d8565b53613ff7565b614e64565b601190634e487b7160e01b6000525260246000fd5b601183634e487b7160e01b6000525260246000fd5b60405162461bcd60e51b815260206004820152602260248201527f43544d525741303031583a20496e76616c69642061646472657373206c656e676044820152610e8d60f31b6064820152608490fd5b60f81c60308110158061507d575b15614fe25761412990614d0c565b606181101580615072575b1561500d5760ff61500060601992614e1b565b160160ff81116140065790565b604181101580615067575b6150595760405162461bcd60e51b815260206004820152601560248201527424b73b30b634b2103432bc1031b430b930b1ba32b960591b6044820152606490fd5b60ff61500060401992614e1b565b506046811115615018565b506066811115614fed565b506039811115614fd4565b9060405191826150a46020820192602084526040830190613e36565b03926150b8601f1994858101835282613c8e565b519020916150e660405191826150da6020820195602087526040830190613e36565b03908101835282613c8e565b5190201490565b9081516150f981613caf565b906151076040519283613c8e565b808252615116601f1991613caf565b01602090368284013760005b84518110156151c35761513581866142d8565b5190604160f892831c1015806151ac575b15615185578261515682886142d8565b51831c019160ff83116140065761518092901b6001600160f81b03191660001a614f4182866142d8565b615122565b61518091506001600160f81b031961519d82886142d8565b511660001a614f4182866142d8565b50605a6151b982886142d8565b51831c1115615146565b5090925050565b60008054604051631eb01f7360e21b81526001600160a01b0393841660048201529192602091839160249183918791165af19182156107ff57809261520e57505090565b9091506020823d821161523b575b8161522960209383613c8e565b8101031261023d5750614129906142e9565b3d915061521c565b908060209392818452848401376000828201840152601f01601f1916010190565b60008054604051636824b6b560e11b81529192908390839060049082906001600160a01b03165afa91821561083e5783908480946152a4575b5050929190565b93509350503d8083853e6152b88185613c8e565b8301606084820312610501578351936020810151906001600160401b0391828111610e0857836152e9918301614850565b94604082015192831161023d5750615302929101614850565b9192388061529d565b92919060009160018060a01b038354169160015491833b15610e0c5791846020819593826153866153639a9b976153766040519c8d9a8b996304f4c7fb60e31b8b5260048b015260a060248b015260a48a0190613e36565b60031995868a83030160448b0152613e36565b9084888303016064890152613e36565b85810392830160848701525201925af19081156107ff57506153a55750565b613ed090613c2f565b6005544210156153c7576003546001600160a01b031690565b6004546001600160a01b03169056fe6050e2c25b5869fcc2d8325771b7fc2d7386bac470b5b49b439d0f1006429fb728129b47929e9a908e07c89f47c303a716a56cbf5c543d97e0cef9af66d3031fc34928714e1fd89875f0f8da58eef016fbe648c6052a0307e94d88df4bed4b67a2646970667358221220595d597001994a229d2d405f8c20f20cb8e1e9acd328bb7f1d416da83ebb78d164736f6c63430008140033",
  "linkReferences": {},
  "deployedLinkReferences": {}
}