{
  "_format": "hh-sol-artifact-1",
  "contractName": "CTMRWA001X",
  "sourceName": "contracts/CTMRWA001X.sol",
  "abi": [
    {
      "inputs": [
        {
          "internalType": "address",
          "name": "_feeManager",
          "type": "address"
        },
        {
          "internalType": "address",
          "name": "_gov",
          "type": "address"
        },
        {
          "internalType": "address",
          "name": "_c3callerProxy",
          "type": "address"
        },
        {
          "internalType": "address",
          "name": "_txSender",
          "type": "address"
        },
        {
          "internalType": "uint256",
          "name": "_dappID",
          "type": "uint256"
        }
      ],
      "stateMutability": "nonpayable",
      "type": "constructor"
    },
    {
      "anonymous": false,
      "inputs": [
        {
          "indexed": false,
          "internalType": "string",
          "name": "currentAdminStr",
          "type": "string"
        },
        {
          "indexed": false,
          "internalType": "string",
          "name": "newAdminStr",
          "type": "string"
        },
        {
          "indexed": false,
          "internalType": "string",
          "name": "fromChainIdStr",
          "type": "string"
        }
      ],
      "name": "ChangeAdminDest",
      "type": "event"
    },
    {
      "anonymous": false,
      "inputs": [
        {
          "indexed": true,
          "internalType": "address",
          "name": "oldGov",
          "type": "address"
        },
        {
          "indexed": true,
          "internalType": "address",
          "name": "newGov",
          "type": "address"
        },
        {
          "indexed": true,
          "internalType": "uint256",
          "name": "effectiveTime",
          "type": "uint256"
        },
        {
          "indexed": false,
          "internalType": "uint256",
          "name": "chainID",
          "type": "uint256"
        }
      ],
      "name": "LogChangeGov",
      "type": "event"
    },
    {
      "anonymous": false,
      "inputs": [
        {
          "indexed": false,
          "internalType": "bytes4",
          "name": "selector",
          "type": "bytes4"
        },
        {
          "indexed": false,
          "internalType": "bytes",
          "name": "data",
          "type": "bytes"
        },
        {
          "indexed": false,
          "internalType": "bytes",
          "name": "reason",
          "type": "bytes"
        }
      ],
      "name": "LogFallback",
      "type": "event"
    },
    {
      "anonymous": false,
      "inputs": [
        {
          "indexed": true,
          "internalType": "address",
          "name": "txSender",
          "type": "address"
        },
        {
          "indexed": false,
          "internalType": "bool",
          "name": "vaild",
          "type": "bool"
        }
      ],
      "name": "LogTxSender",
      "type": "event"
    },
    {
      "anonymous": false,
      "inputs": [
        {
          "indexed": false,
          "internalType": "string[]",
          "name": "chainIdsStr",
          "type": "string[]"
        },
        {
          "indexed": false,
          "internalType": "string[]",
          "name": "contractAddrsStr",
          "type": "string[]"
        },
        {
          "indexed": false,
          "internalType": "string",
          "name": "fromContractStr",
          "type": "string"
        },
        {
          "indexed": false,
          "internalType": "string",
          "name": "fromChainIdStr",
          "type": "string"
        }
      ],
      "name": "SetChainContract",
      "type": "event"
    },
    {
      "anonymous": false,
      "inputs": [
        {
          "indexed": false,
          "internalType": "string",
          "name": "fromAddressStr",
          "type": "string"
        },
        {
          "indexed": false,
          "internalType": "string",
          "name": "toAddressStr",
          "type": "string"
        },
        {
          "indexed": false,
          "internalType": "uint256",
          "name": "fromtokenId",
          "type": "uint256"
        },
        {
          "indexed": false,
          "internalType": "uint256",
          "name": "toTokenId",
          "type": "uint256"
        },
        {
          "indexed": false,
          "internalType": "uint256",
          "name": "slot",
          "type": "uint256"
        },
        {
          "indexed": false,
          "internalType": "uint256",
          "name": "value",
          "type": "uint256"
        },
        {
          "indexed": false,
          "internalType": "string",
          "name": "fromCtmRwa001AddrStr",
          "type": "string"
        },
        {
          "indexed": false,
          "internalType": "string",
          "name": "toCtmRwa001AddrStr",
          "type": "string"
        }
      ],
      "name": "TransferFromSourceX",
      "type": "event"
    },
    {
      "anonymous": false,
      "inputs": [
        {
          "indexed": false,
          "internalType": "string",
          "name": "fromAddressStr",
          "type": "string"
        },
        {
          "indexed": false,
          "internalType": "string",
          "name": "toAddressStr",
          "type": "string"
        },
        {
          "indexed": false,
          "internalType": "uint256",
          "name": "fromTokenId",
          "type": "uint256"
        },
        {
          "indexed": false,
          "internalType": "uint256",
          "name": "toTokenId",
          "type": "uint256"
        },
        {
          "indexed": false,
          "internalType": "uint256",
          "name": "slot",
          "type": "uint256"
        },
        {
          "indexed": false,
          "internalType": "uint256",
          "name": "value",
          "type": "uint256"
        },
        {
          "indexed": false,
          "internalType": "string",
          "name": "fromContractStr",
          "type": "string"
        },
        {
          "indexed": false,
          "internalType": "string",
          "name": "ctmRwa001AddrStr",
          "type": "string"
        }
      ],
      "name": "TransferToDestX",
      "type": "event"
    },
    {
      "inputs": [
        {
          "internalType": "address",
          "name": "_admin",
          "type": "address"
        },
        {
          "internalType": "string",
          "name": "_ctmRwa001AddrStr",
          "type": "string"
        },
        {
          "internalType": "string[]",
          "name": "_chainIdsStr",
          "type": "string[]"
        },
        {
          "internalType": "string[]",
          "name": "_otherCtmRwa001AddrsStr",
          "type": "string[]"
        }
      ],
      "name": "addNewChainIdAndToken",
      "outputs": [
        {
          "internalType": "bool",
          "name": "",
          "type": "bool"
        }
      ],
      "stateMutability": "nonpayable",
      "type": "function"
    },
    {
      "inputs": [
        {
          "internalType": "address",
          "name": "txSender",
          "type": "address"
        }
      ],
      "name": "addTxSender",
      "outputs": [],
      "stateMutability": "nonpayable",
      "type": "function"
    },
    {
      "inputs": [
        {
          "internalType": "string",
          "name": "_tochainIdStr",
          "type": "string"
        },
        {
          "internalType": "string",
          "name": "_toContractStr",
          "type": "string"
        },
        {
          "internalType": "string[]",
          "name": "_chainIdsStr",
          "type": "string[]"
        },
        {
          "internalType": "string[]",
          "name": "_contractAddrsStr",
          "type": "string[]"
        }
      ],
      "name": "addXChainInfo",
      "outputs": [],
      "stateMutability": "payable",
      "type": "function"
    },
    {
      "inputs": [
        {
          "internalType": "string[]",
          "name": "_chainIdsStr",
          "type": "string[]"
        },
        {
          "internalType": "string[]",
          "name": "_contractAddrsStr",
          "type": "string[]"
        },
        {
          "internalType": "string",
          "name": "_fromContractStr",
          "type": "string"
        }
      ],
      "name": "addXChainInfoX",
      "outputs": [
        {
          "internalType": "bool",
          "name": "",
          "type": "bool"
        }
      ],
      "stateMutability": "nonpayable",
      "type": "function"
    },
    {
      "inputs": [
        {
          "internalType": "string",
          "name": "_currentAdminStr",
          "type": "string"
        },
        {
          "internalType": "string",
          "name": "_newAdminStr",
          "type": "string"
        },
        {
          "internalType": "string",
          "name": "_fromContractStr",
          "type": "string"
        },
        {
          "internalType": "string",
          "name": "_ctmRwa001AddrStr",
          "type": "string"
        }
      ],
      "name": "adminX",
      "outputs": [
        {
          "internalType": "bool",
          "name": "",
          "type": "bool"
        }
      ],
      "stateMutability": "nonpayable",
      "type": "function"
    },
    {
      "inputs": [],
      "name": "c3CallerProxy",
      "outputs": [
        {
          "internalType": "address",
          "name": "",
          "type": "address"
        }
      ],
      "stateMutability": "view",
      "type": "function"
    },
    {
      "inputs": [
        {
          "internalType": "uint256",
          "name": "_dappID",
          "type": "uint256"
        },
        {
          "internalType": "bytes",
          "name": "_data",
          "type": "bytes"
        },
        {
          "internalType": "bytes",
          "name": "_reason",
          "type": "bytes"
        }
      ],
      "name": "c3Fallback",
      "outputs": [
        {
          "internalType": "bool",
          "name": "",
          "type": "bool"
        }
      ],
      "stateMutability": "nonpayable",
      "type": "function"
    },
    {
      "inputs": [],
      "name": "chainIdStr",
      "outputs": [
        {
          "internalType": "string",
          "name": "",
          "type": "string"
        }
      ],
      "stateMutability": "view",
      "type": "function"
    },
    {
      "inputs": [
        {
          "internalType": "string",
          "name": "_newAdminStr",
          "type": "string"
        },
        {
          "internalType": "string",
          "name": "toChainIdStr_",
          "type": "string"
        },
        {
          "internalType": "string",
          "name": "_ctmRwa001AddrStr",
          "type": "string"
        },
        {
          "internalType": "address",
          "name": "feeToken",
          "type": "address"
        }
      ],
      "name": "changeAdminCrossChain",
      "outputs": [
        {
          "internalType": "bool",
          "name": "",
          "type": "bool"
        }
      ],
      "stateMutability": "payable",
      "type": "function"
    },
    {
      "inputs": [
        {
          "internalType": "address",
          "name": "newGov",
          "type": "address"
        }
      ],
      "name": "changeGov",
      "outputs": [],
      "stateMutability": "nonpayable",
      "type": "function"
    },
    {
      "inputs": [],
      "name": "dappID",
      "outputs": [
        {
          "internalType": "uint256",
          "name": "",
          "type": "uint256"
        }
      ],
      "stateMutability": "view",
      "type": "function"
    },
    {
      "inputs": [],
      "name": "delay",
      "outputs": [
        {
          "internalType": "uint256",
          "name": "",
          "type": "uint256"
        }
      ],
      "stateMutability": "view",
      "type": "function"
    },
    {
      "inputs": [
        {
          "internalType": "string",
          "name": "_adminStr",
          "type": "string"
        },
        {
          "internalType": "uint256",
          "name": "_value",
          "type": "uint256"
        }
      ],
      "name": "deployCTMRWA001",
      "outputs": [
        {
          "internalType": "bool",
          "name": "",
          "type": "bool"
        }
      ],
      "stateMutability": "nonpayable",
      "type": "function"
    },
    {
      "inputs": [
        {
          "internalType": "address",
          "name": "txSender",
          "type": "address"
        }
      ],
      "name": "disableTxSender",
      "outputs": [],
      "stateMutability": "nonpayable",
      "type": "function"
    },
    {
      "inputs": [
        {
          "internalType": "string",
          "name": "_to",
          "type": "string"
        },
        {
          "internalType": "string",
          "name": "_toChainID",
          "type": "string"
        },
        {
          "internalType": "bytes",
          "name": "_data",
          "type": "bytes"
        }
      ],
      "name": "doGov",
      "outputs": [],
      "stateMutability": "nonpayable",
      "type": "function"
    },
    {
      "inputs": [
        {
          "internalType": "string[]",
          "name": "_targets",
          "type": "string[]"
        },
        {
          "internalType": "string[]",
          "name": "_toChainIDs",
          "type": "string[]"
        },
        {
          "internalType": "bytes",
          "name": "_data",
          "type": "bytes"
        }
      ],
      "name": "doGovBroadcast",
      "outputs": [],
      "stateMutability": "nonpayable",
      "type": "function"
    },
    {
      "inputs": [],
      "name": "feeManager",
      "outputs": [
        {
          "internalType": "address",
          "name": "",
          "type": "address"
        }
      ],
      "stateMutability": "view",
      "type": "function"
    },
    {
      "inputs": [
        {
          "internalType": "string",
          "name": "_chainIdStr",
          "type": "string"
        }
      ],
      "name": "getChainContract",
      "outputs": [
        {
          "internalType": "string",
          "name": "",
          "type": "string"
        }
      ],
      "stateMutability": "view",
      "type": "function"
    },
    {
      "inputs": [],
      "name": "gov",
      "outputs": [
        {
          "internalType": "address",
          "name": "",
          "type": "address"
        }
      ],
      "stateMutability": "view",
      "type": "function"
    },
    {
      "inputs": [
        {
          "internalType": "address",
          "name": "txSender",
          "type": "address"
        }
      ],
      "name": "isValidSender",
      "outputs": [
        {
          "internalType": "bool",
          "name": "",
          "type": "bool"
        }
      ],
      "stateMutability": "view",
      "type": "function"
    },
    {
      "inputs": [
        {
          "internalType": "string",
          "name": "fromAddressStr_",
          "type": "string"
        },
        {
          "internalType": "string",
          "name": "toAddressStr_",
          "type": "string"
        },
        {
          "internalType": "uint256",
          "name": "fromTokenId_",
          "type": "uint256"
        },
        {
          "internalType": "uint256",
          "name": "toTokenId_",
          "type": "uint256"
        },
        {
          "internalType": "uint256",
          "name": "slot_",
          "type": "uint256"
        },
        {
          "internalType": "uint256",
          "name": "value_",
          "type": "uint256"
        },
        {
          "internalType": "string",
          "name": "_fromContractStr",
          "type": "string"
        },
        {
          "internalType": "string",
          "name": "_ctmRwa001AddrStr",
          "type": "string"
        }
      ],
      "name": "mintX",
      "outputs": [
        {
          "internalType": "bool",
          "name": "",
          "type": "bool"
        }
      ],
      "stateMutability": "nonpayable",
      "type": "function"
    },
    {
      "inputs": [
        {
          "internalType": "string",
          "name": "fromAddressStr_",
          "type": "string"
        },
        {
          "internalType": "string",
          "name": "toAddressStr_",
          "type": "string"
        },
        {
          "internalType": "uint256",
          "name": "fromTokenId_",
          "type": "uint256"
        },
        {
          "internalType": "uint256",
          "name": "slot_",
          "type": "uint256"
        },
        {
          "internalType": "uint256",
          "name": "balance_",
          "type": "uint256"
        },
        {
          "internalType": "string",
          "name": "_fromContractStr",
          "type": "string"
        },
        {
          "internalType": "string",
          "name": "_ctmRwa001AddrStr",
          "type": "string"
        }
      ],
      "name": "mintX",
      "outputs": [
        {
          "internalType": "bool",
          "name": "",
          "type": "bool"
        }
      ],
      "stateMutability": "nonpayable",
      "type": "function"
    },
    {
      "inputs": [
        {
          "internalType": "uint256",
          "name": "_delay",
          "type": "uint256"
        }
      ],
      "name": "setDelay",
      "outputs": [],
      "stateMutability": "nonpayable",
      "type": "function"
    },
    {
      "inputs": [
        {
          "internalType": "string",
          "name": "_str",
          "type": "string"
        }
      ],
      "name": "strToUint",
      "outputs": [
        {
          "internalType": "uint256",
          "name": "res",
          "type": "uint256"
        },
        {
          "internalType": "bool",
          "name": "err",
          "type": "bool"
        }
      ],
      "stateMutability": "pure",
      "type": "function"
    },
    {
      "inputs": [
        {
          "internalType": "string",
          "name": "str",
          "type": "string"
        }
      ],
      "name": "stringToAddress",
      "outputs": [
        {
          "internalType": "address",
          "name": "",
          "type": "address"
        }
      ],
      "stateMutability": "pure",
      "type": "function"
    },
    {
      "inputs": [
        {
          "internalType": "string",
          "name": "a",
          "type": "string"
        },
        {
          "internalType": "string",
          "name": "b",
          "type": "string"
        }
      ],
      "name": "stringsEqual",
      "outputs": [
        {
          "internalType": "bool",
          "name": "",
          "type": "bool"
        }
      ],
      "stateMutability": "pure",
      "type": "function"
    },
    {
      "inputs": [
        {
          "internalType": "uint256",
          "name": "fromTokenId_",
          "type": "uint256"
        },
        {
          "internalType": "string",
          "name": "toAddressStr_",
          "type": "string"
        },
        {
          "internalType": "uint256",
          "name": "toTokenId_",
          "type": "uint256"
        },
        {
          "internalType": "string",
          "name": "toChainIdStr_",
          "type": "string"
        },
        {
          "internalType": "uint256",
          "name": "value_",
          "type": "uint256"
        },
        {
          "internalType": "string",
          "name": "_ctmRwa001AddrStr",
          "type": "string"
        },
        {
          "internalType": "address",
          "name": "feeToken",
          "type": "address"
        }
      ],
      "name": "transferFromX",
      "outputs": [],
      "stateMutability": "payable",
      "type": "function"
    },
    {
      "inputs": [
        {
          "internalType": "uint256",
          "name": "fromTokenId_",
          "type": "uint256"
        },
        {
          "internalType": "string",
          "name": "toAddressStr_",
          "type": "string"
        },
        {
          "internalType": "string",
          "name": "toChainIdStr_",
          "type": "string"
        },
        {
          "internalType": "uint256",
          "name": "value_",
          "type": "uint256"
        },
        {
          "internalType": "string",
          "name": "_ctmRwa001AddrStr",
          "type": "string"
        },
        {
          "internalType": "address",
          "name": "feeToken",
          "type": "address"
        }
      ],
      "name": "transferFromX",
      "outputs": [],
      "stateMutability": "payable",
      "type": "function"
    },
    {
      "inputs": [
        {
          "internalType": "string",
          "name": "toAddressStr_",
          "type": "string"
        },
        {
          "internalType": "string",
          "name": "toChainIdStr_",
          "type": "string"
        },
        {
          "internalType": "uint256",
          "name": "fromTokenId_",
          "type": "uint256"
        },
        {
          "internalType": "string",
          "name": "_ctmRwa001AddrStr",
          "type": "string"
        },
        {
          "internalType": "address",
          "name": "feeToken",
          "type": "address"
        }
      ],
      "name": "transferFromX",
      "outputs": [],
      "stateMutability": "payable",
      "type": "function"
    }
  ],
  "bytecode": "0x60808060405234620002265760a08162004b3880380380916200002382856200022b565b8339810103126200022657620000398162000265565b906020916200004a83830162000265565b620000586040840162000265565b926080620000696060830162000265565b9101519260018060a01b0380928160018060a01b0319958160009916878a541617895560019788556202a30060025516808660035416176003558560045416176004554260055516855260068652604085208460ff1982541617905516906007541617600755620000da46620002d3565b805192906001600160401b0384116200021257620000fa6008546200027a565b601f8111620001c6575b508491601f85116001146200015d57939450849291908362000151575b50501b916000199060031b1c1916176008555b620001403046620004af565b50604051613f93908162000ba58239f35b01519250388062000121565b6008815285812093958591601f198316915b88838310620001ab575050501062000191575b505050811b0160085562000134565b015160001960f88460031b161c1916905538808062000182565b8587015188559096019594850194879350908101906200016f565b60088352858320601f860160051c81019187871062000207575b601f0160051c019084905b828110620001fb57505062000104565b848155018490620001eb565b9091508190620001e0565b634e487b7160e01b82526041600452602482fd5b600080fd5b601f909101601f19168101906001600160401b038211908210176200024f57604052565b634e487b7160e01b600052604160045260246000fd5b51906001600160a01b03821682036200022657565b90600182811c92168015620002ac575b60208310146200029657565b634e487b7160e01b600052602260045260246000fd5b91607f16916200028a565b6001600160401b0381116200024f57601f01601f191660200190565b806000917a184f03e93ff9f4daa797ed6e38ed64bf6a1f0100000000000000008082101562000444575b506d04ee2d6d415b85acef81000000008083101562000434575b50662386f26fc100008083101562000424575b506305f5e1008083101562000414575b506127108083101562000404575b506064821015620003f3575b600a80921015620003e8575b600190816021818601956200037587620002b7565b966200038560405198896200022b565b80885262000396601f1991620002b7565b01366020890137860101905b620003af575b5050505090565b600019019083906f181899199a1a9b1b9c1cb0b131b232b360811b8282061a835304918215620003e257919082620003a2565b620003a8565b916001019162000360565b919060646002910491019162000354565b6004919392049101913862000348565b600891939204910191386200033a565b601091939204910191386200032a565b6020919392049101913862000317565b604093508104915038620002fd565b6000198114620004635760010190565b634e487b7160e01b600052601160045260246000fd5b6009548110156200049957600960005260206000209060011b0190600090565b634e487b7160e01b600052603260045260246000fd5b620004bd90929192620002d3565b6040805190936001600160a01b0316916001600160401b0390606090818401838111858210176200024f578752602a84526020908185018836823785511562000499576030905384519560019687101562000499576078602187015360295b87811162000ad6575062000a94576200055b978551956200053d87620002b7565b966200054c835198896200022b565b808852601f199a8b91620002b7565b0136858901376000885b620009cc575b50506009549160005b838110620008b157505080519381850191858310878411176200024f578290526000600854620005a4816200027a565b808552908a81169081156200089157506001146200084c575b50620005d29150859003603f1901826200022b565b8352818301948552680100000000000000008110156200024f578086620005fd920160095562000479565b929092620008365751918251908482116200024f5786916200062082546200027a565b94601f95868111620007e1575b508490868311600114620007785760009190836200076c575b5050600019600383901b1c191690831b1781555b0193519687519384116200024f576200067485546200027a565b83811162000721575b5081928411600114620006bc5750508192939495600092620006b0575b5050600019600383901b1c191690831b17905590565b0151905038806200069a565b6000858152828120918516989193925b898210620007095750508386979896959610620006ef575b505050811b01905590565b015160001960f88460031b161c19169055388080620006e4565b808885968294968601518155019501930190620006cc565b85600052826000208480870160051c82019285881062000762575b0160051c019087905b828110620007555750506200067d565b6000815501879062000745565b925081926200073c565b01519050388062000646565b908b83169184600052866000209260005b88828210620007ca5750509084879594939210620007b0575b505050811b0181556200065a565b015160001960f88460031b161c19169055388080620007a2565b8385015186558d9890950194938401930162000789565b909192809450600052846000208680850160051c8201928786106200082c575b908b9695949392910160051c01905b8181106200081f57506200062d565b600081558a950162000810565b9250819262000801565b634e487b7160e01b600052600060045260246000fd5b919050600860005284600020858a6000925b8584106200087957505050620005d2925086010138620005bd565b80548a8501860152919092019187918c91016200085e565b60ff19168885015250620005d29290151560051b870101905038620005bd565b620008bc8162000479565b50898451809260009080548a620008d3826200027a565b808652958216918215620009aa57505060011462000963575b50620008fb925003826200022b565b83516200091f8d82620009128a8201958662000b59565b039081018352826200022b565b5190208b84516200093a888201928262000912888662000b59565b5190201462000954576200094e9062000453565b62000574565b50600099505050505050505050565b915050600052818780600020928d6000945b8286106200098f57505050620008fb9282010138620008ec565b8091929450548386880101520192019183918d8a9262000975565b60ff191685820152620008fb95151560051b8501019250389150620008ec9050565b815181101562000a8e57620009e2818362000b47565b519089604160f893841c10158062000a74575b1562000a4757508562000a09828562000b47565b51831c019060ff821162000463578a9262000a4092901b6001600160f81b03191660001a62000a39828c62000b47565b5362000453565b9062000565565b915062000a40906001600160f81b031962000a63828662000b47565b511660001a62000a39828c62000b47565b50605a62000a83838662000b47565b51841c1115620009f5565b6200056b565b60648289519062461bcd60e51b825280600483015260248201527f537472696e67733a20686578206c656e67746820696e73756666696369656e746044820152fd5b90600f8116601081101562000b32576f181899199a1a9b1b9c1cb0b131b232b360811b901a62000b07838962000b47565b5360041c90801562000b1d57600019016200051c565b60246000634e487b7160e01b81526011600452fd5b60246000634e487b7160e01b81526032600452fd5b90815181101562000499570160200190565b6020808252825181830181905290939260005b82811062000b8f57505060409293506000838284010152601f8019910116010190565b81810186015184820160400152850162000b6c56fe6040608081526004908136101561001557600080fd5b600091823560e01c90816307cdd390146127e657816310de50b41461233d57816312d43a511461232057816313d19950146122c257816315706fdf1461227a57816326c724a81461201f578163321de7be14611c055781633b12b239146119f5578163472804d9146117d657816355a391431461161a57816358f2c057146115f25781636a42b8f8146115d357816375a1f0ee1461138b57838263a7bfa12d146112f157508163a962ef1e146111e8578163b121f51d14611081578163c516ad1114611062578163c5ef3ec514611019578163cc6a292c14610fdc578163d0fb020314610fb3578163d326e2b514610a35578163d60ad41b14610991578163da8e669e146104b6578163dd64b3e614610351578163e177246e1461030057508063eebd14af1461026a578063f01f2b8b1461022d578063f9038f10146101f95763f9e4cbaf1461016457600080fd5b346101f55760203660031901126101f5577fbfb8b3e2f6221ae729e9cacb0d35f5d9be686ba10cb1d4e34b646bbb87f7a26960206101a0612aa6565b6001600160a01b0390816101b2613f35565b16331480156101e1575b6101c590612e4b565b1680855260068252838520805460ff191690559251848152a280f35b506101c56101ee33613d4d565b90506101bc565b5080fd5b50346101f557816003193601126101f55761022990610216612bee565b9051918291602083526020830190612b8f565b0390f35b50346101f55760203660031901126101f55760209160ff9082906001600160a01b03610257612aa6565b1681526006855220541690519015158152f35b50346101f55760203660031901126101f5577fbfb8b3e2f6221ae729e9cacb0d35f5d9be686ba10cb1d4e34b646bbb87f7a26960206102a7612aa6565b6001600160a01b0390816102b9613f35565b16331480156102ec575b6102cc90612e4b565b169283855260068252808520600160ff198254161790555160018152a280f35b506102cc6102f933613d4d565b90506102c3565b8390346101f55760203660031901126101f5576001600160a01b03610323613f35565b163314801561033d575b61033690612e4b565b3560025580f35b5061033661034a33613d4d565b905061032d565b8383346101f557600319906060368301126104b2576001600160401b039184358381116104ae576103859036908701612abc565b6024358481116104aa5761039c9036908801612abc565b936044359081116104aa576103b49036908801612a5f565b6001600160a01b0396876103c6613f35565b1633148015610496575b6103d990612e4b565b825186510361047a5786978754169160015491833b1561047657610447899687936104386104289b8b519c8d9a8b998a9863ec6a8b7d60e01b8a52890152608060248901526084880190612e87565b9084878303016044880152612e87565b91848303016064850152612b8f565b03925af190811561046d575061045a5750f35b610463906129c4565b61046a5780f35b80fd5b513d84823e3d90fd5b8880fd5b60449087602087519262461bcd60e51b84528301526024820152fd5b506103d96104a333613d4d565b90506103d0565b8580fd5b8480fd5b8280fd5b8284608036600319011261046a576001600160401b0383358181116104b2576104e29036908601612a5f565b9060249182358281116104ae576104fc9036908801612a5f565b916044359081116104ae576105149036908801612a5f565b606435966001600160a01b0395868916890361079d5786610534846139b0565b16988851996303e1469160e61b8b5260209a8b81868187865af190811561098757849161094e575b5089811633036108f85791838861059d9795938b8f8f9b999761057e90612edc565b9b519a8b9485938493631c0e27e760e11b85528b850152830190612b8f565b03915afa9586156108ee5782966108d2575b508a5163331a8a4b60e21b81528381018d905299828b806105d28d82018d612b8f565b0381305afa9a8b156108c857839b6108a4575b508a511561084b576105f6896138a3565b90919080610842575b156107f4576007548d5163c73b647160e01b81524687820190815260208101949094526001600160a01b03851660408501529116918e90829081906060010381855afa9081156107ea57908d8f94939286926107b4575b50516325f076df60e01b81529586019081526001600160a01b03909216602083015284918290859082906040015b03925af19081156107a95750908a9161077b575b50508751936106a685612a08565b602a8086527f61646d696e5828737472696e672c737472696e672c737472696e672c737472698b8701908152696e672c737472696e672960b01b968b0196909652895195206001600160e01b031916946106ff906129c4565b88519687958b87015285016080905260a4850161071b91612b8f565b91602319928386820301604487015261073391612b8f565b8285820301606486015261074691612b8f565b9083820301608484015261075991612b8f565b03601f198101835261076b9083612a23565b61077492613e86565b5160018152f35b813d83116107a2575b61078e8183612a23565b8101031261079d57888a610698565b600080fd5b503d610784565b8a51903d90823e3d90fd5b948092508591503d83116107e3575b6107cd8183612a23565b8101031261079d5791518d92908d610684610656565b503d6107c3565b8d513d86823e3d90fd5b50508a5162461bcd60e51b81528084018d90526021818b01527f43544d525741303031583a20496e76616c696420746f436861696e49645374726044820152605f60f81b6064820152608490fd5b508115156105ff565b508a5162461bcd60e51b81528084018d9052602d818b01527f43544d525741303031583a2054617267657420636f6e7472616374206164647260448201526c195cdcc81b9bdd08199bdd5b99609a1b6064820152608490fd5b6108c1919b503d8085833e6108b98183612a23565b81019061350a565b998d6105e5565b8c513d85823e3d90fd5b6108e79196503d8084833e6108b98183612a23565b948c6105af565b8b513d84823e3d90fd5b8a5162461bcd60e51b81528086018d9052602b818b01527f43544d525741303031583a204f6e6c792061646d696e2063616e206368616e6760448201526a32903a34329030b236b4b760a91b6064820152608490fd5b90508b81813d8311610980575b6109658183612a23565b8101031261097c57610976906134b4565b8c61055c565b8380fd5b503d61095b565b8b513d86823e3d90fd5b8390346101f55760603660031901126101f5576001600160401b03813581811161097c576109c29036908401612a5f565b906024358181116104ae576109da9036908501612a5f565b906044359081116104ae57610a1e936109f591369101612a5f565b916001600160a01b03610a06613f35565b1633148015610a21575b610a1990612e4b565b613e86565b80f35b50610a19610a2e33613d4d565b9050610a10565b905060a03660031901126104b2576001600160401b039181358381116104ae57610a629036908401612a5f565b906024938435818111610faf57610a7c9036908601612a5f565b9360443591606435908111610fab57610a989036908301612a5f565b6001600160a01b0393909260843591858316830361079d57610ab9886138a3565b90999080610fa2575b610acb90613589565b610ad7468b14156135e1565b86610ae1876139b0565b835163430c208160e01b81523388820190815260208082018890529d9290931696928e91908e908290819060400103818b5afa918215610f975791610f6a575b5015610f0b57908c91818d610b3533612edc565b600754885163c73b647160e01b815246818e0190815260208101969096526001600160a01b039094166040860152909c1692829081906060010381855afa908115610f0157908e9392918591610ec9575b5086516325f076df60e01b8152808b019182526001600160a01b0390931660208201529193849283919082906040015b03925af18015610e9657908b91610ea0575b5050815163331a8a4b60e21b81528581018b9052998b8b80610bec8582018e612b8f565b0381305afa918215610e9657610c3398999a9b8d93610e79575b50610c138351151561369e565b8c8c8551809b8192631c0e27e760e11b8352868c84015285830190612b8f565b0381895afa988915610e6f578d99610e52575b508c84519763463d31d760e11b895286818a015260808984818b5afa978815610dde5782998399610e1a575b50803b156104b257865163968e8a1360e01b8152600083820152848101899052838160448183865af18015610dfc57908491610e06575b5050803b156104b25786516301d485d560e21b81528281018990528381868183865af18015610dfc57908491610de8575b5050803b156104b257865163404b6e9f60e01b81523392810192835260208301899052918391839182908490829060400103925af18015610dde57610db2575b5050927f6050e2c25b5869fcc2d8325771b7fc2d7386bac470b5b49b439d0f1006429fb79b8193610a19610da294610d948f9d8f9d610dac9f9d829f9d829f9d829f9e829f829f610d69613728565b9d610d8681519f63ffffffff60e01b908d8151910120169f6129c4565b519d8e9a8b01528901613791565b03601f198101855284612a23565b51978897886137eb565b0390a180f35b610dc6909a9998979695949a9392936129c4565b610dda57908c389993949596979899610d1a565b8c80fd5b86513d84823e3d90fd5b610df1906129c4565b6104b2578238610cda565b88513d86823e3d90fd5b610e0f906129c4565b6104b2578238610ca9565b909850610e3f91995060803d8111610e4b575b610e378183612a23565b8101906136ff565b9a925050989738610c72565b503d610e2d565b610e689199508d3d8091833e6108b98183612a23565b9738610c46565b84513d8f823e3d90fd5b610e8f9193508d3d8091833e6108b98183612a23565b9138610c06565b83513d8e823e3d90fd5b813d8311610ec2575b610eb38183612a23565b8101031261079d578938610bc8565b503d610ea9565b93809295508491503d8311610efa575b610ee38183612a23565b8101031261079d57610bb6928e8e93519094610b86565b503d610ed9565b86513d86823e3d90fd5b835162461bcd60e51b81528088018d90526034818501527f43544d5257413030313a207472616e736665722063616c6c6572206973206e6f6044820152731d081bdddb995c881b9bdc88185c1c1c9bdd995960621b6064820152608490fd5b610f8a91508d803d10610f90575b610f828183612a23565b810190613001565b38610b21565b503d610f78565b8651903d90823e3d90fd5b50891515610ac2565b8780fd5b8680fd5b5050346101f557816003193601126101f55760075490516001600160a01b039091168152602090f35b82843461046a57602036600319011261046a578235906001600160401b03821161046a57506110146102299361021692369101612a5f565b612dc5565b9050823461046a57602036600319011261046a578135906001600160401b03821161046a57506110549161104f91369101612a5f565b6138a3565b825191825215156020820152f35b5050346101f557816003193601126101f5576020906001549051908152f35b9050346104b25760031960603682011261097c576001600160401b036024358181116104aa576110b49036908501612b3f565b9091604435908111610faf576110cd9036908601612b3f565b9190928760018060a01b03815416885190631eb01f7360e21b825233898301528160248160209d8e945af19081156111de57906111119183916111c1575b50613019565b60015487350361118c5782871161046a5750916111757fd1b411598268892b6836c5b922cfa272124f6f0bd3a7cf9f9d408f7e50f223019695949261118294895197889763ffffffff60e01b833516895260608d8a01526060890193019101613db3565b9184830388860152613db3565b0390a15160018152f35b875162461bcd60e51b81528088018a9052600f60248201526e0c8c2e0e0928840c8d2e6dac2e8c6d608b1b6044820152606490fd5b6111d891508b3d8d11610f9057610f828183612a23565b3861110b565b89513d84823e3d90fd5b9050346104b25760203660031901126104b257611203612aa6565b6001600160a01b039190829081611218613f35565b16331480156112dd575b61122b90612e4b565b169182156112a85760207f4552e521eca39a029d33503b3e2003db87de01f8396f9e3fdd9dddddb9b838b49161125f613f35565b1686600354956bffffffffffffffffffffffff60a01b9583878916176003558181549788161790558161129460025442612fe3565b98896005555196468852161795161792a480f35b835162461bcd60e51b8152602081840152600f60248201526e6e6577476f7620697320656d70747960881b6044820152606490fd5b5061122b6112ea33613d4d565b9050611222565b9150346101f557826003193601126101f5578035906001600160401b0382116104b25761132360209236908301612a5f565b5082548451631eb01f7360e21b815233928101929092529092839160249183916001600160a01b03165af190811561137f579061077491602094916113685750613019565b6111d89150843d8111610f9057610f828183612a23565b505051903d90823e3d90fd5b919050346104b25760603660031901126104b2576001600160401b039082358281116104ae576113be9036908501612abc565b9360249182358481116104b2576113d89036908701612abc565b604494853590811161097c576113f19036908801612a5f565b968360018060a01b03815416845190631eb01f7360e21b8252338a8301528188816020998a945af19081156115c957906114319183916115b25750613019565b61144461143c613dd4565b509050613c70565b905b82518110156115455761146261145c8285613065565b516138a3565b8061153c575b156114fb5761148061147a8387613065565b516139b0565b90468103611499575b505061149490612d50565b611446565b906114a391613079565b156114af573880611489565b845162461bcd60e51b8152808a018790526022818901527f43544d525741303031583a205f61646458436861696e496e666f58206661696c818a015261195960f21b6064820152608490fd5b855162461bcd60e51b8152808b01889052601b818a01527f43544d525741303031583a20496c6c6567616c20636861696e49640000000000818b0152606490fd5b50801515611468565b509061118261158a926115a48b6115977f8723f273745543d7f7acc5a1717b1601664f11a2bb7474128343791fb817cbe5978951978897608089526080890190612e87565b908782038c890152612e87565b9085820389870152612b8f565b908382036060850152612b8f565b6111d89150873d8911610f9057610f828183612a23565b85513d84823e3d90fd5b5050346101f557816003193601126101f5576020906002549051908152f35b5050346101f557816003193601126101f557905490516001600160a01b039091168152602090f35b9050346104b257826003196080368201126101f557611637612aa6565b6001600160401b0391906024358381116104ae576116589036908701612a5f565b906044358481116104aa576116709036908801612abc565b936064359081116104aa576116889036908801612abc565b9260018060a01b039283875416895190631eb01f7360e21b8252338a8301528160248160209e8f945af19081156117cc5785938a966116df8b958f9a98956116da9061171c9689916117b55750613019565b6139b0565b169561170d8d519a8b998a98899763a6a2d1dd60e01b89521690870152606060248701526064860190612e87565b91848303016044850152612e87565b03925af19182156117aa579161178d575b501561173b57505160018152f35b82608492519162461bcd60e51b8352820152602860248201527f43544d525741303031583a206164644e6577436861696e4964416e64546f6b656044820152671b8819985a5b195960c21b6064820152fd5b6117a49150843d8611610f9057610f828183612a23565b3861172d565b8451903d90823e3d90fd5b6111d891508d803d10610f9057610f828183612a23565b8a513d8a823e3d90fd5b83915060803660031901126101f5576001600160401b0390803582811161097c576118049036908301612a5f565b906024358381116104ae5761181c9036908301612a5f565b906044358481116104aa576118349036908301612abc565b936064359081116104aa5761184c9036908301612abc565b906001600160a01b0361185d613f35565b16331480156119e1575b61187090612e4b565b8451156119925784518251036119305750610a1e9495610d94610a199261189630612edc565b61043861191d8551956118a887612a08565b602f87526e7472696e675b5d2c737472696e672960881b8160208901987f61646458436861696e496e666f5828737472696e672c737472696e675b5d2c738a520152611903815197602f63ffffffff60e01b912016976129c4565b51998a966020880152606060248801526084870190612e87565b6023199384878303016044880152612e87565b608490602088519162461bcd60e51b8352820152603660248201527f43544d525741303031583a204c656e677468206d69736d6174636820636861696044820152756e49647320616e6420636f6e7472616374416464727360501b6064820152fd5b608490602088519162461bcd60e51b83528201526024808201527f43544d525741303031583a205a65726f206c656e677468205f636861696e496460448201526339a9ba3960e11b6064820152fd5b506118706119ee33613d4d565b9050611867565b9050346104b25760803660031901126104b2576001600160401b0381358181116104ae57611a269036908401612a5f565b916024358281116104aa57611a3e9036908301612a5f565b90856044358481116101f557611a579036908401612a5f565b936064359081116101f557611a6f9036908401612a5f565b81548751631eb01f7360e21b815233858201526020996001600160a01b0393928b918391602491839188165af1908115611bfb57611ab892916116da918691611be45750613019565b94611ac2856139b0565b9082611acf61143c613dd4565b9716908951631c0e27e760e11b81528b87820152858180611af3602482018d612b8f565b0381865afa908115611bda5792611b21611b1c8e97969489946024978691611bc0575b50613c0b565b61352f565b8b5197889586946303c1987560e51b865216908401525af1908115610f97575092611b967f14cf4818ffaf499810bbce5d0f41b82e988e8746fe5a8dcca1f2664dd66c4336959361118293611b8996611ba3575b508751958695606087526060870190612b8f565b908582038a870152612b8f565b9083820387850152612b8f565b611bb9908a3d8c11610f9057610f828183612a23565b5038611b75565b611bd491503d8088833e6108b98183612a23565b38611b16565b8b513d88823e3d90fd5b6111d891508c8d3d10610f9057610f828183612a23565b89513d86823e3d90fd5b91905060c03660031901126104b257813560248035926001600160401b0393848111610faf57611c389036908701612a5f565b93604435818111610fab57611c509036908801612a5f565b936064359160843590811161047657611c6c9036908901612a5f565b60a435956001600160a01b0395919491868816880361079d578a96611c90836138a3565b90929080612016575b611ca290613589565b611cae468414156135e1565b81611cb8896139b0565b169b8c3b1561201257611cfd8a898f8a838b5180968195829463224e83b960e11b8452338b8501604091949392606082019560018060a01b0316825260208201520152565b03925af18015611f6157908b91611ffe575b5050611d1d8c51151561363b565b611d2633612edc565b9a86519463331a8a4b60e21b865260209485848801528c8780611d4b8882018c612b8f565b0381305afa968715611fce578d8098611fd8575b50508583611db192611d738a51151561369e565b6007548c5163c73b647160e01b81524689820190815260208101979097526001600160a01b0390931660408701521693909283918291606090910190565b0381855afa908115611fce578d91611f99575b5088516325f076df60e01b81528481019182526001600160a01b0390931660208201528591839182908f90829060400103925af18015611f6157611f6b575b50855163463d31d760e11b81528082018890529c9060808e8481855afa9d8e15611f61578b9e611f3d575b508651631c0e27e760e11b81528181018590529a808c80611e518782018b612b8f565b0381865afa9b8c15611f3157819c611f0b575b50604485928a928a5195869485936349178b2560e01b85528401528d888401525af18015611eff5793610a19610da2947f6050e2c25b5869fcc2d8325771b7fc2d7386bac470b5b49b439d0f1006429fb79f98968f9d8f9d610dac9f9d829f829f9e829f8f92829f9b9c8f9d610d9499611ee2575b50610d69613728565b611ef8908b3d8d11610f9057610f828183612a23565b5038611ed9565b8e8751903d90823e3d90fd5b819c508592611f276044928c943d8091833e6108b98183612a23565b9d92509250611e64565b508751903d90823e3d90fd5b611f56919e5060803d8111610e4b57610e378183612a23565b925050509c38611e2e565b87513d8d823e3d90fd5b8380929b503d8311611f92575b611f828183612a23565b8101031261079d578c9838611e03565b503d611f78565b8092939d50868092503d8311611fc7575b611fb48183612a23565b8101031261079d57518f9b919085611dc4565b503d611faa565b89513d8f823e3d90fd5b611db1929850611ff4889286923d8091833e6108b98183612a23565b989250508d611d5f565b612007906129c4565b612012578938611d0f565b8980fd5b50821515611c99565b82843461046a5760e036600319011261046a576001600160401b039083358281116101f5576120519036908601612a5f565b906024358381116101f5576120699036908701612a5f565b906064359360843560a43582811161097c576120889036908a01612a5f565b9160c43590811161097c576120a09036908a01612a5f565b83548851631eb01f7360e21b815233818c015260209a9295926001600160a01b03929091908c908290851681875a92602493f1908115610987578b9392916120f1918e879261225d575b5050613019565b612136848d61210161143c613dd4565b9061210b8b6139b0565b956121158d6139b0565b961696519384928392631c0e27e760e11b8452878401526024830190612b8f565b0381875afa9081156122535792858c938f958f612163611b1c8d8d9b9861219595889161223f5750613c0b565b519788968795869463bff2ed7160e01b86528501604091949392606082019560018060a01b0316825260208201520152565b03925af191821561223457916121df575b50907fc34928714e1fd89875f0f8da58eef016fbe648c6052a0307e94d88df4bed4b67966111829493928951978897604435918961383e565b93929190508884813d831161222d575b6121f98183612a23565b8101031261079d579251919290917fc34928714e1fd89875f0f8da58eef016fbe648c6052a0307e94d88df4bed4b676121a6565b503d6121ef565b8951903d90823e3d90fd5b611bd491503d808a833e6108b98183612a23565b8c513d87823e3d90fd5b6122739250803d10610f9057610f828183612a23565b8e8e6120ea565b82843461046a57602036600319011261046a578235906001600160401b03821161046a57506116da6020936122b192369101612a5f565b90516001600160a01b039091168152f35b9050346104b257816003193601126104b2576001600160401b0381358181116104ae576122f29036908401612a5f565b9360243591821161046a57509261231161231792602095369101612a5f565b90613c0b565b90519015158152f35b5050346101f557816003193601126101f5576020906122b1613f35565b83915060e03660031901126101f5576024908135936001600160401b03948581116104ae5761236f9036908401612a5f565b916064358681116104aa576123879036908301612a5f565b9560a4359081116104aa5761239f9036908301612a5f565b6001600160a01b0392909160c435918483168303610fab576123c0896138a3565b909990806127dd575b6123d290613589565b6123de468b14156135e1565b856123e8866139b0565b1690813b1561201257825163224e83b960e11b81523385820190815285356020820181905260843560408301819052929d909b92979092918d908f908190606001038183895af180156127d3576127b9575b8c9d5061244d8b9c9d9a9b51151561363b565b61245633612edc565b600754875163c73b647160e01b8152468a82019081526020808201979097526001600160a01b0385166040820152929d909116918590829081906060010381855afa9081156127af578c9161277a575b5087516325f076df60e01b8152808a019182526001600160a01b0390931660208201528491839182908e90829060400103925af180156127425761274c575b50845163331a8a4b60e21b81528681018390529389858061250885820188612b8f565b0381305afa948515612742578a95612726575b506125288551151561369e565b855163463d31d760e11b81528781018e9052966080888481855afa978815611f61578b98612702575b508651631c0e27e760e11b81528181018590529a808c806125748782018a612b8f565b0381865afa9b8c15611f3157908f9291819d6126dc575b508592916044918a5195869485936349178b2560e01b85528401528d888401525af18015611eff578a8a8f95938f999897958f94908d928d926126bf575b508a51986125d68a6129ed565b6049808b527f6d696e745828737472696e672c737472696e672c737472696e672c75696e7432898c019081527f35362c75696e743235362c75696e743235362c75696e743235362c737472696e8e8d015268672c737472696e672960b81b6060909c019b909b528c519a206001600160e01b03191699612655906129c4565b8b51998a988901526044359c8d9289019761266f9861383e565b03601f19810183526126819083612a23565b61268a92613e86565b51978897612698978961383e565b037f6050e2c25b5869fcc2d8325771b7fc2d7386bac470b5b49b439d0f1006429fb791a180f35b6126d590883d8a11610f9057610f828183612a23565b50386125c9565b819d50916126f88794936044933d8091833e6108b98183612a23565b9d9150919261258b565b61271b91985060803d8111610e4b57610e378183612a23565b92505050968f612551565b61273b9195503d808c833e6108b98183612a23565b938e61251b565b86513d8c823e3d90fd5b8280929a503d8311612773575b6127638183612a23565b8101031261079d578b978d6124e5565b503d612759565b8092939c50858092503d83116127a8575b6127958183612a23565b8101031261079d57518e9a9190846124a6565b503d61278b565b88513d8e823e3d90fd5b98999a9b909c6127c8906129c4565b9a9998978c9061243a565b86513d8f823e3d90fd5b508915156123c9565b82843461046a5761010036600319011261046a576001600160401b0383358181116104b2576128189036908601612a5f565b916024358281116101f5576128309036908701612a5f565b9160a43560843560643560c4358481116104aa576128519036908b01612a5f565b9360e4359081116104aa576128699036908b01612a5f565b85548951631eb01f7360e21b815233818d015260209b929792916001600160a01b0391908d908290841681875a92602493f19081156129ba57938093928e6128bd8f97946128f39585916129a35750613019565b6128c68c6139b0565b916128d261143c613dd4565b921696519384928392631c0e27e760e11b8452878401526024830190612b8f565b0381875afa9081156108c8578d92848e61291b611b1c8d8b976064978691611bc05750613c0b565b519687948593630571df6160e21b85528401528960248401528a60448401525af19081156107a95750916111829593917fc34928714e1fd89875f0f8da58eef016fbe648c6052a0307e94d88df4bed4b679998979593612986575b508951978897604435918961383e565b61299c908c8d3d10610f9057610f828183612a23565b508b612976565b6111d89150833d8511610f9057610f828183612a23565b8c513d86823e3d90fd5b6001600160401b0381116129d757604052565b634e487b7160e01b600052604160045260246000fd5b608081019081106001600160401b038211176129d757604052565b606081019081106001600160401b038211176129d757604052565b90601f801991011681019081106001600160401b038211176129d757604052565b6001600160401b0381116129d757601f01601f191660200190565b81601f8201121561079d57803590612a7682612a44565b92612a846040519485612a23565b8284526020838301011161079d57816000926020809301838601378301015290565b600435906001600160a01b038216820361079d57565b9080601f8301121561079d578135906001600160401b03928383116129d7578260051b60405194602094612af286840188612a23565b865284808701928401019380851161079d57858401925b858410612b1a575050505050505090565b833583811161079d578791612b34848480948a0101612a5f565b815201930192612b09565b9181601f8401121561079d578235916001600160401b03831161079d576020838186019501011161079d57565b60005b838110612b7f5750506000910152565b8181015183820152602001612b6f565b90602091612ba881518092818552858086019101612b6c565b601f01601f1916010190565b90600182811c92168015612be4575b6020831014612bce57565b634e487b7160e01b600052602260045260246000fd5b91607f1691612bc3565b6040519060008260085491612c0283612bb4565b80835292600190818116908115612c8a5750600114612c2b575b50612c2992500383612a23565b565b6008600090815291507ff3f7a9fe364faab93b216da50a3214154f22a0a2b415b23a84c8169e8b636ee35b848310612c6f5750612c29935050810160200138612c1c565b81935090816020925483858a01015201910190918592612c56565b905060209250612c2994915060ff191682840152151560051b82010138612c1c565b9060405191826000825492612cc084612bb4565b908184526001948581169081600014612d2d5750600114612cea575b5050612c2992500383612a23565b9093915060005260209081600020936000915b818310612d15575050612c2993508201013880612cdc565b85548884018501529485019487945091830191612cfd565b915050612c2994506020925060ff191682840152151560051b8201013880612cdc565b6000198114612d5f5760010190565b634e487b7160e01b600052601160045260246000fd5b600954811015612daf57600960005260011b7f6e1540171b6c0c960b71a7020d9f60077f6af931a8bbf590da0223dacf75c7af0190600090565b634e487b7160e01b600052603260045260246000fd5b6009549060005b828110612df957505050604051602081018181106001600160401b038211176129d7576040526000815290565b612e1d612e0582612d75565b50612e18612e1285613c70565b91612cac565b613c0b565b612e2f57612e2a90612d50565b612dcc565b612e48925060019150612e4190612d75565b5001612cac565b90565b15612e5257565b60405162461bcd60e51b815260206004820152600d60248201526c23b7bb102327a92124a22222a760991b6044820152606490fd5b90815180825260208092019182818360051b85019501936000915b848310612eb25750505050505090565b9091929394958480612ecc83856001950387528a51612b8f565b9801930193019194939290612ea2565b604051906001600160a01b0316612ef282612a08565b602a8252602082016040368237825115612daf57603090538151600190811015612daf57607860218401536029905b808211612f75575050612f315790565b606460405162461bcd60e51b815260206004820152602060248201527f537472696e67733a20686578206c656e67746820696e73756666696369656e746044820152fd5b9091600f81166010811015612fce576f181899199a1a9b1b9c1cb0b131b232b360811b901a612fa48486612ff0565b5360041c918015612fb9576000190190612f21565b60246000634e487b7160e01b81526011600452fd5b60246000634e487b7160e01b81526032600452fd5b91908201809211612d5f57565b908151811015612daf570160200190565b9081602091031261079d5751801515810361079d5790565b1561302057565b60405162461bcd60e51b815260206004820152601860248201527f433343616c6c6572446170703a206f6e6c7943616c6c657200000000000000006044820152606490fd5b8051821015612daf5760209160051b010190565b613136929160009082907a184f03e93ff9f4daa797ed6e38ed64bf6a1f01000000000000000082818110156134a6575b50506d04ee2d6d415b85acef810000000080851015613497575b50662386f26fc1000080851015613488575b506305f5e10080851015613479575b506127108085101561346a575b50606484101561345a575b600a80941015613450575b6001938484019285602161311a86612a44565b956131286040519788612a23565b808752601f199a8b91612a44565b01966020973689890137860101905b613421575b50505061315961315e91612edc565b613c70565b91600091600954925b8381106133ed5750506040519060408201926001600160401b0393838110858211176129d757604052613198612bee565b8352818301948552680100000000000000008110156129d75780866131c09201600955612d75565b9290926133d75751918251908482116129d75786916131df8254612bb4565b94601f95868111613387575b508490868311600114613323576000919083613318575b5050600019600383901b1c191690831b1781555b0193519687519384116129d75761322d8554612bb4565b8381116132d2575b50819284116001146132715750508192939495600092613266575b5050600019600383901b1c191690831b17905590565b015190503880613250565b6000858152828120918516989193925b8982106132bb57505083869798969596106132a2575b505050811b01905590565b015160001960f88460031b161c19169055388080613297565b808885968294968601518155019501930190613281565b85600052826000208480870160051c82019285881061330f575b0160051c019087905b828110613303575050613235565b600081550187906132f5565b925081926132ec565b015190503880613202565b908b83169184600052866000209260005b888282106133715750509084879594939210613358575b505050811b018155613216565b015160001960f88460031b161c1916905538808061334b565b8385015186558d98909501949384019301613334565b909192809450600052846000208680850160051c8201928786106133ce575b908b9695949392910160051c01905b8181106133c257506131eb565b600081558a95016133b5565b925081926133a6565b634e487b7160e01b600052600060045260246000fd5b61340382612e186133fd84612d75565b50612cac565b6134155761341090612d50565b613167565b50600096505050505050565b600019019082906f181899199a1a9b1b9c1cb0b131b232b360811b8282061a835304908682613145575061314a565b9160010191613107565b91926064600291049301916130fc565b600491939404930191386130f1565b600891939404930191386130e4565b601091939404930191386130d5565b602091939404930191386130c3565b0493506040925038806130a9565b51906001600160a01b038216820361079d57565b81601f8201121561079d5780516134de81612a44565b926134ec6040519485612a23565b8184526020828401011161079d57612e489160208085019101612b6c565b9060208282031261079d5781516001600160401b03811161079d57612e4892016134c8565b1561353657565b60405162461bcd60e51b815260206004820152602560248201527f43544d525741303031583a2046726f6d20616e20696e76616c69642043544d52604482015264574130303160d81b6064820152608490fd5b1561359057565b60405162461bcd60e51b815260206004820152602360248201527f43544d5257413030313a44657374696e6174696f6e20436861696e20696e76616044820152621b1a5960ea1b6064820152608490fd5b156135e857565b60405162461bcd60e51b815260206004820152602560248201527f43544d5257413030313a204e6f7420612063726f73732d636861696e207472616044820152643739b332b960d91b6064820152608490fd5b1561364257565b60405162461bcd60e51b815260206004820152602e60248201527f43544d5257413030313a2044657374696e6174696f6e2061646472657373206860448201526d0c2e640f4cae4de40d8cadccee8d60931b6064820152608490fd5b156136a557565b60405162461bcd60e51b815260206004820152602c60248201527f43544d5257413030313a2054617267657420636f6e747261637420616464726560448201526b1cdcc81b9bdd08199bdd5b9960a21b6064820152608490fd5b919082608091031261079d578151916020810151916060613722604084016134b4565b92015190565b60405190613735826129ed565b60418252602960f81b6060837f6d696e745828737472696e672c737472696e672c737472696e672c75696e743260208201527f35362c75696e743235362c75696e743235362c737472696e672c737472696e6760408201520152565b9591936137c06137dd956137b2612e489a989460e08b5260e08b0190612b8f565b9089820360208b0152612b8f565b9360408801526060870152608086015284820360a0860152612b8f565b9160c0818403910152612b8f565b95919361380c613830956137b2612e489a9894610100808c528b0190612b8f565b93604088015260006060880152608087015260a086015284820360c0860152612b8f565b9160e0818403910152612b8f565b96929361386e612e489997936138606138309894610100808d528c0190612b8f565b908a820360208c0152612b8f565b9460408901526060880152608087015260a086015284820360c0860152612b8f565b60ff602f199116019060ff8211612d5f57565b906000808351156139965780915b845183101561398c576138c48386612ff0565b51906138d360f892831c613890565b5060ff916009836138ef6138e7888b612ff0565b51841c613890565b16116139825761390b906139038689612ff0565b51901c613890565b91865185810390811161396e57600019810190811161396e57604d811161396e57600a0a921682810292818404149015171561395a576139549161394e91612fe3565b92612d50565b916138b1565b634e487b7160e01b83526011600452602483fd5b634e487b7160e01b85526011600452602485fd5b5050509250508190565b9350600192915050565b92506001919050565b60ff16600a019060ff8211612d5f57565b602a815103613afa57604051604081018181106001600160401b038211176129d7576040526014908181526020810192602036853760005b838110613a2e5750505191516bffffffffffffffffffffffff199283821692808210613a1a575b505050905060601c90565b849293500360031b1b161680388080613a0f565b8060011b600290828104821483151715612d5f57808201809211612d5f576001600160f81b031991613a6d908390613a669087612ff0565b5116613b49565b90600491821b90610ff060f0831692168203613ae5576003908101809111613ae55790613a669291613aa48560ff9586938a612ff0565b1601918211613ad0575090613acb929160f81b1660001a613ac58286612ff0565b53612d50565b6139e8565b601190634e487b7160e01b6000525260246000fd5b601183634e487b7160e01b6000525260246000fd5b60405162461bcd60e51b815260206004820152602160248201527f43544d5257413030313a20496e76616c69642061646472657373206c656e67746044820152600d60fb1b6064820152608490fd5b60f81c603081101580613c00575b15613b6557612e4890613890565b606181101580613bf5575b15613b905760ff613b836060199261399f565b160160ff8111612d5f5790565b604181101580613bea575b613bdc5760405162461bcd60e51b815260206004820152601560248201527424b73b30b634b2103432bc1031b430b930b1ba32b960591b6044820152606490fd5b60ff613b836040199261399f565b506046811115613b9b565b506066811115613b70565b506039811115613b57565b906040519182613c276020820192602084526040830190612b8f565b0392613c3b601f1994858101835282612a23565b51902091613c696040519182613c5d6020820195602087526040830190612b8f565b03908101835282612a23565b5190201490565b908151613c7c81612a44565b90613c8a6040519283612a23565b808252613c99601f1991612a44565b01602090368284013760005b8451811015613d4657613cb88186612ff0565b5190604160f892831c101580613d2f575b15613d085782613cd98288612ff0565b51831c019160ff8311612d5f57613d0392901b6001600160f81b03191660001a613ac58286612ff0565b613ca5565b613d0391506001600160f81b0319613d208288612ff0565b511660001a613ac58286612ff0565b50605a613d3c8288612ff0565b51831c1115613cc9565b5090925050565b60008054604051631eb01f7360e21b81526001600160a01b039384166004820152926020928492602492849291165af1908115613da757600091613d8f575090565b612e48915060203d8111610f9057610f828183612a23565b6040513d6000823e3d90fd5b908060209392818452848401376000828201840152601f01601f1916010190565b60008054604051636824b6b560e11b81529192908390839060049082906001600160a01b03165afa918215613e7b578390848094613e14575b5050929190565b93509350503d8083853e613e288185612a23565b83016060848203126104b2578351936020810151906001600160401b03918281116104aa5783613e599183016134c8565b94604082015192831161046a5750613e729291016134c8565b91923880613e0d565b6040513d85823e3d90fd5b92919060009160018060a01b038354169160015491833b156104ae579184602081959382613f01613ede9a9b97613ef16040519c8d9a8b996304f4c7fb60e31b8b5260048b015260a060248b015260a48a0190612b8f565b60031995868a83030160448b0152612b8f565b9084888303016064890152612b8f565b85810392830160848701525201925af1908115613f295750613f205750565b612c29906129c4565b604051903d90823e3d90fd5b600554421015613f4e576003546001600160a01b031690565b6004546001600160a01b03169056fea2646970667358221220223b9144a3ab3e520b3d89f049ef5ae8f6e70bd05b63d957831bcc16e3ee509564736f6c63430008140033",
  "linkReferences": {},
  "deployedLinkReferences": {}
}