{
  "_format": "hh-sol-artifact-1",
  "contractName": "CTMRWA001X",
  "sourceName": "contracts/CTMRWA001X.sol",
  "abi": [
    {
      "inputs": [
        {
          "internalType": "address",
          "name": "_feeManager",
          "type": "address"
        },
        {
          "internalType": "address",
          "name": "_gov",
          "type": "address"
        },
        {
          "internalType": "address",
          "name": "_c3callerProxy",
          "type": "address"
        },
        {
          "internalType": "address",
          "name": "_txSender",
          "type": "address"
        },
        {
          "internalType": "uint256",
          "name": "_dappID",
          "type": "uint256"
        }
      ],
      "stateMutability": "nonpayable",
      "type": "constructor"
    },
    {
      "anonymous": false,
      "inputs": [
        {
          "indexed": false,
          "internalType": "string",
          "name": "fromChainIdStr",
          "type": "string"
        },
        {
          "indexed": false,
          "internalType": "string",
          "name": "fromContractStr",
          "type": "string"
        },
        {
          "indexed": false,
          "internalType": "string[]",
          "name": "chainIdsStr",
          "type": "string[]"
        },
        {
          "indexed": false,
          "internalType": "string[]",
          "name": "ctmRwa001AddrsStr",
          "type": "string[]"
        }
      ],
      "name": "AddNewChainAndToken",
      "type": "event"
    },
    {
      "anonymous": false,
      "inputs": [
        {
          "indexed": false,
          "internalType": "string",
          "name": "currentAdminStr",
          "type": "string"
        },
        {
          "indexed": false,
          "internalType": "string",
          "name": "newAdminStr",
          "type": "string"
        },
        {
          "indexed": false,
          "internalType": "string",
          "name": "fromChainIdStr",
          "type": "string"
        }
      ],
      "name": "ChangeAdminDest",
      "type": "event"
    },
    {
      "anonymous": false,
      "inputs": [
        {
          "indexed": true,
          "internalType": "address",
          "name": "oldGov",
          "type": "address"
        },
        {
          "indexed": true,
          "internalType": "address",
          "name": "newGov",
          "type": "address"
        },
        {
          "indexed": true,
          "internalType": "uint256",
          "name": "effectiveTime",
          "type": "uint256"
        },
        {
          "indexed": false,
          "internalType": "uint256",
          "name": "chainID",
          "type": "uint256"
        }
      ],
      "name": "LogChangeGov",
      "type": "event"
    },
    {
      "anonymous": false,
      "inputs": [
        {
          "indexed": false,
          "internalType": "bytes4",
          "name": "selector",
          "type": "bytes4"
        },
        {
          "indexed": false,
          "internalType": "bytes",
          "name": "data",
          "type": "bytes"
        },
        {
          "indexed": false,
          "internalType": "bytes",
          "name": "reason",
          "type": "bytes"
        }
      ],
      "name": "LogFallback",
      "type": "event"
    },
    {
      "anonymous": false,
      "inputs": [
        {
          "indexed": true,
          "internalType": "address",
          "name": "txSender",
          "type": "address"
        },
        {
          "indexed": false,
          "internalType": "bool",
          "name": "vaild",
          "type": "bool"
        }
      ],
      "name": "LogTxSender",
      "type": "event"
    },
    {
      "anonymous": false,
      "inputs": [
        {
          "indexed": false,
          "internalType": "string[]",
          "name": "chainIdsStr",
          "type": "string[]"
        },
        {
          "indexed": false,
          "internalType": "string[]",
          "name": "contractAddrsStr",
          "type": "string[]"
        },
        {
          "indexed": false,
          "internalType": "string",
          "name": "fromContractStr",
          "type": "string"
        },
        {
          "indexed": false,
          "internalType": "string",
          "name": "fromChainIdStr",
          "type": "string"
        }
      ],
      "name": "SetChainContract",
      "type": "event"
    },
    {
      "anonymous": false,
      "inputs": [
        {
          "indexed": false,
          "internalType": "string",
          "name": "fromAddressStr",
          "type": "string"
        },
        {
          "indexed": false,
          "internalType": "string",
          "name": "toAddressStr",
          "type": "string"
        },
        {
          "indexed": false,
          "internalType": "uint256",
          "name": "fromtokenId",
          "type": "uint256"
        },
        {
          "indexed": false,
          "internalType": "uint256",
          "name": "toTokenId",
          "type": "uint256"
        },
        {
          "indexed": false,
          "internalType": "uint256",
          "name": "slot",
          "type": "uint256"
        },
        {
          "indexed": false,
          "internalType": "uint256",
          "name": "value",
          "type": "uint256"
        },
        {
          "indexed": false,
          "internalType": "string",
          "name": "fromCtmRwa001AddrStr",
          "type": "string"
        },
        {
          "indexed": false,
          "internalType": "string",
          "name": "toCtmRwa001AddrStr",
          "type": "string"
        }
      ],
      "name": "TransferFromSourceX",
      "type": "event"
    },
    {
      "anonymous": false,
      "inputs": [
        {
          "indexed": false,
          "internalType": "string",
          "name": "fromAddressStr",
          "type": "string"
        },
        {
          "indexed": false,
          "internalType": "string",
          "name": "toAddressStr",
          "type": "string"
        },
        {
          "indexed": false,
          "internalType": "uint256",
          "name": "fromTokenId",
          "type": "uint256"
        },
        {
          "indexed": false,
          "internalType": "uint256",
          "name": "toTokenId",
          "type": "uint256"
        },
        {
          "indexed": false,
          "internalType": "uint256",
          "name": "slot",
          "type": "uint256"
        },
        {
          "indexed": false,
          "internalType": "uint256",
          "name": "value",
          "type": "uint256"
        },
        {
          "indexed": false,
          "internalType": "string",
          "name": "fromContractStr",
          "type": "string"
        },
        {
          "indexed": false,
          "internalType": "string",
          "name": "ctmRwa001AddrStr",
          "type": "string"
        }
      ],
      "name": "TransferToDestX",
      "type": "event"
    },
    {
      "inputs": [
        {
          "internalType": "string",
          "name": "toChainIdStr_",
          "type": "string"
        },
        {
          "internalType": "string[]",
          "name": "_chainIdsStr",
          "type": "string[]"
        },
        {
          "internalType": "string[]",
          "name": "_otherCtmRwa001AddrsStr",
          "type": "string[]"
        },
        {
          "internalType": "string",
          "name": "_ctmRwa001AddrStr",
          "type": "string"
        }
      ],
      "name": "addNewChainIdAndToken",
      "outputs": [],
      "stateMutability": "payable",
      "type": "function"
    },
    {
      "inputs": [
        {
          "internalType": "string",
          "name": "_adminStr",
          "type": "string"
        },
        {
          "internalType": "string[]",
          "name": "_chainIdsStr",
          "type": "string[]"
        },
        {
          "internalType": "string[]",
          "name": "_otherCtmRwa001AddrsStr",
          "type": "string[]"
        },
        {
          "internalType": "string",
          "name": "_fromContractStr",
          "type": "string"
        },
        {
          "internalType": "string",
          "name": "_ctmRwa001AddrStr",
          "type": "string"
        }
      ],
      "name": "addNewChainIdAndTokenX",
      "outputs": [
        {
          "internalType": "bool",
          "name": "",
          "type": "bool"
        }
      ],
      "stateMutability": "nonpayable",
      "type": "function"
    },
    {
      "inputs": [
        {
          "internalType": "address",
          "name": "txSender",
          "type": "address"
        }
      ],
      "name": "addTxSender",
      "outputs": [],
      "stateMutability": "nonpayable",
      "type": "function"
    },
    {
      "inputs": [
        {
          "internalType": "string",
          "name": "_tochainIdStr",
          "type": "string"
        },
        {
          "internalType": "string",
          "name": "_toContractStr",
          "type": "string"
        },
        {
          "internalType": "string[]",
          "name": "_chainIdsStr",
          "type": "string[]"
        },
        {
          "internalType": "string[]",
          "name": "_contractAddrsStr",
          "type": "string[]"
        }
      ],
      "name": "addXChainInfo",
      "outputs": [],
      "stateMutability": "payable",
      "type": "function"
    },
    {
      "inputs": [
        {
          "internalType": "string[]",
          "name": "_chainIdsStr",
          "type": "string[]"
        },
        {
          "internalType": "string[]",
          "name": "_contractAddrsStr",
          "type": "string[]"
        },
        {
          "internalType": "string",
          "name": "_fromContractStr",
          "type": "string"
        }
      ],
      "name": "addXChainInfoX",
      "outputs": [
        {
          "internalType": "bool",
          "name": "",
          "type": "bool"
        }
      ],
      "stateMutability": "nonpayable",
      "type": "function"
    },
    {
      "inputs": [
        {
          "internalType": "string",
          "name": "_currentAdminStr",
          "type": "string"
        },
        {
          "internalType": "string",
          "name": "_newAdminStr",
          "type": "string"
        },
        {
          "internalType": "string",
          "name": "_fromContractStr",
          "type": "string"
        },
        {
          "internalType": "string",
          "name": "_ctmRwa001AddrStr",
          "type": "string"
        }
      ],
      "name": "adminX",
      "outputs": [
        {
          "internalType": "bool",
          "name": "",
          "type": "bool"
        }
      ],
      "stateMutability": "nonpayable",
      "type": "function"
    },
    {
      "inputs": [],
      "name": "c3CallerProxy",
      "outputs": [
        {
          "internalType": "address",
          "name": "",
          "type": "address"
        }
      ],
      "stateMutability": "view",
      "type": "function"
    },
    {
      "inputs": [
        {
          "internalType": "uint256",
          "name": "_dappID",
          "type": "uint256"
        },
        {
          "internalType": "bytes",
          "name": "_data",
          "type": "bytes"
        },
        {
          "internalType": "bytes",
          "name": "_reason",
          "type": "bytes"
        }
      ],
      "name": "c3Fallback",
      "outputs": [
        {
          "internalType": "bool",
          "name": "",
          "type": "bool"
        }
      ],
      "stateMutability": "nonpayable",
      "type": "function"
    },
    {
      "inputs": [],
      "name": "chainIdStr",
      "outputs": [
        {
          "internalType": "string",
          "name": "",
          "type": "string"
        }
      ],
      "stateMutability": "view",
      "type": "function"
    },
    {
      "inputs": [
        {
          "internalType": "string",
          "name": "_newAdminStr",
          "type": "string"
        },
        {
          "internalType": "string",
          "name": "toChainIdStr_",
          "type": "string"
        },
        {
          "internalType": "string",
          "name": "_ctmRwa001AddrStr",
          "type": "string"
        },
        {
          "internalType": "address",
          "name": "feeToken",
          "type": "address"
        }
      ],
      "name": "changeAdminCrossChain",
      "outputs": [
        {
          "internalType": "bool",
          "name": "",
          "type": "bool"
        }
      ],
      "stateMutability": "payable",
      "type": "function"
    },
    {
      "inputs": [
        {
          "internalType": "address",
          "name": "newGov",
          "type": "address"
        }
      ],
      "name": "changeGov",
      "outputs": [],
      "stateMutability": "nonpayable",
      "type": "function"
    },
    {
      "inputs": [],
      "name": "dappID",
      "outputs": [
        {
          "internalType": "uint256",
          "name": "",
          "type": "uint256"
        }
      ],
      "stateMutability": "view",
      "type": "function"
    },
    {
      "inputs": [],
      "name": "delay",
      "outputs": [
        {
          "internalType": "uint256",
          "name": "",
          "type": "uint256"
        }
      ],
      "stateMutability": "view",
      "type": "function"
    },
    {
      "inputs": [
        {
          "internalType": "string",
          "name": "_adminStr",
          "type": "string"
        },
        {
          "internalType": "uint256",
          "name": "_value",
          "type": "uint256"
        }
      ],
      "name": "deployCTMRWA001",
      "outputs": [
        {
          "internalType": "bool",
          "name": "",
          "type": "bool"
        }
      ],
      "stateMutability": "nonpayable",
      "type": "function"
    },
    {
      "inputs": [
        {
          "internalType": "address",
          "name": "txSender",
          "type": "address"
        }
      ],
      "name": "disableTxSender",
      "outputs": [],
      "stateMutability": "nonpayable",
      "type": "function"
    },
    {
      "inputs": [
        {
          "internalType": "string",
          "name": "_to",
          "type": "string"
        },
        {
          "internalType": "string",
          "name": "_toChainID",
          "type": "string"
        },
        {
          "internalType": "bytes",
          "name": "_data",
          "type": "bytes"
        }
      ],
      "name": "doGov",
      "outputs": [],
      "stateMutability": "nonpayable",
      "type": "function"
    },
    {
      "inputs": [
        {
          "internalType": "string[]",
          "name": "_targets",
          "type": "string[]"
        },
        {
          "internalType": "string[]",
          "name": "_toChainIDs",
          "type": "string[]"
        },
        {
          "internalType": "bytes",
          "name": "_data",
          "type": "bytes"
        }
      ],
      "name": "doGovBroadcast",
      "outputs": [],
      "stateMutability": "nonpayable",
      "type": "function"
    },
    {
      "inputs": [],
      "name": "feeManager",
      "outputs": [
        {
          "internalType": "address",
          "name": "",
          "type": "address"
        }
      ],
      "stateMutability": "view",
      "type": "function"
    },
    {
      "inputs": [
        {
          "internalType": "string",
          "name": "_chainIdStr",
          "type": "string"
        }
      ],
      "name": "getChainContract",
      "outputs": [
        {
          "internalType": "string",
          "name": "",
          "type": "string"
        }
      ],
      "stateMutability": "view",
      "type": "function"
    },
    {
      "inputs": [],
      "name": "gov",
      "outputs": [
        {
          "internalType": "address",
          "name": "",
          "type": "address"
        }
      ],
      "stateMutability": "view",
      "type": "function"
    },
    {
      "inputs": [
        {
          "internalType": "address",
          "name": "txSender",
          "type": "address"
        }
      ],
      "name": "isValidSender",
      "outputs": [
        {
          "internalType": "bool",
          "name": "",
          "type": "bool"
        }
      ],
      "stateMutability": "view",
      "type": "function"
    },
    {
      "inputs": [
        {
          "internalType": "string",
          "name": "toAddressStr_",
          "type": "string"
        },
        {
          "internalType": "string",
          "name": "toChainIdStr_",
          "type": "string"
        },
        {
          "internalType": "uint256",
          "name": "slot_",
          "type": "uint256"
        },
        {
          "internalType": "uint256",
          "name": "value_",
          "type": "uint256"
        },
        {
          "internalType": "string",
          "name": "_ctmRwa001AddrStr",
          "type": "string"
        },
        {
          "internalType": "address",
          "name": "feeToken",
          "type": "address"
        }
      ],
      "name": "mintNewToken",
      "outputs": [],
      "stateMutability": "payable",
      "type": "function"
    },
    {
      "inputs": [
        {
          "internalType": "string",
          "name": "fromAddressStr_",
          "type": "string"
        },
        {
          "internalType": "string",
          "name": "toAddressStr_",
          "type": "string"
        },
        {
          "internalType": "uint256",
          "name": "fromTokenId_",
          "type": "uint256"
        },
        {
          "internalType": "uint256",
          "name": "toTokenId_",
          "type": "uint256"
        },
        {
          "internalType": "uint256",
          "name": "slot_",
          "type": "uint256"
        },
        {
          "internalType": "uint256",
          "name": "value_",
          "type": "uint256"
        },
        {
          "internalType": "string",
          "name": "_fromContractStr",
          "type": "string"
        },
        {
          "internalType": "string",
          "name": "_ctmRwa001AddrStr",
          "type": "string"
        }
      ],
      "name": "mintX",
      "outputs": [
        {
          "internalType": "bool",
          "name": "",
          "type": "bool"
        }
      ],
      "stateMutability": "nonpayable",
      "type": "function"
    },
    {
      "inputs": [
        {
          "internalType": "string",
          "name": "fromAddressStr_",
          "type": "string"
        },
        {
          "internalType": "string",
          "name": "toAddressStr_",
          "type": "string"
        },
        {
          "internalType": "uint256",
          "name": "fromTokenId_",
          "type": "uint256"
        },
        {
          "internalType": "uint256",
          "name": "slot_",
          "type": "uint256"
        },
        {
          "internalType": "uint256",
          "name": "balance_",
          "type": "uint256"
        },
        {
          "internalType": "string",
          "name": "_fromContractStr",
          "type": "string"
        },
        {
          "internalType": "string",
          "name": "_ctmRwa001AddrStr",
          "type": "string"
        }
      ],
      "name": "mintX",
      "outputs": [
        {
          "internalType": "bool",
          "name": "",
          "type": "bool"
        }
      ],
      "stateMutability": "nonpayable",
      "type": "function"
    },
    {
      "inputs": [
        {
          "internalType": "uint256",
          "name": "_delay",
          "type": "uint256"
        }
      ],
      "name": "setDelay",
      "outputs": [],
      "stateMutability": "nonpayable",
      "type": "function"
    },
    {
      "inputs": [
        {
          "internalType": "string",
          "name": "_str",
          "type": "string"
        }
      ],
      "name": "strToUint",
      "outputs": [
        {
          "internalType": "uint256",
          "name": "res",
          "type": "uint256"
        },
        {
          "internalType": "bool",
          "name": "err",
          "type": "bool"
        }
      ],
      "stateMutability": "pure",
      "type": "function"
    },
    {
      "inputs": [
        {
          "internalType": "string",
          "name": "str",
          "type": "string"
        }
      ],
      "name": "stringToAddress",
      "outputs": [
        {
          "internalType": "address",
          "name": "",
          "type": "address"
        }
      ],
      "stateMutability": "pure",
      "type": "function"
    },
    {
      "inputs": [
        {
          "internalType": "string",
          "name": "a",
          "type": "string"
        },
        {
          "internalType": "string",
          "name": "b",
          "type": "string"
        }
      ],
      "name": "stringsEqual",
      "outputs": [
        {
          "internalType": "bool",
          "name": "",
          "type": "bool"
        }
      ],
      "stateMutability": "pure",
      "type": "function"
    },
    {
      "inputs": [
        {
          "internalType": "uint256",
          "name": "fromTokenId_",
          "type": "uint256"
        },
        {
          "internalType": "string",
          "name": "toAddressStr_",
          "type": "string"
        },
        {
          "internalType": "uint256",
          "name": "toTokenId_",
          "type": "uint256"
        },
        {
          "internalType": "string",
          "name": "toChainIdStr_",
          "type": "string"
        },
        {
          "internalType": "uint256",
          "name": "value_",
          "type": "uint256"
        },
        {
          "internalType": "string",
          "name": "_ctmRwa001AddrStr",
          "type": "string"
        },
        {
          "internalType": "address",
          "name": "feeToken",
          "type": "address"
        }
      ],
      "name": "transferFromX",
      "outputs": [],
      "stateMutability": "payable",
      "type": "function"
    },
    {
      "inputs": [
        {
          "internalType": "uint256",
          "name": "fromTokenId_",
          "type": "uint256"
        },
        {
          "internalType": "string",
          "name": "toAddressStr_",
          "type": "string"
        },
        {
          "internalType": "string",
          "name": "toChainIdStr_",
          "type": "string"
        },
        {
          "internalType": "uint256",
          "name": "value_",
          "type": "uint256"
        },
        {
          "internalType": "string",
          "name": "_ctmRwa001AddrStr",
          "type": "string"
        },
        {
          "internalType": "address",
          "name": "feeToken",
          "type": "address"
        }
      ],
      "name": "transferFromX",
      "outputs": [],
      "stateMutability": "payable",
      "type": "function"
    },
    {
      "inputs": [
        {
          "internalType": "string",
          "name": "toAddressStr_",
          "type": "string"
        },
        {
          "internalType": "string",
          "name": "toChainIdStr_",
          "type": "string"
        },
        {
          "internalType": "uint256",
          "name": "fromTokenId_",
          "type": "uint256"
        },
        {
          "internalType": "string",
          "name": "_ctmRwa001AddrStr",
          "type": "string"
        },
        {
          "internalType": "address",
          "name": "feeToken",
          "type": "address"
        }
      ],
      "name": "transferFromX",
      "outputs": [],
      "stateMutability": "payable",
      "type": "function"
    }
  ],
  "bytecode": "0x60808060405234620002265760a08162004fad80380380916200002382856200022b565b8339810103126200022657620000398162000265565b906020916200004a83830162000265565b620000586040840162000265565b926080620000696060830162000265565b9101519260018060a01b0380928160018060a01b0319958160009916878a541617895560019788556202a30060025516808660035416176003558560045416176004554260055516855260068652604085208460ff1982541617905516906007541617600755620000da46620002d3565b805192906001600160401b0384116200021257620000fa6008546200027a565b601f8111620001c6575b508491601f85116001146200015d57939450849291908362000151575b50501b916000199060031b1c1916176008555b620001403046620004af565b50604051614408908162000ba58239f35b01519250388062000121565b6008815285812093958591601f198316915b88838310620001ab575050501062000191575b505050811b0160085562000134565b015160001960f88460031b161c1916905538808062000182565b8587015188559096019594850194879350908101906200016f565b60088352858320601f860160051c81019187871062000207575b601f0160051c019084905b828110620001fb57505062000104565b848155018490620001eb565b9091508190620001e0565b634e487b7160e01b82526041600452602482fd5b600080fd5b601f909101601f19168101906001600160401b038211908210176200024f57604052565b634e487b7160e01b600052604160045260246000fd5b51906001600160a01b03821682036200022657565b90600182811c92168015620002ac575b60208310146200029657565b634e487b7160e01b600052602260045260246000fd5b91607f16916200028a565b6001600160401b0381116200024f57601f01601f191660200190565b806000917a184f03e93ff9f4daa797ed6e38ed64bf6a1f0100000000000000008082101562000444575b506d04ee2d6d415b85acef81000000008083101562000434575b50662386f26fc100008083101562000424575b506305f5e1008083101562000414575b506127108083101562000404575b506064821015620003f3575b600a80921015620003e8575b600190816021818601956200037587620002b7565b966200038560405198896200022b565b80885262000396601f1991620002b7565b01366020890137860101905b620003af575b5050505090565b600019019083906f181899199a1a9b1b9c1cb0b131b232b360811b8282061a835304918215620003e257919082620003a2565b620003a8565b916001019162000360565b919060646002910491019162000354565b6004919392049101913862000348565b600891939204910191386200033a565b601091939204910191386200032a565b6020919392049101913862000317565b604093508104915038620002fd565b6000198114620004635760010190565b634e487b7160e01b600052601160045260246000fd5b6009548110156200049957600960005260206000209060011b0190600090565b634e487b7160e01b600052603260045260246000fd5b620004bd90929192620002d3565b6040805190936001600160a01b0316916001600160401b0390606090818401838111858210176200024f578752602a84526020908185018836823785511562000499576030905384519560019687101562000499576078602187015360295b87811162000ad6575062000a94576200055b978551956200053d87620002b7565b966200054c835198896200022b565b808852601f199a8b91620002b7565b0136858901376000885b620009cc575b50506009549160005b838110620008b157505080519381850191858310878411176200024f578290526000600854620005a4816200027a565b808552908a81169081156200089157506001146200084c575b50620005d29150859003603f1901826200022b565b8352818301948552680100000000000000008110156200024f578086620005fd920160095562000479565b929092620008365751918251908482116200024f5786916200062082546200027a565b94601f95868111620007e1575b508490868311600114620007785760009190836200076c575b5050600019600383901b1c191690831b1781555b0193519687519384116200024f576200067485546200027a565b83811162000721575b5081928411600114620006bc5750508192939495600092620006b0575b5050600019600383901b1c191690831b17905590565b0151905038806200069a565b6000858152828120918516989193925b898210620007095750508386979896959610620006ef575b505050811b01905590565b015160001960f88460031b161c19169055388080620006e4565b808885968294968601518155019501930190620006cc565b85600052826000208480870160051c82019285881062000762575b0160051c019087905b828110620007555750506200067d565b6000815501879062000745565b925081926200073c565b01519050388062000646565b908b83169184600052866000209260005b88828210620007ca5750509084879594939210620007b0575b505050811b0181556200065a565b015160001960f88460031b161c19169055388080620007a2565b8385015186558d9890950194938401930162000789565b909192809450600052846000208680850160051c8201928786106200082c575b908b9695949392910160051c01905b8181106200081f57506200062d565b600081558a950162000810565b9250819262000801565b634e487b7160e01b600052600060045260246000fd5b919050600860005284600020858a6000925b8584106200087957505050620005d2925086010138620005bd565b80548a8501860152919092019187918c91016200085e565b60ff19168885015250620005d29290151560051b870101905038620005bd565b620008bc8162000479565b50898451809260009080548a620008d3826200027a565b808652958216918215620009aa57505060011462000963575b50620008fb925003826200022b565b83516200091f8d82620009128a8201958662000b59565b039081018352826200022b565b5190208b84516200093a888201928262000912888662000b59565b5190201462000954576200094e9062000453565b62000574565b50600099505050505050505050565b915050600052818780600020928d6000945b8286106200098f57505050620008fb9282010138620008ec565b8091929450548386880101520192019183918d8a9262000975565b60ff191685820152620008fb95151560051b8501019250389150620008ec9050565b815181101562000a8e57620009e2818362000b47565b519089604160f893841c10158062000a74575b1562000a4757508562000a09828562000b47565b51831c019060ff821162000463578a9262000a4092901b6001600160f81b03191660001a62000a39828c62000b47565b5362000453565b9062000565565b915062000a40906001600160f81b031962000a63828662000b47565b511660001a62000a39828c62000b47565b50605a62000a83838662000b47565b51841c1115620009f5565b6200056b565b60648289519062461bcd60e51b825280600483015260248201527f537472696e67733a20686578206c656e67746820696e73756666696369656e746044820152fd5b90600f8116601081101562000b32576f181899199a1a9b1b9c1cb0b131b232b360811b901a62000b07838962000b47565b5360041c90801562000b1d57600019016200051c565b60246000634e487b7160e01b81526011600452fd5b60246000634e487b7160e01b81526032600452fd5b90815181101562000499570160200190565b6020808252825181830181905290939260005b82811062000b8f57505060409293506000838284010152601f8019910116010190565b81810186015184820160400152850162000b6c56fe6040608081526004908136101561001557600080fd5b600091823560e01c90816307cdd39014612c4e57816310de50b4146127e257816312d43a51146127c557816313d199501461276757816315706fdf1461271f57816326c724a8146124c5578163321de7be146120ee5781633b12b23914611ece578163472804d914611caf57816358f2c05714611c875781636a42b8f814611c685781636aacc0a014611bff57816375a1f0ee146119bf578163954b0ad51461168757838263a7bfa12d146115ed57508163a962ef1e146114e4578163b121f51d1461137d578163c516ad111461135e578163c5ef3ec514611315578163cc6a292c146112c5578163d0fb02031461129c578163d326e2b514610d58578163d43a0aa714610a3e578163d60ad41b14610996578163da8e669e14610582578163dd64b3e614610420578163e177246e146103cf57508063eebd14af14610339578063f01f2b8b146102fc578063f9038f101461020f5763f9e4cbaf1461017a57600080fd5b3461020b57602036600319011261020b577fbfb8b3e2f6221ae729e9cacb0d35f5d9be686ba10cb1d4e34b646bbb87f7a26960206101b6612f2f565b6001600160a01b0390816101c86143aa565b16331480156101f7575b6101db90613218565b1680855260068252838520805460ff191690559251848152a280f35b506101db610204336141c2565b90506101d2565b5080fd5b5090346102f957806003193601126102f9575080516000916008546102338161303d565b808452906001908181169081156102d15750600114610274575b505061025e82610270940383612e96565b51918291602083526020830190613018565b0390f35b6008600090815294507ff3f7a9fe364faab93b216da50a3214154f22a0a2b415b23a84c8169e8b636ee35b8286106102b9575050509181016020019161025e8261024d565b8054602087870181019190915290950194810161029f565b6102709650859250602091509261025e9360ff191682840152151560051b820101945061024d565b80fd5b503461020b57602036600319011261020b5760209160ff9082906001600160a01b03610326612f2f565b1681526006855220541690519015158152f35b503461020b57602036600319011261020b577fbfb8b3e2f6221ae729e9cacb0d35f5d9be686ba10cb1d4e34b646bbb87f7a2696020610376612f2f565b6001600160a01b0390816103886143aa565b16331480156103bb575b61039b90613218565b169283855260068252808520600160ff198254161790555160018152a280f35b5061039b6103c8336141c2565b9050610392565b83903461020b57602036600319011261020b576001600160a01b036103f26143aa565b163314801561040c575b61040590613218565b3560025580f35b50610405610419336141c2565b90506103fc565b83833461020b576003199060603683011261057e576001600160401b0391843583811161057a576104549036908701612f45565b6024358481116105765761046b9036908801612f45565b93604435908111610576576104839036908801612ed2565b6001600160a01b0396876104956143aa565b1633148015610562575b6104a890613218565b82518651036105465786978754169160015491833b1561054257610516899687936105076104f79b8b519c8d9a8b998a9863ec6a8b7d60e01b8a52890152608060248901526084880190613254565b9084878303016044880152613254565b91848303016064850152613018565b03925af190811561053957506105295750f35b61053290612e37565b6102f95780f35b513d84823e3d90fd5b8880fd5b60449087602087519262461bcd60e51b84528301526024820152fd5b506104a861056f336141c2565b905061049f565b8580fd5b8480fd5b8280fd5b9050608036600319011261057e576001600160401b0390803582811161057a576105af9036908301612ed2565b91602435818111610576576105c79036908401612ed2565b90604435908111610576576105df9036908401612ed2565b6001600160a01b03936064359390858516850361085f5761061161060b610605466137db565b86614080565b15613943565b8561061b84613e24565b16918751986303e1469160e61b8a526020998a81848185895af1908115610900578291610961575b50888116330361090a57610656906132a9565b96818a518096631c0e27e760e11b82528d86830152818061067a602482018d613018565b03915afa9485156109005782956108e4575b50895163331a8a4b60e21b81528381018c905298828a806106b0602482018c613018565b0381305afa998a156108da57839a6108b6575b506106d08a511515613a19565b60075416818c898d6106fd6106e4466137db565b9151635865233b60e01b815294859384938b8501613a7b565b0381855afa9081156108ac57908c8e9493928692610876575b50516325f076df60e01b81529586019081526001600160a01b03909216602083015284918290859082906040015b03925af190811561086b575090899161083d575b505086519261076684612e7b565b602a8085527f61646d696e5828737472696e672c737472696e672c737472696e672c737472698a8601908152696e672c737472696e672960b01b958a0195909552885194206001600160e01b031916936107bf90612e37565b87519586948a860152602485016080905260a485016107dd91613018565b9160231992838682030160448701526107f591613018565b8285820301606486015261080891613018565b9083820301608484015261081b91613018565b03601f198101835261082d9083612e96565b610836926142fb565b5160018152f35b813d8311610864575b6108508183612e96565b8101031261085f578738610758565b600080fd5b503d610846565b8951903d90823e3d90fd5b948092508591503d83116108a5575b61088f8183612e96565b8101031261085f5791518c92908c610744610716565b503d610885565b8c513d86823e3d90fd5b6108d3919a503d8085833e6108cb8183612e96565b8101906139f4565b98386106c3565b8b513d85823e3d90fd5b6108f99195503d8084833e6108cb8183612e96565b933861068c565b8a513d84823e3d90fd5b895162461bcd60e51b81528084018c9052602b60248201527f43544d525741303031583a204f6e6c792061646d696e2063616e206368616e6760448201526a32903a34329030b236b4b760a91b6064820152608490fd5b90508a81813d831161098f575b6109788183612e96565b8101031261020b576109899061399e565b38610643565b503d61096e565b83903461020b57606036600319011261020b576001600160401b038135818111610a3a576109c79036908401612ed2565b9060243581811161057a576109df9036908501612ed2565b9060443590811161057a57610a23936109fa91369101612ed2565b916001600160a01b03610a0b6143aa565b1633148015610a26575b610a1e90613218565b6142fb565b80f35b50610a1e610a33336141c2565b9050610a15565b8380fd5b919050608036600319011261057e576001600160401b03823581811161057a57610a6b9036908501612ed2565b9060243581811161057657610a839036908601612f45565b90604435818111610d5457610a9b9036908701612f45565b90606435908111610d5457610ab39036908701612ed2565b6001600160a01b03929083610ac782613e24565b1692865180956303e1469160e61b82528a828b6020998a938a5af1918215610d4a578b92610d0f575b5081163303610ccc57610b02906132a9565b8988518096631c0e27e760e11b8252888c8301528180610b25602482018d613018565b03915afa948515610ca6578a95610cb0575b50875163331a8a4b60e21b8152988901869052898980610b5a602482018b613018565b0381305afa988915610ca6578a99610c8a575b5088511515610b7b90613a19565b875197610b8789612e60565b6045808a527f6164644e6577436861696e4964416e64546f6b656e5828737472696e672c7374888b019081527f72696e672c737472696e675b5d2c737472696e675b5d2c737472696e672c7374838c01526472696e672960d81b6060909b019a909a52815199206001600160e01b03191698610c0290612e37565b519788968701526024860160a0905260c48601610c1e91613018565b926023199384878203016044880152610c3691613254565b83868203016064870152610c4991613254565b82858203016084860152610c5c91613018565b908382030160a4840152610c6f91613018565b03601f1981018352610c819083612e96565b610a23926142fb565b610c9f9199503d808c833e6108cb8183612e96565b9738610b6d565b88513d8c823e3d90fd5b610cc59195503d808c833e6108cb8183612e96565b9338610b37565b875162461bcd60e51b8152808a01879052601f60248201527f43544d525741303031583a204f6e6c792061646d696e2066756e6374696f6e006044820152606490fd5b9091508681813d8311610d43575b610d278183612e96565b81010312610d3f57610d389061399e565b9038610af0565b8a80fd5b503d610d1d565b89513d8d823e3d90fd5b8680fd5b905060a036600319011261057e576001600160401b0391813583811161057a57610d859036908401612ed2565b9060248035858111610d5457610d9e9036908601612ed2565b936044359560643590811161129857610dba9036908301612ed2565b608435966001600160a01b0394919391858916890361085f57610de861060b610de2466137db565b8a614080565b85610df286613e24565b825163430c208160e01b81523387820190815260208082018790529c9290931695928c90829081906040010381895afa90811561116f578d9161126b575b501561120b578b90610e41336132a9565b98600754168b8d610e51466137db565b8a610e6e868a519586948594635865233b60e01b86528501613a7b565b0381855afa90811561120157908e93929185916111c9575b5086516325f076df60e01b8152808b019182526001600160a01b0390931660208201529193849283919082906040015b03925af1801561119657908b916111a0575b5050815163331a8a4b60e21b81528581018b9052998b8b80610eec8582018e613018565b0381305afa91821561119657610f3398999a9b8d93611179575b50610f1383511515613a19565b8c8c8551809b8192631c0e27e760e11b8352868c84015285830190613018565b0381895afa98891561116f578d99611152575b508c84519763463d31d760e11b895286818a015260808984818b5afa9788156110de578299839961111a575b50803b1561057e57865163968e8a1360e01b8152600083820152848101899052838160448183865af180156110fc57908491611106575b5050803b1561057e5786516301d485d560e21b81528281018990528381868183865af180156110fc579084916110e8575b5050803b1561057e57865163404b6e9f60e01b81523392810192835260208301899052918391839182908490829060400103925af180156110de576110b2575b5050927f6050e2c25b5869fcc2d8325771b7fc2d7386bac470b5b49b439d0f1006429fb79b8193610a1e6110a2946110948f9d8f9d6110ac9f9d829f9d829f9d829f9e829f829f611069613b9c565b9d61108681519f63ffffffff60e01b908d8151910120169f612e37565b519d8e9a8b01528901613c05565b03601f198101855284612e96565b5197889788613c5f565b0390a180f35b6110c6909a9998979695949a939293612e37565b6110da57908c38999394959697989961101a565b8c80fd5b86513d84823e3d90fd5b6110f190612e37565b61057e578238610fda565b88513d86823e3d90fd5b61110f90612e37565b61057e578238610fa9565b90985061113f91995060803d811161114b575b6111378183612e96565b810190613b73565b9a925050989738610f72565b503d61112d565b6111689199508d3d8091833e6108cb8183612e96565b9738610f46565b84513d8f823e3d90fd5b61118f9193508d3d8091833e6108cb8183612e96565b9138610f06565b83513d8e823e3d90fd5b813d83116111c2575b6111b38183612e96565b8101031261085f578938610ec8565b503d6111a9565b93809295508491503d83116111fa575b6111e38183612e96565b8101031261085f57610eb6928e8e93519094610e86565b503d6111d9565b86513d86823e3d90fd5b825162461bcd60e51b81528087018c90526035818401527f43544d525741303031583a207472616e736665722063616c6c6572206973206e6044820152741bdd081bdddb995c881b9bdc88185c1c1c9bdd9959605a1b6064820152608490fd5b61128b91508c8d3d10611291575b6112838183612e96565b8101906133ce565b38610e30565b503d611279565b8780fd5b50503461020b578160031936011261020b5760075490516001600160a01b039091168152602090f35b8284346102f95760203660031901126102f9578235906001600160401b0382116102f957506112fd6102709361130292369101612ed2565b613192565b9051918291602083526020830190613018565b905082346102f95760203660031901126102f9578135906001600160401b0382116102f957506113509161134b91369101612ed2565b613d17565b825191825215156020820152f35b50503461020b578160031936011261020b576020906001549051908152f35b90503461057e57600319606036820112610a3a576001600160401b03602435818111610576576113b09036908501612fc8565b9091604435908111610d54576113c99036908601612fc8565b9190928760018060a01b03815416885190631eb01f7360e21b825233898301528160248160209d8e945af19081156114da579061140d9183916114bd575b506133e6565b600154873503611488578287116102f95750916114717fd1b411598268892b6836c5b922cfa272124f6f0bd3a7cf9f9d408f7e50f223019695949261147e94895197889763ffffffff60e01b833516895260608d8a01526060890193019101614228565b9184830388860152614228565b0390a15160018152f35b875162461bcd60e51b81528088018a9052600f60248201526e0c8c2e0e0928840c8d2e6dac2e8c6d608b1b6044820152606490fd5b6114d491508b3d8d11611291576112838183612e96565b38611407565b89513d84823e3d90fd5b90503461057e57602036600319011261057e576114ff612f2f565b6001600160a01b0391908290816115146143aa565b16331480156115d9575b61152790613218565b169182156115a45760207f4552e521eca39a029d33503b3e2003db87de01f8396f9e3fdd9dddddb9b838b49161155b6143aa565b1686600354956bffffffffffffffffffffffff60a01b95838789161760035581815497881617905581611590600254426133b0565b98896005555196468852161795161792a480f35b835162461bcd60e51b8152602081840152600f60248201526e6e6577476f7620697320656d70747960881b6044820152606490fd5b506115276115e6336141c2565b905061151e565b91503461020b578260031936011261020b578035906001600160401b03821161057e5761161f60209236908301612ed2565b5082548451631eb01f7360e21b815233928101929092529092839160249183916001600160a01b03165af190811561167b5790610836916020949161166457506133e6565b6114d49150843d8111611291576112838183612e96565b505051903d90823e3d90fd5b90503461057e576003199260a0368501126102f9576001600160401b0391803583811161057e576116bb9036908301612ed2565b92602435818111610a3a576116d39036908401612f45565b9160443582811161057a576116eb9036908301612f45565b9360643583811161020b576117039036908401612ed2565b9260843590811161020b5761171b9036908401612ed2565b81548851631eb01f7360e21b8152338582015260209a926001600160a01b03929091908c908290851681885a92602493f19081156119b5579061176491869161199e57506133e6565b8161178a61178461177e611776614249565b5090506140e5565b9b613e24565b92613e24565b16918a51916303e1469160e61b83528c83888189885af192831561199457869361195c575b508116911681036118fd57918a916117fd93858c5180968195829463a6a2d1dd60e01b84528b840152606060248401526117ed8d6064850190613254565b908382030160448401528d613254565b03925af19182156118f257916118d5575b50156118815750611859926118737f0c55df6a0b75f1b5afffec4a402e7f9d52fa9f2571f84e51e783a1f7c06f336a959361186661147e948951978897608089526080890190613018565b908782038c890152613018565b9085820389870152613254565b908382036060850152613254565b855162461bcd60e51b8152908101879052602860248201527f43544d525741303031583a206164644e6577436861696e4964416e64546f6b656044820152671b8819985a5b195960c21b6064820152608490fd5b6118ec9150883d8a11611291576112838183612e96565b3861180e565b8851903d90823e3d90fd5b895162461bcd60e51b81528086018c9052603360248201527f43544d525741303031583a204e6f2061646d696e2061636365737320746f2061604482015272646420636861696e732f636f6e74726163747360681b6064820152608490fd5b9092508c81813d831161198d575b6119748183612e96565b8101031261057657611986829161399e565b92906117af565b503d61196a565b8c513d88823e3d90fd5b6114d491508d803d10611291576112838183612e96565b8b513d87823e3d90fd5b9190503461057e57606036600319011261057e576001600160401b0390823582811161057a576119f29036908501612f45565b93602491823584811161057e57611a0c9036908701612f45565b6044948535908111610a3a57611a259036908801612ed2565b968360018060a01b03815416845190631eb01f7360e21b8252338a8301528188816020998a945af1908115611bf55790611a65918391611bde57506133e6565b611a70611776614249565b905b8251811015611b7157611a8e611a888285613432565b51613d17565b80611b68575b15611b2757611aac611aa68387613432565b51613e24565b90468103611ac5575b5050611ac09061311d565b611a72565b90611acf91613446565b15611adb573880611ab5565b845162461bcd60e51b8152808a018790526022818901527f43544d525741303031583a205f61646458436861696e496e666f58206661696c818a015261195960f21b6064820152608490fd5b855162461bcd60e51b8152808b01889052601b818a01527f43544d525741303031583a20496c6c6567616c20636861696e49640000000000818b0152606490fd5b50801515611a94565b509061147e611bb692611bd08b611bc37f8723f273745543d7f7acc5a1717b1601664f11a2bb7474128343791fb817cbe5978951978897608089526080890190613254565b908782038c890152613254565b9085820389870152613018565b908382036060850152613018565b6114d49150873d8911611291576112838183612e96565b85513d84823e3d90fd5b839060c036600319011261020b576001600160401b03908035828111610a3a57611c2c9036908301612ed2565b50602435828111610a3a57611c449036908301612ed2565b5060843591821161057e57611c5b91369101612ed2565b50611c64612f19565b5080f35b50503461020b578160031936011261020b576020906002549051908152f35b50503461020b578160031936011261020b57905490516001600160a01b039091168152602090f35b839150608036600319011261020b576001600160401b03908035828111610a3a57611cdd9036908301612ed2565b9060243583811161057a57611cf59036908301612ed2565b9060443584811161057657611d0d9036908301612f45565b9360643590811161057657611d259036908301612f45565b906001600160a01b03611d366143aa565b1633148015611eba575b611d4990613218565b845115611e6b578451825103611e095750610a239495611094610a1e92611d6f306132a9565b610507611df6855195611d8187612e7b565b602f87526e7472696e675b5d2c737472696e672960881b8160208901987f61646458436861696e496e666f5828737472696e672c737472696e675b5d2c738a520152611ddc815197602f63ffffffff60e01b91201697612e37565b51998a966020880152606060248801526084870190613254565b6023199384878303016044880152613254565b608490602088519162461bcd60e51b8352820152603660248201527f43544d525741303031583a204c656e677468206d69736d6174636820636861696044820152756e49647320616e6420636f6e7472616374416464727360501b6064820152fd5b608490602088519162461bcd60e51b83528201526024808201527f43544d525741303031583a205a65726f206c656e677468205f636861696e496460448201526339a9ba3960e11b6064820152fd5b50611d49611ec7336141c2565b9050611d40565b90503461057e57608036600319011261057e576001600160401b03813581811161057a57611eff9036908401612ed2565b9160243582811161057657611f179036908301612ed2565b908560443584811161020b57611f309036908401612ed2565b9360643590811161020b57611f489036908401612ed2565b81548751631eb01f7360e21b815233858201526020996001600160a01b0393928b918391602491839188165af19081156120e457611f969291611f919186916120cd57506133e6565b613e24565b94611fa085613e24565b9082611fad611776614249565b9716908951631c0e27e760e11b81528b87820152858180611fd1602482018d613018565b0381865afa9081156120c35792611fff611ffa8e979694899460249786916120a9575b50614080565b613ab5565b8b5197889586946303c1987560e51b865216908401525af190811561209e5750926120747f14cf4818ffaf499810bbce5d0f41b82e988e8746fe5a8dcca1f2664dd66c4336959361147e9361206796612081575b508751958695606087526060870190613018565b908582038a870152613018565b9083820387850152613018565b612097908a3d8c11611291576112838183612e96565b5038612053565b8651903d90823e3d90fd5b6120bd91503d8088833e6108cb8183612e96565b38611ff4565b8b513d88823e3d90fd5b6114d491508c8d3d10611291576112838183612e96565b89513d86823e3d90fd5b905060c036600319011261057e578035908360249384356001600160401b0390818111610a3a576121229036908601612ed2565b9460443582811161057a5761213a9036908701612ed2565b9260643592608435908111610576576121569036908801612ed2565b9361215f612f19565b61217461060b61216e466137db565b84614080565b6001600160a01b038061218688613e24565b169a8b3b1561054257845163224e83b960e11b815233818c0190815260208101889052604081018990528a9082908f9082908490829060600103925af180156124bb57908a916124a7575b50506121df8b511515613b0f565b6121e8336132a9565b9985519363331a8a4b60e21b855260209384838701528b868061220d8782018b613018565b0381305afa95861561249d578c96612480575b5061222d86511515613a19565b6007541681858861223d466137db565b6122598c519485938493635865233b60e01b85528a8501613a7b565b0381855afa908115612476578d91612441575b5088516325f076df60e01b81528481019182526001600160a01b0390931660208201528591839182908f90829060400103925af1801561240957612413575b50855163463d31d760e11b81528082018890529c9060808e8481855afa9d8e15612409578b9e6123e5575b508651631c0e27e760e11b81528181018590529a808c806122f98782018b613018565b0381865afa9b8c156123d957819c6123b3575b50604485928a928a5195869485936349178b2560e01b85528401528d888401525af180156123a75793610a1e6110a2947f6050e2c25b5869fcc2d8325771b7fc2d7386bac470b5b49b439d0f1006429fb79f98968f9d8f9d6110ac9f9d829f829f9e829f8f92829f9b9c8f9d6110949961238a575b50611069613b9c565b6123a0908b3d8d11611291576112838183612e96565b5038612381565b8e8751903d90823e3d90fd5b819c5085926123cf6044928c943d8091833e6108cb8183612e96565b9d9250925061230c565b508751903d90823e3d90fd5b6123fe919e5060803d811161114b576111378183612e96565b925050509c386122d6565b87513d8d823e3d90fd5b8380929b503d831161243a575b61242a8183612e96565b8101031261085f578c98386122ab565b503d612420565b8092939d50868092503d831161246f575b61245c8183612e96565b8101031261085f57518f9b91908561226c565b503d612452565b89513d8f823e3d90fd5b6124969196508c3d8091833e6108cb8183612e96565b9438612220565b88513d8e823e3d90fd5b6124b090612e37565b6105425788386121d1565b86513d8c823e3d90fd5b8284346102f95760e03660031901126102f9576001600160401b0390833582811161020b576124f79036908601612ed2565b9060243583811161020b5761250f9036908701612ed2565b906064359360843560a435828111610a3a5761252e9036908a01612ed2565b9160c435908111610a3a576125469036908a01612ed2565b83548851631eb01f7360e21b815233818c015260209a9295926001600160a01b03929091908c908290851681875a92602493f1908115612715578b939291612597918e87926126f8575b50506133e6565b6125dc848d6125a7611776614249565b906125b18b613e24565b956125bb8d613e24565b961696519384928392631c0e27e760e11b8452878401526024830190613018565b0381875afa9081156126ee5792858c938f958f612609611ffa8d8d9b9861263b9588916126da5750614080565b519788968795869463bff2ed7160e01b86528501604091949392606082019560018060a01b0316825260208201520152565b03925af191821561086b5791612685575b50907fc34928714e1fd89875f0f8da58eef016fbe648c6052a0307e94d88df4bed4b679661147e94939289519788976044359189613cb2565b93929190508884813d83116126d3575b61269f8183612e96565b8101031261085f579251919290917fc34928714e1fd89875f0f8da58eef016fbe648c6052a0307e94d88df4bed4b6761264c565b503d612695565b6120bd91503d808a833e6108cb8183612e96565b8c513d87823e3d90fd5b61270e9250803d10611291576112838183612e96565b8e8e612590565b8b513d86823e3d90fd5b8284346102f95760203660031901126102f9578235906001600160401b0382116102f95750611f9160209361275692369101612ed2565b90516001600160a01b039091168152f35b90503461057e578160031936011261057e576001600160401b03813581811161057a576127979036908401612ed2565b936024359182116102f95750926127b66127bc92602095369101612ed2565b90614080565b90519015158152f35b50503461020b578160031936011261020b576020906127566143aa565b83915060e036600319011261020b5760248035936001600160401b039485811161057a576128139036908501612ed2565b916064358681116105765761282b9036908601612ed2565b9560a435908111610576576128439036908601612ed2565b60c435946001600160a01b039391929184871687036112985761287161060b61286b466137db565b8b614080565b8461287b85613e24565b16803b1561054257815163224e83b960e11b81523384820190815284356020820181905260843560408301819052929c909a92969092918c908e908190606001038183885af18015612c4457612c2a575b8b9c506128df8a9b9c999a511515613b0f565b6128e8336132a9565b9960075416916128f7466137db565b928651635865233b60e01b8152888180612918868a60209a8b968501613a7b565b0381855afa90811561249d578c91612bf5575b5087516325f076df60e01b8152808a019182526001600160a01b0390931660208201528491839182908e90829060400103925af180156124bb57612bc7575b50845163331a8a4b60e21b81528681018390529389858061298d85820188613018565b0381305afa9485156124bb578a95612bab575b506129ad85511515613a19565b855163463d31d760e11b81528781018e9052966080888481855afa978815612409578b98612b87575b508651631c0e27e760e11b81528181018590529a808c806129f98782018a613018565b0381865afa9b8c156123d957908f9291819d612b61575b508592916044918a5195869485936349178b2560e01b85528401528d888401525af180156123a7578a8a8f95938f999897958f94908d928d92612b44575b508a5198612a5b8a612e60565b6049808b527f6d696e745828737472696e672c737472696e672c737472696e672c75696e7432898c019081527f35362c75696e743235362c75696e743235362c75696e743235362c737472696e8e8d015268672c737472696e672960b81b6060909c019b909b528c519a206001600160e01b03191699612ada90612e37565b8b51998a988901526044359c8d92890197612af498613cb2565b03601f1981018352612b069083612e96565b612b0f926142fb565b51978897612b1d9789613cb2565b037f6050e2c25b5869fcc2d8325771b7fc2d7386bac470b5b49b439d0f1006429fb791a180f35b612b5a90883d8a11611291576112838183612e96565b5038612a4e565b819d5091612b7d8794936044933d8091833e6108cb8183612e96565b9d91509192612a10565b612ba091985060803d811161114b576111378183612e96565b92505050968f6129d6565b612bc09195503d808c833e6108cb8183612e96565b938e6129a0565b8280929a503d8311612bee575b612bde8183612e96565b8101031261085f578b978d61296a565b503d612bd4565b8092939c50858092503d8311612c23575b612c108183612e96565b8101031261085f57518e9a91908461292b565b503d612c06565b9798999a909b612c3990612e37565b999897968b906128cc565b85513d8e823e3d90fd5b8284346102f9576101003660031901126102f9576001600160401b03833581811161057e57612c809036908601612ed2565b9160243582811161020b57612c989036908701612ed2565b9160a43560843560643560c43584811161057657612cb99036908b01612ed2565b9360e43590811161057657612cd19036908b01612ed2565b85548951631eb01f7360e21b815233818d015260209b929792916001600160a01b0391908d908290841681875a92602493f19081156108ac57938093928e612d258f9794612d5b958591612e2057506133e6565b612d2e8c613e24565b91612d3a611776614249565b921696519384928392631c0e27e760e11b8452878401526024830190613018565b0381875afa908115612e16578d92848e612d83611ffa8d8b9760649786916120a95750614080565b519687948593630571df6160e21b85528401528960248401528a60448401525af1908115612e0b57509161147e9593917fc34928714e1fd89875f0f8da58eef016fbe648c6052a0307e94d88df4bed4b679998979593612dee575b5089519788976044359189613cb2565b612e04908c8d3d10611291576112838183612e96565b508b612dde565b8a51903d90823e3d90fd5b8c513d85823e3d90fd5b6114d49150833d8511611291576112838183612e96565b6001600160401b038111612e4a57604052565b634e487b7160e01b600052604160045260246000fd5b608081019081106001600160401b03821117612e4a57604052565b606081019081106001600160401b03821117612e4a57604052565b90601f801991011681019081106001600160401b03821117612e4a57604052565b6001600160401b038111612e4a57601f01601f191660200190565b81601f8201121561085f57803590612ee982612eb7565b92612ef76040519485612e96565b8284526020838301011161085f57816000926020809301838601378301015290565b60a435906001600160a01b038216820361085f57565b600435906001600160a01b038216820361085f57565b9080601f8301121561085f578135906001600160401b0392838311612e4a578260051b60405194602094612f7b86840188612e96565b865284808701928401019380851161085f57858401925b858410612fa3575050505050505090565b833583811161085f578791612fbd848480948a0101612ed2565b815201930192612f92565b9181601f8401121561085f578235916001600160401b03831161085f576020838186019501011161085f57565b60005b8381106130085750506000910152565b8181015183820152602001612ff8565b9060209161303181518092818552858086019101612ff5565b601f01601f1916010190565b90600182811c9216801561306d575b602083101461305757565b634e487b7160e01b600052602260045260246000fd5b91607f169161304c565b906040519182600082549261308b8461303d565b9081845260019485811690816000146130fa57506001146130b7575b50506130b592500383612e96565b565b9093915060005260209081600020936000915b8183106130e25750506130b5935082010138806130a7565b855488840185015294850194879450918301916130ca565b9150506130b594506020925060ff191682840152151560051b82010138806130a7565b600019811461312c5760010190565b634e487b7160e01b600052601160045260246000fd5b60095481101561317c57600960005260011b7f6e1540171b6c0c960b71a7020d9f60077f6af931a8bbf590da0223dacf75c7af0190600090565b634e487b7160e01b600052603260045260246000fd5b6009549060005b8281106131c657505050604051602081018181106001600160401b03821117612e4a576040526000815290565b6131ea6131d282613142565b506131e56131df856140e5565b91613077565b614080565b6131fc576131f79061311d565b613199565b61321592506001915061320e90613142565b5001613077565b90565b1561321f57565b60405162461bcd60e51b815260206004820152600d60248201526c23b7bb102327a92124a22222a760991b6044820152606490fd5b90815180825260208092019182818360051b85019501936000915b84831061327f5750505050505090565b909192939495848061329983856001950387528a51613018565b980193019301919493929061326f565b604051906001600160a01b03166132bf82612e7b565b602a825260208201604036823782511561317c5760309053815160019081101561317c57607860218401536029905b8082116133425750506132fe5790565b606460405162461bcd60e51b815260206004820152602060248201527f537472696e67733a20686578206c656e67746820696e73756666696369656e746044820152fd5b9091600f8116601081101561339b576f181899199a1a9b1b9c1cb0b131b232b360811b901a61337184866133bd565b5360041c9180156133865760001901906132ee565b60246000634e487b7160e01b81526011600452fd5b60246000634e487b7160e01b81526032600452fd5b9190820180921161312c57565b90815181101561317c570160200190565b9081602091031261085f5751801515810361085f5790565b156133ed57565b60405162461bcd60e51b815260206004820152601860248201527f433343616c6c6572446170703a206f6e6c7943616c6c657200000000000000006044820152606490fd5b805182101561317c5760209160051b010190565b61345e613458613463929493946137db565b936132a9565b6140e5565b6009549260005b8481106137aa5750506040519060408201916001600160401b039080841082851117612e4a5783604052600093600854946134a48661303d565b90818352600196878116908160001461378b575060011461372f575b6134d29150839003603f190182612e96565b815260209586820193845268010000000000000000811015612e4a5780856134fd9201600955613142565b919091613719575190815190838211612e4a57859161351c825461303d565b93601f948581116136c9575b508990858311600114613663576000919083613658575b5050600019600383901b1c191690831b1781555b019251958651928311612e4a5761356a845461303d565b828111613612575b50809183116001146135ad575081929394956000926135a2575b5050600019600383901b1c191690831b17905590565b01519050388061358c565b90601f198316968460005282600020926000905b8982106135fb57505083869798969596106135e2575b505050811b01905590565b015160001960f88460031b161c191690553880806135d7565b8088859682949686015181550195019301906135c1565b84600052816000208380860160051c82019284871061364f575b0160051c019086905b828110613643575050613572565b60008155018690613635565b9250819261362c565b01519050388061353f565b90601f19831691846000528b6000209260005b8d8282106136b3575050908487959493921061369a575b505050811b018155613553565b015160001960f88460031b161c1916905538808061368d565b8385015186558c98909501949384019301613676565b909192809450600052896000208580850160051c8201928c8610613710575b908a9695949392910160051c01905b8181106137045750613528565b600081558995016136f7565b925081926136e8565b634e487b7160e01b600052600060045260246000fd5b5060086000527ff3f7a9fe364faab93b216da50a3214154f22a0a2b415b23a84c8169e8b636ee3866000915b83831061377357506134d292505083016060016134c0565b9081602092546060858901015201910190879061375b565b606092506134d293915060ff191682860152151560051b8401016134c0565b6137c0826131e56137ba84613142565b50613077565b6137d2576137cd9061311d565b61346a565b50600093505050565b806000917a184f03e93ff9f4daa797ed6e38ed64bf6a1f01000000000000000080821015613935575b506d04ee2d6d415b85acef810000000080831015613926575b50662386f26fc1000080831015613917575b506305f5e10080831015613908575b50612710808310156138f9575b5060648210156138e9575b600a809210156138df575b6001908160218186019561387487612eb7565b966138826040519889612e96565b808852613891601f1991612eb7565b01366020890137860101905b6138a9575b5050505090565b600019019083906f181899199a1a9b1b9c1cb0b131b232b360811b8282061a8353049182156138da5791908261389d565b6138a2565b9160010191613861565b9190606460029104910191613856565b6004919392049101913861384b565b6008919392049101913861383e565b6010919392049101913861382f565b6020919392049101913861381d565b604093508104915038613804565b1561394a57565b60405162461bcd60e51b815260206004820152602660248201527f43544d525741303031583a204e6f7420612063726f73732d636861696e20747260448201526530b739b332b960d11b6064820152608490fd5b51906001600160a01b038216820361085f57565b81601f8201121561085f5780516139c881612eb7565b926139d66040519485612e96565b8184526020828401011161085f576132159160208085019101612ff5565b9060208282031261085f5781516001600160401b03811161085f5761321592016139b2565b15613a2057565b60405162461bcd60e51b815260206004820152602d60248201527f43544d525741303031583a2054617267657420636f6e7472616374206164647260448201526c195cdcc81b9bdd08199bdd5b99609a1b6064820152608490fd5b91613aa590613a97604093969596606086526060860190613018565b908482036020860152613018565b6001600160a01b03909416910152565b15613abc57565b60405162461bcd60e51b815260206004820152602560248201527f43544d525741303031583a2046726f6d20616e20696e76616c69642043544d52604482015264574130303160d81b6064820152608490fd5b15613b1657565b60405162461bcd60e51b815260206004820152602f60248201527f43544d525741303031583a2044657374696e6174696f6e20616464726573732060448201526e0d0c2e640f4cae4de40d8cadccee8d608b1b6064820152608490fd5b919082608091031261085f578151916020810151916060613b966040840161399e565b92015190565b60405190613ba982612e60565b60418252602960f81b6060837f6d696e745828737472696e672c737472696e672c737472696e672c75696e743260208201527f35362c75696e743235362c75696e743235362c737472696e672c737472696e6760408201520152565b959193613c34613c5195613c266132159a989460e08b5260e08b0190613018565b9089820360208b0152613018565b9360408801526060870152608086015284820360a0860152613018565b9160c0818403910152613018565b959193613c80613ca495613c266132159a9894610100808c528b0190613018565b93604088015260006060880152608087015260a086015284820360c0860152613018565b9160e0818403910152613018565b969293613ce2613215999793613cd4613ca49894610100808d528c0190613018565b908a820360208c0152613018565b9460408901526060880152608087015260a086015284820360c0860152613018565b60ff602f199116019060ff821161312c57565b90600080835115613e0a5780915b8451831015613e0057613d3883866133bd565b5190613d4760f892831c613d04565b5060ff91600983613d63613d5b888b6133bd565b51841c613d04565b1611613df657613d7f90613d7786896133bd565b51901c613d04565b918651858103908111613de2576000198101908111613de257604d8111613de257600a0a9216828102928184041490151715613dce57613dc891613dc2916133b0565b9261311d565b91613d25565b634e487b7160e01b83526011600452602483fd5b634e487b7160e01b85526011600452602485fd5b5050509250508190565b9350600192915050565b92506001919050565b60ff16600a019060ff821161312c57565b602a815103613f6e57604051604081018181106001600160401b03821117612e4a576040526014908181526020810192602036853760005b838110613ea25750505191516bffffffffffffffffffffffff199283821692808210613e8e575b505050905060601c90565b849293500360031b1b161680388080613e83565b8060011b60029082810482148315171561312c5780820180921161312c576001600160f81b031991613ee1908390613eda90876133bd565b5116613fbe565b90600491821b90610ff060f0831692168203613f59576003908101809111613f595790613eda9291613f188560ff9586938a6133bd565b1601918211613f44575090613f3f929160f81b1660001a613f3982866133bd565b5361311d565b613e5c565b601190634e487b7160e01b6000525260246000fd5b601183634e487b7160e01b6000525260246000fd5b60405162461bcd60e51b815260206004820152602260248201527f43544d525741303031583a20496e76616c69642061646472657373206c656e676044820152610e8d60f31b6064820152608490fd5b60f81c603081101580614075575b15613fda5761321590613d04565b60618110158061406a575b156140055760ff613ff860601992613e13565b160160ff811161312c5790565b60418110158061405f575b6140515760405162461bcd60e51b815260206004820152601560248201527424b73b30b634b2103432bc1031b430b930b1ba32b960591b6044820152606490fd5b60ff613ff860401992613e13565b506046811115614010565b506066811115613fe5565b506039811115613fcc565b90604051918261409c6020820192602084526040830190613018565b03926140b0601f1994858101835282612e96565b519020916140de60405191826140d26020820195602087526040830190613018565b03908101835282612e96565b5190201490565b9081516140f181612eb7565b906140ff6040519283612e96565b80825261410e601f1991612eb7565b01602090368284013760005b84518110156141bb5761412d81866133bd565b5190604160f892831c1015806141a4575b1561417d578261414e82886133bd565b51831c019160ff831161312c5761417892901b6001600160f81b03191660001a613f3982866133bd565b61411a565b61417891506001600160f81b031961419582886133bd565b511660001a613f3982866133bd565b50605a6141b182886133bd565b51831c111561413e565b5090925050565b60008054604051631eb01f7360e21b81526001600160a01b039384166004820152926020928492602492849291165af190811561421c57600091614204575090565b613215915060203d8111611291576112838183612e96565b6040513d6000823e3d90fd5b908060209392818452848401376000828201840152601f01601f1916010190565b60008054604051636824b6b560e11b81529192908390839060049082906001600160a01b03165afa9182156142f0578390848094614289575b5050929190565b93509350503d8083853e61429d8185612e96565b830160608482031261057e578351936020810151906001600160401b039182811161057657836142ce9183016139b2565b9460408201519283116102f957506142e79291016139b2565b91923880614282565b6040513d85823e3d90fd5b92919060009160018060a01b038354169160015491833b1561057a5791846020819593826143766143539a9b976143666040519c8d9a8b996304f4c7fb60e31b8b5260048b015260a060248b015260a48a0190613018565b60031995868a83030160448b0152613018565b9084888303016064890152613018565b85810392830160848701525201925af190811561439e57506143955750565b6130b590612e37565b604051903d90823e3d90fd5b6005544210156143c3576003546001600160a01b031690565b6004546001600160a01b03169056fea2646970667358221220838dfec09311224f6c804164ba1fb795b200be12af222bd7854e993f164842e564736f6c63430008140033",
  "linkReferences": {},
  "deployedLinkReferences": {}
}