{
  "_format": "hh-sol-artifact-1",
  "contractName": "CTMRWA001X",
  "sourceName": "contracts/CTMRWA001X.sol",
  "abi": [
    {
      "inputs": [
        {
          "internalType": "address",
          "name": "_feeManager",
          "type": "address"
        },
        {
          "internalType": "address",
          "name": "_gov",
          "type": "address"
        },
        {
          "internalType": "address",
          "name": "_c3callerProxy",
          "type": "address"
        },
        {
          "internalType": "address",
          "name": "_txSender",
          "type": "address"
        },
        {
          "internalType": "uint256",
          "name": "_dappID",
          "type": "uint256"
        }
      ],
      "stateMutability": "nonpayable",
      "type": "constructor"
    },
    {
      "anonymous": false,
      "inputs": [
        {
          "indexed": true,
          "internalType": "address",
          "name": "oldGov",
          "type": "address"
        },
        {
          "indexed": true,
          "internalType": "address",
          "name": "newGov",
          "type": "address"
        },
        {
          "indexed": true,
          "internalType": "uint256",
          "name": "effectiveTime",
          "type": "uint256"
        },
        {
          "indexed": false,
          "internalType": "uint256",
          "name": "chainID",
          "type": "uint256"
        }
      ],
      "name": "LogChangeGov",
      "type": "event"
    },
    {
      "anonymous": false,
      "inputs": [
        {
          "indexed": false,
          "internalType": "bytes4",
          "name": "selector",
          "type": "bytes4"
        },
        {
          "indexed": false,
          "internalType": "bytes",
          "name": "data",
          "type": "bytes"
        },
        {
          "indexed": false,
          "internalType": "bytes",
          "name": "reason",
          "type": "bytes"
        }
      ],
      "name": "LogFallback",
      "type": "event"
    },
    {
      "anonymous": false,
      "inputs": [
        {
          "indexed": true,
          "internalType": "address",
          "name": "txSender",
          "type": "address"
        },
        {
          "indexed": false,
          "internalType": "bool",
          "name": "vaild",
          "type": "bool"
        }
      ],
      "name": "LogTxSender",
      "type": "event"
    },
    {
      "inputs": [
        {
          "internalType": "address",
          "name": "_admin",
          "type": "address"
        },
        {
          "internalType": "string",
          "name": "_ctmRwa001AddrStr",
          "type": "string"
        },
        {
          "internalType": "string[]",
          "name": "_chainIdsStr",
          "type": "string[]"
        },
        {
          "internalType": "string[]",
          "name": "_otherCtmRwa001AddrsStr",
          "type": "string[]"
        }
      ],
      "name": "addNewChainIdAndToken",
      "outputs": [
        {
          "internalType": "bool",
          "name": "",
          "type": "bool"
        }
      ],
      "stateMutability": "nonpayable",
      "type": "function"
    },
    {
      "inputs": [
        {
          "internalType": "address",
          "name": "txSender",
          "type": "address"
        }
      ],
      "name": "addTxSender",
      "outputs": [],
      "stateMutability": "nonpayable",
      "type": "function"
    },
    {
      "inputs": [
        {
          "internalType": "uint256[]",
          "name": "chainIds",
          "type": "uint256[]"
        },
        {
          "internalType": "address[]",
          "name": "contractAddrs",
          "type": "address[]"
        }
      ],
      "name": "addXChainInfo",
      "outputs": [
        {
          "internalType": "bool",
          "name": "",
          "type": "bool"
        }
      ],
      "stateMutability": "nonpayable",
      "type": "function"
    },
    {
      "inputs": [],
      "name": "c3CallerProxy",
      "outputs": [
        {
          "internalType": "address",
          "name": "",
          "type": "address"
        }
      ],
      "stateMutability": "view",
      "type": "function"
    },
    {
      "inputs": [
        {
          "internalType": "uint256",
          "name": "_dappID",
          "type": "uint256"
        },
        {
          "internalType": "bytes",
          "name": "_data",
          "type": "bytes"
        },
        {
          "internalType": "bytes",
          "name": "_reason",
          "type": "bytes"
        }
      ],
      "name": "c3Fallback",
      "outputs": [
        {
          "internalType": "bool",
          "name": "",
          "type": "bool"
        }
      ],
      "stateMutability": "nonpayable",
      "type": "function"
    },
    {
      "inputs": [],
      "name": "chainIdStr",
      "outputs": [
        {
          "internalType": "string",
          "name": "",
          "type": "string"
        }
      ],
      "stateMutability": "view",
      "type": "function"
    },
    {
      "inputs": [
        {
          "internalType": "string",
          "name": "_currentAdminStr",
          "type": "string"
        },
        {
          "internalType": "string",
          "name": "_newAdminStr",
          "type": "string"
        },
        {
          "internalType": "string",
          "name": "_ctmRwa001AddrStr",
          "type": "string"
        }
      ],
      "name": "changeAdmin",
      "outputs": [
        {
          "internalType": "bool",
          "name": "",
          "type": "bool"
        }
      ],
      "stateMutability": "nonpayable",
      "type": "function"
    },
    {
      "inputs": [
        {
          "internalType": "address",
          "name": "newGov",
          "type": "address"
        }
      ],
      "name": "changeGov",
      "outputs": [],
      "stateMutability": "nonpayable",
      "type": "function"
    },
    {
      "inputs": [],
      "name": "dappID",
      "outputs": [
        {
          "internalType": "uint256",
          "name": "",
          "type": "uint256"
        }
      ],
      "stateMutability": "view",
      "type": "function"
    },
    {
      "inputs": [],
      "name": "delay",
      "outputs": [
        {
          "internalType": "uint256",
          "name": "",
          "type": "uint256"
        }
      ],
      "stateMutability": "view",
      "type": "function"
    },
    {
      "inputs": [
        {
          "internalType": "string",
          "name": "_adminStr",
          "type": "string"
        },
        {
          "internalType": "uint256",
          "name": "_value",
          "type": "uint256"
        }
      ],
      "name": "deployCTMRWA001",
      "outputs": [
        {
          "internalType": "bool",
          "name": "",
          "type": "bool"
        }
      ],
      "stateMutability": "nonpayable",
      "type": "function"
    },
    {
      "inputs": [
        {
          "internalType": "address",
          "name": "txSender",
          "type": "address"
        }
      ],
      "name": "disableTxSender",
      "outputs": [],
      "stateMutability": "nonpayable",
      "type": "function"
    },
    {
      "inputs": [
        {
          "internalType": "string",
          "name": "_to",
          "type": "string"
        },
        {
          "internalType": "string",
          "name": "_toChainID",
          "type": "string"
        },
        {
          "internalType": "bytes",
          "name": "_data",
          "type": "bytes"
        }
      ],
      "name": "doGov",
      "outputs": [],
      "stateMutability": "nonpayable",
      "type": "function"
    },
    {
      "inputs": [
        {
          "internalType": "string[]",
          "name": "_targets",
          "type": "string[]"
        },
        {
          "internalType": "string[]",
          "name": "_toChainIDs",
          "type": "string[]"
        },
        {
          "internalType": "bytes",
          "name": "_data",
          "type": "bytes"
        }
      ],
      "name": "doGovBroadcast",
      "outputs": [],
      "stateMutability": "nonpayable",
      "type": "function"
    },
    {
      "inputs": [],
      "name": "feeManager",
      "outputs": [
        {
          "internalType": "address",
          "name": "",
          "type": "address"
        }
      ],
      "stateMutability": "view",
      "type": "function"
    },
    {
      "inputs": [
        {
          "internalType": "string",
          "name": "_chainIdStr",
          "type": "string"
        }
      ],
      "name": "getChainContract",
      "outputs": [
        {
          "internalType": "string",
          "name": "",
          "type": "string"
        }
      ],
      "stateMutability": "view",
      "type": "function"
    },
    {
      "inputs": [],
      "name": "gov",
      "outputs": [
        {
          "internalType": "address",
          "name": "",
          "type": "address"
        }
      ],
      "stateMutability": "view",
      "type": "function"
    },
    {
      "inputs": [
        {
          "internalType": "address",
          "name": "txSender",
          "type": "address"
        }
      ],
      "name": "isValidSender",
      "outputs": [
        {
          "internalType": "bool",
          "name": "",
          "type": "bool"
        }
      ],
      "stateMutability": "view",
      "type": "function"
    },
    {
      "inputs": [
        {
          "internalType": "string",
          "name": "fromAddressStr_",
          "type": "string"
        },
        {
          "internalType": "string",
          "name": "toAddressStr_",
          "type": "string"
        },
        {
          "internalType": "uint256",
          "name": "fromTokenId_",
          "type": "uint256"
        },
        {
          "internalType": "uint256",
          "name": "toTokenId_",
          "type": "uint256"
        },
        {
          "internalType": "uint256",
          "name": "slot_",
          "type": "uint256"
        },
        {
          "internalType": "uint256",
          "name": "value_",
          "type": "uint256"
        },
        {
          "internalType": "string",
          "name": "_fromContractStr",
          "type": "string"
        },
        {
          "internalType": "string",
          "name": "_ctmRwa001AddrStr",
          "type": "string"
        }
      ],
      "name": "mintX",
      "outputs": [
        {
          "internalType": "bool",
          "name": "",
          "type": "bool"
        }
      ],
      "stateMutability": "nonpayable",
      "type": "function"
    },
    {
      "inputs": [
        {
          "internalType": "string",
          "name": "fromAddressStr_",
          "type": "string"
        },
        {
          "internalType": "string",
          "name": "toAddressStr_",
          "type": "string"
        },
        {
          "internalType": "uint256",
          "name": "slot_",
          "type": "uint256"
        },
        {
          "internalType": "uint256",
          "name": "balance_",
          "type": "uint256"
        },
        {
          "internalType": "string",
          "name": "_fromContractStr",
          "type": "string"
        },
        {
          "internalType": "string",
          "name": "_ctmRwa001AddrStr",
          "type": "string"
        }
      ],
      "name": "mintX",
      "outputs": [
        {
          "internalType": "bool",
          "name": "",
          "type": "bool"
        }
      ],
      "stateMutability": "nonpayable",
      "type": "function"
    },
    {
      "inputs": [
        {
          "internalType": "uint256",
          "name": "_delay",
          "type": "uint256"
        }
      ],
      "name": "setDelay",
      "outputs": [],
      "stateMutability": "nonpayable",
      "type": "function"
    },
    {
      "inputs": [
        {
          "internalType": "string",
          "name": "_str",
          "type": "string"
        }
      ],
      "name": "strToUint",
      "outputs": [
        {
          "internalType": "uint256",
          "name": "res",
          "type": "uint256"
        },
        {
          "internalType": "bool",
          "name": "err",
          "type": "bool"
        }
      ],
      "stateMutability": "pure",
      "type": "function"
    },
    {
      "inputs": [
        {
          "internalType": "string",
          "name": "str",
          "type": "string"
        }
      ],
      "name": "stringToAddress",
      "outputs": [
        {
          "internalType": "address",
          "name": "",
          "type": "address"
        }
      ],
      "stateMutability": "pure",
      "type": "function"
    },
    {
      "inputs": [
        {
          "internalType": "string",
          "name": "a",
          "type": "string"
        },
        {
          "internalType": "string",
          "name": "b",
          "type": "string"
        }
      ],
      "name": "stringsEqual",
      "outputs": [
        {
          "internalType": "bool",
          "name": "",
          "type": "bool"
        }
      ],
      "stateMutability": "pure",
      "type": "function"
    },
    {
      "inputs": [
        {
          "internalType": "uint256",
          "name": "fromTokenId_",
          "type": "uint256"
        },
        {
          "internalType": "string",
          "name": "toAddressStr_",
          "type": "string"
        },
        {
          "internalType": "uint256",
          "name": "toTokenId_",
          "type": "uint256"
        },
        {
          "internalType": "string",
          "name": "toChainIdStr_",
          "type": "string"
        },
        {
          "internalType": "uint256",
          "name": "value_",
          "type": "uint256"
        },
        {
          "internalType": "string",
          "name": "_ctmRwa001AddrStr",
          "type": "string"
        },
        {
          "internalType": "address",
          "name": "feeToken",
          "type": "address"
        }
      ],
      "name": "transferFromX",
      "outputs": [],
      "stateMutability": "payable",
      "type": "function"
    },
    {
      "inputs": [
        {
          "internalType": "uint256",
          "name": "fromTokenId_",
          "type": "uint256"
        },
        {
          "internalType": "string",
          "name": "toAddressStr_",
          "type": "string"
        },
        {
          "internalType": "string",
          "name": "toChainIdStr_",
          "type": "string"
        },
        {
          "internalType": "uint256",
          "name": "value_",
          "type": "uint256"
        },
        {
          "internalType": "string",
          "name": "_ctmRwa001AddrStr",
          "type": "string"
        },
        {
          "internalType": "address",
          "name": "feeToken",
          "type": "address"
        }
      ],
      "name": "transferFromX",
      "outputs": [
        {
          "internalType": "uint256",
          "name": "newTokenId",
          "type": "uint256"
        }
      ],
      "stateMutability": "nonpayable",
      "type": "function"
    },
    {
      "inputs": [
        {
          "internalType": "string",
          "name": "toAddressStr_",
          "type": "string"
        },
        {
          "internalType": "string",
          "name": "toChainIdStr_",
          "type": "string"
        },
        {
          "internalType": "uint256",
          "name": "tokenId_",
          "type": "uint256"
        },
        {
          "internalType": "string",
          "name": "_ctmRwa001AddrStr",
          "type": "string"
        },
        {
          "internalType": "address",
          "name": "feeToken",
          "type": "address"
        }
      ],
      "name": "transferFromX",
      "outputs": [],
      "stateMutability": "payable",
      "type": "function"
    }
  ],
  "bytecode": "0x60808060405234620002265760a08162003d7b80380380916200002382856200022b565b8339810103126200022657620000398162000265565b906020916200004a83830162000265565b620000586040840162000265565b926080620000696060830162000265565b9101519260018060a01b0380928160018060a01b0319958160009916878a541617895560019788556202a30060025516808660035416176003558560045416176004554260055516855260068652604085208460ff1982541617905516906007541617600755620000da46620002d3565b805192906001600160401b0384116200021257620000fa6008546200027a565b601f8111620001c6575b508491601f85116001146200015d57939450849291908362000151575b50501b916000199060031b1c1916176008555b620001403046620004af565b506040516131d6908162000ba58239f35b01519250388062000121565b6008815285812093958591601f198316915b88838310620001ab575050501062000191575b505050811b0160085562000134565b015160001960f88460031b161c1916905538808062000182565b8587015188559096019594850194879350908101906200016f565b60088352858320601f860160051c81019187871062000207575b601f0160051c019084905b828110620001fb57505062000104565b848155018490620001eb565b9091508190620001e0565b634e487b7160e01b82526041600452602482fd5b600080fd5b601f909101601f19168101906001600160401b038211908210176200024f57604052565b634e487b7160e01b600052604160045260246000fd5b51906001600160a01b03821682036200022657565b90600182811c92168015620002ac575b60208310146200029657565b634e487b7160e01b600052602260045260246000fd5b91607f16916200028a565b6001600160401b0381116200024f57601f01601f191660200190565b806000917a184f03e93ff9f4daa797ed6e38ed64bf6a1f0100000000000000008082101562000444575b506d04ee2d6d415b85acef81000000008083101562000434575b50662386f26fc100008083101562000424575b506305f5e1008083101562000414575b506127108083101562000404575b506064821015620003f3575b600a80921015620003e8575b600190816021818601956200037587620002b7565b966200038560405198896200022b565b80885262000396601f1991620002b7565b01366020890137860101905b620003af575b5050505090565b600019019083906f181899199a1a9b1b9c1cb0b131b232b360811b8282061a835304918215620003e257919082620003a2565b620003a8565b916001019162000360565b919060646002910491019162000354565b6004919392049101913862000348565b600891939204910191386200033a565b601091939204910191386200032a565b6020919392049101913862000317565b604093508104915038620002fd565b6000198114620004635760010190565b634e487b7160e01b600052601160045260246000fd5b6009548110156200049957600960005260206000209060011b0190600090565b634e487b7160e01b600052603260045260246000fd5b620004bd90929192620002d3565b6040805190936001600160a01b0316916001600160401b0390606090818401838111858210176200024f578752602a84526020908185018836823785511562000499576030905384519560019687101562000499576078602187015360295b87811162000ad6575062000a94576200055b978551956200053d87620002b7565b966200054c835198896200022b565b808852601f199a8b91620002b7565b0136858901376000885b620009cc575b50506009549160005b838110620008b157505080519381850191858310878411176200024f578290526000600854620005a4816200027a565b808552908a81169081156200089157506001146200084c575b50620005d29150859003603f1901826200022b565b8352818301948552680100000000000000008110156200024f578086620005fd920160095562000479565b929092620008365751918251908482116200024f5786916200062082546200027a565b94601f95868111620007e1575b508490868311600114620007785760009190836200076c575b5050600019600383901b1c191690831b1781555b0193519687519384116200024f576200067485546200027a565b83811162000721575b5081928411600114620006bc5750508192939495600092620006b0575b5050600019600383901b1c191690831b17905590565b0151905038806200069a565b6000858152828120918516989193925b898210620007095750508386979896959610620006ef575b505050811b01905590565b015160001960f88460031b161c19169055388080620006e4565b808885968294968601518155019501930190620006cc565b85600052826000208480870160051c82019285881062000762575b0160051c019087905b828110620007555750506200067d565b6000815501879062000745565b925081926200073c565b01519050388062000646565b908b83169184600052866000209260005b88828210620007ca5750509084879594939210620007b0575b505050811b0181556200065a565b015160001960f88460031b161c19169055388080620007a2565b8385015186558d9890950194938401930162000789565b909192809450600052846000208680850160051c8201928786106200082c575b908b9695949392910160051c01905b8181106200081f57506200062d565b600081558a950162000810565b9250819262000801565b634e487b7160e01b600052600060045260246000fd5b919050600860005284600020858a6000925b8584106200087957505050620005d2925086010138620005bd565b80548a8501860152919092019187918c91016200085e565b60ff19168885015250620005d29290151560051b870101905038620005bd565b620008bc8162000479565b50898451809260009080548a620008d3826200027a565b808652958216918215620009aa57505060011462000963575b50620008fb925003826200022b565b83516200091f8d82620009128a8201958662000b59565b039081018352826200022b565b5190208b84516200093a888201928262000912888662000b59565b5190201462000954576200094e9062000453565b62000574565b50600099505050505050505050565b915050600052818780600020928d6000945b8286106200098f57505050620008fb9282010138620008ec565b8091929450548386880101520192019183918d8a9262000975565b60ff191685820152620008fb95151560051b8501019250389150620008ec9050565b815181101562000a8e57620009e2818362000b47565b519089604160f893841c10158062000a74575b1562000a4757508562000a09828562000b47565b51831c019060ff821162000463578a9262000a4092901b6001600160f81b03191660001a62000a39828c62000b47565b5362000453565b9062000565565b915062000a40906001600160f81b031962000a63828662000b47565b511660001a62000a39828c62000b47565b50605a62000a83838662000b47565b51841c1115620009f5565b6200056b565b60648289519062461bcd60e51b825280600483015260248201527f537472696e67733a20686578206c656e67746820696e73756666696369656e746044820152fd5b90600f8116601081101562000b32576f181899199a1a9b1b9c1cb0b131b232b360811b901a62000b07838962000b47565b5360041c90801562000b1d57600019016200051c565b60246000634e487b7160e01b81526011600452fd5b60246000634e487b7160e01b81526032600452fd5b90815181101562000499570160200190565b6020808252825181830181905290939260005b82811062000b8f57505060409293506000838284010152601f8019910116010190565b81810186015184820160400152850162000b6c56fe6080604052600436101561001257600080fd5b6000803560e01c806307cdd39014611c7457806310de50b4146117b457806312d43a511461179957806313d199501461173957806314c64060146116d557806315706fdf1461168d578063321de7be1461158e57806355a39143146113c457806358f2c0571461139d5780636a42b8f81461137f5780639142c08314611162578063a7bfa12d146110ca578063a962ef1e14610fbe578063b121f51d14610e54578063bb580a4914610be2578063c516ad1114610bc4578063c5ef3ec514610b7b578063cc6a292c14610b3f578063d0fb020314610b16578063d326e2b514610547578063d60ad41b146104a2578063dd64b3e61461033b578063e177246e146102e9578063eebd14af14610250578063f01f2b8b14610211578063f9038f10146101dd5763f9e4cbaf1461014657600080fd5b346101da5760203660031901126101da5761015f611eab565b6001600160a01b0390816101716130d6565b16331480156101c6575b610184906130fe565b1680825260066020526040822060ff1981541690557fbfb8b3e2f6221ae729e9cacb0d35f5d9be686ba10cb1d4e34b646bbb87f7a2696020604051848152a280f35b506101846101d33361313a565b905061017b565b80fd5b50346101da57806003193601126101da5761020d6101f9612007565b604051918291602083526020830190611fa8565b0390f35b50346101da5760203660031901126101da5760209060ff906040906001600160a01b0361023c611eab565b168152600684522054166040519015158152f35b50346101da5760203660031901126101da5761026a611eab565b6001600160a01b03908161027c6130d6565b16331480156102d5575b61028f906130fe565b16808252600660205260408220600160ff198254161790557fbfb8b3e2f6221ae729e9cacb0d35f5d9be686ba10cb1d4e34b646bbb87f7a269602060405160018152a280f35b5061028f6102e23361313a565b9050610286565b50346101da5760203660031901126101da576001600160a01b0361030b6130d6565b1633148015610327575b61031e906130fe565b60043560025580f35b5061031e6103343361313a565b9050610315565b50346101da57600319906060368301126101da576001600160401b0360043581811161049e5761036f903690600401611ed8565b9260243582811161049a57610388903690600401611ed8565b9160443590811161049a576103a1903690600401611e64565b6001600160a01b0394856103b36130d6565b1633148015610486575b6103c6906130fe565b80518451036104675784958554169060015493823b156104635786946104378692610418966104286040519a8b998a98899763ec6a8b7d60e01b8952600489015260806024890152608488019061284c565b908487830301604488015261284c565b91848303016064850152611fa8565b03925af18015610458576104485750f35b61045190611e15565b6101da5780f35b6040513d84823e3d90fd5b8680fd5b60405162461bcd60e51b81526020600482015260248101869052604490fd5b506103c66104933361313a565b90506103bd565b8380fd5b8280fd5b50346101da5760603660031901126101da576001600160401b0360043581811161049e576104d4903690600401611e64565b60243582811161049a576104ec903690600401611e64565b60443592831161049a57610507610530933690600401611e64565b916001600160a01b036105186130d6565b1633148015610533575b61052b906130fe565b613033565b80f35b5061052b6105403361313a565b9050610522565b5060a03660031901126101da576001600160401b0360043581811161049e57610574903690600401611e64565b50602490813581811161049a5761058f903690600401611e64565b604435606435838111610b12576105aa903690600401611e64565b608435916001600160a01b03918284168403610a3a576105d5916105cd86612ac1565b9390936128a8565b6105e146841415612900565b836105eb83612bce565b60405163430c208160e01b8152336004820152602481018490526020979190921694918781604481895afa908115610a79578c91610ae5575b5015610a845780876106769261063933612717565b60075460405163c73b647160e01b815246600482015260248101979097526001600160a01b03909216604487015298169392839081906064820190565b0381865afa8015610a795788928d91610a46575b506040516325f076df60e01b815260048101919091526001600160a01b039091166024820152918290818d81604481015b03925af1908115610a0d578691610a18575b505060405163331a8a4b60e21b815260048101869052978989806106f38482018b611fa8565b0381305afa988915610a0d578a996109f1575b50610713895115156129c1565b604051631c0e27e760e11b815260048101879052948a86806107378582018c611fa8565b0381885afa9586156109e6578b966109c2575b5060405163463d31d760e11b815260048101849052918b60808483818a5afa9485156109b557819782958397610979575b50803b1561049e5760405163968e8a1360e01b815260006004820152848101839052838160448183865af190811561095a578491610965575b5050803b1561049e576040516301d485d560e21b8152600481018390528381868183865af190811561095a578491610946575b5050803b1561049e5760405163404b6e9f60e01b8152336004820152602481019290925282908290604490829084905af180156104585761092e575b50506040519960608b019081118b82101761091957604052603a8a52878a01997f6d696e745828737472696e672c737472696e672c75696e743235362c75696e748b526040017f3235362c75696e743235362c737472696e672c737472696e672900000000000090526040519963ffffffff60e01b90603a902016996108a890611e15565b604051998a98890152870160c0905260e487016108c491611fa8565b9360448701526064860152608485015260231991828582030160a48601526108eb91611fa8565b908382030160c48401526108fe91611fa8565b03601f19810183526109109083611e28565b61053092613033565b50634e487b7160e01b60009081526041600452fd5b61093790611e15565b610942578b38610823565b8b80fd5b61094f90611e15565b61049e5782386107e7565b6040513d86823e3d90fd5b61096e90611e15565b61049e5782386107b4565b91985095506109a091945060803d81116109ae575b6109988183611e28565b810190612a22565b95929050979094953861077b565b503d61098e565b50604051903d90823e3d90fd5b6109df9196503d808d833e6109d78183611e28565b81019061299c565b943861074a565b6040513d8d823e3d90fd5b610a069199503d808c833e6109d78183611e28565b9738610706565b6040513d8c823e3d90fd5b813d8311610a3f575b610a2b8183611e28565b81010312610a3a5784386106cd565b600080fd5b503d610a21565b83819492503d8311610a72575b610a5d8183611e28565b81010312610a3a5790518791906106bb61068a565b503d610a53565b6040513d8e823e3d90fd5b60405162461bcd60e51b8152600481018890526034818c01527f43544d5257413030313a207472616e736665722063616c6c6572206973206e6f6044820152731d081bdddb995c881b9bdc88185c1c1c9bdd995960621b6064820152608490fd5b610b059150883d8a11610b0b575b610afd8183611e28565b810190612264565b38610624565b503d610af3565b8580fd5b50346101da57806003193601126101da576007546040516001600160a01b039091168152602090f35b50346101da5760203660031901126101da57600435906001600160401b0382116101da5761020d6101f9610b763660048601611e64565b6121de565b50346101da5760203660031901126101da57600435906001600160401b0382116101da576040610bb6610bb13660048601611e64565b612ac1565b825191825215156020820152f35b50346101da57806003193601126101da576020600154604051908152f35b50346101da5760403660031901126101da576004356001600160401b0380821161049e573660238301121561049e57816004013590610c2082611ec1565b93610c2e6040519586611e28565b8285526020938486016024809560051b8301019136831161049a5785879101915b838310610e44575050505082359182116101da57366023830112156101da57816004013591610c7d83611ec1565b92610c8b6040519485611e28565b808452848685019160051b8301019136831161049a578501905b828210610e255750508154604051631eb01f7360e21b81523360048201526001600160a01b03939250908690829087908290869088165af19081156104585790610cf6918391610e08575b5061227c565b8551835103610da6575b8551811015610d9c5746610d1482886122c8565b5103610d29575b610d2490612169565b610d00565b610d4a610d3682886122c8565b5183610d4284876122c8565b5116906122dc565b610d1b5760405162461bcd60e51b8152600481018690526021818601527f43544d525741303031583a205f61646458436861696e496e666f206661696c656044820152601960fa1b6064820152608490fd5b8460405160018152f35b60405162461bcd60e51b8152600481018690526035818601527f43544d5257413030313a204c656e677468206d69736d6174636820636861696e60448201527449647320616e6420636f6e7472616374416464727360581b6064820152608490fd5b610e1f9150873d8911610b0b57610afd8183611e28565b38610cf0565b81356001600160a01b0381168103610a3a578152908601908601610ca5565b8235815291810191879101610c4f565b50346101da57600319606036820112610fba576001600160401b0360243581811161049a57610e87903690600401611f58565b9091604435908111610fb657610ea1903690600401611f58565b9190928560018060a01b0381541660405190631eb01f7360e21b82523360048301528160248160209b8c945af19081156104585790610ee6918391610f9f575061227c565b60015460043503610f6857826004116101da5750927fd1b411598268892b6836c5b922cfa272124f6f0bd3a7cf9f9d408f7e50f223019492610f4e610f5c9360049660405197889763ffffffff60e01b833516895260608c8a01526060890193019101612f6b565b918483036040860152612f6b565b0390a160405160018152f35b60405162461bcd60e51b815260048101889052600f60248201526e0c8c2e0e0928840c8d2e6dac2e8c6d608b1b6044820152606490fd5b610e1f9150893d8b11610b0b57610afd8183611e28565b8480fd5b5080fd5b50346101da5760203660031901126101da57610fd8611eab565b6001600160a01b0390819081610fec6130d6565b16331480156110b6575b610fff906130fe565b1690811561107f5761100f6130d6565b16600354907f4552e521eca39a029d33503b3e2003db87de01f8396f9e3fdd9dddddb9b838b460206bffffffffffffffffffffffff60a01b9280848616176003558560045494851617600455866110686002544261282e565b96876005558160405196468852161795161792a480f35b60405162461bcd60e51b815260206004820152600f60248201526e6e6577476f7620697320656d70747960881b6044820152606490fd5b50610fff6110c33361313a565b9050610ff6565b50346101da5760403660031901126101da576004356001600160401b038111610fba576110fb903690600401611e64565b508054604051631eb01f7360e21b8152336004820152906020908290602490829086906001600160a01b03165af19081156104585761113f929161114a575061227c565b602060405160018152f35b610e1f915060203d8111610b0b57610afd8183611e28565b50346101da5760c03660031901126101da57806001600160401b0360043581811161137b57611195903690600401611e64565b5060243581811161137b576111ae903690600401611e64565b608435828111611376576111c6903690600401611e64565b60a435928311611376576111df84933690600401611e64565b8354604051631eb01f7360e21b81523360048201526020969094916001600160a01b03918891879160249183919086165af190811561136b5761122d8792611276978491611354575061227c565b61125261124c61124661123e612f8c565b509050612e8e565b95612bce565b93612bce565b92169260405180968192631c0e27e760e11b83528a60048401526024830190611fa8565b0381855afa80156113495761129b6112df946112a0928997899161132f575b50612e29565b612a54565b60405163bff2ed7160e01b81526001600160a01b0390911660048201526044803560248301526064803591830191909152909485938492839190820190565b03925af18015611324578293506112fb575b5060405160018152f35b813d831161131d575b61130e8183611e28565b81010312610a3a5780386112f1565b503d611304565b6040513d85823e3d90fd5b61134391503d808b833e6109d78183611e28565b38611295565b6040513d87823e3d90fd5b610e1f91508a3d8c11610b0b57610afd8183611e28565b6040513d88823e3d90fd5b505050fd5b5050fd5b50346101da57806003193601126101da576020600254604051908152f35b50346101da57806003193601126101da57546040516001600160a01b039091168152602090f35b50346101da578060031960803682011261158b576113e0611eab565b6001600160401b039190602435838111610fb657611402903690600401611e64565b90604435848111610b125761141b903690600401611ed8565b93606435908111610b1257611434903690600401611ed8565b9260018060a01b03928387541660405190631eb01f7360e21b82523360048301528160248160209c8d945af19081156115805785936114bc989661148f8b9561148a8e9b99966114cb968991611569575061227c565b612bce565b1695604051998a988997889663a6a2d1dd60e01b885216600487015260606024870152606486019061284c565b9184830301604485015261284c565b03925af191821561155d5791611540575b50156114eb5760405160018152f35b6084906040519062461bcd60e51b82526004820152602860248201527f43544d525741303031583a206164644e6577436861696e4964416e64546f6b656044820152671b8819985a5b195960c21b6064820152fd5b6115579150823d8411610b0b57610afd8183611e28565b386114dc565b604051903d90823e3d90fd5b610e1f91508d803d10610b0b57610afd8183611e28565b6040513d8a823e3d90fd5b50fd5b50346101da5760c03660031901126101da576001600160401b0360243581811161049e576115c0903690600401611e64565b5060443581811161049e576115d9903690600401611e64565b9060843590811161049e576115f2903690600401611e64565b6001600160a01b03919060a43583811603610a3a5761148a61162161161961162994612ac1565b9190916128a8565b461415612900565b16803b15610fba5760405163224e83b960e11b815233600480830191909152356024820152606480356044830152909183918391829084905af1801561045857611679575b602082604051908152f35b6116838291611e15565b6101da573861166e565b50346101da5760203660031901126101da57600435906001600160401b0382116101da5760206116c361148a3660048601611e64565b6040516001600160a01b039091168152f35b50346101da5760603660031901126101da576001600160401b0360043581811161049e57611707903690600401611e64565b5060243581811161049e57611720903690600401611e64565b50604435908111610fba576110fb903690600401611e64565b50346101da5760403660031901126101da576001600160401b0360043581811161049e5761176b903690600401611e64565b916024359182116101da57602061178f846117893660048701611e64565b90612e29565b6040519015158152f35b50346101da57806003193601126101da5760206116c36130d6565b5060e03660031901126101da576024356001600160401b038111610fba576117e0903690600401611e64565b6064356001600160401b03811161049e576117ff903690600401611e64565b9060a4356001600160401b03811161049a5761181f903690600401611e64565b916001600160a01b039160c4358084169003610fb65761184a9361184283612ac1565b9590956128a8565b61185646861415612900565b8361186082612bce565b1694853b156104635760405163224e83b960e11b81523360048083019190915235602482015260843560448201528781606481838b5af1801561158057611c61575b50825115611c055786906118f960206118ba33612717565b60075460405163c73b647160e01b815246600482015260248101959095526001600160a01b0360c4351660448601529098169291829081906064820190565b0381855afa908115611324578391611bcd575b506040516325f076df60e01b8152600481019190915260c4356001600160a01b031660248201529160209183916044918391905af18015611b9757611ba2575b5060405163331a8a4b60e21b815260206004820152918683806119726024820188611fa8565b0381305afa928315611b97578793611b7b575b50611992835115156129c1565b60405163463d31d760e11b81526004803590820152916080836024818a5afa928315611580578893611b57575b50876040518098631c0e27e760e11b82526020600483015281806119e6602482018b611fa8565b03915afa968715611580578897611b3b575b506040519160808301978389106001600160401b038a1117611b2557611b0761052b95611b17946105309b6040526049875268672c737472696e672960b81b606060208901987f6d696e745828737472696e672c737472696e672c737472696e672c75696e74328a527f35362c75696e743235362c75696e743235362c75696e743235362c737472696e60408201520152611aa360405197604963ffffffff60e01b91201697611e15565b611ada611ac76040519c8d9960208b015261010060248b01526101248a0190611fa8565b60231996878a83030160448b0152611fa8565b916004356064890152604435608489015260a488015260843560c4880152848783030160e4880152611fa8565b9184830301610104850152611fa8565b03601f198101855284611e28565b634e487b7160e01b600052604160045260246000fd5b611b509197503d808a833e6109d78183611e28565b95386119f8565b611b7091935060803d81116109ae576109988183611e28565b9250505091386119bf565b611b909193503d8089833e6109d78183611e28565b9138611985565b6040513d89823e3d90fd5b602090813d8311611bc6575b611bb88183611e28565b81010312610a3a573861194c565b503d611bae565b9250506020823d602011611bfd575b81611be960209383611e28565b81010312610a3a579051879190602061190c565b3d9150611bdc565b60405162461bcd60e51b815260206004820152602e60248201527f43544d5257413030313a2044657374696e6174696f6e2061646472657373206860448201526d0c2e640f4cae4de40d8cadccee8d60931b6064820152608490fd5b611c6d90979197611e15565b95386118a2565b50346101da576101003660031901126101da576001600160401b0390600435828111610fba57611ca8903690600401611e64565b50602435828111610fba57611cc1903690600401611e64565b60c43583811161049e57611cd9903690600401611e64565b9260e43590811161049e57611cf2903690600401611e64565b8254604051631eb01f7360e21b81523360048201526001600160a01b03939160209082906024908290899089165af1908115611349579161148a611d4092611d4694889161114a575061227c565b91612bce565b93611d7c8484611d5761123e612f8c565b97169660405180938192631c0e27e760e11b8352602060048401526024830190611fa8565b0381895afa908115611349579161129b91611d9d938791611e015750612e29565b833b1561049e57906084839283604051968794859363582939e560e01b855216600484015260643560248401528335604484015260a43560648401525af190811561155d5750611df257602060405160018152f35b611dfb90611e15565b3861113f565b61134391503d8089833e6109d78183611e28565b6001600160401b038111611b2557604052565b90601f801991011681019081106001600160401b03821117611b2557604052565b6001600160401b038111611b2557601f01601f191660200190565b81601f82011215610a3a57803590611e7b82611e49565b92611e896040519485611e28565b82845260208383010111610a3a57816000926020809301838601378301015290565b600435906001600160a01b0382168203610a3a57565b6001600160401b038111611b255760051b60200190565b9080601f83011215610a3a57813590611ef082611ec1565b92611efe6040519485611e28565b828452602092838086019160051b83010192808411610a3a57848301915b848310611f2c5750505050505090565b82356001600160401b038111610a3a578691611f4d84848094890101611e64565b815201920191611f1c565b9181601f84011215610a3a578235916001600160401b038311610a3a5760208381860195010111610a3a57565b60005b838110611f985750506000910152565b8181015183820152602001611f88565b90602091611fc181518092818552858086019101611f85565b601f01601f1916010190565b90600182811c92168015611ffd575b6020831014611fe757565b634e487b7160e01b600052602260045260246000fd5b91607f1691611fdc565b604051906000826008549161201b83611fcd565b808352926001908181169081156120a35750600114612044575b5061204292500383611e28565b565b6008600090815291507ff3f7a9fe364faab93b216da50a3214154f22a0a2b415b23a84c8169e8b636ee35b8483106120885750612042935050810160200138612035565b81935090816020925483858a0101520191019091859261206f565b90506020925061204294915060ff191682840152151560051b82010138612035565b90604051918260008254926120d984611fcd565b9081845260019485811690816000146121465750600114612103575b505061204292500383611e28565b9093915060005260209081600020936000915b81831061212e575050612042935082010138806120f5565b85548884018501529485019487945091830191612116565b91505061204294506020925060ff191682840152151560051b82010138806120f5565b60001981146121785760010190565b634e487b7160e01b600052601160045260246000fd5b6009548110156121c857600960005260011b7f6e1540171b6c0c960b71a7020d9f60077f6af931a8bbf590da0223dacf75c7af0190600090565b634e487b7160e01b600052603260045260246000fd5b6009549060005b82811061221257505050604051602081018181106001600160401b03821117611b25576040526000815290565b61223661221e8261218e565b5061223161222b85612e8e565b916120c5565b612e29565b6122485761224390612169565b6121e5565b61226192506001915061225a9061218e565b50016120c5565b90565b90816020910312610a3a57518015158103610a3a5790565b1561228357565b60405162461bcd60e51b815260206004820152601860248201527f433343616c6c6572446170703a206f6e6c7943616c6c657200000000000000006044820152606490fd5b80518210156121c85760209160051b010190565b612399929160009082907a184f03e93ff9f4daa797ed6e38ed64bf6a1f0100000000000000008281811015612709575b50506d04ee2d6d415b85acef8100000000808510156126fa575b50662386f26fc10000808510156126eb575b506305f5e100808510156126dc575b50612710808510156126cd575b5060648410156126bd575b600a809410156126b3575b6001938484019285602161237d86611e49565b9561238b6040519788611e28565b808752601f199a8b91611e49565b01966020973689890137860101905b612684575b5050506123bc6123c191612717565b612e8e565b91600091600954925b8381106126505750506040519060408201926001600160401b039383811085821117611b25576040526123fb612007565b835281830194855268010000000000000000811015611b25578086612423920160095561218e565b92909261263a575191825190848211611b255786916124428254611fcd565b94601f958681116125ea575b50849086831160011461258657600091908361257b575b5050600019600383901b1c191690831b1781555b019351968751938411611b25576124908554611fcd565b838111612535575b50819284116001146124d457505081929394956000926124c9575b5050600019600383901b1c191690831b17905590565b0151905038806124b3565b6000858152828120918516989193925b89821061251e5750508386979896959610612505575b505050811b01905590565b015160001960f88460031b161c191690553880806124fa565b8088859682949686015181550195019301906124e4565b85600052826000208480870160051c820192858810612572575b0160051c019087905b828110612566575050612498565b60008155018790612558565b9250819261254f565b015190503880612465565b908b83169184600052866000209260005b888282106125d457505090848795949392106125bb575b505050811b018155612479565b015160001960f88460031b161c191690553880806125ae565b8385015186558d98909501949384019301612597565b909192809450600052846000208680850160051c820192878610612631575b908b9695949392910160051c01905b818110612625575061244e565b600081558a9501612618565b92508192612609565b634e487b7160e01b600052600060045260246000fd5b612666826122316126608461218e565b506120c5565b6126785761267390612169565b6123ca565b50600096505050505050565b600019019082906f181899199a1a9b1b9c1cb0b131b232b360811b8282061a8353049086826123a857506123ad565b916001019161236a565b919260646002910493019161235f565b60049193940493019138612354565b60089193940493019138612347565b60109193940493019138612338565b60209193940493019138612326565b04935060409250388061230c565b604051906001600160a01b0316606082016001600160401b03811183821017611b2557604052602a82526020820160403682378251156121c8576030905381516001908110156121c857607860218401536029905b8082116127c057505061277c5790565b606460405162461bcd60e51b815260206004820152602060248201527f537472696e67733a20686578206c656e67746820696e73756666696369656e746044820152fd5b9091600f81166010811015612819576f181899199a1a9b1b9c1cb0b131b232b360811b901a6127ef848661283b565b5360041c91801561280457600019019061276c565b60246000634e487b7160e01b81526011600452fd5b60246000634e487b7160e01b81526032600452fd5b9190820180921161217857565b9081518110156121c8570160200190565b908082519081815260208091019281808460051b8301019501936000915b84831061287a5750505050505090565b9091929394958480612898600193601f198682030187528a51611fa8565b980193019301919493929061286a565b156128af57565b60405162461bcd60e51b815260206004820152602360248201527f43544d5257413030313a44657374696e6174696f6e20436861696e20696e76616044820152621b1a5960ea1b6064820152608490fd5b1561290757565b60405162461bcd60e51b815260206004820152602560248201527f43544d5257413030313a204e6f7420612063726f73732d636861696e207472616044820152643739b332b960d91b6064820152608490fd5b81601f82011215610a3a57805161297081611e49565b9261297e6040519485611e28565b81845260208284010111610a3a576122619160208085019101611f85565b90602082820312610a3a5781516001600160401b038111610a3a57612261920161295a565b156129c857565b60405162461bcd60e51b815260206004820152602c60248201527f43544d5257413030313a2054617267657420636f6e747261637420616464726560448201526b1cdcc81b9bdd08199bdd5b9960a21b6064820152608490fd5b9190826080910312610a3a57815191602081015191604082015160018060a01b0381168103610a3a5760609092015190565b15612a5b57565b60405162461bcd60e51b815260206004820152602560248201527f43544d525741303031583a2046726f6d20616e20696e76616c69642043544d52604482015264574130303160d81b6064820152608490fd5b60ff602f199116019060ff821161217857565b90600080835115612bb45780915b8451831015612baa57612ae2838661283b565b5190612af160f892831c612aae565b5060ff91600983612b0d612b05888b61283b565b51841c612aae565b1611612ba057612b2990612b21868961283b565b51901c612aae565b918651858103908111612b8c576000198101908111612b8c57604d8111612b8c57600a0a9216828102928184041490151715612b7857612b7291612b6c9161282e565b92612169565b91612acf565b634e487b7160e01b83526011600452602483fd5b634e487b7160e01b85526011600452602485fd5b5050509250508190565b9350600192915050565b92506001919050565b60ff16600a019060ff821161217857565b602a815103612d1857604051604081018181106001600160401b03821117611b25576040526014908181526020810192602036853760005b838110612c4c5750505191516bffffffffffffffffffffffff199283821692808210612c38575b505050905060601c90565b849293500360031b1b161680388080612c2d565b8060011b60029082810482148315171561217857808201809211612178576001600160f81b031991612c8b908390612c84908761283b565b5116612d67565b90600491821b90610ff060f0831692168203612d03576003908101809111612d035790612c849291612cc28560ff9586938a61283b565b1601918211612cee575090612ce9929160f81b1660001a612ce3828661283b565b53612169565b612c06565b601190634e487b7160e01b6000525260246000fd5b601183634e487b7160e01b6000525260246000fd5b60405162461bcd60e51b815260206004820152602160248201527f43544d5257413030313a20496e76616c69642061646472657373206c656e67746044820152600d60fb1b6064820152608490fd5b60f81c603081101580612e1e575b15612d835761226190612aae565b606181101580612e13575b15612dae5760ff612da160601992612bbd565b160160ff81116121785790565b604181101580612e08575b612dfa5760405162461bcd60e51b815260206004820152601560248201527424b73b30b634b2103432bc1031b430b930b1ba32b960591b6044820152606490fd5b60ff612da160401992612bbd565b506046811115612db9565b506066811115612d8e565b506039811115612d75565b906040519182612e456020820192602084526040830190611fa8565b0392612e59601f1994858101835282611e28565b51902091612e876040519182612e7b6020820195602087526040830190611fa8565b03908101835282611e28565b5190201490565b908151612e9a81611e49565b90612ea86040519283611e28565b808252612eb7601f1991611e49565b01602090368284013760005b8451811015612f6457612ed6818661283b565b5190604160f892831c101580612f4d575b15612f265782612ef7828861283b565b51831c019160ff831161217857612f2192901b6001600160f81b03191660001a612ce3828661283b565b612ec3565b612f2191506001600160f81b0319612f3e828861283b565b511660001a612ce3828661283b565b50605a612f5a828861283b565b51831c1115612ee7565b5090925050565b908060209392818452848401376000828201840152601f01601f1916010190565b60008054604051636824b6b560e11b81529192908390839060049082906001600160a01b03165afa918215611324578390848094612fcc575b5050929190565b93509350503d8083853e612fe08185611e28565b830160608482031261049e578351936020810151906001600160401b0391828111610b12578361301191830161295a565b9460408201519283116101da575061302a92910161295a565b91923880612fc5565b92919060009160018060a01b038354169160015491833b15610fb65791846020819593826130ae61308b9a9b9761309e6040519c8d9a8b996304f4c7fb60e31b8b5260048b015260a060248b015260a48a0190611fa8565b60031995868a83030160448b0152611fa8565b9084888303016064890152611fa8565b85810392830160848701525201925af190811561155d57506130cd5750565b61204290611e15565b6005544210156130ef576003546001600160a01b031690565b6004546001600160a01b031690565b1561310557565b60405162461bcd60e51b815260206004820152600d60248201526c23b7bb102327a92124a22222a760991b6044820152606490fd5b60008054604051631eb01f7360e21b81526001600160a01b039384166004820152926020928492602492849291165af19081156131945760009161317c575090565b612261915060203d8111610b0b57610afd8183611e28565b6040513d6000823e3d90fdfea264697066735822122005a0f6c7b38e5cbc215e8834cb0fd186c32cde021382f7fe6c841d197e5e7d8b64736f6c63430008140033",
  "linkReferences": {},
  "deployedLinkReferences": {}
}