{
  "_format": "hh-sol-artifact-1",
  "contractName": "C3Governor",
  "sourceName": "contracts/c3Caller/C3Governor.sol",
  "abi": [
    {
      "inputs": [],
      "stateMutability": "nonpayable",
      "type": "constructor"
    },
    {
      "anonymous": false,
      "inputs": [
        {
          "indexed": true,
          "internalType": "address",
          "name": "oldGov",
          "type": "address"
        },
        {
          "indexed": true,
          "internalType": "address",
          "name": "newGov",
          "type": "address"
        },
        {
          "indexed": false,
          "internalType": "uint256",
          "name": "timestamp",
          "type": "uint256"
        }
      ],
      "name": "ApplyGov",
      "type": "event"
    },
    {
      "anonymous": false,
      "inputs": [
        {
          "indexed": true,
          "internalType": "bytes32",
          "name": "nonce",
          "type": "bytes32"
        },
        {
          "indexed": true,
          "internalType": "uint256",
          "name": "toChainID",
          "type": "uint256"
        },
        {
          "indexed": false,
          "internalType": "string",
          "name": "to",
          "type": "string"
        },
        {
          "indexed": false,
          "internalType": "bytes",
          "name": "toData",
          "type": "bytes"
        }
      ],
      "name": "C3GovernorLog",
      "type": "event"
    },
    {
      "anonymous": false,
      "inputs": [
        {
          "indexed": true,
          "internalType": "address",
          "name": "oldGov",
          "type": "address"
        },
        {
          "indexed": true,
          "internalType": "address",
          "name": "newGov",
          "type": "address"
        },
        {
          "indexed": false,
          "internalType": "uint256",
          "name": "timestamp",
          "type": "uint256"
        }
      ],
      "name": "ChangeGov",
      "type": "event"
    },
    {
      "anonymous": false,
      "inputs": [
        {
          "indexed": false,
          "internalType": "uint8",
          "name": "version",
          "type": "uint8"
        }
      ],
      "name": "Initialized",
      "type": "event"
    },
    {
      "anonymous": false,
      "inputs": [
        {
          "indexed": true,
          "internalType": "bytes32",
          "name": "uuid",
          "type": "bytes32"
        }
      ],
      "name": "NewProposal",
      "type": "event"
    },
    {
      "inputs": [
        {
          "internalType": "address",
          "name": "_op",
          "type": "address"
        }
      ],
      "name": "addOperator",
      "outputs": [],
      "stateMutability": "nonpayable",
      "type": "function"
    },
    {
      "inputs": [],
      "name": "applyGov",
      "outputs": [],
      "stateMutability": "nonpayable",
      "type": "function"
    },
    {
      "inputs": [
        {
          "internalType": "address",
          "name": "_gov",
          "type": "address"
        }
      ],
      "name": "changeGov",
      "outputs": [],
      "stateMutability": "nonpayable",
      "type": "function"
    },
    {
      "inputs": [
        {
          "internalType": "bytes32",
          "name": "_nonce",
          "type": "bytes32"
        },
        {
          "internalType": "uint256",
          "name": "offset",
          "type": "uint256"
        }
      ],
      "name": "doGov",
      "outputs": [],
      "stateMutability": "nonpayable",
      "type": "function"
    },
    {
      "inputs": [],
      "name": "getAllOperators",
      "outputs": [
        {
          "internalType": "address[]",
          "name": "",
          "type": "address[]"
        }
      ],
      "stateMutability": "view",
      "type": "function"
    },
    {
      "inputs": [
        {
          "internalType": "bytes32",
          "name": "_nonce",
          "type": "bytes32"
        },
        {
          "internalType": "uint256",
          "name": "offset",
          "type": "uint256"
        }
      ],
      "name": "getProposalData",
      "outputs": [
        {
          "internalType": "bytes",
          "name": "",
          "type": "bytes"
        },
        {
          "internalType": "bool",
          "name": "",
          "type": "bool"
        }
      ],
      "stateMutability": "view",
      "type": "function"
    },
    {
      "inputs": [],
      "name": "gov",
      "outputs": [
        {
          "internalType": "address",
          "name": "",
          "type": "address"
        }
      ],
      "stateMutability": "view",
      "type": "function"
    },
    {
      "inputs": [
        {
          "internalType": "address",
          "name": "",
          "type": "address"
        }
      ],
      "name": "isOperator",
      "outputs": [
        {
          "internalType": "bool",
          "name": "",
          "type": "bool"
        }
      ],
      "stateMutability": "view",
      "type": "function"
    },
    {
      "inputs": [
        {
          "internalType": "uint256",
          "name": "",
          "type": "uint256"
        }
      ],
      "name": "operators",
      "outputs": [
        {
          "internalType": "address",
          "name": "",
          "type": "address"
        }
      ],
      "stateMutability": "view",
      "type": "function"
    },
    {
      "inputs": [],
      "name": "pendingGov",
      "outputs": [
        {
          "internalType": "address",
          "name": "",
          "type": "address"
        }
      ],
      "stateMutability": "view",
      "type": "function"
    },
    {
      "inputs": [
        {
          "internalType": "address",
          "name": "_op",
          "type": "address"
        }
      ],
      "name": "revokeOperator",
      "outputs": [],
      "stateMutability": "nonpayable",
      "type": "function"
    },
    {
      "inputs": [
        {
          "internalType": "bytes[]",
          "name": "_data",
          "type": "bytes[]"
        },
        {
          "internalType": "bytes32",
          "name": "_nonce",
          "type": "bytes32"
        }
      ],
      "name": "sendMultiParams",
      "outputs": [],
      "stateMutability": "nonpayable",
      "type": "function"
    },
    {
      "inputs": [
        {
          "internalType": "bytes",
          "name": "_data",
          "type": "bytes"
        },
        {
          "internalType": "bytes32",
          "name": "_nonce",
          "type": "bytes32"
        }
      ],
      "name": "sendParams",
      "outputs": [],
      "stateMutability": "nonpayable",
      "type": "function"
    },
    {
      "inputs": [],
      "name": "version",
      "outputs": [
        {
          "internalType": "uint256",
          "name": "",
          "type": "uint256"
        }
      ],
      "stateMutability": "pure",
      "type": "function"
    }
  ],
  "bytecode": "0x60806040523480156200001157600080fd5b506200001d3362000023565b62000194565b600054610100900460ff1615808015620000445750600054600160ff909116105b80620000605750303b15801562000060575060005460ff166001145b620000c85760405162461bcd60e51b815260206004820152602e60248201527f496e697469616c697a61626c653a20636f6e747261637420697320616c72656160448201526d191e481a5b9a5d1a585b1a5e995960921b606482015260840160405180910390fd5b6000805460ff191660011790558015620000ec576000805461ff0019166101001790555b6000805462010000600160b01b031916620100006001600160a01b0385169081029190911782556040514281529091907fff88f8815b3f9faf85529ba09d2f7ff0d9c726c11cc863fd24515698601425909060200160405180910390a3801562000190576000805461ff0019169055604051600181527f7f26b83ff96e1f2b6a682f133852f6798a09c465da95921460cefb38474024989060200160405180910390a15b5050565b61180b80620001a46000396000f3fe608060405234801561001057600080fd5b50600436106100ea5760003560e01c8063a335337b1161008c578063d911c63211610066578063d911c632146101f1578063e28d490614610206578063fad8b32a14610219578063fdc66b231461022c57600080fd5b8063a335337b146101aa578063a962ef1e146101cb578063b846f81f146101de57600080fd5b8063459c7695116100c8578063459c76951461014d57806354fd4d50146101555780636d70f7ae146101645780639870d7fe1461019757600080fd5b806312d43a51146100ef578063252408101461012557806330a893a714610138575b600080fd5b600054610108906201000090046001600160a01b031681565b6040516001600160a01b0390911681526020015b60405180910390f35b600154610108906001600160a01b031681565b61014b6101463660046111b4565b61023f565b005b61014b6103f2565b6040516001815260200161011c565b61018761017236600461127d565b60026020526000908152604090205460ff1681565b604051901515815260200161011c565b61014b6101a536600461127d565b6104c3565b6101bd6101b83660046112ad565b6104ff565b60405161011c92919061131f565b61014b6101d936600461127d565b61060c565b61014b6101ec3660046112ad565b61069f565b6101f96107d5565b60405161011c9190611343565b610108610214366004611390565b610837565b61014b61022736600461127d565b610861565b61014b61023a3660046113a9565b610a26565b6000546201000090046001600160a01b031633146102785760405162461bcd60e51b815260040161026f906113ee565b60405180910390fd5b60008251116102995760405162461bcd60e51b815260040161026f90611417565b60005b82518110156103c25760008382815181106102b9576102b9611458565b602002602001015151116103205760405162461bcd60e51b815260206004820152602860248201527f4333476f7665726e6f723a204e6f20646174612070617373656420746f2073656044820152676e64506172616d7360c01b606482015260840161026f565b6000828152600460205260409020835184908390811061034257610342611458565b6020908102919091018101518254600181018455600093845291909220019061036b90826114ee565b5060008281526004602090815260408220600190810180549182018155835291819020908204018054601f9092166101000a60ff021990911690556103b08282610b0a565b806103ba816115c4565b91505061029c565b5060405181907f2fa055ed2a16bf675cb77388be42cc263fd4f3feaac282dbcce8ae28691c960b90600090a25050565b6001546001600160a01b031661044a5760405162461bcd60e51b815260206004820152601760248201527f4333476f763a20656d7074792070656e64696e67476f76000000000000000000604482015260640161026f565b600180546000805462010000600160b01b0319166001600160a01b0380841662010000908102929092178084556001600160a01b031990941690945560405142815291939204909116907fff88f8815b3f9faf85529ba09d2f7ff0d9c726c11cc863fd24515698601425909060200160405180910390a3565b6000546201000090046001600160a01b031633146104f35760405162461bcd60e51b815260040161026f906113ee565b6104fc81610d44565b50565b6000828152600460205260408120805460609291908490811061052457610524611458565b9060005260206000200160046000868152602001908152602001600020600101848154811061055557610555611458565b90600052602060002090602091828204019190069054906101000a900460ff168180546105819061146e565b80601f01602080910402602001604051908101604052809291908181526020018280546105ad9061146e565b80156105fa5780601f106105cf576101008083540402835291602001916105fa565b820191906000526020600020905b8154815290600101906020018083116105dd57829003601f168201915b50505050509150915091509250929050565b6000546201000090046001600160a01b0316331461063c5760405162461bcd60e51b815260040161026f906113ee565b600180546001600160a01b0319166001600160a01b0383811691821790925560005460405142815291926201000090910416907fd098c548c6851f1e61d4e1364996748b40477bb1abe90254bd71352396b2b7be9060200160405180910390a350565b60008281526004602052604090205481106107225760405162461bcd60e51b815260206004820152603960248201527f4333476f7665726e6f723a2052656164696e67206265796f6e6420746865206c60448201527f656e677468206f6620746865206f666673657420617272617900000000000000606482015260840161026f565b600082815260046020526040902060010180548290811061074557610745611458565b60009182526020918290209181049091015460ff601f9092166101000a900416156107c75760405162461bcd60e51b815260206004820152602c60248201527f4333476f7665726e6f723a20446f206e6f7420726573656e642069662069742060448201526b191a59081b9bdd0819985a5b60a21b606482015260840161026f565b6107d18282610b0a565b5050565b6060600380548060200260200160405190810160405280929190818152602001828054801561082d57602002820191906000526020600020905b81546001600160a01b0316815260019091019060200180831161080f575b5050505050905090565b6003818154811061084757600080fd5b6000918252602090912001546001600160a01b0316905081565b6000546201000090046001600160a01b031633146108915760405162461bcd60e51b815260040161026f906113ee565b6001600160a01b03811660009081526002602052604090205460ff166108f95760405162461bcd60e51b815260206004820152601c60248201527f433343616c6c65723a204f70657261746f72206e6f7420666f756e6400000000604482015260640161026f565b6001600160a01b0381166000908152600260205260408120805460ff19169055600354905b81811015610a2157826001600160a01b03166003828154811061094357610943611458565b6000918252602090912001546001600160a01b031603610a0f57600361096a6001846115dd565b8154811061097a5761097a611458565b600091825260209091200154600380546001600160a01b0390921691839081106109a6576109a6611458565b9060005260206000200160006101000a8154816001600160a01b0302191690836001600160a01b0316021790555060038054806109e5576109e56115f0565b600082815260209020810160001990810180546001600160a01b0319169055019055506104fc9050565b80610a19816115c4565b91505061091e565b505050565b6000546201000090046001600160a01b03163314610a565760405162461bcd60e51b815260040161026f906113ee565b6000825111610a775760405162461bcd60e51b815260040161026f90611417565b600081815260046020908152604082208054600181018255908352912001610a9f83826114ee565b50600081815260046020908152604080832060019081018054918201815584528284209281049092018054601f9093166101000a60ff02199092169091555182917f2fa055ed2a16bf675cb77388be42cc263fd4f3feaac282dbcce8ae28691c960b91a26107d18160005b60008281526004602052604081208054606091829184919086908110610b3257610b32611458565b906000526020600020018054610b479061146e565b80601f0160208091040260200160405190810160405280929190818152602001828054610b739061146e565b8015610bc05780601f10610b9557610100808354040283529160200191610bc0565b820191906000526020600020905b815481529060010190602001808311610ba357829003601f168201915b5050505050905080806020019051810190610bdb9190611636565b91955093509150468403610cb2576000610bf484610e73565b90506000816001600160a01b031684604051610c1091906116ce565b6000604051808303816000865af19150503d8060008114610c4d576040519150601f19603f3d011682016040523d82523d6000602084013e610c52565b606091505b505090508015610cab5760008881526004602052604090206001908101805489908110610c8157610c81611458565b90600052602060002090602091828204019190066101000a81548160ff0219169083151502179055505b5050610d3c565b60008681526004602052604090206001908101805487908110610cd757610cd7611458565b90600052602060002090602091828204019190066101000a81548160ff02191690831515021790555083867f7066190a2751b8d939d2c201f8eb1ea9fa04b8616d0c26b6dcdee152cbdb36088585604051610d339291906116ea565b60405180910390a35b505050505050565b6001600160a01b038116610d9a5760405162461bcd60e51b815260206004820181905260248201527f433343616c6c65723a204f70657261746f722069732061646472657373283029604482015260640161026f565b6001600160a01b03811660009081526002602052604090205460ff1615610e0d5760405162461bcd60e51b815260206004820152602160248201527f433343616c6c65723a204f70657261746f7220616c72656164792065786973746044820152607360f81b606482015260840161026f565b6001600160a01b03166000818152600260205260408120805460ff191660019081179091556003805491820181559091527fc2575a0e9e593c00f959f8c92f12db2869c3395a3b0502d05e2516446f71f85b0180546001600160a01b0319169091179055565b600080610e7f83610edc565b9050601581511015610ecb5760405162461bcd60e51b8152602060048201526015602482015274746f416464726573735f6f75744f66426f756e647360581b604482015260640161026f565b60210151600160601b900492915050565b80516060908290610eef9060029061172e565b15610ef957600080fd5b600060028251610f099190611742565b67ffffffffffffffff811115610f2157610f216110ef565b6040519080825280601f01601f191660200182016040528015610f4b576020820181803683370190505b50905060005b60028351610f5f9190611742565b811015610ffd57610f9d83610f75836002611756565b610f8090600161176d565b81518110610f9057610f90611458565b016020015160f81c611005565b610fac84610f80846002611756565b610fb7906010611780565b610fc191906117a3565b60f81b828281518110610fd657610fd6611458565b60200101906001600160f81b031916908160001a905350610ff6816115c4565b9050610f51565b509392505050565b6000600360fc1b60f883901b6001600160f81b0319161080159061103b5750603960f81b60f883901b6001600160f81b03191611155b156110515761104b6030836117bc565b92915050565b606160f81b60f883901b6001600160f81b031916108015906110855750603360f91b60f883901b6001600160f81b03191611155b156110a157606161109783600a6117a3565b61104b91906117bc565b604160f81b60f883901b6001600160f81b031916108015906110d55750602360f91b60f883901b6001600160f81b03191611155b156110e757604161109783600a6117a3565b506000919050565b634e487b7160e01b600052604160045260246000fd5b604051601f8201601f1916810167ffffffffffffffff8111828210171561112e5761112e6110ef565b604052919050565b600067ffffffffffffffff821115611150576111506110ef565b50601f01601f191660200190565b600082601f83011261116f57600080fd5b813561118261117d82611136565b611105565b81815284602083860101111561119757600080fd5b816020850160208301376000918101602001919091529392505050565b600080604083850312156111c757600080fd5b823567ffffffffffffffff808211156111df57600080fd5b818501915085601f8301126111f357600080fd5b8135602082821115611207576112076110ef565b8160051b611216828201611105565b928352848101820192828101908a85111561123057600080fd5b83870192505b8483101561126c5782358681111561124e5760008081fd5b61125c8c86838b010161115e565b8352509183019190830190611236565b9a9890920135985050505050505050565b60006020828403121561128f57600080fd5b81356001600160a01b03811681146112a657600080fd5b9392505050565b600080604083850312156112c057600080fd5b50508035926020909101359150565b60005b838110156112ea5781810151838201526020016112d2565b50506000910152565b6000815180845261130b8160208601602086016112cf565b601f01601f19169290920160200192915050565b60408152600061133260408301856112f3565b905082151560208301529392505050565b6020808252825182820181905260009190848201906040850190845b818110156113845783516001600160a01b03168352928401929184019160010161135f565b50909695505050505050565b6000602082840312156113a257600080fd5b5035919050565b600080604083850312156113bc57600080fd5b823567ffffffffffffffff8111156113d357600080fd5b6113df8582860161115e565b95602094909401359450505050565b6020808252600f908201526e2199a3b7bb1d1037b7363c9023b7bb60891b604082015260600190565b60208082526021908201527f4333476f7665726e6f723a204e6f206461746120746f2073656e64506172616d6040820152607360f81b606082015260800190565b634e487b7160e01b600052603260045260246000fd5b600181811c9082168061148257607f821691505b6020821081036114a257634e487b7160e01b600052602260045260246000fd5b50919050565b601f821115610a2157600081815260208120601f850160051c810160208610156114cf5750805b601f850160051c820191505b81811015610d3c578281556001016114db565b815167ffffffffffffffff811115611508576115086110ef565b61151c81611516845461146e565b846114a8565b602080601f83116001811461155157600084156115395750858301515b600019600386901b1c1916600185901b178555610d3c565b600085815260208120601f198616915b8281101561158057888601518255948401946001909101908401611561565b508582101561159e5787850151600019600388901b60f8161c191681555b5050505050600190811b01905550565b634e487b7160e01b600052601160045260246000fd5b6000600182016115d6576115d66115ae565b5060010190565b8181038181111561104b5761104b6115ae565b634e487b7160e01b600052603160045260246000fd5b600061161461117d84611136565b905082815283838301111561162857600080fd5b6112a68360208301846112cf565b60008060006060848603121561164b57600080fd5b83519250602084015167ffffffffffffffff8082111561166a57600080fd5b818601915086601f83011261167e57600080fd5b61168d87835160208501611606565b935060408601519150808211156116a357600080fd5b508401601f810186136116b557600080fd5b6116c486825160208401611606565b9150509250925092565b600082516116e08184602087016112cf565b9190910192915050565b6040815260006116fd60408301856112f3565b828103602084015261170f81856112f3565b95945050505050565b634e487b7160e01b600052601260045260246000fd5b60008261173d5761173d611718565b500690565b60008261175157611751611718565b500490565b808202811582820484141761104b5761104b6115ae565b8082018082111561104b5761104b6115ae565b60ff818116838216029081169081811461179c5761179c6115ae565b5092915050565b60ff818116838216019081111561104b5761104b6115ae565b60ff828116828216039081111561104b5761104b6115ae56fea26469706673582212205e426af4ba5942081432ceccc6ed1499def5add719415a1b54c350d9939ca96664736f6c63430008140033",
  "linkReferences": {},
  "deployedLinkReferences": {}
}