{
  "_format": "hh-sol-artifact-1",
  "contractName": "C3Governor",
  "sourceName": "contracts/c3Caller/C3Governor.sol",
  "abi": [
    {
      "inputs": [],
      "stateMutability": "nonpayable",
      "type": "constructor"
    },
    {
      "anonymous": false,
      "inputs": [
        {
          "indexed": true,
          "internalType": "address",
          "name": "oldGov",
          "type": "address"
        },
        {
          "indexed": true,
          "internalType": "address",
          "name": "newGov",
          "type": "address"
        },
        {
          "indexed": false,
          "internalType": "uint256",
          "name": "timestamp",
          "type": "uint256"
        }
      ],
      "name": "ApplyGov",
      "type": "event"
    },
    {
      "anonymous": false,
      "inputs": [
        {
          "indexed": true,
          "internalType": "bytes32",
          "name": "nonce",
          "type": "bytes32"
        },
        {
          "indexed": true,
          "internalType": "uint256",
          "name": "toChainID",
          "type": "uint256"
        },
        {
          "indexed": false,
          "internalType": "string",
          "name": "to",
          "type": "string"
        },
        {
          "indexed": false,
          "internalType": "bytes",
          "name": "toData",
          "type": "bytes"
        }
      ],
      "name": "C3GovernorLog",
      "type": "event"
    },
    {
      "anonymous": false,
      "inputs": [
        {
          "indexed": true,
          "internalType": "address",
          "name": "oldGov",
          "type": "address"
        },
        {
          "indexed": true,
          "internalType": "address",
          "name": "newGov",
          "type": "address"
        },
        {
          "indexed": false,
          "internalType": "uint256",
          "name": "timestamp",
          "type": "uint256"
        }
      ],
      "name": "ChangeGov",
      "type": "event"
    },
    {
      "anonymous": false,
      "inputs": [
        {
          "indexed": false,
          "internalType": "uint8",
          "name": "version",
          "type": "uint8"
        }
      ],
      "name": "Initialized",
      "type": "event"
    },
    {
      "anonymous": false,
      "inputs": [
        {
          "indexed": true,
          "internalType": "bytes32",
          "name": "uuid",
          "type": "bytes32"
        }
      ],
      "name": "NewProposal",
      "type": "event"
    },
    {
      "inputs": [
        {
          "internalType": "address",
          "name": "_op",
          "type": "address"
        }
      ],
      "name": "addOperator",
      "outputs": [],
      "stateMutability": "nonpayable",
      "type": "function"
    },
    {
      "inputs": [],
      "name": "applyGov",
      "outputs": [],
      "stateMutability": "nonpayable",
      "type": "function"
    },
    {
      "inputs": [
        {
          "internalType": "address",
          "name": "_gov",
          "type": "address"
        }
      ],
      "name": "changeGov",
      "outputs": [],
      "stateMutability": "nonpayable",
      "type": "function"
    },
    {
      "inputs": [
        {
          "internalType": "bytes32",
          "name": "_nonce",
          "type": "bytes32"
        },
        {
          "internalType": "uint256",
          "name": "offset",
          "type": "uint256"
        }
      ],
      "name": "doGov",
      "outputs": [],
      "stateMutability": "nonpayable",
      "type": "function"
    },
    {
      "inputs": [],
      "name": "getAllOperators",
      "outputs": [
        {
          "internalType": "address[]",
          "name": "",
          "type": "address[]"
        }
      ],
      "stateMutability": "view",
      "type": "function"
    },
    {
      "inputs": [
        {
          "internalType": "bytes32",
          "name": "_nonce",
          "type": "bytes32"
        },
        {
          "internalType": "uint256",
          "name": "offset",
          "type": "uint256"
        }
      ],
      "name": "getProposalData",
      "outputs": [
        {
          "internalType": "bytes",
          "name": "",
          "type": "bytes"
        },
        {
          "internalType": "bool",
          "name": "",
          "type": "bool"
        }
      ],
      "stateMutability": "view",
      "type": "function"
    },
    {
      "inputs": [],
      "name": "gov",
      "outputs": [
        {
          "internalType": "address",
          "name": "",
          "type": "address"
        }
      ],
      "stateMutability": "view",
      "type": "function"
    },
    {
      "inputs": [
        {
          "internalType": "address",
          "name": "",
          "type": "address"
        }
      ],
      "name": "isOperator",
      "outputs": [
        {
          "internalType": "bool",
          "name": "",
          "type": "bool"
        }
      ],
      "stateMutability": "view",
      "type": "function"
    },
    {
      "inputs": [
        {
          "internalType": "uint256",
          "name": "",
          "type": "uint256"
        }
      ],
      "name": "operators",
      "outputs": [
        {
          "internalType": "address",
          "name": "",
          "type": "address"
        }
      ],
      "stateMutability": "view",
      "type": "function"
    },
    {
      "inputs": [],
      "name": "pendingGov",
      "outputs": [
        {
          "internalType": "address",
          "name": "",
          "type": "address"
        }
      ],
      "stateMutability": "view",
      "type": "function"
    },
    {
      "inputs": [
        {
          "internalType": "address",
          "name": "_op",
          "type": "address"
        }
      ],
      "name": "revokeOperator",
      "outputs": [],
      "stateMutability": "nonpayable",
      "type": "function"
    },
    {
      "inputs": [
        {
          "internalType": "bytes[]",
          "name": "_data",
          "type": "bytes[]"
        },
        {
          "internalType": "bytes32",
          "name": "_nonce",
          "type": "bytes32"
        }
      ],
      "name": "sendMultiParams",
      "outputs": [],
      "stateMutability": "nonpayable",
      "type": "function"
    },
    {
      "inputs": [
        {
          "internalType": "bytes",
          "name": "_data",
          "type": "bytes"
        },
        {
          "internalType": "bytes32",
          "name": "_nonce",
          "type": "bytes32"
        }
      ],
      "name": "sendParams",
      "outputs": [],
      "stateMutability": "nonpayable",
      "type": "function"
    },
    {
      "inputs": [],
      "name": "version",
      "outputs": [
        {
          "internalType": "uint256",
          "name": "",
          "type": "uint256"
        }
      ],
      "stateMutability": "pure",
      "type": "function"
    }
  ],
  "bytecode": "0x608080604052346200018557600090815460ff8160081c16159182809362000177575b80156200015e575b1562000105575060ff198116600117835581620000f3575b50815462010000600160b01b0319811633601081901b62010000600160b01b0316918217855560405142815291939185907fff88f8815b3f9faf85529ba09d2f7ff0d9c726c11cc863fd245156986014259090602090a3620000af575b6040516115de90816200018b8239f35b610100600160b01b031916179055604051600181527f7f26b83ff96e1f2b6a682f133852f6798a09c465da95921460cefb384740249890602090a13880806200009f565b61ffff19166101011782553862000042565b62461bcd60e51b815260206004820152602e60248201527f496e697469616c697a61626c653a20636f6e747261637420697320616c72656160448201526d191e481a5b9a5d1a585b1a5e995960921b6064820152608490fd5b50303b1580156200002a5750600160ff8316146200002a565b50600160ff83161062000022565b600080fdfe6080604052600436101561001257600080fd5b60003560e01c806312d43a51146100f757806325240810146100f257806330a893a7146100ed578063459c7695146100e857806354fd4d50146100e35780636d70f7ae146100de5780639870d7fe146100d9578063a335337b146100d4578063a962ef1e146100cf578063b846f81f146100ca578063d911c632146100c5578063e28d4906146100c0578063fad8b32a146100bb5763fdc66b23146100b657600080fd5b610852565b610824565b6107db565b6106ce565b6105f4565b610582565b610507565b6103f2565b6103be565b610380565b61029a565b6101f2565b610129565b346101245760003660031901126101245760005460405160109190911c6001600160a01b03168152602090f35b600080fd5b34610124576000366003190112610124576001546040516001600160a01b039091168152602090f35b634e487b7160e01b600052604160045260246000fd5b90601f8019910116810190811067ffffffffffffffff82111761018a57604052565b610152565b67ffffffffffffffff811161018a57601f01601f191660200190565b81601f82011215610124578035906101c28261018f565b926101d06040519485610168565b8284526020838301011161012457816000926020809301838601378301015290565b346101245760403660031901126101245760043567ffffffffffffffff80821161012457366023830112156101245781600401359181831161018a578260051b906040519260209461024686850186610168565b845284840190602480948401019236841161012457848101925b84841061027457610272863588610e05565b005b833583811161012457889161028f83928936918701016101ab565b815201930192610260565b346101245760008060031936011261037d576001546001600160a01b039081168015610338576000805462010000600160b01b03601093841b1662010000600160b01b0319909116178155600180546001600160a01b031916905583546040514281529193921c919091166001600160a01b0316907fff88f8815b3f9faf85529ba09d2f7ff0d9c726c11cc863fd245156986014259090602090a380f35b60405162461bcd60e51b815260206004820152601760248201527f4333476f763a20656d7074792070656e64696e67476f760000000000000000006044820152606490fd5b80fd5b3461012457600036600319011261012457602060405160018152f35b6020906003190112610124576004356001600160a01b03811681036101245790565b34610124576001600160a01b036103d43661039c565b166000526002602052602060ff604060002054166040519015158152f35b34610124576104003661039c565b60018060a01b036104198160005460101c163314610907565b811690811561047b5761027291600052600260205261044d610448610444604060002060ff90541690565b1590565b610945565b6001600160a01b038116600090815260026020526040902061047690805460ff19166001179055565b61099b565b606460405162461bcd60e51b815260206004820152602060248201527f433343616c6c65723a204f70657261746f7220697320616464726573732830296044820152fd5b60005b8381106104d25750506000910152565b81810151838201526020016104c2565b906020916104fb815180928185528580860191016104bf565b601f01601f1916010190565b3461012457604080600319360112610124576004359061055d60ff61055460243585600052600460205261053e81866000206107c3565b5095600052600460205260018560002001610db9565b92905494610f9d565b9361057184519585879687528601906104e2565b9260031b1c16151560208301520390f35b34610124576105903661039c565b60005460101c6001600160a01b03908116916105ad338414610907565b1690816bffffffffffffffffffffffff60a01b60015416176001557fd098c548c6851f1e61d4e1364996748b40477bb1abe90254bd71352396b2b7be6020604051428152a3005b3461012457604036600319011261012457600435602435816000526004602052604060002054811015610663578161065e61065861064b846001610645610272986000526004602052604060002090565b01610db9565b905460ff9160031b1c1690565b15610f3c565b61122a565b60405162461bcd60e51b815260206004820152603960248201527f4333476f7665726e6f723a2052656164696e67206265796f6e6420746865206c60448201527f656e677468206f6620746865206f6666736574206172726179000000000000006064820152608490fd5b346101245760008060031936011261037d57604051809160035490818352602080930180926003835260008051602061158983398151915290835b818110610766575050508461071f910385610168565b60405193838594850191818652518092526040850193925b82811061074657505050500390f35b83516001600160a01b031685528695509381019392810192600101610737565b82546001600160a01b031684529286019260019283019201610709565b634e487b7160e01b600052603260045260246000fd5b6003548110156107be5760036000526000805160206115898339815191520190600090565b610783565b80548210156107be5760005260206000200190600090565b346101245760203660031901126101245760043560035481101561012457600360005260008051602061158983398151915201546040516001600160a01b039091168152602090f35b34610124576102726108353661039c565b61084d60018060a01b0360005460101c163314610907565b610a95565b346101245760403660031901126101245760043567ffffffffffffffff8111610124576108839036906004016101ab565b6109046024356108c36000936108a660018060a01b03865460101c163314610907565b6108b281511515610bb8565b828552600460205260408520610c9c565b80835260046020526108da60016040852001610dd9565b807f2fa055ed2a16bf675cb77388be42cc263fd4f3feaac282dbcce8ae28691c960b8480a2611138565b80f35b1561090e57565b60405162461bcd60e51b815260206004820152600f60248201526e2199a3b7bb1d1037b7363c9023b7bb60891b6044820152606490fd5b1561094c57565b60405162461bcd60e51b815260206004820152602160248201527f433343616c6c65723a204f70657261746f7220616c72656164792065786973746044820152607360f81b6064820152608490fd5b600354600160401b81101561018a5760018101806003558110156107be5760036000526000805160206115898339815191520180546001600160a01b0319166001600160a01b03909216919091179055565b634e487b7160e01b600052601160045260246000fd5b6000198114610a125760010190565b6109ed565b600019810191908211610a1257565b6003548015610a7f57600019810190808210156107be577fc2575a0e9e593c00f959f8c92f12db2869c3395a3b0502d05e2516446f71f85a906003600052016bffffffffffffffffffffffff60a01b8154169055600355565b634e487b7160e01b600052603160045260246000fd5b6001600160a01b038181166000818152600260205260409020549192909160ff1615610b73576001600160a01b03166000908152600260205260409020805460ff191690556003549060005b828110610aee5750505050565b8184610b11610afc84610799565b905460039190911b1c6001600160a01b031690565b1614610b2557610b2090610a03565b610ae1565b91610b699350610b4a9150610afc610b3f610b4492610a17565b610799565b91610799565b90919082549060031b9160018060a01b03809116831b921b1916179055565b610b71610a26565b565b60405162461bcd60e51b815260206004820152601c60248201527f433343616c6c65723a204f70657261746f72206e6f7420666f756e64000000006044820152606490fd5b15610bbf57565b60405162461bcd60e51b815260206004820152602160248201527f4333476f7665726e6f723a204e6f206461746120746f2073656e64506172616d6044820152607360f81b6064820152608490fd5b90600182811c92168015610c3e575b6020831014610c2857565b634e487b7160e01b600052602260045260246000fd5b91607f1691610c1d565b90601f8111610c5657505050565b600091825260208220906020601f850160051c83019410610c92575b601f0160051c01915b828110610c8757505050565b818155600101610c7b565b9092508290610c72565b8054600160401b81101561018a57610cbb9060019283820181556107c3565b929092610d8e5780519067ffffffffffffffff821161018a57610ce882610ce28654610c0e565b86610c48565b60209081601f8411600114610d245750928293918392600094610d19575b50501b916000199060031b1c1916179055565b015192503880610d06565b919083601f198116610d3b88600052602060002090565b946000905b88838310610d745750505010610d5b575b505050811b019055565b015160001960f88460031b161c19169055388080610d51565b858701518855909601959485019487935090810190610d40565b634e487b7160e01b600052600060045260246000fd5b8054156107be57600052602060002090600090565b91909180548310156107be57600052601f60206000208360051c01921690565b8054600160401b81101561018a57610df691600182018155610db9565b60ff82549160031b1b19169055565b9190610e1f60018060a01b0360005460101c163314610907565b610e2b83511515610bb8565b60005b8351811015610efd57610e418185610f28565b515115610ea757610ea290610e74610e63846000526004602052604060002090565b610e6d8388610f28565b5190610c9c565b610e936001610e8d856000526004602052604060002090565b01610dd9565b610e9d818461122a565b610a03565b610e2e565b60405162461bcd60e51b815260206004820152602860248201527f4333476f7665726e6f723a204e6f20646174612070617373656420746f2073656044820152676e64506172616d7360c01b6064820152608490fd5b509091507f2fa055ed2a16bf675cb77388be42cc263fd4f3feaac282dbcce8ae28691c960b600080a2565b80518210156107be5760209160051b010190565b15610f4357565b60405162461bcd60e51b815260206004820152602c60248201527f4333476f7665726e6f723a20446f206e6f7420726573656e642069662069742060448201526b191a59081b9bdd0819985a5b60a21b6064820152608490fd5b9060405191826000825492610fb184610c0e565b90818452600194858116908160001461101e5750600114610fdb575b5050610b7192500383610168565b9093915060005260209081600020936000915b818310611006575050610b7193508201013880610fcd565b85548884018501529485019487945091830191610fee565b915050610b7194506020925060ff191682840152151560051b8201013880610fcd565b9092919261104e8161018f565b9161105c6040519384610168565b829482845282820111610124576020610b719301906104bf565b909160608284031261012457815192602083015167ffffffffffffffff9081811161012457840182601f8201121561012457828160206110b893519101611041565b93604081015191821161012457019080601f830112156101245781516110e092602001611041565b90565b90916110fa6110e0936040845260408401906104e2565b9160208184039101526104e2565b3d15611133573d906111198261018f565b916111276040519384610168565b82523d6000602084013e565b606090565b6000908082526004602052604082208054156107be57825261116e61115f60208420610f9d565b60208082518301019101611076565b9093914681036111d65750611184829394611320565b82602083519301915af1611196611108565b5061119e5750565b6111c060016111ba610b71936000526004602052604060002090565b01610da4565b81549060031b9060ff6001831b921b1916179055565b937f7066190a2751b8d939d2c201f8eb1ea9fa04b8616d0c26b6dcdee152cbdb360892506112166111c060016111ba876000526004602052604060002090565b611225604051928392836110e3565b0390a3565b80600052600460205261124d61115f6112478460406000206107c3565b50610f9d565b9146810361129b57506000916112638392611320565b82602083519301915af1611275611108565b5061127e575050565b610b719160016106456111c0936000526004602052604060002090565b93906112166111c07f7066190a2751b8d939d2c201f8eb1ea9fa04b8616d0c26b6dcdee152cbdb360894936001610645886000526004602052604060002090565b156112e357565b60405162461bcd60e51b8152602060048201526015602482015274746f416464726573735f6f75744f66426f756e647360581b6044820152606490fd5b90815161133c60019161133583821615611409565b821c611410565b906000938185905b611367575b505050602191925061135f6015825110156112dc565b015160601c90565b815160011c81101561140457806113ec6113dc6113b96113b46113af6113a961139b6113956113fe99611442565b8a61145a565b516001600160f81b03191690565b60f81c90565b6114d9565b61146b565b6113d66113af6113a961139b6113956113d189611442565b611480565b9061149f565b60f81b6001600160f81b03191690565b871a6113f8828761145a565b53610a03565b82611344565b611349565b1561012457565b9061141a8261018f565b6114276040519182610168565b8281528092611438601f199161018f565b0190602036910137565b600181901b91906001600160ff1b03811603610a1257565b9081518110156107be570160200190565b60041b90610ff060f0831692168203610a1257565b9060018201809211610a1257565b60ff16600a019060ff8211610a1257565b9060ff8091169116019060ff8211610a1257565b60ff6060199116019060ff8211610a1257565b60ff6040199116019060ff8211610a1257565b60f881901b6001600160f81b031916600360fc1b8110158061157a575b61156657606160f81b81101580611558575b61154657604160f81b8110159081611537575b506115265750600090565b6115326110e09161148e565b6114c6565b602360f91b101590503861151b565b506115536110e09161148e565b6114b3565b50603360f91b811115611508565b5060ff602f1991160160ff8111610a125790565b50603960f81b8111156114f656fec2575a0e9e593c00f959f8c92f12db2869c3395a3b0502d05e2516446f71f85ba264697066735822122064efbf7d8b73421af5d3998de170a03b25a846a085fbb6435ab9093a2b92ab0564736f6c63430008140033",
  "linkReferences": {},
  "deployedLinkReferences": {}
}