{
  "_format": "hh-sol-artifact-1",
  "contractName": "CTMRWA001Burnable",
  "sourceName": "contracts/CTMRWA001Burnable.sol",
  "abi": [
    {
      "inputs": [
        {
          "internalType": "string",
          "name": "name_",
          "type": "string"
        },
        {
          "internalType": "string",
          "name": "symbol_",
          "type": "string"
        },
        {
          "internalType": "uint8",
          "name": "decimals_",
          "type": "uint8"
        },
        {
          "internalType": "address",
          "name": "_ctmRwa001XChain",
          "type": "address"
        }
      ],
      "stateMutability": "nonpayable",
      "type": "constructor"
    },
    {
      "anonymous": false,
      "inputs": [
        {
          "indexed": true,
          "internalType": "address",
          "name": "_owner",
          "type": "address"
        },
        {
          "indexed": true,
          "internalType": "address",
          "name": "_approved",
          "type": "address"
        },
        {
          "indexed": true,
          "internalType": "uint256",
          "name": "_tokenId",
          "type": "uint256"
        }
      ],
      "name": "Approval",
      "type": "event"
    },
    {
      "anonymous": false,
      "inputs": [
        {
          "indexed": true,
          "internalType": "address",
          "name": "_owner",
          "type": "address"
        },
        {
          "indexed": true,
          "internalType": "address",
          "name": "_operator",
          "type": "address"
        },
        {
          "indexed": false,
          "internalType": "bool",
          "name": "_approved",
          "type": "bool"
        }
      ],
      "name": "ApprovalForAll",
      "type": "event"
    },
    {
      "anonymous": false,
      "inputs": [
        {
          "indexed": true,
          "internalType": "uint256",
          "name": "_tokenId",
          "type": "uint256"
        },
        {
          "indexed": true,
          "internalType": "address",
          "name": "_operator",
          "type": "address"
        },
        {
          "indexed": false,
          "internalType": "uint256",
          "name": "_value",
          "type": "uint256"
        }
      ],
      "name": "ApprovalValue",
      "type": "event"
    },
    {
      "anonymous": false,
      "inputs": [
        {
          "indexed": true,
          "internalType": "address",
          "name": "metadataDescriptor",
          "type": "address"
        }
      ],
      "name": "SetMetadataDescriptor",
      "type": "event"
    },
    {
      "anonymous": false,
      "inputs": [
        {
          "indexed": true,
          "internalType": "uint256",
          "name": "_tokenId",
          "type": "uint256"
        },
        {
          "indexed": true,
          "internalType": "uint256",
          "name": "_oldSlot",
          "type": "uint256"
        },
        {
          "indexed": true,
          "internalType": "uint256",
          "name": "_newSlot",
          "type": "uint256"
        }
      ],
      "name": "SlotChanged",
      "type": "event"
    },
    {
      "anonymous": false,
      "inputs": [
        {
          "indexed": true,
          "internalType": "address",
          "name": "_from",
          "type": "address"
        },
        {
          "indexed": true,
          "internalType": "address",
          "name": "_to",
          "type": "address"
        },
        {
          "indexed": true,
          "internalType": "uint256",
          "name": "_tokenId",
          "type": "uint256"
        }
      ],
      "name": "Transfer",
      "type": "event"
    },
    {
      "anonymous": false,
      "inputs": [
        {
          "indexed": true,
          "internalType": "uint256",
          "name": "_fromTokenId",
          "type": "uint256"
        },
        {
          "indexed": true,
          "internalType": "uint256",
          "name": "_toTokenId",
          "type": "uint256"
        },
        {
          "indexed": false,
          "internalType": "uint256",
          "name": "_value",
          "type": "uint256"
        }
      ],
      "name": "TransferValue",
      "type": "event"
    },
    {
      "inputs": [
        {
          "internalType": "address",
          "name": "_admin",
          "type": "address"
        },
        {
          "internalType": "string[]",
          "name": "_chainIdsStr",
          "type": "string[]"
        },
        {
          "internalType": "string[]",
          "name": "_contractAddrsStr",
          "type": "string[]"
        }
      ],
      "name": "addXTokenInfo",
      "outputs": [
        {
          "internalType": "bool",
          "name": "",
          "type": "bool"
        }
      ],
      "stateMutability": "nonpayable",
      "type": "function"
    },
    {
      "inputs": [],
      "name": "admin",
      "outputs": [
        {
          "internalType": "address",
          "name": "",
          "type": "address"
        }
      ],
      "stateMutability": "view",
      "type": "function"
    },
    {
      "inputs": [
        {
          "internalType": "uint256",
          "name": "tokenId_",
          "type": "uint256"
        },
        {
          "internalType": "address",
          "name": "operator_",
          "type": "address"
        }
      ],
      "name": "allowance",
      "outputs": [
        {
          "internalType": "uint256",
          "name": "",
          "type": "uint256"
        }
      ],
      "stateMutability": "view",
      "type": "function"
    },
    {
      "inputs": [
        {
          "internalType": "address",
          "name": "to_",
          "type": "address"
        },
        {
          "internalType": "uint256",
          "name": "tokenId_",
          "type": "uint256"
        }
      ],
      "name": "approve",
      "outputs": [],
      "stateMutability": "payable",
      "type": "function"
    },
    {
      "inputs": [
        {
          "internalType": "uint256",
          "name": "tokenId_",
          "type": "uint256"
        },
        {
          "internalType": "address",
          "name": "to_",
          "type": "address"
        },
        {
          "internalType": "uint256",
          "name": "value_",
          "type": "uint256"
        }
      ],
      "name": "approve",
      "outputs": [],
      "stateMutability": "payable",
      "type": "function"
    },
    {
      "inputs": [
        {
          "internalType": "address",
          "name": "to_",
          "type": "address"
        },
        {
          "internalType": "uint256",
          "name": "tokenId_",
          "type": "uint256"
        }
      ],
      "name": "approveFromX",
      "outputs": [],
      "stateMutability": "nonpayable",
      "type": "function"
    },
    {
      "inputs": [
        {
          "internalType": "address",
          "name": "owner_",
          "type": "address"
        }
      ],
      "name": "balanceOf",
      "outputs": [
        {
          "internalType": "uint256",
          "name": "balance",
          "type": "uint256"
        }
      ],
      "stateMutability": "view",
      "type": "function"
    },
    {
      "inputs": [
        {
          "internalType": "uint256",
          "name": "tokenId_",
          "type": "uint256"
        }
      ],
      "name": "balanceOf",
      "outputs": [
        {
          "internalType": "uint256",
          "name": "",
          "type": "uint256"
        }
      ],
      "stateMutability": "view",
      "type": "function"
    },
    {
      "inputs": [
        {
          "internalType": "uint256",
          "name": "tokenId_",
          "type": "uint256"
        }
      ],
      "name": "burn",
      "outputs": [],
      "stateMutability": "nonpayable",
      "type": "function"
    },
    {
      "inputs": [
        {
          "internalType": "uint256",
          "name": "tokenId_",
          "type": "uint256"
        },
        {
          "internalType": "uint256",
          "name": "burnValue_",
          "type": "uint256"
        }
      ],
      "name": "burnValue",
      "outputs": [],
      "stateMutability": "nonpayable",
      "type": "function"
    },
    {
      "inputs": [
        {
          "internalType": "uint256",
          "name": "fromTokenId_",
          "type": "uint256"
        },
        {
          "internalType": "uint256",
          "name": "value_",
          "type": "uint256"
        }
      ],
      "name": "burnValueX",
      "outputs": [
        {
          "internalType": "bool",
          "name": "",
          "type": "bool"
        }
      ],
      "stateMutability": "nonpayable",
      "type": "function"
    },
    {
      "inputs": [
        {
          "internalType": "address",
          "name": "_admin",
          "type": "address"
        }
      ],
      "name": "changeAdmin",
      "outputs": [
        {
          "internalType": "bool",
          "name": "",
          "type": "bool"
        }
      ],
      "stateMutability": "nonpayable",
      "type": "function"
    },
    {
      "inputs": [
        {
          "internalType": "string",
          "name": "_otherChainIdStr",
          "type": "string"
        },
        {
          "internalType": "string",
          "name": "_otherContractStr",
          "type": "string"
        }
      ],
      "name": "checkTokenCompatibility",
      "outputs": [
        {
          "internalType": "bool",
          "name": "",
          "type": "bool"
        }
      ],
      "stateMutability": "view",
      "type": "function"
    },
    {
      "inputs": [
        {
          "internalType": "uint256",
          "name": "tokenId_",
          "type": "uint256"
        }
      ],
      "name": "clearApprovedValues",
      "outputs": [],
      "stateMutability": "nonpayable",
      "type": "function"
    },
    {
      "inputs": [],
      "name": "contractURI",
      "outputs": [
        {
          "internalType": "string",
          "name": "",
          "type": "string"
        }
      ],
      "stateMutability": "view",
      "type": "function"
    },
    {
      "inputs": [],
      "name": "ctmRwa001XChain",
      "outputs": [
        {
          "internalType": "address",
          "name": "",
          "type": "address"
        }
      ],
      "stateMutability": "view",
      "type": "function"
    },
    {
      "inputs": [
        {
          "internalType": "uint256",
          "name": "tokenId_",
          "type": "uint256"
        }
      ],
      "name": "getApproved",
      "outputs": [
        {
          "internalType": "address",
          "name": "",
          "type": "address"
        }
      ],
      "stateMutability": "view",
      "type": "function"
    },
    {
      "inputs": [
        {
          "internalType": "string",
          "name": "_chainIdStr",
          "type": "string"
        }
      ],
      "name": "getTokenContract",
      "outputs": [
        {
          "internalType": "string",
          "name": "",
          "type": "string"
        }
      ],
      "stateMutability": "view",
      "type": "function"
    },
    {
      "inputs": [
        {
          "internalType": "uint256",
          "name": "tokenId_",
          "type": "uint256"
        }
      ],
      "name": "getTokenInfo",
      "outputs": [
        {
          "internalType": "uint256",
          "name": "",
          "type": "uint256"
        },
        {
          "internalType": "uint256",
          "name": "",
          "type": "uint256"
        },
        {
          "internalType": "address",
          "name": "",
          "type": "address"
        },
        {
          "internalType": "uint256",
          "name": "",
          "type": "uint256"
        }
      ],
      "stateMutability": "view",
      "type": "function"
    },
    {
      "inputs": [
        {
          "internalType": "uint256",
          "name": "tokenId_",
          "type": "uint256"
        }
      ],
      "name": "idOf",
      "outputs": [
        {
          "internalType": "uint256",
          "name": "",
          "type": "uint256"
        }
      ],
      "stateMutability": "view",
      "type": "function"
    },
    {
      "inputs": [
        {
          "internalType": "address",
          "name": "owner_",
          "type": "address"
        },
        {
          "internalType": "address",
          "name": "operator_",
          "type": "address"
        }
      ],
      "name": "isApprovedForAll",
      "outputs": [
        {
          "internalType": "bool",
          "name": "",
          "type": "bool"
        }
      ],
      "stateMutability": "view",
      "type": "function"
    },
    {
      "inputs": [
        {
          "internalType": "address",
          "name": "operator_",
          "type": "address"
        },
        {
          "internalType": "uint256",
          "name": "tokenId_",
          "type": "uint256"
        }
      ],
      "name": "isApprovedOrOwner",
      "outputs": [
        {
          "internalType": "bool",
          "name": "",
          "type": "bool"
        }
      ],
      "stateMutability": "view",
      "type": "function"
    },
    {
      "inputs": [],
      "name": "metadataDescriptor",
      "outputs": [
        {
          "internalType": "contract ICTMRWA001MetadataDescriptor",
          "name": "",
          "type": "address"
        }
      ],
      "stateMutability": "view",
      "type": "function"
    },
    {
      "inputs": [
        {
          "internalType": "address",
          "name": "mintTo_",
          "type": "address"
        },
        {
          "internalType": "uint256",
          "name": "tokenId_",
          "type": "uint256"
        },
        {
          "internalType": "uint256",
          "name": "slot_",
          "type": "uint256"
        },
        {
          "internalType": "uint256",
          "name": "value_",
          "type": "uint256"
        }
      ],
      "name": "mint",
      "outputs": [],
      "stateMutability": "nonpayable",
      "type": "function"
    },
    {
      "inputs": [
        {
          "internalType": "address",
          "name": "to_",
          "type": "address"
        },
        {
          "internalType": "uint256",
          "name": "tokenId_",
          "type": "uint256"
        },
        {
          "internalType": "uint256",
          "name": "slot_",
          "type": "uint256"
        },
        {
          "internalType": "uint256",
          "name": "value_",
          "type": "uint256"
        }
      ],
      "name": "mintFromX",
      "outputs": [],
      "stateMutability": "nonpayable",
      "type": "function"
    },
    {
      "inputs": [
        {
          "internalType": "address",
          "name": "to_",
          "type": "address"
        },
        {
          "internalType": "uint256",
          "name": "slot_",
          "type": "uint256"
        },
        {
          "internalType": "uint256",
          "name": "value_",
          "type": "uint256"
        }
      ],
      "name": "mintFromX",
      "outputs": [
        {
          "internalType": "uint256",
          "name": "tokenId",
          "type": "uint256"
        }
      ],
      "stateMutability": "nonpayable",
      "type": "function"
    },
    {
      "inputs": [
        {
          "internalType": "uint256",
          "name": "tokenId_",
          "type": "uint256"
        },
        {
          "internalType": "uint256",
          "name": "value_",
          "type": "uint256"
        }
      ],
      "name": "mintValue",
      "outputs": [],
      "stateMutability": "nonpayable",
      "type": "function"
    },
    {
      "inputs": [
        {
          "internalType": "uint256",
          "name": "toTokenId_",
          "type": "uint256"
        },
        {
          "internalType": "uint256",
          "name": "slot_",
          "type": "uint256"
        },
        {
          "internalType": "uint256",
          "name": "value_",
          "type": "uint256"
        }
      ],
      "name": "mintValueX",
      "outputs": [
        {
          "internalType": "bool",
          "name": "",
          "type": "bool"
        }
      ],
      "stateMutability": "nonpayable",
      "type": "function"
    },
    {
      "inputs": [],
      "name": "name",
      "outputs": [
        {
          "internalType": "string",
          "name": "",
          "type": "string"
        }
      ],
      "stateMutability": "view",
      "type": "function"
    },
    {
      "inputs": [
        {
          "internalType": "uint256",
          "name": "tokenId_",
          "type": "uint256"
        }
      ],
      "name": "ownerOf",
      "outputs": [
        {
          "internalType": "address",
          "name": "owner_",
          "type": "address"
        }
      ],
      "stateMutability": "view",
      "type": "function"
    },
    {
      "inputs": [
        {
          "internalType": "address",
          "name": "from_",
          "type": "address"
        },
        {
          "internalType": "uint256",
          "name": "tokenId_",
          "type": "uint256"
        }
      ],
      "name": "removeTokenFromOwnerEnumeration",
      "outputs": [],
      "stateMutability": "nonpayable",
      "type": "function"
    },
    {
      "inputs": [
        {
          "internalType": "address",
          "name": "from_",
          "type": "address"
        },
        {
          "internalType": "address",
          "name": "to_",
          "type": "address"
        },
        {
          "internalType": "uint256",
          "name": "tokenId_",
          "type": "uint256"
        }
      ],
      "name": "safeTransferFrom",
      "outputs": [],
      "stateMutability": "payable",
      "type": "function"
    },
    {
      "inputs": [
        {
          "internalType": "address",
          "name": "from_",
          "type": "address"
        },
        {
          "internalType": "address",
          "name": "to_",
          "type": "address"
        },
        {
          "internalType": "uint256",
          "name": "tokenId_",
          "type": "uint256"
        },
        {
          "internalType": "bytes",
          "name": "data_",
          "type": "bytes"
        }
      ],
      "name": "safeTransferFrom",
      "outputs": [],
      "stateMutability": "payable",
      "type": "function"
    },
    {
      "inputs": [
        {
          "internalType": "address",
          "name": "operator_",
          "type": "address"
        },
        {
          "internalType": "bool",
          "name": "approved_",
          "type": "bool"
        }
      ],
      "name": "setApprovalForAll",
      "outputs": [],
      "stateMutability": "nonpayable",
      "type": "function"
    },
    {
      "inputs": [
        {
          "internalType": "uint256",
          "name": "tokenId_",
          "type": "uint256"
        }
      ],
      "name": "slotOf",
      "outputs": [
        {
          "internalType": "uint256",
          "name": "",
          "type": "uint256"
        }
      ],
      "stateMutability": "view",
      "type": "function"
    },
    {
      "inputs": [
        {
          "internalType": "uint256",
          "name": "slot_",
          "type": "uint256"
        }
      ],
      "name": "slotURI",
      "outputs": [
        {
          "internalType": "string",
          "name": "",
          "type": "string"
        }
      ],
      "stateMutability": "view",
      "type": "function"
    },
    {
      "inputs": [
        {
          "internalType": "address",
          "name": "operator_",
          "type": "address"
        },
        {
          "internalType": "uint256",
          "name": "tokenId_",
          "type": "uint256"
        },
        {
          "internalType": "uint256",
          "name": "value_",
          "type": "uint256"
        }
      ],
      "name": "spendAllowance",
      "outputs": [],
      "stateMutability": "nonpayable",
      "type": "function"
    },
    {
      "inputs": [
        {
          "internalType": "string",
          "name": "a",
          "type": "string"
        },
        {
          "internalType": "string",
          "name": "b",
          "type": "string"
        }
      ],
      "name": "stringsEqual",
      "outputs": [
        {
          "internalType": "bool",
          "name": "",
          "type": "bool"
        }
      ],
      "stateMutability": "pure",
      "type": "function"
    },
    {
      "inputs": [
        {
          "internalType": "bytes4",
          "name": "interfaceId",
          "type": "bytes4"
        }
      ],
      "name": "supportsInterface",
      "outputs": [
        {
          "internalType": "bool",
          "name": "",
          "type": "bool"
        }
      ],
      "stateMutability": "view",
      "type": "function"
    },
    {
      "inputs": [],
      "name": "symbol",
      "outputs": [
        {
          "internalType": "string",
          "name": "",
          "type": "string"
        }
      ],
      "stateMutability": "view",
      "type": "function"
    },
    {
      "inputs": [
        {
          "internalType": "uint256",
          "name": "index_",
          "type": "uint256"
        }
      ],
      "name": "tokenByIndex",
      "outputs": [
        {
          "internalType": "uint256",
          "name": "",
          "type": "uint256"
        }
      ],
      "stateMutability": "view",
      "type": "function"
    },
    {
      "inputs": [
        {
          "internalType": "uint256",
          "name": "",
          "type": "uint256"
        }
      ],
      "name": "tokenContract",
      "outputs": [
        {
          "internalType": "string",
          "name": "chainIdStr",
          "type": "string"
        },
        {
          "internalType": "string",
          "name": "contractStr",
          "type": "string"
        }
      ],
      "stateMutability": "view",
      "type": "function"
    },
    {
      "inputs": [
        {
          "internalType": "address",
          "name": "owner_",
          "type": "address"
        },
        {
          "internalType": "uint256",
          "name": "index_",
          "type": "uint256"
        }
      ],
      "name": "tokenOfOwnerByIndex",
      "outputs": [
        {
          "internalType": "uint256",
          "name": "",
          "type": "uint256"
        }
      ],
      "stateMutability": "view",
      "type": "function"
    },
    {
      "inputs": [
        {
          "internalType": "uint256",
          "name": "tokenId_",
          "type": "uint256"
        }
      ],
      "name": "tokenURI",
      "outputs": [
        {
          "internalType": "string",
          "name": "",
          "type": "string"
        }
      ],
      "stateMutability": "view",
      "type": "function"
    },
    {
      "inputs": [],
      "name": "totalSupply",
      "outputs": [
        {
          "internalType": "uint256",
          "name": "",
          "type": "uint256"
        }
      ],
      "stateMutability": "view",
      "type": "function"
    },
    {
      "inputs": [
        {
          "internalType": "uint256",
          "name": "fromTokenId_",
          "type": "uint256"
        },
        {
          "internalType": "address",
          "name": "to_",
          "type": "address"
        },
        {
          "internalType": "uint256",
          "name": "value_",
          "type": "uint256"
        }
      ],
      "name": "transferFrom",
      "outputs": [
        {
          "internalType": "uint256",
          "name": "newTokenId",
          "type": "uint256"
        }
      ],
      "stateMutability": "payable",
      "type": "function"
    },
    {
      "inputs": [
        {
          "internalType": "address",
          "name": "from_",
          "type": "address"
        },
        {
          "internalType": "address",
          "name": "to_",
          "type": "address"
        },
        {
          "internalType": "uint256",
          "name": "tokenId_",
          "type": "uint256"
        }
      ],
      "name": "transferFrom",
      "outputs": [],
      "stateMutability": "payable",
      "type": "function"
    },
    {
      "inputs": [
        {
          "internalType": "uint256",
          "name": "fromTokenId_",
          "type": "uint256"
        },
        {
          "internalType": "uint256",
          "name": "toTokenId_",
          "type": "uint256"
        },
        {
          "internalType": "uint256",
          "name": "value_",
          "type": "uint256"
        }
      ],
      "name": "transferFrom",
      "outputs": [],
      "stateMutability": "payable",
      "type": "function"
    },
    {
      "inputs": [],
      "name": "valueDecimals",
      "outputs": [
        {
          "internalType": "uint8",
          "name": "",
          "type": "uint8"
        }
      ],
      "stateMutability": "view",
      "type": "function"
    }
  ],
  "bytecode": "0x60806040818152346200070457620047dc803803809162000021828662000709565b8439820190608083830312620007045782516001600160401b03908181116200070457836200005291860162000784565b92602090818601519083821162000704576200007091870162000784565b94838101519260ff918285168095036200070457606001516001600160a01b0381169290839003620007045760018060a01b031993600093338686541617855560019586600655895197858911620006f05760039880620000d28b54620007d1565b601f9d818f80931162000691575b50879183116001146200062e578a9262000622575b5050600019828c1b1c191690891b1789555b8b518681116200060e5760049b620001208d54620007d1565b818111620005ca575b508c9d8c9d8a9d9c9d50879284116001146200053d57509b8291620002329d8b9362000531575b5050828b1b92600019911b1c1916178c555b60ff196005541617600555865416178555468086867a184f03e93ff9f4daa797ed6e38ed64bf6a1f0100000000000000008084101562000520575b50846d04ee2d6d415b85acef81000000008086101562000513575b5050662386f26fc100008085101562000505575b506305f5e10080851015620004f7575b508c61271080861015620004ea575b50506064841015620004db575b60219082600a80961015620004d3575b810162000223620002198262000743565b9c519c8d62000709565b808c52601f199c8d9162000743565b0136878d01378a0101905b620004a2575b505050308851936060850190858210908211176200048f578952602a8452818401893682378451156200047c5760309053835186101562000469576078602185015360295b868111620003fd5750620003bc57825196620002c0620002a88962000743565b98620002b78b519a8b62000709565b808a5262000743565b01368289013783855b620002eb575b88620002dc89896200087c565b5051613b4e908162000c8e8239f35b8351811015620003b6576200030181856200080e565b51604160f891821c1015806200039c575b156200037157826200032583876200080e565b51821c018481116200035e576200035792911b6001600160f81b031916861a62000350828b6200080e565b5362000836565b85620002c9565b634e487b7160e01b875260118c52602487fd5b5062000357906001600160f81b03196200038c82876200080e565b5116861a62000350828b6200080e565b50605a620003ab83876200080e565b51821c111562000312565b620002cf565b88816064928a519262461bcd60e51b845283015260248201527f537472696e67733a20686578206c656e67746820696e73756666696369656e746044820152fd5b90600f8116601081101562000456576f181899199a1a9b1b9c1cb0b131b232b360811b901a6200042e83876200080e565b538a1c90801562000443576000190162000288565b634e487b7160e01b865260118b52602486fd5b634e487b7160e01b875260328c52602487fd5b634e487b7160e01b855260328a52602485fd5b634e487b7160e01b865260328b52602486fd5b634e487b7160e01b865260418b52602486fd5b600019019082906f181899199a1a9b1b9c1cb0b131b232b360811b8282061a8353049087826200023d575062000243565b018262000208565b606490930492600201620001f8565b90940493018c38620001eb565b6008919404930138620001dc565b6010919404930138620001cc565b90940493018438620001b8565b92935050508104908688386200019d565b01519150388062000150565b8a52868a20929c9190601f198e168b5b818110620005935750918e9391620002329f8e96941062000578575b50505050811b018c5562000162565b01519060f884600019921b161c191690553880808062000569565b93948d9f97999b9d8497999b9d9f508c92939491839286015181550196019301908f9d9b999795949392919e9c9a98969e6200054d565b8d8a52868a208280850160051c82019289861062000604575b0160051c01905b818110620005f9575062000129565b8a81558b01620005ea565b92508192620005e3565b634e487b7160e01b88526041600452602488fd5b015190503880620000f5565b8c8b52878b208c94509190601f1984168c5b8a8282106200067a575050841162000661575b505050811b01895562000107565b0151600019838e1b60f8161c1916905538808062000653565b8385015186558f9790950194938401930162000640565b915091508b8a528d878b209080850160051c820192898610620006e6575b859492828f929593950160051c01915b828110620006cf575050620000e0565b8d91939550809294505501918e918c8594620006bf565b92508192620006af565b634e487b7160e01b87526041600452602487fd5b600080fd5b601f909101601f19168101906001600160401b038211908210176200072d57604052565b634e487b7160e01b600052604160045260246000fd5b6001600160401b0381116200072d57601f01601f191660200190565b60005b838110620007735750506000910152565b818101518382015260200162000762565b81601f82011215620007045780516200079d8162000743565b92620007ad604051948562000709565b818452602082840101116200070457620007ce91602080850191016200075f565b90565b90600182811c9216801562000803575b6020831014620007ed57565b634e487b7160e01b600052602260045260246000fd5b91607f1691620007e1565b90815181101562000820570160200190565b634e487b7160e01b600052603260045260246000fd5b6000198114620008465760010190565b634e487b7160e01b600052601160045260246000fd5b6002548110156200082057600260005260206000209060011b0190600090565b60025490929160005b82811062000b31575060408051946001600160401b03918601828111878210176200072d576040528552602094858101928352680100000000000000008410156200072d57620008dd6001948581016002556200085c565b91909162000b1b5751908151908382116200072d578591620009008254620007d1565b93601f9485811162000ac6575b50899085831160011462000a5b57600091908362000a4f575b5050600019600383901b1c191690831b1781555b0192519586519283116200072d57620009548454620007d1565b82811162000a04575b50809183116001146200099b575081929394956000926200098f575b5050600019600383901b1c191690831b17905590565b01519050388062000979565b90601f198316968460005282600020926000905b898210620009ec5750508386979896959610620009d2575b505050811b01905590565b015160001960f88460031b161c19169055388080620009c7565b808885968294968601518155019501930190620009af565b84600052816000208380860160051c82019284871062000a45575b0160051c019086905b82811062000a385750506200095d565b6000815501869062000a28565b9250819262000a1f565b01519050388062000926565b90601f19831691846000528b6000209260005b8d82821062000aaf575050908487959493921062000a95575b505050811b0181556200093a565b015160001960f88460031b161c1916905538808062000a87565b8385015186558c9890950194938401930162000a6e565b909192809450600052896000208580850160051c8201928c861062000b11575b908a9695949392910160051c01905b81811062000b0457506200090d565b6000815589950162000af5565b9250819262000ae6565b634e487b7160e01b600052600060045260246000fd5b62000b3c816200085c565b50604090815190816000825462000b5381620007d1565b8084529360019180831690811562000c3a575060011462000bf5575b505062000b7f9250038262000709565b81519062000bd26020918362000b99848201928362000c5f565b039362000baf601f199586810183528262000709565b5190209351918201928262000bc58b8662000c5f565b0390810183528262000709565b5190201462000bec5762000be69062000836565b62000885565b50600093505050565b90915060005260209283600020916000925b82841062000c23575050509162000b7f92820101388062000b6f565b805487850187015286945092850192810162000c07565b935050505062000b7f9260209160ff191682840152151560051b820101388062000b6f565b6040916020825262000c8181518092816020860152602086860191016200075f565b601f01601f191601019056fe608060408181526004918236101561001657600080fd5b600092833560e01c91826301ffc9a714611ad15750816306fdde03146119fe57816307521754146119cc578163081812fc146119ac578163095ea7b3146118ca57816309c3dd871461183c5781630f485c02146115b457816313d199501461159857816315c77d84146114c357816318160ddd146114a457816323b872dd1461147f578163263f3e7e1461145f5781632f745c59146113b5578163310ed7f014611339578163381c4fce146112e95781633e7e8669146112c7578163404b6e9f1461128d57816342842e0e1461126a57816342966c6814611043578163430c208114611005578163449d077214610f4d57816349178b2514610edd5781634f6ccce714610e5e578163582939e514610e2e5781636352211e14610dfd57816370a0823114610dd7578163840f711314610dae57816387fe861114610cdf5781638c7a63ae14610c405781638cb0a51114610b965781638f28397014610ae257816395d89b4114610a0d578163968e8a13146109d35781639c0e9a5d146109b75781639cc7f70814610997578163a22cb465146108c8578163a30fb02014610863578163a647e8ec14610848578163a6a2d1dd146107c9578163b3875b95146107a0578163b88d4fde14610741578163bff2ed71146106f6578163c87b56dd146105cb578163dee9f53f14610588578163e345e0bc14610559578163e8a3d485146102ec57508063e985e9c51461029c578063f0e88e7f1461026a5763f851a4401461024057600080fd5b34610266578160031936011261026657905490516001600160a01b039091168152602090f35b5080fd5b82346102995761029661027c36611dd3565b9061028681612741565b506102908161277d565b50612cde565b80f35b80fd5b503461026657806003193601126102665760ff816020936102bb611bcc565b6102c3611be7565b6001600160a01b039182168352600a875283832091168252600201855220549151911615158152f35b905034610555578260031936011261055557815161030981611c6b565b838152600b546001600160a01b031690811561038f57508390835192838092631c97e82760e21b82525afa908115610383578361035c9492610360575b5050905b51918291602083526020830190611ba7565b0390f35b61037c92503d8091833e6103748183611c86565b8101906127a1565b3880610346565b505051903d90823e3d90fd5b9293919050811561053a5783513091606082016001600160401b03811183821017610525578652602a8252602092838301948736873783511561051257603086538351906001918210156104ff5790607860218601536029915b818311610494575050506104535750849368636f6e74726163742f60b81b9361044d9361043e60299461035c9951978561042c8a9751809287808b019101611b84565b86019384015251809386840190611b84565b01036009810184520182611c86565b9061034a565b606490838088519262461bcd60e51b845283015260248201527f537472696e67733a20686578206c656e67746820696e73756666696369656e746044820152fd5b909192600f811660108110156104ec576f181899199a1a9b1b9c1cb0b131b232b360811b901a6104c4858861280c565b53841c9280156104d9576000190191906103e9565b634e487b7160e01b825260118552602482fd5b634e487b7160e01b835260328652602483fd5b634e487b7160e01b815260328452602490fd5b634e487b7160e01b815260328352602490fd5b604182634e487b7160e01b6000525260246000fd5b5050508061035c915161054c81611c6b565b6000815261044d565b8280fd5b8284346102995781600319360112610299575061058160209261057a611be7565b9035612875565b9051908152f35b90503461055557602036600319011261055557816020936105c292356105b56105b082612ad5565b6126f5565b8152600985522054612690565b50549051908152f35b90503461055557602090816003193601126106f25780356105ee6105b082612ad5565b8351916105fa83611c6b565b858352600b546001600160a01b031692831561067b57509060248692865194859384926344a5a61760e11b84528301525afa90811561066e578461035c93949592610653575b5050925b51928284938452830190611ba7565b61066792503d8091833e6103748183611c86565b3880610640565b50505051903d90823e3d90fd5b92505084839495506000146106d85761035c9261069a6106d29261219e565b92865193816106b28693518092868087019101611b84565b82016106c682518093868085019101611b84565b01038084520182611c86565b92610644565b50505061035c82516106e981611c6b565b600081526106d2565b8380fd5b82843461029957602061073b8361070c36611da9565b9061072560018060a09795971b03600154163314611fca565b60065480956107338261202f565b600655612b03565b51908152f35b8390608036600319011261026657610757611bcc565b61075f611be7565b906064356001600160401b03811161079c573660238201121561079c576102969381602461079293369301359101611cc2565b916044359161298a565b8480fd5b50503461026657816003193601126102665760015490516001600160a01b039091168152602090f35b828434610299576060366003190112610299576107e4611bcc565b926001600160401b036024358181116106f2576108049036908401611f47565b926044359182116102995750916108246020959261083f94369101611f47565b9161083a60018060a01b03600154163314611fca565b612068565b90519015158152f35b83346102995761029661085a36611de9565b92919091612b03565b83915034610266576020366003190112610266573590600254821015610299575061088d90611e17565b509061035c6108a760016108a085611ea1565b9401611ea1565b6108ba8351948486958652850190611ba7565b908382036020850152611ba7565b919050346105555780600319360112610555576108e3611bcc565b906024359182151580930361079c576001600160a01b0316923384146109555750338452600a60205260028185200183855260205280842060ff1981541660ff8416179055519081527f17307eab39ab6107e8899845ad3d59bd9653f200f220920489ca2b5937696c3160203392a380f35b6020606492519162461bcd60e51b8352820152601c60248201527f43544d5257413030313a20617070726f766520746f2063616c6c6572000000006044820152fd5b8284346102995760203660031901126102995750610581602092356126cb565b5050346102665760209061083f6109cd36611d17565b9061261d565b50503461026657366003190112610299576102966109ef611bcc565b610a0460018060a01b03600154163314611fca565b60243590612fba565b9190503461055557826003193601126105555780519183815490610a3082611e67565b80865292600192808416908115610ab75750600114610a5b575b61035c868661034a828b0383611c86565b815294507f8a35acfbc15ff81a39ae7d344fd709f28e8600b4aa8c65c6b64bfe7fe36bd19b5b828610610a9f5750505061034a82602061035c958201019438610a4a565b80546020878701810191909152909501948101610a81565b905061035c97508693506020925061034a94915060ff191682840152151560051b8201019438610a4a565b82843461029957602036600319011261029957610afd611bcc565b8154906001600160a01b03908183163303610b425760209550610b2582600154163314611fca565b16906bffffffffffffffffffffffff60a01b161790555160018152f35b845162461bcd60e51b8152602081880152602860248201527f43544d5257413030313a205468697320697320616e206f6e6c7941646d696e20604482015267333ab731ba34b7b760c11b6064820152608490fd5b839150610ba236611bfd565b92909190610bc66001600160a01b0380610bbb85612741565b16908516141561281d565b610bd08233612a57565b15610be15750610296939450613024565b608490602087519162461bcd60e51b8352820152603360248201527f43544d5257413030313a20617070726f76652063616c6c6572206973206e6f74604482015272081bdddb995c881b9bdc88185c1c1c9bdd9959606a1b6064820152fd5b8383346102665760209081600319360112610555576080933590610c666105b083612ad5565b81845260098352610c7981852054612690565b505493828152600984526001610cc9836002610c9782862054612690565b5001549386815260098852610cae82822054612690565b506003858060a01b0391015416968152600988522054612690565b5001549382519586528501528301526060820152f35b8391503461026657610cf036611dd3565b9091610d04610cff8433612a57565b613a72565b610d106105b084612ad5565b82845260096020526002610d2686862054612690565b500190815490838210610d5d5750918495602092610d5383600080516020613ad983398151915296612ac8565b905551908152a380f35b608490602088519162461bcd60e51b8352820152602560248201527f43544d5257413030313a206275726e2076616c756520657863656564732062616044820152646c616e636560d81b6064820152fd5b505034610266578160031936011261026657600b5490516001600160a01b039091168152602090f35b50503461026657602036600319011261026657602090610581610df8611bcc565b6128a6565b8284346102995760203660031901126102995750610e1d60209235612741565b90516001600160a01b039091168152f35b833461029957610296610e4036611de9565b92610e5960018060a09594951b03600154163314611fca565b612b03565b905082346102995760203660031901126102995750803590600854821015610e8c576020836105c284612690565b608490602084519162461bcd60e51b8352820152602560248201527f43544d5257413030313a20676c6f62616c20696e646578206f7574206f6620626044820152646f756e647360d81b6064820152fd5b50503461026657602091610f446002610f2e84610ef936611dd3565b9590610f1060018060a01b03600154163314611fca565b610f21610f1c82612ad5565b61326b565b8152600988522054612690565b5001918254610f3f82821015613325565b612ac8565b90555160018152f35b8391503461026657610f5e36611da9565b9092610f6a8385612875565b90610f758585612a57565b1580610ff9575b610f84578580f35b828210610fac5750610fa294955090610f9c91612ac8565b91613024565b8082808080808580f35b608490602088519162461bcd60e51b8352820152602160248201527f43544d5257413030313a20696e73756666696369656e7420616c6c6f77616e636044820152606560f81b6064820152fd5b50600019821415610f7c565b50503461026657806003193601126102665760209061083f611025611bcc565b61103a60018060a01b03600154163314611fca565b60243590612a57565b83915034610266576020908160031936011261055557803591611069610cff8433612a57565b6110756105b084612ad5565b8284526009815261108885852054612690565b509060018060a01b0380600384015416936001600281860154950154926110ae88613162565b6110b88888612dd0565b6008546000199182820191821161125757868b8d928c8252600983526110e18483205495612690565b509360058151956110f187611c50565b805487528981015486880152600281015483880152836003820154166060880152838b8201541660808801520190518094859381845493848152019386528a82872096925b84841061123a57505050505061114e92500382611c86565b60a08201526111668161116084612690565b90612ed7565b518a52600986528a8a2055878952888a812055600854801561122757019161118d83612690565b9290926112155793899a899a99946111d36005868d809c9b9781809c81600080516020613ad98339815191529c5584015581600284015581600384015582015501612eb3565b60085551908152a3847fe4f48c240d3b994948aa54f3e2f5fca59263dfe1d52b6e4cf39a5d249b5ccb658380a4600080516020613af98339815191528280a480f35b634e487b7160e01b8a5289825260248afd5b634e487b7160e01b8a526031845260248afd5b875483168652968101968896509094019391909101908a8e611136565b634e487b7160e01b8b526011855260248bfd5b836102968461127836611d74565b9192519261128584611c6b565b85845261298a565b50503461026657366003190112610299576102966112a9611bcc565b6112be60018060a01b03600154163314611fca565b60243590612dd0565b50503461026657816003193601126102665760209060ff600554169051908152f35b828434610299576020366003190112610299578235906001600160401b038211610299575061132161035c9361132692369101611cf9565b6125af565b9051918291602083526020830190611ba7565b838361134436611d5a565b92909194303b1561079c57815163224e83b960e11b81523391810191825260208201879052604082018590529190859083908190606001038183305af19081156113ac5750611399575b506102969293613386565b926113a661029694611c27565b9261138e565b513d86823e3d90fd5b905082346102995782600319360112610299576113d0611bcc565b602435926113dd826128a6565b841015611410576020856114028682878760018060a01b03168152600a865220612a3f565b91905490519160031b1c8152f35b608490602086519162461bcd60e51b83528201526024808201527f43544d5257413030313a206f776e657220696e646578206f7574206f6620626f604482015263756e647360e01b6064820152fd5b82843461029957602036600319011261029957506105816020923561277d565b8361029661148c36611d74565b9161149f61149a8433612a57565b612921565b613508565b5050346102665781600319360112610266576020906008549051908152f35b9050346105555781906115116114d836611d5a565b94916114f260018060a09a949a1b03600154163314611fca565b6115036114fe82612ad5565b6132c9565b815260096020522054612690565b509360018501540361152f5750610f446002602094019182546127ff565b608490602084519162461bcd60e51b8352820152603a60248201527f43544d5257413030313a2044657374696e6174696f6e20736c6f74206973206e60448201527f6f74207468652073616d6520617320736f7572636520736c6f740000000000006064820152fd5b5050346102665760209061083f6115ae36611d17565b9061392a565b83836115bf36611bfd565b919093303b1561029957835163224e83b960e11b8152338782019081526020810184905260408101859052829082908190606001038183305af1801561183257611823575b50600654946116128661202f565b60065561161e8361277d565b906001600160a01b0381169081156117d45787156117855761163f88612ad5565b61174257865161164e81611c6b565b84815287519061165d82611c50565b898252846020830152858983015283606083015285608083015260a082015260085489865260096020528089872055600160401b81101561172f5760209a50899592936116c68780966116c161073b9c9b9996611160876001869901600855612690565b612d21565b83600080516020613af98339815191528180a481837fe4f48c240d3b994948aa54f3e2f5fca59263dfe1d52b6e4cf39a5d249b5ccb658280a48181526009895261171287822054612690565b5050600080516020613ad9833981519152898851838152a3613386565b634e487b7160e01b865260418b52602486fd5b865162461bcd60e51b81526020818b0152601f60248201527f43544d5257413030313a20746f6b656e20616c7265616479206d696e746564006044820152606490fd5b865162461bcd60e51b81526020818b0152602360248201527f43544d5257413030313a2063616e6e6f74206d696e74207a65726f20746f6b656044820152621b925960ea1b6064820152608490fd5b865162461bcd60e51b81526020818b0152602360248201527f43544d5257413030313a206d696e7420746f20746865207a65726f206164647260448201526265737360e81b6064820152608490fd5b61182c90611c27565b86611604565b85513d84823e3d90fd5b9050346105555760203660031901126105555782825161185b81611c6b565b52600b546001600160a01b03169081156118b15783906024845180948193633601bfc560e11b83528035908301525afa908115610383578361035c94926103605750509051918291602083526020830190611ba7565b5050805161035c926118c282611c6b565b81529061034a565b83915082600319360112610266576118e0611bcc565b602435916001600160a01b03611905816118f986612741565b1680928516141561281d565b80331490811561198a575b501561192157509061029691612fba565b608490602086519162461bcd60e51b8352820152603b60248201527f43544d5257413030313a20617070726f76652063616c6c6572206973206e6f7460448201527f206f776e6572206e6f7220617070726f76656420666f7220616c6c00000000006064820152fd5b90508452600a60205260028585200133855260205260ff858520541686611910565b8284346102995760203660031901126102995750610e1d60209235612a0c565b83903461026657602036600319011261026657610296906119f860018060a01b03600154163314611fca565b35613162565b50503461026657816003193601126102665780519082600354611a2081611e67565b80855291600191808316908115611aa95750600114611a4c575b50505061034a8261035c940383611c86565b9450600385527fc2575a0e9e593c00f959f8c92f12db2869c3395a3b0502d05e2516446f71f85b5b828610611a915750505061034a82602061035c9582010194611a3a565b80546020878701810191909152909501948101611a74565b61035c97508693506020925061034a94915060ff191682840152151560051b82010194611a3a565b849134610555576020366003190112610555573563ffffffff60e01b811680910361055557602092506301ffc9a760e01b8114908115611b73575b8115611b62575b8115611b51575b8115611b40575b8115611b2f575b5015158152f35b635b5e139f60e01b14905083611b28565b63780e9d6360e01b81149150611b21565b6370b0048160e11b81149150611b1a565b6380ac58cd60e01b81149150611b13565b630354d60560e61b81149150611b0c565b60005b838110611b975750506000910152565b8181015183820152602001611b87565b90602091611bc081518092818552858086019101611b84565b601f01601f1916010190565b600435906001600160a01b0382168203611be257565b600080fd5b602435906001600160a01b0382168203611be257565b6060906003190112611be257600435906024356001600160a01b0381168103611be2579060443590565b6001600160401b038111611c3a57604052565b634e487b7160e01b600052604160045260246000fd5b60c081019081106001600160401b03821117611c3a57604052565b602081019081106001600160401b03821117611c3a57604052565b90601f801991011681019081106001600160401b03821117611c3a57604052565b6001600160401b038111611c3a57601f01601f191660200190565b929192611cce82611ca7565b91611cdc6040519384611c86565b829481845281830111611be2578281602093846000960137010152565b9080601f83011215611be257816020611d1493359101611cc2565b90565b906040600319830112611be2576001600160401b03600435818111611be25783611d4391600401611cf9565b92602435918211611be257611d1491600401611cf9565b6060906003190112611be257600435906024359060443590565b6060906003190112611be2576001600160a01b03906004358281168103611be257916024359081168103611be2579060443590565b6060906003190112611be2576004356001600160a01b0381168103611be257906024359060443590565b6040906003190112611be2576004359060243590565b6080906003190112611be2576004356001600160a01b0381168103611be25790602435906044359060643590565b600254811015611e5157600260005260011b7f405787fa12a823e0f2b7631cc41b3ba8828b3321ca811111fa75cd3aa3bb5ace0190600090565b634e487b7160e01b600052603260045260246000fd5b90600182811c92168015611e97575b6020831014611e8157565b634e487b7160e01b600052602260045260246000fd5b91607f1691611e76565b9060405191826000825492611eb584611e67565b908184526001948581169081600014611f245750600114611ee1575b5050611edf92500383611c86565b565b9093915060005260209081600020936000915b818310611f0c575050611edf93508201013880611ed1565b85548884018501529485019487945091830191611ef4565b915050611edf94506020925060ff191682840152151560051b8201013880611ed1565b9080601f83011215611be2578135906001600160401b0392838311611c3a578260051b60405194602094611f7d86840188611c86565b8652848087019284010193808511611be257858401925b858410611fa5575050505050505090565b8335838111611be2578791611fbf848480948a0101611cf9565b815201930192611f94565b15611fd157565b60405162461bcd60e51b815260206004820152603060248201527f43544d5257413030313a20546869732063616e206f6e6c792062652063616c6c60448201526f0cac840c4f24086a89aa4ae82606062b60831b6064820152608490fd5b600019811461203e5760010190565b634e487b7160e01b600052601160045260246000fd5b8051821015611e515760209160051b010190565b600080549293909290916001600160a01b039182169116036121595782518151036120f657815b83518110156120ed576120af6120a58286612054565b516115ae4661219e565b156120c3575b6120be9061202f565b61208f565b6120e26120d08286612054565b516120db8385612054565b519061231d565b6120b5575050905090565b50505050600190565b60405162461bcd60e51b815260206004820152603560248201527f43544d5257413030313a204c656e677468206d69736d6174636820636861696e60448201527449647320616e6420636f6e7472616374416464727360581b6064820152608490fd5b60405162461bcd60e51b815260206004820152601e60248201527f43544d525741303031583a2041646d696e4f6e6c792066756e6374696f6e00006044820152606490fd5b806000917a184f03e93ff9f4daa797ed6e38ed64bf6a1f010000000000000000808210156122f8575b506d04ee2d6d415b85acef8100000000808310156122e9575b50662386f26fc10000808310156122da575b506305f5e100808310156122cb575b50612710808310156122bc575b5060648210156122ac575b600a809210156122a2575b6001908160218186019561223787611ca7565b966122456040519889611c86565b808852612254601f1991611ca7565b01366020890137860101905b61226c575b5050505090565b600019019083906f181899199a1a9b1b9c1cb0b131b232b360811b8282061a83530491821561229d57919082612260565b612265565b9160010191612224565b9190606460029104910191612219565b6004919392049101913861220e565b60089193920491019138612201565b601091939204910191386121f2565b602091939204910191386121e0565b6040935081049150386121c7565b818110612311575050565b60008155600101612306565b60025490929160005b828110612579575060408051946001600160401b0391860182811187821017611c3a576040528552602094858101928352600160401b841015611c3a57612374600194858101600255611e17565b919091612563575190815190838211611c3a5785916123938254611e67565b93601f948a868211612534575b505089908583116001146124ce5760009190836124c3575b5050600019600383901b1c191690831b1781555b019251958651928311611c3a576123e38454611e67565b82811161248b575b50809183116001146124265750819293949560009261241b575b5050600019600383901b1c191690831b17905590565b015190503880612405565b90601f198316968460005282600020926000905b898210612474575050838697989695961061245b575b505050811b01905590565b015160001960f88460031b161c19169055388080612450565b80888596829496860151815501950193019061243a565b6124b49085600052826000208480870160051c8201928588106124ba575b0160051c0190612306565b386123eb565b925081926124a9565b0151905038806123b8565b90601f19831691846000528b6000209260005b8d82821061251e5750509084879594939210612505575b505050811b0181556123cc565b015160001960f88460031b161c191690553880806124f8565b8385015186558c989095019493840193016124e1565b61255c918560005287826000209181870160051c83019387106124ba570160051c0190612306565b388a6123a0565b634e487b7160e01b600052600060045260246000fd5b6125948561258f61258984611e17565b50611ea1565b61392a565b6125a6576125a19061202f565b612326565b50600093505050565b6002549060005b8281106125d3575050506040516125cc81611c6b565b6000815290565b6125f26125df82611e17565b5061258f6125ec8561398f565b91611ea1565b612604576125ff9061202f565b6125b6565b611d1492506001915061261690611e17565b5001611ea1565b61262961262f9161398f565b9161398f565b6002549160005b8381106126465750505050600090565b61265b61265561258983611e17565b8361392a565b80612673575b6120ed5761266e9061202f565b612636565b5061268b612685600161261684611e17565b8461392a565b612661565b600854811015611e51576006906008600052027ff3f7a9fe364faab93b216da50a3214154f22a0a2b415b23a84c8169e8b636ee30190600090565b6126d76105b082612ad5565b600052600960205260026126ef604060002054612690565b50015490565b156126fc57565b60405162461bcd60e51b815260206004820152601b60248201527f43544d5257413030313a20696e76616c696420746f6b656e20494400000000006044820152606490fd5b61274d6105b082612ad5565b6000526009602052612763604060002054612690565b50600301546001600160a01b031690611edf8215156126f5565b6127896105b082612ad5565b600052600960205260016126ef604060002054612690565b602081830312611be2578051906001600160401b038211611be2570181601f82011215611be25780516127d381611ca7565b926127e16040519485611c86565b81845260208284010111611be257611d149160208085019101611b84565b9190820180921161203e57565b908151811015611e51570160200190565b1561282457565b60405162461bcd60e51b8152602060048201526024808201527f43544d5257413030313a20617070726f76616c20746f2063757272656e74206f6044820152633bb732b960e11b6064820152608490fd5b6128816105b082612ad5565b600052600760205260406000209060018060a01b031660005260205260406000205490565b6001600160a01b031680156128c657600052600a60205260406000205490565b60405162461bcd60e51b815260206004820152602d60248201527f43544d5257413030313a2062616c616e636520717565727920666f722074686560448201526c207a65726f206164647265737360981b6064820152608490fd5b1561292857565b60405162461bcd60e51b815260206004820152603460248201527f43544d5257413030313a207472616e736665722063616c6c6572206973206e6f6044820152731d081bdddb995c881b9bdc88185c1c1c9bdd995960621b6064820152608490fd5b906129ae93929161299e61149a8433612a57565b6129a9838383613508565b61381c565b156129b557565b60405162461bcd60e51b815260206004820152602960248201527f43544d5257413030313a207472616e7366657220746f206e6f6e20455243373260448201526818a932b1b2b4bb32b960b91b6064820152608490fd5b612a186105b082612ad5565b6000526009602052612a2e604060002054612690565b50600401546001600160a01b031690565b8054821015611e515760005260206000200190600090565b906001600160a01b038080612a6b84612741565b16931691838314938415612a9e575b508315612a88575b50505090565b612a9491929350612a0c565b1614388080612a82565b909350600052600a60205260026040600020018260005260205260ff604060002054169238612a7a565b9190820391821161203e57565b60085415159081612ae4575090565b8091506000526009602052612afd604060002054612690565b50541490565b9392916001600160a01b0385168015612c8d578215612c3c57612b2583612ad5565b612bf75760405195612b3687611c6b565b60009687815260405190612b4982611c50565b85825284602083015288604083015283606083015288608083015260a082015260085485895260096020528060408a2055600160401b811015612be3578580936116c1611edf9a9b9694611160856001612ba69701600855612690565b82600080516020613af98339815191528180a4827fe4f48c240d3b994948aa54f3e2f5fca59263dfe1d52b6e4cf39a5d249b5ccb658280a4612cde565b634e487b7160e01b89526041600452602489fd5b60405162461bcd60e51b815260206004820152601f60248201527f43544d5257413030313a20746f6b656e20616c7265616479206d696e746564006044820152606490fd5b60405162461bcd60e51b815260206004820152602360248201527f43544d5257413030313a2063616e6e6f74206d696e74207a65726f20746f6b656044820152621b925960ea1b6064820152608490fd5b60405162461bcd60e51b815260206004820152602360248201527f43544d5257413030313a206d696e7420746f20746865207a65726f206164647260448201526265737360e81b6064820152608490fd5b90600080516020613ad98339815191526020600092848452600982526002612d096040862054612690565b5001612d168282546127ff565b9055604051908152a3565b60009082825260096020526003612d3b6040842054612690565b500180546001600160a01b0319166001600160a01b039092169182179055808252600a602081815260408085208054878752600191909101835281862055928452528120805491600160401b831015612dbc575081612da3916001611edf9594018155612a3f565b90919082549060031b91821b91600019901b1916179055565b634e487b7160e01b81526041600452602490fd5b60009082825260096020526003612dea6040842054612690565b500180546001600160a01b03191690556001600160a01b03168152600a6020526040812080546000199391929190848101908111612e9f57612e2c9084612a3f565b90549060031b1c6001840182845280602052604084205491612e5281612da38589612a3f565b8452602052604083205581528060408120558154908115612e8b5750820191612e7b8383612a3f565b909182549160031b1b1916905555565b634e487b7160e01b81526031600452602490fd5b634e487b7160e01b83526011600452602483fd5b80546000825580612ec2575050565b611edf91600052602060002090810190612306565b919061256357805182556020908181015192600193848201556040820151600282015560a060056003830192600180841b039384606087015116906bffffffffffffffffffffffff851b91828254161790556004820190856080880151169082541617905501920151928351936001600160401b038511611c3a57600160401b8511611c3a5781908454868655808710612f9d575b500192600052806000209160005b858110612f8a5750505050505050565b8451821684820155938201938601612f7a565b612fb4908660005287846000209182019101612306565b38612f6c565b8160005260096020526004612fd3604060002054612690565b500180546001600160a01b0319166001600160a01b0392831690811790915590612ffc83612741565b167f8c5be1e5ebec7d5bd14f71427d1e84f3dd0314c0f7b2291e5b200ac8c7c3b925600080a4565b6001600160a01b0380831693919284156131085783613042916131da565b15613090575b5060207f621b050de0ad08b51d19b48b3e6df75348c4de6bdd93e81b252ca62e28265b1b918360005260078252604060002085600052825280604060002055604051908152a3565b82600052600960205260056130a9604060002054612690565b500191825491600160401b831015611c3a576130ee837f621b050de0ad08b51d19b48b3e6df75348c4de6bdd93e81b252ca62e28265b1b956001602096018155612a3f565b819291549060031b9188831b921b19161790559150613048565b60405162461bcd60e51b815260206004820152602c60248201527f43544d5257413030313a20617070726f76652076616c756520746f207468652060448201526b7a65726f206164647265737360a01b6064820152608490fd5b6000818152602090600982526040600561317e82842054612690565b500193845493835b85811061319c57505050505050611edf90612eb3565b806131aa6131d59289612a3f565b90548588526007855286882060039290921b1c6001600160a01b03168752835284862086905561202f565b613186565b60009082825260096020908082526040906131f782862054612690565b509260058094015496865b8881106132155750505050505050905090565b818852838352613233818761322c888c2054612690565b5001612a3f565b905460039190911b1c6001600160a01b039081169088161461325d576132589061202f565b613202565b505050505050505050600190565b1561327257565b60405162461bcd60e51b815260206004820152602960248201527f43544d5257413030313a207472616e736665722066726f6d20696e76616c6964604482015268081d1bdad95b88125160ba1b6064820152608490fd5b156132d057565b60405162461bcd60e51b815260206004820152602760248201527f43544d5257413030313a207472616e7366657220746f20696e76616c696420746044820152661bdad95b88125160ca1b6064820152608490fd5b1561332c57565b60405162461bcd60e51b815260206004820152602c60248201527f43544d5257413030313a20696e73756666696369656e742062616c616e63652060448201526b3337b9103a3930b739b332b960a11b6064820152608490fd5b9091613394610f1c83612ad5565b6133a06114fe84612ad5565b8160005260096020526040926133b98460002054612690565b508160005260096020526133d08560002054612690565b5090600281019060018254916133e887841015613325565b01546001840154036134ab57916002916134088661344698979695612ac8565b9055016134168382546127ff565b90558083600080516020613ad983398151915260208851868152a384519261343d84611c6b565b600084526136c3565b1561344e5750565b5162461bcd60e51b815260206004820152603160248201527f43544d5257413030313a207472616e736665722072656a65637465642062792060448201527021aa26a92ba0981818a932b1b2b4bb32b960791b6064820152608490fd5b865162461bcd60e51b815260206004820152603060248201527f43544d5257413030313a207472616e7366657220746f20746f6b656e2077697460448201526f1a08191a5999995c995b9d081cdb1bdd60821b6064820152608490fd5b61351183612741565b6001600160a01b038083169291811683900361361f578084169384156135ca57856135c6916116c182600080516020613af9833981519152966135538261277d565b5061355d826126cb565b5081600080988282526009602052600461357a6040842054612690565b500180546001600160a01b031916905561359383612741565b167f8c5be1e5ebec7d5bd14f71427d1e84f3dd0314c0f7b2291e5b200ac8c7c3b9258280a46135c182613162565b612dd0565b80a4565b60405162461bcd60e51b815260206004820152602760248201527f43544d5257413030313a207472616e7366657220746f20746865207a65726f206044820152666164647265737360c81b6064820152608490fd5b60405162461bcd60e51b815260206004820152602660248201527f43544d5257413030313a207472616e736665722066726f6d20696e76616c69646044820152651037bbb732b960d11b6064820152608490fd5b90816020910312611be257516001600160e01b031981168103611be25790565b3d156136be573d906136a482611ca7565b916136b26040519384611c86565b82523d6000602084013e565b606090565b9290926136cf84612741565b803b63ffffffff1615613812576040516301ffc9a760e01b8152633abe4f5560e21b6004820181905295602095926001600160a01b0316918681602481865afa80916000916137dc575b509061373557505050505050505061372f613693565b50600190565b156137d05760008694613774604051978896879586948d865233600487015260248601526044850152606484015260a0608484015260a4830190611ba7565b03925af19182156137c457600092613797575b50506001600160e01b0319161490565b6137b69250803d106137bd575b6137ae8183611c86565b810190613673565b3880613787565b503d6137a4565b6040513d6000823e3d90fd5b50505050505050600190565b8881813d831161380b575b6137f18183611c86565b810103126102665751908115158203610299575038613719565b503d6137e7565b5050505050600190565b9192813b63ffffffff16156120ed57602091613874916000604051958680958194630a85bd0160e11b9a8b845233600485015260018060a01b0380951660248501526044840152608060648401526084830190611ba7565b0393165af16000918161390a575b506138fc5761388f613693565b805190816138f75760405162461bcd60e51b815260206004820152603260248201527f4552433732313a207472616e7366657220746f206e6f6e20455243373231526560448201527131b2b4bb32b91034b6b83632b6b2b73a32b960711b6064820152608490fd5b602001fd5b6001600160e01b0319161490565b61392391925060203d81116137bd576137ae8183611c86565b9038613882565b9060405191826139466020820192602084526040830190611ba7565b039261395a601f1994858101835282611c86565b51902091613988604051918261397c6020820195602087526040830190611ba7565b03908101835282611c86565b5190201490565b90815161399b81611ca7565b906139a96040519283611c86565b8082526139b8601f1991611ca7565b01602090368284013760005b8451811015613a6b576139d7818661280c565b5190604160f892831c101580613a54575b15613a2d57826139f8828861280c565b51831c019160ff831161203e57613a2892901b6001600160f81b03191660001a613a22828661280c565b5361202f565b6139c4565b613a2891506001600160f81b0319613a45828861280c565b511660001a613a22828661280c565b50605a613a61828861280c565b51831c11156139e8565b5090925050565b15613a7957565b60405162461bcd60e51b815260206004820152603160248201527f43544d5257413030313a2063616c6c6572206973206e6f7420746f6b656e206f6044820152701ddb995c881b9bdc88185c1c1c9bdd9959607a1b6064820152608490fdfe0b2aac84f3ec956911fd78eae5311062972ff949f38412e8da39069d9f068cc6ddf252ad1be2c89b69c2b068fc378daa952ba7f163c4a11628f55a4df523b3efa2646970667358221220a04147cac99b6df190b2fabf765902edbd809e3904063f92abfbed856730396364736f6c63430008140033",
  "linkReferences": {},
  "deployedLinkReferences": {}
}