{
  "_format": "hh-sol-artifact-1",
  "contractName": "CTMRWA001Burnable",
  "sourceName": "contracts/CTMRWA001Burnable.sol",
  "abi": [
    {
      "inputs": [
        {
          "internalType": "string",
          "name": "name_",
          "type": "string"
        },
        {
          "internalType": "string",
          "name": "symbol_",
          "type": "string"
        },
        {
          "internalType": "uint8",
          "name": "decimals_",
          "type": "uint8"
        },
        {
          "internalType": "address",
          "name": "_ctmRwa001XChain",
          "type": "address"
        }
      ],
      "stateMutability": "nonpayable",
      "type": "constructor"
    },
    {
      "anonymous": false,
      "inputs": [
        {
          "indexed": true,
          "internalType": "address",
          "name": "_owner",
          "type": "address"
        },
        {
          "indexed": true,
          "internalType": "address",
          "name": "_approved",
          "type": "address"
        },
        {
          "indexed": true,
          "internalType": "uint256",
          "name": "_tokenId",
          "type": "uint256"
        }
      ],
      "name": "Approval",
      "type": "event"
    },
    {
      "anonymous": false,
      "inputs": [
        {
          "indexed": true,
          "internalType": "address",
          "name": "_owner",
          "type": "address"
        },
        {
          "indexed": true,
          "internalType": "address",
          "name": "_operator",
          "type": "address"
        },
        {
          "indexed": false,
          "internalType": "bool",
          "name": "_approved",
          "type": "bool"
        }
      ],
      "name": "ApprovalForAll",
      "type": "event"
    },
    {
      "anonymous": false,
      "inputs": [
        {
          "indexed": true,
          "internalType": "uint256",
          "name": "_tokenId",
          "type": "uint256"
        },
        {
          "indexed": true,
          "internalType": "address",
          "name": "_operator",
          "type": "address"
        },
        {
          "indexed": false,
          "internalType": "uint256",
          "name": "_value",
          "type": "uint256"
        }
      ],
      "name": "ApprovalValue",
      "type": "event"
    },
    {
      "anonymous": false,
      "inputs": [
        {
          "indexed": true,
          "internalType": "address",
          "name": "metadataDescriptor",
          "type": "address"
        }
      ],
      "name": "SetMetadataDescriptor",
      "type": "event"
    },
    {
      "anonymous": false,
      "inputs": [
        {
          "indexed": true,
          "internalType": "uint256",
          "name": "_tokenId",
          "type": "uint256"
        },
        {
          "indexed": true,
          "internalType": "uint256",
          "name": "_oldSlot",
          "type": "uint256"
        },
        {
          "indexed": true,
          "internalType": "uint256",
          "name": "_newSlot",
          "type": "uint256"
        }
      ],
      "name": "SlotChanged",
      "type": "event"
    },
    {
      "anonymous": false,
      "inputs": [
        {
          "indexed": true,
          "internalType": "address",
          "name": "_from",
          "type": "address"
        },
        {
          "indexed": true,
          "internalType": "address",
          "name": "_to",
          "type": "address"
        },
        {
          "indexed": true,
          "internalType": "uint256",
          "name": "_tokenId",
          "type": "uint256"
        }
      ],
      "name": "Transfer",
      "type": "event"
    },
    {
      "anonymous": false,
      "inputs": [
        {
          "indexed": true,
          "internalType": "uint256",
          "name": "_fromTokenId",
          "type": "uint256"
        },
        {
          "indexed": true,
          "internalType": "uint256",
          "name": "_toTokenId",
          "type": "uint256"
        },
        {
          "indexed": false,
          "internalType": "uint256",
          "name": "_value",
          "type": "uint256"
        }
      ],
      "name": "TransferValue",
      "type": "event"
    },
    {
      "inputs": [
        {
          "internalType": "address",
          "name": "_admin",
          "type": "address"
        },
        {
          "internalType": "string[]",
          "name": "_chainIdsStr",
          "type": "string[]"
        },
        {
          "internalType": "string[]",
          "name": "_contractAddrsStr",
          "type": "string[]"
        }
      ],
      "name": "addXTokenInfo",
      "outputs": [
        {
          "internalType": "bool",
          "name": "",
          "type": "bool"
        }
      ],
      "stateMutability": "nonpayable",
      "type": "function"
    },
    {
      "inputs": [],
      "name": "admin",
      "outputs": [
        {
          "internalType": "address",
          "name": "",
          "type": "address"
        }
      ],
      "stateMutability": "view",
      "type": "function"
    },
    {
      "inputs": [
        {
          "internalType": "uint256",
          "name": "tokenId_",
          "type": "uint256"
        },
        {
          "internalType": "address",
          "name": "operator_",
          "type": "address"
        }
      ],
      "name": "allowance",
      "outputs": [
        {
          "internalType": "uint256",
          "name": "",
          "type": "uint256"
        }
      ],
      "stateMutability": "view",
      "type": "function"
    },
    {
      "inputs": [
        {
          "internalType": "address",
          "name": "to_",
          "type": "address"
        },
        {
          "internalType": "uint256",
          "name": "tokenId_",
          "type": "uint256"
        }
      ],
      "name": "approve",
      "outputs": [],
      "stateMutability": "payable",
      "type": "function"
    },
    {
      "inputs": [
        {
          "internalType": "uint256",
          "name": "tokenId_",
          "type": "uint256"
        },
        {
          "internalType": "address",
          "name": "to_",
          "type": "address"
        },
        {
          "internalType": "uint256",
          "name": "value_",
          "type": "uint256"
        }
      ],
      "name": "approve",
      "outputs": [],
      "stateMutability": "payable",
      "type": "function"
    },
    {
      "inputs": [
        {
          "internalType": "address",
          "name": "to_",
          "type": "address"
        },
        {
          "internalType": "uint256",
          "name": "tokenId_",
          "type": "uint256"
        }
      ],
      "name": "approveFromX",
      "outputs": [],
      "stateMutability": "nonpayable",
      "type": "function"
    },
    {
      "inputs": [
        {
          "internalType": "address",
          "name": "owner_",
          "type": "address"
        }
      ],
      "name": "balanceOf",
      "outputs": [
        {
          "internalType": "uint256",
          "name": "balance",
          "type": "uint256"
        }
      ],
      "stateMutability": "view",
      "type": "function"
    },
    {
      "inputs": [
        {
          "internalType": "uint256",
          "name": "tokenId_",
          "type": "uint256"
        }
      ],
      "name": "balanceOf",
      "outputs": [
        {
          "internalType": "uint256",
          "name": "",
          "type": "uint256"
        }
      ],
      "stateMutability": "view",
      "type": "function"
    },
    {
      "inputs": [
        {
          "internalType": "uint256",
          "name": "tokenId_",
          "type": "uint256"
        }
      ],
      "name": "burn",
      "outputs": [],
      "stateMutability": "nonpayable",
      "type": "function"
    },
    {
      "inputs": [
        {
          "internalType": "uint256",
          "name": "tokenId_",
          "type": "uint256"
        },
        {
          "internalType": "uint256",
          "name": "burnValue_",
          "type": "uint256"
        }
      ],
      "name": "burnValue",
      "outputs": [],
      "stateMutability": "nonpayable",
      "type": "function"
    },
    {
      "inputs": [
        {
          "internalType": "address",
          "name": "_admin",
          "type": "address"
        }
      ],
      "name": "changeAdmin",
      "outputs": [
        {
          "internalType": "bool",
          "name": "",
          "type": "bool"
        }
      ],
      "stateMutability": "nonpayable",
      "type": "function"
    },
    {
      "inputs": [
        {
          "internalType": "string",
          "name": "_otherChainIdStr",
          "type": "string"
        },
        {
          "internalType": "string",
          "name": "_otherContractStr",
          "type": "string"
        }
      ],
      "name": "checkTokenCompatibility",
      "outputs": [
        {
          "internalType": "bool",
          "name": "",
          "type": "bool"
        }
      ],
      "stateMutability": "view",
      "type": "function"
    },
    {
      "inputs": [
        {
          "internalType": "uint256",
          "name": "tokenId_",
          "type": "uint256"
        }
      ],
      "name": "clearApprovedValues",
      "outputs": [],
      "stateMutability": "nonpayable",
      "type": "function"
    },
    {
      "inputs": [],
      "name": "contractURI",
      "outputs": [
        {
          "internalType": "string",
          "name": "",
          "type": "string"
        }
      ],
      "stateMutability": "view",
      "type": "function"
    },
    {
      "inputs": [],
      "name": "ctmRwa001XChain",
      "outputs": [
        {
          "internalType": "address",
          "name": "",
          "type": "address"
        }
      ],
      "stateMutability": "view",
      "type": "function"
    },
    {
      "inputs": [
        {
          "internalType": "uint256",
          "name": "tokenId_",
          "type": "uint256"
        }
      ],
      "name": "getApproved",
      "outputs": [
        {
          "internalType": "address",
          "name": "",
          "type": "address"
        }
      ],
      "stateMutability": "view",
      "type": "function"
    },
    {
      "inputs": [
        {
          "internalType": "string",
          "name": "_chainIdStr",
          "type": "string"
        }
      ],
      "name": "getTokenContract",
      "outputs": [
        {
          "internalType": "string",
          "name": "",
          "type": "string"
        }
      ],
      "stateMutability": "view",
      "type": "function"
    },
    {
      "inputs": [
        {
          "internalType": "uint256",
          "name": "tokenId_",
          "type": "uint256"
        }
      ],
      "name": "getTokenInfo",
      "outputs": [
        {
          "internalType": "uint256",
          "name": "",
          "type": "uint256"
        },
        {
          "internalType": "uint256",
          "name": "",
          "type": "uint256"
        },
        {
          "internalType": "address",
          "name": "",
          "type": "address"
        },
        {
          "internalType": "uint256",
          "name": "",
          "type": "uint256"
        }
      ],
      "stateMutability": "view",
      "type": "function"
    },
    {
      "inputs": [
        {
          "internalType": "uint256",
          "name": "tokenId_",
          "type": "uint256"
        }
      ],
      "name": "idOf",
      "outputs": [
        {
          "internalType": "uint256",
          "name": "",
          "type": "uint256"
        }
      ],
      "stateMutability": "view",
      "type": "function"
    },
    {
      "inputs": [
        {
          "internalType": "address",
          "name": "owner_",
          "type": "address"
        },
        {
          "internalType": "address",
          "name": "operator_",
          "type": "address"
        }
      ],
      "name": "isApprovedForAll",
      "outputs": [
        {
          "internalType": "bool",
          "name": "",
          "type": "bool"
        }
      ],
      "stateMutability": "view",
      "type": "function"
    },
    {
      "inputs": [
        {
          "internalType": "address",
          "name": "operator_",
          "type": "address"
        },
        {
          "internalType": "uint256",
          "name": "tokenId_",
          "type": "uint256"
        }
      ],
      "name": "isApprovedOrOwner",
      "outputs": [
        {
          "internalType": "bool",
          "name": "",
          "type": "bool"
        }
      ],
      "stateMutability": "view",
      "type": "function"
    },
    {
      "inputs": [],
      "name": "metadataDescriptor",
      "outputs": [
        {
          "internalType": "contract ICTMRWA001MetadataDescriptor",
          "name": "",
          "type": "address"
        }
      ],
      "stateMutability": "view",
      "type": "function"
    },
    {
      "inputs": [
        {
          "internalType": "address",
          "name": "mintTo_",
          "type": "address"
        },
        {
          "internalType": "uint256",
          "name": "tokenId_",
          "type": "uint256"
        },
        {
          "internalType": "uint256",
          "name": "slot_",
          "type": "uint256"
        },
        {
          "internalType": "uint256",
          "name": "value_",
          "type": "uint256"
        }
      ],
      "name": "mint",
      "outputs": [],
      "stateMutability": "nonpayable",
      "type": "function"
    },
    {
      "inputs": [
        {
          "internalType": "address",
          "name": "to_",
          "type": "address"
        },
        {
          "internalType": "uint256",
          "name": "tokenId_",
          "type": "uint256"
        },
        {
          "internalType": "uint256",
          "name": "slot_",
          "type": "uint256"
        },
        {
          "internalType": "uint256",
          "name": "value_",
          "type": "uint256"
        }
      ],
      "name": "mintFromX",
      "outputs": [],
      "stateMutability": "nonpayable",
      "type": "function"
    },
    {
      "inputs": [
        {
          "internalType": "address",
          "name": "to_",
          "type": "address"
        },
        {
          "internalType": "uint256",
          "name": "slot_",
          "type": "uint256"
        },
        {
          "internalType": "uint256",
          "name": "value_",
          "type": "uint256"
        }
      ],
      "name": "mintFromX",
      "outputs": [
        {
          "internalType": "uint256",
          "name": "tokenId",
          "type": "uint256"
        }
      ],
      "stateMutability": "nonpayable",
      "type": "function"
    },
    {
      "inputs": [
        {
          "internalType": "uint256",
          "name": "tokenId_",
          "type": "uint256"
        },
        {
          "internalType": "uint256",
          "name": "value_",
          "type": "uint256"
        }
      ],
      "name": "mintValue",
      "outputs": [],
      "stateMutability": "nonpayable",
      "type": "function"
    },
    {
      "inputs": [],
      "name": "name",
      "outputs": [
        {
          "internalType": "string",
          "name": "",
          "type": "string"
        }
      ],
      "stateMutability": "view",
      "type": "function"
    },
    {
      "inputs": [
        {
          "internalType": "uint256",
          "name": "tokenId_",
          "type": "uint256"
        }
      ],
      "name": "ownerOf",
      "outputs": [
        {
          "internalType": "address",
          "name": "owner_",
          "type": "address"
        }
      ],
      "stateMutability": "view",
      "type": "function"
    },
    {
      "inputs": [
        {
          "internalType": "address",
          "name": "from_",
          "type": "address"
        },
        {
          "internalType": "uint256",
          "name": "tokenId_",
          "type": "uint256"
        }
      ],
      "name": "removeTokenFromOwnerEnumeration",
      "outputs": [],
      "stateMutability": "nonpayable",
      "type": "function"
    },
    {
      "inputs": [
        {
          "internalType": "address",
          "name": "from_",
          "type": "address"
        },
        {
          "internalType": "address",
          "name": "to_",
          "type": "address"
        },
        {
          "internalType": "uint256",
          "name": "tokenId_",
          "type": "uint256"
        }
      ],
      "name": "safeTransferFrom",
      "outputs": [],
      "stateMutability": "payable",
      "type": "function"
    },
    {
      "inputs": [
        {
          "internalType": "address",
          "name": "from_",
          "type": "address"
        },
        {
          "internalType": "address",
          "name": "to_",
          "type": "address"
        },
        {
          "internalType": "uint256",
          "name": "tokenId_",
          "type": "uint256"
        },
        {
          "internalType": "bytes",
          "name": "data_",
          "type": "bytes"
        }
      ],
      "name": "safeTransferFrom",
      "outputs": [],
      "stateMutability": "payable",
      "type": "function"
    },
    {
      "inputs": [
        {
          "internalType": "address",
          "name": "operator_",
          "type": "address"
        },
        {
          "internalType": "bool",
          "name": "approved_",
          "type": "bool"
        }
      ],
      "name": "setApprovalForAll",
      "outputs": [],
      "stateMutability": "nonpayable",
      "type": "function"
    },
    {
      "inputs": [
        {
          "internalType": "uint256",
          "name": "tokenId_",
          "type": "uint256"
        }
      ],
      "name": "slotOf",
      "outputs": [
        {
          "internalType": "uint256",
          "name": "",
          "type": "uint256"
        }
      ],
      "stateMutability": "view",
      "type": "function"
    },
    {
      "inputs": [
        {
          "internalType": "uint256",
          "name": "slot_",
          "type": "uint256"
        }
      ],
      "name": "slotURI",
      "outputs": [
        {
          "internalType": "string",
          "name": "",
          "type": "string"
        }
      ],
      "stateMutability": "view",
      "type": "function"
    },
    {
      "inputs": [
        {
          "internalType": "address",
          "name": "operator_",
          "type": "address"
        },
        {
          "internalType": "uint256",
          "name": "tokenId_",
          "type": "uint256"
        },
        {
          "internalType": "uint256",
          "name": "value_",
          "type": "uint256"
        }
      ],
      "name": "spendAllowance",
      "outputs": [],
      "stateMutability": "nonpayable",
      "type": "function"
    },
    {
      "inputs": [
        {
          "internalType": "string",
          "name": "a",
          "type": "string"
        },
        {
          "internalType": "string",
          "name": "b",
          "type": "string"
        }
      ],
      "name": "stringsEqual",
      "outputs": [
        {
          "internalType": "bool",
          "name": "",
          "type": "bool"
        }
      ],
      "stateMutability": "pure",
      "type": "function"
    },
    {
      "inputs": [
        {
          "internalType": "bytes4",
          "name": "interfaceId",
          "type": "bytes4"
        }
      ],
      "name": "supportsInterface",
      "outputs": [
        {
          "internalType": "bool",
          "name": "",
          "type": "bool"
        }
      ],
      "stateMutability": "view",
      "type": "function"
    },
    {
      "inputs": [],
      "name": "symbol",
      "outputs": [
        {
          "internalType": "string",
          "name": "",
          "type": "string"
        }
      ],
      "stateMutability": "view",
      "type": "function"
    },
    {
      "inputs": [
        {
          "internalType": "uint256",
          "name": "index_",
          "type": "uint256"
        }
      ],
      "name": "tokenByIndex",
      "outputs": [
        {
          "internalType": "uint256",
          "name": "",
          "type": "uint256"
        }
      ],
      "stateMutability": "view",
      "type": "function"
    },
    {
      "inputs": [
        {
          "internalType": "uint256",
          "name": "",
          "type": "uint256"
        }
      ],
      "name": "tokenContract",
      "outputs": [
        {
          "internalType": "string",
          "name": "chainIdStr",
          "type": "string"
        },
        {
          "internalType": "string",
          "name": "contractStr",
          "type": "string"
        }
      ],
      "stateMutability": "view",
      "type": "function"
    },
    {
      "inputs": [
        {
          "internalType": "address",
          "name": "owner_",
          "type": "address"
        },
        {
          "internalType": "uint256",
          "name": "index_",
          "type": "uint256"
        }
      ],
      "name": "tokenOfOwnerByIndex",
      "outputs": [
        {
          "internalType": "uint256",
          "name": "",
          "type": "uint256"
        }
      ],
      "stateMutability": "view",
      "type": "function"
    },
    {
      "inputs": [
        {
          "internalType": "uint256",
          "name": "tokenId_",
          "type": "uint256"
        }
      ],
      "name": "tokenURI",
      "outputs": [
        {
          "internalType": "string",
          "name": "",
          "type": "string"
        }
      ],
      "stateMutability": "view",
      "type": "function"
    },
    {
      "inputs": [],
      "name": "totalSupply",
      "outputs": [
        {
          "internalType": "uint256",
          "name": "",
          "type": "uint256"
        }
      ],
      "stateMutability": "view",
      "type": "function"
    },
    {
      "inputs": [
        {
          "internalType": "uint256",
          "name": "fromTokenId_",
          "type": "uint256"
        },
        {
          "internalType": "address",
          "name": "to_",
          "type": "address"
        },
        {
          "internalType": "uint256",
          "name": "value_",
          "type": "uint256"
        }
      ],
      "name": "transferFrom",
      "outputs": [
        {
          "internalType": "uint256",
          "name": "newTokenId",
          "type": "uint256"
        }
      ],
      "stateMutability": "payable",
      "type": "function"
    },
    {
      "inputs": [
        {
          "internalType": "address",
          "name": "from_",
          "type": "address"
        },
        {
          "internalType": "address",
          "name": "to_",
          "type": "address"
        },
        {
          "internalType": "uint256",
          "name": "tokenId_",
          "type": "uint256"
        }
      ],
      "name": "transferFrom",
      "outputs": [],
      "stateMutability": "payable",
      "type": "function"
    },
    {
      "inputs": [
        {
          "internalType": "uint256",
          "name": "fromTokenId_",
          "type": "uint256"
        },
        {
          "internalType": "uint256",
          "name": "toTokenId_",
          "type": "uint256"
        },
        {
          "internalType": "uint256",
          "name": "value_",
          "type": "uint256"
        }
      ],
      "name": "transferFrom",
      "outputs": [],
      "stateMutability": "payable",
      "type": "function"
    },
    {
      "inputs": [],
      "name": "valueDecimals",
      "outputs": [
        {
          "internalType": "uint8",
          "name": "",
          "type": "uint8"
        }
      ],
      "stateMutability": "view",
      "type": "function"
    }
  ],
  "bytecode": "0x608060408181523462000704576200465a803803809162000021828662000709565b8439820190608083830312620007045782516001600160401b03908181116200070457836200005291860162000784565b92602090818601519083821162000704576200007091870162000784565b94838101519260ff918285168095036200070457606001516001600160a01b0381169290839003620007045760018060a01b031993600093338686541617855560019586600655895197858911620006f05760039880620000d28b54620007d1565b601f9d818f80931162000691575b50879183116001146200062e578a9262000622575b5050600019828c1b1c191690891b1789555b8b518681116200060e5760049b620001208d54620007d1565b818111620005ca575b508c9d8c9d8a9d9c9d50879284116001146200053d57509b8291620002329d8b9362000531575b5050828b1b92600019911b1c1916178c555b60ff196005541617600555865416178555468086867a184f03e93ff9f4daa797ed6e38ed64bf6a1f0100000000000000008084101562000520575b50846d04ee2d6d415b85acef81000000008086101562000513575b5050662386f26fc100008085101562000505575b506305f5e10080851015620004f7575b508c61271080861015620004ea575b50506064841015620004db575b60219082600a80961015620004d3575b810162000223620002198262000743565b9c519c8d62000709565b808c52601f199c8d9162000743565b0136878d01378a0101905b620004a2575b505050308851936060850190858210908211176200048f578952602a8452818401893682378451156200047c5760309053835186101562000469576078602185015360295b868111620003fd5750620003bc57825196620002c0620002a88962000743565b98620002b78b519a8b62000709565b808a5262000743565b01368289013783855b620002eb575b88620002dc89896200087c565b50516139cc908162000c8e8239f35b8351811015620003b6576200030181856200080e565b51604160f891821c1015806200039c575b156200037157826200032583876200080e565b51821c018481116200035e576200035792911b6001600160f81b031916861a62000350828b6200080e565b5362000836565b85620002c9565b634e487b7160e01b875260118c52602487fd5b5062000357906001600160f81b03196200038c82876200080e565b5116861a62000350828b6200080e565b50605a620003ab83876200080e565b51821c111562000312565b620002cf565b88816064928a519262461bcd60e51b845283015260248201527f537472696e67733a20686578206c656e67746820696e73756666696369656e746044820152fd5b90600f8116601081101562000456576f181899199a1a9b1b9c1cb0b131b232b360811b901a6200042e83876200080e565b538a1c90801562000443576000190162000288565b634e487b7160e01b865260118b52602486fd5b634e487b7160e01b875260328c52602487fd5b634e487b7160e01b855260328a52602485fd5b634e487b7160e01b865260328b52602486fd5b634e487b7160e01b865260418b52602486fd5b600019019082906f181899199a1a9b1b9c1cb0b131b232b360811b8282061a8353049087826200023d575062000243565b018262000208565b606490930492600201620001f8565b90940493018c38620001eb565b6008919404930138620001dc565b6010919404930138620001cc565b90940493018438620001b8565b92935050508104908688386200019d565b01519150388062000150565b8a52868a20929c9190601f198e168b5b818110620005935750918e9391620002329f8e96941062000578575b50505050811b018c5562000162565b01519060f884600019921b161c191690553880808062000569565b93948d9f97999b9d8497999b9d9f508c92939491839286015181550196019301908f9d9b999795949392919e9c9a98969e6200054d565b8d8a52868a208280850160051c82019289861062000604575b0160051c01905b818110620005f9575062000129565b8a81558b01620005ea565b92508192620005e3565b634e487b7160e01b88526041600452602488fd5b015190503880620000f5565b8c8b52878b208c94509190601f1984168c5b8a8282106200067a575050841162000661575b505050811b01895562000107565b0151600019838e1b60f8161c1916905538808062000653565b8385015186558f9790950194938401930162000640565b915091508b8a528d878b209080850160051c820192898610620006e6575b859492828f929593950160051c01915b828110620006cf575050620000e0565b8d91939550809294505501918e918c8594620006bf565b92508192620006af565b634e487b7160e01b87526041600452602487fd5b600080fd5b601f909101601f19168101906001600160401b038211908210176200072d57604052565b634e487b7160e01b600052604160045260246000fd5b6001600160401b0381116200072d57601f01601f191660200190565b60005b838110620007735750506000910152565b818101518382015260200162000762565b81601f82011215620007045780516200079d8162000743565b92620007ad604051948562000709565b818452602082840101116200070457620007ce91602080850191016200075f565b90565b90600182811c9216801562000803575b6020831014620007ed57565b634e487b7160e01b600052602260045260246000fd5b91607f1691620007e1565b90815181101562000820570160200190565b634e487b7160e01b600052603260045260246000fd5b6000198114620008465760010190565b634e487b7160e01b600052601160045260246000fd5b6002548110156200082057600260005260206000209060011b0190600090565b60025490929160005b82811062000b31575060408051946001600160401b03918601828111878210176200072d576040528552602094858101928352680100000000000000008410156200072d57620008dd6001948581016002556200085c565b91909162000b1b5751908151908382116200072d578591620009008254620007d1565b93601f9485811162000ac6575b50899085831160011462000a5b57600091908362000a4f575b5050600019600383901b1c191690831b1781555b0192519586519283116200072d57620009548454620007d1565b82811162000a04575b50809183116001146200099b575081929394956000926200098f575b5050600019600383901b1c191690831b17905590565b01519050388062000979565b90601f198316968460005282600020926000905b898210620009ec5750508386979896959610620009d2575b505050811b01905590565b015160001960f88460031b161c19169055388080620009c7565b808885968294968601518155019501930190620009af565b84600052816000208380860160051c82019284871062000a45575b0160051c019086905b82811062000a385750506200095d565b6000815501869062000a28565b9250819262000a1f565b01519050388062000926565b90601f19831691846000528b6000209260005b8d82821062000aaf575050908487959493921062000a95575b505050811b0181556200093a565b015160001960f88460031b161c1916905538808062000a87565b8385015186558c9890950194938401930162000a6e565b909192809450600052896000208580850160051c8201928c861062000b11575b908a9695949392910160051c01905b81811062000b0457506200090d565b6000815589950162000af5565b9250819262000ae6565b634e487b7160e01b600052600060045260246000fd5b62000b3c816200085c565b50604090815190816000825462000b5381620007d1565b8084529360019180831690811562000c3a575060011462000bf5575b505062000b7f9250038262000709565b81519062000bd26020918362000b99848201928362000c5f565b039362000baf601f199586810183528262000709565b5190209351918201928262000bc58b8662000c5f565b0390810183528262000709565b5190201462000bec5762000be69062000836565b62000885565b50600093505050565b90915060005260209283600020916000925b82841062000c23575050509162000b7f92820101388062000b6f565b805487850187015286945092850192810162000c07565b935050505062000b7f9260209160ff191682840152151560051b820101388062000b6f565b6040916020825262000c8181518092816020860152602086860191016200075f565b601f01601f191601019056fe608060408181526004918236101561001657600080fd5b600092833560e01c91826301ffc9a7146119815750816306fdde03146118ae578163075217541461187c578163081812fc1461185c578163095ea7b31461177a57816309c3dd87146116ec5781630f485c021461146457816313d199501461144857816318160ddd1461142957816323b872dd14611404578163263f3e7e146113e45781632f745c591461133a578163310ed7f0146112b3578163381c4fce146112635781633e7e866914611241578163404b6e9f1461120757816342842e0e146111e457816342966c6814610fbd578163430c208114610f7f578163449d077214610ec75781634f6ccce714610e48578163582939e514610e185781636352211e14610de757816370a0823114610dc1578163840f711314610d9857816387fe861114610cc95781638c7a63ae14610c2a5781638cb0a51114610b805781638f28397014610acc57816395d89b41146109f7578163968e8a13146109bd5781639c0e9a5d146109a15781639cc7f70814610981578163a22cb465146108b2578163a30fb0201461084d578163a647e8ec14610832578163a6a2d1dd146107b3578163b3875b951461078a578163b88d4fde1461072b578163bff2ed71146106e0578163c87b56dd146105b5578163dee9f53f14610572578163e345e0bc14610543578163e8a3d485146102d657508063e985e9c514610286578063f0e88e7f146102545763f851a4401461022a57600080fd5b34610250578160031936011261025057905490516001600160a01b039091168152602090f35b5080fd5b82346102835761028061026636611c97565b90610270816125d7565b5061027a81612613565b50612b74565b80f35b80fd5b503461025057806003193601126102505760ff816020936102a5611a7c565b6102ad611a97565b6001600160a01b039182168352600a875283832091168252600201855220549151911615158152f35b90503461053f578260031936011261053f5781516102f381611b1b565b838152600b546001600160a01b031690811561037957508390835192838092631c97e82760e21b82525afa90811561036d5783610346949261034a575b5050905b51918291602083526020830190611a57565b0390f35b61036692503d8091833e61035e8183611b36565b810190612637565b3880610330565b505051903d90823e3d90fd5b929391905081156105245783513091606082016001600160401b0381118382101761050f578652602a825260209283830194873687378351156104fc57603086538351906001918210156104e95790607860218601536029915b81831161047e5750505061043d5750849368636f6e74726163742f60b81b9361043793610428602994610346995197856104168a9751809287808b019101611a34565b86019384015251809386840190611a34565b01036009810184520182611b36565b90610334565b606490838088519262461bcd60e51b845283015260248201527f537472696e67733a20686578206c656e67746820696e73756666696369656e746044820152fd5b909192600f811660108110156104d6576f181899199a1a9b1b9c1cb0b131b232b360811b901a6104ae85886126a2565b53841c9280156104c3576000190191906103d3565b634e487b7160e01b825260118552602482fd5b634e487b7160e01b835260328652602483fd5b634e487b7160e01b815260328452602490fd5b634e487b7160e01b815260328352602490fd5b604182634e487b7160e01b6000525260246000fd5b50505080610346915161053681611b1b565b60008152610437565b8280fd5b8284346102835781600319360112610283575061056b602092610564611a97565b903561270b565b9051908152f35b90503461053f57602036600319011261053f57816020936105ac923561059f61059a8261296b565b61258b565b8152600985522054612526565b50549051908152f35b90503461053f57602090816003193601126106dc5780356105d861059a8261296b565b8351916105e483611b1b565b858352600b546001600160a01b031692831561066557509060248692865194859384926344a5a61760e11b84528301525afa90811561065857846103469394959261063d575b5050925b51928284938452830190611a57565b61065192503d8091833e61035e8183611b36565b388061062a565b50505051903d90823e3d90fd5b92505084839495506000146106c257610346926106846106bc92612034565b928651938161069c8693518092868087019101611a34565b82016106b082518093868085019101611a34565b01038084520182611b36565b9261062e565b50505061034682516106d381611b1b565b600081526106bc565b8380fd5b828434610283576020610725836106f636611c3f565b9061070f60018060a09795971b03600154163314611e60565b600654809561071d82611ec5565b600655612999565b51908152f35b8390608036600319011261025057610741611a7c565b610749611a97565b906064356001600160401b0381116107865736602382011215610786576102809381602461077c93369301359101611b72565b9160443591612820565b8480fd5b50503461025057816003193601126102505760015490516001600160a01b039091168152602090f35b828434610283576060366003190112610283576107ce611a7c565b926001600160401b036024358181116106dc576107ee9036908401611ddd565b9260443591821161028357509161080e6020959261082994369101611ddd565b9161082460018060a01b03600154163314611e60565b611efe565b90519015158152f35b83346102835761028061084436611c69565b92919091612999565b83915034610250576020366003190112610250573590600254821015610283575061087790611cad565b5090610346610891600161088a85611d37565b9401611d37565b6108a48351948486958652850190611a57565b908382036020850152611a57565b9190503461053f578060031936011261053f576108cd611a7c565b9060243591821515809303610786576001600160a01b03169233841461093f5750338452600a60205260028185200183855260205280842060ff1981541660ff8416179055519081527f17307eab39ab6107e8899845ad3d59bd9653f200f220920489ca2b5937696c3160203392a380f35b6020606492519162461bcd60e51b8352820152601c60248201527f43544d5257413030313a20617070726f766520746f2063616c6c6572000000006044820152fd5b828434610283576020366003190112610283575061056b60209235612561565b505034610250576020906108296109b736611bc7565b906124b3565b50503461025057366003190112610283576102806109d9611a7c565b6109ee60018060a01b03600154163314611e60565b60243590612e50565b9190503461053f578260031936011261053f5780519183815490610a1a82611cfd565b80865292600192808416908115610aa15750600114610a45575b6103468686610334828b0383611b36565b815294507f8a35acfbc15ff81a39ae7d344fd709f28e8600b4aa8c65c6b64bfe7fe36bd19b5b828610610a8957505050610334826020610346958201019438610a34565b80546020878701810191909152909501948101610a6b565b905061034697508693506020925061033494915060ff191682840152151560051b8201019438610a34565b82843461028357602036600319011261028357610ae7611a7c565b8154906001600160a01b03908183163303610b2c5760209550610b0f82600154163314611e60565b16906bffffffffffffffffffffffff60a01b161790555160018152f35b845162461bcd60e51b8152602081880152602860248201527f43544d5257413030313a205468697320697320616e206f6e6c7941646d696e20604482015267333ab731ba34b7b760c11b6064820152608490fd5b839150610b8c36611aad565b92909190610bb06001600160a01b0380610ba5856125d7565b1690851614156126b3565b610bba82336128ed565b15610bcb5750610280939450612eba565b608490602087519162461bcd60e51b8352820152603360248201527f43544d5257413030313a20617070726f76652063616c6c6572206973206e6f74604482015272081bdddb995c881b9bdc88185c1c1c9bdd9959606a1b6064820152fd5b838334610250576020908160031936011261053f576080933590610c5061059a8361296b565b81845260098352610c6381852054612526565b505493828152600984526001610cb3836002610c8182862054612526565b5001549386815260098852610c9882822054612526565b506003858060a01b0391015416968152600988522054612526565b5001549382519586528501528301526060820152f35b8391503461025057610cda36611c97565b9091610cee610ce984336128ed565b6138f0565b610cfa61059a8461296b565b82845260096020526002610d1086862054612526565b500190815490838210610d475750918495602092610d3d836000805160206139578339815191529661295e565b905551908152a380f35b608490602088519162461bcd60e51b8352820152602560248201527f43544d5257413030313a206275726e2076616c756520657863656564732062616044820152646c616e636560d81b6064820152fd5b505034610250578160031936011261025057600b5490516001600160a01b039091168152602090f35b5050346102505760203660031901126102505760209061056b610de2611a7c565b61273c565b8284346102835760203660031901126102835750610e07602092356125d7565b90516001600160a01b039091168152f35b833461028357610280610e2a36611c69565b92610e4360018060a09594951b03600154163314611e60565b612999565b905082346102835760203660031901126102835750803590600854821015610e76576020836105ac84612526565b608490602084519162461bcd60e51b8352820152602560248201527f43544d5257413030313a20676c6f62616c20696e646578206f7574206f6620626044820152646f756e647360d81b6064820152fd5b8391503461025057610ed836611c3f565b9092610ee4838561270b565b90610eef85856128ed565b1580610f73575b610efe578580f35b828210610f265750610f1c94955090610f169161295e565b91612eba565b8082808080808580f35b608490602088519162461bcd60e51b8352820152602160248201527f43544d5257413030313a20696e73756666696369656e7420616c6c6f77616e636044820152606560f81b6064820152fd5b50600019821415610ef6565b505034610250578060031936011261025057602090610829610f9f611a7c565b610fb460018060a01b03600154163314611e60565b602435906128ed565b83915034610250576020908160031936011261053f57803591610fe3610ce984336128ed565b610fef61059a8461296b565b8284526009815261100285852054612526565b509060018060a01b03806003840154169360016002818601549501549261102888612ff8565b6110328888612c66565b600854600019918282019182116111d157868b8d928c82526009835261105b8483205495612526565b5093600581519561106b87611b00565b805487528981015486880152600281015483880152836003820154166060880152838b8201541660808801520190518094859381845493848152019386528a82872096925b8484106111b45750505050506110c892500382611b36565b60a08201526110e0816110da84612526565b90612d6d565b518a52600986528a8a2055878952888a81205560085480156111a157019161110783612526565b92909261118f5793899a899a999461114d6005868d809c9b9781809c816000805160206139578339815191529c5584015581600284015581600384015582015501612d49565b60085551908152a3847fe4f48c240d3b994948aa54f3e2f5fca59263dfe1d52b6e4cf39a5d249b5ccb658380a46000805160206139778339815191528280a480f35b634e487b7160e01b8a5289825260248afd5b634e487b7160e01b8a526031845260248afd5b875483168652968101968896509094019391909101908a8e6110b0565b634e487b7160e01b8b526011855260248bfd5b83610280846111f236611c0a565b919251926111ff84611b1b565b858452612820565b5050346102505736600319011261028357610280611223611a7c565b61123860018060a01b03600154163314611e60565b60243590612c66565b50503461025057816003193601126102505760209060ff600554169051908152f35b828434610283576020366003190112610283578235906001600160401b038211610283575061129b610346936112a092369101611ba9565b612445565b9051918291602083526020830190611a57565b83915060603660031901126102505780359260443591303b156106dc57815163224e83b960e11b81523391810191825260208201869052604082018490529190849083908190606001038183305af1908115611331575061131e575b50610280919260243590613101565b9161132b61028093611ad7565b9161130f565b513d85823e3d90fd5b90508234610283578260031936011261028357611355611a7c565b602435926113628261273c565b841015611395576020856113878682878760018060a01b03168152600a8652206128d5565b91905490519160031b1c8152f35b608490602086519162461bcd60e51b83528201526024808201527f43544d5257413030313a206f776e657220696e646578206f7574206f6620626f604482015263756e647360e01b6064820152fd5b828434610283576020366003190112610283575061056b60209235612613565b8361028061141136611c0a565b9161142461141f84336128ed565b6127b7565b613386565b5050346102505781600319360112610250576020906008549051908152f35b5050346102505760209061082961145e36611bc7565b906137a8565b838361146f36611aad565b919093303b1561028357835163224e83b960e11b8152338782019081526020810184905260408101859052829082908190606001038183305af180156116e2576116d3575b50600654946114c286611ec5565b6006556114ce83612613565b906001600160a01b038116908115611684578715611635576114ef8861296b565b6115f25786516114fe81611b1b565b84815287519061150d82611b00565b898252846020830152858983015283606083015285608083015260a082015260085489865260096020528089872055600160401b8110156115df5760209a50899592936115768780966115716107259c9b99966110da876001869901600855612526565b612bb7565b836000805160206139778339815191528180a481837fe4f48c240d3b994948aa54f3e2f5fca59263dfe1d52b6e4cf39a5d249b5ccb658280a4818152600989526115c287822054612526565b5050600080516020613957833981519152898851838152a3613101565b634e487b7160e01b865260418b52602486fd5b865162461bcd60e51b81526020818b0152601f60248201527f43544d5257413030313a20746f6b656e20616c7265616479206d696e746564006044820152606490fd5b865162461bcd60e51b81526020818b0152602360248201527f43544d5257413030313a2063616e6e6f74206d696e74207a65726f20746f6b656044820152621b925960ea1b6064820152608490fd5b865162461bcd60e51b81526020818b0152602360248201527f43544d5257413030313a206d696e7420746f20746865207a65726f206164647260448201526265737360e81b6064820152608490fd5b6116dc90611ad7565b866114b4565b85513d84823e3d90fd5b90503461053f57602036600319011261053f5782825161170b81611b1b565b52600b546001600160a01b03169081156117615783906024845180948193633601bfc560e11b83528035908301525afa90811561036d5783610346949261034a5750509051918291602083526020830190611a57565b505080516103469261177282611b1b565b815290610334565b8391508260031936011261025057611790611a7c565b602435916001600160a01b036117b5816117a9866125d7565b168092851614156126b3565b80331490811561183a575b50156117d157509061028091612e50565b608490602086519162461bcd60e51b8352820152603b60248201527f43544d5257413030313a20617070726f76652063616c6c6572206973206e6f7460448201527f206f776e6572206e6f7220617070726f76656420666f7220616c6c00000000006064820152fd5b90508452600a60205260028585200133855260205260ff8585205416866117c0565b8284346102835760203660031901126102835750610e07602092356128a2565b83903461025057602036600319011261025057610280906118a860018060a01b03600154163314611e60565b35612ff8565b505034610250578160031936011261025057805190826003546118d081611cfd565b8085529160019180831690811561195957506001146118fc575b50505061033482610346940383611b36565b9450600385527fc2575a0e9e593c00f959f8c92f12db2869c3395a3b0502d05e2516446f71f85b5b8286106119415750505061033482602061034695820101946118ea565b80546020878701810191909152909501948101611924565b61034697508693506020925061033494915060ff191682840152151560051b820101946118ea565b84913461053f57602036600319011261053f573563ffffffff60e01b811680910361053f57602092506301ffc9a760e01b8114908115611a23575b8115611a12575b8115611a01575b81156119f0575b81156119df575b5015158152f35b635b5e139f60e01b149050836119d8565b63780e9d6360e01b811491506119d1565b6370b0048160e11b811491506119ca565b6380ac58cd60e01b811491506119c3565b630354d60560e61b811491506119bc565b60005b838110611a475750506000910152565b8181015183820152602001611a37565b90602091611a7081518092818552858086019101611a34565b601f01601f1916010190565b600435906001600160a01b0382168203611a9257565b600080fd5b602435906001600160a01b0382168203611a9257565b6060906003190112611a9257600435906024356001600160a01b0381168103611a92579060443590565b6001600160401b038111611aea57604052565b634e487b7160e01b600052604160045260246000fd5b60c081019081106001600160401b03821117611aea57604052565b602081019081106001600160401b03821117611aea57604052565b90601f801991011681019081106001600160401b03821117611aea57604052565b6001600160401b038111611aea57601f01601f191660200190565b929192611b7e82611b57565b91611b8c6040519384611b36565b829481845281830111611a92578281602093846000960137010152565b9080601f83011215611a9257816020611bc493359101611b72565b90565b906040600319830112611a92576001600160401b03600435818111611a925783611bf391600401611ba9565b92602435918211611a9257611bc491600401611ba9565b6060906003190112611a92576001600160a01b03906004358281168103611a9257916024359081168103611a92579060443590565b6060906003190112611a92576004356001600160a01b0381168103611a9257906024359060443590565b6080906003190112611a92576004356001600160a01b0381168103611a925790602435906044359060643590565b6040906003190112611a92576004359060243590565b600254811015611ce757600260005260011b7f405787fa12a823e0f2b7631cc41b3ba8828b3321ca811111fa75cd3aa3bb5ace0190600090565b634e487b7160e01b600052603260045260246000fd5b90600182811c92168015611d2d575b6020831014611d1757565b634e487b7160e01b600052602260045260246000fd5b91607f1691611d0c565b9060405191826000825492611d4b84611cfd565b908184526001948581169081600014611dba5750600114611d77575b5050611d7592500383611b36565b565b9093915060005260209081600020936000915b818310611da2575050611d7593508201013880611d67565b85548884018501529485019487945091830191611d8a565b915050611d7594506020925060ff191682840152151560051b8201013880611d67565b9080601f83011215611a92578135906001600160401b0392838311611aea578260051b60405194602094611e1386840188611b36565b8652848087019284010193808511611a9257858401925b858410611e3b575050505050505090565b8335838111611a92578791611e55848480948a0101611ba9565b815201930192611e2a565b15611e6757565b60405162461bcd60e51b815260206004820152603060248201527f43544d5257413030313a20546869732063616e206f6e6c792062652063616c6c60448201526f0cac840c4f24086a89aa4ae82606062b60831b6064820152608490fd5b6000198114611ed45760010190565b634e487b7160e01b600052601160045260246000fd5b8051821015611ce75760209160051b010190565b600080549293909290916001600160a01b03918216911603611fef578251815103611f8c57815b8351811015611f8357611f45611f3b8286611eea565b5161145e46612034565b15611f59575b611f5490611ec5565b611f25565b611f78611f668286611eea565b51611f718385611eea565b51906121b3565b611f4b575050905090565b50505050600190565b60405162461bcd60e51b815260206004820152603560248201527f43544d5257413030313a204c656e677468206d69736d6174636820636861696e60448201527449647320616e6420636f6e7472616374416464727360581b6064820152608490fd5b60405162461bcd60e51b815260206004820152601e60248201527f43544d525741303031583a2041646d696e4f6e6c792066756e6374696f6e00006044820152606490fd5b806000917a184f03e93ff9f4daa797ed6e38ed64bf6a1f0100000000000000008082101561218e575b506d04ee2d6d415b85acef81000000008083101561217f575b50662386f26fc1000080831015612170575b506305f5e10080831015612161575b5061271080831015612152575b506064821015612142575b600a80921015612138575b600190816021818601956120cd87611b57565b966120db6040519889611b36565b8088526120ea601f1991611b57565b01366020890137860101905b612102575b5050505090565b600019019083906f181899199a1a9b1b9c1cb0b131b232b360811b8282061a835304918215612133579190826120f6565b6120fb565b91600101916120ba565b91906064600291049101916120af565b600491939204910191386120a4565b60089193920491019138612097565b60109193920491019138612088565b60209193920491019138612076565b60409350810491503861205d565b8181106121a7575050565b6000815560010161219c565b60025490929160005b82811061240f575060408051946001600160401b0391860182811187821017611aea576040528552602094858101928352600160401b841015611aea5761220a600194858101600255611cad565b9190916123f9575190815190838211611aea5785916122298254611cfd565b93601f948a8682116123ca575b50508990858311600114612364576000919083612359575b5050600019600383901b1c191690831b1781555b019251958651928311611aea576122798454611cfd565b828111612321575b50809183116001146122bc575081929394956000926122b1575b5050600019600383901b1c191690831b17905590565b01519050388061229b565b90601f198316968460005282600020926000905b89821061230a57505083869798969596106122f1575b505050811b01905590565b015160001960f88460031b161c191690553880806122e6565b8088859682949686015181550195019301906122d0565b61234a9085600052826000208480870160051c820192858810612350575b0160051c019061219c565b38612281565b9250819261233f565b01519050388061224e565b90601f19831691846000528b6000209260005b8d8282106123b4575050908487959493921061239b575b505050811b018155612262565b015160001960f88460031b161c1916905538808061238e565b8385015186558c98909501949384019301612377565b6123f2918560005287826000209181870160051c8301938710612350570160051c019061219c565b388a612236565b634e487b7160e01b600052600060045260246000fd5b61242a8561242561241f84611cad565b50611d37565b6137a8565b61243c5761243790611ec5565b6121bc565b50600093505050565b6002549060005b8281106124695750505060405161246281611b1b565b6000815290565b61248861247582611cad565b506124256124828561380d565b91611d37565b61249a5761249590611ec5565b61244c565b611bc49250600191506124ac90611cad565b5001611d37565b6124bf6124c59161380d565b9161380d565b6002549160005b8381106124dc5750505050600090565b6124f16124eb61241f83611cad565b836137a8565b80612509575b611f835761250490611ec5565b6124cc565b5061252161251b60016124ac84611cad565b846137a8565b6124f7565b600854811015611ce7576006906008600052027ff3f7a9fe364faab93b216da50a3214154f22a0a2b415b23a84c8169e8b636ee30190600090565b61256d61059a8261296b565b60005260096020526002612585604060002054612526565b50015490565b1561259257565b60405162461bcd60e51b815260206004820152601b60248201527f43544d5257413030313a20696e76616c696420746f6b656e20494400000000006044820152606490fd5b6125e361059a8261296b565b60005260096020526125f9604060002054612526565b50600301546001600160a01b031690611d7582151561258b565b61261f61059a8261296b565b60005260096020526001612585604060002054612526565b602081830312611a92578051906001600160401b038211611a92570181601f82011215611a9257805161266981611b57565b926126776040519485611b36565b81845260208284010111611a9257611bc49160208085019101611a34565b91908201809211611ed457565b908151811015611ce7570160200190565b156126ba57565b60405162461bcd60e51b8152602060048201526024808201527f43544d5257413030313a20617070726f76616c20746f2063757272656e74206f6044820152633bb732b960e11b6064820152608490fd5b61271761059a8261296b565b600052600760205260406000209060018060a01b031660005260205260406000205490565b6001600160a01b0316801561275c57600052600a60205260406000205490565b60405162461bcd60e51b815260206004820152602d60248201527f43544d5257413030313a2062616c616e636520717565727920666f722074686560448201526c207a65726f206164647265737360981b6064820152608490fd5b156127be57565b60405162461bcd60e51b815260206004820152603460248201527f43544d5257413030313a207472616e736665722063616c6c6572206973206e6f6044820152731d081bdddb995c881b9bdc88185c1c1c9bdd995960621b6064820152608490fd5b9061284493929161283461141f84336128ed565b61283f838383613386565b61369a565b1561284b57565b60405162461bcd60e51b815260206004820152602960248201527f43544d5257413030313a207472616e7366657220746f206e6f6e20455243373260448201526818a932b1b2b4bb32b960b91b6064820152608490fd5b6128ae61059a8261296b565b60005260096020526128c4604060002054612526565b50600401546001600160a01b031690565b8054821015611ce75760005260206000200190600090565b906001600160a01b038080612901846125d7565b16931691838314938415612934575b50831561291e575b50505090565b61292a919293506128a2565b1614388080612918565b909350600052600a60205260026040600020018260005260205260ff604060002054169238612910565b91908203918211611ed457565b6008541515908161297a575090565b8091506000526009602052612993604060002054612526565b50541490565b9392916001600160a01b0385168015612b23578215612ad2576129bb8361296b565b612a8d57604051956129cc87611b1b565b600096878152604051906129df82611b00565b85825284602083015288604083015283606083015288608083015260a082015260085485895260096020528060408a2055600160401b811015612a7957858093611571611d759a9b96946110da856001612a3c9701600855612526565b826000805160206139778339815191528180a4827fe4f48c240d3b994948aa54f3e2f5fca59263dfe1d52b6e4cf39a5d249b5ccb658280a4612b74565b634e487b7160e01b89526041600452602489fd5b60405162461bcd60e51b815260206004820152601f60248201527f43544d5257413030313a20746f6b656e20616c7265616479206d696e746564006044820152606490fd5b60405162461bcd60e51b815260206004820152602360248201527f43544d5257413030313a2063616e6e6f74206d696e74207a65726f20746f6b656044820152621b925960ea1b6064820152608490fd5b60405162461bcd60e51b815260206004820152602360248201527f43544d5257413030313a206d696e7420746f20746865207a65726f206164647260448201526265737360e81b6064820152608490fd5b906000805160206139578339815191526020600092848452600982526002612b9f6040862054612526565b5001612bac828254612695565b9055604051908152a3565b60009082825260096020526003612bd16040842054612526565b500180546001600160a01b0319166001600160a01b039092169182179055808252600a602081815260408085208054878752600191909101835281862055928452528120805491600160401b831015612c52575081612c39916001611d7595940181556128d5565b90919082549060031b91821b91600019901b1916179055565b634e487b7160e01b81526041600452602490fd5b60009082825260096020526003612c806040842054612526565b500180546001600160a01b03191690556001600160a01b03168152600a6020526040812080546000199391929190848101908111612d3557612cc290846128d5565b90549060031b1c6001840182845280602052604084205491612ce881612c3985896128d5565b8452602052604083205581528060408120558154908115612d215750820191612d1183836128d5565b909182549160031b1b1916905555565b634e487b7160e01b81526031600452602490fd5b634e487b7160e01b83526011600452602483fd5b80546000825580612d58575050565b611d759160005260206000209081019061219c565b91906123f957805182556020908181015192600193848201556040820151600282015560a060056003830192600180841b039384606087015116906bffffffffffffffffffffffff851b91828254161790556004820190856080880151169082541617905501920151928351936001600160401b038511611aea57600160401b8511611aea5781908454868655808710612e33575b500192600052806000209160005b858110612e205750505050505050565b8451821684820155938201938601612e10565b612e4a90866000528784600020918201910161219c565b38612e02565b8160005260096020526004612e69604060002054612526565b500180546001600160a01b0319166001600160a01b0392831690811790915590612e92836125d7565b167f8c5be1e5ebec7d5bd14f71427d1e84f3dd0314c0f7b2291e5b200ac8c7c3b925600080a4565b6001600160a01b038083169391928415612f9e5783612ed891613070565b15612f26575b5060207f621b050de0ad08b51d19b48b3e6df75348c4de6bdd93e81b252ca62e28265b1b918360005260078252604060002085600052825280604060002055604051908152a3565b8260005260096020526005612f3f604060002054612526565b500191825491600160401b831015611aea57612f84837f621b050de0ad08b51d19b48b3e6df75348c4de6bdd93e81b252ca62e28265b1b9560016020960181556128d5565b819291549060031b9188831b921b19161790559150612ede565b60405162461bcd60e51b815260206004820152602c60248201527f43544d5257413030313a20617070726f76652076616c756520746f207468652060448201526b7a65726f206164647265737360a01b6064820152608490fd5b6000818152602090600982526040600561301482842054612526565b500193845493835b85811061303257505050505050611d7590612d49565b8061304061306b92896128d5565b90548588526007855286882060039290921b1c6001600160a01b031687528352848620869055611ec5565b61301c565b600090828252600960209080825260409061308d82862054612526565b509260058094015496865b8881106130ab5750505050505050905090565b8188528383526130c981876130c2888c2054612526565b50016128d5565b905460039190911b1c6001600160a01b03908116908816146130f3576130ee90611ec5565b613098565b505050505050505050600190565b61310a8161296b565b1561332f576131188261296b565b156132da5780600052602092600984526040926131388460002054612526565b50816000526009865261314e8560002054612526565b5090600281019081549085821061328157600101546001840154036132245791600291613181866131be9897969561295e565b90550161318f838254612695565b90558083600080516020613957833981519152888851868152a38451926131b584611b1b565b60008452613541565b156131c7575050565b60849250519062461bcd60e51b82526004820152603160248201527f43544d5257413030313a207472616e736665722072656a65637465642062792060448201527021aa26a92ba0981818a932b1b2b4bb32b960791b6064820152fd5b865162461bcd60e51b815260048101899052603060248201527f43544d5257413030313a207472616e7366657220746f20746f6b656e2077697460448201526f1a08191a5999995c995b9d081cdb1bdd60821b6064820152608490fd5b875162461bcd60e51b8152600481018a9052602c60248201527f43544d5257413030313a20696e73756666696369656e742062616c616e63652060448201526b3337b9103a3930b739b332b960a11b6064820152608490fd5b60405162461bcd60e51b815260206004820152602760248201527f43544d5257413030313a207472616e7366657220746f20696e76616c696420746044820152661bdad95b88125160ca1b6064820152608490fd5b60405162461bcd60e51b815260206004820152602960248201527f43544d5257413030313a207472616e736665722066726f6d20696e76616c6964604482015268081d1bdad95b88125160ba1b6064820152608490fd5b61338f836125d7565b6001600160a01b038083169291811683900361349d5780841693841561344857856134449161157182600080516020613977833981519152966133d182612613565b506133db82612561565b508160008098828252600960205260046133f86040842054612526565b500180546001600160a01b0319169055613411836125d7565b167f8c5be1e5ebec7d5bd14f71427d1e84f3dd0314c0f7b2291e5b200ac8c7c3b9258280a461343f82612ff8565b612c66565b80a4565b60405162461bcd60e51b815260206004820152602760248201527f43544d5257413030313a207472616e7366657220746f20746865207a65726f206044820152666164647265737360c81b6064820152608490fd5b60405162461bcd60e51b815260206004820152602660248201527f43544d5257413030313a207472616e736665722066726f6d20696e76616c69646044820152651037bbb732b960d11b6064820152608490fd5b90816020910312611a9257516001600160e01b031981168103611a925790565b3d1561353c573d9061352282611b57565b916135306040519384611b36565b82523d6000602084013e565b606090565b92909261354d846125d7565b803b63ffffffff1615613690576040516301ffc9a760e01b8152633abe4f5560e21b6004820181905295602095926001600160a01b0316918681602481865afa809160009161365a575b50906135b35750505050505050506135ad613511565b50600190565b1561364e57600086946135f2604051978896879586948d865233600487015260248601526044850152606484015260a0608484015260a4830190611a57565b03925af191821561364257600092613615575b50506001600160e01b0319161490565b6136349250803d1061363b575b61362c8183611b36565b8101906134f1565b3880613605565b503d613622565b6040513d6000823e3d90fd5b50505050505050600190565b8881813d8311613689575b61366f8183611b36565b810103126102505751908115158203610283575038613597565b503d613665565b5050505050600190565b9192813b63ffffffff1615611f83576020916136f2916000604051958680958194630a85bd0160e11b9a8b845233600485015260018060a01b0380951660248501526044840152608060648401526084830190611a57565b0393165af160009181613788575b5061377a5761370d613511565b805190816137755760405162461bcd60e51b815260206004820152603260248201527f4552433732313a207472616e7366657220746f206e6f6e20455243373231526560448201527131b2b4bb32b91034b6b83632b6b2b73a32b960711b6064820152608490fd5b602001fd5b6001600160e01b0319161490565b6137a191925060203d811161363b5761362c8183611b36565b9038613700565b9060405191826137c46020820192602084526040830190611a57565b03926137d8601f1994858101835282611b36565b5190209161380660405191826137fa6020820195602087526040830190611a57565b03908101835282611b36565b5190201490565b90815161381981611b57565b906138276040519283611b36565b808252613836601f1991611b57565b01602090368284013760005b84518110156138e95761385581866126a2565b5190604160f892831c1015806138d2575b156138ab578261387682886126a2565b51831c019160ff8311611ed4576138a692901b6001600160f81b03191660001a6138a082866126a2565b53611ec5565b613842565b6138a691506001600160f81b03196138c382886126a2565b511660001a6138a082866126a2565b50605a6138df82886126a2565b51831c1115613866565b5090925050565b156138f757565b60405162461bcd60e51b815260206004820152603160248201527f43544d5257413030313a2063616c6c6572206973206e6f7420746f6b656e206f6044820152701ddb995c881b9bdc88185c1c1c9bdd9959607a1b6064820152608490fdfe0b2aac84f3ec956911fd78eae5311062972ff949f38412e8da39069d9f068cc6ddf252ad1be2c89b69c2b068fc378daa952ba7f163c4a11628f55a4df523b3efa264697066735822122046b1269b784b4dc00a4c45c83f47ab6e529bed1776094ce87ad54f11817c539a64736f6c63430008140033",
  "linkReferences": {},
  "deployedLinkReferences": {}
}