{
  "_format": "hh-sol-artifact-1",
  "contractName": "C3CallerProxy",
  "sourceName": "contracts/c3Caller/C3CallerProxy.sol",
  "abi": [
    {
      "anonymous": false,
      "inputs": [
        {
          "indexed": false,
          "internalType": "address",
          "name": "previousAdmin",
          "type": "address"
        },
        {
          "indexed": false,
          "internalType": "address",
          "name": "newAdmin",
          "type": "address"
        }
      ],
      "name": "AdminChanged",
      "type": "event"
    },
    {
      "anonymous": false,
      "inputs": [
        {
          "indexed": true,
          "internalType": "address",
          "name": "oldGov",
          "type": "address"
        },
        {
          "indexed": true,
          "internalType": "address",
          "name": "newGov",
          "type": "address"
        },
        {
          "indexed": false,
          "internalType": "uint256",
          "name": "timestamp",
          "type": "uint256"
        }
      ],
      "name": "ApplyGov",
      "type": "event"
    },
    {
      "anonymous": false,
      "inputs": [
        {
          "indexed": true,
          "internalType": "address",
          "name": "beacon",
          "type": "address"
        }
      ],
      "name": "BeaconUpgraded",
      "type": "event"
    },
    {
      "anonymous": false,
      "inputs": [
        {
          "indexed": true,
          "internalType": "address",
          "name": "oldGov",
          "type": "address"
        },
        {
          "indexed": true,
          "internalType": "address",
          "name": "newGov",
          "type": "address"
        },
        {
          "indexed": false,
          "internalType": "uint256",
          "name": "timestamp",
          "type": "uint256"
        }
      ],
      "name": "ChangeGov",
      "type": "event"
    },
    {
      "anonymous": false,
      "inputs": [
        {
          "indexed": false,
          "internalType": "uint8",
          "name": "version",
          "type": "uint8"
        }
      ],
      "name": "Initialized",
      "type": "event"
    },
    {
      "anonymous": false,
      "inputs": [
        {
          "indexed": true,
          "internalType": "address",
          "name": "previousOwner",
          "type": "address"
        },
        {
          "indexed": true,
          "internalType": "address",
          "name": "newOwner",
          "type": "address"
        }
      ],
      "name": "OwnershipTransferred",
      "type": "event"
    },
    {
      "anonymous": false,
      "inputs": [
        {
          "indexed": true,
          "internalType": "address",
          "name": "implementation",
          "type": "address"
        }
      ],
      "name": "Upgraded",
      "type": "event"
    },
    {
      "inputs": [
        {
          "internalType": "address",
          "name": "_op",
          "type": "address"
        }
      ],
      "name": "addOperator",
      "outputs": [],
      "stateMutability": "nonpayable",
      "type": "function"
    },
    {
      "inputs": [],
      "name": "applyGov",
      "outputs": [],
      "stateMutability": "nonpayable",
      "type": "function"
    },
    {
      "inputs": [
        {
          "internalType": "uint256",
          "name": "_dappID",
          "type": "uint256"
        },
        {
          "components": [
            {
              "internalType": "bytes32",
              "name": "uuid",
              "type": "bytes32"
            },
            {
              "internalType": "address",
              "name": "to",
              "type": "address"
            },
            {
              "internalType": "string",
              "name": "fromChainID",
              "type": "string"
            },
            {
              "internalType": "string",
              "name": "sourceTx",
              "type": "string"
            },
            {
              "internalType": "string",
              "name": "fallbackTo",
              "type": "string"
            },
            {
              "internalType": "bytes",
              "name": "data",
              "type": "bytes"
            }
          ],
          "internalType": "struct C3CallerStructLib.C3EvmMessage",
          "name": "_message",
          "type": "tuple"
        }
      ],
      "name": "c3Fallback",
      "outputs": [],
      "stateMutability": "nonpayable",
      "type": "function"
    },
    {
      "inputs": [
        {
          "internalType": "uint256",
          "name": "_dappID",
          "type": "uint256"
        },
        {
          "internalType": "string[]",
          "name": "_to",
          "type": "string[]"
        },
        {
          "internalType": "string[]",
          "name": "_toChainIDs",
          "type": "string[]"
        },
        {
          "internalType": "bytes",
          "name": "_data",
          "type": "bytes"
        }
      ],
      "name": "c3broadcast",
      "outputs": [],
      "stateMutability": "nonpayable",
      "type": "function"
    },
    {
      "inputs": [
        {
          "internalType": "uint256",
          "name": "_dappID",
          "type": "uint256"
        },
        {
          "internalType": "string",
          "name": "_to",
          "type": "string"
        },
        {
          "internalType": "string",
          "name": "_toChainID",
          "type": "string"
        },
        {
          "internalType": "bytes",
          "name": "_data",
          "type": "bytes"
        },
        {
          "internalType": "bytes",
          "name": "_extra",
          "type": "bytes"
        }
      ],
      "name": "c3call",
      "outputs": [],
      "stateMutability": "nonpayable",
      "type": "function"
    },
    {
      "inputs": [
        {
          "internalType": "uint256",
          "name": "_dappID",
          "type": "uint256"
        },
        {
          "internalType": "string",
          "name": "_to",
          "type": "string"
        },
        {
          "internalType": "string",
          "name": "_toChainID",
          "type": "string"
        },
        {
          "internalType": "bytes",
          "name": "_data",
          "type": "bytes"
        }
      ],
      "name": "c3call",
      "outputs": [],
      "stateMutability": "nonpayable",
      "type": "function"
    },
    {
      "inputs": [],
      "name": "c3caller",
      "outputs": [
        {
          "internalType": "address",
          "name": "",
          "type": "address"
        }
      ],
      "stateMutability": "view",
      "type": "function"
    },
    {
      "inputs": [
        {
          "internalType": "address",
          "name": "_gov",
          "type": "address"
        }
      ],
      "name": "changeGov",
      "outputs": [],
      "stateMutability": "nonpayable",
      "type": "function"
    },
    {
      "inputs": [],
      "name": "context",
      "outputs": [
        {
          "internalType": "bytes32",
          "name": "swapID",
          "type": "bytes32"
        },
        {
          "internalType": "string",
          "name": "fromChainID",
          "type": "string"
        },
        {
          "internalType": "string",
          "name": "sourceTx",
          "type": "string"
        }
      ],
      "stateMutability": "view",
      "type": "function"
    },
    {
      "inputs": [
        {
          "internalType": "uint256",
          "name": "_dappID",
          "type": "uint256"
        },
        {
          "components": [
            {
              "internalType": "bytes32",
              "name": "uuid",
              "type": "bytes32"
            },
            {
              "internalType": "address",
              "name": "to",
              "type": "address"
            },
            {
              "internalType": "string",
              "name": "fromChainID",
              "type": "string"
            },
            {
              "internalType": "string",
              "name": "sourceTx",
              "type": "string"
            },
            {
              "internalType": "string",
              "name": "fallbackTo",
              "type": "string"
            },
            {
              "internalType": "bytes",
              "name": "data",
              "type": "bytes"
            }
          ],
          "internalType": "struct C3CallerStructLib.C3EvmMessage",
          "name": "_message",
          "type": "tuple"
        }
      ],
      "name": "execute",
      "outputs": [],
      "stateMutability": "nonpayable",
      "type": "function"
    },
    {
      "inputs": [],
      "name": "getAllOperators",
      "outputs": [
        {
          "internalType": "address[]",
          "name": "",
          "type": "address[]"
        }
      ],
      "stateMutability": "view",
      "type": "function"
    },
    {
      "inputs": [],
      "name": "gov",
      "outputs": [
        {
          "internalType": "address",
          "name": "",
          "type": "address"
        }
      ],
      "stateMutability": "view",
      "type": "function"
    },
    {
      "inputs": [
        {
          "internalType": "address",
          "name": "_c3caller",
          "type": "address"
        }
      ],
      "name": "initialize",
      "outputs": [],
      "stateMutability": "nonpayable",
      "type": "function"
    },
    {
      "inputs": [
        {
          "internalType": "address",
          "name": "sender",
          "type": "address"
        }
      ],
      "name": "isCaller",
      "outputs": [
        {
          "internalType": "bool",
          "name": "",
          "type": "bool"
        }
      ],
      "stateMutability": "view",
      "type": "function"
    },
    {
      "inputs": [
        {
          "internalType": "address",
          "name": "sender",
          "type": "address"
        }
      ],
      "name": "isExecutor",
      "outputs": [
        {
          "internalType": "bool",
          "name": "",
          "type": "bool"
        }
      ],
      "stateMutability": "view",
      "type": "function"
    },
    {
      "inputs": [
        {
          "internalType": "address",
          "name": "",
          "type": "address"
        }
      ],
      "name": "isOperator",
      "outputs": [
        {
          "internalType": "bool",
          "name": "",
          "type": "bool"
        }
      ],
      "stateMutability": "view",
      "type": "function"
    },
    {
      "inputs": [
        {
          "internalType": "uint256",
          "name": "",
          "type": "uint256"
        }
      ],
      "name": "operators",
      "outputs": [
        {
          "internalType": "address",
          "name": "",
          "type": "address"
        }
      ],
      "stateMutability": "view",
      "type": "function"
    },
    {
      "inputs": [],
      "name": "owner",
      "outputs": [
        {
          "internalType": "address",
          "name": "",
          "type": "address"
        }
      ],
      "stateMutability": "view",
      "type": "function"
    },
    {
      "inputs": [],
      "name": "pendingGov",
      "outputs": [
        {
          "internalType": "address",
          "name": "",
          "type": "address"
        }
      ],
      "stateMutability": "view",
      "type": "function"
    },
    {
      "inputs": [],
      "name": "proxiableUUID",
      "outputs": [
        {
          "internalType": "bytes32",
          "name": "",
          "type": "bytes32"
        }
      ],
      "stateMutability": "view",
      "type": "function"
    },
    {
      "inputs": [],
      "name": "renounceOwnership",
      "outputs": [],
      "stateMutability": "nonpayable",
      "type": "function"
    },
    {
      "inputs": [
        {
          "internalType": "address",
          "name": "_op",
          "type": "address"
        }
      ],
      "name": "revokeOperator",
      "outputs": [],
      "stateMutability": "nonpayable",
      "type": "function"
    },
    {
      "inputs": [
        {
          "internalType": "address",
          "name": "newOwner",
          "type": "address"
        }
      ],
      "name": "transferOwnership",
      "outputs": [],
      "stateMutability": "nonpayable",
      "type": "function"
    },
    {
      "inputs": [
        {
          "internalType": "address",
          "name": "newImplementation",
          "type": "address"
        }
      ],
      "name": "upgradeTo",
      "outputs": [],
      "stateMutability": "nonpayable",
      "type": "function"
    },
    {
      "inputs": [
        {
          "internalType": "address",
          "name": "newImplementation",
          "type": "address"
        },
        {
          "internalType": "bytes",
          "name": "data",
          "type": "bytes"
        }
      ],
      "name": "upgradeToAndCall",
      "outputs": [],
      "stateMutability": "payable",
      "type": "function"
    }
  ],
  "bytecode": "0x60a080604052346100315730608052611e4890816100378239608051818181610be301528181610cce015261105a0152f35b600080fdfe60406080815260048036101561001457600080fd5b600091823560e01c91826306757cbc1461147857826312d43a511461144f57826325240810146114265783836327a63fd814611313575082633659cfe614611033578263459c769514610f795782634f1ef28614610c9057826352d1902d14610bcf5782636d70f7ae14610371578263715018a614610b715782637ac07dcc14610b3d578383637c6fe7aa14610a3f575082638da5cb5b14610a165782639870d7fe146108cb578263a962ef1e1461085357838363ba44c73a146107df57508263c4d66de81461058f578263d0496d6a146104a1578263d2f09c5914610478578263d911c632146103b3578263debfda3014610371578263e28d49061461032f57838363ec6a8b7d1461020e57508263f2fde38b1461017a57505063fad8b32a1461013e57600080fd5b346101775760203660031901126101775761017461015a611636565b61016f60018060a01b0360c954163314611c63565b611ca1565b80f35b80fd5b9091503461020a57602036600319011261020a57610196611636565b9161019f611711565b6001600160a01b038316156101b8578361017484611769565b906020608492519162461bcd60e51b8352820152602660248201527f4f776e61626c653a206e6577206f776e657220697320746865207a65726f206160448201526564647265737360d01b6064820152fd5b8280fd5b9250903461032b57600319608036820112610326576001600160401b03906024358281116103225761024390369086016116e1565b60449291923584811161031e5761025d90369088016116e1565b909460643590811161031a576102769036908901611542565b97909560018060a01b0360cd541694853b15610316576102cb998b986102db6102ea948b978d519e8f9c8d9b8c9a63eea2d65760e01b8c528035908c01523360248c015260a060448c015260a48b0191611b3e565b91868984030160648a0152611b3e565b92858403016084860152611aec565b03925af190811561030d57506102fd5750f35b6103069061156f565b6101775780f35b513d84823e3d90fd5b8a80fd5b8880fd5b8780fd5b8580fd5b505050fd5b5050fd5b9091503461020a57602036600319011261020a57359160cc54831015610177575061035b602092611694565b905491519160018060a01b039160031b1c168152f35b8382346103af5760203660031901126103af5760209160ff9082906001600160a01b0361039c611636565b16815260cb855220541690519015158152f35b5080fd5b50823461017757806003193601126101775790805191829060cc54918285526020809501809360cc84527f47197230e1e4b29fc0bd84d7d78966c0925452aff72a2a121538b102457e9ebe90845b81811061045b57505050816104179103826115b3565b83519485948186019282875251809352850193925b82811061043b57505050500390f35b83516001600160a01b03168552869550938101939281019260010161042c565b82546001600160a01b031684529288019260019283019201610401565b8382346103af57816003193601126103af5760cd5490516001600160a01b039091168152602090f35b91503461020a578260031936011261020a5760cd548151636824b6b560e11b815292849184919082906001600160a01b03165afa8015610585578392848092610518575b505090610514916105078251958695865260606020870152606086019061166f565b918483039085015261166f565b0390f35b93509350503d8083853e61052c81856115b3565b830160608482031261020a578351936020810151906001600160401b0391828111610322578361055d918301611aa7565b948482015192831161017757509161057a91610514949301611aa7565b9392939091386104e5565b81513d85823e3d90fd5b91503461020a57602036600319011261020a576105aa611636565b9183549061069060ff808460081c1615938480956107d3575b80156107bd575b6105d3906119a1565b600196879160ff19908784838316178c556107ac575b50895490848260081c1615938491829586936107a1575b801561078c575b610610906119a1565b8316178b5561077b575b506001600160601b0360a01b91338360c954161760c95587514281528a7fff88f8815b3f9faf85529ba09d2f7ff0d9c726c11cc863fd245156986014259060203393a3610744575b60018060a01b03169060cd54161760cd55865460081c1661068281611a04565b61068b81611a04565b611a04565b61069933611769565b6106a1611711565b33156106f257506106b133611769565b6106b9578280f35b825461ff0019168355519081527f7f26b83ff96e1f2b6a682f133852f6798a09c465da95921460cefb384740249890602090a138808280f35b608490602084519162461bcd60e51b8352820152602660248201527f4f776e61626c653a206e6577206f776e657220697320746865207a65726f206160448201526564647265737360d01b6064820152fd5b61ff001989541689557f7f26b83ff96e1f2b6a682f133852f6798a09c465da95921460cefb3847402498602088518a8152a1610662565b61ffff19166101011789553861061a565b50303b15801561060757508387168214610607565b508187851610610600565b61ffff1916610101178a55386105e9565b50303b1580156105ca57508082166001146105ca565b506001828216106105c3565b9250903461032b576107f036611508565b60c9546001600160a01b039081163314801561083e575b61081090611a64565b60cd5416803b15610322576102ea948680948651978895869485936327502b9160e21b855233918501611ba1565b5033865260cb6020528386205460ff16610807565b8382346103af5760203660031901126103af5761086e611636565b60c9546001600160a01b03908116917fd098c548c6851f1e61d4e1364996748b40477bb1abe90254bd71352396b2b7be916020916108ad338614611c63565b1693846001600160601b0360a01b60ca54161760ca5551428152a380f35b8382346103af576020908160031936011261020a576108e8611636565b9160018060a01b036108ff8160c954163314611c63565b831680156109d55780855260cb825260ff838620541661098857845260cb90528220805460ff1916600117905560cc549268010000000000000000841015610975575061095683600161017494950160cc55611694565b90919082549060031b9160018060a01b03809116831b921b1916179055565b634e487b7160e01b835260419052602482fd5b825162461bcd60e51b8152808701839052602160248201527f433343616c6c65723a204f70657261746f7220616c72656164792065786973746044820152607360f81b6064820152608490fd5b606486838086519262461bcd60e51b845283015260248201527f433343616c6c65723a204f70657261746f7220697320616464726573732830296044820152fd5b8382346103af57816003193601126103af5760975490516001600160a01b039091168152602090f35b9250903461032b57600319608036820112610326576001600160401b0360243581811161032257610a739036908601611542565b91909460443582811161031e57610a8d9036908301611542565b9260643590811161031a57610aa59036908401611542565b95909360018060a01b0360cd541694853b15610316578a97889485938b519c8d9a8b996327ab5b7b60e01b8b528035908b01523360248b015260448a0160c0905260c48a0190610af492611aec565b90868983030160648a0152610b0892611aec565b9084878303016084880152610b1c92611aec565b84810392830160a486015252602001925af190811561030d57506102fd5750f35b8382346103af5760203660031901126103af57602090610b5b611636565b60018060a01b038060cd54169116149051908152f35b8334610177578060031936011261017757610b8a611711565b609780546001600160a01b031981169091556000906001600160a01b03167f8be0079c531659141344cd1fd0a4f28419497f9722a3daafe3b4186f6b6457e08280a380f35b8334610177578060031936011261017757507f00000000000000000000000000000000000000000000000000000000000000006001600160a01b03163003610c285760208251600080516020611df38339815191528152f35b6020608492519162461bcd60e51b8352820152603860248201527f555550535570677261646561626c653a206d757374206e6f742062652063616c60448201527f6c6564207468726f7567682064656c656761746563616c6c00000000000000006064820152fd5b91508060031936011261020a57610ca5611636565b906024356001600160401b038111610f7557610cc490369085016115ef565b6001600160a01b037f00000000000000000000000000000000000000000000000000000000000000008116929190610cfe308514156117b2565b610d1b600080516020611df3833981519152948286541614611813565b8060c9541633148015610f60575b610d3290611a64565b7f4910fdfa16fed3260ed0e7147f7cc6da11a60208b5b9406d12a635614ffd91435460ff1615610d6a57505050506101749150611874565b82516352d1902d60e01b81526020959394918416919086818981865afa60009181610f31575b50610def57855162461bcd60e51b8152808901889052602e60248201527f45524331393637557067726164653a206e657720696d706c656d656e7461746960448201526d6f6e206973206e6f74205555505360901b6064820152608490fd5b9691929594939603610edc5750610e0585611874565b7fbc7cd75a20ee27fd9adebab32041f755214dbc6bffa90cc0225b39da2e5c2d3b600080a2825115801590610ed4575b610e41575b5050505080f35b610ec093600080835195610e5487611598565b602787527f416464726573733a206c6f772d6c6576656c2064656c65676174652063616c6c86880152660819985a5b195960ca1b858801528581519101845af4913d15610eca573d610eb1610ea8826115d4565b925192836115b3565b8152600081943d92013e611904565b5038808080610e3a565b5060609250611904565b506001610e35565b825162461bcd60e51b8152908101849052602960248201527f45524331393637557067726164653a20756e737570706f727465642070726f786044820152681a58589b195555525160ba1b6064820152608490fd5b90918882813d8311610f59575b610f4881836115b3565b810103126101775750519038610d90565b503d610f3e565b5033875260cb6020528287205460ff16610d29565b8480fd5b8390346103af57816003193601126103af5760ca54906001600160a01b038216908115610ff0575060207fff88f8815b3f9faf85529ba09d2f7ff0d9c726c11cc863fd24515698601425909184809660c954956001600160601b0360a01b90848289161760c9551660ca555194428652161792a380f35b606490602086519162461bcd60e51b8352820152601760248201527f4333476f763a20656d7074792070656e64696e67476f760000000000000000006044820152fd5b91503461020a5760208060031936011261130f5761104f611636565b916001600160a01b037f00000000000000000000000000000000000000000000000000000000000000008116611087308214156117b2565b6110a4600080516020611df3833981519152918383541614611813565b8160c95416331480156112fb575b6110bb90611a64565b825190848201928284106001600160401b038511176112e6578385528883527f4910fdfa16fed3260ed0e7147f7cc6da11a60208b5b9406d12a635614ffd91435460ff1615611114575050505050506101749150611874565b869293949596169085516352d1902d60e01b815287818a81865afa600091816112b7575b5061119757865162461bcd60e51b8152808a01899052602e60248201527f45524331393637557067726164653a206e657720696d706c656d656e7461746960448201526d6f6e206973206e6f74205555505360901b6064820152608490fd5b97919293969594970361126257506111ae82611874565b7fbc7cd75a20ee27fd9adebab32041f755214dbc6bffa90cc0225b39da2e5c2d3b600080a283511580159061125a575b6111eb575b505050505080f35b60008061124f968451966111fe88611598565b602788527f416464726573733a206c6f772d6c6576656c2064656c65676174652063616c6c87890152660819985a5b195960ca1b868901525190845af4913d15610eca573d610eb1610ea8826115d4565b5038808080806111e3565b5060006111de565b835162461bcd60e51b8152908101859052602960248201527f45524331393637557067726164653a20756e737570706f727465642070726f786044820152681a58589b195555525160ba1b6064820152608490fd5b90918982813d83116112df575b6112ce81836115b3565b810103126101775750519038611138565b503d6112c4565b604188634e487b7160e01b6000525260246000fd5b5033875260cb84528287205460ff166110b2565b8380fd5b9250903461032b5760031960a036820112610326576001600160401b03602435818111610322576113479036908601611542565b60449291923582811161031e576113619036908801611542565b96606435848111611422576113799036908301611542565b9690946084359081116103165761139390369084016115ef565b60cd546001600160a01b031695909190863b1561141e578b9889958b519c8d9a8b998a986327ab5b7b60e01b8a528035908a01523360248a01526044890160c0905260c48901906113e392611aec565b90858883030160648901526113f792611aec565b908386830301608487015261140b92611aec565b908382030160a48401526102ea9161166f565b8b80fd5b8980fd5b8382346103af57816003193601126103af5760ca5490516001600160a01b039091168152602090f35b8382346103af57816003193601126103af5760c95490516001600160a01b039091168152602090f35b91503461020a578261148936611508565b909360018060a01b038060c95416331480156114f3575b6114a990611a64565b60cd541690813b1561130f57836114d69686519788958694859363011c033160e21b855233918501611ba1565b03925af190811561030d57506114ea575080f35b6101749061156f565b5033845260cb6020528484205460ff166114a0565b9060031960408184011261153d5760043592602435916001600160401b03831161153d578260c09203011261153d5760040190565b600080fd5b9181601f8401121561153d578235916001600160401b03831161153d576020838186019501011161153d57565b6001600160401b03811161158257604052565b634e487b7160e01b600052604160045260246000fd5b606081019081106001600160401b0382111761158257604052565b90601f801991011681019081106001600160401b0382111761158257604052565b6001600160401b03811161158257601f01601f191660200190565b81601f8201121561153d57803590611606826115d4565b9261161460405194856115b3565b8284526020838301011161153d57816000926020809301838601378301015290565b600435906001600160a01b038216820361153d57565b60005b83811061165f5750506000910152565b818101518382015260200161164f565b906020916116888151809281855285808601910161164c565b601f01601f1916010190565b60cc548110156116cb5760cc6000527f47197230e1e4b29fc0bd84d7d78966c0925452aff72a2a121538b102457e9ebe0190600090565b634e487b7160e01b600052603260045260246000fd5b9181601f8401121561153d578235916001600160401b03831161153d576020808501948460051b01011161153d57565b6097546001600160a01b0316330361172557565b606460405162461bcd60e51b815260206004820152602060248201527f4f776e61626c653a2063616c6c6572206973206e6f7420746865206f776e65726044820152fd5b609780546001600160a01b039283166001600160a01b0319821681179092559091167f8be0079c531659141344cd1fd0a4f28419497f9722a3daafe3b4186f6b6457e0600080a3565b156117b957565b60405162461bcd60e51b815260206004820152602c60248201527f46756e6374696f6e206d7573742062652063616c6c6564207468726f7567682060448201526b19195b1959d85d1958d85b1b60a21b6064820152608490fd5b1561181a57565b60405162461bcd60e51b815260206004820152602c60248201527f46756e6374696f6e206d7573742062652063616c6c6564207468726f7567682060448201526b6163746976652070726f787960a01b6064820152608490fd5b803b156118a957600080516020611df383398151915280546001600160a01b0319166001600160a01b03909216919091179055565b60405162461bcd60e51b815260206004820152602d60248201527f455243313936373a206e657720696d706c656d656e746174696f6e206973206e60448201526c1bdd08184818dbdb9d1c9858dd609a1b6064820152608490fd5b919290156119665750815115611918575090565b3b156119215790565b60405162461bcd60e51b815260206004820152601d60248201527f416464726573733a2063616c6c20746f206e6f6e2d636f6e74726163740000006044820152606490fd5b8251909150156119795750805190602001fd5b60405162461bcd60e51b81526020600482015290819061199d90602483019061166f565b0390fd5b156119a857565b60405162461bcd60e51b815260206004820152602e60248201527f496e697469616c697a61626c653a20636f6e747261637420697320616c72656160448201526d191e481a5b9a5d1a585b1a5e995960921b6064820152608490fd5b15611a0b57565b60405162461bcd60e51b815260206004820152602b60248201527f496e697469616c697a61626c653a20636f6e7472616374206973206e6f74206960448201526a6e697469616c697a696e6760a81b6064820152608490fd5b15611a6b57565b60405162461bcd60e51b81526020600482015260146024820152732199a3b7bb1d1037b7363c9027b832b930ba37b960611b6044820152606490fd5b81601f8201121561153d578051611abd816115d4565b92611acb60405194856115b3565b8184526020828401011161153d57611ae9916020808501910161164c565b90565b908060209392818452848401376000828201840152601f01601f1916010190565b9035601e198236030181121561153d5701602081359101916001600160401b03821161153d57813603831361153d57565b9082818152602080910193818360051b82010194846000925b858410611b68575050505050505090565b909192939495968580611b90600193601f19868203018852611b8a8c88611b0d565b90611aec565b990194019401929594939190611b57565b929190835260018060a01b0380911660208401526060604084015281356060840152602082013590811680910361153d5782610100916080611ae9950152611c01611bef6040850185611b0d565b60c060a0850152610120840191611aec565b90611c54611c49611c2c611c186060880188611b0d565b605f19868803810160c08801529691611aec565b611c396080880188611b0d565b90868684030160e0870152611aec565b9460a0810190611b0d565b93909282860301910152611aec565b15611c6a57565b60405162461bcd60e51b815260206004820152600f60248201526e2199a3b7bb1d1037b7363c9023b7bb60891b6044820152606490fd5b6001600160a01b03908116600081815260cb60205260408120549192909160ff1615611dad5782825260cb60205260408220805460ff1916905560cc8054835b818110611cf057505050505050565b8386611cfb83611694565b929054600393841b1c1614611d3057506000198114611d1c57600101611ce1565b634e487b7160e01b85526011600452602485fd5b95509193600019929091838101908111611d99579061095685611d55611d6294611694565b9054908a1b1c1691611694565b8354908115611d8557500192611d7784611694565b81939154921b1b1916905555565b634e487b7160e01b81526031600452602490fd5b634e487b7160e01b83526011600452602483fd5b60405162461bcd60e51b815260206004820152601c60248201527f433343616c6c65723a204f70657261746f72206e6f7420666f756e64000000006044820152606490fdfe360894a13ba1a3210667c828492db98dca3e2076cc3735a920a3ca505d382bbca26469706673582212209e6b7ac500fe8f8c8516a7f7c08d40fd063347b48b67369010f4b81f4cd7849664736f6c63430008140033",
  "linkReferences": {},
  "deployedLinkReferences": {}
}