{
  "_format": "hh-sol-artifact-1",
  "contractName": "CTMRWA001BurnableUpgradeableWithInit",
  "sourceName": "contracts/mocks/CTMRWA001BaseMockUpgradeableWithInit.sol",
  "abi": [
    {
      "inputs": [
        {
          "internalType": "string",
          "name": "name_",
          "type": "string"
        },
        {
          "internalType": "string",
          "name": "symbol_",
          "type": "string"
        },
        {
          "internalType": "uint8",
          "name": "decimals_",
          "type": "uint8"
        },
        {
          "internalType": "address",
          "name": "_feeManager",
          "type": "address"
        },
        {
          "internalType": "address",
          "name": "_gov",
          "type": "address"
        },
        {
          "internalType": "address",
          "name": "_c3CallerProxy",
          "type": "address"
        },
        {
          "internalType": "address",
          "name": "_txSender",
          "type": "address"
        },
        {
          "internalType": "uint256",
          "name": "_dappID",
          "type": "uint256"
        }
      ],
      "stateMutability": "payable",
      "type": "constructor"
    },
    {
      "anonymous": false,
      "inputs": [
        {
          "indexed": true,
          "internalType": "address",
          "name": "_owner",
          "type": "address"
        },
        {
          "indexed": true,
          "internalType": "address",
          "name": "_approved",
          "type": "address"
        },
        {
          "indexed": true,
          "internalType": "uint256",
          "name": "_tokenId",
          "type": "uint256"
        }
      ],
      "name": "Approval",
      "type": "event"
    },
    {
      "anonymous": false,
      "inputs": [
        {
          "indexed": true,
          "internalType": "address",
          "name": "_owner",
          "type": "address"
        },
        {
          "indexed": true,
          "internalType": "address",
          "name": "_operator",
          "type": "address"
        },
        {
          "indexed": false,
          "internalType": "bool",
          "name": "_approved",
          "type": "bool"
        }
      ],
      "name": "ApprovalForAll",
      "type": "event"
    },
    {
      "anonymous": false,
      "inputs": [
        {
          "indexed": true,
          "internalType": "uint256",
          "name": "_tokenId",
          "type": "uint256"
        },
        {
          "indexed": true,
          "internalType": "address",
          "name": "_operator",
          "type": "address"
        },
        {
          "indexed": false,
          "internalType": "uint256",
          "name": "_value",
          "type": "uint256"
        }
      ],
      "name": "ApprovalValue",
      "type": "event"
    },
    {
      "anonymous": false,
      "inputs": [
        {
          "indexed": false,
          "internalType": "uint8",
          "name": "version",
          "type": "uint8"
        }
      ],
      "name": "Initialized",
      "type": "event"
    },
    {
      "anonymous": false,
      "inputs": [
        {
          "indexed": true,
          "internalType": "address",
          "name": "metadataDescriptor",
          "type": "address"
        }
      ],
      "name": "SetMetadataDescriptor",
      "type": "event"
    },
    {
      "anonymous": false,
      "inputs": [
        {
          "indexed": true,
          "internalType": "uint256",
          "name": "_tokenId",
          "type": "uint256"
        },
        {
          "indexed": true,
          "internalType": "uint256",
          "name": "_oldSlot",
          "type": "uint256"
        },
        {
          "indexed": true,
          "internalType": "uint256",
          "name": "_newSlot",
          "type": "uint256"
        }
      ],
      "name": "SlotChanged",
      "type": "event"
    },
    {
      "anonymous": false,
      "inputs": [
        {
          "indexed": true,
          "internalType": "address",
          "name": "_from",
          "type": "address"
        },
        {
          "indexed": true,
          "internalType": "address",
          "name": "_to",
          "type": "address"
        },
        {
          "indexed": true,
          "internalType": "uint256",
          "name": "_tokenId",
          "type": "uint256"
        }
      ],
      "name": "Transfer",
      "type": "event"
    },
    {
      "anonymous": false,
      "inputs": [
        {
          "indexed": true,
          "internalType": "uint256",
          "name": "_fromTokenId",
          "type": "uint256"
        },
        {
          "indexed": true,
          "internalType": "uint256",
          "name": "_toTokenId",
          "type": "uint256"
        },
        {
          "indexed": false,
          "internalType": "uint256",
          "name": "_value",
          "type": "uint256"
        }
      ],
      "name": "TransferValue",
      "type": "event"
    },
    {
      "inputs": [
        {
          "internalType": "uint256",
          "name": "tokenId_",
          "type": "uint256"
        },
        {
          "internalType": "address",
          "name": "operator_",
          "type": "address"
        }
      ],
      "name": "allowance",
      "outputs": [
        {
          "internalType": "uint256",
          "name": "",
          "type": "uint256"
        }
      ],
      "stateMutability": "view",
      "type": "function"
    },
    {
      "inputs": [
        {
          "internalType": "address",
          "name": "to_",
          "type": "address"
        },
        {
          "internalType": "uint256",
          "name": "tokenId_",
          "type": "uint256"
        }
      ],
      "name": "approve",
      "outputs": [],
      "stateMutability": "payable",
      "type": "function"
    },
    {
      "inputs": [
        {
          "internalType": "uint256",
          "name": "tokenId_",
          "type": "uint256"
        },
        {
          "internalType": "address",
          "name": "to_",
          "type": "address"
        },
        {
          "internalType": "uint256",
          "name": "value_",
          "type": "uint256"
        }
      ],
      "name": "approve",
      "outputs": [],
      "stateMutability": "payable",
      "type": "function"
    },
    {
      "inputs": [
        {
          "internalType": "address",
          "name": "owner_",
          "type": "address"
        }
      ],
      "name": "balanceOf",
      "outputs": [
        {
          "internalType": "uint256",
          "name": "balance",
          "type": "uint256"
        }
      ],
      "stateMutability": "view",
      "type": "function"
    },
    {
      "inputs": [
        {
          "internalType": "uint256",
          "name": "tokenId_",
          "type": "uint256"
        }
      ],
      "name": "balanceOf",
      "outputs": [
        {
          "internalType": "uint256",
          "name": "",
          "type": "uint256"
        }
      ],
      "stateMutability": "view",
      "type": "function"
    },
    {
      "inputs": [
        {
          "internalType": "uint256",
          "name": "tokenId_",
          "type": "uint256"
        }
      ],
      "name": "burn",
      "outputs": [],
      "stateMutability": "nonpayable",
      "type": "function"
    },
    {
      "inputs": [
        {
          "internalType": "uint256",
          "name": "tokenId_",
          "type": "uint256"
        },
        {
          "internalType": "uint256",
          "name": "burnValue_",
          "type": "uint256"
        }
      ],
      "name": "burnValue",
      "outputs": [],
      "stateMutability": "nonpayable",
      "type": "function"
    },
    {
      "inputs": [],
      "name": "contractURI",
      "outputs": [
        {
          "internalType": "string",
          "name": "",
          "type": "string"
        }
      ],
      "stateMutability": "view",
      "type": "function"
    },
    {
      "inputs": [
        {
          "internalType": "uint256",
          "name": "tokenId_",
          "type": "uint256"
        }
      ],
      "name": "getApproved",
      "outputs": [
        {
          "internalType": "address",
          "name": "",
          "type": "address"
        }
      ],
      "stateMutability": "view",
      "type": "function"
    },
    {
      "inputs": [
        {
          "internalType": "address",
          "name": "owner_",
          "type": "address"
        },
        {
          "internalType": "address",
          "name": "operator_",
          "type": "address"
        }
      ],
      "name": "isApprovedForAll",
      "outputs": [
        {
          "internalType": "bool",
          "name": "",
          "type": "bool"
        }
      ],
      "stateMutability": "view",
      "type": "function"
    },
    {
      "inputs": [],
      "name": "metadataDescriptor",
      "outputs": [
        {
          "internalType": "contract ICTMRWA001MetadataDescriptorUpgradeable",
          "name": "",
          "type": "address"
        }
      ],
      "stateMutability": "view",
      "type": "function"
    },
    {
      "inputs": [
        {
          "internalType": "address",
          "name": "mintTo_",
          "type": "address"
        },
        {
          "internalType": "uint256",
          "name": "tokenId_",
          "type": "uint256"
        },
        {
          "internalType": "uint256",
          "name": "slot_",
          "type": "uint256"
        },
        {
          "internalType": "uint256",
          "name": "value_",
          "type": "uint256"
        }
      ],
      "name": "mint",
      "outputs": [],
      "stateMutability": "nonpayable",
      "type": "function"
    },
    {
      "inputs": [
        {
          "internalType": "uint256",
          "name": "tokenId_",
          "type": "uint256"
        },
        {
          "internalType": "uint256",
          "name": "value_",
          "type": "uint256"
        }
      ],
      "name": "mintValue",
      "outputs": [],
      "stateMutability": "nonpayable",
      "type": "function"
    },
    {
      "inputs": [],
      "name": "name",
      "outputs": [
        {
          "internalType": "string",
          "name": "",
          "type": "string"
        }
      ],
      "stateMutability": "view",
      "type": "function"
    },
    {
      "inputs": [
        {
          "internalType": "uint256",
          "name": "tokenId_",
          "type": "uint256"
        }
      ],
      "name": "ownerOf",
      "outputs": [
        {
          "internalType": "address",
          "name": "owner_",
          "type": "address"
        }
      ],
      "stateMutability": "view",
      "type": "function"
    },
    {
      "inputs": [
        {
          "internalType": "address",
          "name": "from_",
          "type": "address"
        },
        {
          "internalType": "address",
          "name": "to_",
          "type": "address"
        },
        {
          "internalType": "uint256",
          "name": "tokenId_",
          "type": "uint256"
        }
      ],
      "name": "safeTransferFrom",
      "outputs": [],
      "stateMutability": "payable",
      "type": "function"
    },
    {
      "inputs": [
        {
          "internalType": "address",
          "name": "from_",
          "type": "address"
        },
        {
          "internalType": "address",
          "name": "to_",
          "type": "address"
        },
        {
          "internalType": "uint256",
          "name": "tokenId_",
          "type": "uint256"
        },
        {
          "internalType": "bytes",
          "name": "data_",
          "type": "bytes"
        }
      ],
      "name": "safeTransferFrom",
      "outputs": [],
      "stateMutability": "payable",
      "type": "function"
    },
    {
      "inputs": [
        {
          "internalType": "address",
          "name": "operator_",
          "type": "address"
        },
        {
          "internalType": "bool",
          "name": "approved_",
          "type": "bool"
        }
      ],
      "name": "setApprovalForAll",
      "outputs": [],
      "stateMutability": "nonpayable",
      "type": "function"
    },
    {
      "inputs": [
        {
          "internalType": "uint256",
          "name": "tokenId_",
          "type": "uint256"
        }
      ],
      "name": "slotOf",
      "outputs": [
        {
          "internalType": "uint256",
          "name": "",
          "type": "uint256"
        }
      ],
      "stateMutability": "view",
      "type": "function"
    },
    {
      "inputs": [
        {
          "internalType": "uint256",
          "name": "slot_",
          "type": "uint256"
        }
      ],
      "name": "slotURI",
      "outputs": [
        {
          "internalType": "string",
          "name": "",
          "type": "string"
        }
      ],
      "stateMutability": "view",
      "type": "function"
    },
    {
      "inputs": [
        {
          "internalType": "bytes4",
          "name": "interfaceId",
          "type": "bytes4"
        }
      ],
      "name": "supportsInterface",
      "outputs": [
        {
          "internalType": "bool",
          "name": "",
          "type": "bool"
        }
      ],
      "stateMutability": "view",
      "type": "function"
    },
    {
      "inputs": [],
      "name": "symbol",
      "outputs": [
        {
          "internalType": "string",
          "name": "",
          "type": "string"
        }
      ],
      "stateMutability": "view",
      "type": "function"
    },
    {
      "inputs": [
        {
          "internalType": "uint256",
          "name": "index_",
          "type": "uint256"
        }
      ],
      "name": "tokenByIndex",
      "outputs": [
        {
          "internalType": "uint256",
          "name": "",
          "type": "uint256"
        }
      ],
      "stateMutability": "view",
      "type": "function"
    },
    {
      "inputs": [
        {
          "internalType": "address",
          "name": "owner_",
          "type": "address"
        },
        {
          "internalType": "uint256",
          "name": "index_",
          "type": "uint256"
        }
      ],
      "name": "tokenOfOwnerByIndex",
      "outputs": [
        {
          "internalType": "uint256",
          "name": "",
          "type": "uint256"
        }
      ],
      "stateMutability": "view",
      "type": "function"
    },
    {
      "inputs": [
        {
          "internalType": "uint256",
          "name": "tokenId_",
          "type": "uint256"
        }
      ],
      "name": "tokenURI",
      "outputs": [
        {
          "internalType": "string",
          "name": "",
          "type": "string"
        }
      ],
      "stateMutability": "view",
      "type": "function"
    },
    {
      "inputs": [],
      "name": "totalSupply",
      "outputs": [
        {
          "internalType": "uint256",
          "name": "",
          "type": "uint256"
        }
      ],
      "stateMutability": "view",
      "type": "function"
    },
    {
      "inputs": [
        {
          "internalType": "uint256",
          "name": "fromTokenId_",
          "type": "uint256"
        },
        {
          "internalType": "address",
          "name": "to_",
          "type": "address"
        },
        {
          "internalType": "uint256",
          "name": "value_",
          "type": "uint256"
        }
      ],
      "name": "transferFrom",
      "outputs": [
        {
          "internalType": "uint256",
          "name": "newTokenId",
          "type": "uint256"
        }
      ],
      "stateMutability": "payable",
      "type": "function"
    },
    {
      "inputs": [
        {
          "internalType": "address",
          "name": "from_",
          "type": "address"
        },
        {
          "internalType": "address",
          "name": "to_",
          "type": "address"
        },
        {
          "internalType": "uint256",
          "name": "tokenId_",
          "type": "uint256"
        }
      ],
      "name": "transferFrom",
      "outputs": [],
      "stateMutability": "payable",
      "type": "function"
    },
    {
      "inputs": [
        {
          "internalType": "uint256",
          "name": "fromTokenId_",
          "type": "uint256"
        },
        {
          "internalType": "uint256",
          "name": "toTokenId_",
          "type": "uint256"
        },
        {
          "internalType": "uint256",
          "name": "value_",
          "type": "uint256"
        }
      ],
      "name": "transferFrom",
      "outputs": [],
      "stateMutability": "payable",
      "type": "function"
    },
    {
      "inputs": [],
      "name": "valueDecimals",
      "outputs": [
        {
          "internalType": "uint8",
          "name": "",
          "type": "uint8"
        }
      ],
      "stateMutability": "view",
      "type": "function"
    }
  ],
  "bytecode": "0x6080604052604051620038b8380380620038b8833981016040819052620000269162000409565b600054610100900460ff1615808015620000475750600054600160ff909116105b80620000635750303b15801562000063575060005460ff166001145b620000cc5760405162461bcd60e51b815260206004820152602e60248201527f496e697469616c697a61626c653a20636f6e747261637420697320616c72656160448201526d191e481a5b9a5d1a585b1a5e995960921b60648201526084015b60405180910390fd5b6000805460ff191660011790558015620000f0576000805461ff0019166101001790555b62000102898989898989898962000158565b801562000149576000805461ff0019169055604051600181527f7f26b83ff96e1f2b6a682f133852f6798a09c465da95921460cefb38474024989060200160405180910390a15b5050505050505050506200063c565b600054610100900460ff16620001b45760405162461bcd60e51b815260206004820152602b60248201526000805160206200389883398151915260448201526a6e697469616c697a696e6760a81b6064820152608401620000c3565b620001c68888888888888888620001e2565b620001d88888888888888888620002cb565b5050505050505050565b600054610100900460ff166200023e5760405162461bcd60e51b815260206004820152602b60248201526000805160206200389883398151915260448201526a6e697469616c697a696e6760a81b6064820152608401620000c3565b6001603a55603362000251898262000570565b50603462000260888262000570565b50603580546001600160a01b03968716610100026001600160a81b031990911660ff9098169790971796909617909555603680549385166001600160a01b03199485161790556037805492851692841692909217909155603880549190931691161790556039555050565b600054610100900460ff16620001d85760405162461bcd60e51b815260206004820152602b60248201526000805160206200389883398151915260448201526a6e697469616c697a696e6760a81b6064820152608401620000c3565b634e487b7160e01b600052604160045260246000fd5b600082601f8301126200034f57600080fd5b81516001600160401b03808211156200036c576200036c62000327565b604051601f8301601f19908116603f0116810190828211818310171562000397576200039762000327565b81604052838152602092508683858801011115620003b457600080fd5b600091505b83821015620003d85785820183015181830184015290820190620003b9565b600093810190920192909252949350505050565b80516001600160a01b03811681146200040457600080fd5b919050565b600080600080600080600080610100898b0312156200042757600080fd5b88516001600160401b03808211156200043f57600080fd5b6200044d8c838d016200033d565b995060208b01519150808211156200046457600080fd5b50620004738b828c016200033d565b975050604089015160ff811681146200048b57600080fd5b95506200049b60608a01620003ec565b9450620004ab60808a01620003ec565b9350620004bb60a08a01620003ec565b9250620004cb60c08a01620003ec565b915060e089015190509295985092959890939650565b600181811c90821680620004f657607f821691505b6020821081036200051757634e487b7160e01b600052602260045260246000fd5b50919050565b601f8211156200056b57600081815260208120601f850160051c81016020861015620005465750805b601f850160051c820191505b81811015620005675782815560010162000552565b5050505b505050565b81516001600160401b038111156200058c576200058c62000327565b620005a4816200059d8454620004e1565b846200051d565b602080601f831160018114620005dc5760008415620005c35750858301515b600019600386901b1c1916600185901b17855562000567565b600085815260208120601f198616915b828110156200060d57888601518255948401946001909101908401620005ec565b50858210156200062c5787850151600019600388901b60f8161c191681555b5050505050600190811b01905550565b61324c806200064c6000396000f3fe6080604052600436106101cd5760003560e01c80636352211e116100f7578063a22cb46511610095578063e345e0bc11610064578063e345e0bc146104e2578063e8a3d48514610502578063e985e9c514610517578063f0e88e7f1461056457600080fd5b8063a22cb4651461046f578063a647e8ec1461048f578063b88d4fde146104af578063c87b56dd146104c257600080fd5b806387fe8611116100d157806387fe8611146104075780638cb0a5111461042757806395d89b411461043a5780639cc7f7081461044f57600080fd5b80636352211e146103a757806370a08231146103c7578063840f7113146103e757600080fd5b806323b872dd1161016f5780633e7e86691161013e5780633e7e86691461033257806342842e0e1461035457806342966c68146103675780634f6ccce71461038757600080fd5b806323b872dd146102cc578063263f3e7e146102df5780632f745c59146102ff578063310ed7f01461031f57600080fd5b8063095ea7b3116101ab578063095ea7b31461026157806309c3dd87146102765780630f485c021461029657806318160ddd146102b757600080fd5b806301ffc9a7146101d257806306fdde0314610207578063081812fc14610229575b600080fd5b3480156101de57600080fd5b506101f26101ed366004612ab3565b610584565b60405190151581526020015b60405180910390f35b34801561021357600080fd5b5061021c610627565b6040516101fe9190612b20565b34801561023557600080fd5b50610249610244366004612b33565b6106b9565b6040516001600160a01b0390911681526020016101fe565b61027461026f366004612b63565b61070b565b005b34801561028257600080fd5b5061021c610291366004612b33565b6107ef565b6102a96102a4366004612b8d565b6108e1565b6040519081526020016101fe565b3480156102c357600080fd5b50603c546102a9565b6102746102da366004612bc2565b610919565b3480156102eb57600080fd5b506102a96102fa366004612b33565b61094b565b34801561030b57600080fd5b506102a961031a366004612b63565b610993565b61027461032d366004612bee565b610a35565b34801561033e57600080fd5b5060355460405160ff90911681526020016101fe565b610274610362366004612bc2565b610a4b565b34801561037357600080fd5b50610274610382366004612b33565b610a66565b34801561039357600080fd5b506102a96103a2366004612b33565b610a97565b3480156103b357600080fd5b506102496103c2366004612b33565b610b2a565b3480156103d357600080fd5b506102a96103e2366004612c1a565b610bca565b3480156103f357600080fd5b50603f54610249906001600160a01b031681565b34801561041357600080fd5b50610274610422366004612c35565b610c54565b610274610435366004612b8d565b610c89565b34801561044657600080fd5b5061021c610d4a565b34801561045b57600080fd5b506102a961046a366004612b33565b610d59565b34801561047b57600080fd5b5061027461048a366004612c65565b610da1565b34801561049b57600080fd5b506102746104aa366004612c9c565b610dac565b6102746104bd366004612d44565b610db8565b3480156104ce57600080fd5b5061021c6104dd366004612b33565b610de9565b3480156104ee57600080fd5b506102a96104fd366004612def565b610e88565b34801561050e57600080fd5b5061021c610ebc565b34801561052357600080fd5b506101f2610532366004612e1b565b6001600160a01b039182166000908152603e602090815260408083209390941682526002909201909152205460ff1690565b34801561057057600080fd5b5061027461057f366004612c35565b610fb6565b60006001600160e01b031982166301ffc9a760e01b14806105b557506001600160e01b03198216630354d60560e61b145b806105d057506001600160e01b031982166380ac58cd60e01b145b806105eb57506001600160e01b031982166370b0048160e11b145b8061060657506001600160e01b0319821663780e9d6360e01b145b8061062157506001600160e01b03198216635b5e139f60e01b145b92915050565b60606033805461063690612e45565b80601f016020809104026020016040519081016040528092919081815260200182805461066290612e45565b80156106af5780601f10610684576101008083540402835291602001916106af565b820191906000526020600020905b81548152906001019060200180831161069257829003601f168201915b5050505050905090565b60006106c482610fc0565b6000828152603d6020526040902054603c805490919081106106e8576106e8612e7f565b60009182526020909120600460069092020101546001600160a01b031692915050565b600061071682610b2a565b9050806001600160a01b0316836001600160a01b0316036107525760405162461bcd60e51b815260040161074990612e95565b60405180910390fd5b336001600160a01b038216148061076e575061076e8133610532565b6107e05760405162461bcd60e51b815260206004820152603b60248201527f43544d5257413030313a20617070726f76652063616c6c6572206973206e6f7460448201527f206f776e6572206e6f7220617070726f76656420666f7220616c6c00000000006064820152608401610749565b6107ea8383611015565b505050565b6060600061080860408051602081019091526000815290565b603f549091506001600160a01b031661086857600081511161083957604051806020016040528060008152506108da565b80610843846110ac565b604051602001610854929190612ed9565b6040516020818303038152906040526108da565b603f54604051633601bfc560e11b8152600481018590526001600160a01b0390911690636c037f8a906024015b600060405180830381865afa1580156108b2573d6000803e3d6000fd5b505050506040513d6000823e601f3d908101601f191682016040526108da9190810190612f19565b9392505050565b60006108ee33858461113f565b6108f7846111d9565b905061090e83826109078761094b565b60006111e3565b6108da848284611311565b610924335b82611603565b6109405760405162461bcd60e51b815260040161074990612f90565b6107ea838383611686565b600061095682610fc0565b6000828152603d6020526040902054603c8054909190811061097a5761097a612e7f565b9060005260206000209060060201600101549050919050565b600061099e83610bca565b82106109f85760405162461bcd60e51b8152602060048201526024808201527f43544d5257413030313a206f776e657220696e646578206f7574206f6620626f604482015263756e647360e01b6064820152608401610749565b6001600160a01b0383166000908152603e60205260409020805483908110610a2257610a22612e7f565b9060005260206000200154905092915050565b610a4033848361113f565b6107ea838383611311565b6107ea83838360405180602001604052806000815250610db8565b610a6f3361091e565b610a8b5760405162461bcd60e51b815260040161074990612fe4565b610a94816117ec565b50565b6000610aa2603c5490565b8210610afe5760405162461bcd60e51b815260206004820152602560248201527f43544d5257413030313a20676c6f62616c20696e646578206f7574206f6620626044820152646f756e647360d81b6064820152608401610749565b603c8281548110610b1157610b11612e7f565b9060005260206000209060060201600001549050919050565b6000610b3582610fc0565b6000828152603d6020526040902054603c80549091908110610b5957610b59612e7f565b60009182526020909120600360069092020101546001600160a01b0316905080610bc55760405162461bcd60e51b815260206004820152601b60248201527f43544d5257413030313a20696e76616c696420746f6b656e20494400000000006044820152606401610749565b919050565b60006001600160a01b038216610c385760405162461bcd60e51b815260206004820152602d60248201527f43544d5257413030313a2062616c616e636520717565727920666f722074686560448201526c207a65726f206164647265737360981b6064820152608401610749565b506001600160a01b03166000908152603e602052604090205490565b610c5f335b83611603565b610c7b5760405162461bcd60e51b815260040161074990612fe4565b610c8582826118fb565b5050565b6000610c9484610b2a565b9050806001600160a01b0316836001600160a01b031603610cc75760405162461bcd60e51b815260040161074990612e95565b610cd13385611603565b610d395760405162461bcd60e51b815260206004820152603360248201527f43544d5257413030313a20617070726f76652063616c6c6572206973206e6f74604482015272081bdddb995c881b9bdc88185c1c1c9bdd9959606a1b6064820152608401610749565b610d448484846119fb565b50505050565b60606034805461063690612e45565b6000610d6482610fc0565b6000828152603d6020526040902054603c80549091908110610d8857610d88612e7f565b9060005260206000209060060201600201549050919050565b610c85338383611b35565b610d44848484846111e3565b610dc133610c59565b610ddd5760405162461bcd60e51b815260040161074990612f90565b610d4484848484611bff565b6060610df482610fc0565b6000610e0b60408051602081019091526000815290565b603f549091506001600160a01b0316610e57576000815111610e3c57604051806020016040528060008152506108da565b80610e46846110ac565b604051602001610854929190613035565b603f546040516344a5a61760e11b8152600481018590526001600160a01b039091169063894b4c2e90602401610895565b6000610e9383610fc0565b506000918252603b602090815260408084206001600160a01b0393909316845291905290205490565b60606000610ed560408051602081019091526000815290565b603f549091506001600160a01b0316610f35576000815111610f065760405180602001604052806000815250610fb0565b80610f1030611c74565b604051602001610f21929190613064565b604051602081830303815290604052610fb0565b603f60009054906101000a90046001600160a01b03166001600160a01b031663725fa09c6040518163ffffffff1660e01b8152600401600060405180830381865afa158015610f88573d6000803e3d6000fd5b505050506040513d6000823e601f3d908101601f19168201604052610fb09190810190612f19565b91505090565b610c858282611c8a565b610fc981611cae565b610a945760405162461bcd60e51b815260206004820152601b60248201527f43544d5257413030313a20696e76616c696420746f6b656e20494400000000006044820152606401610749565b6000818152603d6020526040902054603c8054849290811061103957611039612e7f565b6000918252602090912060069091020160040180546001600160a01b0319166001600160a01b039283161790558190831661107382610b2a565b6001600160a01b03167f8c5be1e5ebec7d5bd14f71427d1e84f3dd0314c0f7b2291e5b200ac8c7c3b92560405160405180910390a45050565b606060006110b983611cfa565b600101905060008167ffffffffffffffff8111156110d9576110d9612cd5565b6040519080825280601f01601f191660200182016040528015611103576020820181803683370190505b5090508181016020015b600019016f181899199a1a9b1b9c1cb0b131b232b360811b600a86061a8153600a850494508461110d57509392505050565b600061114b8385610e88565b90506111578484611603565b15801561116657506000198114155b15610d4457818110156111c55760405162461bcd60e51b815260206004820152602160248201527f43544d5257413030313a20696e73756666696369656e7420616c6c6f77616e636044820152606560f81b6064820152608401610749565b610d4483856111d485856130be565b6119fb565b6000610621611dd2565b6001600160a01b0384166112455760405162461bcd60e51b815260206004820152602360248201527f43544d5257413030313a206d696e7420746f20746865207a65726f206164647260448201526265737360e81b6064820152608401610749565b826000036112a15760405162461bcd60e51b815260206004820152602360248201527f43544d5257413030313a2063616e6e6f74206d696e74207a65726f20746f6b656044820152621b925960ea1b6064820152608401610749565b6112aa83611cae565b156112f75760405162461bcd60e51b815260206004820152601f60248201527f43544d5257413030313a20746f6b656e20616c7265616479206d696e746564006044820152606401610749565b611302848484611dec565b61130c8382611eb2565b610d44565b61131a83611cae565b6113785760405162461bcd60e51b815260206004820152602960248201527f43544d5257413030313a207472616e736665722066726f6d20696e76616c6964604482015268081d1bdad95b88125160ba1b6064820152608401610749565b61138182611cae565b6113dd5760405162461bcd60e51b815260206004820152602760248201527f43544d5257413030313a207472616e7366657220746f20696e76616c696420746044820152661bdad95b88125160ca1b6064820152608401610749565b6000838152603d6020526040812054603c8054909190811061140157611401612e7f565b906000526020600020906006020190506000603c603d6000868152602001908152602001600020548154811061143957611439612e7f565b9060005260206000209060060201905082826002015410156114b25760405162461bcd60e51b815260206004820152602c60248201527f43544d5257413030313a20696e73756666696369656e742062616c616e63652060448201526b3337b9103a3930b739b332b960a11b6064820152608401610749565b80600101548260010154146115225760405162461bcd60e51b815260206004820152603060248201527f43544d5257413030313a207472616e7366657220746f20746f6b656e2077697460448201526f1a08191a5999995c995b9d081cdb1bdd60821b6064820152608401610749565b8282600201600082825461153691906130be565b925050819055508281600201600082825461155191906130d1565b9091555050604051838152849086906000805160206131f78339815191529060200160405180910390a361159685858560405180602001604052806000815250611f25565b6115fc5760405162461bcd60e51b815260206004820152603160248201527f43544d5257413030313a207472616e736665722072656a65637465642062792060448201527021aa26a92ba0981818a932b1b2b4bb32b960791b6064820152608401610749565b5050505050565b60008061160f83610b2a565b9050806001600160a01b0316846001600160a01b0316148061165a57506001600160a01b038082166000908152603e60209081526040808320938816835260029093019052205460ff165b8061167e5750836001600160a01b0316611673846106b9565b6001600160a01b0316145b949350505050565b826001600160a01b031661169982610b2a565b6001600160a01b0316146116fe5760405162461bcd60e51b815260206004820152602660248201527f43544d5257413030313a207472616e736665722066726f6d20696e76616c69646044820152651037bbb732b960d11b6064820152608401610749565b6001600160a01b0382166117645760405162461bcd60e51b815260206004820152602760248201527f43544d5257413030313a207472616e7366657220746f20746865207a65726f206044820152666164647265737360c81b6064820152608401610749565b600061176f8261094b565b9050600061177c83610d59565b9050611789600084611015565b6117928361209b565b61179c8584612146565b6117a68484612267565b82846001600160a01b0316866001600160a01b03167fddf252ad1be2c89b69c2b068fc378daa952ba7f163c4a11628f55a4df523b3ef60405160405180910390a46115fc565b6117f581610fc0565b6000818152603d6020526040812054603c8054909190811061181957611819612e7f565b60009182526020909120600691909102016003810154600182015460028301549293506001600160a01b03909116916118518561209b565b61185b8386612146565b611864856122f0565b6000856000805160206131f78339815191528360405161188691815260200190565b60405180910390a3600082867fe4f48c240d3b994948aa54f3e2f5fca59263dfe1d52b6e4cf39a5d249b5ccb6560405160405180910390a460405185906000906001600160a01b038616907fddf252ad1be2c89b69c2b068fc378daa952ba7f163c4a11628f55a4df523b3ef908390a46115fc565b61190482610fc0565b6000828152603d6020526040812054603c8054909190811061192857611928612e7f565b600091825260209091206006909102016003810154600182015460028301549293506001600160a01b0390911691848110156119b45760405162461bcd60e51b815260206004820152602560248201527f43544d5257413030313a206275726e2076616c756520657863656564732062616044820152646c616e636560d81b6064820152608401610749565b848460020160008282546119c891906130be565b909155505060405185815260009087906000805160206131f78339815191529060200160405180910390a3505050505050565b6001600160a01b038216611a665760405162461bcd60e51b815260206004820152602c60248201527f43544d5257413030313a20617070726f76652076616c756520746f207468652060448201526b7a65726f206164647265737360a01b6064820152608401610749565b611a7082846124fe565b611ad6576000838152603d6020526040902054603c80549091908110611a9857611a98612e7f565b60009182526020808320600692909202909101600501805460018101825590835291200180546001600160a01b0319166001600160a01b0384161790555b6000838152603b602090815260408083206001600160a01b038616808552908352928190208490555183815285917f621b050de0ad08b51d19b48b3e6df75348c4de6bdd93e81b252ca62e28265b1b91015b60405180910390a3505050565b816001600160a01b0316836001600160a01b031603611b965760405162461bcd60e51b815260206004820152601c60248201527f43544d5257413030313a20617070726f766520746f2063616c6c6572000000006044820152606401610749565b6001600160a01b038381166000818152603e602090815260408083209487168084526002909501825291829020805460ff191686151590811790915591519182527f17307eab39ab6107e8899845ad3d59bd9653f200f220920489ca2b5937696c319101611b28565b611c0a848484611686565b611c16848484846125d1565b610d445760405162461bcd60e51b815260206004820152602960248201527f43544d5257413030313a207472616e7366657220746f206e6f6e20455243373260448201526818a932b1b2b4bb32b960b91b6064820152608401610749565b60606106216001600160a01b0383166014612717565b6000611c9583610b2a565b90506000611ca28461094b565b905061130c8484611eb2565b603c546000901580159061062157506000828152603d6020526040902054603c80548492908110611ce157611ce1612e7f565b9060005260206000209060060201600001541492915050565b60008072184f03e93ff9f4daa797ed6e38ed64bf6a1f0160401b8310611d395772184f03e93ff9f4daa797ed6e38ed64bf6a1f0160401b830492506040015b6d04ee2d6d415b85acef81000000008310611d65576d04ee2d6d415b85acef8100000000830492506020015b662386f26fc100008310611d8357662386f26fc10000830492506010015b6305f5e1008310611d9b576305f5e100830492506008015b6127108310611daf57612710830492506004015b60648310611dc1576064830492506002015b600a83106106215760010192915050565b603a805460009182611de3836130e4565b91905055905090565b6040805160c081018252838152602080820184905260008284018190526001600160a01b038716606084015260808301819052835181815291820190935260a08201529050611e3a816128b3565b611e448484612267565b60405183906001600160a01b038616906000907fddf252ad1be2c89b69c2b068fc378daa952ba7f163c4a11628f55a4df523b3ef908290a4816000847fe4f48c240d3b994948aa54f3e2f5fca59263dfe1d52b6e4cf39a5d249b5ccb6560405160405180910390a450505050565b6000828152603d6020526040902054603c80548392908110611ed657611ed6612e7f565b90600052602060002090600602016002016000828254611ef691906130d1565b909155505060405181815282906000906000805160206131f78339815191529060200160405180910390a35050565b600080611f3185610b2a565b9050803b63ffffffff161561208f576040516301ffc9a760e01b8152633abe4f5560e21b60048201526001600160a01b038216906301ffc9a790602401602060405180830381865afa925050508015611fa7575060408051601f3d908101601f19168201909252611fa4918101906130fd565b60015b611fe6573d808015611fd5576040519150601f19603f3d011682016040523d82523d6000602084013e611fda565b606091505b5060019250505061167e565b801561208457604051633abe4f5560e21b81526000906001600160a01b0384169063eaf93d54906120239033908c908c908c908c9060040161311a565b6020604051808303816000875af1158015612042573d6000803e3d6000fd5b505050506040513d601f19601f820116820180604052508101906120669190613158565b6001600160e01b031916633abe4f5560e21b14935061167e92505050565b60019250505061167e565b50600195945050505050565b6000818152603d6020526040812054603c805490919081106120bf576120bf612e7f565b600091825260208220600560069092020190810154909250905b818110156121375760008360050182815481106120f8576120f8612e7f565b6000918252602080832090910154878352603b825260408084206001600160a01b0390921684529152812055508061212f816130e4565b9150506120d9565b506107ea600583016000612a05565b6000818152603d6020526040812054603c8054909190811061216a5761216a612e7f565b6000918252602080832060069290920290910160030180546001600160a01b0319166001600160a01b039485161790559184168152603e9091526040812080549091906121b9906001906130be565b905060008260000182815481106121d2576121d2612e7f565b9060005260206000200154905060008360010160008681526020019081526020016000205490508184600001828154811061220f5761220f612e7f565b6000918252602080832090910192909255838152600186019091526040808220839055868252812055835484908061224957612249613175565b60019003818190600052602060002001600090559055505050505050565b6000818152603d6020526040902054603c8054849290811061228b5761228b612e7f565b6000918252602080832060069290920290910160030180546001600160a01b0319166001600160a01b03948516179055939091168152603e80845260408083208054858552600182810188529285208190559286529082018155825292902090910155565b603c54600090612302906001906130be565b6000838152603d6020526040812054603c805493945090928490811061232a5761232a612e7f565b60009182526020918290206040805160c08101825260069093029091018054835260018101548385015260028101548383015260038101546001600160a01b03908116606085015260048201541660808401526005810180548351818702810187019094528084529394919360a0860193928301828280156123d557602002820191906000526020600020905b81546001600160a01b031681526001909101906020018083116123b7575b505050505081525050905080603c83815481106123f4576123f4612e7f565b600091825260209182902083516006909202019081558282015160018201556040830151600282015560608301516003820180546001600160a01b039283166001600160a01b031991821617909155608085015160048401805491909316911617905560a08301518051919261247292600585019290910190612a23565b505081516000908152603d602052604080822085905586825281205550603c8054806124a0576124a0613175565b60008281526020812060066000199093019283020181815560018101829055600281018290556003810180546001600160a01b03199081169091556004820180549091169055906124f46005830182612a05565b5050905550505050565b6000818152603d6020526040812054603c8054839290811061252257612522612e7f565b6000918252602082206005600690920201015491505b818110156125c6576000848152603d6020526040902054603c80546001600160a01b0388169290811061256d5761256d612e7f565b9060005260206000209060060201600501828154811061258f5761258f612e7f565b6000918252602090912001546001600160a01b0316036125b457600192505050610621565b806125be816130e4565b915050612538565b506000949350505050565b6000833b63ffffffff161561270f57604051630a85bd0160e11b81526001600160a01b0385169063150b7a029061261290339089908890889060040161318b565b6020604051808303816000875af192505050801561264d575060408051601f3d908101601f1916820190925261264a91810190613158565b60015b6126f5573d80801561267b576040519150601f19603f3d011682016040523d82523d6000602084013e612680565b606091505b5080516000036126ed5760405162461bcd60e51b815260206004820152603260248201527f4552433732313a207472616e7366657220746f206e6f6e20455243373231526560448201527131b2b4bb32b91034b6b83632b6b2b73a32b960711b6064820152608401610749565b805181602001fd5b6001600160e01b031916630a85bd0160e11b14905061167e565b50600161167e565b606060006127268360026131c8565b6127319060026130d1565b67ffffffffffffffff81111561274957612749612cd5565b6040519080825280601f01601f191660200182016040528015612773576020820181803683370190505b509050600360fc1b8160008151811061278e5761278e612e7f565b60200101906001600160f81b031916908160001a905350600f60fb1b816001815181106127bd576127bd612e7f565b60200101906001600160f81b031916908160001a90535060006127e18460026131c8565b6127ec9060016130d1565b90505b6001811115612864576f181899199a1a9b1b9c1cb0b131b232b360811b85600f166010811061282057612820612e7f565b1a60f81b82828151811061283657612836612e7f565b60200101906001600160f81b031916908160001a90535060049490941c9361285d816131df565b90506127ef565b5083156108da5760405162461bcd60e51b815260206004820181905260248201527f537472696e67733a20686578206c656e67746820696e73756666696369656e746044820152606401610749565b603c805482516000908152603d6020908152604080832084905560018401855593909152835160069092027fc6bb06cb7f92603de181bf256cd16846b93b752a170ff24824098b31aa008a7e8101928355818501517fc6bb06cb7f92603de181bf256cd16846b93b752a170ff24824098b31aa008a7f820155928401517fc6bb06cb7f92603de181bf256cd16846b93b752a170ff24824098b31aa008a8084015560608401517fc6bb06cb7f92603de181bf256cd16846b93b752a170ff24824098b31aa008a81840180546001600160a01b039283166001600160a01b03199182161790915560808601517fc6bb06cb7f92603de181bf256cd16846b93b752a170ff24824098b31aa008a828601805491909316911617905560a084015180518594610d44937fc6bb06cb7f92603de181bf256cd16846b93b752a170ff24824098b31aa008a83909101920190612a23565b5080546000825590600052602060002090810190610a949190612a88565b828054828255906000526020600020908101928215612a78579160200282015b82811115612a7857825182546001600160a01b0319166001600160a01b03909116178255602090920191600190910190612a43565b50612a84929150612a88565b5090565b5b80821115612a845760008155600101612a89565b6001600160e01b031981168114610a9457600080fd5b600060208284031215612ac557600080fd5b81356108da81612a9d565b60005b83811015612aeb578181015183820152602001612ad3565b50506000910152565b60008151808452612b0c816020860160208601612ad0565b601f01601f19169290920160200192915050565b6020815260006108da6020830184612af4565b600060208284031215612b4557600080fd5b5035919050565b80356001600160a01b0381168114610bc557600080fd5b60008060408385031215612b7657600080fd5b612b7f83612b4c565b946020939093013593505050565b600080600060608486031215612ba257600080fd5b83359250612bb260208501612b4c565b9150604084013590509250925092565b600080600060608486031215612bd757600080fd5b612be084612b4c565b9250612bb260208501612b4c565b600080600060608486031215612c0357600080fd5b505081359360208301359350604090920135919050565b600060208284031215612c2c57600080fd5b6108da82612b4c565b60008060408385031215612c4857600080fd5b50508035926020909101359150565b8015158114610a9457600080fd5b60008060408385031215612c7857600080fd5b612c8183612b4c565b91506020830135612c9181612c57565b809150509250929050565b60008060008060808587031215612cb257600080fd5b612cbb85612b4c565b966020860135965060408601359560600135945092505050565b634e487b7160e01b600052604160045260246000fd5b604051601f8201601f1916810167ffffffffffffffff81118282101715612d1457612d14612cd5565b604052919050565b600067ffffffffffffffff821115612d3657612d36612cd5565b50601f01601f191660200190565b60008060008060808587031215612d5a57600080fd5b612d6385612b4c565b9350612d7160208601612b4c565b925060408501359150606085013567ffffffffffffffff811115612d9457600080fd5b8501601f81018713612da557600080fd5b8035612db8612db382612d1c565b612ceb565b818152886020838501011115612dcd57600080fd5b8160208401602083013760006020838301015280935050505092959194509250565b60008060408385031215612e0257600080fd5b82359150612e1260208401612b4c565b90509250929050565b60008060408385031215612e2e57600080fd5b612e3783612b4c565b9150612e1260208401612b4c565b600181811c90821680612e5957607f821691505b602082108103612e7957634e487b7160e01b600052602260045260246000fd5b50919050565b634e487b7160e01b600052603260045260246000fd5b60208082526024908201527f43544d5257413030313a20617070726f76616c20746f2063757272656e74206f6040820152633bb732b960e11b606082015260800190565b60008351612eeb818460208801612ad0565b64736c6f742f60d81b9083019081528351612f0d816005840160208801612ad0565b01600501949350505050565b600060208284031215612f2b57600080fd5b815167ffffffffffffffff811115612f4257600080fd5b8201601f81018413612f5357600080fd5b8051612f61612db382612d1c565b818152856020838501011115612f7657600080fd5b612f87826020830160208601612ad0565b95945050505050565b60208082526034908201527f43544d5257413030313a207472616e736665722063616c6c6572206973206e6f6040820152731d081bdddb995c881b9bdc88185c1c1c9bdd995960621b606082015260800190565b60208082526031908201527f43544d5257413030313a2063616c6c6572206973206e6f7420746f6b656e206f6040820152701ddb995c881b9bdc88185c1c1c9bdd9959607a1b606082015260800190565b60008351613047818460208801612ad0565b83519083019061305b818360208801612ad0565b01949350505050565b60008351613076818460208801612ad0565b68636f6e74726163742f60b81b908301908152835161309c816009840160208801612ad0565b01600901949350505050565b634e487b7160e01b600052601160045260246000fd5b81810381811115610621576106216130a8565b80820180821115610621576106216130a8565b6000600182016130f6576130f66130a8565b5060010190565b60006020828403121561310f57600080fd5b81516108da81612c57565b60018060a01b038616815284602082015283604082015282606082015260a06080820152600061314d60a0830184612af4565b979650505050505050565b60006020828403121561316a57600080fd5b81516108da81612a9d565b634e487b7160e01b600052603160045260246000fd5b6001600160a01b03858116825284166020820152604081018390526080606082018190526000906131be90830184612af4565b9695505050505050565b8082028115828204841417610621576106216130a8565b6000816131ee576131ee6130a8565b50600019019056fe0b2aac84f3ec956911fd78eae5311062972ff949f38412e8da39069d9f068cc6a26469706673582212205a4fff1d88a389e1988532b0f814f13354925b8f9b8447e189edc58290d538ff64736f6c63430008140033496e697469616c697a61626c653a20636f6e7472616374206973206e6f742069",
  "linkReferences": {},
  "deployedLinkReferences": {}
}