{
  "_format": "hh-sol-artifact-1",
  "contractName": "CTMRWA001SlotApprovableUpgradeableWithInit",
  "sourceName": "contracts/mocks/CTMRWA001BaseMockUpgradeableWithInit.sol",
  "abi": [
    {
      "inputs": [
        {
          "internalType": "string",
          "name": "name_",
          "type": "string"
        },
        {
          "internalType": "string",
          "name": "symbol_",
          "type": "string"
        },
        {
          "internalType": "uint8",
          "name": "decimals_",
          "type": "uint8"
        },
        {
          "internalType": "address",
          "name": "_ctmRwa001XChain",
          "type": "address"
        }
      ],
      "stateMutability": "payable",
      "type": "constructor"
    },
    {
      "anonymous": false,
      "inputs": [
        {
          "indexed": true,
          "internalType": "address",
          "name": "_owner",
          "type": "address"
        },
        {
          "indexed": true,
          "internalType": "address",
          "name": "_approved",
          "type": "address"
        },
        {
          "indexed": true,
          "internalType": "uint256",
          "name": "_tokenId",
          "type": "uint256"
        }
      ],
      "name": "Approval",
      "type": "event"
    },
    {
      "anonymous": false,
      "inputs": [
        {
          "indexed": true,
          "internalType": "address",
          "name": "_owner",
          "type": "address"
        },
        {
          "indexed": true,
          "internalType": "address",
          "name": "_operator",
          "type": "address"
        },
        {
          "indexed": false,
          "internalType": "bool",
          "name": "_approved",
          "type": "bool"
        }
      ],
      "name": "ApprovalForAll",
      "type": "event"
    },
    {
      "anonymous": false,
      "inputs": [
        {
          "indexed": true,
          "internalType": "address",
          "name": "_owner",
          "type": "address"
        },
        {
          "indexed": true,
          "internalType": "uint256",
          "name": "_slot",
          "type": "uint256"
        },
        {
          "indexed": true,
          "internalType": "address",
          "name": "_operator",
          "type": "address"
        },
        {
          "indexed": false,
          "internalType": "bool",
          "name": "_approved",
          "type": "bool"
        }
      ],
      "name": "ApprovalForSlot",
      "type": "event"
    },
    {
      "anonymous": false,
      "inputs": [
        {
          "indexed": true,
          "internalType": "uint256",
          "name": "_tokenId",
          "type": "uint256"
        },
        {
          "indexed": true,
          "internalType": "address",
          "name": "_operator",
          "type": "address"
        },
        {
          "indexed": false,
          "internalType": "uint256",
          "name": "_value",
          "type": "uint256"
        }
      ],
      "name": "ApprovalValue",
      "type": "event"
    },
    {
      "anonymous": false,
      "inputs": [
        {
          "indexed": false,
          "internalType": "uint8",
          "name": "version",
          "type": "uint8"
        }
      ],
      "name": "Initialized",
      "type": "event"
    },
    {
      "anonymous": false,
      "inputs": [
        {
          "indexed": true,
          "internalType": "address",
          "name": "metadataDescriptor",
          "type": "address"
        }
      ],
      "name": "SetMetadataDescriptor",
      "type": "event"
    },
    {
      "anonymous": false,
      "inputs": [
        {
          "indexed": true,
          "internalType": "uint256",
          "name": "_tokenId",
          "type": "uint256"
        },
        {
          "indexed": true,
          "internalType": "uint256",
          "name": "_oldSlot",
          "type": "uint256"
        },
        {
          "indexed": true,
          "internalType": "uint256",
          "name": "_newSlot",
          "type": "uint256"
        }
      ],
      "name": "SlotChanged",
      "type": "event"
    },
    {
      "anonymous": false,
      "inputs": [
        {
          "indexed": true,
          "internalType": "address",
          "name": "_from",
          "type": "address"
        },
        {
          "indexed": true,
          "internalType": "address",
          "name": "_to",
          "type": "address"
        },
        {
          "indexed": true,
          "internalType": "uint256",
          "name": "_tokenId",
          "type": "uint256"
        }
      ],
      "name": "Transfer",
      "type": "event"
    },
    {
      "anonymous": false,
      "inputs": [
        {
          "indexed": true,
          "internalType": "uint256",
          "name": "_fromTokenId",
          "type": "uint256"
        },
        {
          "indexed": true,
          "internalType": "uint256",
          "name": "_toTokenId",
          "type": "uint256"
        },
        {
          "indexed": false,
          "internalType": "uint256",
          "name": "_value",
          "type": "uint256"
        }
      ],
      "name": "TransferValue",
      "type": "event"
    },
    {
      "inputs": [
        {
          "internalType": "uint256",
          "name": "tokenId_",
          "type": "uint256"
        },
        {
          "internalType": "address",
          "name": "operator_",
          "type": "address"
        }
      ],
      "name": "allowance",
      "outputs": [
        {
          "internalType": "uint256",
          "name": "",
          "type": "uint256"
        }
      ],
      "stateMutability": "view",
      "type": "function"
    },
    {
      "inputs": [
        {
          "internalType": "address",
          "name": "to_",
          "type": "address"
        },
        {
          "internalType": "uint256",
          "name": "tokenId_",
          "type": "uint256"
        }
      ],
      "name": "approve",
      "outputs": [],
      "stateMutability": "payable",
      "type": "function"
    },
    {
      "inputs": [
        {
          "internalType": "uint256",
          "name": "tokenId_",
          "type": "uint256"
        },
        {
          "internalType": "address",
          "name": "to_",
          "type": "address"
        },
        {
          "internalType": "uint256",
          "name": "value_",
          "type": "uint256"
        }
      ],
      "name": "approve",
      "outputs": [],
      "stateMutability": "payable",
      "type": "function"
    },
    {
      "inputs": [
        {
          "internalType": "address",
          "name": "owner_",
          "type": "address"
        }
      ],
      "name": "balanceOf",
      "outputs": [
        {
          "internalType": "uint256",
          "name": "balance",
          "type": "uint256"
        }
      ],
      "stateMutability": "view",
      "type": "function"
    },
    {
      "inputs": [
        {
          "internalType": "uint256",
          "name": "tokenId_",
          "type": "uint256"
        }
      ],
      "name": "balanceOf",
      "outputs": [
        {
          "internalType": "uint256",
          "name": "",
          "type": "uint256"
        }
      ],
      "stateMutability": "view",
      "type": "function"
    },
    {
      "inputs": [],
      "name": "contractURI",
      "outputs": [
        {
          "internalType": "string",
          "name": "",
          "type": "string"
        }
      ],
      "stateMutability": "view",
      "type": "function"
    },
    {
      "inputs": [
        {
          "internalType": "uint256",
          "name": "tokenId_",
          "type": "uint256"
        }
      ],
      "name": "getApproved",
      "outputs": [
        {
          "internalType": "address",
          "name": "",
          "type": "address"
        }
      ],
      "stateMutability": "view",
      "type": "function"
    },
    {
      "inputs": [
        {
          "internalType": "address",
          "name": "owner_",
          "type": "address"
        },
        {
          "internalType": "address",
          "name": "operator_",
          "type": "address"
        }
      ],
      "name": "isApprovedForAll",
      "outputs": [
        {
          "internalType": "bool",
          "name": "",
          "type": "bool"
        }
      ],
      "stateMutability": "view",
      "type": "function"
    },
    {
      "inputs": [
        {
          "internalType": "address",
          "name": "owner_",
          "type": "address"
        },
        {
          "internalType": "uint256",
          "name": "slot_",
          "type": "uint256"
        },
        {
          "internalType": "address",
          "name": "operator_",
          "type": "address"
        }
      ],
      "name": "isApprovedForSlot",
      "outputs": [
        {
          "internalType": "bool",
          "name": "",
          "type": "bool"
        }
      ],
      "stateMutability": "view",
      "type": "function"
    },
    {
      "inputs": [],
      "name": "metadataDescriptor",
      "outputs": [
        {
          "internalType": "contract ICTMRWA001MetadataDescriptorUpgradeable",
          "name": "",
          "type": "address"
        }
      ],
      "stateMutability": "view",
      "type": "function"
    },
    {
      "inputs": [],
      "name": "name",
      "outputs": [
        {
          "internalType": "string",
          "name": "",
          "type": "string"
        }
      ],
      "stateMutability": "view",
      "type": "function"
    },
    {
      "inputs": [
        {
          "internalType": "uint256",
          "name": "tokenId_",
          "type": "uint256"
        }
      ],
      "name": "ownerOf",
      "outputs": [
        {
          "internalType": "address",
          "name": "owner_",
          "type": "address"
        }
      ],
      "stateMutability": "view",
      "type": "function"
    },
    {
      "inputs": [
        {
          "internalType": "address",
          "name": "from_",
          "type": "address"
        },
        {
          "internalType": "address",
          "name": "to_",
          "type": "address"
        },
        {
          "internalType": "uint256",
          "name": "tokenId_",
          "type": "uint256"
        }
      ],
      "name": "safeTransferFrom",
      "outputs": [],
      "stateMutability": "payable",
      "type": "function"
    },
    {
      "inputs": [
        {
          "internalType": "address",
          "name": "from_",
          "type": "address"
        },
        {
          "internalType": "address",
          "name": "to_",
          "type": "address"
        },
        {
          "internalType": "uint256",
          "name": "tokenId_",
          "type": "uint256"
        },
        {
          "internalType": "bytes",
          "name": "data_",
          "type": "bytes"
        }
      ],
      "name": "safeTransferFrom",
      "outputs": [],
      "stateMutability": "payable",
      "type": "function"
    },
    {
      "inputs": [
        {
          "internalType": "address",
          "name": "operator_",
          "type": "address"
        },
        {
          "internalType": "bool",
          "name": "approved_",
          "type": "bool"
        }
      ],
      "name": "setApprovalForAll",
      "outputs": [],
      "stateMutability": "nonpayable",
      "type": "function"
    },
    {
      "inputs": [
        {
          "internalType": "address",
          "name": "owner_",
          "type": "address"
        },
        {
          "internalType": "uint256",
          "name": "slot_",
          "type": "uint256"
        },
        {
          "internalType": "address",
          "name": "operator_",
          "type": "address"
        },
        {
          "internalType": "bool",
          "name": "approved_",
          "type": "bool"
        }
      ],
      "name": "setApprovalForSlot",
      "outputs": [],
      "stateMutability": "payable",
      "type": "function"
    },
    {
      "inputs": [
        {
          "internalType": "uint256",
          "name": "index_",
          "type": "uint256"
        }
      ],
      "name": "slotByIndex",
      "outputs": [
        {
          "internalType": "uint256",
          "name": "",
          "type": "uint256"
        }
      ],
      "stateMutability": "view",
      "type": "function"
    },
    {
      "inputs": [],
      "name": "slotCount",
      "outputs": [
        {
          "internalType": "uint256",
          "name": "",
          "type": "uint256"
        }
      ],
      "stateMutability": "view",
      "type": "function"
    },
    {
      "inputs": [
        {
          "internalType": "uint256",
          "name": "tokenId_",
          "type": "uint256"
        }
      ],
      "name": "slotOf",
      "outputs": [
        {
          "internalType": "uint256",
          "name": "",
          "type": "uint256"
        }
      ],
      "stateMutability": "view",
      "type": "function"
    },
    {
      "inputs": [
        {
          "internalType": "uint256",
          "name": "slot_",
          "type": "uint256"
        }
      ],
      "name": "slotURI",
      "outputs": [
        {
          "internalType": "string",
          "name": "",
          "type": "string"
        }
      ],
      "stateMutability": "view",
      "type": "function"
    },
    {
      "inputs": [
        {
          "internalType": "bytes4",
          "name": "interfaceId",
          "type": "bytes4"
        }
      ],
      "name": "supportsInterface",
      "outputs": [
        {
          "internalType": "bool",
          "name": "",
          "type": "bool"
        }
      ],
      "stateMutability": "view",
      "type": "function"
    },
    {
      "inputs": [],
      "name": "symbol",
      "outputs": [
        {
          "internalType": "string",
          "name": "",
          "type": "string"
        }
      ],
      "stateMutability": "view",
      "type": "function"
    },
    {
      "inputs": [
        {
          "internalType": "uint256",
          "name": "index_",
          "type": "uint256"
        }
      ],
      "name": "tokenByIndex",
      "outputs": [
        {
          "internalType": "uint256",
          "name": "",
          "type": "uint256"
        }
      ],
      "stateMutability": "view",
      "type": "function"
    },
    {
      "inputs": [
        {
          "internalType": "uint256",
          "name": "slot_",
          "type": "uint256"
        },
        {
          "internalType": "uint256",
          "name": "index_",
          "type": "uint256"
        }
      ],
      "name": "tokenInSlotByIndex",
      "outputs": [
        {
          "internalType": "uint256",
          "name": "",
          "type": "uint256"
        }
      ],
      "stateMutability": "view",
      "type": "function"
    },
    {
      "inputs": [
        {
          "internalType": "address",
          "name": "owner_",
          "type": "address"
        },
        {
          "internalType": "uint256",
          "name": "index_",
          "type": "uint256"
        }
      ],
      "name": "tokenOfOwnerByIndex",
      "outputs": [
        {
          "internalType": "uint256",
          "name": "",
          "type": "uint256"
        }
      ],
      "stateMutability": "view",
      "type": "function"
    },
    {
      "inputs": [
        {
          "internalType": "uint256",
          "name": "slot_",
          "type": "uint256"
        }
      ],
      "name": "tokenSupplyInSlot",
      "outputs": [
        {
          "internalType": "uint256",
          "name": "",
          "type": "uint256"
        }
      ],
      "stateMutability": "view",
      "type": "function"
    },
    {
      "inputs": [
        {
          "internalType": "uint256",
          "name": "tokenId_",
          "type": "uint256"
        }
      ],
      "name": "tokenURI",
      "outputs": [
        {
          "internalType": "string",
          "name": "",
          "type": "string"
        }
      ],
      "stateMutability": "view",
      "type": "function"
    },
    {
      "inputs": [],
      "name": "totalSupply",
      "outputs": [
        {
          "internalType": "uint256",
          "name": "",
          "type": "uint256"
        }
      ],
      "stateMutability": "view",
      "type": "function"
    },
    {
      "inputs": [
        {
          "internalType": "uint256",
          "name": "fromTokenId_",
          "type": "uint256"
        },
        {
          "internalType": "address",
          "name": "to_",
          "type": "address"
        },
        {
          "internalType": "uint256",
          "name": "value_",
          "type": "uint256"
        }
      ],
      "name": "transferFrom",
      "outputs": [
        {
          "internalType": "uint256",
          "name": "newTokenId",
          "type": "uint256"
        }
      ],
      "stateMutability": "payable",
      "type": "function"
    },
    {
      "inputs": [
        {
          "internalType": "address",
          "name": "from_",
          "type": "address"
        },
        {
          "internalType": "address",
          "name": "to_",
          "type": "address"
        },
        {
          "internalType": "uint256",
          "name": "tokenId_",
          "type": "uint256"
        }
      ],
      "name": "transferFrom",
      "outputs": [],
      "stateMutability": "payable",
      "type": "function"
    },
    {
      "inputs": [
        {
          "internalType": "uint256",
          "name": "fromTokenId_",
          "type": "uint256"
        },
        {
          "internalType": "uint256",
          "name": "toTokenId_",
          "type": "uint256"
        },
        {
          "internalType": "uint256",
          "name": "value_",
          "type": "uint256"
        }
      ],
      "name": "transferFrom",
      "outputs": [],
      "stateMutability": "payable",
      "type": "function"
    },
    {
      "inputs": [],
      "name": "valueDecimals",
      "outputs": [
        {
          "internalType": "uint8",
          "name": "",
          "type": "uint8"
        }
      ],
      "stateMutability": "view",
      "type": "function"
    }
  ],
  "bytecode": "0x6080604052620032e9803803806200001781620004b9565b9283398101608082820312620004b45781516001600160401b0390818111620004b4578262000048918501620004f5565b906020928385015190828211620004b45762000066918601620004f5565b604085015160ff95868216809203620004b45760600151906001600160a01b0382168203620004b457600093845495888760081c161594858096620004a7575b80156200048f575b156200043357600197868960ff19831617895562000421575b50620000e48a885460081c16620000de8162000567565b62000567565b8760365581518381116200040d57603354928984811c9416801562000402575b8b851014620003ee5781908b601f9586811162000397575b50508b9085831160011462000330578a9262000324575b5050600019600383901b1c191690891b176033555b805192831162000310576034548881811c9116801562000305575b8a821014620002f157908183859493116200029b575b50899183116001146200023557879262000229575b5050600019600383901b1c191690861b176034555b603580546001600160a81b03191691909117600892831b610100600160a81b0316179055825495620001d99187901c1662000567565b620001ef575b604051612d209081620005c98239f35b7f7f26b83ff96e1f2b6a682f133852f6798a09c465da95921460cefb38474024989361ff0019169055604051908152a138808080620001df565b0151905038806200018e565b603488528988208994509190601f198416895b8c8282106200028457505084116200026a575b505050811b01603455620001a3565b015160001960f88460031b161c191690553880806200025b565b8385015186558c9790950194938401930162000248565b90919250603488528988208380860160051c8201928c8710620002e7575b9186958c929594930160051c01915b828110620002d857505062000179565b8a81558695508b9101620002c8565b92508192620002b9565b634e487b7160e01b88526022600452602488fd5b90607f169062000163565b634e487b7160e01b87526041600452602487fd5b01519050388062000133565b60338b528c8b208c94509190601f1984168c8f5b8282106200037f575050841162000365575b505050811b0160335562000148565b015160001960f88460031b161c1916905538808062000356565b8385015186558f979095019493840193018f62000344565b9091925060338b5285828c209181860160051c8301938610620003e4575b918d91869594930160051c01915b828110620003d557508d91506200011c565b8c81558594508d9101620003c3565b92508192620003b5565b634e487b7160e01b89526022600452602489fd5b93607f169362000104565b634e487b7160e01b88526041600452602488fd5b61ffff191661010117875538620000c7565b60405162461bcd60e51b8152600481018a9052602e60248201527f496e697469616c697a61626c653a20636f6e747261637420697320616c72656160448201526d191e481a5b9a5d1a585b1a5e995960921b6064820152608490fd5b50303b158015620000ae575060018a891614620000ae565b5060018a891610620000a6565b600080fd5b6040519190601f01601f191682016001600160401b03811183821017620004df57604052565b634e487b7160e01b600052604160045260246000fd5b919080601f84011215620004b45782516001600160401b038111620004df576020906200052b601f8201601f19168301620004b9565b92818452828287010111620004b45760005b8181106200055357508260009394955001015290565b85810183015184820184015282016200053d565b156200056f57565b60405162461bcd60e51b815260206004820152602b60248201527f496e697469616c697a61626c653a20636f6e7472616374206973206e6f74206960448201526a6e697469616c697a696e6760a81b6064820152608490fdfe6080604052600436101561001257600080fd5b60003560e01c8062cd01101461149657806301ffc9a7146113ac57806306fdde03146112e9578063081812fc146112cb578063095ea7b31461114a57806309c3dd87146110d25780630f485c0214610be057806318160ddd14610bc257806323b872dd14610b9e578063263f3e7e14610b805780632f745c5914610ad4578063310ed7f014610aab5780633e7e866914610a8a57806342842e0e14610a675780634f6ccce7146109eb5780634f8a0f83146109cd57806355cd4e06146108235780636352211e146107f357806370a08231146107d0578063840f7113146107a75780638cb0a5111461070457806395d89b41146105f6578063993bef8d146105645780639cc7f70814610546578063a22cb46514610468578063b88d4fde146103e2578063c87b56dd14610347578063e345e0bc14610319578063e345f05e146102b5578063e8a3d485146101f7578063e985e9c51461019e5763ed08fa801461017b57600080fd5b34610199576000366003190112610199576020606654604051908152f35b600080fd5b34610199576040366003190112610199576101b7611595565b6101bf6115c1565b9060018060a01b03809116600052603a60205260026040600020019116600052602052602060ff604060002054166040519015158152f35b3461019957600036600319011261019957600060405161021681611652565b52603b546001600160a01b0316801561029c57600060049160405192838092631c97e82760e21b82525afa8015610290576102699160009161026d575b505b604051918291602083526020830190611570565b0390f35b61028a91503d806000833e610282818361166e565b8101906118d9565b82610253565b6040513d6000823e3d90fd5b506102696040516102ac81611652565b60008152610255565b34610199576060366003190112610199576102ce611595565b6102d66115ab565b9060018060a01b038091166000526097602052604060002060243560005260205260406000209116600052602052602060ff604060002054166040519015158152f35b3461019957604036600319011261019957602061033f6103376115c1565b6004356119fc565b604051908152f35b346101995760203660031901126101995760043561036c61036782611c8d565b61182b565b600060405161037a81611652565b52603b546001600160a01b03169081156103d1576000906024604051809481936344a5a61760e11b835260048301525afa8015610290576102699160009161026d5750604051918291602083526020830190611570565b50506102696040516102ac81611652565b6080366003190112610199576103f6611595565b6103fe6115c1565b6064359167ffffffffffffffff831161019957366023840112156101995782600401359161042b83611690565b92610439604051948561166e565b80845236602482870101116101995760208160009260246104669801838801378501015260443591611b11565b005b3461019957604036600319011261019957610481611595565b6024359081151590818303610199576001600160a01b031691338314610501576104d39033600052603a60205260026040600020018460005260205260406000209060ff801983541691151516179055565b6040519081527f17307eab39ab6107e8899845ad3d59bd9653f200f220920489ca2b5937696c3160203392a3005b60405162461bcd60e51b815260206004820152601c60248201527f43544d5257413030313a20617070726f766520746f2063616c6c6572000000006044820152606490fd5b3461019957602036600319011261019957602061033f600435611807565b34610199576020366003190112610199576004356066548110156105975761058d602091611704565b5054604051908152f35b60405162461bcd60e51b815260206004820152603160248201527f43544d525741303031536c6f74456e756d657261626c653a20736c6f7420696e604482015270646578206f7574206f6620626f756e647360781b6064820152608490fd5b3461019957600036600319011261019957604051600060345490600182811c918184169182156106fa575b60209485851084146106e45785879486865291826000146106c4575050600114610667575b506106539250038361166e565b610269604051928284938452830190611570565b84915060346000527f46bddb1178e94d7f2892ff5f366840eb658911794f2c3a44c450aa2c505186c1906000915b8583106106ac575050610653935082010185610646565b80548389018501528794508693909201918101610695565b60ff19168582015261065395151560051b85010192508791506106469050565b634e487b7160e01b600052602260045260246000fd5b92607f1692610621565b61070d366115d7565b9061072e6001600160a01b038061072386611877565b1690831614156116ac565b610738833361193b565b156107465761046692611e2e565b60405162461bcd60e51b815260206004820152603360248201527f43544d5257413030313a20617070726f76652063616c6c6572206973206e6f74604482015272081bdddb995c881b9bdc88185c1c1c9bdd9959606a1b6064820152608490fd5b3461019957600036600319011261019957603b546040516001600160a01b039091168152602090f35b3461019957602036600319011261019957602061033f6107ee611595565b611a2d565b34610199576020366003190112610199576020610811600435611877565b6040516001600160a01b039091168152f35b608036600319011261019957610837611595565b6024356108426115ab565b6064359283151590818503610199576001600160a01b039081169233841480156109a6575b156109315716938483146108da577f7bdf71e6625aa496095bf08b60c677cf81c963f402cf258981e3bd7507d3480c916108d160209285600052609784526040600020876000528452604060002088600052845260406000209060ff801983541691151516179055565b604051908152a4005b60405162461bcd60e51b815260206004820152602960248201527f43544d525741303031536c6f74417070726f7661626c653a20617070726f7665604482015268103a379037bbb732b960b91b6064820152608490fd5b60405162461bcd60e51b815260206004820152604160248201527f43544d525741303031536c6f74417070726f7661626c653a2063616c6c65722060448201527f6973206e6f74206f776e6572206e6f7220617070726f76656420666f7220616c6064820152601b60fa1b608482015260a490fd5b5083600052603a60205260026040600020013360005260205260ff60406000205416610867565b3461019957602036600319011261019957602061033f600435611754565b3461019957602036600319011261019957600435603854811015610a145761058d6020916117cc565b60405162461bcd60e51b815260206004820152602560248201527f43544d5257413030313a20676c6f62616c20696e646578206f7574206f6620626044820152646f756e647360d81b6064820152608490fd5b610466610a7336611601565b9060405192610a8184611652565b60008452611b11565b3461019957600036600319011261019957602060ff60355416604051908152f35b606036600319011261019957610466604435600435610acb828233611be9565b60243590612005565b3461019957604036600319011261019957610aed611595565b60243590610afa81611a2d565b821015610b2f57602091610b219160018060a01b0316600052603a835260406000206117b4565b90546040519160031b1c8152f35b60405162461bcd60e51b8152602060048201526024808201527f43544d5257413030313a206f776e657220696e646578206f7574206f6620626f604482015263756e647360e01b6064820152608490fd5b3461019957602036600319011261019957602061033f6004356118b5565b610466610baa36611601565b91610bbd610bb8843361193b565b611aa8565b6125b9565b34610199576000366003190112610199576020603854604051908152f35b610be9366115d7565b610bf68184939433611be9565b60365491610c0383611f6c565b603655610c0f816118b5565b6001600160a01b0385161561108157831561103057610c2d84611c8d565b610feb57610c3a81611786565b15610eaf575b60405194610c4d86611652565b600086526040519560c0870187811067ffffffffffffffff821117610e83576040528587528260208801526000604088015260018060a01b03821660608801526000608088015260a08701526038549585600052603960205286604060002055600160401b9081881015610e8357610ccc6001988981016038556117cc565b610e9957600560a0918351815560208401518b8201556040840151600282015560038101600180851b03606086015116906bffffffffffffffffffffffff851b91828254161790556004820190600180861b03608087015116908254161790550191015180519267ffffffffffffffff8411610e83578311610e8357602090610d5a84845481865585611d17565b0190600052602060002060005b838110610e675760208961033f8a828b8f828d818e610d868282611dc7565b6001600160a01b031660007fddf252ad1be2c89b69c2b068fc378daa952ba7f163c4a11628f55a4df523b3ef8180a480600083600080516020612ccb8339815191528280a48160005260398952610de16040600020546117cc565b50508160007f0b2aac84f3ec956911fd78eae5311062972ff949f38412e8da39069d9f068cc68b604051838152a3610e198282611cb5565b610e5f57610e5a928160005260678a52610e37604060002054611704565b50019081549060005260658a526040600020836000528a52604060002055611d4b565b612005565b505050612005565b82516001600160a01b0316818301556020909201918901610d67565b634e487b7160e01b600052604160045260246000fd5b634e487b7160e01b600052600060045260246000fd5b610eb881611786565b610f9157604051610ec881611652565b60008152604051610ed881611636565b82815260209182820190815260665492846000526067815283604060002055600160401b9283851015610e8357610f16600195868101606655611704565b610e9957859151815501915180519367ffffffffffffffff8511610e83578411610e83578190610f4b85855481875586611d17565b0191600052806000209060005b848110610f805750505050505080600080600080516020612ccb8339815191528180a4610c40565b835183820155928101928501610f58565b60405162461bcd60e51b815260206004820152602c60248201527f43544d525741303031536c6f74456e756d657261626c653a20736c6f7420616c60448201526b72656164792065786973747360a01b6064820152608490fd5b60405162461bcd60e51b815260206004820152601f60248201527f43544d5257413030313a20746f6b656e20616c7265616479206d696e746564006044820152606490fd5b60405162461bcd60e51b815260206004820152602360248201527f43544d5257413030313a2063616e6e6f74206d696e74207a65726f20746f6b656044820152621b925960ea1b6064820152608490fd5b60405162461bcd60e51b815260206004820152602360248201527f43544d5257413030313a206d696e7420746f20746865207a65726f206164647260448201526265737360e81b6064820152608490fd5b346101995760203660031901126101995760006040516110f181611652565b52603b546001600160a01b0316801561029c57600060249160405192838092633601bfc560e11b825260043560048301525afa8015610290576102699160009161026d5750604051918291602083526020830190611570565b60403660031901126101995761115e611595565b6024359061116b82611877565b611174836118b5565b6001600160a01b039283169291821690611190848314156116ac565b8133149182156112a2575b821561126f575b5050156112055782600052603960205260046111c26040600020546117cc565b500180546001600160a01b031916831790556111dd83611877565b167f8c5be1e5ebec7d5bd14f71427d1e84f3dd0314c0f7b2291e5b200ac8c7c3b925600080a4005b608460405162461bcd60e51b815260206004820152604060248201527f43544d5257413030313a20617070726f76652063616c6c6572206973206e6f7460448201527f206f776e6572206e6f7220617070726f76656420666f7220616c6c2f736c6f746064820152fd5b909150600052609760205260406000209060005260205260406000203360005260205260ff6040600020541684806111a2565b809250600052603a60205260026040600020013360005260205260ff604060002054169161119b565b34610199576020366003190112610199576020610811600435611b93565b3461019957600036600319011261019957604051600060335490600182811c918184169182156113a2575b60209485851084146106e45785879486865291826000146106c457505060011461134557506106539250038361166e565b84915060336000527f82a75bdeeae8604d839476ae9efd8b0e15aa447e21bfd7f41283bb54e22c9a82906000915b85831061138a575050610653935082010185610646565b80548389018501528794508693909201918101611373565b92607f1692611314565b346101995760203660031901126101995760043563ffffffff60e01b8116809103610199576020906316d117cb60e31b81149081156113f1575b506040519015158152f35b631dba0dcf60e11b81149150811561140b575b50826113e6565b6301ffc9a760e01b811491508115611485575b8115611474575b8115611463575b8115611452575b8115611441575b5082611404565b635b5e139f60e01b1490508261143a565b63780e9d6360e01b81149150611433565b6370b0048160e11b8114915061142c565b6380ac58cd60e01b81149150611425565b630354d60560e61b8114915061141e565b34610199576040366003190112610199576024356004356114b681611754565b8210156114e257602091610b21916000526067835260016114db604060002054611704565b50016117b4565b60405162461bcd60e51b815260206004820152603760248201527f43544d525741303031536c6f74456e756d657261626c653a20736c6f7420746f60448201527f6b656e20696e646578206f7574206f6620626f756e64730000000000000000006064820152608490fd5b60005b8381106115605750506000910152565b8181015183820152602001611550565b906020916115898151809281855285808601910161154d565b601f01601f1916010190565b600435906001600160a01b038216820361019957565b604435906001600160a01b038216820361019957565b602435906001600160a01b038216820361019957565b606090600319011261019957600435906024356001600160a01b0381168103610199579060443590565b6060906003190112610199576001600160a01b0390600435828116810361019957916024359081168103610199579060443590565b6040810190811067ffffffffffffffff821117610e8357604052565b6020810190811067ffffffffffffffff821117610e8357604052565b90601f8019910116810190811067ffffffffffffffff821117610e8357604052565b67ffffffffffffffff8111610e8357601f01601f191660200190565b156116b357565b60405162461bcd60e51b8152602060048201526024808201527f43544d5257413030313a20617070726f76616c20746f2063757272656e74206f6044820152633bb732b960e11b6064820152608490fd5b60665481101561173e57606660005260011b7f46501879b8ca8525e8c2fd519e2fbfcfa2ebea26501294aa02cbfcfb12e943540190600090565b634e487b7160e01b600052603260045260246000fd5b61175d81611786565b15611780576000526067602052600161177a604060002054611704565b50015490565b50600090565b60665415159081611795575090565b80915060005260676020526117ae604060002054611704565b50541490565b805482101561173e5760005260206000200190600090565b60385481101561173e576006906038600052027f38395c5dceade9603479b177b68959049485df8aa97b39f3533039af5f4561990190600090565b61181361036782611c8d565b6000526039602052600261177a6040600020546117cc565b1561183257565b60405162461bcd60e51b815260206004820152601b60248201527f43544d5257413030313a20696e76616c696420746f6b656e20494400000000006044820152606490fd5b61188361036782611c8d565b60005260396020526118996040600020546117cc565b50600301546001600160a01b0316906118b382151561182b565b565b6118c161036782611c8d565b6000526039602052600161177a6040600020546117cc565b6020818303126101995780519067ffffffffffffffff8211610199570181601f8201121561019957805161190c81611690565b9261191a604051948561166e565b8184526020828401011161019957611938916020808501910161154d565b90565b9061194861036782611c8d565b61195181611877565b9161195b826118b5565b926001600160a01b039182169082168181149390929084156119e6575b505082156119bd575b821561198f575b5050905090565b6040925060ff9360009283526097602052838320908352602052828220908252602052205416803880611988565b915080600052603a60205260026040600020018260005260205260ff6040600020541691611981565b8294506119f290611b93565b1614913880611978565b611a0861036782611c8d565b600052603760205260406000209060018060a01b031660005260205260406000205490565b6001600160a01b03168015611a4d57600052603a60205260406000205490565b60405162461bcd60e51b815260206004820152602d60248201527f43544d5257413030313a2062616c616e636520717565727920666f722074686560448201526c207a65726f206164647265737360981b6064820152608490fd5b15611aaf57565b60405162461bcd60e51b815260206004820152603460248201527f43544d5257413030313a207472616e736665722063616c6c6572206973206e6f6044820152731d081bdddb995c881b9bdc88185c1c1c9bdd995960621b6064820152608490fd5b90611b35939291611b25610bb8843361193b565b611b308383836125b9565b612bb3565b15611b3c57565b60405162461bcd60e51b815260206004820152602960248201527f43544d5257413030313a207472616e7366657220746f206e6f6e20455243373260448201526818a932b1b2b4bb32b960b91b6064820152608490fd5b611b9f61036782611c8d565b6000526039602052611bb56040600020546117cc565b50600401546001600160a01b031690565b91908203918211611bd357565b634e487b7160e01b600052601160045260246000fd5b611bf381836119fc565b611bfd838361193b565b1580611c81575b611c0f575b50505050565b838110611c3257611c2993611c2391611bc6565b91611e2e565b38808080611c09565b60405162461bcd60e51b815260206004820152602160248201527f43544d5257413030313a20696e73756666696369656e7420616c6c6f77616e636044820152606560f81b6064820152608490fd5b50600019811415611c04565b60385415159081611c9c575090565b80915060005260396020526117ae6040600020546117cc565b90600082815260676020526001611ccf6040832054611704565b500190815415159384611ce4575b5050505090565b611d0693945090604091815260656020528181208582526020522054906117b4565b90549060031b1c1438808080611cdd565b9091828110611d2557505050565b60009182526020822092830192015b828110611d4057505050565b818155600101611d34565b90815491600160401b831015610e835782611d6e9160016118b3950181556117b4565b90919082549060031b91821b91600019901b1916179055565b8054908115611db15760001991820191611da183836117b4565b909182549160031b1b1916905555565b634e487b7160e01b600052603160045260246000fd5b9060406118b39260009083825260396020526003611de7848420546117cc565b500180546001600160a01b0319166001600160a01b039092169182179055808252603a60208181528484208054878652600191909101825285852055918352905220611d4b565b6001600160a01b038083169391928415611f125783611e4c91611f7b565b15611e9a575b5060207f621b050de0ad08b51d19b48b3e6df75348c4de6bdd93e81b252ca62e28265b1b918360005260378252604060002085600052825280604060002055604051908152a3565b8260005260396020526005611eb36040600020546117cc565b500191825491600160401b831015610e8357611ef8837f621b050de0ad08b51d19b48b3e6df75348c4de6bdd93e81b252ca62e28265b1b9560016020960181556117b4565b819291549060031b9188831b921b19161790559150611e52565b60405162461bcd60e51b815260206004820152602c60248201527f43544d5257413030313a20617070726f76652076616c756520746f207468652060448201526b7a65726f206164647265737360a01b6064820152608490fd5b6000198114611bd35760010190565b6000908282526039602090808252604090611f98828620546117cc565b509260058094015496865b888110611fb65750505050505050905090565b818852838352611fcd81876114db888c20546117cc565b905460039190911b1c6001600160a01b0390811690881614611ff757611ff290611f6c565b611fa3565b505050505050505050600190565b92919061201184611c8d565b156125625761201f81611c8d565b1561250d5760008481526020926039845260409261203f848420546117cc565b509681845260398652612054858520546117cc565b509760028101848154106124b45760019182810191825491848d015483036124575760030180546001600160a01b0393919291908416158061244f575b8061243f575b6122cb575b506120a8888254611bc6565b905560028c018054908882018092116122b7579187877f0b2aac84f3ec956911fd78eae5311062972ff949f38412e8da39069d9f068cc68e8e889660039855518d8152a354169b01541690549915806122af575b8061229e575b156121bd575082896121449261215798999a9b885260678b526121278a892054611704565b500190815490885260658b528988208389528b5289882055611d4b565b85519361215085611652565b8452612a5f565b15612160575050565b60849250519062461bcd60e51b82526004820152603160248201527f43544d5257413030313a207472616e736665722072656a65637465642062792060448201527021aa26a92ba0981818a932b1b2b4bb32b960791b6064820152fd5b1580612296575b80612286575b6121dd575b506121579495969750612144565b888552606787526121f086862054611704565b5001978854600019810190811161227257986122699161221661215798999a9b836117b4565b905482895260658c528a8920868a528c528a8920549160031b1c61223e81611d6e84876117b4565b82895260658c528a89209089528b528988205586526065895287862083875289528588812055611d87565b879695946121cf565b634e487b7160e01b86526011600452602486fd5b50612291828a611cb5565b6121ca565b5082156121c4565b506122a9848b611cb5565b15612102565b5082156120fc565b634e487b7160e01b8a52601160045260248afd5b6122d481611786565b6123e65760678b8b8e8251926122e984611652565b8284528051926122f884611636565b868452828401948552606654958693888352522055600160401b92838110156123be57808a61232a9201606655611704565b9190916123d25790899151815501905180519267ffffffffffffffff84116123be5783116123aa57888f808f9361236687875481895588611d17565b0193835280832092905b858210612397575050505050508980600080516020612ccb8339815191528180a43861209c565b845194019381840155018f908a91612370565b634e487b7160e01b8d52604160045260248dfd5b634e487b7160e01b8e52604160045260248efd5b634e487b7160e01b8e5260048e905260248efd5b8a5162461bcd60e51b8152600481018d9052602c60248201527f43544d525741303031536c6f74456e756d657261626c653a20736c6f7420616c60448201526b72656164792065786973747360a01b6064820152608490fd5b5061244981611786565b15612097565b508615612091565b895162461bcd60e51b8152600481018c9052603060248201527f43544d5257413030313a207472616e7366657220746f20746f6b656e2077697460448201526f1a08191a5999995c995b9d081cdb1bdd60821b6064820152608490fd5b865162461bcd60e51b815260048101899052602c60248201527f43544d5257413030313a20696e73756666696369656e742062616c616e63652060448201526b3337b9103a3930b739b332b960a11b6064820152608490fd5b60405162461bcd60e51b815260206004820152602760248201527f43544d5257413030313a207472616e7366657220746f20696e76616c696420746044820152661bdad95b88125160ca1b6064820152608490fd5b60405162461bcd60e51b815260206004820152602960248201527f43544d5257413030313a207472616e736665722066726f6d20696e76616c6964604482015268081d1bdad95b88125160ba1b6064820152608490fd5b91906125c482611877565b6001600160a01b03938416939081168490036129bb57808216908115612966576125ed846118b5565b916125f785611807565b50851590818061295e575b8061294e575b612829575b60009686885260209560398752604094600461262b878c20546117cc565b500180546001600160a01b031990811690915590898b8261264b83611877565b167f8c5be1e5ebec7d5bd14f71427d1e84f3dd0314c0f7b2291e5b200ac8c7c3b9258280a4898b52603989528a6005612686898320546117cc565b5001918b8b8454938b81925b8684106127f257505050505050508054908b8155816127d5575b5050888a526039885260036126c3878c20546117cc565b5001908154169055818952603a8752848920805460001981019081116127c1578994939261273383878e8d8c6126fd84986127389a6117b4565b90548585526001870180855292852054939160031b1c61272181611d6e868a6117b4565b8452528c822055528d8a812055611d87565b611dc7565b7fddf252ad1be2c89b69c2b068fc378daa952ba7f163c4a11628f55a4df523b3ef8980a4806127b9575b806127a8575b156127a15784826118b3965260678452600161278683832054611704565b50019384549382526065815282822090868352522055611d4b565b5050505050565b506127b38483611cb5565b15612768565b508315612762565b634e487b7160e01b8b52601160045260248bfd5b8b52888b20908101905b818110156126ac578b81556001016127df565b8561281f95612801868b6117b4565b9490549186526037845285209360031b1c168352528b812055611f6c565b8c908e8b8e612692565b61283284611786565b610f915760405161284281611652565b60009081815260405161285481611636565b8681526020918282019081526066549288855260678152836040862055600160401b928385101561291257612890600195868101606655611704565b91909161293a5790859151815501915180519367ffffffffffffffff851161292657841161291257908083926128cf868d999897965481875586611d17565b0191855280852090855b8481106128fe5750505050505080600080516020612ccb8339815191528180a461260d565b8351818401558b97509281019285016128d9565b634e487b7160e01b86526041600452602486fd5b634e487b7160e01b87526041600452602487fd5b634e487b7160e01b87526004879052602487fd5b5061295884611786565b15612608565b508515612602565b60405162461bcd60e51b815260206004820152602760248201527f43544d5257413030313a207472616e7366657220746f20746865207a65726f206044820152666164647265737360c81b6064820152608490fd5b60405162461bcd60e51b815260206004820152602660248201527f43544d5257413030313a207472616e736665722066726f6d20696e76616c69646044820152651037bbb732b960d11b6064820152608490fd5b9081602091031261019957516001600160e01b0319811681036101995790565b3d15612a5a573d90612a4082611690565b91612a4e604051938461166e565b82523d6000602084013e565b606090565b929092612a6b84611877565b803b63ffffffff1615612ba9576040516301ffc9a760e01b8152633abe4f5560e21b6004820181905295602095926001600160a01b0316918681602481865afa8091600091612b6c575b5090612ad1575050505050505050612acb612a2f565b50600190565b15612b605760008694612b10604051978896879586948d865233600487015260248601526044850152606484015260a0608484015260a4830190611570565b03925af191821561029057600092612b33575b50506001600160e01b0319161490565b612b529250803d10612b59575b612b4a818361166e565b810190612a0f565b3880612b23565b503d612b40565b50505050505050600190565b8881813d8311612ba2575b612b81818361166e565b81010312612b9e5751908115158203612b9b575038612ab5565b80fd5b5080fd5b503d612b77565b5050505050600190565b9192813b63ffffffff1615612cc157602091612c0b916000604051958680958194630a85bd0160e11b9a8b845233600485015260018060a01b0380951660248501526044840152608060648401526084830190611570565b0393165af160009181612ca1575b50612c9357612c26612a2f565b80519081612c8e5760405162461bcd60e51b815260206004820152603260248201527f4552433732313a207472616e7366657220746f206e6f6e20455243373231526560448201527131b2b4bb32b91034b6b83632b6b2b73a32b960711b6064820152608490fd5b602001fd5b6001600160e01b0319161490565b612cba91925060203d8111612b5957612b4a818361166e565b9038612c19565b5050505060019056fee4f48c240d3b994948aa54f3e2f5fca59263dfe1d52b6e4cf39a5d249b5ccb65a264697066735822122056b6910f8db87b4d21572b449b1269ec5250821a5dc99f342c631b7a1fc9b89364736f6c63430008140033",
  "linkReferences": {},
  "deployedLinkReferences": {}
}