{
  "_format": "hh-sol-artifact-1",
  "contractName": "CTMRWA001UpgradeableWithInit",
  "sourceName": "contracts/mocks/CTMRWA001BaseMockUpgradeableWithInit.sol",
  "abi": [
    {
      "inputs": [
        {
          "internalType": "string",
          "name": "name_",
          "type": "string"
        },
        {
          "internalType": "string",
          "name": "symbol_",
          "type": "string"
        },
        {
          "internalType": "uint8",
          "name": "decimals_",
          "type": "uint8"
        },
        {
          "internalType": "address",
          "name": "_ctmRwa001XChain",
          "type": "address"
        }
      ],
      "stateMutability": "payable",
      "type": "constructor"
    },
    {
      "anonymous": false,
      "inputs": [
        {
          "indexed": true,
          "internalType": "address",
          "name": "_owner",
          "type": "address"
        },
        {
          "indexed": true,
          "internalType": "address",
          "name": "_approved",
          "type": "address"
        },
        {
          "indexed": true,
          "internalType": "uint256",
          "name": "_tokenId",
          "type": "uint256"
        }
      ],
      "name": "Approval",
      "type": "event"
    },
    {
      "anonymous": false,
      "inputs": [
        {
          "indexed": true,
          "internalType": "address",
          "name": "_owner",
          "type": "address"
        },
        {
          "indexed": true,
          "internalType": "address",
          "name": "_operator",
          "type": "address"
        },
        {
          "indexed": false,
          "internalType": "bool",
          "name": "_approved",
          "type": "bool"
        }
      ],
      "name": "ApprovalForAll",
      "type": "event"
    },
    {
      "anonymous": false,
      "inputs": [
        {
          "indexed": true,
          "internalType": "uint256",
          "name": "_tokenId",
          "type": "uint256"
        },
        {
          "indexed": true,
          "internalType": "address",
          "name": "_operator",
          "type": "address"
        },
        {
          "indexed": false,
          "internalType": "uint256",
          "name": "_value",
          "type": "uint256"
        }
      ],
      "name": "ApprovalValue",
      "type": "event"
    },
    {
      "anonymous": false,
      "inputs": [
        {
          "indexed": false,
          "internalType": "uint8",
          "name": "version",
          "type": "uint8"
        }
      ],
      "name": "Initialized",
      "type": "event"
    },
    {
      "anonymous": false,
      "inputs": [
        {
          "indexed": true,
          "internalType": "address",
          "name": "metadataDescriptor",
          "type": "address"
        }
      ],
      "name": "SetMetadataDescriptor",
      "type": "event"
    },
    {
      "anonymous": false,
      "inputs": [
        {
          "indexed": true,
          "internalType": "uint256",
          "name": "_tokenId",
          "type": "uint256"
        },
        {
          "indexed": true,
          "internalType": "uint256",
          "name": "_oldSlot",
          "type": "uint256"
        },
        {
          "indexed": true,
          "internalType": "uint256",
          "name": "_newSlot",
          "type": "uint256"
        }
      ],
      "name": "SlotChanged",
      "type": "event"
    },
    {
      "anonymous": false,
      "inputs": [
        {
          "indexed": true,
          "internalType": "address",
          "name": "_from",
          "type": "address"
        },
        {
          "indexed": true,
          "internalType": "address",
          "name": "_to",
          "type": "address"
        },
        {
          "indexed": true,
          "internalType": "uint256",
          "name": "_tokenId",
          "type": "uint256"
        }
      ],
      "name": "Transfer",
      "type": "event"
    },
    {
      "anonymous": false,
      "inputs": [
        {
          "indexed": true,
          "internalType": "uint256",
          "name": "_fromTokenId",
          "type": "uint256"
        },
        {
          "indexed": true,
          "internalType": "uint256",
          "name": "_toTokenId",
          "type": "uint256"
        },
        {
          "indexed": false,
          "internalType": "uint256",
          "name": "_value",
          "type": "uint256"
        }
      ],
      "name": "TransferValue",
      "type": "event"
    },
    {
      "inputs": [
        {
          "internalType": "uint256",
          "name": "tokenId_",
          "type": "uint256"
        },
        {
          "internalType": "address",
          "name": "operator_",
          "type": "address"
        }
      ],
      "name": "allowance",
      "outputs": [
        {
          "internalType": "uint256",
          "name": "",
          "type": "uint256"
        }
      ],
      "stateMutability": "view",
      "type": "function"
    },
    {
      "inputs": [
        {
          "internalType": "address",
          "name": "to_",
          "type": "address"
        },
        {
          "internalType": "uint256",
          "name": "tokenId_",
          "type": "uint256"
        }
      ],
      "name": "approve",
      "outputs": [],
      "stateMutability": "payable",
      "type": "function"
    },
    {
      "inputs": [
        {
          "internalType": "uint256",
          "name": "tokenId_",
          "type": "uint256"
        },
        {
          "internalType": "address",
          "name": "to_",
          "type": "address"
        },
        {
          "internalType": "uint256",
          "name": "value_",
          "type": "uint256"
        }
      ],
      "name": "approve",
      "outputs": [],
      "stateMutability": "payable",
      "type": "function"
    },
    {
      "inputs": [
        {
          "internalType": "address",
          "name": "owner_",
          "type": "address"
        }
      ],
      "name": "balanceOf",
      "outputs": [
        {
          "internalType": "uint256",
          "name": "balance",
          "type": "uint256"
        }
      ],
      "stateMutability": "view",
      "type": "function"
    },
    {
      "inputs": [
        {
          "internalType": "uint256",
          "name": "tokenId_",
          "type": "uint256"
        }
      ],
      "name": "balanceOf",
      "outputs": [
        {
          "internalType": "uint256",
          "name": "",
          "type": "uint256"
        }
      ],
      "stateMutability": "view",
      "type": "function"
    },
    {
      "inputs": [],
      "name": "contractURI",
      "outputs": [
        {
          "internalType": "string",
          "name": "",
          "type": "string"
        }
      ],
      "stateMutability": "view",
      "type": "function"
    },
    {
      "inputs": [
        {
          "internalType": "uint256",
          "name": "tokenId_",
          "type": "uint256"
        }
      ],
      "name": "getApproved",
      "outputs": [
        {
          "internalType": "address",
          "name": "",
          "type": "address"
        }
      ],
      "stateMutability": "view",
      "type": "function"
    },
    {
      "inputs": [
        {
          "internalType": "address",
          "name": "owner_",
          "type": "address"
        },
        {
          "internalType": "address",
          "name": "operator_",
          "type": "address"
        }
      ],
      "name": "isApprovedForAll",
      "outputs": [
        {
          "internalType": "bool",
          "name": "",
          "type": "bool"
        }
      ],
      "stateMutability": "view",
      "type": "function"
    },
    {
      "inputs": [],
      "name": "metadataDescriptor",
      "outputs": [
        {
          "internalType": "contract ICTMRWA001MetadataDescriptorUpgradeable",
          "name": "",
          "type": "address"
        }
      ],
      "stateMutability": "view",
      "type": "function"
    },
    {
      "inputs": [],
      "name": "name",
      "outputs": [
        {
          "internalType": "string",
          "name": "",
          "type": "string"
        }
      ],
      "stateMutability": "view",
      "type": "function"
    },
    {
      "inputs": [
        {
          "internalType": "uint256",
          "name": "tokenId_",
          "type": "uint256"
        }
      ],
      "name": "ownerOf",
      "outputs": [
        {
          "internalType": "address",
          "name": "owner_",
          "type": "address"
        }
      ],
      "stateMutability": "view",
      "type": "function"
    },
    {
      "inputs": [
        {
          "internalType": "address",
          "name": "from_",
          "type": "address"
        },
        {
          "internalType": "address",
          "name": "to_",
          "type": "address"
        },
        {
          "internalType": "uint256",
          "name": "tokenId_",
          "type": "uint256"
        }
      ],
      "name": "safeTransferFrom",
      "outputs": [],
      "stateMutability": "payable",
      "type": "function"
    },
    {
      "inputs": [
        {
          "internalType": "address",
          "name": "from_",
          "type": "address"
        },
        {
          "internalType": "address",
          "name": "to_",
          "type": "address"
        },
        {
          "internalType": "uint256",
          "name": "tokenId_",
          "type": "uint256"
        },
        {
          "internalType": "bytes",
          "name": "data_",
          "type": "bytes"
        }
      ],
      "name": "safeTransferFrom",
      "outputs": [],
      "stateMutability": "payable",
      "type": "function"
    },
    {
      "inputs": [
        {
          "internalType": "address",
          "name": "operator_",
          "type": "address"
        },
        {
          "internalType": "bool",
          "name": "approved_",
          "type": "bool"
        }
      ],
      "name": "setApprovalForAll",
      "outputs": [],
      "stateMutability": "nonpayable",
      "type": "function"
    },
    {
      "inputs": [
        {
          "internalType": "uint256",
          "name": "tokenId_",
          "type": "uint256"
        }
      ],
      "name": "slotOf",
      "outputs": [
        {
          "internalType": "uint256",
          "name": "",
          "type": "uint256"
        }
      ],
      "stateMutability": "view",
      "type": "function"
    },
    {
      "inputs": [
        {
          "internalType": "uint256",
          "name": "slot_",
          "type": "uint256"
        }
      ],
      "name": "slotURI",
      "outputs": [
        {
          "internalType": "string",
          "name": "",
          "type": "string"
        }
      ],
      "stateMutability": "view",
      "type": "function"
    },
    {
      "inputs": [
        {
          "internalType": "bytes4",
          "name": "interfaceId",
          "type": "bytes4"
        }
      ],
      "name": "supportsInterface",
      "outputs": [
        {
          "internalType": "bool",
          "name": "",
          "type": "bool"
        }
      ],
      "stateMutability": "view",
      "type": "function"
    },
    {
      "inputs": [],
      "name": "symbol",
      "outputs": [
        {
          "internalType": "string",
          "name": "",
          "type": "string"
        }
      ],
      "stateMutability": "view",
      "type": "function"
    },
    {
      "inputs": [
        {
          "internalType": "uint256",
          "name": "index_",
          "type": "uint256"
        }
      ],
      "name": "tokenByIndex",
      "outputs": [
        {
          "internalType": "uint256",
          "name": "",
          "type": "uint256"
        }
      ],
      "stateMutability": "view",
      "type": "function"
    },
    {
      "inputs": [
        {
          "internalType": "address",
          "name": "owner_",
          "type": "address"
        },
        {
          "internalType": "uint256",
          "name": "index_",
          "type": "uint256"
        }
      ],
      "name": "tokenOfOwnerByIndex",
      "outputs": [
        {
          "internalType": "uint256",
          "name": "",
          "type": "uint256"
        }
      ],
      "stateMutability": "view",
      "type": "function"
    },
    {
      "inputs": [
        {
          "internalType": "uint256",
          "name": "tokenId_",
          "type": "uint256"
        }
      ],
      "name": "tokenURI",
      "outputs": [
        {
          "internalType": "string",
          "name": "",
          "type": "string"
        }
      ],
      "stateMutability": "view",
      "type": "function"
    },
    {
      "inputs": [],
      "name": "totalSupply",
      "outputs": [
        {
          "internalType": "uint256",
          "name": "",
          "type": "uint256"
        }
      ],
      "stateMutability": "view",
      "type": "function"
    },
    {
      "inputs": [
        {
          "internalType": "uint256",
          "name": "fromTokenId_",
          "type": "uint256"
        },
        {
          "internalType": "address",
          "name": "to_",
          "type": "address"
        },
        {
          "internalType": "uint256",
          "name": "value_",
          "type": "uint256"
        }
      ],
      "name": "transferFrom",
      "outputs": [
        {
          "internalType": "uint256",
          "name": "newTokenId",
          "type": "uint256"
        }
      ],
      "stateMutability": "payable",
      "type": "function"
    },
    {
      "inputs": [
        {
          "internalType": "address",
          "name": "from_",
          "type": "address"
        },
        {
          "internalType": "address",
          "name": "to_",
          "type": "address"
        },
        {
          "internalType": "uint256",
          "name": "tokenId_",
          "type": "uint256"
        }
      ],
      "name": "transferFrom",
      "outputs": [],
      "stateMutability": "payable",
      "type": "function"
    },
    {
      "inputs": [
        {
          "internalType": "uint256",
          "name": "fromTokenId_",
          "type": "uint256"
        },
        {
          "internalType": "uint256",
          "name": "toTokenId_",
          "type": "uint256"
        },
        {
          "internalType": "uint256",
          "name": "value_",
          "type": "uint256"
        }
      ],
      "name": "transferFrom",
      "outputs": [],
      "stateMutability": "payable",
      "type": "function"
    },
    {
      "inputs": [],
      "name": "valueDecimals",
      "outputs": [
        {
          "internalType": "uint8",
          "name": "",
          "type": "uint8"
        }
      ],
      "stateMutability": "view",
      "type": "function"
    }
  ],
  "bytecode": "0x6080604052620026e1803803806200001781620004ac565b9283398101608082820312620004a75781516001600160401b039290838111620004a7578262000049918301620004e8565b906020928382015190858211620004a75762000067918301620004e8565b9060408101519060ff8216809203620004a75760600151906001600160a01b0382168203620004a75760009586549460ff8660081c16159485809662000499575b801562000480575b156200042457600196868860ff198316178b5562000412575b50620000e760ff8a5460081c16620000e1816200055a565b6200055a565b866036558151838111620003fe57603354928884811c94168015620003f3575b8a851014620003df578190601f948581116200038b575b508a9085831160011462000324578c9262000318575b5050600019600383901b1c191690881b176033555b805192831162000304576034548781811c91168015620002f9575b89821014620002e557908183859493116200028f575b5088918311600114620002295789926200021d575b5050600019600383901b1c191690851b176034555b603580546001600160a81b0319169190911760089290921b610100600160a81b0316919091179055620001e2575b6040516121259081620005bc8239f35b7f7f26b83ff96e1f2b6a682f133852f6798a09c465da95921460cefb38474024989261ff00198154169055604051908152a1388080620001d2565b0151905038806200018f565b60348a52888a208894509190601f1984168b5b8b8282106200027857505084116200025e575b505050811b01603455620001a4565b015160001960f88460031b161c191690553880806200024f565b8385015186558b979095019493840193016200023c565b9091925060348a52888a208380860160051c8201928b8710620002db575b9186958b929594930160051c01915b828110620002cc5750506200017a565b8c81558695508a9101620002bc565b92508192620002ad565b634e487b7160e01b8a52602260045260248afd5b90607f169062000164565b634e487b7160e01b89526041600452602489fd5b01519050388062000134565b60338d528b8d208b94509190601f1984168e8e5b82821062000373575050841162000359575b505050811b0160335562000149565b015160001960f88460031b161c191690553880806200034a565b8385015186558e979095019493840193018e62000338565b90915060338c528a8c208580850160051c8201928d8610620003d5575b918c91869594930160051c01915b828110620003c65750506200011e565b8e81558594508c9101620003b6565b92508192620003a8565b634e487b7160e01b8b52602260045260248bfd5b93607f169362000107565b634e487b7160e01b8a52604160045260248afd5b61ffff191661010117895538620000c9565b60405162461bcd60e51b815260048101899052602e60248201527f496e697469616c697a61626c653a20636f6e747261637420697320616c72656160448201526d191e481a5b9a5d1a585b1a5e995960921b6064820152608490fd5b50303b158015620000b05750600160ff881614620000b0565b50600160ff881610620000a8565b600080fd5b6040519190601f01601f191682016001600160401b03811183821017620004d257604052565b634e487b7160e01b600052604160045260246000fd5b919080601f84011215620004a75782516001600160401b038111620004d2576020906200051e601f8201601f19168301620004ac565b92818452828287010111620004a75760005b8181106200054657508260009394955001015290565b858101830151848201840152820162000530565b156200056257565b60405162461bcd60e51b815260206004820152602b60248201527f496e697469616c697a61626c653a20636f6e7472616374206973206e6f74206960448201526a6e697469616c697a696e6760a81b6064820152608490fdfe608060408181526004918236101561001657600080fd5b600092833560e01c91826301ffc9a714610f085750816306fdde0314610e3b578163081812fc14610e1b578163095ea7b314610ce757816309c3dd8714610c725781630f485c02146108de57816318160ddd146108bf57816323b872dd1461089a578163263f3e7e1461087a5781632f745c59146107d0578163310ed7f0146107a55781633e7e86691461078357816342842e0e146107605781634f6ccce7146106d85781636352211e146106a757816370a0823114610681578163840f7113146106585781638cb0a511146105ae57816395d89b41146104975781639cc7f70814610477578163a22cb465146103a4578163b88d4fde1461031f578163c87b56dd14610285578163e345e0bc14610253578163e8a3d48514610196575063e985e9c51461014357600080fd5b3461019257806003193601126101925760ff81602093610161611003565b61016961101e565b6001600160a01b039182168352603a875283832091168252600201855220549151911615158152f35b5080fd5b90503461024f578260031936011261024f578282516101b481611093565b52603b546001600160a01b03168015610236578390835192838092631c97e82760e21b82525afa90811561022a57836102039492610207575b5050905b51918291602083526020830190610fde565b0390f35b61022392503d8091833e61021b81836110c5565b81019061122c565b38806101ed565b505051903d90823e3d90fd5b505080516102039261024782611093565b8152906101f1565b8280fd5b8284346102825781600319360112610282575061027b60209261027461101e565b90356112e6565b9051908152f35b80fd5b90503461024f57602036600319011261024f5780356102ab6102a682611600565b61117e565b8383516102b781611093565b52603b546001600160a01b031691821561030c579060248592855194859384926344a5a61760e11b84528301525afa90811561022a578361020394926102075750509051918291602083526020830190610fde565b5050506102039181519061024782611093565b919050608036600319011261024f57610336611003565b61033e61101e565b846064359467ffffffffffffffff86116101925736602387011215610192578501359461037661036d876110e7565b955195866110c5565b858552366024878301011161019257856103a1966024602093018388013785010152604435916113fb565b80f35b9190503461024f578060031936011261024f576103bf611003565b9060243591821515809303610473576001600160a01b0316923384146104315750338452603a60205260028185200183855260205280842060ff1981541660ff8416179055519081527f17307eab39ab6107e8899845ad3d59bd9653f200f220920489ca2b5937696c3160203392a380f35b6020606492519162461bcd60e51b8352820152601c60248201527f43544d5257413030313a20617070726f766520746f2063616c6c6572000000006044820152fd5b8480fd5b828434610282576020366003190112610282575061027b60209235611154565b8284346102825780600319360112610282578151918160345492600184811c918186169586156105a4575b6020968785108114610591578899509688969785829a52918260001461056a57505060011461050e575b50505061020392916104ff9103856110c5565b51928284938452830190610fde565b9190869350603483527f46bddb1178e94d7f2892ff5f366840eb658911794f2c3a44c450aa2c505186c15b82841061055257505050820101816104ff6102036104ec565b8054848a018601528895508794909301928101610539565b60ff19168782015293151560051b860190930193508492506104ff915061020390506104ec565b634e487b7160e01b835260228a52602483fd5b92607f16926104c2565b8391506105ba36611034565b929091906105de6001600160a01b03806105d3856111ca565b16908516141561128e565b6105e882336114c8565b156105f957506103a19394506116dd565b608490602087519162461bcd60e51b8352820152603360248201527f43544d5257413030313a20617070726f76652063616c6c6572206973206e6f74604482015272081bdddb995c881b9bdc88185c1c1c9bdd9959606a1b6064820152fd5b505034610192578160031936011261019257603b5490516001600160a01b039091168152602090f35b5050346101925760203660031901126101925760209061027b6106a2611003565b611317565b82843461028257602036600319011261028257506106c7602092356111ca565b90516001600160a01b039091168152f35b90508234610282576020366003190112610282575080359060385482101561070f5760208361070684611103565b50549051908152f35b608490602084519162461bcd60e51b8352820152602560248201527f43544d5257413030313a20676c6f62616c20696e646578206f7574206f6620626044820152646f756e647360d81b6064820152fd5b836103a18461076e3661105e565b9192519261077b84611093565b8584526113fb565b50503461019257816003193601126101925760209060ff603554169051908152f35b83906060366003190112610192576103a19035604435906107c782823361155c565b602435906118bb565b905082346102825782600319360112610282576107eb611003565b602435926107f882611317565b84101561082b5760208561081d8682878760018060a01b03168152603a8652206114b0565b91905490519160031b1c8152f35b608490602086519162461bcd60e51b83528201526024808201527f43544d5257413030313a206f776e657220696e646578206f7574206f6620626f604482015263756e647360e01b6064820152fd5b828434610282576020366003190112610282575061027b60209235611208565b836103a16108a73661105e565b916108ba6108b584336114c8565b611392565b611b67565b5050346101925781600319360112610192576020906038549051908152f35b9190506108ea36611034565b94906108f786843361155c565b603654946109048661181b565b60365561091084611208565b916001600160a01b0380821692908315610c23578815610bd45761093389611600565b610b915787519061094382611093565b868252885167ffffffffffffffff939060c0810185811182821017610b7e57918c918a969594938d528281528c60208201938b855281830189815260608401918c835260808501938b855260a08601998a526038549b8c92815260396020522055600160401b95868b1015610b6b576109c360019b8c8101603855611103565b959095610b58579060059594939291518555518b8501555160028401558660038401915116906bffffffffffffffffffffffff60a01b91828254161790558685840192511690825416179055019351918251958611610b45578511610b3257508254848455808510610b0a575b506020019188526020882090885b848110610af55750505050505060209793879384610aef9794610a6282809661162e565b837fddf252ad1be2c89b69c2b068fc378daa952ba7f163c4a11628f55a4df523b3ef8180a481837fe4f48c240d3b994948aa54f3e2f5fca59263dfe1d52b6e4cf39a5d249b5ccb658280a481815260398952610ac087822054611103565b50507f0b2aac84f3ec956911fd78eae5311062972ff949f38412e8da39069d9f068cc6898851838152a36118bb565b51908152f35b85906020838651169501948185015501610a3e565b838a52858560208c2092830192015b828110610b27575050610a30565b8b8155018690610b19565b634e487b7160e01b8a5260419052602489fd5b634e487b7160e01b8b526041825260248bfd5b50634e487b7160e01b8f528e865260248ffd5b634e487b7160e01b8f526041865260248ffd5b634e487b7160e01b8a526041835260248afd5b875162461bcd60e51b8152602081840152601f60248201527f43544d5257413030313a20746f6b656e20616c7265616479206d696e746564006044820152606490fd5b875162461bcd60e51b8152602081840152602360248201527f43544d5257413030313a2063616e6e6f74206d696e74207a65726f20746f6b656044820152621b925960ea1b6064820152608490fd5b875162461bcd60e51b8152602081840152602360248201527f43544d5257413030313a206d696e7420746f20746865207a65726f206164647260448201526265737360e81b6064820152608490fd5b90503461024f57602036600319011261024f57828251610c9181611093565b52603b546001600160a01b03169081156102365783906024845180948193633601bfc560e11b83528035908301525afa90811561022a578361020394926102075750509051918291602083526020830190610fde565b9180915060031936011261024f57610cfd611003565b6024359290916001600160a01b0391908280610d18876111ca565b16941693610d288186141561128e565b803314908115610df9575b5015610d9057610d4d908587526039602052862054611103565b500180546001600160a01b03191683179055610d68836111ca565b167f8c5be1e5ebec7d5bd14f71427d1e84f3dd0314c0f7b2291e5b200ac8c7c3b9258480a480f35b906020608492519162461bcd60e51b8352820152603b60248201527f43544d5257413030313a20617070726f76652063616c6c6572206973206e6f7460448201527f206f776e6572206e6f7220617070726f76656420666f7220616c6c00000000006064820152fd5b90508652603a60205260028187200133875260205260ff818720541638610d33565b82843461028257602036600319011261028257506106c76020923561147d565b8284346102825780600319360112610282578151918160335492600184811c91818616958615610efe575b6020968785108114610591578899509688969785829a52918260001461056a575050600114610ea25750505061020392916104ff9103856110c5565b9190869350603383527f82a75bdeeae8604d839476ae9efd8b0e15aa447e21bfd7f41283bb54e22c9a825b828410610ee657505050820101816104ff6102036104ec565b8054848a018601528895508794909301928101610ecd565b92607f1692610e66565b84913461024f57602036600319011261024f573563ffffffff60e01b811680910361024f57602092506301ffc9a760e01b8114908115610faa575b8115610f99575b8115610f88575b8115610f77575b8115610f66575b5015158152f35b635b5e139f60e01b14905083610f5f565b63780e9d6360e01b81149150610f58565b6370b0048160e11b81149150610f51565b6380ac58cd60e01b81149150610f4a565b630354d60560e61b81149150610f43565b60005b838110610fce5750506000910152565b8181015183820152602001610fbe565b90602091610ff781518092818552858086019101610fbb565b601f01601f1916010190565b600435906001600160a01b038216820361101957565b600080fd5b602435906001600160a01b038216820361101957565b606090600319011261101957600435906024356001600160a01b0381168103611019579060443590565b6060906003190112611019576001600160a01b0390600435828116810361101957916024359081168103611019579060443590565b6020810190811067ffffffffffffffff8211176110af57604052565b634e487b7160e01b600052604160045260246000fd5b90601f8019910116810190811067ffffffffffffffff8211176110af57604052565b67ffffffffffffffff81116110af57601f01601f191660200190565b60385481101561113e576006906038600052027f38395c5dceade9603479b177b68959049485df8aa97b39f3533039af5f4561990190600090565b634e487b7160e01b600052603260045260246000fd5b6111606102a682611600565b60005260396020526002611178604060002054611103565b50015490565b1561118557565b60405162461bcd60e51b815260206004820152601b60248201527f43544d5257413030313a20696e76616c696420746f6b656e20494400000000006044820152606490fd5b6111d66102a682611600565b60005260396020526111ec604060002054611103565b50600301546001600160a01b03169061120682151561117e565b565b6112146102a682611600565b60005260396020526001611178604060002054611103565b6020818303126110195780519067ffffffffffffffff8211611019570181601f8201121561101957805161125f816110e7565b9261126d60405194856110c5565b818452602082840101116110195761128b9160208085019101610fbb565b90565b1561129557565b60405162461bcd60e51b8152602060048201526024808201527f43544d5257413030313a20617070726f76616c20746f2063757272656e74206f6044820152633bb732b960e11b6064820152608490fd5b6112f26102a682611600565b600052603760205260406000209060018060a01b031660005260205260406000205490565b6001600160a01b0316801561133757600052603a60205260406000205490565b60405162461bcd60e51b815260206004820152602d60248201527f43544d5257413030313a2062616c616e636520717565727920666f722074686560448201526c207a65726f206164647265737360981b6064820152608490fd5b1561139957565b60405162461bcd60e51b815260206004820152603460248201527f43544d5257413030313a207472616e736665722063616c6c6572206973206e6f6044820152731d081bdddb995c881b9bdc88185c1c1c9bdd995960621b6064820152608490fd5b9061141f93929161140f6108b584336114c8565b61141a838383611b67565b611fd8565b1561142657565b60405162461bcd60e51b815260206004820152602960248201527f43544d5257413030313a207472616e7366657220746f206e6f6e20455243373260448201526818a932b1b2b4bb32b960b91b6064820152608490fd5b6114896102a682611600565b600052603960205261149f604060002054611103565b50600401546001600160a01b031690565b805482101561113e5760005260206000200190600090565b906001600160a01b0380806114dc846111ca565b1693169183831493841561150f575b5083156114f9575b50505090565b6115059192935061147d565b16143880806114f3565b909350600052603a60205260026040600020018260005260205260ff6040600020541692386114eb565b9190820391821161154657565b634e487b7160e01b600052601160045260246000fd5b61156681836112e6565b61157083836114c8565b15806115f4575b611582575b50505050565b8381106115a55761159c9361159691611539565b916116dd565b3880808061157c565b60405162461bcd60e51b815260206004820152602160248201527f43544d5257413030313a20696e73756666696369656e7420616c6c6f77616e636044820152606560f81b6064820152608490fd5b50600019811415611577565b6038541515908161160f575090565b8091506000526039602052611628604060002054611103565b50541490565b600090828252603960205260036116486040842054611103565b500180546001600160a01b0319166001600160a01b039092169182179055808252603a602081815260408085208054878752600191909101835281862055928452528120805491600160401b8310156116c95750816116b091600161120695940181556114b0565b90919082549060031b91821b91600019901b1916179055565b634e487b7160e01b81526041600452602490fd5b6001600160a01b0380831693919284156117c157836116fb9161182a565b15611749575b5060207f621b050de0ad08b51d19b48b3e6df75348c4de6bdd93e81b252ca62e28265b1b918360005260378252604060002085600052825280604060002055604051908152a3565b8260005260396020526005611762604060002054611103565b500191825491600160401b8310156110af576117a7837f621b050de0ad08b51d19b48b3e6df75348c4de6bdd93e81b252ca62e28265b1b9560016020960181556114b0565b819291549060031b9188831b921b19161790559150611701565b60405162461bcd60e51b815260206004820152602c60248201527f43544d5257413030313a20617070726f76652076616c756520746f207468652060448201526b7a65726f206164647265737360a01b6064820152608490fd5b60001981146115465760010190565b600090828252603960209080825260409061184782862054611103565b509260058094015496865b8881106118655750505050505050905090565b818852838352611883818761187c888c2054611103565b50016114b0565b905460039190911b1c6001600160a01b03908116908816146118ad576118a89061181b565b611852565b505050505050505050600190565b9291906118c784611600565b15611b10576118d581611600565b15611abb576000848152602092603984526040926118f584842054611103565b508184526039865261190985852054611103565b50906002810190815490858210611a625760010154600184015403611a0557906119368560029493611539565b9055019687548381018091116119f15761198b959697985581817f0b2aac84f3ec956911fd78eae5311062972ff949f38412e8da39069d9f068cc6898951878152a385519361198485611093565b8452611e7f565b15611994575050565b60849250519062461bcd60e51b82526004820152603160248201527f43544d5257413030313a207472616e736665722072656a65637465642062792060448201527021aa26a92ba0981818a932b1b2b4bb32b960791b6064820152fd5b634e487b7160e01b85526011600452602485fd5b865162461bcd60e51b815260048101899052603060248201527f43544d5257413030313a207472616e7366657220746f20746f6b656e2077697460448201526f1a08191a5999995c995b9d081cdb1bdd60821b6064820152608490fd5b875162461bcd60e51b8152600481018a9052602c60248201527f43544d5257413030313a20696e73756666696369656e742062616c616e63652060448201526b3337b9103a3930b739b332b960a11b6064820152608490fd5b60405162461bcd60e51b815260206004820152602760248201527f43544d5257413030313a207472616e7366657220746f20696e76616c696420746044820152661bdad95b88125160ca1b6064820152608490fd5b60405162461bcd60e51b815260206004820152602960248201527f43544d5257413030313a207472616e736665722066726f6d20696e76616c6964604482015268081d1bdad95b88125160ba1b6064820152608490fd5b611b70836111ca565b6001600160a01b0391821691908116829003611ddb57808316928315611d8657611b9985611208565b50611ba385611154565b50600091858352602090603982526040906004611bc283872054611103565b500180546001600160a01b031990811690915590888682611be2836111ca565b167f8c5be1e5ebec7d5bd14f71427d1e84f3dd0314c0f7b2291e5b200ac8c7c3b9258280a4888652603984526005611c1c84882054611103565b500190815490875b828110611d505750505080549086815581611d33575b5050878552603983526003611c5183872054611103565b5001908154169055848452603a82528084209081549260001993848101908111611d1f5790611c82879392856114b0565b90549060031b1c9060018501908b85528181528385205492611ca8816116b0868a6114b0565b8552528183205588825281205580548015611d0b5792828892611d07947fddf252ad1be2c89b69c2b068fc378daa952ba7f163c4a11628f55a4df523b3ef97960191611cf483836114b0565b909182549160031b1b191690555561162e565b80a4565b634e487b7160e01b85526031600452602485fd5b634e487b7160e01b87526011600452602487fd5b8652838620908101905b81811015611c3a57868155600101611d3d565b808c83611d60611d8194886114b0565b929054908d5260378b52898d209260031b1c168b528852898781205561181b565b611c24565b60405162461bcd60e51b815260206004820152602760248201527f43544d5257413030313a207472616e7366657220746f20746865207a65726f206044820152666164647265737360c81b6064820152608490fd5b60405162461bcd60e51b815260206004820152602660248201527f43544d5257413030313a207472616e736665722066726f6d20696e76616c69646044820152651037bbb732b960d11b6064820152608490fd5b9081602091031261101957516001600160e01b0319811681036110195790565b3d15611e7a573d90611e60826110e7565b91611e6e60405193846110c5565b82523d6000602084013e565b606090565b929092611e8b846111ca565b803b63ffffffff1615611fce576040516301ffc9a760e01b8152633abe4f5560e21b6004820181905295602095926001600160a01b0316918681602481865afa8091600091611f98575b5090611ef1575050505050505050611eeb611e4f565b50600190565b15611f8c5760008694611f30604051978896879586948d865233600487015260248601526044850152606484015260a0608484015260a4830190610fde565b03925af1918215611f8057600092611f53575b50506001600160e01b0319161490565b611f729250803d10611f79575b611f6a81836110c5565b810190611e2f565b3880611f43565b503d611f60565b6040513d6000823e3d90fd5b50505050505050600190565b8881813d8311611fc7575b611fad81836110c5565b810103126101925751908115158203610282575038611ed5565b503d611fa3565b5050505050600190565b9192813b63ffffffff16156120e657602091612030916000604051958680958194630a85bd0160e11b9a8b845233600485015260018060a01b0380951660248501526044840152608060648401526084830190610fde565b0393165af1600091816120c6575b506120b85761204b611e4f565b805190816120b35760405162461bcd60e51b815260206004820152603260248201527f4552433732313a207472616e7366657220746f206e6f6e20455243373231526560448201527131b2b4bb32b91034b6b83632b6b2b73a32b960711b6064820152608490fd5b602001fd5b6001600160e01b0319161490565b6120df91925060203d8111611f7957611f6a81836110c5565b903861203e565b5050505060019056fea26469706673582212204c3253abb83000226a4ba613fdab676cc24483fa8014f2ffb5da1bcbb730d76864736f6c63430008140033",
  "linkReferences": {},
  "deployedLinkReferences": {}
}