{
  "_format": "hh-sol-artifact-1",
  "contractName": "CTMRWA001AllRoundMockUpgradeableWithInit",
  "sourceName": "contracts/mocks/CTMRWA001BaseMockUpgradeableWithInit.sol",
  "abi": [
    {
      "inputs": [
        {
          "internalType": "string",
          "name": "name_",
          "type": "string"
        },
        {
          "internalType": "string",
          "name": "symbol_",
          "type": "string"
        },
        {
          "internalType": "uint8",
          "name": "decimals_",
          "type": "uint8"
        },
        {
          "internalType": "address",
          "name": "_ctmRwa001XChain",
          "type": "address"
        }
      ],
      "stateMutability": "payable",
      "type": "constructor"
    },
    {
      "anonymous": false,
      "inputs": [
        {
          "indexed": true,
          "internalType": "address",
          "name": "_owner",
          "type": "address"
        },
        {
          "indexed": true,
          "internalType": "address",
          "name": "_approved",
          "type": "address"
        },
        {
          "indexed": true,
          "internalType": "uint256",
          "name": "_tokenId",
          "type": "uint256"
        }
      ],
      "name": "Approval",
      "type": "event"
    },
    {
      "anonymous": false,
      "inputs": [
        {
          "indexed": true,
          "internalType": "address",
          "name": "_owner",
          "type": "address"
        },
        {
          "indexed": true,
          "internalType": "address",
          "name": "_operator",
          "type": "address"
        },
        {
          "indexed": false,
          "internalType": "bool",
          "name": "_approved",
          "type": "bool"
        }
      ],
      "name": "ApprovalForAll",
      "type": "event"
    },
    {
      "anonymous": false,
      "inputs": [
        {
          "indexed": true,
          "internalType": "address",
          "name": "_owner",
          "type": "address"
        },
        {
          "indexed": true,
          "internalType": "uint256",
          "name": "_slot",
          "type": "uint256"
        },
        {
          "indexed": true,
          "internalType": "address",
          "name": "_operator",
          "type": "address"
        },
        {
          "indexed": false,
          "internalType": "bool",
          "name": "_approved",
          "type": "bool"
        }
      ],
      "name": "ApprovalForSlot",
      "type": "event"
    },
    {
      "anonymous": false,
      "inputs": [
        {
          "indexed": true,
          "internalType": "uint256",
          "name": "_tokenId",
          "type": "uint256"
        },
        {
          "indexed": true,
          "internalType": "address",
          "name": "_operator",
          "type": "address"
        },
        {
          "indexed": false,
          "internalType": "uint256",
          "name": "_value",
          "type": "uint256"
        }
      ],
      "name": "ApprovalValue",
      "type": "event"
    },
    {
      "anonymous": false,
      "inputs": [
        {
          "indexed": false,
          "internalType": "uint8",
          "name": "version",
          "type": "uint8"
        }
      ],
      "name": "Initialized",
      "type": "event"
    },
    {
      "anonymous": false,
      "inputs": [
        {
          "indexed": true,
          "internalType": "address",
          "name": "metadataDescriptor",
          "type": "address"
        }
      ],
      "name": "SetMetadataDescriptor",
      "type": "event"
    },
    {
      "anonymous": false,
      "inputs": [
        {
          "indexed": true,
          "internalType": "uint256",
          "name": "_tokenId",
          "type": "uint256"
        },
        {
          "indexed": true,
          "internalType": "uint256",
          "name": "_oldSlot",
          "type": "uint256"
        },
        {
          "indexed": true,
          "internalType": "uint256",
          "name": "_newSlot",
          "type": "uint256"
        }
      ],
      "name": "SlotChanged",
      "type": "event"
    },
    {
      "anonymous": false,
      "inputs": [
        {
          "indexed": true,
          "internalType": "address",
          "name": "_from",
          "type": "address"
        },
        {
          "indexed": true,
          "internalType": "address",
          "name": "_to",
          "type": "address"
        },
        {
          "indexed": true,
          "internalType": "uint256",
          "name": "_tokenId",
          "type": "uint256"
        }
      ],
      "name": "Transfer",
      "type": "event"
    },
    {
      "anonymous": false,
      "inputs": [
        {
          "indexed": true,
          "internalType": "uint256",
          "name": "_fromTokenId",
          "type": "uint256"
        },
        {
          "indexed": true,
          "internalType": "uint256",
          "name": "_toTokenId",
          "type": "uint256"
        },
        {
          "indexed": false,
          "internalType": "uint256",
          "name": "_value",
          "type": "uint256"
        }
      ],
      "name": "TransferValue",
      "type": "event"
    },
    {
      "inputs": [
        {
          "internalType": "uint256",
          "name": "tokenId_",
          "type": "uint256"
        },
        {
          "internalType": "address",
          "name": "operator_",
          "type": "address"
        }
      ],
      "name": "allowance",
      "outputs": [
        {
          "internalType": "uint256",
          "name": "",
          "type": "uint256"
        }
      ],
      "stateMutability": "view",
      "type": "function"
    },
    {
      "inputs": [
        {
          "internalType": "address",
          "name": "to_",
          "type": "address"
        },
        {
          "internalType": "uint256",
          "name": "tokenId_",
          "type": "uint256"
        }
      ],
      "name": "approve",
      "outputs": [],
      "stateMutability": "payable",
      "type": "function"
    },
    {
      "inputs": [
        {
          "internalType": "uint256",
          "name": "tokenId_",
          "type": "uint256"
        },
        {
          "internalType": "address",
          "name": "to_",
          "type": "address"
        },
        {
          "internalType": "uint256",
          "name": "value_",
          "type": "uint256"
        }
      ],
      "name": "approve",
      "outputs": [],
      "stateMutability": "payable",
      "type": "function"
    },
    {
      "inputs": [
        {
          "internalType": "address",
          "name": "owner_",
          "type": "address"
        }
      ],
      "name": "balanceOf",
      "outputs": [
        {
          "internalType": "uint256",
          "name": "balance",
          "type": "uint256"
        }
      ],
      "stateMutability": "view",
      "type": "function"
    },
    {
      "inputs": [
        {
          "internalType": "uint256",
          "name": "tokenId_",
          "type": "uint256"
        }
      ],
      "name": "balanceOf",
      "outputs": [
        {
          "internalType": "uint256",
          "name": "",
          "type": "uint256"
        }
      ],
      "stateMutability": "view",
      "type": "function"
    },
    {
      "inputs": [
        {
          "internalType": "uint256",
          "name": "tokenId_",
          "type": "uint256"
        }
      ],
      "name": "burn",
      "outputs": [],
      "stateMutability": "nonpayable",
      "type": "function"
    },
    {
      "inputs": [
        {
          "internalType": "uint256",
          "name": "tokenId_",
          "type": "uint256"
        },
        {
          "internalType": "uint256",
          "name": "burnValue_",
          "type": "uint256"
        }
      ],
      "name": "burnValue",
      "outputs": [],
      "stateMutability": "nonpayable",
      "type": "function"
    },
    {
      "inputs": [],
      "name": "contractURI",
      "outputs": [
        {
          "internalType": "string",
          "name": "",
          "type": "string"
        }
      ],
      "stateMutability": "view",
      "type": "function"
    },
    {
      "inputs": [
        {
          "internalType": "uint256",
          "name": "tokenId_",
          "type": "uint256"
        }
      ],
      "name": "getApproved",
      "outputs": [
        {
          "internalType": "address",
          "name": "",
          "type": "address"
        }
      ],
      "stateMutability": "view",
      "type": "function"
    },
    {
      "inputs": [
        {
          "internalType": "address",
          "name": "owner_",
          "type": "address"
        },
        {
          "internalType": "address",
          "name": "operator_",
          "type": "address"
        }
      ],
      "name": "isApprovedForAll",
      "outputs": [
        {
          "internalType": "bool",
          "name": "",
          "type": "bool"
        }
      ],
      "stateMutability": "view",
      "type": "function"
    },
    {
      "inputs": [
        {
          "internalType": "address",
          "name": "owner_",
          "type": "address"
        },
        {
          "internalType": "uint256",
          "name": "slot_",
          "type": "uint256"
        },
        {
          "internalType": "address",
          "name": "operator_",
          "type": "address"
        }
      ],
      "name": "isApprovedForSlot",
      "outputs": [
        {
          "internalType": "bool",
          "name": "",
          "type": "bool"
        }
      ],
      "stateMutability": "view",
      "type": "function"
    },
    {
      "inputs": [],
      "name": "metadataDescriptor",
      "outputs": [
        {
          "internalType": "contract ICTMRWA001MetadataDescriptorUpgradeable",
          "name": "",
          "type": "address"
        }
      ],
      "stateMutability": "view",
      "type": "function"
    },
    {
      "inputs": [
        {
          "internalType": "address",
          "name": "mintTo_",
          "type": "address"
        },
        {
          "internalType": "uint256",
          "name": "tokenId_",
          "type": "uint256"
        },
        {
          "internalType": "uint256",
          "name": "slot_",
          "type": "uint256"
        },
        {
          "internalType": "uint256",
          "name": "value_",
          "type": "uint256"
        }
      ],
      "name": "mint",
      "outputs": [],
      "stateMutability": "nonpayable",
      "type": "function"
    },
    {
      "inputs": [
        {
          "internalType": "uint256",
          "name": "tokenId_",
          "type": "uint256"
        },
        {
          "internalType": "uint256",
          "name": "value_",
          "type": "uint256"
        }
      ],
      "name": "mintValue",
      "outputs": [],
      "stateMutability": "nonpayable",
      "type": "function"
    },
    {
      "inputs": [],
      "name": "name",
      "outputs": [
        {
          "internalType": "string",
          "name": "",
          "type": "string"
        }
      ],
      "stateMutability": "view",
      "type": "function"
    },
    {
      "inputs": [
        {
          "internalType": "uint256",
          "name": "tokenId_",
          "type": "uint256"
        }
      ],
      "name": "ownerOf",
      "outputs": [
        {
          "internalType": "address",
          "name": "owner_",
          "type": "address"
        }
      ],
      "stateMutability": "view",
      "type": "function"
    },
    {
      "inputs": [
        {
          "internalType": "address",
          "name": "from_",
          "type": "address"
        },
        {
          "internalType": "address",
          "name": "to_",
          "type": "address"
        },
        {
          "internalType": "uint256",
          "name": "tokenId_",
          "type": "uint256"
        }
      ],
      "name": "safeTransferFrom",
      "outputs": [],
      "stateMutability": "payable",
      "type": "function"
    },
    {
      "inputs": [
        {
          "internalType": "address",
          "name": "from_",
          "type": "address"
        },
        {
          "internalType": "address",
          "name": "to_",
          "type": "address"
        },
        {
          "internalType": "uint256",
          "name": "tokenId_",
          "type": "uint256"
        },
        {
          "internalType": "bytes",
          "name": "data_",
          "type": "bytes"
        }
      ],
      "name": "safeTransferFrom",
      "outputs": [],
      "stateMutability": "payable",
      "type": "function"
    },
    {
      "inputs": [
        {
          "internalType": "address",
          "name": "operator_",
          "type": "address"
        },
        {
          "internalType": "bool",
          "name": "approved_",
          "type": "bool"
        }
      ],
      "name": "setApprovalForAll",
      "outputs": [],
      "stateMutability": "nonpayable",
      "type": "function"
    },
    {
      "inputs": [
        {
          "internalType": "address",
          "name": "owner_",
          "type": "address"
        },
        {
          "internalType": "uint256",
          "name": "slot_",
          "type": "uint256"
        },
        {
          "internalType": "address",
          "name": "operator_",
          "type": "address"
        },
        {
          "internalType": "bool",
          "name": "approved_",
          "type": "bool"
        }
      ],
      "name": "setApprovalForSlot",
      "outputs": [],
      "stateMutability": "payable",
      "type": "function"
    },
    {
      "inputs": [
        {
          "internalType": "uint256",
          "name": "index_",
          "type": "uint256"
        }
      ],
      "name": "slotByIndex",
      "outputs": [
        {
          "internalType": "uint256",
          "name": "",
          "type": "uint256"
        }
      ],
      "stateMutability": "view",
      "type": "function"
    },
    {
      "inputs": [],
      "name": "slotCount",
      "outputs": [
        {
          "internalType": "uint256",
          "name": "",
          "type": "uint256"
        }
      ],
      "stateMutability": "view",
      "type": "function"
    },
    {
      "inputs": [
        {
          "internalType": "uint256",
          "name": "tokenId_",
          "type": "uint256"
        }
      ],
      "name": "slotOf",
      "outputs": [
        {
          "internalType": "uint256",
          "name": "",
          "type": "uint256"
        }
      ],
      "stateMutability": "view",
      "type": "function"
    },
    {
      "inputs": [
        {
          "internalType": "uint256",
          "name": "slot_",
          "type": "uint256"
        }
      ],
      "name": "slotURI",
      "outputs": [
        {
          "internalType": "string",
          "name": "",
          "type": "string"
        }
      ],
      "stateMutability": "view",
      "type": "function"
    },
    {
      "inputs": [
        {
          "internalType": "bytes4",
          "name": "interfaceId",
          "type": "bytes4"
        }
      ],
      "name": "supportsInterface",
      "outputs": [
        {
          "internalType": "bool",
          "name": "",
          "type": "bool"
        }
      ],
      "stateMutability": "view",
      "type": "function"
    },
    {
      "inputs": [],
      "name": "symbol",
      "outputs": [
        {
          "internalType": "string",
          "name": "",
          "type": "string"
        }
      ],
      "stateMutability": "view",
      "type": "function"
    },
    {
      "inputs": [
        {
          "internalType": "uint256",
          "name": "index_",
          "type": "uint256"
        }
      ],
      "name": "tokenByIndex",
      "outputs": [
        {
          "internalType": "uint256",
          "name": "",
          "type": "uint256"
        }
      ],
      "stateMutability": "view",
      "type": "function"
    },
    {
      "inputs": [
        {
          "internalType": "uint256",
          "name": "slot_",
          "type": "uint256"
        },
        {
          "internalType": "uint256",
          "name": "index_",
          "type": "uint256"
        }
      ],
      "name": "tokenInSlotByIndex",
      "outputs": [
        {
          "internalType": "uint256",
          "name": "",
          "type": "uint256"
        }
      ],
      "stateMutability": "view",
      "type": "function"
    },
    {
      "inputs": [
        {
          "internalType": "address",
          "name": "owner_",
          "type": "address"
        },
        {
          "internalType": "uint256",
          "name": "index_",
          "type": "uint256"
        }
      ],
      "name": "tokenOfOwnerByIndex",
      "outputs": [
        {
          "internalType": "uint256",
          "name": "",
          "type": "uint256"
        }
      ],
      "stateMutability": "view",
      "type": "function"
    },
    {
      "inputs": [
        {
          "internalType": "uint256",
          "name": "slot_",
          "type": "uint256"
        }
      ],
      "name": "tokenSupplyInSlot",
      "outputs": [
        {
          "internalType": "uint256",
          "name": "",
          "type": "uint256"
        }
      ],
      "stateMutability": "view",
      "type": "function"
    },
    {
      "inputs": [
        {
          "internalType": "uint256",
          "name": "tokenId_",
          "type": "uint256"
        }
      ],
      "name": "tokenURI",
      "outputs": [
        {
          "internalType": "string",
          "name": "",
          "type": "string"
        }
      ],
      "stateMutability": "view",
      "type": "function"
    },
    {
      "inputs": [],
      "name": "totalSupply",
      "outputs": [
        {
          "internalType": "uint256",
          "name": "",
          "type": "uint256"
        }
      ],
      "stateMutability": "view",
      "type": "function"
    },
    {
      "inputs": [
        {
          "internalType": "uint256",
          "name": "fromTokenId_",
          "type": "uint256"
        },
        {
          "internalType": "address",
          "name": "to_",
          "type": "address"
        },
        {
          "internalType": "uint256",
          "name": "value_",
          "type": "uint256"
        }
      ],
      "name": "transferFrom",
      "outputs": [
        {
          "internalType": "uint256",
          "name": "newTokenId",
          "type": "uint256"
        }
      ],
      "stateMutability": "payable",
      "type": "function"
    },
    {
      "inputs": [
        {
          "internalType": "address",
          "name": "from_",
          "type": "address"
        },
        {
          "internalType": "address",
          "name": "to_",
          "type": "address"
        },
        {
          "internalType": "uint256",
          "name": "tokenId_",
          "type": "uint256"
        }
      ],
      "name": "transferFrom",
      "outputs": [],
      "stateMutability": "payable",
      "type": "function"
    },
    {
      "inputs": [
        {
          "internalType": "uint256",
          "name": "fromTokenId_",
          "type": "uint256"
        },
        {
          "internalType": "uint256",
          "name": "toTokenId_",
          "type": "uint256"
        },
        {
          "internalType": "uint256",
          "name": "value_",
          "type": "uint256"
        }
      ],
      "name": "transferFrom",
      "outputs": [],
      "stateMutability": "payable",
      "type": "function"
    },
    {
      "inputs": [],
      "name": "valueDecimals",
      "outputs": [
        {
          "internalType": "uint8",
          "name": "",
          "type": "uint8"
        }
      ],
      "stateMutability": "view",
      "type": "function"
    }
  ],
  "bytecode": "0x60806040526200425c803803806200001781620004be565b9283398101608082820312620004b95781516001600160401b0390818111620004b9578262000048918501620004fa565b906020928385015190828211620004b95762000066918601620004fa565b604085015160ff95868216809203620004b95760600151906001600160a01b0382168203620004b957600093845495888760081c161594858096620004ac575b801562000494575b156200043857600197868960ff19831617895562000426575b50620000e48a885460081c16620000de816200056c565b6200056c565b8760365581518381116200041257603354928984811c9416801562000407575b8b851014620003f35781908b601f958681116200039c575b50508b9085831160011462000335578a9262000329575b5050600019600383901b1c191690891b176033555b805192831162000315576034548881811c911680156200030a575b8a821014620002f65790818385949311620002a0575b50899183116001146200023a5787926200022e575b5050600019600383901b1c191690861b176034555b603580546001600160a81b03191691909117600892831b610100600160a81b0316179055825495620001de9187901c16620000de816200056c565b620001f4575b604051613c8e9081620005ce8239f35b7f7f26b83ff96e1f2b6a682f133852f6798a09c465da95921460cefb38474024989361ff0019169055604051908152a138808080620001e4565b0151905038806200018e565b603488528988208994509190601f198416895b8c8282106200028957505084116200026f575b505050811b01603455620001a3565b015160001960f88460031b161c1916905538808062000260565b8385015186558c979095019493840193016200024d565b90919250603488528988208380860160051c8201928c8710620002ec575b9186958c929594930160051c01915b828110620002dd57505062000179565b8a81558695508b9101620002cd565b92508192620002be565b634e487b7160e01b88526022600452602488fd5b90607f169062000163565b634e487b7160e01b87526041600452602487fd5b01519050388062000133565b60338b528c8b208c94509190601f1984168c8f5b8282106200038457505084116200036a575b505050811b0160335562000148565b015160001960f88460031b161c191690553880806200035b565b8385015186558f979095019493840193018f62000349565b9091925060338b5285828c209181860160051c8301938610620003e9575b918d91869594930160051c01915b828110620003da57508d91506200011c565b8c81558594508d9101620003c8565b92508192620003ba565b634e487b7160e01b89526022600452602489fd5b93607f169362000104565b634e487b7160e01b88526041600452602488fd5b61ffff191661010117875538620000c7565b60405162461bcd60e51b8152600481018a9052602e60248201527f496e697469616c697a61626c653a20636f6e747261637420697320616c72656160448201526d191e481a5b9a5d1a585b1a5e995960921b6064820152608490fd5b50303b158015620000ae575060018a891614620000ae565b5060018a891610620000a6565b600080fd5b6040519190601f01601f191682016001600160401b03811183821017620004e457604052565b634e487b7160e01b600052604160045260246000fd5b919080601f84011215620004b95782516001600160401b038111620004e45760209062000530601f8201601f19168301620004be565b92818452828287010111620004b95760005b8181106200055857508260009394955001015290565b858101830151848201840152820162000542565b156200057457565b60405162461bcd60e51b815260206004820152602b60248201527f496e697469616c697a61626c653a20636f6e7472616374206973206e6f74206960448201526a6e697469616c697a696e6760a81b6064820152608490fdfe6040608081526004908136101561001557600080fd5b600090813560e01c8062cd01101461216257806301ffc9a71461207557806306fdde0314611fa8578063081812fc14611f88578063095ea7b314611e1957806309c3dd8714611da45780630f485c02146119ca57806318160ddd146119ac57806323b872dd14611987578063263f3e7e146119675780632f745c59146118bd578063310ed7f0146118925780633e7e86691461187157806342842e0e1461184e57806342966c681461149d5780634f6ccce71461141e5780634f8a0f83146113fe57806355cd4e061461125d5780636352211e1461122c57806370a0823114611207578063840f7113146111df57806387fe861114610e355780638cb0a51114610d8c57806395d89b4114610c75578063993bef8d14610be15780639cc7f70814610bc1578063a22cb46514610ae5578063a647e8ec14610768578063b88d4fde146106e7578063c87b56dd1461064d578063e345e0bc1461061b578063e345f05e146105c3578063e8a3d48514610506578063e985e9c5146104b6578063ed08fa80146104985763f0e88e7f146101ac57600080fd5b34610494576101ba36612210565b6101c5829392612582565b6101ce846125c0565b916101d883612491565b15610335575b6101e89085612b7f565b6101f28483612a2a565b6102345750839450806102319452606760205260016102138387205461240f565b50019182549186526065602052808620848752602052852055612b1c565b80f35b90926001600160a01b0390911615908161032c575b508061031d575b61025c575b5050905080f35b81835260206067815260016102738386205461240f565b5001928354600019810190811161030a578596509061029861030296949392866124bf565b9054828652606584528486208680528452848620549160031b1c6102d9816102c0848a6124bf565b90919082549060031b91821b91600019901b1916179055565b828652606584528486209086528352838520558352606581528183209083805252812055612b3f565b803880610255565b634e487b7160e01b865260118752602486fd5b50610327826129cc565b610250565b90501538610249565b61033e83612491565b61044e57835161034d81612360565b868152845161035b81612314565b84815260209182820190815260665492868a526067815283888b2055600160401b92838510156104165761039660019586810160665561240f565b91909161043c579085915181550191518051936001600160401b0385116104295784116104165781906103ce85855481875586612aba565b01918a52808a20908a5b848110610405575050505050506101e890838780600080516020613c398339815191528180a490506101de565b8351838201559281019285016103d8565b634e487b7160e01b8b5260418c5260248bfd5b634e487b7160e01b8c5260418d5260248cfd5b634e487b7160e01b8c528b8d5260248cfd5b835162461bcd60e51b8152602081890152602c6024820152600080516020613bd983398151915260448201526b72656164792065786973747360a01b6064820152608490fd5b5080fd5b50346104945781600319360112610494576020906066549051908152f35b503461049457806003193601126104945760ff816020936104d5612273565b6104dd61229f565b6001600160a01b039182168352603a875283832091168252600201855220549151911615158152f35b5082346105bf57826003193601126105bf5782825161052481612360565b52603b546001600160a01b031680156105a6578390835192838092631c97e82760e21b82525afa90811561059a57836105739492610577575b5050905b5191829160208352602083019061224e565b0390f35b61059392503d8091833e61058b818361237b565b8101906125e4565b838061055d565b505051903d90823e3d90fd5b50508051610573926105b782612360565b815290610561565b8280fd5b50346104945760603660031901126104945760ff816020936105e3612273565b6105eb612289565b6001600160a01b039182168352609787528383206024358452875283832091168252855220549151911615158152f35b50903461064a578160031936011261064a575061064360209261063c61229f565b9035612729565b9051908152f35b80fd5b5082346105bf5760203660031901126105bf57803561067361066e826129a4565b612536565b83835161067f81612360565b52603b546001600160a01b03169182156106d4579060248592855194859384926344a5a61760e11b84528301525afa90811561059a57836105739492610577575050905191829160208352602083019061224e565b505050610573918151906105b782612360565b50829060803660031901126105bf576106fe612273565b61070661229f565b84606435946001600160401b0386116104945736602387011215610494578501359461073d6107348761239c565b9551958661237b565b858552366024878301011161049457856102319660246020930183880137850101526044359161283e565b508290346105bf5760803660031901126105bf57610784612273565b604435926024803593926001600160a01b038116929091908315610a98578515610a4b576107b1866129a4565b610a0a576107be87612491565b156108b6575b8451916107d083612360565b8883528551926107df84612345565b878452886020850152898785015285606085015289608085015260a084015260385491878a52603960205282878b2055600160401b8310156108a557505085939261083e610843936108388460018996016038556124d7565b90612c29565b612bc2565b85600080516020613c198339815191528180a4828483600080516020613c398339815191528280a461087760643583612b7f565b6108818284612a2a565b61089f5782610231938552606760205260016102138387205461240f565b50505080f35b634e487b7160e01b8a526041905288fd5b6108bf87612491565b6109c65784516108ce81612360565b88815285516108dc81612314565b888152602091828201908152606654928a8c526067815283898d2055600160401b92838510156109915761091760019586810160665561240f565b9190916109b5579085915181550191518051936001600160401b0385116109a357841161099157819061094f85855481875586612aba565b01918c52808c20908c5b84811061098057505050505050868880600080516020613c398339815191528180a46107c4565b835183820155928101928501610959565b634e487b7160e01b8d5260418652868dfd5b634e487b7160e01b8e5260418752878efd5b634e487b7160e01b8e528d8752878efd5b602c608492602087519362461bcd60e51b8552840152820152600080516020613bd983398151915260448201526b72656164792065786973747360a01b6064820152fd5b601f606492602087519362461bcd60e51b85528401528201527f43544d5257413030313a20746f6b656e20616c7265616479206d696e746564006044820152fd5b6023608492602087519362461bcd60e51b85528401528201527f43544d5257413030313a2063616e6e6f74206d696e74207a65726f20746f6b656044820152621b925960ea1b6064820152fd5b6023608492602087519362461bcd60e51b85528401528201527f43544d5257413030313a206d696e7420746f20746865207a65726f206164647260448201526265737360e81b6064820152fd5b508290346105bf57806003193601126105bf57610b00612273565b9060243580151592838203610bbd576001600160a01b031693338514610b7a5750610b4d90338652603a6020526002838720018587526020528286209060ff801983541691151516179055565b519081527f17307eab39ab6107e8899845ad3d59bd9653f200f220920489ca2b5937696c3160203392a380f35b606490602084519162461bcd60e51b8352820152601c60248201527f43544d5257413030313a20617070726f766520746f2063616c6c6572000000006044820152fd5b8580fd5b50903461064a57602036600319011261064a575061064360209235612512565b5091903461064a57602036600319011261064a5750803590606654821015610c1857602083610c0f8461240f565b50549051908152f35b608490602084519162461bcd60e51b8352820152603160248201527f43544d525741303031536c6f74456e756d657261626c653a20736c6f7420696e604482015270646578206f7574206f6620626f756e647360781b6064820152fd5b50903461064a578060031936011261064a578151918160345492600184811c91818616958615610d82575b6020968785108114610d6f578899509688969785829a529182600014610d48575050600114610cec575b5050506105739291610cdd91038561237b565b5192828493845283019061224e565b9190869350603483527f46bddb1178e94d7f2892ff5f366840eb658911794f2c3a44c450aa2c505186c15b828410610d305750505082010181610cdd610573610cca565b8054848a018601528895508794909301928101610d17565b60ff19168782015293151560051b86019093019350849250610cdd91506105739050610cca565b634e487b7160e01b835260228a52602483fd5b92607f1692610ca0565b5091610d97366122b5565b92909190610dbb6001600160a01b0380610db085612582565b1690851614156123b7565b610dc58233612668565b15610dd65750610231939450612d06565b608490602087519162461bcd60e51b8352820152603360248201527f43544d5257413030313a20617070726f76652063616c6c6572206973206e6f74604482015272081bdddb995c881b9bdc88185c1c1c9bdd9959606a1b6064820152fd5b503461049457610e4436612210565b91610e57610e528333612668565b613b72565b610e6361066e836129a4565b81845260209260398452610e79828620546124d7565b509260018060a01b036003850154166001926002848701549601918183541061118e5787899285921594858096611186575b80611176575b610ffe575b9081610ed382600080516020613bf98339815191529594546128f3565b90558851908152a380610ff6575b80610fe6575b15610f22575084955082610231955260678452610f068287205461240f565b5001928354928652606581528186209086805252842055612aee565b91929390610f308386612a2a565b610f3f575b5050505050905080f35b84865260678252610f528487205461240f565b50019384546000198101908111610fd35786975090610f78610fc89795949392876124bf565b9054828752606584528587208588528452858720549160031b1c610fa0816102c0848b6124bf565b8287526065845285872090875283528486205584526065815282842091845252812055612b3f565b803880808080610f35565b634e487b7160e01b875260118852602487fd5b50610ff0846129cc565b15610ee7565b508015610ee1565b925092505061100c87612491565b61113057855161101b81612360565b89815286519061102a82612314565b88825289820190815260665491898c5260678b5282898d2055600160401b9283811015611109578089611060920160665561240f565b91909161111d579088915181550190518051926001600160401b038411611109578311610429579282828c89968f989582976110a0915481865585612aba565b019087528487208a885b8481106110e657505050505090600080516020613bf983398151915292918a8680600080516020613c398339815191528180a490919250610eb6565b9295985092959093965084519401938184015501928c95928895928a8e966110aa565b50634e487b7160e01b8c5260418d5260248cfd5b50634e487b7160e01b8c528b8d5260248cfd5b855162461bcd60e51b8152808b01899052602c6024820152600080516020613bd983398151915260448201526b72656164792065786973747360a01b6064820152608490fd5b506111808a612491565b15610eb1565b508315610eab565b855162461bcd60e51b8152808b01899052602560248201527f43544d5257413030313a206275726e2076616c756520657863656564732062616044820152646c616e636560d81b6064820152608490fd5b5034610494578160031936011261049457603b5490516001600160a01b039091168152602090f35b503461049457602036600319011261049457602090610643611227612273565b61275a565b50903461064a57602036600319011261064a575061124c60209235612582565b90516001600160a01b039091168152f35b50829060803660031901126105bf57611274612273565b9060243591611281612289565b91606435801515928382036113fa576001600160a01b039081169433861480156113d9575b156113665716958685146113115750916020916113097f7bdf71e6625aa496095bf08b60c677cf81c963f402cf258981e3bd7507d3480c94868a5260978552828a20888b528552828a20898b528552828a209060ff801983541691151516179055565b51908152a480f35b608490602084519162461bcd60e51b8352820152602960248201527f43544d525741303031536c6f74417070726f7661626c653a20617070726f7665604482015268103a379037bbb732b960b91b6064820152fd5b835162461bcd60e51b81526020818a0152604160248201527f43544d525741303031536c6f74417070726f7661626c653a2063616c6c65722060448201527f6973206e6f74206f776e6572206e6f7220617070726f76656420666f7220616c6064820152601b60fa1b608482015260a490fd5b50858952603a6020526002848a2001338a5260205260ff848a2054166112a6565b8780fd5b50903461064a57602036600319011261064a57506106436020923561245f565b5091903461064a57602036600319011261064a575080359060385482101561144c57602083610c0f846124d7565b608490602084519162461bcd60e51b8352820152602560248201527f43544d5257413030313a20676c6f62616c20696e646578206f7574206f6620626044820152646f756e647360d81b6064820152fd5b503461049457602090816003193601126105bf578335906114c1610e528333612668565b6114cd61066e836129a4565b818452603983526114e0818520546124d7565b509160018060a01b03908160038501541691600192600284870154960154811592838094611846575b80611836575b6116f2575b61151d85613835565b6115278584613784565b6038546000198101919082116116df57898b8260058f8b958d918c86526039875261155583872054996124d7565b50928051986115638a612345565b84548a52840154888a0152600284015490890152816003840154166060890152820154166080870152018b518094859381845493848152019386528d82872096925b8484106116be5750505050506115bd9250038261237b565b60a08201526115cf81610838846124d7565b518a5260398952868a2055838952888681205560385480156116ab57600019016115f8816124d7565b6116995785600080516020613bf98339815191528b8d958f956116406005878a8f9a818a9e9c81809d5584015581600284015581600384015582015501805490888155612a8c565b6038558b51908152a3818884600080516020613c398339815191528380a4600080516020613c198339815191528280a480610ff65780610fe65715610f22575084955082610231955260678452610f068287205461240f565b634e487b7160e01b8b528a8c5260248bfd5b634e487b7160e01b8a5260318b5260248afd5b909294828493959750885416815201950192018f918d8795939694966115a5565b634e487b7160e01b8b5260118c5260248bfd5b6116fb88612491565b6117f05788875161170b81612360565b8b815288518a8a8e61171c84612314565b82845285840194855260676066549687948352522055600160401b92838110156117c957808a61174f920160665561240f565b9190916117de579089915181550190518051926001600160401b0384116117c9578311611109578b9061178784845481865585612aba565b01908c528a8c20888d5b8481106117b7575050505050878a80600080516020613c398339815191528180a4611514565b8d845194019381840155018990611791565b5050634e487b7160e01b8c5260418d5260248cfd5b634e487b7160e01b8e528d8f5260248efd5b865162461bcd60e51b8152808c018a9052602c6024820152600080516020613bd983398151915260448201526b72656164792065786973747360a01b6064820152608490fd5b5061184088612491565b1561150f565b508415611509565b506102319061185c366122df565b9192519261186984612360565b85845261283e565b503461049457816003193601126104945760209060ff603554169051908152f35b82846060366003190112610494576102319035604435906118b4828233612900565b60243590612edd565b5091903461064a578260031936011261064a576118d8612273565b602435926118e58261275a565b8410156119185760208561190a8682878760018060a01b03168152603a8652206124bf565b91905490519160031b1c8152f35b608490602086519162461bcd60e51b83528201526024808201527f43544d5257413030313a206f776e657220696e646578206f7574206f6620626f604482015263756e647360e01b6064820152fd5b50903461064a57602036600319011261064a5750610643602092356125c0565b82610231611994366122df565b916119a76119a28433612668565b6127d5565b613427565b50346104945781600319360112610494576020906038549051908152f35b506119d4366122b5565b91906119e1838333612900565b603654946119ee86612e44565b6036556119fa836125c0565b916001600160a01b038116908115611d55578715611d0657611a1b886129a4565b611cc357611a2884612491565b15611b69575b865198611a3a8a612360565b838a52875190611a4982612345565b89825260209a868c840152858a84015284606084015285608084015260a0830152603854908a865260398c52818a872055600160401b821015611b565750899593611aab87809561083e611b489c9b99966108388760018699016038556124d7565b82600080516020613c198339815191528180a4828183600080516020613c398339815191528280a481815260398a52611ae6888220546124d7565b50508181600080516020613bf98339815191528c8b51838152a3611b0a8284612a2a565b611b4e5782611b4393825260678b52886001611b288285205461240f565b500192835492815260658d528181208582528d522055612b1c565b612edd565b51908152f35b505050612edd565b634e487b7160e01b865260419052602485fd5b611b7284612491565b611c7d578651611b8181612360565b8381528751611b8f81612314565b8581526020918282019081526066549287875260678152838b882055600160401b9283851015611c4457611bca60019586810160665561240f565b919091611c6b579085915181550191518051936001600160401b038511611c58578411611c44578190611c0285855481875586612aba565b0191875280872090875b848110611c3357505050505050838380600080516020613c398339815191528180a4611a2e565b835183820155928101928501611c0c565b50634e487b7160e01b875260418d52602487fd5b634e487b7160e01b895260418f52602489fd5b634e487b7160e01b8952888f52602489fd5b865162461bcd60e51b81526020818b0152602c6024820152600080516020613bd983398151915260448201526b72656164792065786973747360a01b6064820152608490fd5b865162461bcd60e51b81526020818b0152601f60248201527f43544d5257413030313a20746f6b656e20616c7265616479206d696e746564006044820152606490fd5b865162461bcd60e51b81526020818b0152602360248201527f43544d5257413030313a2063616e6e6f74206d696e74207a65726f20746f6b656044820152621b925960ea1b6064820152608490fd5b865162461bcd60e51b81526020818b0152602360248201527f43544d5257413030313a206d696e7420746f20746865207a65726f206164647260448201526265737360e81b6064820152608490fd5b5082346105bf5760203660031901126105bf57828251611dc381612360565b52603b546001600160a01b03169081156105a65783906024845180948193633601bfc560e11b83528035908301525afa90811561059a57836105739492610577575050905191829160208352602083019061224e565b508083916003193601126105bf57611e2f612273565b9060243592611e3d84612582565b91611e47856125c0565b6001600160a01b039485169493841690611e63868314156123b7565b813314918215611f65575b8215611f3b575b505015611ed357611e909085875260396020528620546124d7565b500180546001600160a01b03191683179055611eab83612582565b167f8c5be1e5ebec7d5bd14f71427d1e84f3dd0314c0f7b2291e5b200ac8c7c3b9258480a480f35b60849250602081519262461bcd60e51b845283015260248201527f43544d5257413030313a20617070726f76652063616c6c6572206973206e6f7460448201527f206f776e6572206e6f7220617070726f76656420666f7220616c6c2f736c6f746064820152fd5b9091508752609760205281872090875260205280862033875260205260ff81872054168780611e75565b8092508852603a60205260028389200133895260205260ff838920541691611e6e565b50903461064a57602036600319011261064a575061124c602092356128c0565b50903461064a578060031936011261064a578151918160335492600184811c9181861695861561206b575b6020968785108114610d6f578899509688969785829a529182600014610d4857505060011461200f575050506105739291610cdd91038561237b565b9190869350603383527f82a75bdeeae8604d839476ae9efd8b0e15aa447e21bfd7f41283bb54e22c9a825b8284106120535750505082010181610cdd610573610cca565b8054848a01860152889550879490930192810161203a565b92607f1692611fd3565b5082346105bf5760203660031901126105bf57359063ffffffff60e01b82168092036105bf57602092506316d117cb60e31b82149182156120ba575b50519015158152f35b909150631dba0dcf60e11b81149081156120d7575b5090836120b1565b6301ffc9a760e01b811491508115612151575b8115612140575b811561212f575b811561211e575b811561210d575b50836120cf565b635b5e139f60e01b14905083612106565b63780e9d6360e01b811491506120ff565b6370b0048160e11b811491506120f8565b6380ac58cd60e01b811491506120f1565b630354d60560e61b811491506120ea565b5091903461064a5761217336612210565b9261217d8261245f565b8410156121a75760208561190a8660016121a0848989815260678852205461240f565b50016124bf565b608490602086519162461bcd60e51b8352820152603760248201527f43544d525741303031536c6f74456e756d657261626c653a20736c6f7420746f60448201527f6b656e20696e646578206f7574206f6620626f756e64730000000000000000006064820152fd5b6040906003190112612226576004359060243590565b600080fd5b60005b83811061223e5750506000910152565b818101518382015260200161222e565b906020916122678151809281855285808601910161222b565b601f01601f1916010190565b600435906001600160a01b038216820361222657565b604435906001600160a01b038216820361222657565b602435906001600160a01b038216820361222657565b606090600319011261222657600435906024356001600160a01b0381168103612226579060443590565b6060906003190112612226576001600160a01b0390600435828116810361222657916024359081168103612226579060443590565b604081019081106001600160401b0382111761232f57604052565b634e487b7160e01b600052604160045260246000fd5b60c081019081106001600160401b0382111761232f57604052565b602081019081106001600160401b0382111761232f57604052565b90601f801991011681019081106001600160401b0382111761232f57604052565b6001600160401b03811161232f57601f01601f191660200190565b156123be57565b60405162461bcd60e51b8152602060048201526024808201527f43544d5257413030313a20617070726f76616c20746f2063757272656e74206f6044820152633bb732b960e11b6064820152608490fd5b60665481101561244957606660005260011b7f46501879b8ca8525e8c2fd519e2fbfcfa2ebea26501294aa02cbfcfb12e943540190600090565b634e487b7160e01b600052603260045260246000fd5b61246881612491565b1561248b576000526067602052600161248560406000205461240f565b50015490565b50600090565b606654151590816124a0575090565b80915060005260676020526124b960406000205461240f565b50541490565b80548210156124495760005260206000200190600090565b603854811015612449576006906038600052027f38395c5dceade9603479b177b68959049485df8aa97b39f3533039af5f4561990190600090565b61251e61066e826129a4565b600052603960205260026124856040600020546124d7565b1561253d57565b60405162461bcd60e51b815260206004820152601b60248201527f43544d5257413030313a20696e76616c696420746f6b656e20494400000000006044820152606490fd5b61258e61066e826129a4565b60005260396020526125a46040600020546124d7565b50600301546001600160a01b0316906125be821515612536565b565b6125cc61066e826129a4565b600052603960205260016124856040600020546124d7565b602081830312612226578051906001600160401b038211612226570181601f820112156122265780516126168161239c565b92612624604051948561237b565b8184526020828401011161222657612642916020808501910161222b565b90565b9190820180921161265257565b634e487b7160e01b600052601160045260246000fd5b9061267561066e826129a4565b61267e81612582565b91612688826125c0565b926001600160a01b03918216908216818114939092908415612713575b505082156126ea575b82156126bc575b5050905090565b6040925060ff93600092835260976020528383209083526020528282209082526020522054168038806126b5565b915080600052603a60205260026040600020018260005260205260ff60406000205416916126ae565b82945061271f906128c0565b16149138806126a5565b61273561066e826129a4565b600052603760205260406000209060018060a01b031660005260205260406000205490565b6001600160a01b0316801561277a57600052603a60205260406000205490565b60405162461bcd60e51b815260206004820152602d60248201527f43544d5257413030313a2062616c616e636520717565727920666f722074686560448201526c207a65726f206164647265737360981b6064820152608490fd5b156127dc57565b60405162461bcd60e51b815260206004820152603460248201527f43544d5257413030313a207472616e736665722063616c6c6572206973206e6f6044820152731d081bdddb995c881b9bdc88185c1c1c9bdd995960621b6064820152608490fd5b906128629392916128526119a28433612668565b61285d838383613427565b613a5b565b1561286957565b60405162461bcd60e51b815260206004820152602960248201527f43544d5257413030313a207472616e7366657220746f206e6f6e20455243373260448201526818a932b1b2b4bb32b960b91b6064820152608490fd5b6128cc61066e826129a4565b60005260396020526128e26040600020546124d7565b50600401546001600160a01b031690565b9190820391821161265257565b61290a8183612729565b6129148383612668565b1580612998575b612926575b50505050565b838110612949576129409361293a916128f3565b91612d06565b38808080612920565b60405162461bcd60e51b815260206004820152602160248201527f43544d5257413030313a20696e73756666696369656e7420616c6c6f77616e636044820152606560f81b6064820152608490fd5b5060001981141561291b565b603854151590816129b3575090565b80915060005260396020526124b96040600020546124d7565b6000818152606760205260016129e5604083205461240f565b5001908154151592836129f9575b50505090565b612a1a935090604091815260656020528181208180526020522054906124bf565b90549060031b1c153880806129f3565b90600082815260676020526001612a44604083205461240f565b500190815415159384612a59575b5050505090565b612a7b93945090604091815260656020528181208582526020522054906124bf565b90549060031b1c1438808080612a52565b81612a95575050565b600090815260208120918201915b828110612aaf57505050565b818155600101612aa3565b9091828110612ac857505050565b60009182526020822092830192015b828110612ae357505050565b818155600101612ad7565b8054600160401b81101561232f57612b0b916001820181556124bf565b8154906000199060031b1b19169055565b90815491600160401b83101561232f57826102c09160016125be950181556124bf565b8054908115612b695760001991820191612b5983836124bf565b909182549160031b1b1916905555565b634e487b7160e01b600052603160045260246000fd5b90600080516020613bf98339815191526020600092848452603982526002612baa60408620546124d7565b5001612bb7828254612645565b9055604051908152a3565b9060406125be9260009083825260396020526003612be2848420546124d7565b500180546001600160a01b0319166001600160a01b039092169182179055808252603a60208181528484208054878652600191909101825285852055918352905220612b1c565b9190612cf057805182556020908181015192600193848201556040820151600282015560a060056003830192600180841b039384606087015116906bffffffffffffffffffffffff851b91828254161790556004820190856080880151169082541617905501920151928351936001600160401b03851161232f57600160401b851161232f578190612cc086865481885587612aba565b0192600052806000209160005b858110612cdd5750505050505050565b8451821684820155938201938601612ccd565b634e487b7160e01b600052600060045260246000fd5b6001600160a01b038083169391928415612dea5783612d2491612e53565b15612d72575b5060207f621b050de0ad08b51d19b48b3e6df75348c4de6bdd93e81b252ca62e28265b1b918360005260378252604060002085600052825280604060002055604051908152a3565b8260005260396020526005612d8b6040600020546124d7565b500191825491600160401b83101561232f57612dd0837f621b050de0ad08b51d19b48b3e6df75348c4de6bdd93e81b252ca62e28265b1b9560016020960181556124bf565b819291549060031b9188831b921b19161790559150612d2a565b60405162461bcd60e51b815260206004820152602c60248201527f43544d5257413030313a20617070726f76652076616c756520746f207468652060448201526b7a65726f206164647265737360a01b6064820152608490fd5b60001981146126525760010190565b6000908282526039602090808252604090612e70828620546124d7565b509260058094015496865b888110612e8e5750505050505050905090565b818852838352612ea581876121a0888c20546124d7565b905460039190911b1c6001600160a01b0390811690881614612ecf57612eca90612e44565b612e7b565b505050505050505050600190565b9091612ee8826129a4565b156133d057612ef6836129a4565b1561337b57816000526039602052612f126040600020546124d7565b5092806000526039602052612f2b6040600020546124d7565b509382600282015410613321576001810154600186015481036132c35760038201546001600160a01b031615806132bb575b806132ab575b613180575b50612f778360028301546128f3565b600282015560028501612f8b848254612645565b90558184600080516020613bf98339815191526020604051878152a3600381810154950154600190910154946001600160a01b0391821691161580613178575b80613167575b15613099575061301d81856130339660005260676020526001612ff860406000205461240f565b5001908154906000526065602052604060002083600052602052604060002055612b1c565b6040519261302a84612360565b60008452613902565b1561303a57565b60405162461bcd60e51b815260206004820152603160248201527f43544d5257413030313a207472616e736665722072656a65637465642062792060448201527021aa26a92ba0981818a932b1b2b4bb32b960791b6064820152608490fd5b158061315f575b8061314f575b6130b5575b613033935061301d565b83600052606760205260016130ce60406000205461240f565b5001805460001981019190821161265257613033956130f061314a93836124bf565b90549060031b1c81600052606560205260406000208760005260205260406000205490613121816102c084876124bf565b600092835260656020908152604080852092855291905280832091909155868252812055612b3f565b6130ab565b5061315a8385612a2a565b6130a6565b5080156130a0565b506131728286612a2a565b15612fd1565b508315612fcb565b61318981612491565b6132635760405161319981612360565b60008152604051906131aa82612314565b828252602082019081526066549183600052606760205282604060002055600160401b928381101561232f578060016131e6920160665561240f565b612cf0576001915181550190518051926001600160401b03841161232f57831161232f5760209061321c84845481865585612aba565b0190600052602060002060005b83811061324f5750505050600080600080516020613c398339815191528180a438612f68565b600190602084519401938184015501613229565b60405162461bcd60e51b815260206004820152602c6024820152600080516020613bd983398151915260448201526b72656164792065786973747360a01b6064820152608490fd5b506132b581612491565b15612f63565b508415612f5d565b60405162461bcd60e51b815260206004820152603060248201527f43544d5257413030313a207472616e7366657220746f20746f6b656e2077697460448201526f1a08191a5999995c995b9d081cdb1bdd60821b6064820152608490fd5b60405162461bcd60e51b815260206004820152602c60248201527f43544d5257413030313a20696e73756666696369656e742062616c616e63652060448201526b3337b9103a3930b739b332b960a11b6064820152608490fd5b60405162461bcd60e51b815260206004820152602760248201527f43544d5257413030313a207472616e7366657220746f20696e76616c696420746044820152661bdad95b88125160ca1b6064820152608490fd5b60405162461bcd60e51b815260206004820152602960248201527f43544d5257413030313a207472616e736665722066726f6d20696e76616c6964604482015268081d1bdad95b88125160ba1b6064820152608490fd5b91909161343382612582565b6001600160a01b0391908282169083168190036137305782851680156136db57849161345e836125c0565b9661346884612512565b5081159485806136d3575b806136c3575b61356a575b6134f09161083e868093816000809c828252603960205260046134a460408420546124d7565b500180546001600160a01b03191690556134bd83612582565b167f8c5be1e5ebec7d5bd14f71427d1e84f3dd0314c0f7b2291e5b200ac8c7c3b9258280a46134eb82613835565b613784565b600080516020613c198339815191528580a480613562575b80613551575b1561354c57826125be93825260676020526040600161352f8285205461240f565b500192835492815260656020528181208582526020522055612b1c565b505050565b5061355c8284612a2a565b1561350e565b508115613508565b909192935061357888612491565b6132635760405161358881612360565b60009081815260405161359a81612314565b8a8152602091828201908152606654928c855260678152836040862055600160401b9283851015613687576135d660019586810160665561240f565b9190916136af579085915181550191518051936001600160401b03851161369b57841161368757918184928f96948f9c9b9a99989661361a90855481875586612aba565b0191855280852090855b84811061365b575050505050508680936134f095938380600080516020613c398339815191528161083e97a493505050915061347e565b9085975083819496939597999a9b9c9d50519501948185015501918e9593918e9b9a9998979593613624565b634e487b7160e01b86526041600452602486fd5b634e487b7160e01b87526041600452602487fd5b634e487b7160e01b87526004879052602487fd5b506136cd89612491565b15613479565b508415613473565b60405162461bcd60e51b815260206004820152602760248201527f43544d5257413030313a207472616e7366657220746f20746865207a65726f206044820152666164647265737360c81b6064820152608490fd5b60405162461bcd60e51b815260206004820152602660248201527f43544d5257413030313a207472616e736665722066726f6d20696e76616c69646044820152651037bbb732b960d11b6064820152608490fd5b919091600090838252603960205260036137a160408420546124d7565b500180546001600160a01b03191690556001600160a01b03168152603a602052604081208054600019810194919291908511613821576137e56125be9495846124bf565b90549060031b1c600184018284528060205260408420549161380b816102c085896124bf565b8452602052604083205581526040812055612b3f565b634e487b7160e01b82526011600452602482fd5b90600082815260206039815260406005613851828520546124d7565b500194855492845b848110613874575050505050826125be929354918155612a8c565b806138826138ad928a6124bf565b90548589526037855286892060039290921b1c6001600160a01b031688528352848720879055612e44565b613859565b9081602091031261222657516001600160e01b0319811681036122265790565b3d156138fd573d906138e38261239c565b916138f1604051938461237b565b82523d6000602084013e565b606090565b92909261390e84612582565b803b63ffffffff1615613a51576040516301ffc9a760e01b8152633abe4f5560e21b6004820181905295602095926001600160a01b0316918681602481865afa8091600091613a1b575b509061397457505050505050505061396e6138d2565b50600190565b15613a0f57600086946139b3604051978896879586948d865233600487015260248601526044850152606484015260a0608484015260a483019061224e565b03925af1918215613a03576000926139d6575b50506001600160e01b0319161490565b6139f59250803d106139fc575b6139ed818361237b565b8101906138b2565b38806139c6565b503d6139e3565b6040513d6000823e3d90fd5b50505050505050600190565b8881813d8311613a4a575b613a30818361237b565b81010312610494575190811515820361064a575038613958565b503d613a26565b5050505050600190565b9192813b63ffffffff1615613b6957602091613ab3916000604051958680958194630a85bd0160e11b9a8b845233600485015260018060a01b038095166024850152604484015260806064840152608483019061224e565b0393165af160009181613b49575b50613b3b57613ace6138d2565b80519081613b365760405162461bcd60e51b815260206004820152603260248201527f4552433732313a207472616e7366657220746f206e6f6e20455243373231526560448201527131b2b4bb32b91034b6b83632b6b2b73a32b960711b6064820152608490fd5b602001fd5b6001600160e01b0319161490565b613b6291925060203d81116139fc576139ed818361237b565b9038613ac1565b50505050600190565b15613b7957565b60405162461bcd60e51b815260206004820152603160248201527f43544d5257413030313a2063616c6c6572206973206e6f7420746f6b656e206f6044820152701ddb995c881b9bdc88185c1c1c9bdd9959607a1b6064820152608490fdfe43544d525741303031536c6f74456e756d657261626c653a20736c6f7420616c0b2aac84f3ec956911fd78eae5311062972ff949f38412e8da39069d9f068cc6ddf252ad1be2c89b69c2b068fc378daa952ba7f163c4a11628f55a4df523b3efe4f48c240d3b994948aa54f3e2f5fca59263dfe1d52b6e4cf39a5d249b5ccb65a2646970667358221220536839895676d2eeea551c5d093e1486aaa375abd52023f4258797a5ee3434e364736f6c63430008140033",
  "linkReferences": {},
  "deployedLinkReferences": {}
}