{
  "_format": "hh-sol-artifact-1",
  "contractName": "ERC721ReceiverMock",
  "sourceName": "contracts/mocks/ERC721ReceiverMock.sol",
  "abi": [
    {
      "inputs": [
        {
          "internalType": "bytes4",
          "name": "retval",
          "type": "bytes4"
        },
        {
          "internalType": "enum ERC721ReceiverMock.Error",
          "name": "error",
          "type": "uint8"
        }
      ],
      "stateMutability": "nonpayable",
      "type": "constructor"
    },
    {
      "anonymous": false,
      "inputs": [
        {
          "indexed": false,
          "internalType": "address",
          "name": "operator",
          "type": "address"
        },
        {
          "indexed": false,
          "internalType": "address",
          "name": "from",
          "type": "address"
        },
        {
          "indexed": false,
          "internalType": "uint256",
          "name": "tokenId",
          "type": "uint256"
        },
        {
          "indexed": false,
          "internalType": "bytes",
          "name": "data",
          "type": "bytes"
        },
        {
          "indexed": false,
          "internalType": "uint256",
          "name": "gas",
          "type": "uint256"
        }
      ],
      "name": "Received",
      "type": "event"
    },
    {
      "inputs": [
        {
          "internalType": "address",
          "name": "operator",
          "type": "address"
        },
        {
          "internalType": "address",
          "name": "from",
          "type": "address"
        },
        {
          "internalType": "uint256",
          "name": "tokenId",
          "type": "uint256"
        },
        {
          "internalType": "bytes",
          "name": "data",
          "type": "bytes"
        }
      ],
      "name": "onERC721Received",
      "outputs": [
        {
          "internalType": "bytes4",
          "name": "",
          "type": "bytes4"
        }
      ],
      "stateMutability": "nonpayable",
      "type": "function"
    },
    {
      "inputs": [
        {
          "internalType": "bytes4",
          "name": "interfaceId",
          "type": "bytes4"
        }
      ],
      "name": "supportsInterface",
      "outputs": [
        {
          "internalType": "bool",
          "name": "",
          "type": "bool"
        }
      ],
      "stateMutability": "view",
      "type": "function"
    }
  ],
  "bytecode": "0x60c03461008557601f6103ae38819003918201601f19168301916001600160401b0383118484101761008a578084926040948552833981010312610085578051906001600160e01b03198216820361008557602001519060048210156100855760805260a05260405161030d90816100a18239608051816101e8015260a0518160e50152f35b600080fd5b634e487b7160e01b600052604160045260246000fdfe6080604081815260048036101561001557600080fd5b600092833560e01c90816301ffc9a714610283575063150b7a021461003957600080fd5b3461027f57608036600319011261027f576001600160a01b0392813584811693919084900361027c576024938435958616809603610278576064359567ffffffffffffffff90818811610274573660238901121561027457878601359082821161026257855191601f199384603f81601f8501160116840190848210908211176102505787528083523689828c01011161024c57889981879260209b9a9b9a8b930183870137840101527f00000000000000000000000000000000000000000000000000000000000000008881101561023a576001810361015657865162461bcd60e51b8152808a01899052601d818c01527f45524337323152656365697665724d6f636b3a20726576657274696e670000006044820152606490fd5b888160028c939a99989a1460001461016c578980fd5b9060038a9392146102295750505a918651958652878601526044358686015260a060608601528251928360a087015287825b8581106102155750877f28fa6e16458f9c24aa59ddd4085264573006dbe30304837873c7deafc702b0388860c0818a601f8b8b8b868387010152608085015201168101030190a1517f00000000000000000000000000000000000000000000000000000000000000006001600160e01b0319168152f35b82810182015188820160c00152810161019e565b634e487b7160e01b83526012905281fd5b634e487b7160e01b8652602189528986fd5b8580fd5b634e487b7160e01b8752604189528987fd5b634e487b7160e01b8552604187528785fd5b8380fd5b5080fd5b80fd5b8280fd5b9250503461027f57602036600319011261027f573563ffffffff60e01b811680910361027f57602092506301ffc9a760e01b81149081156102c6575b5015158152f35b630a85bd0160e11b149050386102bf56fea2646970667358221220278fcbc610e9fe117c0c0ce0b9f541e898ae2e9de6af4cb2ad613b440e43a67064736f6c63430008140033",
  "linkReferences": {},
  "deployedLinkReferences": {}
}