{
  "_format": "hh-sol-artifact-1",
  "contractName": "CTMRWA001Mintable",
  "sourceName": "contracts/CTMRWA001Mintable.sol",
  "abi": [
    {
      "inputs": [
        {
          "internalType": "string",
          "name": "name_",
          "type": "string"
        },
        {
          "internalType": "string",
          "name": "symbol_",
          "type": "string"
        },
        {
          "internalType": "uint8",
          "name": "decimals_",
          "type": "uint8"
        },
        {
          "internalType": "address",
          "name": "_ctmRwa001XChain",
          "type": "address"
        }
      ],
      "stateMutability": "nonpayable",
      "type": "constructor"
    },
    {
      "anonymous": false,
      "inputs": [
        {
          "indexed": true,
          "internalType": "address",
          "name": "_owner",
          "type": "address"
        },
        {
          "indexed": true,
          "internalType": "address",
          "name": "_approved",
          "type": "address"
        },
        {
          "indexed": true,
          "internalType": "uint256",
          "name": "_tokenId",
          "type": "uint256"
        }
      ],
      "name": "Approval",
      "type": "event"
    },
    {
      "anonymous": false,
      "inputs": [
        {
          "indexed": true,
          "internalType": "address",
          "name": "_owner",
          "type": "address"
        },
        {
          "indexed": true,
          "internalType": "address",
          "name": "_operator",
          "type": "address"
        },
        {
          "indexed": false,
          "internalType": "bool",
          "name": "_approved",
          "type": "bool"
        }
      ],
      "name": "ApprovalForAll",
      "type": "event"
    },
    {
      "anonymous": false,
      "inputs": [
        {
          "indexed": true,
          "internalType": "uint256",
          "name": "_tokenId",
          "type": "uint256"
        },
        {
          "indexed": true,
          "internalType": "address",
          "name": "_operator",
          "type": "address"
        },
        {
          "indexed": false,
          "internalType": "uint256",
          "name": "_value",
          "type": "uint256"
        }
      ],
      "name": "ApprovalValue",
      "type": "event"
    },
    {
      "anonymous": false,
      "inputs": [
        {
          "indexed": true,
          "internalType": "address",
          "name": "metadataDescriptor",
          "type": "address"
        }
      ],
      "name": "SetMetadataDescriptor",
      "type": "event"
    },
    {
      "anonymous": false,
      "inputs": [
        {
          "indexed": true,
          "internalType": "uint256",
          "name": "_tokenId",
          "type": "uint256"
        },
        {
          "indexed": true,
          "internalType": "uint256",
          "name": "_oldSlot",
          "type": "uint256"
        },
        {
          "indexed": true,
          "internalType": "uint256",
          "name": "_newSlot",
          "type": "uint256"
        }
      ],
      "name": "SlotChanged",
      "type": "event"
    },
    {
      "anonymous": false,
      "inputs": [
        {
          "indexed": true,
          "internalType": "address",
          "name": "_from",
          "type": "address"
        },
        {
          "indexed": true,
          "internalType": "address",
          "name": "_to",
          "type": "address"
        },
        {
          "indexed": true,
          "internalType": "uint256",
          "name": "_tokenId",
          "type": "uint256"
        }
      ],
      "name": "Transfer",
      "type": "event"
    },
    {
      "anonymous": false,
      "inputs": [
        {
          "indexed": true,
          "internalType": "uint256",
          "name": "_fromTokenId",
          "type": "uint256"
        },
        {
          "indexed": true,
          "internalType": "uint256",
          "name": "_toTokenId",
          "type": "uint256"
        },
        {
          "indexed": false,
          "internalType": "uint256",
          "name": "_value",
          "type": "uint256"
        }
      ],
      "name": "TransferValue",
      "type": "event"
    },
    {
      "inputs": [],
      "name": "ID",
      "outputs": [
        {
          "internalType": "uint256",
          "name": "",
          "type": "uint256"
        }
      ],
      "stateMutability": "view",
      "type": "function"
    },
    {
      "inputs": [
        {
          "internalType": "address",
          "name": "_admin",
          "type": "address"
        },
        {
          "internalType": "string[]",
          "name": "_chainIdsStr",
          "type": "string[]"
        },
        {
          "internalType": "string[]",
          "name": "_contractAddrsStr",
          "type": "string[]"
        }
      ],
      "name": "addXTokenInfo",
      "outputs": [
        {
          "internalType": "bool",
          "name": "",
          "type": "bool"
        }
      ],
      "stateMutability": "nonpayable",
      "type": "function"
    },
    {
      "inputs": [],
      "name": "admin",
      "outputs": [
        {
          "internalType": "address",
          "name": "",
          "type": "address"
        }
      ],
      "stateMutability": "view",
      "type": "function"
    },
    {
      "inputs": [
        {
          "internalType": "uint256",
          "name": "tokenId_",
          "type": "uint256"
        },
        {
          "internalType": "address",
          "name": "operator_",
          "type": "address"
        }
      ],
      "name": "allowance",
      "outputs": [
        {
          "internalType": "uint256",
          "name": "",
          "type": "uint256"
        }
      ],
      "stateMutability": "view",
      "type": "function"
    },
    {
      "inputs": [
        {
          "internalType": "address",
          "name": "to_",
          "type": "address"
        },
        {
          "internalType": "uint256",
          "name": "tokenId_",
          "type": "uint256"
        }
      ],
      "name": "approve",
      "outputs": [],
      "stateMutability": "payable",
      "type": "function"
    },
    {
      "inputs": [
        {
          "internalType": "uint256",
          "name": "tokenId_",
          "type": "uint256"
        },
        {
          "internalType": "address",
          "name": "to_",
          "type": "address"
        },
        {
          "internalType": "uint256",
          "name": "value_",
          "type": "uint256"
        }
      ],
      "name": "approve",
      "outputs": [],
      "stateMutability": "payable",
      "type": "function"
    },
    {
      "inputs": [
        {
          "internalType": "address",
          "name": "to_",
          "type": "address"
        },
        {
          "internalType": "uint256",
          "name": "tokenId_",
          "type": "uint256"
        }
      ],
      "name": "approveFromX",
      "outputs": [],
      "stateMutability": "nonpayable",
      "type": "function"
    },
    {
      "inputs": [
        {
          "internalType": "uint256",
          "name": "nextID",
          "type": "uint256"
        },
        {
          "internalType": "address",
          "name": "_admin",
          "type": "address"
        }
      ],
      "name": "attachId",
      "outputs": [
        {
          "internalType": "bool",
          "name": "",
          "type": "bool"
        }
      ],
      "stateMutability": "nonpayable",
      "type": "function"
    },
    {
      "inputs": [
        {
          "internalType": "address",
          "name": "owner_",
          "type": "address"
        }
      ],
      "name": "balanceOf",
      "outputs": [
        {
          "internalType": "uint256",
          "name": "balance",
          "type": "uint256"
        }
      ],
      "stateMutability": "view",
      "type": "function"
    },
    {
      "inputs": [
        {
          "internalType": "uint256",
          "name": "tokenId_",
          "type": "uint256"
        }
      ],
      "name": "balanceOf",
      "outputs": [
        {
          "internalType": "uint256",
          "name": "",
          "type": "uint256"
        }
      ],
      "stateMutability": "view",
      "type": "function"
    },
    {
      "inputs": [
        {
          "internalType": "uint256",
          "name": "fromTokenId_",
          "type": "uint256"
        },
        {
          "internalType": "uint256",
          "name": "value_",
          "type": "uint256"
        }
      ],
      "name": "burnValueX",
      "outputs": [
        {
          "internalType": "bool",
          "name": "",
          "type": "bool"
        }
      ],
      "stateMutability": "nonpayable",
      "type": "function"
    },
    {
      "inputs": [
        {
          "internalType": "address",
          "name": "_admin",
          "type": "address"
        }
      ],
      "name": "changeAdmin",
      "outputs": [
        {
          "internalType": "bool",
          "name": "",
          "type": "bool"
        }
      ],
      "stateMutability": "nonpayable",
      "type": "function"
    },
    {
      "inputs": [
        {
          "internalType": "address",
          "name": "_admin",
          "type": "address"
        }
      ],
      "name": "changeAdminX",
      "outputs": [
        {
          "internalType": "bool",
          "name": "",
          "type": "bool"
        }
      ],
      "stateMutability": "nonpayable",
      "type": "function"
    },
    {
      "inputs": [
        {
          "internalType": "string",
          "name": "_otherChainIdStr",
          "type": "string"
        },
        {
          "internalType": "string",
          "name": "_otherContractStr",
          "type": "string"
        }
      ],
      "name": "checkTokenCompatibility",
      "outputs": [
        {
          "internalType": "bool",
          "name": "",
          "type": "bool"
        }
      ],
      "stateMutability": "view",
      "type": "function"
    },
    {
      "inputs": [
        {
          "internalType": "uint256",
          "name": "tokenId_",
          "type": "uint256"
        }
      ],
      "name": "clearApprovedValues",
      "outputs": [],
      "stateMutability": "nonpayable",
      "type": "function"
    },
    {
      "inputs": [],
      "name": "contractURI",
      "outputs": [
        {
          "internalType": "string",
          "name": "",
          "type": "string"
        }
      ],
      "stateMutability": "view",
      "type": "function"
    },
    {
      "inputs": [],
      "name": "ctmRwa001XChain",
      "outputs": [
        {
          "internalType": "address",
          "name": "",
          "type": "address"
        }
      ],
      "stateMutability": "view",
      "type": "function"
    },
    {
      "inputs": [
        {
          "internalType": "uint256",
          "name": "tokenId_",
          "type": "uint256"
        }
      ],
      "name": "getApproved",
      "outputs": [
        {
          "internalType": "address",
          "name": "",
          "type": "address"
        }
      ],
      "stateMutability": "view",
      "type": "function"
    },
    {
      "inputs": [
        {
          "internalType": "string",
          "name": "_chainIdStr",
          "type": "string"
        }
      ],
      "name": "getTokenContract",
      "outputs": [
        {
          "internalType": "string",
          "name": "",
          "type": "string"
        }
      ],
      "stateMutability": "view",
      "type": "function"
    },
    {
      "inputs": [
        {
          "internalType": "uint256",
          "name": "tokenId_",
          "type": "uint256"
        }
      ],
      "name": "getTokenInfo",
      "outputs": [
        {
          "internalType": "uint256",
          "name": "",
          "type": "uint256"
        },
        {
          "internalType": "uint256",
          "name": "",
          "type": "uint256"
        },
        {
          "internalType": "address",
          "name": "",
          "type": "address"
        },
        {
          "internalType": "uint256",
          "name": "",
          "type": "uint256"
        }
      ],
      "stateMutability": "view",
      "type": "function"
    },
    {
      "inputs": [
        {
          "internalType": "uint256",
          "name": "tokenId_",
          "type": "uint256"
        }
      ],
      "name": "idOf",
      "outputs": [
        {
          "internalType": "uint256",
          "name": "",
          "type": "uint256"
        }
      ],
      "stateMutability": "view",
      "type": "function"
    },
    {
      "inputs": [
        {
          "internalType": "address",
          "name": "owner_",
          "type": "address"
        },
        {
          "internalType": "address",
          "name": "operator_",
          "type": "address"
        }
      ],
      "name": "isApprovedForAll",
      "outputs": [
        {
          "internalType": "bool",
          "name": "",
          "type": "bool"
        }
      ],
      "stateMutability": "view",
      "type": "function"
    },
    {
      "inputs": [
        {
          "internalType": "address",
          "name": "operator_",
          "type": "address"
        },
        {
          "internalType": "uint256",
          "name": "tokenId_",
          "type": "uint256"
        }
      ],
      "name": "isApprovedOrOwner",
      "outputs": [
        {
          "internalType": "bool",
          "name": "",
          "type": "bool"
        }
      ],
      "stateMutability": "view",
      "type": "function"
    },
    {
      "inputs": [],
      "name": "metadataDescriptor",
      "outputs": [
        {
          "internalType": "contract ICTMRWA001MetadataDescriptor",
          "name": "",
          "type": "address"
        }
      ],
      "stateMutability": "view",
      "type": "function"
    },
    {
      "inputs": [
        {
          "internalType": "address",
          "name": "mintTo_",
          "type": "address"
        },
        {
          "internalType": "uint256",
          "name": "tokenId_",
          "type": "uint256"
        },
        {
          "internalType": "uint256",
          "name": "slot_",
          "type": "uint256"
        },
        {
          "internalType": "uint256",
          "name": "value_",
          "type": "uint256"
        }
      ],
      "name": "mint",
      "outputs": [],
      "stateMutability": "nonpayable",
      "type": "function"
    },
    {
      "inputs": [
        {
          "internalType": "address",
          "name": "to_",
          "type": "address"
        },
        {
          "internalType": "uint256",
          "name": "tokenId_",
          "type": "uint256"
        },
        {
          "internalType": "uint256",
          "name": "slot_",
          "type": "uint256"
        },
        {
          "internalType": "uint256",
          "name": "value_",
          "type": "uint256"
        }
      ],
      "name": "mintFromX",
      "outputs": [],
      "stateMutability": "nonpayable",
      "type": "function"
    },
    {
      "inputs": [
        {
          "internalType": "address",
          "name": "to_",
          "type": "address"
        },
        {
          "internalType": "uint256",
          "name": "slot_",
          "type": "uint256"
        },
        {
          "internalType": "uint256",
          "name": "value_",
          "type": "uint256"
        }
      ],
      "name": "mintFromX",
      "outputs": [
        {
          "internalType": "uint256",
          "name": "tokenId",
          "type": "uint256"
        }
      ],
      "stateMutability": "nonpayable",
      "type": "function"
    },
    {
      "inputs": [
        {
          "internalType": "uint256",
          "name": "tokenId_",
          "type": "uint256"
        },
        {
          "internalType": "uint256",
          "name": "value_",
          "type": "uint256"
        }
      ],
      "name": "mintValue",
      "outputs": [],
      "stateMutability": "nonpayable",
      "type": "function"
    },
    {
      "inputs": [
        {
          "internalType": "uint256",
          "name": "toTokenId_",
          "type": "uint256"
        },
        {
          "internalType": "uint256",
          "name": "slot_",
          "type": "uint256"
        },
        {
          "internalType": "uint256",
          "name": "value_",
          "type": "uint256"
        }
      ],
      "name": "mintValueX",
      "outputs": [
        {
          "internalType": "bool",
          "name": "",
          "type": "bool"
        }
      ],
      "stateMutability": "nonpayable",
      "type": "function"
    },
    {
      "inputs": [],
      "name": "name",
      "outputs": [
        {
          "internalType": "string",
          "name": "",
          "type": "string"
        }
      ],
      "stateMutability": "view",
      "type": "function"
    },
    {
      "inputs": [
        {
          "internalType": "uint256",
          "name": "tokenId_",
          "type": "uint256"
        }
      ],
      "name": "ownerOf",
      "outputs": [
        {
          "internalType": "address",
          "name": "owner_",
          "type": "address"
        }
      ],
      "stateMutability": "view",
      "type": "function"
    },
    {
      "inputs": [
        {
          "internalType": "address",
          "name": "from_",
          "type": "address"
        },
        {
          "internalType": "uint256",
          "name": "tokenId_",
          "type": "uint256"
        }
      ],
      "name": "removeTokenFromOwnerEnumeration",
      "outputs": [],
      "stateMutability": "nonpayable",
      "type": "function"
    },
    {
      "inputs": [
        {
          "internalType": "address",
          "name": "from_",
          "type": "address"
        },
        {
          "internalType": "address",
          "name": "to_",
          "type": "address"
        },
        {
          "internalType": "uint256",
          "name": "tokenId_",
          "type": "uint256"
        }
      ],
      "name": "safeTransferFrom",
      "outputs": [],
      "stateMutability": "payable",
      "type": "function"
    },
    {
      "inputs": [
        {
          "internalType": "address",
          "name": "from_",
          "type": "address"
        },
        {
          "internalType": "address",
          "name": "to_",
          "type": "address"
        },
        {
          "internalType": "uint256",
          "name": "tokenId_",
          "type": "uint256"
        },
        {
          "internalType": "bytes",
          "name": "data_",
          "type": "bytes"
        }
      ],
      "name": "safeTransferFrom",
      "outputs": [],
      "stateMutability": "payable",
      "type": "function"
    },
    {
      "inputs": [
        {
          "internalType": "address",
          "name": "operator_",
          "type": "address"
        },
        {
          "internalType": "bool",
          "name": "approved_",
          "type": "bool"
        }
      ],
      "name": "setApprovalForAll",
      "outputs": [],
      "stateMutability": "nonpayable",
      "type": "function"
    },
    {
      "inputs": [
        {
          "internalType": "uint256",
          "name": "tokenId_",
          "type": "uint256"
        }
      ],
      "name": "slotOf",
      "outputs": [
        {
          "internalType": "uint256",
          "name": "",
          "type": "uint256"
        }
      ],
      "stateMutability": "view",
      "type": "function"
    },
    {
      "inputs": [
        {
          "internalType": "uint256",
          "name": "slot_",
          "type": "uint256"
        }
      ],
      "name": "slotURI",
      "outputs": [
        {
          "internalType": "string",
          "name": "",
          "type": "string"
        }
      ],
      "stateMutability": "view",
      "type": "function"
    },
    {
      "inputs": [
        {
          "internalType": "address",
          "name": "operator_",
          "type": "address"
        },
        {
          "internalType": "uint256",
          "name": "tokenId_",
          "type": "uint256"
        },
        {
          "internalType": "uint256",
          "name": "value_",
          "type": "uint256"
        }
      ],
      "name": "spendAllowance",
      "outputs": [],
      "stateMutability": "nonpayable",
      "type": "function"
    },
    {
      "inputs": [
        {
          "internalType": "string",
          "name": "a",
          "type": "string"
        },
        {
          "internalType": "string",
          "name": "b",
          "type": "string"
        }
      ],
      "name": "stringsEqual",
      "outputs": [
        {
          "internalType": "bool",
          "name": "",
          "type": "bool"
        }
      ],
      "stateMutability": "pure",
      "type": "function"
    },
    {
      "inputs": [
        {
          "internalType": "bytes4",
          "name": "interfaceId",
          "type": "bytes4"
        }
      ],
      "name": "supportsInterface",
      "outputs": [
        {
          "internalType": "bool",
          "name": "",
          "type": "bool"
        }
      ],
      "stateMutability": "view",
      "type": "function"
    },
    {
      "inputs": [],
      "name": "symbol",
      "outputs": [
        {
          "internalType": "string",
          "name": "",
          "type": "string"
        }
      ],
      "stateMutability": "view",
      "type": "function"
    },
    {
      "inputs": [
        {
          "internalType": "uint256",
          "name": "index_",
          "type": "uint256"
        }
      ],
      "name": "tokenByIndex",
      "outputs": [
        {
          "internalType": "uint256",
          "name": "",
          "type": "uint256"
        }
      ],
      "stateMutability": "view",
      "type": "function"
    },
    {
      "inputs": [
        {
          "internalType": "uint256",
          "name": "",
          "type": "uint256"
        }
      ],
      "name": "tokenContract",
      "outputs": [
        {
          "internalType": "string",
          "name": "chainIdStr",
          "type": "string"
        },
        {
          "internalType": "string",
          "name": "contractStr",
          "type": "string"
        }
      ],
      "stateMutability": "view",
      "type": "function"
    },
    {
      "inputs": [
        {
          "internalType": "address",
          "name": "owner_",
          "type": "address"
        },
        {
          "internalType": "uint256",
          "name": "index_",
          "type": "uint256"
        }
      ],
      "name": "tokenOfOwnerByIndex",
      "outputs": [
        {
          "internalType": "uint256",
          "name": "",
          "type": "uint256"
        }
      ],
      "stateMutability": "view",
      "type": "function"
    },
    {
      "inputs": [
        {
          "internalType": "uint256",
          "name": "tokenId_",
          "type": "uint256"
        }
      ],
      "name": "tokenURI",
      "outputs": [
        {
          "internalType": "string",
          "name": "",
          "type": "string"
        }
      ],
      "stateMutability": "view",
      "type": "function"
    },
    {
      "inputs": [],
      "name": "totalSupply",
      "outputs": [
        {
          "internalType": "uint256",
          "name": "",
          "type": "uint256"
        }
      ],
      "stateMutability": "view",
      "type": "function"
    },
    {
      "inputs": [
        {
          "internalType": "uint256",
          "name": "fromTokenId_",
          "type": "uint256"
        },
        {
          "internalType": "address",
          "name": "to_",
          "type": "address"
        },
        {
          "internalType": "uint256",
          "name": "value_",
          "type": "uint256"
        }
      ],
      "name": "transferFrom",
      "outputs": [
        {
          "internalType": "uint256",
          "name": "newTokenId",
          "type": "uint256"
        }
      ],
      "stateMutability": "payable",
      "type": "function"
    },
    {
      "inputs": [
        {
          "internalType": "address",
          "name": "from_",
          "type": "address"
        },
        {
          "internalType": "address",
          "name": "to_",
          "type": "address"
        },
        {
          "internalType": "uint256",
          "name": "tokenId_",
          "type": "uint256"
        }
      ],
      "name": "transferFrom",
      "outputs": [],
      "stateMutability": "payable",
      "type": "function"
    },
    {
      "inputs": [
        {
          "internalType": "uint256",
          "name": "fromTokenId_",
          "type": "uint256"
        },
        {
          "internalType": "uint256",
          "name": "toTokenId_",
          "type": "uint256"
        },
        {
          "internalType": "uint256",
          "name": "value_",
          "type": "uint256"
        }
      ],
      "name": "transferFrom",
      "outputs": [],
      "stateMutability": "payable",
      "type": "function"
    },
    {
      "inputs": [],
      "name": "valueDecimals",
      "outputs": [
        {
          "internalType": "uint8",
          "name": "",
          "type": "uint8"
        }
      ],
      "stateMutability": "view",
      "type": "function"
    }
  ],
  "bytecode": "0x6080604090808252346200071857620046ee80380380916200002282856200071d565b8339810191608082840312620007185781516001600160401b0392908381116200071857846200005491830162000782565b602094858301519085821162000718576200007191840162000782565b91838101519160ff918284168094036200071857606001516001600160a01b03811690819003620007185760018060a01b03196001943382875416178655856007558351968988116200070257878b98600496620000d08854620007cf565b90601f9e8f928381116200069b575b50508b918311600114620006335760009262000627575b5050600019600383901b1c191690881b1785555b80519a8a8c1162000612576005918c620001258454620007cf565b838111620005c7575b505089918d1160011462000559579b8091620002359b9c9d6000926200054d575b5050600019600383901b1c191690881b1790555b60ff19600654161760065560025416176002554693846000957a184f03e93ff9f4daa797ed6e38ed64bf6a1f010000000000000000808210156200053f575b506d04ee2d6d415b85acef81000000008083101562000530575b50662386f26fc100008083101562000520575b506305f5e1008083101562000510575b506127108083101562000501575b506064821015620004f0575b600a80921015620004e6575b85602181890198620002178a62000741565b99620002268d519b8c6200071d565b808b52601f199b8c9162000741565b0136878c0137890101905b620004b5575b5050503087519860608a01908a821090821117620004a0578852602a8952818901883682378951156200048b576030905388518510156200047657607860218a015360295b858111620004065750620003c457875195620002c3620002ab8862000741565b97620002ba8a51998a6200071d565b80895262000741565b0136828801376000845b620002ef575b87620002e088886200087a565b5051613a55908162000c998239f35b8851811015620003be5762000305818a6200080c565b51604160f891821c101580620003a4575b1562000378578262000329838c6200080c565b51821c0185811162000363576200035c92911b6001600160f81b03191660001a62000355828a6200080c565b5362000834565b84620002cd565b601185634e487b7160e01b6000525260246000fd5b506200035c906001600160f81b031962000393828c6200080c565b511660001a62000355828a6200080c565b50605a620003b3838c6200080c565b51821c111562000316565b620002d3565b865162461bcd60e51b815291820181905260248201527f537472696e67733a20686578206c656e67746820696e73756666696369656e74604482015260649150fd5b90600f8116601081101562000461576f181899199a1a9b1b9c1cb0b131b232b360811b901a62000437838c6200080c565b53831c9080156200044c57600019016200028b565b601184634e487b7160e01b6000525260246000fd5b603285634e487b7160e01b6000525260246000fd5b603283634e487b7160e01b6000525260246000fd5b603284634e487b7160e01b6000525260246000fd5b604184634e487b7160e01b6000525260246000fd5b600019019082906f181899199a1a9b1b9c1cb0b131b232b360811b8282061a83530490868262000240575062000246565b9585019562000205565b9590606460029104910195620001f9565b849197920491019538620001ed565b60089197920491019538620001df565b60109197920491019538620001cf565b839197920491019538620001bc565b8997508104915038620001a2565b0151905038806200014f565b90601f198d1691836000528a6000209260005b818110620005b15750918a9391620002359d9e9f80941062000597575b505050811b01905562000163565b015160001960f88460031b161c1916905538808062000589565b828401518555938b0193928c01928c016200056c565b84600052838c600020918d828501881c8401941062000608575b01851c01908a905b828110620005fb57508e91506200012e565b60008155018a90620005e9565b92508192620005e1565b604186634e487b7160e01b6000525260246000fd5b015190503880620000f6565b60008981528c81208c9550929190601f198516908e5b82821062000683575050841162000669575b505050811b0185556200010a565b015160001960f88460031b161c191690553880806200065b565b8385015186558e979095019493840193018e62000649565b90929193506000918a83528383209181870160051c8301948710620006f8575b819492879694928f920160051c01925b838110620006de5750508d9150620000df565b829496508092919395505501918f92918c869593620006cb565b93508193620006bb565b634e487b7160e01b600052604160045260246000fd5b600080fd5b601f909101601f19168101906001600160401b038211908210176200070257604052565b6001600160401b0381116200070257601f01601f191660200190565b60005b838110620007715750506000910152565b818101518382015260200162000760565b81601f82011215620007185780516200079b8162000741565b92620007ab60405194856200071d565b818452602082840101116200071857620007cc91602080850191016200075d565b90565b90600182811c9216801562000801575b6020831014620007eb57565b634e487b7160e01b600052602260045260246000fd5b91607f1691620007df565b9081518110156200081e570160200190565b634e487b7160e01b600052603260045260246000fd5b6000198114620008445760010190565b634e487b7160e01b600052601160045260246000fd5b6003548110156200081e57600360005260206000209060011b0190600090565b9060009160038054935b84811062000b3b5750604080516001600160401b039390929183018481118482101762000702576040528252602091828101948552680100000000000000008610156200070257620008dd60019687810184556200085a565b91909162000b2557519081519085821162000702578791620009008254620007cf565b93601f9485811162000ad0575b50869085831160011462000a6657600091908362000a5a575b505060001982871b1c191690831b1781555b019451805194851162000702578493620009538754620007cf565b838111620009fe575b508092851160011462000993575060009362000987575b505082851b92600019911b1c191617905590565b01519150388062000973565b929190879550601f1985168760005284600020946000905b828210620009e45750508511620009c9575b50505050811b01905590565b01519060f884600019921b161c1916905538808080620009bd565b8484015187558a98909601959384019390810190620009ab565b90919293945086600052816000208480880160051c82019284891062000a50575b918a91899897969594930160051c01915b82811062000a405750506200095c565b600081558897508a910162000a30565b9250819262000a1f565b01519050388062000926565b90601f1983169184600052886000209260005b8a82821062000ab9575050908487959493921062000aa0575b505050811b01815562000938565b015160001983891b60f8161c1916905538808062000a92565b8385015186558e9890950194938401930162000a79565b909192809450600052866000208580850160051c82019289861062000b1b575b908c9695949392910160051c01905b81811062000b0e57506200090d565b600081558b950162000aff565b9250819262000af0565b634e487b7160e01b600052600060045260246000fd5b62000b46816200085a565b50604090815190816000825462000b5d81620007cf565b8084529360019180831690811562000c45575060011462000c00575b505062000b89925003826200071d565b81519062000bdc6020918362000ba3848201928362000c6a565b039362000bb9601f19958681018352826200071d565b5190209351918201928262000bcf898662000c6a565b039081018352826200071d565b5190201462000bf65762000bf09062000834565b62000884565b5050505050600090565b90915060005260209283600020916000925b82841062000c2e575050509162000b8992820101388062000b79565b805487850187015286945092850192810162000c12565b935050505062000b899260209160ff191682840152151560051b820101388062000b79565b6040916020825262000c8c81518092816020860152602086860191016200075d565b601f01601f191601019056fe608060408181526004918236101561001657600080fd5b600092833560e01c91826301ffc9a7146119835750816306fdde03146118ae578163075217541461187c578163081812fc1461185c578163095ea7b31461177a57816309c3dd87146116ec5781630f485c021461136e57816313d199501461135257816315c77d841461127d57816318160ddd1461125e57816323b872dd14611239578163263f3e7e146112195781632f745c591461116f578163310ed7f0146110f3578163381c4fce146110a35781633e7e866914611081578163404b6e9f1461104757816342842e0e14611024578163430c208114610fe6578163449d077214610f2e57816349178b2514610ebf5781634f6ccce714610e40578163582939e514610e105781636352211e14610ddf57816370a0823114610db957816378330ea014610d63578163840f711314610d3a5781638c7a63ae14610c9b5781638cb0a51114610bf15781638f28397014610b4657816395d89b4114610a73578163968e8a1314610a395781639c0e9a5d14610a1d5781639cc7f708146109fd578163a22cb4651461092e578163a30fb020146108c9578163a647e8ec146108ae578163a6a2d1dd14610838578163b3875b951461080f578163b3cea217146107f2578163b88d4fde14610793578163bff2ed7114610748578163c87b56dd1461061d578163dee9f53f146105da578163e345e0bc146105ab578163e7f0828814610565578163e8a3d485146102f857508063e985e9c5146102a8578063f0e88e7f146102765763f851a4401461024b57600080fd5b3461027257816003193601126102725760015490516001600160a01b039091168152602090f35b5080fd5b82346102a5576102a261028836611c85565b906102928161268c565b5061029c816126c8565b50612d03565b80f35b80fd5b503461027257806003193601126102725760ff816020936102c7611a7e565b6102cf611a99565b6001600160a01b039182168352600b875283832091168252600201855220549151911615158152f35b905034610561578260031936011261056157815161031581611b1d565b838152600c546001600160a01b031690811561039b57508390835192838092631c97e82760e21b82525afa90811561038f5783610368949261036c575b5050905b51918291602083526020830190611a59565b0390f35b61038892503d8091833e6103808183611b38565b8101906126ec565b3880610352565b505051903d90823e3d90fd5b929391905081156105465783513091606082016001600160401b03811183821017610531578652602a8252602092838301948736873783511561051e576030865383519060019182101561050b5790607860218601536029915b8183116104a05750505061045f5750849368636f6e74726163742f60b81b936104599361044a602994610368995197856104388a9751809287808b019101611a36565b86019384015251809386840190611a36565b01036009810184520182611b38565b90610356565b606490838088519262461bcd60e51b845283015260248201527f537472696e67733a20686578206c656e67746820696e73756666696369656e746044820152fd5b909192600f811660108110156104f8576f181899199a1a9b1b9c1cb0b131b232b360811b901a6104d08588612757565b53841c9280156104e5576000190191906103f5565b634e487b7160e01b825260118552602482fd5b634e487b7160e01b835260328652602483fd5b634e487b7160e01b815260328452602490fd5b634e487b7160e01b815260328352602490fd5b604182634e487b7160e01b6000525260246000fd5b50505080610368915161055881611b1d565b60008152610459565b8280fd5b8284346102a557816003193601126102a557506105a2602092610586611a99565b9061059c60018060a01b03600254163314611e7c565b35611ee1565b90519015158152f35b8284346102a557816003193601126102a557506105d36020926105cc611a99565b90356127c0565b9051908152f35b9050346105615760203660031901126105615781602093610614923561060761060282612a20565b612640565b8152600a855220546125db565b50549051908152f35b905034610561576020908160031936011261074457803561064061060282612a20565b83519161064c83611b1d565b858352600c546001600160a01b03169283156106cd57509060248692865194859384926344a5a61760e11b84528301525afa9081156106c05784610368939495926106a5575b5050925b51928284938452830190611a59565b6106b992503d8091833e6103808183611b38565b3880610692565b50505051903d90823e3d90fd5b925050848394955060001461072a57610368926106ec610724926120e7565b92865193816107048693518092868087019101611a36565b820161071882518093868085019101611a36565b01038084520182611b38565b92610696565b505050610368825161073b81611b1d565b60008152610724565b8380fd5b8284346102a557602061078d8361075e36611c5b565b9061077760018060a09795971b03600254163314611e7c565b600754809561078582611f68565b600755612a4e565b51908152f35b83906080366003190112610272576107a9611a7e565b6107b1611a99565b906064356001600160401b0381116107ee57366023820112156107ee576102a2938160246107e493369301359101611b74565b91604435916128d5565b8480fd5b505034610272578160031936011261027257602091549051908152f35b50503461027257816003193601126102725760025490516001600160a01b039091168152602090f35b8284346102a55760603660031901126102a557610853611a7e565b926001600160401b03602435818111610744576108739036908401611df9565b926044359182116102a5575091610893602095926105a294369101611df9565b916108a960018060a01b03600254163314611e7c565b611fa1565b83346102a5576102a26108c036611c9b565b92919091612a4e565b839150346102725760203660031901126102725735906003548210156102a557506108f390611cc9565b509061036861090d600161090685611d53565b9401611d53565b6109208351948486958652850190611a59565b908382036020850152611a59565b91905034610561578060031936011261056157610949611a7e565b90602435918215158093036107ee576001600160a01b0316923384146109bb5750338452600b60205260028185200183855260205280842060ff1981541660ff8416179055519081527f17307eab39ab6107e8899845ad3d59bd9653f200f220920489ca2b5937696c3160203392a380f35b6020606492519162461bcd60e51b8352820152601c60248201527f43544d5257413030313a20617070726f766520746f2063616c6c6572000000006044820152fd5b8284346102a55760203660031901126102a557506105d360209235612616565b505034610272576020906105a2610a3336611bc9565b9061255f565b505034610272573660031901126102a5576102a2610a55611a7e565b610a6a60018060a01b03600254163314611e7c565b60243590612f1e565b50503461027257816003193601126102725780519082600554610a9581611d19565b80855291600191808316908115610b1e5750600114610ac1575b50505061035682610368940383611b38565b9450600585527f036b6384b5eca791c62761152d0c79bb0604c104a5fb6f4eb0703f3154bb3db05b828610610b06575050506103568260206103689582010194610aaf565b80546020878701810191909152909501948101610ae9565b61036897508693506020925061035694915060ff191682840152151560051b82010194610aaf565b905082346102a55760203660031901126102a55750610b63611a7e565b6001549091906001600160a01b03163303610b9d57600180546001600160a01b0319166001600160a01b03841617815560209084906105a2565b608490602084519162461bcd60e51b8352820152602860248201527f43544d5257413030313a205468697320697320616e206f6e6c7941646d696e20604482015267333ab731ba34b7b760c11b6064820152fd5b839150610bfd36611aaf565b92909190610c216001600160a01b0380610c168561268c565b169085161415612768565b610c2b82336129a2565b15610c3c57506102a2939450612f88565b608490602087519162461bcd60e51b8352820152603360248201527f43544d5257413030313a20617070726f76652063616c6c6572206973206e6f74604482015272081bdddb995c881b9bdc88185c1c1c9bdd9959606a1b6064820152fd5b8383346102725760209081600319360112610561576080933590610cc161060283612a20565b818452600a8352610cd4818520546125db565b505493828152600a84526001610d24836002610cf2828620546125db565b50015493868152600a8852610d09828220546125db565b506003858060a01b0391015416968152600a885220546125db565b5001549382519586528501528301526060820152f35b505034610272578160031936011261027257600c5490516001600160a01b039091168152602090f35b505034610272576020366003190112610272576020906105a2610d84611a7e565b610d9960018060a01b03600254163314611e7c565b60018060a01b03166001600160601b0360a01b6001541617600155600190565b505034610272576020366003190112610272576020906105d3610dda611a7e565b6127f1565b8284346102a55760203660031901126102a55750610dff6020923561268c565b90516001600160a01b039091168152f35b83346102a5576102a2610e2236611c9b565b92610e3b60018060a09594951b03600254163314611e7c565b612a4e565b905082346102a55760203660031901126102a55750803590600954821015610e6e57602083610614846125db565b608490602084519162461bcd60e51b8352820152602560248201527f43544d5257413030313a20676c6f62616c20696e646578206f7574206f6620626044820152646f756e647360d81b6064820152fd5b50503461027257602091610f256002610f0f84610edb36611c85565b9590610ef160018060a01b038654163314611e7c565b610f02610efd82612a20565b6131ef565b8152600a885220546125db565b5001918254610f20828210156132a9565b612a13565b90555160018152f35b8391503461027257610f3f36611c5b565b9092610f4b83856127c0565b90610f5685856129a2565b1580610fda575b610f65578580f35b828210610f8d5750610f8394955090610f7d91612a13565b91612f88565b8082808080808580f35b608490602088519162461bcd60e51b8352820152602160248201527f43544d5257413030313a20696e73756666696369656e7420616c6c6f77616e636044820152606560f81b6064820152fd5b50600019821415610f5d565b5050346102725780600319360112610272576020906105a2611006611a7e565b61101b60018060a01b03600254163314611e7c565b602435906129a2565b836102a28461103236611c26565b9192519261103f84611b1d565b8584526128d5565b505034610272573660031901126102a5576102a2611063611a7e565b61107860018060a01b03600254163314611e7c565b60243590612e07565b50503461027257816003193601126102725760209060ff600654169051908152f35b8284346102a55760203660031901126102a5578235906001600160401b0382116102a557506110db610368936110e092369101611bab565b6124f1565b9051918291602083526020830190611a59565b83836110fe36611c0c565b92909194303b156107ee57815163224e83b960e11b81523391810191825260208201879052604082018590529190859083908190606001038183305af19081156111665750611153575b506102a2929361330a565b926111606102a294611ad9565b92611148565b513d86823e3d90fd5b905082346102a557826003193601126102a55761118a611a7e565b60243592611197826127f1565b8410156111ca576020856111bc8682878760018060a01b03168152600b86522061298a565b91905490519160031b1c8152f35b608490602086519162461bcd60e51b83528201526024808201527f43544d5257413030313a206f776e657220696e646578206f7574206f6620626f604482015263756e647360e01b6064820152fd5b8284346102a55760203660031901126102a557506105d3602092356126c8565b836102a261124636611c26565b9161125961125484336129a2565b61286c565b61349e565b5050346102725781600319360112610272576020906009549051908152f35b9050346105615781906112cb61129236611c0c565b94916112ac60018060a09a949a1b03600254163314611e7c565b6112bd6112b882612a20565b61324d565b8152600a60205220546125db565b50936001850154036112e95750610f2560026020940191825461274a565b608490602084519162461bcd60e51b8352820152603a60248201527f43544d5257413030313a2044657374696e6174696f6e20736c6f74206973206e60448201527f6f74207468652073616d6520617320736f7572636520736c6f740000000000006064820152fd5b505034610272576020906105a261136836611bc9565b906138d7565b828461137936611aaf565b919092303b156102a557845163224e83b960e11b8152338782019081526020810184905260408101859052829082908190606001038183305af180156116e2576116d3575b50600754936113cc85611f68565b6007556113d8836126c8565b906001600160a01b0380821691908215611684578715611635576113fb88612a20565b6115f2579688998998829a519061141182611b1d565b8782528a5161141f81611b02565b8481528860209e8f968784018b81528285019184835260608601938c8552608087019580875260a08801998a52600a6009549c8d948352522055600160401b8910156115df576114766001998a81016009556125db565b9590956115cd57906005959493929151855551898501555160028401558460038401915116906001600160601b0360a01b918282541617905584878401925116908254161790550191518051936001600160401b0385116115ba575082918e80928f9b9d9c9a9998979695866114eb91612eea565b01928c52818c20918c905b8582106115a35750505050505050918461078d9792611516828096612d58565b837fddf252ad1be2c89b69c2b068fc378daa952ba7f163c4a11628f55a4df523b3ef8180a481837fe4f48c240d3b994948aa54f3e2f5fca59263dfe1d52b6e4cf39a5d249b5ccb658280a4818152600a8952611574878220546125db565b50507f0b2aac84f3ec956911fd78eae5311062972ff949f38412e8da39069d9f068cc6898851838152a361330a565b84518316828501558f9b509093019285018f6114f6565b634e487b7160e01b8a5260419052602489fd5b634e487b7160e01b8e528d895260248efd5b634e487b7160e01b8d526041885260248dfd5b885162461bcd60e51b81526020818c0152601f60248201527f43544d5257413030313a20746f6b656e20616c7265616479206d696e746564006044820152606490fd5b885162461bcd60e51b81526020818c0152602360248201527f43544d5257413030313a2063616e6e6f74206d696e74207a65726f20746f6b656044820152621b925960ea1b6064820152608490fd5b885162461bcd60e51b81526020818c0152602360248201527f43544d5257413030313a206d696e7420746f20746865207a65726f206164647260448201526265737360e81b6064820152608490fd5b6116dc90611ad9565b866113be565b86513d84823e3d90fd5b9050346105615760203660031901126105615782825161170b81611b1d565b52600c546001600160a01b03169081156117615783906024845180948193633601bfc560e11b83528035908301525afa90811561038f5783610368949261036c5750509051918291602083526020830190611a59565b505080516103689261177282611b1d565b815290610356565b8391508260031936011261027257611790611a7e565b602435916001600160a01b036117b5816117a98661268c565b16809285161415612768565b80331490811561183a575b50156117d15750906102a291612f1e565b608490602086519162461bcd60e51b8352820152603b60248201527f43544d5257413030313a20617070726f76652063616c6c6572206973206e6f7460448201527f206f776e6572206e6f7220617070726f76656420666f7220616c6c00000000006064820152fd5b90508452600b60205260028585200133855260205260ff8585205416866117c0565b8284346102a55760203660031901126102a55750610dff60209235612957565b839034610272576020366003190112610272576102a2906118a860018060a01b03600254163314611e7c565b356130c6565b91905034610561578260031936011261056157805191838154906118d182611d19565b8086529260019280841690811561195857506001146118fc575b6103688686610356828b0383611b38565b815294507f8a35acfbc15ff81a39ae7d344fd709f28e8600b4aa8c65c6b64bfe7fe36bd19b5b828610611940575050506103568260206103689582010194386118eb565b80546020878701810191909152909501948101611922565b905061036897508693506020925061035694915060ff191682840152151560051b82010194386118eb565b849134610561576020366003190112610561573563ffffffff60e01b811680910361056157602092506301ffc9a760e01b8114908115611a25575b8115611a14575b8115611a03575b81156119f2575b81156119e1575b5015158152f35b635b5e139f60e01b149050836119da565b63780e9d6360e01b811491506119d3565b6370b0048160e11b811491506119cc565b6380ac58cd60e01b811491506119c5565b630354d60560e61b811491506119be565b60005b838110611a495750506000910152565b8181015183820152602001611a39565b90602091611a7281518092818552858086019101611a36565b601f01601f1916010190565b600435906001600160a01b0382168203611a9457565b600080fd5b602435906001600160a01b0382168203611a9457565b6060906003190112611a9457600435906024356001600160a01b0381168103611a94579060443590565b6001600160401b038111611aec57604052565b634e487b7160e01b600052604160045260246000fd5b60c081019081106001600160401b03821117611aec57604052565b602081019081106001600160401b03821117611aec57604052565b90601f801991011681019081106001600160401b03821117611aec57604052565b6001600160401b038111611aec57601f01601f191660200190565b929192611b8082611b59565b91611b8e6040519384611b38565b829481845281830111611a94578281602093846000960137010152565b9080601f83011215611a9457816020611bc693359101611b74565b90565b906040600319830112611a94576001600160401b03600435818111611a945783611bf591600401611bab565b92602435918211611a9457611bc691600401611bab565b6060906003190112611a9457600435906024359060443590565b6060906003190112611a94576001600160a01b03906004358281168103611a9457916024359081168103611a94579060443590565b6060906003190112611a94576004356001600160a01b0381168103611a9457906024359060443590565b6040906003190112611a94576004359060243590565b6080906003190112611a94576004356001600160a01b0381168103611a945790602435906044359060643590565b600354811015611d0357600360005260011b7fc2575a0e9e593c00f959f8c92f12db2869c3395a3b0502d05e2516446f71f85b0190600090565b634e487b7160e01b600052603260045260246000fd5b90600182811c92168015611d49575b6020831014611d3357565b634e487b7160e01b600052602260045260246000fd5b91607f1691611d28565b9060405191826000825492611d6784611d19565b908184526001948581169081600014611dd65750600114611d93575b5050611d9192500383611b38565b565b9093915060005260209081600020936000915b818310611dbe575050611d9193508201013880611d83565b85548884018501529485019487945091830191611da6565b915050611d9194506020925060ff191682840152151560051b8201013880611d83565b9080601f83011215611a94578135906001600160401b0392838311611aec578260051b60405194602094611e2f86840188611b38565b8652848087019284010193808511611a9457858401925b858410611e57575050505050505090565b8335838111611a94578791611e71848480948a0101611bab565b815201930192611e46565b15611e8357565b60405162461bcd60e51b815260206004820152603060248201527f43544d5257413030313a20546869732063616e206f6e6c792062652063616c6c60448201526f0cac840c4f24086a89aa4ae82606062b60831b6064820152608490fd5b60015490916001600160a01b03918216911603611f0d57600054611f0757600055600190565b50600090565b60405162461bcd60e51b815260206004820152602d60248201527f43544d525741303031583a20617474616368496420697320616e2041646d696e60448201526c27b7363c90333ab731ba34b7b760991b6064820152608490fd5b6000198114611f775760010190565b634e487b7160e01b600052601160045260246000fd5b8051821015611d035760209160051b010190565b60018054909392916001600160a01b039182169116036120a257805182510361203f57829160009182945b611fd9575b505050905090565b805185101561203a57611ff9611fef8683611f8d565b51611368466120e7565b1561200f575b6120098495611f68565b94611fcc565b61202e61201c8683611f8d565b516120278785611f8d565b5190612266565b611fff57505091505090565b611fd1565b60405162461bcd60e51b815260206004820152603560248201527f43544d5257413030313a204c656e677468206d69736d6174636820636861696e60448201527449647320616e6420636f6e7472616374416464727360581b6064820152608490fd5b60405162461bcd60e51b815260206004820152601e60248201527f43544d525741303031583a2041646d696e4f6e6c792066756e6374696f6e00006044820152606490fd5b806000917a184f03e93ff9f4daa797ed6e38ed64bf6a1f01000000000000000080821015612241575b506d04ee2d6d415b85acef810000000080831015612232575b50662386f26fc1000080831015612223575b506305f5e10080831015612214575b5061271080831015612205575b5060648210156121f5575b600a809210156121eb575b6001908160218186019561218087611b59565b9661218e6040519889611b38565b80885261219d601f1991611b59565b01366020890137860101905b6121b5575b5050505090565b600019019083906f181899199a1a9b1b9c1cb0b131b232b360811b8282061a8353049182156121e6579190826121a9565b6121ae565b916001019161216d565b9190606460029104910191612162565b60049193920491019138612157565b6008919392049101913861214a565b6010919392049101913861213b565b60209193920491019138612129565b604093508104915038612110565b81811061225a575050565b6000815560010161224f565b9060009160038054935b8481106124ba57506040519060408201926001600160401b039383811085821117611aec576040528252602091828101948552600160401b861015611aec576122bf6001968781018455611cc9565b9190916124a4575190815190858211611aec5787916122de8254611d19565b93601f94858111612476575b508690858311600114612411576000919083612406575b505060001982871b1c191690831b1781555b0194518051948511611aec57849361232b8754611d19565b8381116123ce575b5080928511600114612367575060009361235c575b505082851b92600019911b1c191617905590565b015191503880612348565b929190879550601f1985168760005284600020946000905b8282106123b5575050851161239b575b50505050811b01905590565b01519060f884600019921b161c191690553880808061238f565b8484015187558a9890960195938401939081019061237f565b6123f79088600052826000208580890160051c820192858a106123fd575b0160051c019061224f565b38612333565b925081926123ec565b015190503880612301565b90601f1983169184600052886000209260005b8a8282106124605750509084879594939210612448575b505050811b018155612313565b015160001983891b60f8161c1916905538808061243b565b8385015186558e98909501949384019301612424565b61249e9084600052886000208780860160051c8201928b87106123fd570160051c019061224f565b386122ea565b634e487b7160e01b600052600060045260246000fd5b6124d5836124d06124ca84611cc9565b50611d53565b6138d7565b6124e7576124e290611f68565b612270565b5050505050600090565b6003549060005b8281106125155750505060405161250e81611b1d565b6000815290565b61253461252182611cc9565b506124d061252e8561393c565b91611d53565b6125465761254190611f68565b6124f8565b611bc692506001915061255890611cc9565b5001611d53565b61256b6125719161393c565b9161393c565b6003549160005b8381106125885750505050600090565b61259d6125976124ca83611cc9565b836138d7565b806125be575b6125b5576125b090611f68565b612578565b50505050600190565b506125d66125d0600161255884611cc9565b846138d7565b6125a3565b600954811015611d03576006906009600052027f6e1540171b6c0c960b71a7020d9f60077f6af931a8bbf590da0223dacf75c7af0190600090565b61262261060282612a20565b600052600a602052600261263a6040600020546125db565b50015490565b1561264757565b60405162461bcd60e51b815260206004820152601b60248201527f43544d5257413030313a20696e76616c696420746f6b656e20494400000000006044820152606490fd5b61269861060282612a20565b600052600a6020526126ae6040600020546125db565b50600301546001600160a01b031690611d91821515612640565b6126d461060282612a20565b600052600a602052600161263a6040600020546125db565b602081830312611a94578051906001600160401b038211611a94570181601f82011215611a9457805161271e81611b59565b9261272c6040519485611b38565b81845260208284010111611a9457611bc69160208085019101611a36565b91908201809211611f7757565b908151811015611d03570160200190565b1561276f57565b60405162461bcd60e51b8152602060048201526024808201527f43544d5257413030313a20617070726f76616c20746f2063757272656e74206f6044820152633bb732b960e11b6064820152608490fd5b6127cc61060282612a20565b600052600860205260406000209060018060a01b031660005260205260406000205490565b6001600160a01b0316801561281157600052600b60205260406000205490565b60405162461bcd60e51b815260206004820152602d60248201527f43544d5257413030313a2062616c616e636520717565727920666f722074686560448201526c207a65726f206164647265737360981b6064820152608490fd5b1561287357565b60405162461bcd60e51b815260206004820152603460248201527f43544d5257413030313a207472616e736665722063616c6c6572206973206e6f6044820152731d081bdddb995c881b9bdc88185c1c1c9bdd995960621b6064820152608490fd5b906128f99392916128e961125484336129a2565b6128f483838361349e565b6137c9565b1561290057565b60405162461bcd60e51b815260206004820152602960248201527f43544d5257413030313a207472616e7366657220746f206e6f6e20455243373260448201526818a932b1b2b4bb32b960b91b6064820152608490fd5b61296361060282612a20565b600052600a6020526129796040600020546125db565b50600401546001600160a01b031690565b8054821015611d035760005260206000200190600090565b906001600160a01b0380806129b68461268c565b169316918383149384156129e9575b5083156129d3575b50505090565b6129df91929350612957565b16143880806129cd565b909350600052600b60205260026040600020018260005260205260ff6040600020541692386129c5565b91908203918211611f7757565b60095415159081612a2f575090565b809150600052600a602052612a486040600020546125db565b50541490565b6001600160a01b03808216959493918615612cb2578315612c6157612a7284612a20565b612c1c57604051612a8281611b1d565b60009283825260405191612a9583611b02565b8683526020918284019387855260408101878152606082018d8152608083019189835260a08401958652600954978c8b52600a88528860408c2055600160401b891015612c0857612aed6001998a81016009556125db565b959095612bf457906005959493929151855551898501555160028401558460038401915116906001600160601b0360a01b9182825416179055846004840192511690825416179055019151928351936001600160401b038511612be0578190612b568686612eea565b0192875280872091875b858110612bcd5750505050505050611d919596612b7e858093612d58565b827fddf252ad1be2c89b69c2b068fc378daa952ba7f163c4a11628f55a4df523b3ef8180a4827fe4f48c240d3b994948aa54f3e2f5fca59263dfe1d52b6e4cf39a5d249b5ccb658280a4612d03565b8451821684820155938201938601612b60565b634e487b7160e01b88526041600452602488fd5b634e487b7160e01b8c5260048c905260248cfd5b634e487b7160e01b8b52604160045260248bfd5b60405162461bcd60e51b815260206004820152601f60248201527f43544d5257413030313a20746f6b656e20616c7265616479206d696e746564006044820152606490fd5b60405162461bcd60e51b815260206004820152602360248201527f43544d5257413030313a2063616e6e6f74206d696e74207a65726f20746f6b656044820152621b925960ea1b6064820152608490fd5b60405162461bcd60e51b815260206004820152602360248201527f43544d5257413030313a206d696e7420746f20746865207a65726f206164647260448201526265737360e81b6064820152608490fd5b907f0b2aac84f3ec956911fd78eae5311062972ff949f38412e8da39069d9f068cc66020600092848452600a82526002612d4060408620546125db565b5001612d4d82825461274a565b9055604051908152a3565b600090828252600a6020526003612d7260408420546125db565b500180546001600160a01b0319166001600160a01b039092169182179055808252600b602081815260408085208054878752600191909101835281862055928452528120805491600160401b831015612df3575081612dda916001611d91959401815561298a565b90919082549060031b91821b91600019901b1916179055565b634e487b7160e01b81526041600452602490fd5b600090828252600a6020526003612e2160408420546125db565b500180546001600160a01b03191690556001600160a01b03168152600b6020526040812080546000199391929190848101908111612ed657612e63908461298a565b90549060031b1c6001840182845280602052604084205491612e8981612dda858961298a565b8452602052604083205581528060408120558154908115612ec25750820191612eb2838361298a565b909182549160031b1b1916905555565b634e487b7160e01b81526031600452602490fd5b634e487b7160e01b83526011600452602483fd5b90600160401b8111611aec57815490808355818110612f0857505050565b611d91926000526020600020918201910161224f565b81600052600a6020526004612f376040600020546125db565b500180546001600160a01b0319166001600160a01b0392831690811790915590612f608361268c565b167f8c5be1e5ebec7d5bd14f71427d1e84f3dd0314c0f7b2291e5b200ac8c7c3b925600080a4565b6001600160a01b03808316939192841561306c5783612fa69161315e565b15612ff4575b5060207f621b050de0ad08b51d19b48b3e6df75348c4de6bdd93e81b252ca62e28265b1b918360005260088252604060002085600052825280604060002055604051908152a3565b82600052600a602052600561300d6040600020546125db565b500191825491600160401b831015611aec57613052837f621b050de0ad08b51d19b48b3e6df75348c4de6bdd93e81b252ca62e28265b1b95600160209601815561298a565b819291549060031b9188831b921b19161790559150612fac565b60405162461bcd60e51b815260206004820152602c60248201527f43544d5257413030313a20617070726f76652076616c756520746f207468652060448201526b7a65726f206164647265737360a01b6064820152608490fd5b60008181526020600a815260409260056130e2858520546125db565b500193845491845b838110613120575050505082549180845582613107575b50505050565b613117938152209081019061224f565b38808080613101565b8061312e613159928961298a565b90548489526008885285892060039290921b1c6001600160a01b031688528652838720879055611f68565b6130ea565b600090828252600a60209080825260409061317b828620546125db565b509260058094015496865b8881106131995750505050505050905090565b8188528383526131b781876131b0888c20546125db565b500161298a565b905460039190911b1c6001600160a01b03908116908816146131e1576131dc90611f68565b613186565b505050505050505050600190565b156131f657565b60405162461bcd60e51b815260206004820152602960248201527f43544d5257413030313a207472616e736665722066726f6d20696e76616c6964604482015268081d1bdad95b88125160ba1b6064820152608490fd5b1561325457565b60405162461bcd60e51b815260206004820152602760248201527f43544d5257413030313a207472616e7366657220746f20696e76616c696420746044820152661bdad95b88125160ca1b6064820152608490fd5b156132b057565b60405162461bcd60e51b815260206004820152602c60248201527f43544d5257413030313a20696e73756666696369656e742062616c616e63652060448201526b3337b9103a3930b739b332b960a11b6064820152608490fd5b9091613318610efd83612a20565b6133246112b884612a20565b81600052600a60205260409261333d84600020546125db565b5081600052600a60205261335485600020546125db565b50906002810190600182549161336c878410156132a9565b0154600184015403613441579160029161338c866133dc98979695612a13565b90550161339a83825461274a565b905580837f0b2aac84f3ec956911fd78eae5311062972ff949f38412e8da39069d9f068cc660208851868152a38451926133d384611b1d565b60008452613670565b156133e45750565b5162461bcd60e51b815260206004820152603160248201527f43544d5257413030313a207472616e736665722072656a65637465642062792060448201527021aa26a92ba0981818a932b1b2b4bb32b960791b6064820152608490fd5b865162461bcd60e51b815260206004820152603060248201527f43544d5257413030313a207472616e7366657220746f20746f6b656e2077697460448201526f1a08191a5999995c995b9d081cdb1bdd60821b6064820152608490fd5b6134a78361268c565b6001600160a01b03808316929181168390036135cc5780841693841561357757856135739161356e827fddf252ad1be2c89b69c2b068fc378daa952ba7f163c4a11628f55a4df523b3ef966134fb826126c8565b5061350582612616565b508160008098828252600a602052600461352260408420546125db565b500180546001600160a01b031916905561353b8361268c565b167f8c5be1e5ebec7d5bd14f71427d1e84f3dd0314c0f7b2291e5b200ac8c7c3b9258280a4613569826130c6565b612e07565b612d58565b80a4565b60405162461bcd60e51b815260206004820152602760248201527f43544d5257413030313a207472616e7366657220746f20746865207a65726f206044820152666164647265737360c81b6064820152608490fd5b60405162461bcd60e51b815260206004820152602660248201527f43544d5257413030313a207472616e736665722066726f6d20696e76616c69646044820152651037bbb732b960d11b6064820152608490fd5b90816020910312611a9457516001600160e01b031981168103611a945790565b3d1561366b573d9061365182611b59565b9161365f6040519384611b38565b82523d6000602084013e565b606090565b92909261367c8461268c565b803b63ffffffff16156137bf576040516301ffc9a760e01b8152633abe4f5560e21b6004820181905295602095926001600160a01b0316918681602481865afa8091600091613789575b50906136e25750505050505050506136dc613640565b50600190565b1561377d5760008694613721604051978896879586948d865233600487015260248601526044850152606484015260a0608484015260a4830190611a59565b03925af191821561377157600092613744575b50506001600160e01b0319161490565b6137639250803d1061376a575b61375b8183611b38565b810190613620565b3880613734565b503d613751565b6040513d6000823e3d90fd5b50505050505050600190565b8881813d83116137b8575b61379e8183611b38565b8101031261027257519081151582036102a55750386136c6565b503d613794565b5050505050600190565b9192813b63ffffffff16156125b557602091613821916000604051958680958194630a85bd0160e11b9a8b845233600485015260018060a01b0380951660248501526044840152608060648401526084830190611a59565b0393165af1600091816138b7575b506138a95761383c613640565b805190816138a45760405162461bcd60e51b815260206004820152603260248201527f4552433732313a207472616e7366657220746f206e6f6e20455243373231526560448201527131b2b4bb32b91034b6b83632b6b2b73a32b960711b6064820152608490fd5b602001fd5b6001600160e01b0319161490565b6138d091925060203d811161376a5761375b8183611b38565b903861382f565b9060405191826138f36020820192602084526040830190611a59565b0392613907601f1994858101835282611b38565b5190209161393560405191826139296020820195602087526040830190611a59565b03908101835282611b38565b5190201490565b90815161394881611b59565b906139566040519283611b38565b808252613965601f1991611b59565b01602090368284013760005b8451811015613a18576139848186612757565b5190604160f892831c101580613a01575b156139da57826139a58288612757565b51831c019160ff8311611f77576139d592901b6001600160f81b03191660001a6139cf8286612757565b53611f68565b613971565b6139d591506001600160f81b03196139f28288612757565b511660001a6139cf8286612757565b50605a613a0e8288612757565b51831c1115613995565b509092505056fea264697066735822122043882655d7b0c0d042e6344559af4c16dc7e02a72366e9feb55e829697a0a4f564736f6c63430008140033",
  "linkReferences": {},
  "deployedLinkReferences": {}
}