{
  "_format": "hh-sol-artifact-1",
  "contractName": "CTMRWA001Mintable",
  "sourceName": "contracts/CTMRWA001Mintable.sol",
  "abi": [
    {
      "inputs": [
        {
          "internalType": "string",
          "name": "name_",
          "type": "string"
        },
        {
          "internalType": "string",
          "name": "symbol_",
          "type": "string"
        },
        {
          "internalType": "uint8",
          "name": "decimals_",
          "type": "uint8"
        },
        {
          "internalType": "address",
          "name": "_ctmRwa001XChain",
          "type": "address"
        }
      ],
      "stateMutability": "nonpayable",
      "type": "constructor"
    },
    {
      "anonymous": false,
      "inputs": [
        {
          "indexed": true,
          "internalType": "address",
          "name": "_owner",
          "type": "address"
        },
        {
          "indexed": true,
          "internalType": "address",
          "name": "_approved",
          "type": "address"
        },
        {
          "indexed": true,
          "internalType": "uint256",
          "name": "_tokenId",
          "type": "uint256"
        }
      ],
      "name": "Approval",
      "type": "event"
    },
    {
      "anonymous": false,
      "inputs": [
        {
          "indexed": true,
          "internalType": "address",
          "name": "_owner",
          "type": "address"
        },
        {
          "indexed": true,
          "internalType": "address",
          "name": "_operator",
          "type": "address"
        },
        {
          "indexed": false,
          "internalType": "bool",
          "name": "_approved",
          "type": "bool"
        }
      ],
      "name": "ApprovalForAll",
      "type": "event"
    },
    {
      "anonymous": false,
      "inputs": [
        {
          "indexed": true,
          "internalType": "uint256",
          "name": "_tokenId",
          "type": "uint256"
        },
        {
          "indexed": true,
          "internalType": "address",
          "name": "_operator",
          "type": "address"
        },
        {
          "indexed": false,
          "internalType": "uint256",
          "name": "_value",
          "type": "uint256"
        }
      ],
      "name": "ApprovalValue",
      "type": "event"
    },
    {
      "anonymous": false,
      "inputs": [
        {
          "indexed": true,
          "internalType": "address",
          "name": "metadataDescriptor",
          "type": "address"
        }
      ],
      "name": "SetMetadataDescriptor",
      "type": "event"
    },
    {
      "anonymous": false,
      "inputs": [
        {
          "indexed": true,
          "internalType": "uint256",
          "name": "_tokenId",
          "type": "uint256"
        },
        {
          "indexed": true,
          "internalType": "uint256",
          "name": "_oldSlot",
          "type": "uint256"
        },
        {
          "indexed": true,
          "internalType": "uint256",
          "name": "_newSlot",
          "type": "uint256"
        }
      ],
      "name": "SlotChanged",
      "type": "event"
    },
    {
      "anonymous": false,
      "inputs": [
        {
          "indexed": true,
          "internalType": "address",
          "name": "_from",
          "type": "address"
        },
        {
          "indexed": true,
          "internalType": "address",
          "name": "_to",
          "type": "address"
        },
        {
          "indexed": true,
          "internalType": "uint256",
          "name": "_tokenId",
          "type": "uint256"
        }
      ],
      "name": "Transfer",
      "type": "event"
    },
    {
      "anonymous": false,
      "inputs": [
        {
          "indexed": true,
          "internalType": "uint256",
          "name": "_fromTokenId",
          "type": "uint256"
        },
        {
          "indexed": true,
          "internalType": "uint256",
          "name": "_toTokenId",
          "type": "uint256"
        },
        {
          "indexed": false,
          "internalType": "uint256",
          "name": "_value",
          "type": "uint256"
        }
      ],
      "name": "TransferValue",
      "type": "event"
    },
    {
      "inputs": [
        {
          "internalType": "address",
          "name": "_admin",
          "type": "address"
        },
        {
          "internalType": "string[]",
          "name": "_chainIdsStr",
          "type": "string[]"
        },
        {
          "internalType": "string[]",
          "name": "_contractAddrsStr",
          "type": "string[]"
        }
      ],
      "name": "addXTokenInfo",
      "outputs": [
        {
          "internalType": "bool",
          "name": "",
          "type": "bool"
        }
      ],
      "stateMutability": "nonpayable",
      "type": "function"
    },
    {
      "inputs": [],
      "name": "admin",
      "outputs": [
        {
          "internalType": "address",
          "name": "",
          "type": "address"
        }
      ],
      "stateMutability": "view",
      "type": "function"
    },
    {
      "inputs": [
        {
          "internalType": "uint256",
          "name": "tokenId_",
          "type": "uint256"
        },
        {
          "internalType": "address",
          "name": "operator_",
          "type": "address"
        }
      ],
      "name": "allowance",
      "outputs": [
        {
          "internalType": "uint256",
          "name": "",
          "type": "uint256"
        }
      ],
      "stateMutability": "view",
      "type": "function"
    },
    {
      "inputs": [
        {
          "internalType": "address",
          "name": "to_",
          "type": "address"
        },
        {
          "internalType": "uint256",
          "name": "tokenId_",
          "type": "uint256"
        }
      ],
      "name": "approve",
      "outputs": [],
      "stateMutability": "payable",
      "type": "function"
    },
    {
      "inputs": [
        {
          "internalType": "uint256",
          "name": "tokenId_",
          "type": "uint256"
        },
        {
          "internalType": "address",
          "name": "to_",
          "type": "address"
        },
        {
          "internalType": "uint256",
          "name": "value_",
          "type": "uint256"
        }
      ],
      "name": "approve",
      "outputs": [],
      "stateMutability": "payable",
      "type": "function"
    },
    {
      "inputs": [
        {
          "internalType": "address",
          "name": "to_",
          "type": "address"
        },
        {
          "internalType": "uint256",
          "name": "tokenId_",
          "type": "uint256"
        }
      ],
      "name": "approveFromX",
      "outputs": [],
      "stateMutability": "nonpayable",
      "type": "function"
    },
    {
      "inputs": [
        {
          "internalType": "address",
          "name": "owner_",
          "type": "address"
        }
      ],
      "name": "balanceOf",
      "outputs": [
        {
          "internalType": "uint256",
          "name": "balance",
          "type": "uint256"
        }
      ],
      "stateMutability": "view",
      "type": "function"
    },
    {
      "inputs": [
        {
          "internalType": "uint256",
          "name": "tokenId_",
          "type": "uint256"
        }
      ],
      "name": "balanceOf",
      "outputs": [
        {
          "internalType": "uint256",
          "name": "",
          "type": "uint256"
        }
      ],
      "stateMutability": "view",
      "type": "function"
    },
    {
      "inputs": [
        {
          "internalType": "address",
          "name": "_admin",
          "type": "address"
        }
      ],
      "name": "changeAdmin",
      "outputs": [
        {
          "internalType": "bool",
          "name": "",
          "type": "bool"
        }
      ],
      "stateMutability": "nonpayable",
      "type": "function"
    },
    {
      "inputs": [
        {
          "internalType": "string",
          "name": "_otherChainIdStr",
          "type": "string"
        },
        {
          "internalType": "string",
          "name": "_otherContractStr",
          "type": "string"
        }
      ],
      "name": "checkTokenCompatibility",
      "outputs": [
        {
          "internalType": "bool",
          "name": "",
          "type": "bool"
        }
      ],
      "stateMutability": "view",
      "type": "function"
    },
    {
      "inputs": [
        {
          "internalType": "uint256",
          "name": "tokenId_",
          "type": "uint256"
        }
      ],
      "name": "clearApprovedValues",
      "outputs": [],
      "stateMutability": "nonpayable",
      "type": "function"
    },
    {
      "inputs": [],
      "name": "contractURI",
      "outputs": [
        {
          "internalType": "string",
          "name": "",
          "type": "string"
        }
      ],
      "stateMutability": "view",
      "type": "function"
    },
    {
      "inputs": [],
      "name": "ctmRwa001XChain",
      "outputs": [
        {
          "internalType": "address",
          "name": "",
          "type": "address"
        }
      ],
      "stateMutability": "view",
      "type": "function"
    },
    {
      "inputs": [
        {
          "internalType": "uint256",
          "name": "tokenId_",
          "type": "uint256"
        }
      ],
      "name": "getApproved",
      "outputs": [
        {
          "internalType": "address",
          "name": "",
          "type": "address"
        }
      ],
      "stateMutability": "view",
      "type": "function"
    },
    {
      "inputs": [
        {
          "internalType": "string",
          "name": "_chainIdStr",
          "type": "string"
        }
      ],
      "name": "getTokenContract",
      "outputs": [
        {
          "internalType": "string",
          "name": "",
          "type": "string"
        }
      ],
      "stateMutability": "view",
      "type": "function"
    },
    {
      "inputs": [
        {
          "internalType": "uint256",
          "name": "tokenId_",
          "type": "uint256"
        }
      ],
      "name": "getTokenInfo",
      "outputs": [
        {
          "internalType": "uint256",
          "name": "",
          "type": "uint256"
        },
        {
          "internalType": "uint256",
          "name": "",
          "type": "uint256"
        },
        {
          "internalType": "address",
          "name": "",
          "type": "address"
        },
        {
          "internalType": "uint256",
          "name": "",
          "type": "uint256"
        }
      ],
      "stateMutability": "view",
      "type": "function"
    },
    {
      "inputs": [
        {
          "internalType": "uint256",
          "name": "tokenId_",
          "type": "uint256"
        }
      ],
      "name": "idOf",
      "outputs": [
        {
          "internalType": "uint256",
          "name": "",
          "type": "uint256"
        }
      ],
      "stateMutability": "view",
      "type": "function"
    },
    {
      "inputs": [
        {
          "internalType": "address",
          "name": "owner_",
          "type": "address"
        },
        {
          "internalType": "address",
          "name": "operator_",
          "type": "address"
        }
      ],
      "name": "isApprovedForAll",
      "outputs": [
        {
          "internalType": "bool",
          "name": "",
          "type": "bool"
        }
      ],
      "stateMutability": "view",
      "type": "function"
    },
    {
      "inputs": [
        {
          "internalType": "address",
          "name": "operator_",
          "type": "address"
        },
        {
          "internalType": "uint256",
          "name": "tokenId_",
          "type": "uint256"
        }
      ],
      "name": "isApprovedOrOwner",
      "outputs": [
        {
          "internalType": "bool",
          "name": "",
          "type": "bool"
        }
      ],
      "stateMutability": "view",
      "type": "function"
    },
    {
      "inputs": [],
      "name": "metadataDescriptor",
      "outputs": [
        {
          "internalType": "contract ICTMRWA001MetadataDescriptor",
          "name": "",
          "type": "address"
        }
      ],
      "stateMutability": "view",
      "type": "function"
    },
    {
      "inputs": [
        {
          "internalType": "address",
          "name": "mintTo_",
          "type": "address"
        },
        {
          "internalType": "uint256",
          "name": "tokenId_",
          "type": "uint256"
        },
        {
          "internalType": "uint256",
          "name": "slot_",
          "type": "uint256"
        },
        {
          "internalType": "uint256",
          "name": "value_",
          "type": "uint256"
        }
      ],
      "name": "mint",
      "outputs": [],
      "stateMutability": "nonpayable",
      "type": "function"
    },
    {
      "inputs": [
        {
          "internalType": "address",
          "name": "to_",
          "type": "address"
        },
        {
          "internalType": "uint256",
          "name": "tokenId_",
          "type": "uint256"
        },
        {
          "internalType": "uint256",
          "name": "slot_",
          "type": "uint256"
        },
        {
          "internalType": "uint256",
          "name": "value_",
          "type": "uint256"
        }
      ],
      "name": "mintFromX",
      "outputs": [],
      "stateMutability": "nonpayable",
      "type": "function"
    },
    {
      "inputs": [
        {
          "internalType": "address",
          "name": "to_",
          "type": "address"
        },
        {
          "internalType": "uint256",
          "name": "slot_",
          "type": "uint256"
        },
        {
          "internalType": "uint256",
          "name": "value_",
          "type": "uint256"
        }
      ],
      "name": "mintFromX",
      "outputs": [
        {
          "internalType": "uint256",
          "name": "tokenId",
          "type": "uint256"
        }
      ],
      "stateMutability": "nonpayable",
      "type": "function"
    },
    {
      "inputs": [
        {
          "internalType": "uint256",
          "name": "tokenId_",
          "type": "uint256"
        },
        {
          "internalType": "uint256",
          "name": "value_",
          "type": "uint256"
        }
      ],
      "name": "mintValue",
      "outputs": [],
      "stateMutability": "nonpayable",
      "type": "function"
    },
    {
      "inputs": [],
      "name": "name",
      "outputs": [
        {
          "internalType": "string",
          "name": "",
          "type": "string"
        }
      ],
      "stateMutability": "view",
      "type": "function"
    },
    {
      "inputs": [
        {
          "internalType": "uint256",
          "name": "tokenId_",
          "type": "uint256"
        }
      ],
      "name": "ownerOf",
      "outputs": [
        {
          "internalType": "address",
          "name": "owner_",
          "type": "address"
        }
      ],
      "stateMutability": "view",
      "type": "function"
    },
    {
      "inputs": [
        {
          "internalType": "address",
          "name": "from_",
          "type": "address"
        },
        {
          "internalType": "uint256",
          "name": "tokenId_",
          "type": "uint256"
        }
      ],
      "name": "removeTokenFromOwnerEnumeration",
      "outputs": [],
      "stateMutability": "nonpayable",
      "type": "function"
    },
    {
      "inputs": [
        {
          "internalType": "address",
          "name": "from_",
          "type": "address"
        },
        {
          "internalType": "address",
          "name": "to_",
          "type": "address"
        },
        {
          "internalType": "uint256",
          "name": "tokenId_",
          "type": "uint256"
        }
      ],
      "name": "safeTransferFrom",
      "outputs": [],
      "stateMutability": "payable",
      "type": "function"
    },
    {
      "inputs": [
        {
          "internalType": "address",
          "name": "from_",
          "type": "address"
        },
        {
          "internalType": "address",
          "name": "to_",
          "type": "address"
        },
        {
          "internalType": "uint256",
          "name": "tokenId_",
          "type": "uint256"
        },
        {
          "internalType": "bytes",
          "name": "data_",
          "type": "bytes"
        }
      ],
      "name": "safeTransferFrom",
      "outputs": [],
      "stateMutability": "payable",
      "type": "function"
    },
    {
      "inputs": [
        {
          "internalType": "address",
          "name": "operator_",
          "type": "address"
        },
        {
          "internalType": "bool",
          "name": "approved_",
          "type": "bool"
        }
      ],
      "name": "setApprovalForAll",
      "outputs": [],
      "stateMutability": "nonpayable",
      "type": "function"
    },
    {
      "inputs": [
        {
          "internalType": "uint256",
          "name": "tokenId_",
          "type": "uint256"
        }
      ],
      "name": "slotOf",
      "outputs": [
        {
          "internalType": "uint256",
          "name": "",
          "type": "uint256"
        }
      ],
      "stateMutability": "view",
      "type": "function"
    },
    {
      "inputs": [
        {
          "internalType": "uint256",
          "name": "slot_",
          "type": "uint256"
        }
      ],
      "name": "slotURI",
      "outputs": [
        {
          "internalType": "string",
          "name": "",
          "type": "string"
        }
      ],
      "stateMutability": "view",
      "type": "function"
    },
    {
      "inputs": [
        {
          "internalType": "address",
          "name": "operator_",
          "type": "address"
        },
        {
          "internalType": "uint256",
          "name": "tokenId_",
          "type": "uint256"
        },
        {
          "internalType": "uint256",
          "name": "value_",
          "type": "uint256"
        }
      ],
      "name": "spendAllowance",
      "outputs": [],
      "stateMutability": "nonpayable",
      "type": "function"
    },
    {
      "inputs": [
        {
          "internalType": "string",
          "name": "a",
          "type": "string"
        },
        {
          "internalType": "string",
          "name": "b",
          "type": "string"
        }
      ],
      "name": "stringsEqual",
      "outputs": [
        {
          "internalType": "bool",
          "name": "",
          "type": "bool"
        }
      ],
      "stateMutability": "pure",
      "type": "function"
    },
    {
      "inputs": [
        {
          "internalType": "bytes4",
          "name": "interfaceId",
          "type": "bytes4"
        }
      ],
      "name": "supportsInterface",
      "outputs": [
        {
          "internalType": "bool",
          "name": "",
          "type": "bool"
        }
      ],
      "stateMutability": "view",
      "type": "function"
    },
    {
      "inputs": [],
      "name": "symbol",
      "outputs": [
        {
          "internalType": "string",
          "name": "",
          "type": "string"
        }
      ],
      "stateMutability": "view",
      "type": "function"
    },
    {
      "inputs": [
        {
          "internalType": "uint256",
          "name": "index_",
          "type": "uint256"
        }
      ],
      "name": "tokenByIndex",
      "outputs": [
        {
          "internalType": "uint256",
          "name": "",
          "type": "uint256"
        }
      ],
      "stateMutability": "view",
      "type": "function"
    },
    {
      "inputs": [
        {
          "internalType": "uint256",
          "name": "",
          "type": "uint256"
        }
      ],
      "name": "tokenContract",
      "outputs": [
        {
          "internalType": "string",
          "name": "chainIdStr",
          "type": "string"
        },
        {
          "internalType": "string",
          "name": "contractStr",
          "type": "string"
        }
      ],
      "stateMutability": "view",
      "type": "function"
    },
    {
      "inputs": [
        {
          "internalType": "address",
          "name": "owner_",
          "type": "address"
        },
        {
          "internalType": "uint256",
          "name": "index_",
          "type": "uint256"
        }
      ],
      "name": "tokenOfOwnerByIndex",
      "outputs": [
        {
          "internalType": "uint256",
          "name": "",
          "type": "uint256"
        }
      ],
      "stateMutability": "view",
      "type": "function"
    },
    {
      "inputs": [
        {
          "internalType": "uint256",
          "name": "tokenId_",
          "type": "uint256"
        }
      ],
      "name": "tokenURI",
      "outputs": [
        {
          "internalType": "string",
          "name": "",
          "type": "string"
        }
      ],
      "stateMutability": "view",
      "type": "function"
    },
    {
      "inputs": [],
      "name": "totalSupply",
      "outputs": [
        {
          "internalType": "uint256",
          "name": "",
          "type": "uint256"
        }
      ],
      "stateMutability": "view",
      "type": "function"
    },
    {
      "inputs": [
        {
          "internalType": "uint256",
          "name": "fromTokenId_",
          "type": "uint256"
        },
        {
          "internalType": "address",
          "name": "to_",
          "type": "address"
        },
        {
          "internalType": "uint256",
          "name": "value_",
          "type": "uint256"
        }
      ],
      "name": "transferFrom",
      "outputs": [
        {
          "internalType": "uint256",
          "name": "newTokenId",
          "type": "uint256"
        }
      ],
      "stateMutability": "payable",
      "type": "function"
    },
    {
      "inputs": [
        {
          "internalType": "address",
          "name": "from_",
          "type": "address"
        },
        {
          "internalType": "address",
          "name": "to_",
          "type": "address"
        },
        {
          "internalType": "uint256",
          "name": "tokenId_",
          "type": "uint256"
        }
      ],
      "name": "transferFrom",
      "outputs": [],
      "stateMutability": "payable",
      "type": "function"
    },
    {
      "inputs": [
        {
          "internalType": "uint256",
          "name": "fromTokenId_",
          "type": "uint256"
        },
        {
          "internalType": "uint256",
          "name": "toTokenId_",
          "type": "uint256"
        },
        {
          "internalType": "uint256",
          "name": "value_",
          "type": "uint256"
        }
      ],
      "name": "transferFrom",
      "outputs": [],
      "stateMutability": "payable",
      "type": "function"
    },
    {
      "inputs": [],
      "name": "valueDecimals",
      "outputs": [
        {
          "internalType": "uint8",
          "name": "",
          "type": "uint8"
        }
      ],
      "stateMutability": "view",
      "type": "function"
    }
  ],
  "bytecode": "0x60806040818152346200070457620043ee803803809162000021828662000709565b8439820190608083830312620007045782516001600160401b03908181116200070457836200005291860162000784565b92602090818601519083821162000704576200007091870162000784565b94838101519260ff918285168095036200070457606001516001600160a01b0381169290839003620007045760018060a01b031993600093338686541617855560019586600655895197858911620006f05760039880620000d28b54620007d1565b601f9d818f80931162000691575b50879183116001146200062e578a9262000622575b5050600019828c1b1c191690891b1789555b8b518681116200060e5760049b620001208d54620007d1565b818111620005ca575b508c9d8c9d8a9d9c9d50879284116001146200053d57509b8291620002329d8b9362000531575b5050828b1b92600019911b1c1916178c555b60ff196005541617600555865416178555468086867a184f03e93ff9f4daa797ed6e38ed64bf6a1f0100000000000000008084101562000520575b50846d04ee2d6d415b85acef81000000008086101562000513575b5050662386f26fc100008085101562000505575b506305f5e10080851015620004f7575b508c61271080861015620004ea575b50506064841015620004db575b60219082600a80961015620004d3575b810162000223620002198262000743565b9c519c8d62000709565b808c52601f199c8d9162000743565b0136878d01378a0101905b620004a2575b505050308851936060850190858210908211176200048f578952602a8452818401893682378451156200047c5760309053835186101562000469576078602185015360295b868111620003fd5750620003bc57825196620002c0620002a88962000743565b98620002b78b519a8b62000709565b808a5262000743565b01368289013783855b620002eb575b88620002dc89896200087c565b5051613760908162000c8e8239f35b8351811015620003b6576200030181856200080e565b51604160f891821c1015806200039c575b156200037157826200032583876200080e565b51821c018481116200035e576200035792911b6001600160f81b031916861a62000350828b6200080e565b5362000836565b85620002c9565b634e487b7160e01b875260118c52602487fd5b5062000357906001600160f81b03196200038c82876200080e565b5116861a62000350828b6200080e565b50605a620003ab83876200080e565b51821c111562000312565b620002cf565b88816064928a519262461bcd60e51b845283015260248201527f537472696e67733a20686578206c656e67746820696e73756666696369656e746044820152fd5b90600f8116601081101562000456576f181899199a1a9b1b9c1cb0b131b232b360811b901a6200042e83876200080e565b538a1c90801562000443576000190162000288565b634e487b7160e01b865260118b52602486fd5b634e487b7160e01b875260328c52602487fd5b634e487b7160e01b855260328a52602485fd5b634e487b7160e01b865260328b52602486fd5b634e487b7160e01b865260418b52602486fd5b600019019082906f181899199a1a9b1b9c1cb0b131b232b360811b8282061a8353049087826200023d575062000243565b018262000208565b606490930492600201620001f8565b90940493018c38620001eb565b6008919404930138620001dc565b6010919404930138620001cc565b90940493018438620001b8565b92935050508104908688386200019d565b01519150388062000150565b8a52868a20929c9190601f198e168b5b818110620005935750918e9391620002329f8e96941062000578575b50505050811b018c5562000162565b01519060f884600019921b161c191690553880808062000569565b93948d9f97999b9d8497999b9d9f508c92939491839286015181550196019301908f9d9b999795949392919e9c9a98969e6200054d565b8d8a52868a208280850160051c82019289861062000604575b0160051c01905b818110620005f9575062000129565b8a81558b01620005ea565b92508192620005e3565b634e487b7160e01b88526041600452602488fd5b015190503880620000f5565b8c8b52878b208c94509190601f1984168c5b8a8282106200067a575050841162000661575b505050811b01895562000107565b0151600019838e1b60f8161c1916905538808062000653565b8385015186558f9790950194938401930162000640565b915091508b8a528d878b209080850160051c820192898610620006e6575b859492828f929593950160051c01915b828110620006cf575050620000e0565b8d91939550809294505501918e918c8594620006bf565b92508192620006af565b634e487b7160e01b87526041600452602487fd5b600080fd5b601f909101601f19168101906001600160401b038211908210176200072d57604052565b634e487b7160e01b600052604160045260246000fd5b6001600160401b0381116200072d57601f01601f191660200190565b60005b838110620007735750506000910152565b818101518382015260200162000762565b81601f82011215620007045780516200079d8162000743565b92620007ad604051948562000709565b818452602082840101116200070457620007ce91602080850191016200075f565b90565b90600182811c9216801562000803575b6020831014620007ed57565b634e487b7160e01b600052602260045260246000fd5b91607f1691620007e1565b90815181101562000820570160200190565b634e487b7160e01b600052603260045260246000fd5b6000198114620008465760010190565b634e487b7160e01b600052601160045260246000fd5b6002548110156200082057600260005260206000209060011b0190600090565b60025490929160005b82811062000b31575060408051946001600160401b03918601828111878210176200072d576040528552602094858101928352680100000000000000008410156200072d57620008dd6001948581016002556200085c565b91909162000b1b5751908151908382116200072d578591620009008254620007d1565b93601f9485811162000ac6575b50899085831160011462000a5b57600091908362000a4f575b5050600019600383901b1c191690831b1781555b0192519586519283116200072d57620009548454620007d1565b82811162000a04575b50809183116001146200099b575081929394956000926200098f575b5050600019600383901b1c191690831b17905590565b01519050388062000979565b90601f198316968460005282600020926000905b898210620009ec5750508386979896959610620009d2575b505050811b01905590565b015160001960f88460031b161c19169055388080620009c7565b808885968294968601518155019501930190620009af565b84600052816000208380860160051c82019284871062000a45575b0160051c019086905b82811062000a385750506200095d565b6000815501869062000a28565b9250819262000a1f565b01519050388062000926565b90601f19831691846000528b6000209260005b8d82821062000aaf575050908487959493921062000a95575b505050811b0181556200093a565b015160001960f88460031b161c1916905538808062000a87565b8385015186558c9890950194938401930162000a6e565b909192809450600052896000208580850160051c8201928c861062000b11575b908a9695949392910160051c01905b81811062000b0457506200090d565b6000815589950162000af5565b9250819262000ae6565b634e487b7160e01b600052600060045260246000fd5b62000b3c816200085c565b50604090815190816000825462000b5381620007d1565b8084529360019180831690811562000c3a575060011462000bf5575b505062000b7f9250038262000709565b81519062000bd26020918362000b99848201928362000c5f565b039362000baf601f199586810183528262000709565b5190209351918201928262000bc58b8662000c5f565b0390810183528262000709565b5190201462000bec5762000be69062000836565b62000885565b50600093505050565b90915060005260209283600020916000925b82841062000c23575050509162000b7f92820101388062000b6f565b805487850187015286945092850192810162000c07565b935050505062000b7f9260209160ff191682840152151560051b820101388062000b6f565b6040916020825262000c8181518092816020860152602086860191016200075f565b601f01601f191601019056fe608060408181526004918236101561001657600080fd5b600092833560e01c91826301ffc9a71461176f5750816306fdde031461169c578163075217541461166a578163081812fc1461164a578163095ea7b31461156857816309c3dd87146114da5781630f485c021461115c57816313d199501461114057816318160ddd1461112157816323b872dd146110fc578163263f3e7e146110dc5781632f745c5914611032578163310ed7f014610fab578163381c4fce14610f5b5781633e7e866914610f39578163404b6e9f14610eff57816342842e0e14610edc578163430c208114610e9e578163449d077214610de65781634f6ccce714610d67578163582939e514610d375781636352211e14610d0657816370a0823114610ce0578163840f711314610cb75781638c7a63ae14610c185781638cb0a51114610b6e5781638f28397014610abf57816395d89b41146109ea578163968e8a13146109b05781639c0e9a5d146109945781639cc7f70814610974578163a22cb465146108a5578163a30fb02014610840578163a647e8ec14610825578163a6a2d1dd146107a6578163b3875b951461077d578163b88d4fde1461071e578163bff2ed71146106d3578163c87b56dd146105a8578163dee9f53f14610565578163e345e0bc14610533578163e8a3d485146102ca578163e985e9c514610279578163f0e88e7f1461023e575063f851a4401461021457600080fd5b3461023a578160031936011261023a57905490516001600160a01b039091168152602090f35b5080fd5b919050346102755736600319011261023a57610272903561025e816123af565b50610268816123eb565b5060243590612a26565b80f35b8280fd5b50503461023a578060031936011261023a5760ff8160209361029961186a565b6102a1611885565b6001600160a01b039182168352600a875283832091168252600201855220549151911615158152f35b90503461027557826003193601126102755781516102e781611909565b838152600b546001600160a01b031690811561036d57508390835192838092631c97e82760e21b82525afa908115610361578361033a949261033e575b5050905b51918291602083526020830190611845565b0390f35b61035a92503d8091833e6103528183611924565b81019061240f565b3880610324565b505051903d90823e3d90fd5b929391905081156105185783513091606082016001600160401b03811183821017610503578652602a825260209283830194873687378351156104f057603086538351906001918210156104dd5790607860218601536029915b818311610472575050506104315750849368636f6e74726163742f60b81b9361042b9361041c60299461033a9951978561040a8a9751809287808b019101611822565b86019384015251809386840190611822565b01036009810184520182611924565b90610328565b606490838088519262461bcd60e51b845283015260248201527f537472696e67733a20686578206c656e67746820696e73756666696369656e746044820152fd5b909192600f811660108110156104ca576f181899199a1a9b1b9c1cb0b131b232b360811b901a6104a2858861247a565b53841c9280156104b7576000190191906103c7565b634e487b7160e01b825260118552602482fd5b634e487b7160e01b835260328652602483fd5b634e487b7160e01b815260328452602490fd5b634e487b7160e01b815260328352602490fd5b604182634e487b7160e01b6000525260246000fd5b5050508061033a915161052a81611909565b6000815261042b565b8284346105625781600319360112610562575061055b602092610554611885565b90356124e3565b9051908152f35b80fd5b905034610275576020366003190112610275578160209361059f923561059261058d82612743565b612363565b81526009855220546122fe565b50549051908152f35b90503461027557602090816003193601126106cf5780356105cb61058d82612743565b8351916105d783611909565b858352600b546001600160a01b031692831561065857509060248692865194859384926344a5a61760e11b84528301525afa90811561064b578461033a93949592610630575b5050925b51928284938452830190611845565b61064492503d8091833e6103528183611924565b388061061d565b50505051903d90823e3d90fd5b92505084839495506000146106b55761033a926106776106af92611e0c565b928651938161068f8693518092868087019101611822565b82016106a382518093868085019101611822565b01038084520182611924565b92610621565b50505061033a82516106c681611909565b600081526106af565b8380fd5b828434610562576020610718836106e936611a2d565b9061070260018060a09795971b03600154163314611c38565b600654809561071082611c9d565b600655612771565b51908152f35b8390608036600319011261023a5761073461186a565b61073c611885565b906064356001600160401b0381116107795736602382011215610779576102729381602461076f93369301359101611960565b91604435916125f8565b8480fd5b50503461023a578160031936011261023a5760015490516001600160a01b039091168152602090f35b828434610562576060366003190112610562576107c161186a565b926001600160401b036024358181116106cf576107e19036908401611bb5565b926044359182116105625750916108016020959261081c94369101611bb5565b9161081760018060a01b03600154163314611c38565b611cd6565b90519015158152f35b83346105625761027261083736611a57565b92919091612771565b8391503461023a57602036600319011261023a573590600254821015610562575061086a90611a85565b509061033a610884600161087d85611b0f565b9401611b0f565b6108978351948486958652850190611845565b908382036020850152611845565b919050346102755780600319360112610275576108c061186a565b9060243591821515809303610779576001600160a01b0316923384146109325750338452600a60205260028185200183855260205280842060ff1981541660ff8416179055519081527f17307eab39ab6107e8899845ad3d59bd9653f200f220920489ca2b5937696c3160203392a380f35b6020606492519162461bcd60e51b8352820152601c60248201527f43544d5257413030313a20617070726f766520746f2063616c6c6572000000006044820152fd5b828434610562576020366003190112610562575061055b60209235612339565b50503461023a5760209061081c6109aa366119b5565b9061228b565b50503461023a57366003190112610562576102726109cc61186a565b6109e160018060a01b03600154163314611c38565b60243590612c41565b9190503461027557826003193601126102755780519183815490610a0d82611ad5565b80865292600192808416908115610a945750600114610a38575b61033a8686610328828b0383611924565b815294507f8a35acfbc15ff81a39ae7d344fd709f28e8600b4aa8c65c6b64bfe7fe36bd19b5b828610610a7c5750505061032882602061033a958201019438610a27565b80546020878701810191909152909501948101610a5e565b905061033a97508693506020925061032894915060ff191682840152151560051b8201019438610a27565b82843461056257602036600319011261056257610ada61186a565b8154906001600160a01b03908183163303610b1a5760209550610b0282600154163314611c38565b16906001600160601b0360a01b161790555160018152f35b845162461bcd60e51b8152602081880152602860248201527f43544d5257413030313a205468697320697320616e206f6e6c7941646d696e20604482015267333ab731ba34b7b760c11b6064820152608490fd5b839150610b7a3661189b565b92909190610b9e6001600160a01b0380610b93856123af565b16908516141561248b565b610ba882336126c5565b15610bb95750610272939450612cab565b608490602087519162461bcd60e51b8352820152603360248201527f43544d5257413030313a20617070726f76652063616c6c6572206973206e6f74604482015272081bdddb995c881b9bdc88185c1c1c9bdd9959606a1b6064820152fd5b83833461023a5760209081600319360112610275576080933590610c3e61058d83612743565b81845260098352610c51818520546122fe565b505493828152600984526001610ca1836002610c6f828620546122fe565b5001549386815260098852610c86828220546122fe565b506003858060a01b03910154169681526009885220546122fe565b5001549382519586528501528301526060820152f35b50503461023a578160031936011261023a57600b5490516001600160a01b039091168152602090f35b50503461023a57602036600319011261023a5760209061055b610d0161186a565b612514565b8284346105625760203660031901126105625750610d26602092356123af565b90516001600160a01b039091168152f35b833461056257610272610d4936611a57565b92610d6260018060a09594951b03600154163314611c38565b612771565b905082346105625760203660031901126105625750803590600854821015610d955760208361059f846122fe565b608490602084519162461bcd60e51b8352820152602560248201527f43544d5257413030313a20676c6f62616c20696e646578206f7574206f6620626044820152646f756e647360d81b6064820152fd5b8391503461023a57610df736611a2d565b9092610e0383856124e3565b90610e0e85856126c5565b1580610e92575b610e1d578580f35b828210610e455750610e3b94955090610e3591612736565b91612cab565b8082808080808580f35b608490602088519162461bcd60e51b8352820152602160248201527f43544d5257413030313a20696e73756666696369656e7420616c6c6f77616e636044820152606560f81b6064820152fd5b50600019821415610e15565b50503461023a578060031936011261023a5760209061081c610ebe61186a565b610ed360018060a01b03600154163314611c38565b602435906126c5565b8361027284610eea366119f8565b91925192610ef784611909565b8584526125f8565b50503461023a5736600319011261056257610272610f1b61186a565b610f3060018060a01b03600154163314611c38565b60243590612b2a565b50503461023a578160031936011261023a5760209060ff600554169051908152f35b828434610562576020366003190112610562578235906001600160401b0382116105625750610f9361033a93610f9892369101611997565b61221d565b9051918291602083526020830190611845565b839150606036600319011261023a5780359260443591303b156106cf57815163224e83b960e11b81523391810191825260208201869052604082018490529190849083908190606001038183305af19081156110295750611016575b50610272919260243590612f12565b91611023610272936118c5565b91611007565b513d85823e3d90fd5b9050823461056257826003193601126105625761104d61186a565b6024359261105a82612514565b84101561108d5760208561107f8682878760018060a01b03168152600a8652206126ad565b91905490519160031b1c8152f35b608490602086519162461bcd60e51b83528201526024808201527f43544d5257413030313a206f776e657220696e646578206f7574206f6620626f604482015263756e647360e01b6064820152fd5b828434610562576020366003190112610562575061055b602092356123eb565b83610272611109366119f8565b9161111c61111784336126c5565b61258f565b6131a9565b50503461023a578160031936011261023a576020906008549051908152f35b50503461023a5760209061081c611156366119b5565b906135e2565b82846111673661189b565b919092303b1561056257845163224e83b960e11b8152338782019081526020810184905260408101859052829082908190606001038183305af180156114d0576114c1575b50600654936111ba85611c9d565b6006556111c6836123eb565b906001600160a01b0380821691908215611472578715611423576111e988612743565b6113e0579688998998829a51906111ff82611909565b8782528a5161120d816118ee565b8481528860209e8f968784018b81528285019184835260608601938c8552608087019580875260a08801998a5260096008549c8d948352522055600160401b8910156113cd576112646001998a81016008556122fe565b9590956113bb57906005959493929151855551898501555160028401558460038401915116906001600160601b0360a01b918282541617905584878401925116908254161790550191518051936001600160401b0385116113a8575082918e80928f9b9d9c9a9998979695866112d991612c0d565b01928c52818c20918c905b858210611391575050505050505091846107189792611304828096612a7b565b837fddf252ad1be2c89b69c2b068fc378daa952ba7f163c4a11628f55a4df523b3ef8180a481837fe4f48c240d3b994948aa54f3e2f5fca59263dfe1d52b6e4cf39a5d249b5ccb658280a481815260098952611362878220546122fe565b50507f0b2aac84f3ec956911fd78eae5311062972ff949f38412e8da39069d9f068cc6898851838152a3612f12565b84518316828501558f9b509093019285018f6112e4565b634e487b7160e01b8a5260419052602489fd5b634e487b7160e01b8e528d895260248efd5b634e487b7160e01b8d526041885260248dfd5b885162461bcd60e51b81526020818c0152601f60248201527f43544d5257413030313a20746f6b656e20616c7265616479206d696e746564006044820152606490fd5b885162461bcd60e51b81526020818c0152602360248201527f43544d5257413030313a2063616e6e6f74206d696e74207a65726f20746f6b656044820152621b925960ea1b6064820152608490fd5b885162461bcd60e51b81526020818c0152602360248201527f43544d5257413030313a206d696e7420746f20746865207a65726f206164647260448201526265737360e81b6064820152608490fd5b6114ca906118c5565b866111ac565b86513d84823e3d90fd5b905034610275576020366003190112610275578282516114f981611909565b52600b546001600160a01b031690811561154f5783906024845180948193633601bfc560e11b83528035908301525afa908115610361578361033a949261033e5750509051918291602083526020830190611845565b5050805161033a9261156082611909565b815290610328565b8391508260031936011261023a5761157e61186a565b602435916001600160a01b036115a381611597866123af565b1680928516141561248b565b803314908115611628575b50156115bf57509061027291612c41565b608490602086519162461bcd60e51b8352820152603b60248201527f43544d5257413030313a20617070726f76652063616c6c6572206973206e6f7460448201527f206f776e6572206e6f7220617070726f76656420666f7220616c6c00000000006064820152fd5b90508452600a60205260028585200133855260205260ff8585205416866115ae565b8284346105625760203660031901126105625750610d266020923561267a565b83903461023a57602036600319011261023a576102729061169660018060a01b03600154163314611c38565b35612de9565b50503461023a578160031936011261023a57805190826003546116be81611ad5565b8085529160019180831690811561174757506001146116ea575b5050506103288261033a940383611924565b9450600385527fc2575a0e9e593c00f959f8c92f12db2869c3395a3b0502d05e2516446f71f85b5b82861061172f5750505061032882602061033a95820101946116d8565b80546020878701810191909152909501948101611712565b61033a97508693506020925061032894915060ff191682840152151560051b820101946116d8565b849134610275576020366003190112610275573563ffffffff60e01b811680910361027557602092506301ffc9a760e01b8114908115611811575b8115611800575b81156117ef575b81156117de575b81156117cd575b5015158152f35b635b5e139f60e01b149050836117c6565b63780e9d6360e01b811491506117bf565b6370b0048160e11b811491506117b8565b6380ac58cd60e01b811491506117b1565b630354d60560e61b811491506117aa565b60005b8381106118355750506000910152565b8181015183820152602001611825565b9060209161185e81518092818552858086019101611822565b601f01601f1916010190565b600435906001600160a01b038216820361188057565b600080fd5b602435906001600160a01b038216820361188057565b606090600319011261188057600435906024356001600160a01b0381168103611880579060443590565b6001600160401b0381116118d857604052565b634e487b7160e01b600052604160045260246000fd5b60c081019081106001600160401b038211176118d857604052565b602081019081106001600160401b038211176118d857604052565b90601f801991011681019081106001600160401b038211176118d857604052565b6001600160401b0381116118d857601f01601f191660200190565b92919261196c82611945565b9161197a6040519384611924565b829481845281830111611880578281602093846000960137010152565b9080601f83011215611880578160206119b293359101611960565b90565b906040600319830112611880576001600160401b0360043581811161188057836119e191600401611997565b92602435918211611880576119b291600401611997565b6060906003190112611880576001600160a01b0390600435828116810361188057916024359081168103611880579060443590565b6060906003190112611880576004356001600160a01b038116810361188057906024359060443590565b6080906003190112611880576004356001600160a01b03811681036118805790602435906044359060643590565b600254811015611abf57600260005260011b7f405787fa12a823e0f2b7631cc41b3ba8828b3321ca811111fa75cd3aa3bb5ace0190600090565b634e487b7160e01b600052603260045260246000fd5b90600182811c92168015611b05575b6020831014611aef57565b634e487b7160e01b600052602260045260246000fd5b91607f1691611ae4565b9060405191826000825492611b2384611ad5565b908184526001948581169081600014611b925750600114611b4f575b5050611b4d92500383611924565b565b9093915060005260209081600020936000915b818310611b7a575050611b4d93508201013880611b3f565b85548884018501529485019487945091830191611b62565b915050611b4d94506020925060ff191682840152151560051b8201013880611b3f565b9080601f83011215611880578135906001600160401b03928383116118d8578260051b60405194602094611beb86840188611924565b865284808701928401019380851161188057858401925b858410611c13575050505050505090565b8335838111611880578791611c2d848480948a0101611997565b815201930192611c02565b15611c3f57565b60405162461bcd60e51b815260206004820152603060248201527f43544d5257413030313a20546869732063616e206f6e6c792062652063616c6c60448201526f0cac840c4f24086a89aa4ae82606062b60831b6064820152608490fd5b6000198114611cac5760010190565b634e487b7160e01b600052601160045260246000fd5b8051821015611abf5760209160051b010190565b600080549293909290916001600160a01b03918216911603611dc7578251815103611d6457815b8351811015611d5b57611d1d611d138286611cc2565b5161115646611e0c565b15611d31575b611d2c90611c9d565b611cfd565b611d50611d3e8286611cc2565b51611d498385611cc2565b5190611f8b565b611d23575050905090565b50505050600190565b60405162461bcd60e51b815260206004820152603560248201527f43544d5257413030313a204c656e677468206d69736d6174636820636861696e60448201527449647320616e6420636f6e7472616374416464727360581b6064820152608490fd5b60405162461bcd60e51b815260206004820152601e60248201527f43544d525741303031583a2041646d696e4f6e6c792066756e6374696f6e00006044820152606490fd5b806000917a184f03e93ff9f4daa797ed6e38ed64bf6a1f01000000000000000080821015611f66575b506d04ee2d6d415b85acef810000000080831015611f57575b50662386f26fc1000080831015611f48575b506305f5e10080831015611f39575b5061271080831015611f2a575b506064821015611f1a575b600a80921015611f10575b60019081602181860195611ea587611945565b96611eb36040519889611924565b808852611ec2601f1991611945565b01366020890137860101905b611eda575b5050505090565b600019019083906f181899199a1a9b1b9c1cb0b131b232b360811b8282061a835304918215611f0b57919082611ece565b611ed3565b9160010191611e92565b9190606460029104910191611e87565b60049193920491019138611e7c565b60089193920491019138611e6f565b60109193920491019138611e60565b60209193920491019138611e4e565b604093508104915038611e35565b818110611f7f575050565b60008155600101611f74565b60025490929160005b8281106121e7575060408051946001600160401b03918601828111878210176118d8576040528552602094858101928352600160401b8410156118d857611fe2600194858101600255611a85565b9190916121d15751908151908382116118d85785916120018254611ad5565b93601f948a8682116121a2575b5050899085831160011461213c576000919083612131575b5050600019600383901b1c191690831b1781555b0192519586519283116118d8576120518454611ad5565b8281116120f9575b508091831160011461209457508192939495600092612089575b5050600019600383901b1c191690831b17905590565b015190503880612073565b90601f198316968460005282600020926000905b8982106120e257505083869798969596106120c9575b505050811b01905590565b015160001960f88460031b161c191690553880806120be565b8088859682949686015181550195019301906120a8565b6121229085600052826000208480870160051c820192858810612128575b0160051c0190611f74565b38612059565b92508192612117565b015190503880612026565b90601f19831691846000528b6000209260005b8d82821061218c5750509084879594939210612173575b505050811b01815561203a565b015160001960f88460031b161c19169055388080612166565b8385015186558c9890950194938401930161214f565b6121ca918560005287826000209181870160051c8301938710612128570160051c0190611f74565b388a61200e565b634e487b7160e01b600052600060045260246000fd5b612202856121fd6121f784611a85565b50611b0f565b6135e2565b6122145761220f90611c9d565b611f94565b50600093505050565b6002549060005b8281106122415750505060405161223a81611909565b6000815290565b61226061224d82611a85565b506121fd61225a85613647565b91611b0f565b6122725761226d90611c9d565b612224565b6119b292506001915061228490611a85565b5001611b0f565b61229761229d91613647565b91613647565b6002549160005b8381106122b45750505050600090565b6122c96122c36121f783611a85565b836135e2565b806122e1575b611d5b576122dc90611c9d565b6122a4565b506122f96122f3600161228484611a85565b846135e2565b6122cf565b600854811015611abf576006906008600052027ff3f7a9fe364faab93b216da50a3214154f22a0a2b415b23a84c8169e8b636ee30190600090565b61234561058d82612743565b6000526009602052600261235d6040600020546122fe565b50015490565b1561236a57565b60405162461bcd60e51b815260206004820152601b60248201527f43544d5257413030313a20696e76616c696420746f6b656e20494400000000006044820152606490fd5b6123bb61058d82612743565b60005260096020526123d16040600020546122fe565b50600301546001600160a01b031690611b4d821515612363565b6123f761058d82612743565b6000526009602052600161235d6040600020546122fe565b602081830312611880578051906001600160401b038211611880570181601f8201121561188057805161244181611945565b9261244f6040519485611924565b81845260208284010111611880576119b29160208085019101611822565b91908201809211611cac57565b908151811015611abf570160200190565b1561249257565b60405162461bcd60e51b8152602060048201526024808201527f43544d5257413030313a20617070726f76616c20746f2063757272656e74206f6044820152633bb732b960e11b6064820152608490fd5b6124ef61058d82612743565b600052600760205260406000209060018060a01b031660005260205260406000205490565b6001600160a01b0316801561253457600052600a60205260406000205490565b60405162461bcd60e51b815260206004820152602d60248201527f43544d5257413030313a2062616c616e636520717565727920666f722074686560448201526c207a65726f206164647265737360981b6064820152608490fd5b1561259657565b60405162461bcd60e51b815260206004820152603460248201527f43544d5257413030313a207472616e736665722063616c6c6572206973206e6f6044820152731d081bdddb995c881b9bdc88185c1c1c9bdd995960621b6064820152608490fd5b9061261c93929161260c61111784336126c5565b6126178383836131a9565b6134d4565b1561262357565b60405162461bcd60e51b815260206004820152602960248201527f43544d5257413030313a207472616e7366657220746f206e6f6e20455243373260448201526818a932b1b2b4bb32b960b91b6064820152608490fd5b61268661058d82612743565b600052600960205261269c6040600020546122fe565b50600401546001600160a01b031690565b8054821015611abf5760005260206000200190600090565b906001600160a01b0380806126d9846123af565b1693169183831493841561270c575b5083156126f6575b50505090565b6127029192935061267a565b16143880806126f0565b909350600052600a60205260026040600020018260005260205260ff6040600020541692386126e8565b91908203918211611cac57565b60085415159081612752575090565b809150600052600960205261276b6040600020546122fe565b50541490565b6001600160a01b038082169594939186156129d55783156129845761279584612743565b61293f576040516127a581611909565b600092838252604051916127b8836118ee565b8683526020918284019387855260408101878152606082018d8152608083019189835260a08401958652600854978c8b52600988528860408c2055600160401b89101561292b576128106001998a81016008556122fe565b95909561291757906005959493929151855551898501555160028401558460038401915116906001600160601b0360a01b9182825416179055846004840192511690825416179055019151928351936001600160401b0385116129035781906128798686612c0d565b0192875280872091875b8581106128f05750505050505050611b4d95966128a1858093612a7b565b827fddf252ad1be2c89b69c2b068fc378daa952ba7f163c4a11628f55a4df523b3ef8180a4827fe4f48c240d3b994948aa54f3e2f5fca59263dfe1d52b6e4cf39a5d249b5ccb658280a4612a26565b8451821684820155938201938601612883565b634e487b7160e01b88526041600452602488fd5b634e487b7160e01b8c5260048c905260248cfd5b634e487b7160e01b8b52604160045260248bfd5b60405162461bcd60e51b815260206004820152601f60248201527f43544d5257413030313a20746f6b656e20616c7265616479206d696e746564006044820152606490fd5b60405162461bcd60e51b815260206004820152602360248201527f43544d5257413030313a2063616e6e6f74206d696e74207a65726f20746f6b656044820152621b925960ea1b6064820152608490fd5b60405162461bcd60e51b815260206004820152602360248201527f43544d5257413030313a206d696e7420746f20746865207a65726f206164647260448201526265737360e81b6064820152608490fd5b907f0b2aac84f3ec956911fd78eae5311062972ff949f38412e8da39069d9f068cc66020600092848452600982526002612a6360408620546122fe565b5001612a7082825461246d565b9055604051908152a3565b60009082825260096020526003612a9560408420546122fe565b500180546001600160a01b0319166001600160a01b039092169182179055808252600a602081815260408085208054878752600191909101835281862055928452528120805491600160401b831015612b16575081612afd916001611b4d95940181556126ad565b90919082549060031b91821b91600019901b1916179055565b634e487b7160e01b81526041600452602490fd5b60009082825260096020526003612b4460408420546122fe565b500180546001600160a01b03191690556001600160a01b03168152600a6020526040812080546000199391929190848101908111612bf957612b8690846126ad565b90549060031b1c6001840182845280602052604084205491612bac81612afd85896126ad565b8452602052604083205581528060408120558154908115612be55750820191612bd583836126ad565b909182549160031b1b1916905555565b634e487b7160e01b81526031600452602490fd5b634e487b7160e01b83526011600452602483fd5b90600160401b81116118d857815490808355818110612c2b57505050565b611b4d9260005260206000209182019101611f74565b8160005260096020526004612c5a6040600020546122fe565b500180546001600160a01b0319166001600160a01b0392831690811790915590612c83836123af565b167f8c5be1e5ebec7d5bd14f71427d1e84f3dd0314c0f7b2291e5b200ac8c7c3b925600080a4565b6001600160a01b038083169391928415612d8f5783612cc991612e81565b15612d17575b5060207f621b050de0ad08b51d19b48b3e6df75348c4de6bdd93e81b252ca62e28265b1b918360005260078252604060002085600052825280604060002055604051908152a3565b8260005260096020526005612d306040600020546122fe565b500191825491600160401b8310156118d857612d75837f621b050de0ad08b51d19b48b3e6df75348c4de6bdd93e81b252ca62e28265b1b9560016020960181556126ad565b819291549060031b9188831b921b19161790559150612ccf565b60405162461bcd60e51b815260206004820152602c60248201527f43544d5257413030313a20617070726f76652076616c756520746f207468652060448201526b7a65726f206164647265737360a01b6064820152608490fd5b60008181526020600981526040926005612e05858520546122fe565b500193845491845b838110612e43575050505082549180845582612e2a575b50505050565b612e3a9381522090810190611f74565b38808080612e24565b80612e51612e7c92896126ad565b90548489526007885285892060039290921b1c6001600160a01b031688528652838720879055611c9d565b612e0d565b6000908282526009602090808252604090612e9e828620546122fe565b509260058094015496865b888110612ebc5750505050505050905090565b818852838352612eda8187612ed3888c20546122fe565b50016126ad565b905460039190911b1c6001600160a01b0390811690881614612f0457612eff90611c9d565b612ea9565b505050505050505050600190565b612f1b81612743565b1561315257612f2982612743565b156130fd578060005260209260098452604092612f4984600020546122fe565b508160005260098652612f5f85600020546122fe565b509060028101908154908582106130a457600101546001840154036130475791600291612f9286612fe198979695612736565b905501612fa083825461246d565b905580837f0b2aac84f3ec956911fd78eae5311062972ff949f38412e8da39069d9f068cc6888851868152a3845192612fd884611909565b6000845261337b565b15612fea575050565b60849250519062461bcd60e51b82526004820152603160248201527f43544d5257413030313a207472616e736665722072656a65637465642062792060448201527021aa26a92ba0981818a932b1b2b4bb32b960791b6064820152fd5b865162461bcd60e51b815260048101899052603060248201527f43544d5257413030313a207472616e7366657220746f20746f6b656e2077697460448201526f1a08191a5999995c995b9d081cdb1bdd60821b6064820152608490fd5b875162461bcd60e51b8152600481018a9052602c60248201527f43544d5257413030313a20696e73756666696369656e742062616c616e63652060448201526b3337b9103a3930b739b332b960a11b6064820152608490fd5b60405162461bcd60e51b815260206004820152602760248201527f43544d5257413030313a207472616e7366657220746f20696e76616c696420746044820152661bdad95b88125160ca1b6064820152608490fd5b60405162461bcd60e51b815260206004820152602960248201527f43544d5257413030313a207472616e736665722066726f6d20696e76616c6964604482015268081d1bdad95b88125160ba1b6064820152608490fd5b6131b2836123af565b6001600160a01b03808316929181168390036132d757808416938415613282578561327e91613279827fddf252ad1be2c89b69c2b068fc378daa952ba7f163c4a11628f55a4df523b3ef96613206826123eb565b5061321082612339565b5081600080988282526009602052600461322d60408420546122fe565b500180546001600160a01b0319169055613246836123af565b167f8c5be1e5ebec7d5bd14f71427d1e84f3dd0314c0f7b2291e5b200ac8c7c3b9258280a461327482612de9565b612b2a565b612a7b565b80a4565b60405162461bcd60e51b815260206004820152602760248201527f43544d5257413030313a207472616e7366657220746f20746865207a65726f206044820152666164647265737360c81b6064820152608490fd5b60405162461bcd60e51b815260206004820152602660248201527f43544d5257413030313a207472616e736665722066726f6d20696e76616c69646044820152651037bbb732b960d11b6064820152608490fd5b9081602091031261188057516001600160e01b0319811681036118805790565b3d15613376573d9061335c82611945565b9161336a6040519384611924565b82523d6000602084013e565b606090565b929092613387846123af565b803b63ffffffff16156134ca576040516301ffc9a760e01b8152633abe4f5560e21b6004820181905295602095926001600160a01b0316918681602481865afa8091600091613494575b50906133ed5750505050505050506133e761334b565b50600190565b15613488576000869461342c604051978896879586948d865233600487015260248601526044850152606484015260a0608484015260a4830190611845565b03925af191821561347c5760009261344f575b50506001600160e01b0319161490565b61346e9250803d10613475575b6134668183611924565b81019061332b565b388061343f565b503d61345c565b6040513d6000823e3d90fd5b50505050505050600190565b8881813d83116134c3575b6134a98183611924565b8101031261023a57519081151582036105625750386133d1565b503d61349f565b5050505050600190565b9192813b63ffffffff1615611d5b5760209161352c916000604051958680958194630a85bd0160e11b9a8b845233600485015260018060a01b0380951660248501526044840152608060648401526084830190611845565b0393165af1600091816135c2575b506135b45761354761334b565b805190816135af5760405162461bcd60e51b815260206004820152603260248201527f4552433732313a207472616e7366657220746f206e6f6e20455243373231526560448201527131b2b4bb32b91034b6b83632b6b2b73a32b960711b6064820152608490fd5b602001fd5b6001600160e01b0319161490565b6135db91925060203d8111613475576134668183611924565b903861353a565b9060405191826135fe6020820192602084526040830190611845565b0392613612601f1994858101835282611924565b5190209161364060405191826136346020820195602087526040830190611845565b03908101835282611924565b5190201490565b90815161365381611945565b906136616040519283611924565b808252613670601f1991611945565b01602090368284013760005b84518110156137235761368f818661247a565b5190604160f892831c10158061370c575b156136e557826136b0828861247a565b51831c019160ff8311611cac576136e092901b6001600160f81b03191660001a6136da828661247a565b53611c9d565b61367c565b6136e091506001600160f81b03196136fd828861247a565b511660001a6136da828661247a565b50605a613719828861247a565b51831c11156136a0565b509092505056fea2646970667358221220925c57fc01a5e8e35c8ff6fec0c2793cf462c1afb392544033b1e3dc21a7dbe064736f6c63430008140033",
  "linkReferences": {},
  "deployedLinkReferences": {}
}