{
  "_format": "hh-sol-artifact-1",
  "contractName": "CTMRWA001Mintable",
  "sourceName": "contracts/CTMRWA001Mintable.sol",
  "abi": [
    {
      "inputs": [
        {
          "internalType": "string",
          "name": "name_",
          "type": "string"
        },
        {
          "internalType": "string",
          "name": "symbol_",
          "type": "string"
        },
        {
          "internalType": "uint8",
          "name": "decimals_",
          "type": "uint8"
        },
        {
          "internalType": "address",
          "name": "_ctmRwa001XChain",
          "type": "address"
        }
      ],
      "stateMutability": "nonpayable",
      "type": "constructor"
    },
    {
      "anonymous": false,
      "inputs": [
        {
          "indexed": true,
          "internalType": "address",
          "name": "_owner",
          "type": "address"
        },
        {
          "indexed": true,
          "internalType": "address",
          "name": "_approved",
          "type": "address"
        },
        {
          "indexed": true,
          "internalType": "uint256",
          "name": "_tokenId",
          "type": "uint256"
        }
      ],
      "name": "Approval",
      "type": "event"
    },
    {
      "anonymous": false,
      "inputs": [
        {
          "indexed": true,
          "internalType": "address",
          "name": "_owner",
          "type": "address"
        },
        {
          "indexed": true,
          "internalType": "address",
          "name": "_operator",
          "type": "address"
        },
        {
          "indexed": false,
          "internalType": "bool",
          "name": "_approved",
          "type": "bool"
        }
      ],
      "name": "ApprovalForAll",
      "type": "event"
    },
    {
      "anonymous": false,
      "inputs": [
        {
          "indexed": true,
          "internalType": "uint256",
          "name": "_tokenId",
          "type": "uint256"
        },
        {
          "indexed": true,
          "internalType": "address",
          "name": "_operator",
          "type": "address"
        },
        {
          "indexed": false,
          "internalType": "uint256",
          "name": "_value",
          "type": "uint256"
        }
      ],
      "name": "ApprovalValue",
      "type": "event"
    },
    {
      "anonymous": false,
      "inputs": [
        {
          "indexed": true,
          "internalType": "address",
          "name": "metadataDescriptor",
          "type": "address"
        }
      ],
      "name": "SetMetadataDescriptor",
      "type": "event"
    },
    {
      "anonymous": false,
      "inputs": [
        {
          "indexed": true,
          "internalType": "uint256",
          "name": "_tokenId",
          "type": "uint256"
        },
        {
          "indexed": true,
          "internalType": "uint256",
          "name": "_oldSlot",
          "type": "uint256"
        },
        {
          "indexed": true,
          "internalType": "uint256",
          "name": "_newSlot",
          "type": "uint256"
        }
      ],
      "name": "SlotChanged",
      "type": "event"
    },
    {
      "anonymous": false,
      "inputs": [
        {
          "indexed": true,
          "internalType": "address",
          "name": "_from",
          "type": "address"
        },
        {
          "indexed": true,
          "internalType": "address",
          "name": "_to",
          "type": "address"
        },
        {
          "indexed": true,
          "internalType": "uint256",
          "name": "_tokenId",
          "type": "uint256"
        }
      ],
      "name": "Transfer",
      "type": "event"
    },
    {
      "anonymous": false,
      "inputs": [
        {
          "indexed": true,
          "internalType": "uint256",
          "name": "_fromTokenId",
          "type": "uint256"
        },
        {
          "indexed": true,
          "internalType": "uint256",
          "name": "_toTokenId",
          "type": "uint256"
        },
        {
          "indexed": false,
          "internalType": "uint256",
          "name": "_value",
          "type": "uint256"
        }
      ],
      "name": "TransferValue",
      "type": "event"
    },
    {
      "inputs": [
        {
          "internalType": "address",
          "name": "_admin",
          "type": "address"
        },
        {
          "internalType": "string[]",
          "name": "_chainIdsStr",
          "type": "string[]"
        },
        {
          "internalType": "string[]",
          "name": "_contractAddrsStr",
          "type": "string[]"
        }
      ],
      "name": "addXTokenInfo",
      "outputs": [
        {
          "internalType": "bool",
          "name": "",
          "type": "bool"
        }
      ],
      "stateMutability": "nonpayable",
      "type": "function"
    },
    {
      "inputs": [],
      "name": "admin",
      "outputs": [
        {
          "internalType": "address",
          "name": "",
          "type": "address"
        }
      ],
      "stateMutability": "view",
      "type": "function"
    },
    {
      "inputs": [
        {
          "internalType": "uint256",
          "name": "tokenId_",
          "type": "uint256"
        },
        {
          "internalType": "address",
          "name": "operator_",
          "type": "address"
        }
      ],
      "name": "allowance",
      "outputs": [
        {
          "internalType": "uint256",
          "name": "",
          "type": "uint256"
        }
      ],
      "stateMutability": "view",
      "type": "function"
    },
    {
      "inputs": [
        {
          "internalType": "address",
          "name": "to_",
          "type": "address"
        },
        {
          "internalType": "uint256",
          "name": "tokenId_",
          "type": "uint256"
        }
      ],
      "name": "approve",
      "outputs": [],
      "stateMutability": "payable",
      "type": "function"
    },
    {
      "inputs": [
        {
          "internalType": "uint256",
          "name": "tokenId_",
          "type": "uint256"
        },
        {
          "internalType": "address",
          "name": "to_",
          "type": "address"
        },
        {
          "internalType": "uint256",
          "name": "value_",
          "type": "uint256"
        }
      ],
      "name": "approve",
      "outputs": [],
      "stateMutability": "payable",
      "type": "function"
    },
    {
      "inputs": [
        {
          "internalType": "address",
          "name": "to_",
          "type": "address"
        },
        {
          "internalType": "uint256",
          "name": "tokenId_",
          "type": "uint256"
        }
      ],
      "name": "approveFromX",
      "outputs": [],
      "stateMutability": "nonpayable",
      "type": "function"
    },
    {
      "inputs": [
        {
          "internalType": "address",
          "name": "owner_",
          "type": "address"
        }
      ],
      "name": "balanceOf",
      "outputs": [
        {
          "internalType": "uint256",
          "name": "balance",
          "type": "uint256"
        }
      ],
      "stateMutability": "view",
      "type": "function"
    },
    {
      "inputs": [
        {
          "internalType": "uint256",
          "name": "tokenId_",
          "type": "uint256"
        }
      ],
      "name": "balanceOf",
      "outputs": [
        {
          "internalType": "uint256",
          "name": "",
          "type": "uint256"
        }
      ],
      "stateMutability": "view",
      "type": "function"
    },
    {
      "inputs": [
        {
          "internalType": "uint256",
          "name": "fromTokenId_",
          "type": "uint256"
        },
        {
          "internalType": "uint256",
          "name": "value_",
          "type": "uint256"
        }
      ],
      "name": "burnValueX",
      "outputs": [
        {
          "internalType": "bool",
          "name": "",
          "type": "bool"
        }
      ],
      "stateMutability": "nonpayable",
      "type": "function"
    },
    {
      "inputs": [
        {
          "internalType": "address",
          "name": "_admin",
          "type": "address"
        }
      ],
      "name": "changeAdmin",
      "outputs": [
        {
          "internalType": "bool",
          "name": "",
          "type": "bool"
        }
      ],
      "stateMutability": "nonpayable",
      "type": "function"
    },
    {
      "inputs": [
        {
          "internalType": "address",
          "name": "_admin",
          "type": "address"
        }
      ],
      "name": "changeAdminX",
      "outputs": [
        {
          "internalType": "bool",
          "name": "",
          "type": "bool"
        }
      ],
      "stateMutability": "nonpayable",
      "type": "function"
    },
    {
      "inputs": [
        {
          "internalType": "string",
          "name": "_otherChainIdStr",
          "type": "string"
        },
        {
          "internalType": "string",
          "name": "_otherContractStr",
          "type": "string"
        }
      ],
      "name": "checkTokenCompatibility",
      "outputs": [
        {
          "internalType": "bool",
          "name": "",
          "type": "bool"
        }
      ],
      "stateMutability": "view",
      "type": "function"
    },
    {
      "inputs": [
        {
          "internalType": "uint256",
          "name": "tokenId_",
          "type": "uint256"
        }
      ],
      "name": "clearApprovedValues",
      "outputs": [],
      "stateMutability": "nonpayable",
      "type": "function"
    },
    {
      "inputs": [],
      "name": "contractURI",
      "outputs": [
        {
          "internalType": "string",
          "name": "",
          "type": "string"
        }
      ],
      "stateMutability": "view",
      "type": "function"
    },
    {
      "inputs": [],
      "name": "ctmRwa001XChain",
      "outputs": [
        {
          "internalType": "address",
          "name": "",
          "type": "address"
        }
      ],
      "stateMutability": "view",
      "type": "function"
    },
    {
      "inputs": [
        {
          "internalType": "uint256",
          "name": "tokenId_",
          "type": "uint256"
        }
      ],
      "name": "getApproved",
      "outputs": [
        {
          "internalType": "address",
          "name": "",
          "type": "address"
        }
      ],
      "stateMutability": "view",
      "type": "function"
    },
    {
      "inputs": [
        {
          "internalType": "string",
          "name": "_chainIdStr",
          "type": "string"
        }
      ],
      "name": "getTokenContract",
      "outputs": [
        {
          "internalType": "string",
          "name": "",
          "type": "string"
        }
      ],
      "stateMutability": "view",
      "type": "function"
    },
    {
      "inputs": [
        {
          "internalType": "uint256",
          "name": "tokenId_",
          "type": "uint256"
        }
      ],
      "name": "getTokenInfo",
      "outputs": [
        {
          "internalType": "uint256",
          "name": "",
          "type": "uint256"
        },
        {
          "internalType": "uint256",
          "name": "",
          "type": "uint256"
        },
        {
          "internalType": "address",
          "name": "",
          "type": "address"
        },
        {
          "internalType": "uint256",
          "name": "",
          "type": "uint256"
        }
      ],
      "stateMutability": "view",
      "type": "function"
    },
    {
      "inputs": [
        {
          "internalType": "uint256",
          "name": "tokenId_",
          "type": "uint256"
        }
      ],
      "name": "idOf",
      "outputs": [
        {
          "internalType": "uint256",
          "name": "",
          "type": "uint256"
        }
      ],
      "stateMutability": "view",
      "type": "function"
    },
    {
      "inputs": [
        {
          "internalType": "address",
          "name": "owner_",
          "type": "address"
        },
        {
          "internalType": "address",
          "name": "operator_",
          "type": "address"
        }
      ],
      "name": "isApprovedForAll",
      "outputs": [
        {
          "internalType": "bool",
          "name": "",
          "type": "bool"
        }
      ],
      "stateMutability": "view",
      "type": "function"
    },
    {
      "inputs": [
        {
          "internalType": "address",
          "name": "operator_",
          "type": "address"
        },
        {
          "internalType": "uint256",
          "name": "tokenId_",
          "type": "uint256"
        }
      ],
      "name": "isApprovedOrOwner",
      "outputs": [
        {
          "internalType": "bool",
          "name": "",
          "type": "bool"
        }
      ],
      "stateMutability": "view",
      "type": "function"
    },
    {
      "inputs": [],
      "name": "metadataDescriptor",
      "outputs": [
        {
          "internalType": "contract ICTMRWA001MetadataDescriptor",
          "name": "",
          "type": "address"
        }
      ],
      "stateMutability": "view",
      "type": "function"
    },
    {
      "inputs": [
        {
          "internalType": "address",
          "name": "mintTo_",
          "type": "address"
        },
        {
          "internalType": "uint256",
          "name": "tokenId_",
          "type": "uint256"
        },
        {
          "internalType": "uint256",
          "name": "slot_",
          "type": "uint256"
        },
        {
          "internalType": "uint256",
          "name": "value_",
          "type": "uint256"
        }
      ],
      "name": "mint",
      "outputs": [],
      "stateMutability": "nonpayable",
      "type": "function"
    },
    {
      "inputs": [
        {
          "internalType": "address",
          "name": "to_",
          "type": "address"
        },
        {
          "internalType": "uint256",
          "name": "tokenId_",
          "type": "uint256"
        },
        {
          "internalType": "uint256",
          "name": "slot_",
          "type": "uint256"
        },
        {
          "internalType": "uint256",
          "name": "value_",
          "type": "uint256"
        }
      ],
      "name": "mintFromX",
      "outputs": [],
      "stateMutability": "nonpayable",
      "type": "function"
    },
    {
      "inputs": [
        {
          "internalType": "address",
          "name": "to_",
          "type": "address"
        },
        {
          "internalType": "uint256",
          "name": "slot_",
          "type": "uint256"
        },
        {
          "internalType": "uint256",
          "name": "value_",
          "type": "uint256"
        }
      ],
      "name": "mintFromX",
      "outputs": [
        {
          "internalType": "uint256",
          "name": "tokenId",
          "type": "uint256"
        }
      ],
      "stateMutability": "nonpayable",
      "type": "function"
    },
    {
      "inputs": [
        {
          "internalType": "uint256",
          "name": "tokenId_",
          "type": "uint256"
        },
        {
          "internalType": "uint256",
          "name": "value_",
          "type": "uint256"
        }
      ],
      "name": "mintValue",
      "outputs": [],
      "stateMutability": "nonpayable",
      "type": "function"
    },
    {
      "inputs": [
        {
          "internalType": "uint256",
          "name": "toTokenId_",
          "type": "uint256"
        },
        {
          "internalType": "uint256",
          "name": "slot_",
          "type": "uint256"
        },
        {
          "internalType": "uint256",
          "name": "value_",
          "type": "uint256"
        }
      ],
      "name": "mintValueX",
      "outputs": [
        {
          "internalType": "bool",
          "name": "",
          "type": "bool"
        }
      ],
      "stateMutability": "nonpayable",
      "type": "function"
    },
    {
      "inputs": [],
      "name": "name",
      "outputs": [
        {
          "internalType": "string",
          "name": "",
          "type": "string"
        }
      ],
      "stateMutability": "view",
      "type": "function"
    },
    {
      "inputs": [
        {
          "internalType": "uint256",
          "name": "tokenId_",
          "type": "uint256"
        }
      ],
      "name": "ownerOf",
      "outputs": [
        {
          "internalType": "address",
          "name": "owner_",
          "type": "address"
        }
      ],
      "stateMutability": "view",
      "type": "function"
    },
    {
      "inputs": [
        {
          "internalType": "address",
          "name": "from_",
          "type": "address"
        },
        {
          "internalType": "uint256",
          "name": "tokenId_",
          "type": "uint256"
        }
      ],
      "name": "removeTokenFromOwnerEnumeration",
      "outputs": [],
      "stateMutability": "nonpayable",
      "type": "function"
    },
    {
      "inputs": [
        {
          "internalType": "address",
          "name": "from_",
          "type": "address"
        },
        {
          "internalType": "address",
          "name": "to_",
          "type": "address"
        },
        {
          "internalType": "uint256",
          "name": "tokenId_",
          "type": "uint256"
        }
      ],
      "name": "safeTransferFrom",
      "outputs": [],
      "stateMutability": "payable",
      "type": "function"
    },
    {
      "inputs": [
        {
          "internalType": "address",
          "name": "from_",
          "type": "address"
        },
        {
          "internalType": "address",
          "name": "to_",
          "type": "address"
        },
        {
          "internalType": "uint256",
          "name": "tokenId_",
          "type": "uint256"
        },
        {
          "internalType": "bytes",
          "name": "data_",
          "type": "bytes"
        }
      ],
      "name": "safeTransferFrom",
      "outputs": [],
      "stateMutability": "payable",
      "type": "function"
    },
    {
      "inputs": [
        {
          "internalType": "address",
          "name": "operator_",
          "type": "address"
        },
        {
          "internalType": "bool",
          "name": "approved_",
          "type": "bool"
        }
      ],
      "name": "setApprovalForAll",
      "outputs": [],
      "stateMutability": "nonpayable",
      "type": "function"
    },
    {
      "inputs": [
        {
          "internalType": "uint256",
          "name": "tokenId_",
          "type": "uint256"
        }
      ],
      "name": "slotOf",
      "outputs": [
        {
          "internalType": "uint256",
          "name": "",
          "type": "uint256"
        }
      ],
      "stateMutability": "view",
      "type": "function"
    },
    {
      "inputs": [
        {
          "internalType": "uint256",
          "name": "slot_",
          "type": "uint256"
        }
      ],
      "name": "slotURI",
      "outputs": [
        {
          "internalType": "string",
          "name": "",
          "type": "string"
        }
      ],
      "stateMutability": "view",
      "type": "function"
    },
    {
      "inputs": [
        {
          "internalType": "address",
          "name": "operator_",
          "type": "address"
        },
        {
          "internalType": "uint256",
          "name": "tokenId_",
          "type": "uint256"
        },
        {
          "internalType": "uint256",
          "name": "value_",
          "type": "uint256"
        }
      ],
      "name": "spendAllowance",
      "outputs": [],
      "stateMutability": "nonpayable",
      "type": "function"
    },
    {
      "inputs": [
        {
          "internalType": "string",
          "name": "a",
          "type": "string"
        },
        {
          "internalType": "string",
          "name": "b",
          "type": "string"
        }
      ],
      "name": "stringsEqual",
      "outputs": [
        {
          "internalType": "bool",
          "name": "",
          "type": "bool"
        }
      ],
      "stateMutability": "pure",
      "type": "function"
    },
    {
      "inputs": [
        {
          "internalType": "bytes4",
          "name": "interfaceId",
          "type": "bytes4"
        }
      ],
      "name": "supportsInterface",
      "outputs": [
        {
          "internalType": "bool",
          "name": "",
          "type": "bool"
        }
      ],
      "stateMutability": "view",
      "type": "function"
    },
    {
      "inputs": [],
      "name": "symbol",
      "outputs": [
        {
          "internalType": "string",
          "name": "",
          "type": "string"
        }
      ],
      "stateMutability": "view",
      "type": "function"
    },
    {
      "inputs": [
        {
          "internalType": "uint256",
          "name": "index_",
          "type": "uint256"
        }
      ],
      "name": "tokenByIndex",
      "outputs": [
        {
          "internalType": "uint256",
          "name": "",
          "type": "uint256"
        }
      ],
      "stateMutability": "view",
      "type": "function"
    },
    {
      "inputs": [
        {
          "internalType": "uint256",
          "name": "",
          "type": "uint256"
        }
      ],
      "name": "tokenContract",
      "outputs": [
        {
          "internalType": "string",
          "name": "chainIdStr",
          "type": "string"
        },
        {
          "internalType": "string",
          "name": "contractStr",
          "type": "string"
        }
      ],
      "stateMutability": "view",
      "type": "function"
    },
    {
      "inputs": [
        {
          "internalType": "address",
          "name": "owner_",
          "type": "address"
        },
        {
          "internalType": "uint256",
          "name": "index_",
          "type": "uint256"
        }
      ],
      "name": "tokenOfOwnerByIndex",
      "outputs": [
        {
          "internalType": "uint256",
          "name": "",
          "type": "uint256"
        }
      ],
      "stateMutability": "view",
      "type": "function"
    },
    {
      "inputs": [
        {
          "internalType": "uint256",
          "name": "tokenId_",
          "type": "uint256"
        }
      ],
      "name": "tokenURI",
      "outputs": [
        {
          "internalType": "string",
          "name": "",
          "type": "string"
        }
      ],
      "stateMutability": "view",
      "type": "function"
    },
    {
      "inputs": [],
      "name": "totalSupply",
      "outputs": [
        {
          "internalType": "uint256",
          "name": "",
          "type": "uint256"
        }
      ],
      "stateMutability": "view",
      "type": "function"
    },
    {
      "inputs": [
        {
          "internalType": "uint256",
          "name": "fromTokenId_",
          "type": "uint256"
        },
        {
          "internalType": "address",
          "name": "to_",
          "type": "address"
        },
        {
          "internalType": "uint256",
          "name": "value_",
          "type": "uint256"
        }
      ],
      "name": "transferFrom",
      "outputs": [
        {
          "internalType": "uint256",
          "name": "newTokenId",
          "type": "uint256"
        }
      ],
      "stateMutability": "payable",
      "type": "function"
    },
    {
      "inputs": [
        {
          "internalType": "address",
          "name": "from_",
          "type": "address"
        },
        {
          "internalType": "address",
          "name": "to_",
          "type": "address"
        },
        {
          "internalType": "uint256",
          "name": "tokenId_",
          "type": "uint256"
        }
      ],
      "name": "transferFrom",
      "outputs": [],
      "stateMutability": "payable",
      "type": "function"
    },
    {
      "inputs": [
        {
          "internalType": "uint256",
          "name": "fromTokenId_",
          "type": "uint256"
        },
        {
          "internalType": "uint256",
          "name": "toTokenId_",
          "type": "uint256"
        },
        {
          "internalType": "uint256",
          "name": "value_",
          "type": "uint256"
        }
      ],
      "name": "transferFrom",
      "outputs": [],
      "stateMutability": "payable",
      "type": "function"
    },
    {
      "inputs": [],
      "name": "valueDecimals",
      "outputs": [
        {
          "internalType": "uint8",
          "name": "",
          "type": "uint8"
        }
      ],
      "stateMutability": "view",
      "type": "function"
    }
  ],
  "bytecode": "0x60806040818152346200070457620045d5803803809162000021828662000709565b8439820190608083830312620007045782516001600160401b03908181116200070457836200005291860162000784565b92602090818601519083821162000704576200007091870162000784565b94838101519260ff918285168095036200070457606001516001600160a01b0381169290839003620007045760018060a01b031993600093338686541617855560019586600655895197858911620006f05760039880620000d28b54620007d1565b601f9d818f80931162000691575b50879183116001146200062e578a9262000622575b5050600019828c1b1c191690891b1789555b8b518681116200060e5760049b620001208d54620007d1565b818111620005ca575b508c9d8c9d8a9d9c9d50879284116001146200053d57509b8291620002329d8b9362000531575b5050828b1b92600019911b1c1916178c555b60ff196005541617600555865416178555468086867a184f03e93ff9f4daa797ed6e38ed64bf6a1f0100000000000000008084101562000520575b50846d04ee2d6d415b85acef81000000008086101562000513575b5050662386f26fc100008085101562000505575b506305f5e10080851015620004f7575b508c61271080861015620004ea575b50506064841015620004db575b60219082600a80961015620004d3575b810162000223620002198262000743565b9c519c8d62000709565b808c52601f199c8d9162000743565b0136878d01378a0101905b620004a2575b505050308851936060850190858210908211176200048f578952602a8452818401893682378451156200047c5760309053835186101562000469576078602185015360295b868111620003fd5750620003bc57825196620002c0620002a88962000743565b98620002b78b519a8b62000709565b808a5262000743565b01368289013783855b620002eb575b88620002dc89896200087c565b5051613947908162000c8e8239f35b8351811015620003b6576200030181856200080e565b51604160f891821c1015806200039c575b156200037157826200032583876200080e565b51821c018481116200035e576200035792911b6001600160f81b031916861a62000350828b6200080e565b5362000836565b85620002c9565b634e487b7160e01b875260118c52602487fd5b5062000357906001600160f81b03196200038c82876200080e565b5116861a62000350828b6200080e565b50605a620003ab83876200080e565b51821c111562000312565b620002cf565b88816064928a519262461bcd60e51b845283015260248201527f537472696e67733a20686578206c656e67746820696e73756666696369656e746044820152fd5b90600f8116601081101562000456576f181899199a1a9b1b9c1cb0b131b232b360811b901a6200042e83876200080e565b538a1c90801562000443576000190162000288565b634e487b7160e01b865260118b52602486fd5b634e487b7160e01b875260328c52602487fd5b634e487b7160e01b855260328a52602485fd5b634e487b7160e01b865260328b52602486fd5b634e487b7160e01b865260418b52602486fd5b600019019082906f181899199a1a9b1b9c1cb0b131b232b360811b8282061a8353049087826200023d575062000243565b018262000208565b606490930492600201620001f8565b90940493018c38620001eb565b6008919404930138620001dc565b6010919404930138620001cc565b90940493018438620001b8565b92935050508104908688386200019d565b01519150388062000150565b8a52868a20929c9190601f198e168b5b818110620005935750918e9391620002329f8e96941062000578575b50505050811b018c5562000162565b01519060f884600019921b161c191690553880808062000569565b93948d9f97999b9d8497999b9d9f508c92939491839286015181550196019301908f9d9b999795949392919e9c9a98969e6200054d565b8d8a52868a208280850160051c82019289861062000604575b0160051c01905b818110620005f9575062000129565b8a81558b01620005ea565b92508192620005e3565b634e487b7160e01b88526041600452602488fd5b015190503880620000f5565b8c8b52878b208c94509190601f1984168c5b8a8282106200067a575050841162000661575b505050811b01895562000107565b0151600019838e1b60f8161c1916905538808062000653565b8385015186558f9790950194938401930162000640565b915091508b8a528d878b209080850160051c820192898610620006e6575b859492828f929593950160051c01915b828110620006cf575050620000e0565b8d91939550809294505501918e918c8594620006bf565b92508192620006af565b634e487b7160e01b87526041600452602487fd5b600080fd5b601f909101601f19168101906001600160401b038211908210176200072d57604052565b634e487b7160e01b600052604160045260246000fd5b6001600160401b0381116200072d57601f01601f191660200190565b60005b838110620007735750506000910152565b818101518382015260200162000762565b81601f82011215620007045780516200079d8162000743565b92620007ad604051948562000709565b818452602082840101116200070457620007ce91602080850191016200075f565b90565b90600182811c9216801562000803575b6020831014620007ed57565b634e487b7160e01b600052602260045260246000fd5b91607f1691620007e1565b90815181101562000820570160200190565b634e487b7160e01b600052603260045260246000fd5b6000198114620008465760010190565b634e487b7160e01b600052601160045260246000fd5b6002548110156200082057600260005260206000209060011b0190600090565b60025490929160005b82811062000b31575060408051946001600160401b03918601828111878210176200072d576040528552602094858101928352680100000000000000008410156200072d57620008dd6001948581016002556200085c565b91909162000b1b5751908151908382116200072d578591620009008254620007d1565b93601f9485811162000ac6575b50899085831160011462000a5b57600091908362000a4f575b5050600019600383901b1c191690831b1781555b0192519586519283116200072d57620009548454620007d1565b82811162000a04575b50809183116001146200099b575081929394956000926200098f575b5050600019600383901b1c191690831b17905590565b01519050388062000979565b90601f198316968460005282600020926000905b898210620009ec5750508386979896959610620009d2575b505050811b01905590565b015160001960f88460031b161c19169055388080620009c7565b808885968294968601518155019501930190620009af565b84600052816000208380860160051c82019284871062000a45575b0160051c019086905b82811062000a385750506200095d565b6000815501869062000a28565b9250819262000a1f565b01519050388062000926565b90601f19831691846000528b6000209260005b8d82821062000aaf575050908487959493921062000a95575b505050811b0181556200093a565b015160001960f88460031b161c1916905538808062000a87565b8385015186558c9890950194938401930162000a6e565b909192809450600052896000208580850160051c8201928c861062000b11575b908a9695949392910160051c01905b81811062000b0457506200090d565b6000815589950162000af5565b9250819262000ae6565b634e487b7160e01b600052600060045260246000fd5b62000b3c816200085c565b50604090815190816000825462000b5381620007d1565b8084529360019180831690811562000c3a575060011462000bf5575b505062000b7f9250038262000709565b81519062000bd26020918362000b99848201928362000c5f565b039362000baf601f199586810183528262000709565b5190209351918201928262000bc58b8662000c5f565b0390810183528262000709565b5190201462000bec5762000be69062000836565b62000885565b50600093505050565b90915060005260209283600020916000925b82841062000c23575050509162000b7f92820101388062000b6f565b805487850187015286945092850192810162000c07565b935050505062000b7f9260209160ff191682840152151560051b820101388062000b6f565b6040916020825262000c8181518092816020860152602086860191016200075f565b601f01601f191601019056fe608060408181526004918236101561001657600080fd5b600092833560e01c91826301ffc9a71461190e5750816306fdde031461183b5781630752175414611809578163081812fc146117e9578163095ea7b31461170757816309c3dd87146116795781630f485c02146112fb57816313d19950146112df57816315c77d841461120a57816318160ddd146111eb57816323b872dd146111c6578163263f3e7e146111a65781632f745c59146110fc578163310ed7f014611080578163381c4fce146110305781633e7e86691461100e578163404b6e9f14610fd457816342842e0e14610fb1578163430c208114610f73578163449d077214610ebb57816349178b2514610e4b5781634f6ccce714610dcc578163582939e514610d9c5781636352211e14610d6b57816370a0823114610d4557816378330ea014610cef578163840f711314610cc65781638c7a63ae14610c275781638cb0a51114610b7d5781638f28397014610ad757816395d89b4114610a02578163968e8a13146109c85781639c0e9a5d146109ac5781639cc7f7081461098c578163a22cb465146108bd578163a30fb02014610858578163a647e8ec1461083d578163a6a2d1dd146107be578163b3875b9514610795578163b88d4fde14610736578163bff2ed71146106eb578163c87b56dd146105c0578163dee9f53f1461057d578163e345e0bc1461054e578163e8a3d485146102e157508063e985e9c514610291578063f0e88e7f1461025f5763f851a4401461023557600080fd5b3461025b578160031936011261025b57905490516001600160a01b039091168152602090f35b5080fd5b823461028e5761028b61027136611c10565b9061027b8161257e565b50610285816125ba565b50612bf5565b80f35b80fd5b503461025b578060031936011261025b5760ff816020936102b0611a09565b6102b8611a24565b6001600160a01b039182168352600a875283832091168252600201855220549151911615158152f35b90503461054a578260031936011261054a5781516102fe81611aa8565b838152600b546001600160a01b031690811561038457508390835192838092631c97e82760e21b82525afa90811561037857836103519492610355575b5050905b519182916020835260208301906119e4565b0390f35b61037192503d8091833e6103698183611ac3565b8101906125de565b388061033b565b505051903d90823e3d90fd5b9293919050811561052f5783513091606082016001600160401b0381118382101761051a578652602a8252602092838301948736873783511561050757603086538351906001918210156104f45790607860218601536029915b818311610489575050506104485750849368636f6e74726163742f60b81b9361044293610433602994610351995197856104218a9751809287808b0191016119c1565b860193840152518093868401906119c1565b01036009810184520182611ac3565b9061033f565b606490838088519262461bcd60e51b845283015260248201527f537472696e67733a20686578206c656e67746820696e73756666696369656e746044820152fd5b909192600f811660108110156104e1576f181899199a1a9b1b9c1cb0b131b232b360811b901a6104b98588612649565b53841c9280156104ce576000190191906103de565b634e487b7160e01b825260118552602482fd5b634e487b7160e01b835260328652602483fd5b634e487b7160e01b815260328452602490fd5b634e487b7160e01b815260328352602490fd5b604182634e487b7160e01b6000525260246000fd5b50505080610351915161054181611aa8565b60008152610442565b8280fd5b82843461028e578160031936011261028e575061057660209261056f611a24565b90356126b2565b9051908152f35b90503461054a57602036600319011261054a57816020936105b792356105aa6105a582612912565b612532565b81526009855220546124cd565b50549051908152f35b90503461054a57602090816003193601126106e75780356105e36105a582612912565b8351916105ef83611aa8565b858352600b546001600160a01b031692831561067057509060248692865194859384926344a5a61760e11b84528301525afa908115610663578461035193949592610648575b5050925b519282849384528301906119e4565b61065c92503d8091833e6103698183611ac3565b3880610635565b50505051903d90823e3d90fd5b92505084839495506000146106cd576103519261068f6106c792611fdb565b92865193816106a786935180928680870191016119c1565b82016106bb825180938680850191016119c1565b01038084520182611ac3565b92610639565b50505061035182516106de81611aa8565b600081526106c7565b8380fd5b82843461028e5760206107308361070136611be6565b9061071a60018060a09795971b03600154163314611e07565b600654809561072882611e6c565b600655612940565b51908152f35b8390608036600319011261025b5761074c611a09565b610754611a24565b906064356001600160401b03811161079157366023820112156107915761028b9381602461078793369301359101611aff565b91604435916127c7565b8480fd5b50503461025b578160031936011261025b5760015490516001600160a01b039091168152602090f35b82843461028e57606036600319011261028e576107d9611a09565b926001600160401b036024358181116106e7576107f99036908401611d84565b9260443591821161028e5750916108196020959261083494369101611d84565b9161082f60018060a01b03600154163314611e07565b611ea5565b90519015158152f35b833461028e5761028b61084f36611c26565b92919091612940565b8391503461025b57602036600319011261025b57359060025482101561028e575061088290611c54565b509061035161089c600161089585611cde565b9401611cde565b6108af83519484869586528501906119e4565b9083820360208501526119e4565b9190503461054a578060031936011261054a576108d8611a09565b9060243591821515809303610791576001600160a01b03169233841461094a5750338452600a60205260028185200183855260205280842060ff1981541660ff8416179055519081527f17307eab39ab6107e8899845ad3d59bd9653f200f220920489ca2b5937696c3160203392a380f35b6020606492519162461bcd60e51b8352820152601c60248201527f43544d5257413030313a20617070726f766520746f2063616c6c6572000000006044820152fd5b82843461028e57602036600319011261028e575061057660209235612508565b50503461025b576020906108346109c236611b54565b9061245a565b50503461025b5736600319011261028e5761028b6109e4611a09565b6109f960018060a01b03600154163314611e07565b60243590612e10565b9190503461054a578260031936011261054a5780519183815490610a2582611ca4565b80865292600192808416908115610aac5750600114610a50575b610351868661033f828b0383611ac3565b815294507f8a35acfbc15ff81a39ae7d344fd709f28e8600b4aa8c65c6b64bfe7fe36bd19b5b828610610a945750505061033f826020610351958201019438610a3f565b80546020878701810191909152909501948101610a76565b905061035197508693506020925061033f94915060ff191682840152151560051b8201019438610a3f565b8391503461025b57602036600319011261025b57610af3611a09565b91546001600160a01b03163303610b2957600080546001600160a01b0319166001600160a01b0384161790556020836001610834565b608490602084519162461bcd60e51b8352820152602860248201527f43544d5257413030313a205468697320697320616e206f6e6c7941646d696e20604482015267333ab731ba34b7b760c11b6064820152fd5b839150610b8936611a3a565b92909190610bad6001600160a01b0380610ba28561257e565b16908516141561265a565b610bb78233612894565b15610bc8575061028b939450612e7a565b608490602087519162461bcd60e51b8352820152603360248201527f43544d5257413030313a20617070726f76652063616c6c6572206973206e6f74604482015272081bdddb995c881b9bdc88185c1c1c9bdd9959606a1b6064820152fd5b83833461025b576020908160031936011261054a576080933590610c4d6105a583612912565b81845260098352610c60818520546124cd565b505493828152600984526001610cb0836002610c7e828620546124cd565b5001549386815260098852610c95828220546124cd565b506003858060a01b03910154169681526009885220546124cd565b5001549382519586528501528301526060820152f35b50503461025b578160031936011261025b57600b5490516001600160a01b039091168152602090f35b50503461025b57602036600319011261025b57602090610834610d10611a09565b610d2560018060a01b03600154163314611e07565b60018060a01b03166001600160601b0360a01b6000541617600055600190565b50503461025b57602036600319011261025b57602090610576610d66611a09565b6126e3565b82843461028e57602036600319011261028e5750610d8b6020923561257e565b90516001600160a01b039091168152f35b833461028e5761028b610dae36611c26565b92610dc760018060a09594951b03600154163314611e07565b612940565b9050823461028e57602036600319011261028e5750803590600854821015610dfa576020836105b7846124cd565b608490602084519162461bcd60e51b8352820152602560248201527f43544d5257413030313a20676c6f62616c20696e646578206f7574206f6620626044820152646f756e647360d81b6064820152fd5b50503461025b57602091610eb26002610e9c84610e6736611c10565b9590610e7e60018060a01b03600154163314611e07565b610e8f610e8a82612912565b6130e1565b81526009885220546124cd565b5001918254610ead8282101561319b565b612905565b90555160018152f35b8391503461025b57610ecc36611be6565b9092610ed883856126b2565b90610ee38585612894565b1580610f67575b610ef2578580f35b828210610f1a5750610f1094955090610f0a91612905565b91612e7a565b8082808080808580f35b608490602088519162461bcd60e51b8352820152602160248201527f43544d5257413030313a20696e73756666696369656e7420616c6c6f77616e636044820152606560f81b6064820152fd5b50600019821415610eea565b50503461025b578060031936011261025b57602090610834610f93611a09565b610fa860018060a01b03600154163314611e07565b60243590612894565b8361028b84610fbf36611bb1565b91925192610fcc84611aa8565b8584526127c7565b50503461025b5736600319011261028e5761028b610ff0611a09565b61100560018060a01b03600154163314611e07565b60243590612cf9565b50503461025b578160031936011261025b5760209060ff600554169051908152f35b82843461028e57602036600319011261028e578235906001600160401b03821161028e57506110686103519361106d92369101611b36565b6123ec565b90519182916020835260208301906119e4565b838361108b36611b97565b92909194303b1561079157815163224e83b960e11b81523391810191825260208201879052604082018590529190859083908190606001038183305af19081156110f357506110e0575b5061028b92936131fc565b926110ed61028b94611a64565b926110d5565b513d86823e3d90fd5b9050823461028e578260031936011261028e57611117611a09565b60243592611124826126e3565b841015611157576020856111498682878760018060a01b03168152600a86522061287c565b91905490519160031b1c8152f35b608490602086519162461bcd60e51b83528201526024808201527f43544d5257413030313a206f776e657220696e646578206f7574206f6620626f604482015263756e647360e01b6064820152fd5b82843461028e57602036600319011261028e5750610576602092356125ba565b8361028b6111d336611bb1565b916111e66111e18433612894565b61275e565b613390565b50503461025b578160031936011261025b576020906008549051908152f35b90503461054a57819061125861121f36611b97565b949161123960018060a09a949a1b03600154163314611e07565b61124a61124582612912565b61313f565b8152600960205220546124cd565b50936001850154036112765750610eb260026020940191825461263c565b608490602084519162461bcd60e51b8352820152603a60248201527f43544d5257413030313a2044657374696e6174696f6e20736c6f74206973206e60448201527f6f74207468652073616d6520617320736f7572636520736c6f740000000000006064820152fd5b50503461025b576020906108346112f536611b54565b906137c9565b828461130636611a3a565b919092303b1561028e57845163224e83b960e11b8152338782019081526020810184905260408101859052829082908190606001038183305af1801561166f57611660575b506006549361135985611e6c565b600655611365836125ba565b906001600160a01b03808216919082156116115787156115c25761138888612912565b61157f579688998998829a519061139e82611aa8565b8782528a516113ac81611a8d565b8481528860209e8f968784018b81528285019184835260608601938c8552608087019580875260a08801998a5260096008549c8d948352522055600160401b89101561156c576114036001998a81016008556124cd565b95909561155a57906005959493929151855551898501555160028401558460038401915116906001600160601b0360a01b918282541617905584878401925116908254161790550191518051936001600160401b038511611547575082918e80928f9b9d9c9a99989796958661147891612ddc565b01928c52818c20918c905b8582106115305750505050505050918461073097926114a3828096612c4a565b837fddf252ad1be2c89b69c2b068fc378daa952ba7f163c4a11628f55a4df523b3ef8180a481837fe4f48c240d3b994948aa54f3e2f5fca59263dfe1d52b6e4cf39a5d249b5ccb658280a481815260098952611501878220546124cd565b50507f0b2aac84f3ec956911fd78eae5311062972ff949f38412e8da39069d9f068cc6898851838152a36131fc565b84518316828501558f9b509093019285018f611483565b634e487b7160e01b8a5260419052602489fd5b634e487b7160e01b8e528d895260248efd5b634e487b7160e01b8d526041885260248dfd5b885162461bcd60e51b81526020818c0152601f60248201527f43544d5257413030313a20746f6b656e20616c7265616479206d696e746564006044820152606490fd5b885162461bcd60e51b81526020818c0152602360248201527f43544d5257413030313a2063616e6e6f74206d696e74207a65726f20746f6b656044820152621b925960ea1b6064820152608490fd5b885162461bcd60e51b81526020818c0152602360248201527f43544d5257413030313a206d696e7420746f20746865207a65726f206164647260448201526265737360e81b6064820152608490fd5b61166990611a64565b8661134b565b86513d84823e3d90fd5b90503461054a57602036600319011261054a5782825161169881611aa8565b52600b546001600160a01b03169081156116ee5783906024845180948193633601bfc560e11b83528035908301525afa9081156103785783610351949261035557505090519182916020835260208301906119e4565b50508051610351926116ff82611aa8565b81529061033f565b8391508260031936011261025b5761171d611a09565b602435916001600160a01b03611742816117368661257e565b1680928516141561265a565b8033149081156117c7575b501561175e57509061028b91612e10565b608490602086519162461bcd60e51b8352820152603b60248201527f43544d5257413030313a20617070726f76652063616c6c6572206973206e6f7460448201527f206f776e6572206e6f7220617070726f76656420666f7220616c6c00000000006064820152fd5b90508452600a60205260028585200133855260205260ff85852054168661174d565b82843461028e57602036600319011261028e5750610d8b60209235612849565b83903461025b57602036600319011261025b5761028b9061183560018060a01b03600154163314611e07565b35612fb8565b50503461025b578160031936011261025b578051908260035461185d81611ca4565b808552916001918083169081156118e65750600114611889575b50505061033f82610351940383611ac3565b9450600385527fc2575a0e9e593c00f959f8c92f12db2869c3395a3b0502d05e2516446f71f85b5b8286106118ce5750505061033f8260206103519582010194611877565b805460208787018101919091529095019481016118b1565b61035197508693506020925061033f94915060ff191682840152151560051b82010194611877565b84913461054a57602036600319011261054a573563ffffffff60e01b811680910361054a57602092506301ffc9a760e01b81149081156119b0575b811561199f575b811561198e575b811561197d575b811561196c575b5015158152f35b635b5e139f60e01b14905083611965565b63780e9d6360e01b8114915061195e565b6370b0048160e11b81149150611957565b6380ac58cd60e01b81149150611950565b630354d60560e61b81149150611949565b60005b8381106119d45750506000910152565b81810151838201526020016119c4565b906020916119fd815180928185528580860191016119c1565b601f01601f1916010190565b600435906001600160a01b0382168203611a1f57565b600080fd5b602435906001600160a01b0382168203611a1f57565b6060906003190112611a1f57600435906024356001600160a01b0381168103611a1f579060443590565b6001600160401b038111611a7757604052565b634e487b7160e01b600052604160045260246000fd5b60c081019081106001600160401b03821117611a7757604052565b602081019081106001600160401b03821117611a7757604052565b90601f801991011681019081106001600160401b03821117611a7757604052565b6001600160401b038111611a7757601f01601f191660200190565b929192611b0b82611ae4565b91611b196040519384611ac3565b829481845281830111611a1f578281602093846000960137010152565b9080601f83011215611a1f57816020611b5193359101611aff565b90565b906040600319830112611a1f576001600160401b03600435818111611a1f5783611b8091600401611b36565b92602435918211611a1f57611b5191600401611b36565b6060906003190112611a1f57600435906024359060443590565b6060906003190112611a1f576001600160a01b03906004358281168103611a1f57916024359081168103611a1f579060443590565b6060906003190112611a1f576004356001600160a01b0381168103611a1f57906024359060443590565b6040906003190112611a1f576004359060243590565b6080906003190112611a1f576004356001600160a01b0381168103611a1f5790602435906044359060643590565b600254811015611c8e57600260005260011b7f405787fa12a823e0f2b7631cc41b3ba8828b3321ca811111fa75cd3aa3bb5ace0190600090565b634e487b7160e01b600052603260045260246000fd5b90600182811c92168015611cd4575b6020831014611cbe57565b634e487b7160e01b600052602260045260246000fd5b91607f1691611cb3565b9060405191826000825492611cf284611ca4565b908184526001948581169081600014611d615750600114611d1e575b5050611d1c92500383611ac3565b565b9093915060005260209081600020936000915b818310611d49575050611d1c93508201013880611d0e565b85548884018501529485019487945091830191611d31565b915050611d1c94506020925060ff191682840152151560051b8201013880611d0e565b9080601f83011215611a1f578135906001600160401b0392838311611a77578260051b60405194602094611dba86840188611ac3565b8652848087019284010193808511611a1f57858401925b858410611de2575050505050505090565b8335838111611a1f578791611dfc848480948a0101611b36565b815201930192611dd1565b15611e0e57565b60405162461bcd60e51b815260206004820152603060248201527f43544d5257413030313a20546869732063616e206f6e6c792062652063616c6c60448201526f0cac840c4f24086a89aa4ae82606062b60831b6064820152608490fd5b6000198114611e7b5760010190565b634e487b7160e01b600052601160045260246000fd5b8051821015611c8e5760209160051b010190565b600080549293909290916001600160a01b03918216911603611f96578251815103611f3357815b8351811015611f2a57611eec611ee28286611e91565b516112f546611fdb565b15611f00575b611efb90611e6c565b611ecc565b611f1f611f0d8286611e91565b51611f188385611e91565b519061215a565b611ef2575050905090565b50505050600190565b60405162461bcd60e51b815260206004820152603560248201527f43544d5257413030313a204c656e677468206d69736d6174636820636861696e60448201527449647320616e6420636f6e7472616374416464727360581b6064820152608490fd5b60405162461bcd60e51b815260206004820152601e60248201527f43544d525741303031583a2041646d696e4f6e6c792066756e6374696f6e00006044820152606490fd5b806000917a184f03e93ff9f4daa797ed6e38ed64bf6a1f01000000000000000080821015612135575b506d04ee2d6d415b85acef810000000080831015612126575b50662386f26fc1000080831015612117575b506305f5e10080831015612108575b50612710808310156120f9575b5060648210156120e9575b600a809210156120df575b6001908160218186019561207487611ae4565b966120826040519889611ac3565b808852612091601f1991611ae4565b01366020890137860101905b6120a9575b5050505090565b600019019083906f181899199a1a9b1b9c1cb0b131b232b360811b8282061a8353049182156120da5791908261209d565b6120a2565b9160010191612061565b9190606460029104910191612056565b6004919392049101913861204b565b6008919392049101913861203e565b6010919392049101913861202f565b6020919392049101913861201d565b604093508104915038612004565b81811061214e575050565b60008155600101612143565b60025490929160005b8281106123b6575060408051946001600160401b0391860182811187821017611a77576040528552602094858101928352600160401b841015611a77576121b1600194858101600255611c54565b9190916123a0575190815190838211611a775785916121d08254611ca4565b93601f948a868211612371575b5050899085831160011461230b576000919083612300575b5050600019600383901b1c191690831b1781555b019251958651928311611a77576122208454611ca4565b8281116122c8575b508091831160011461226357508192939495600092612258575b5050600019600383901b1c191690831b17905590565b015190503880612242565b90601f198316968460005282600020926000905b8982106122b15750508386979896959610612298575b505050811b01905590565b015160001960f88460031b161c1916905538808061228d565b808885968294968601518155019501930190612277565b6122f19085600052826000208480870160051c8201928588106122f7575b0160051c0190612143565b38612228565b925081926122e6565b0151905038806121f5565b90601f19831691846000528b6000209260005b8d82821061235b5750509084879594939210612342575b505050811b018155612209565b015160001960f88460031b161c19169055388080612335565b8385015186558c9890950194938401930161231e565b612399918560005287826000209181870160051c83019387106122f7570160051c0190612143565b388a6121dd565b634e487b7160e01b600052600060045260246000fd5b6123d1856123cc6123c684611c54565b50611cde565b6137c9565b6123e3576123de90611e6c565b612163565b50600093505050565b6002549060005b8281106124105750505060405161240981611aa8565b6000815290565b61242f61241c82611c54565b506123cc6124298561382e565b91611cde565b6124415761243c90611e6c565b6123f3565b611b5192506001915061245390611c54565b5001611cde565b61246661246c9161382e565b9161382e565b6002549160005b8381106124835750505050600090565b6124986124926123c683611c54565b836137c9565b806124b0575b611f2a576124ab90611e6c565b612473565b506124c86124c2600161245384611c54565b846137c9565b61249e565b600854811015611c8e576006906008600052027ff3f7a9fe364faab93b216da50a3214154f22a0a2b415b23a84c8169e8b636ee30190600090565b6125146105a582612912565b6000526009602052600261252c6040600020546124cd565b50015490565b1561253957565b60405162461bcd60e51b815260206004820152601b60248201527f43544d5257413030313a20696e76616c696420746f6b656e20494400000000006044820152606490fd5b61258a6105a582612912565b60005260096020526125a06040600020546124cd565b50600301546001600160a01b031690611d1c821515612532565b6125c66105a582612912565b6000526009602052600161252c6040600020546124cd565b602081830312611a1f578051906001600160401b038211611a1f570181601f82011215611a1f57805161261081611ae4565b9261261e6040519485611ac3565b81845260208284010111611a1f57611b5191602080850191016119c1565b91908201809211611e7b57565b908151811015611c8e570160200190565b1561266157565b60405162461bcd60e51b8152602060048201526024808201527f43544d5257413030313a20617070726f76616c20746f2063757272656e74206f6044820152633bb732b960e11b6064820152608490fd5b6126be6105a582612912565b600052600760205260406000209060018060a01b031660005260205260406000205490565b6001600160a01b0316801561270357600052600a60205260406000205490565b60405162461bcd60e51b815260206004820152602d60248201527f43544d5257413030313a2062616c616e636520717565727920666f722074686560448201526c207a65726f206164647265737360981b6064820152608490fd5b1561276557565b60405162461bcd60e51b815260206004820152603460248201527f43544d5257413030313a207472616e736665722063616c6c6572206973206e6f6044820152731d081bdddb995c881b9bdc88185c1c1c9bdd995960621b6064820152608490fd5b906127eb9392916127db6111e18433612894565b6127e6838383613390565b6136bb565b156127f257565b60405162461bcd60e51b815260206004820152602960248201527f43544d5257413030313a207472616e7366657220746f206e6f6e20455243373260448201526818a932b1b2b4bb32b960b91b6064820152608490fd5b6128556105a582612912565b600052600960205261286b6040600020546124cd565b50600401546001600160a01b031690565b8054821015611c8e5760005260206000200190600090565b906001600160a01b0380806128a88461257e565b169316918383149384156128db575b5083156128c5575b50505090565b6128d191929350612849565b16143880806128bf565b909350600052600a60205260026040600020018260005260205260ff6040600020541692386128b7565b91908203918211611e7b57565b60085415159081612921575090565b809150600052600960205261293a6040600020546124cd565b50541490565b6001600160a01b03808216959493918615612ba4578315612b535761296484612912565b612b0e5760405161297481611aa8565b6000928382526040519161298783611a8d565b8683526020918284019387855260408101878152606082018d8152608083019189835260a08401958652600854978c8b52600988528860408c2055600160401b891015612afa576129df6001998a81016008556124cd565b959095612ae657906005959493929151855551898501555160028401558460038401915116906001600160601b0360a01b9182825416179055846004840192511690825416179055019151928351936001600160401b038511612ad2578190612a488686612ddc565b0192875280872091875b858110612abf5750505050505050611d1c9596612a70858093612c4a565b827fddf252ad1be2c89b69c2b068fc378daa952ba7f163c4a11628f55a4df523b3ef8180a4827fe4f48c240d3b994948aa54f3e2f5fca59263dfe1d52b6e4cf39a5d249b5ccb658280a4612bf5565b8451821684820155938201938601612a52565b634e487b7160e01b88526041600452602488fd5b634e487b7160e01b8c5260048c905260248cfd5b634e487b7160e01b8b52604160045260248bfd5b60405162461bcd60e51b815260206004820152601f60248201527f43544d5257413030313a20746f6b656e20616c7265616479206d696e746564006044820152606490fd5b60405162461bcd60e51b815260206004820152602360248201527f43544d5257413030313a2063616e6e6f74206d696e74207a65726f20746f6b656044820152621b925960ea1b6064820152608490fd5b60405162461bcd60e51b815260206004820152602360248201527f43544d5257413030313a206d696e7420746f20746865207a65726f206164647260448201526265737360e81b6064820152608490fd5b907f0b2aac84f3ec956911fd78eae5311062972ff949f38412e8da39069d9f068cc66020600092848452600982526002612c3260408620546124cd565b5001612c3f82825461263c565b9055604051908152a3565b60009082825260096020526003612c6460408420546124cd565b500180546001600160a01b0319166001600160a01b039092169182179055808252600a602081815260408085208054878752600191909101835281862055928452528120805491600160401b831015612ce5575081612ccc916001611d1c959401815561287c565b90919082549060031b91821b91600019901b1916179055565b634e487b7160e01b81526041600452602490fd5b60009082825260096020526003612d1360408420546124cd565b500180546001600160a01b03191690556001600160a01b03168152600a6020526040812080546000199391929190848101908111612dc857612d55908461287c565b90549060031b1c6001840182845280602052604084205491612d7b81612ccc858961287c565b8452602052604083205581528060408120558154908115612db45750820191612da4838361287c565b909182549160031b1b1916905555565b634e487b7160e01b81526031600452602490fd5b634e487b7160e01b83526011600452602483fd5b90600160401b8111611a7757815490808355818110612dfa57505050565b611d1c9260005260206000209182019101612143565b8160005260096020526004612e296040600020546124cd565b500180546001600160a01b0319166001600160a01b0392831690811790915590612e528361257e565b167f8c5be1e5ebec7d5bd14f71427d1e84f3dd0314c0f7b2291e5b200ac8c7c3b925600080a4565b6001600160a01b038083169391928415612f5e5783612e9891613050565b15612ee6575b5060207f621b050de0ad08b51d19b48b3e6df75348c4de6bdd93e81b252ca62e28265b1b918360005260078252604060002085600052825280604060002055604051908152a3565b8260005260096020526005612eff6040600020546124cd565b500191825491600160401b831015611a7757612f44837f621b050de0ad08b51d19b48b3e6df75348c4de6bdd93e81b252ca62e28265b1b95600160209601815561287c565b819291549060031b9188831b921b19161790559150612e9e565b60405162461bcd60e51b815260206004820152602c60248201527f43544d5257413030313a20617070726f76652076616c756520746f207468652060448201526b7a65726f206164647265737360a01b6064820152608490fd5b60008181526020600981526040926005612fd4858520546124cd565b500193845491845b838110613012575050505082549180845582612ff9575b50505050565b6130099381522090810190612143565b38808080612ff3565b8061302061304b928961287c565b90548489526007885285892060039290921b1c6001600160a01b031688528652838720879055611e6c565b612fdc565b600090828252600960209080825260409061306d828620546124cd565b509260058094015496865b88811061308b5750505050505050905090565b8188528383526130a981876130a2888c20546124cd565b500161287c565b905460039190911b1c6001600160a01b03908116908816146130d3576130ce90611e6c565b613078565b505050505050505050600190565b156130e857565b60405162461bcd60e51b815260206004820152602960248201527f43544d5257413030313a207472616e736665722066726f6d20696e76616c6964604482015268081d1bdad95b88125160ba1b6064820152608490fd5b1561314657565b60405162461bcd60e51b815260206004820152602760248201527f43544d5257413030313a207472616e7366657220746f20696e76616c696420746044820152661bdad95b88125160ca1b6064820152608490fd5b156131a257565b60405162461bcd60e51b815260206004820152602c60248201527f43544d5257413030313a20696e73756666696369656e742062616c616e63652060448201526b3337b9103a3930b739b332b960a11b6064820152608490fd5b909161320a610e8a83612912565b61321661124584612912565b81600052600960205260409261322f84600020546124cd565b5081600052600960205261324685600020546124cd565b50906002810190600182549161325e8784101561319b565b0154600184015403613333579160029161327e866132ce98979695612905565b90550161328c83825461263c565b905580837f0b2aac84f3ec956911fd78eae5311062972ff949f38412e8da39069d9f068cc660208851868152a38451926132c584611aa8565b60008452613562565b156132d65750565b5162461bcd60e51b815260206004820152603160248201527f43544d5257413030313a207472616e736665722072656a65637465642062792060448201527021aa26a92ba0981818a932b1b2b4bb32b960791b6064820152608490fd5b865162461bcd60e51b815260206004820152603060248201527f43544d5257413030313a207472616e7366657220746f20746f6b656e2077697460448201526f1a08191a5999995c995b9d081cdb1bdd60821b6064820152608490fd5b6133998361257e565b6001600160a01b03808316929181168390036134be57808416938415613469578561346591613460827fddf252ad1be2c89b69c2b068fc378daa952ba7f163c4a11628f55a4df523b3ef966133ed826125ba565b506133f782612508565b5081600080988282526009602052600461341460408420546124cd565b500180546001600160a01b031916905561342d8361257e565b167f8c5be1e5ebec7d5bd14f71427d1e84f3dd0314c0f7b2291e5b200ac8c7c3b9258280a461345b82612fb8565b612cf9565b612c4a565b80a4565b60405162461bcd60e51b815260206004820152602760248201527f43544d5257413030313a207472616e7366657220746f20746865207a65726f206044820152666164647265737360c81b6064820152608490fd5b60405162461bcd60e51b815260206004820152602660248201527f43544d5257413030313a207472616e736665722066726f6d20696e76616c69646044820152651037bbb732b960d11b6064820152608490fd5b90816020910312611a1f57516001600160e01b031981168103611a1f5790565b3d1561355d573d9061354382611ae4565b916135516040519384611ac3565b82523d6000602084013e565b606090565b92909261356e8461257e565b803b63ffffffff16156136b1576040516301ffc9a760e01b8152633abe4f5560e21b6004820181905295602095926001600160a01b0316918681602481865afa809160009161367b575b50906135d45750505050505050506135ce613532565b50600190565b1561366f5760008694613613604051978896879586948d865233600487015260248601526044850152606484015260a0608484015260a48301906119e4565b03925af191821561366357600092613636575b50506001600160e01b0319161490565b6136559250803d1061365c575b61364d8183611ac3565b810190613512565b3880613626565b503d613643565b6040513d6000823e3d90fd5b50505050505050600190565b8881813d83116136aa575b6136908183611ac3565b8101031261025b575190811515820361028e5750386135b8565b503d613686565b5050505050600190565b9192813b63ffffffff1615611f2a57602091613713916000604051958680958194630a85bd0160e11b9a8b845233600485015260018060a01b03809516602485015260448401526080606484015260848301906119e4565b0393165af1600091816137a9575b5061379b5761372e613532565b805190816137965760405162461bcd60e51b815260206004820152603260248201527f4552433732313a207472616e7366657220746f206e6f6e20455243373231526560448201527131b2b4bb32b91034b6b83632b6b2b73a32b960711b6064820152608490fd5b602001fd5b6001600160e01b0319161490565b6137c291925060203d811161365c5761364d8183611ac3565b9038613721565b9060405191826137e560208201926020845260408301906119e4565b03926137f9601f1994858101835282611ac3565b51902091613827604051918261381b60208201956020875260408301906119e4565b03908101835282611ac3565b5190201490565b90815161383a81611ae4565b906138486040519283611ac3565b808252613857601f1991611ae4565b01602090368284013760005b845181101561390a576138768186612649565b5190604160f892831c1015806138f3575b156138cc57826138978288612649565b51831c019160ff8311611e7b576138c792901b6001600160f81b03191660001a6138c18286612649565b53611e6c565b613863565b6138c791506001600160f81b03196138e48288612649565b511660001a6138c18286612649565b50605a6139008288612649565b51831c1115613887565b509092505056fea2646970667358221220cd82af822bd46116601f56c8600d7e38934580285d99ecc3acb9f2e3f5d2c66864736f6c63430008140033",
  "linkReferences": {},
  "deployedLinkReferences": {}
}