{
  "_format": "hh-sol-artifact-1",
  "contractName": "CTMRWA001",
  "sourceName": "contracts/CTMRWA001.sol",
  "abi": [
    {
      "inputs": [
        {
          "internalType": "string",
          "name": "tokenName_",
          "type": "string"
        },
        {
          "internalType": "string",
          "name": "symbol_",
          "type": "string"
        },
        {
          "internalType": "uint8",
          "name": "decimals_",
          "type": "uint8"
        },
        {
          "internalType": "address",
          "name": "_ctmRwa001XChain",
          "type": "address"
        }
      ],
      "stateMutability": "nonpayable",
      "type": "constructor"
    },
    {
      "anonymous": false,
      "inputs": [
        {
          "indexed": true,
          "internalType": "address",
          "name": "_owner",
          "type": "address"
        },
        {
          "indexed": true,
          "internalType": "address",
          "name": "_approved",
          "type": "address"
        },
        {
          "indexed": true,
          "internalType": "uint256",
          "name": "_tokenId",
          "type": "uint256"
        }
      ],
      "name": "Approval",
      "type": "event"
    },
    {
      "anonymous": false,
      "inputs": [
        {
          "indexed": true,
          "internalType": "address",
          "name": "_owner",
          "type": "address"
        },
        {
          "indexed": true,
          "internalType": "address",
          "name": "_operator",
          "type": "address"
        },
        {
          "indexed": false,
          "internalType": "bool",
          "name": "_approved",
          "type": "bool"
        }
      ],
      "name": "ApprovalForAll",
      "type": "event"
    },
    {
      "anonymous": false,
      "inputs": [
        {
          "indexed": true,
          "internalType": "uint256",
          "name": "_tokenId",
          "type": "uint256"
        },
        {
          "indexed": true,
          "internalType": "address",
          "name": "_operator",
          "type": "address"
        },
        {
          "indexed": false,
          "internalType": "uint256",
          "name": "_value",
          "type": "uint256"
        }
      ],
      "name": "ApprovalValue",
      "type": "event"
    },
    {
      "anonymous": false,
      "inputs": [
        {
          "indexed": true,
          "internalType": "address",
          "name": "metadataDescriptor",
          "type": "address"
        }
      ],
      "name": "SetMetadataDescriptor",
      "type": "event"
    },
    {
      "anonymous": false,
      "inputs": [
        {
          "indexed": true,
          "internalType": "uint256",
          "name": "_tokenId",
          "type": "uint256"
        },
        {
          "indexed": true,
          "internalType": "uint256",
          "name": "_oldSlot",
          "type": "uint256"
        },
        {
          "indexed": true,
          "internalType": "uint256",
          "name": "_newSlot",
          "type": "uint256"
        }
      ],
      "name": "SlotChanged",
      "type": "event"
    },
    {
      "anonymous": false,
      "inputs": [
        {
          "indexed": true,
          "internalType": "address",
          "name": "_from",
          "type": "address"
        },
        {
          "indexed": true,
          "internalType": "address",
          "name": "_to",
          "type": "address"
        },
        {
          "indexed": true,
          "internalType": "uint256",
          "name": "_tokenId",
          "type": "uint256"
        }
      ],
      "name": "Transfer",
      "type": "event"
    },
    {
      "anonymous": false,
      "inputs": [
        {
          "indexed": true,
          "internalType": "uint256",
          "name": "_fromTokenId",
          "type": "uint256"
        },
        {
          "indexed": true,
          "internalType": "uint256",
          "name": "_toTokenId",
          "type": "uint256"
        },
        {
          "indexed": false,
          "internalType": "uint256",
          "name": "_value",
          "type": "uint256"
        }
      ],
      "name": "TransferValue",
      "type": "event"
    },
    {
      "inputs": [
        {
          "internalType": "address",
          "name": "_admin",
          "type": "address"
        },
        {
          "internalType": "string[]",
          "name": "_chainIdsStr",
          "type": "string[]"
        },
        {
          "internalType": "string[]",
          "name": "_contractAddrsStr",
          "type": "string[]"
        }
      ],
      "name": "addXTokenInfo",
      "outputs": [
        {
          "internalType": "bool",
          "name": "",
          "type": "bool"
        }
      ],
      "stateMutability": "nonpayable",
      "type": "function"
    },
    {
      "inputs": [],
      "name": "admin",
      "outputs": [
        {
          "internalType": "address",
          "name": "",
          "type": "address"
        }
      ],
      "stateMutability": "view",
      "type": "function"
    },
    {
      "inputs": [
        {
          "internalType": "uint256",
          "name": "tokenId_",
          "type": "uint256"
        },
        {
          "internalType": "address",
          "name": "operator_",
          "type": "address"
        }
      ],
      "name": "allowance",
      "outputs": [
        {
          "internalType": "uint256",
          "name": "",
          "type": "uint256"
        }
      ],
      "stateMutability": "view",
      "type": "function"
    },
    {
      "inputs": [
        {
          "internalType": "address",
          "name": "to_",
          "type": "address"
        },
        {
          "internalType": "uint256",
          "name": "tokenId_",
          "type": "uint256"
        }
      ],
      "name": "approve",
      "outputs": [],
      "stateMutability": "payable",
      "type": "function"
    },
    {
      "inputs": [
        {
          "internalType": "uint256",
          "name": "tokenId_",
          "type": "uint256"
        },
        {
          "internalType": "address",
          "name": "to_",
          "type": "address"
        },
        {
          "internalType": "uint256",
          "name": "value_",
          "type": "uint256"
        }
      ],
      "name": "approve",
      "outputs": [],
      "stateMutability": "payable",
      "type": "function"
    },
    {
      "inputs": [
        {
          "internalType": "address",
          "name": "to_",
          "type": "address"
        },
        {
          "internalType": "uint256",
          "name": "tokenId_",
          "type": "uint256"
        }
      ],
      "name": "approveFromX",
      "outputs": [],
      "stateMutability": "nonpayable",
      "type": "function"
    },
    {
      "inputs": [
        {
          "internalType": "address",
          "name": "owner_",
          "type": "address"
        }
      ],
      "name": "balanceOf",
      "outputs": [
        {
          "internalType": "uint256",
          "name": "balance",
          "type": "uint256"
        }
      ],
      "stateMutability": "view",
      "type": "function"
    },
    {
      "inputs": [
        {
          "internalType": "uint256",
          "name": "tokenId_",
          "type": "uint256"
        }
      ],
      "name": "balanceOf",
      "outputs": [
        {
          "internalType": "uint256",
          "name": "",
          "type": "uint256"
        }
      ],
      "stateMutability": "view",
      "type": "function"
    },
    {
      "inputs": [
        {
          "internalType": "uint256",
          "name": "fromTokenId_",
          "type": "uint256"
        },
        {
          "internalType": "uint256",
          "name": "value_",
          "type": "uint256"
        }
      ],
      "name": "burnValueX",
      "outputs": [
        {
          "internalType": "bool",
          "name": "",
          "type": "bool"
        }
      ],
      "stateMutability": "nonpayable",
      "type": "function"
    },
    {
      "inputs": [
        {
          "internalType": "address",
          "name": "_admin",
          "type": "address"
        }
      ],
      "name": "changeAdmin",
      "outputs": [
        {
          "internalType": "bool",
          "name": "",
          "type": "bool"
        }
      ],
      "stateMutability": "nonpayable",
      "type": "function"
    },
    {
      "inputs": [
        {
          "internalType": "address",
          "name": "_admin",
          "type": "address"
        }
      ],
      "name": "changeAdminX",
      "outputs": [
        {
          "internalType": "bool",
          "name": "",
          "type": "bool"
        }
      ],
      "stateMutability": "nonpayable",
      "type": "function"
    },
    {
      "inputs": [
        {
          "internalType": "string",
          "name": "_otherChainIdStr",
          "type": "string"
        },
        {
          "internalType": "string",
          "name": "_otherContractStr",
          "type": "string"
        }
      ],
      "name": "checkTokenCompatibility",
      "outputs": [
        {
          "internalType": "bool",
          "name": "",
          "type": "bool"
        }
      ],
      "stateMutability": "view",
      "type": "function"
    },
    {
      "inputs": [
        {
          "internalType": "uint256",
          "name": "tokenId_",
          "type": "uint256"
        }
      ],
      "name": "clearApprovedValues",
      "outputs": [],
      "stateMutability": "nonpayable",
      "type": "function"
    },
    {
      "inputs": [],
      "name": "contractURI",
      "outputs": [
        {
          "internalType": "string",
          "name": "",
          "type": "string"
        }
      ],
      "stateMutability": "view",
      "type": "function"
    },
    {
      "inputs": [],
      "name": "ctmRwa001XChain",
      "outputs": [
        {
          "internalType": "address",
          "name": "",
          "type": "address"
        }
      ],
      "stateMutability": "view",
      "type": "function"
    },
    {
      "inputs": [
        {
          "internalType": "uint256",
          "name": "tokenId_",
          "type": "uint256"
        }
      ],
      "name": "getApproved",
      "outputs": [
        {
          "internalType": "address",
          "name": "",
          "type": "address"
        }
      ],
      "stateMutability": "view",
      "type": "function"
    },
    {
      "inputs": [
        {
          "internalType": "string",
          "name": "_chainIdStr",
          "type": "string"
        }
      ],
      "name": "getTokenContract",
      "outputs": [
        {
          "internalType": "string",
          "name": "",
          "type": "string"
        }
      ],
      "stateMutability": "view",
      "type": "function"
    },
    {
      "inputs": [
        {
          "internalType": "uint256",
          "name": "tokenId_",
          "type": "uint256"
        }
      ],
      "name": "getTokenInfo",
      "outputs": [
        {
          "internalType": "uint256",
          "name": "",
          "type": "uint256"
        },
        {
          "internalType": "uint256",
          "name": "",
          "type": "uint256"
        },
        {
          "internalType": "address",
          "name": "",
          "type": "address"
        },
        {
          "internalType": "uint256",
          "name": "",
          "type": "uint256"
        }
      ],
      "stateMutability": "view",
      "type": "function"
    },
    {
      "inputs": [
        {
          "internalType": "uint256",
          "name": "tokenId_",
          "type": "uint256"
        }
      ],
      "name": "idOf",
      "outputs": [
        {
          "internalType": "uint256",
          "name": "",
          "type": "uint256"
        }
      ],
      "stateMutability": "view",
      "type": "function"
    },
    {
      "inputs": [
        {
          "internalType": "address",
          "name": "owner_",
          "type": "address"
        },
        {
          "internalType": "address",
          "name": "operator_",
          "type": "address"
        }
      ],
      "name": "isApprovedForAll",
      "outputs": [
        {
          "internalType": "bool",
          "name": "",
          "type": "bool"
        }
      ],
      "stateMutability": "view",
      "type": "function"
    },
    {
      "inputs": [
        {
          "internalType": "address",
          "name": "operator_",
          "type": "address"
        },
        {
          "internalType": "uint256",
          "name": "tokenId_",
          "type": "uint256"
        }
      ],
      "name": "isApprovedOrOwner",
      "outputs": [
        {
          "internalType": "bool",
          "name": "",
          "type": "bool"
        }
      ],
      "stateMutability": "view",
      "type": "function"
    },
    {
      "inputs": [],
      "name": "metadataDescriptor",
      "outputs": [
        {
          "internalType": "contract ICTMRWA001MetadataDescriptor",
          "name": "",
          "type": "address"
        }
      ],
      "stateMutability": "view",
      "type": "function"
    },
    {
      "inputs": [
        {
          "internalType": "address",
          "name": "to_",
          "type": "address"
        },
        {
          "internalType": "uint256",
          "name": "tokenId_",
          "type": "uint256"
        },
        {
          "internalType": "uint256",
          "name": "slot_",
          "type": "uint256"
        },
        {
          "internalType": "uint256",
          "name": "value_",
          "type": "uint256"
        }
      ],
      "name": "mintFromX",
      "outputs": [],
      "stateMutability": "nonpayable",
      "type": "function"
    },
    {
      "inputs": [
        {
          "internalType": "address",
          "name": "to_",
          "type": "address"
        },
        {
          "internalType": "uint256",
          "name": "slot_",
          "type": "uint256"
        },
        {
          "internalType": "uint256",
          "name": "value_",
          "type": "uint256"
        }
      ],
      "name": "mintFromX",
      "outputs": [
        {
          "internalType": "uint256",
          "name": "tokenId",
          "type": "uint256"
        }
      ],
      "stateMutability": "nonpayable",
      "type": "function"
    },
    {
      "inputs": [
        {
          "internalType": "uint256",
          "name": "toTokenId_",
          "type": "uint256"
        },
        {
          "internalType": "uint256",
          "name": "slot_",
          "type": "uint256"
        },
        {
          "internalType": "uint256",
          "name": "value_",
          "type": "uint256"
        }
      ],
      "name": "mintValueX",
      "outputs": [
        {
          "internalType": "bool",
          "name": "",
          "type": "bool"
        }
      ],
      "stateMutability": "nonpayable",
      "type": "function"
    },
    {
      "inputs": [],
      "name": "name",
      "outputs": [
        {
          "internalType": "string",
          "name": "",
          "type": "string"
        }
      ],
      "stateMutability": "view",
      "type": "function"
    },
    {
      "inputs": [
        {
          "internalType": "uint256",
          "name": "tokenId_",
          "type": "uint256"
        }
      ],
      "name": "ownerOf",
      "outputs": [
        {
          "internalType": "address",
          "name": "owner_",
          "type": "address"
        }
      ],
      "stateMutability": "view",
      "type": "function"
    },
    {
      "inputs": [
        {
          "internalType": "address",
          "name": "from_",
          "type": "address"
        },
        {
          "internalType": "uint256",
          "name": "tokenId_",
          "type": "uint256"
        }
      ],
      "name": "removeTokenFromOwnerEnumeration",
      "outputs": [],
      "stateMutability": "nonpayable",
      "type": "function"
    },
    {
      "inputs": [
        {
          "internalType": "address",
          "name": "from_",
          "type": "address"
        },
        {
          "internalType": "address",
          "name": "to_",
          "type": "address"
        },
        {
          "internalType": "uint256",
          "name": "tokenId_",
          "type": "uint256"
        }
      ],
      "name": "safeTransferFrom",
      "outputs": [],
      "stateMutability": "payable",
      "type": "function"
    },
    {
      "inputs": [
        {
          "internalType": "address",
          "name": "from_",
          "type": "address"
        },
        {
          "internalType": "address",
          "name": "to_",
          "type": "address"
        },
        {
          "internalType": "uint256",
          "name": "tokenId_",
          "type": "uint256"
        },
        {
          "internalType": "bytes",
          "name": "data_",
          "type": "bytes"
        }
      ],
      "name": "safeTransferFrom",
      "outputs": [],
      "stateMutability": "payable",
      "type": "function"
    },
    {
      "inputs": [
        {
          "internalType": "address",
          "name": "operator_",
          "type": "address"
        },
        {
          "internalType": "bool",
          "name": "approved_",
          "type": "bool"
        }
      ],
      "name": "setApprovalForAll",
      "outputs": [],
      "stateMutability": "nonpayable",
      "type": "function"
    },
    {
      "inputs": [
        {
          "internalType": "uint256",
          "name": "tokenId_",
          "type": "uint256"
        }
      ],
      "name": "slotOf",
      "outputs": [
        {
          "internalType": "uint256",
          "name": "",
          "type": "uint256"
        }
      ],
      "stateMutability": "view",
      "type": "function"
    },
    {
      "inputs": [
        {
          "internalType": "uint256",
          "name": "slot_",
          "type": "uint256"
        }
      ],
      "name": "slotURI",
      "outputs": [
        {
          "internalType": "string",
          "name": "",
          "type": "string"
        }
      ],
      "stateMutability": "view",
      "type": "function"
    },
    {
      "inputs": [
        {
          "internalType": "address",
          "name": "operator_",
          "type": "address"
        },
        {
          "internalType": "uint256",
          "name": "tokenId_",
          "type": "uint256"
        },
        {
          "internalType": "uint256",
          "name": "value_",
          "type": "uint256"
        }
      ],
      "name": "spendAllowance",
      "outputs": [],
      "stateMutability": "nonpayable",
      "type": "function"
    },
    {
      "inputs": [
        {
          "internalType": "string",
          "name": "a",
          "type": "string"
        },
        {
          "internalType": "string",
          "name": "b",
          "type": "string"
        }
      ],
      "name": "stringsEqual",
      "outputs": [
        {
          "internalType": "bool",
          "name": "",
          "type": "bool"
        }
      ],
      "stateMutability": "pure",
      "type": "function"
    },
    {
      "inputs": [
        {
          "internalType": "bytes4",
          "name": "interfaceId",
          "type": "bytes4"
        }
      ],
      "name": "supportsInterface",
      "outputs": [
        {
          "internalType": "bool",
          "name": "",
          "type": "bool"
        }
      ],
      "stateMutability": "view",
      "type": "function"
    },
    {
      "inputs": [],
      "name": "symbol",
      "outputs": [
        {
          "internalType": "string",
          "name": "",
          "type": "string"
        }
      ],
      "stateMutability": "view",
      "type": "function"
    },
    {
      "inputs": [
        {
          "internalType": "uint256",
          "name": "index_",
          "type": "uint256"
        }
      ],
      "name": "tokenByIndex",
      "outputs": [
        {
          "internalType": "uint256",
          "name": "",
          "type": "uint256"
        }
      ],
      "stateMutability": "view",
      "type": "function"
    },
    {
      "inputs": [
        {
          "internalType": "uint256",
          "name": "",
          "type": "uint256"
        }
      ],
      "name": "tokenContract",
      "outputs": [
        {
          "internalType": "string",
          "name": "chainIdStr",
          "type": "string"
        },
        {
          "internalType": "string",
          "name": "contractStr",
          "type": "string"
        }
      ],
      "stateMutability": "view",
      "type": "function"
    },
    {
      "inputs": [
        {
          "internalType": "address",
          "name": "owner_",
          "type": "address"
        },
        {
          "internalType": "uint256",
          "name": "index_",
          "type": "uint256"
        }
      ],
      "name": "tokenOfOwnerByIndex",
      "outputs": [
        {
          "internalType": "uint256",
          "name": "",
          "type": "uint256"
        }
      ],
      "stateMutability": "view",
      "type": "function"
    },
    {
      "inputs": [
        {
          "internalType": "uint256",
          "name": "tokenId_",
          "type": "uint256"
        }
      ],
      "name": "tokenURI",
      "outputs": [
        {
          "internalType": "string",
          "name": "",
          "type": "string"
        }
      ],
      "stateMutability": "view",
      "type": "function"
    },
    {
      "inputs": [],
      "name": "totalSupply",
      "outputs": [
        {
          "internalType": "uint256",
          "name": "",
          "type": "uint256"
        }
      ],
      "stateMutability": "view",
      "type": "function"
    },
    {
      "inputs": [
        {
          "internalType": "uint256",
          "name": "fromTokenId_",
          "type": "uint256"
        },
        {
          "internalType": "address",
          "name": "to_",
          "type": "address"
        },
        {
          "internalType": "uint256",
          "name": "value_",
          "type": "uint256"
        }
      ],
      "name": "transferFrom",
      "outputs": [
        {
          "internalType": "uint256",
          "name": "newTokenId",
          "type": "uint256"
        }
      ],
      "stateMutability": "payable",
      "type": "function"
    },
    {
      "inputs": [
        {
          "internalType": "address",
          "name": "from_",
          "type": "address"
        },
        {
          "internalType": "address",
          "name": "to_",
          "type": "address"
        },
        {
          "internalType": "uint256",
          "name": "tokenId_",
          "type": "uint256"
        }
      ],
      "name": "transferFrom",
      "outputs": [],
      "stateMutability": "payable",
      "type": "function"
    },
    {
      "inputs": [
        {
          "internalType": "uint256",
          "name": "fromTokenId_",
          "type": "uint256"
        },
        {
          "internalType": "uint256",
          "name": "toTokenId_",
          "type": "uint256"
        },
        {
          "internalType": "uint256",
          "name": "value_",
          "type": "uint256"
        }
      ],
      "name": "transferFrom",
      "outputs": [],
      "stateMutability": "payable",
      "type": "function"
    },
    {
      "inputs": [],
      "name": "valueDecimals",
      "outputs": [
        {
          "internalType": "uint8",
          "name": "",
          "type": "uint8"
        }
      ],
      "stateMutability": "view",
      "type": "function"
    }
  ],
  "bytecode": "0x6080604081815234620007045762004545803803809162000021828662000709565b8439820190608083830312620007045782516001600160401b03908181116200070457836200005291860162000784565b92602090818601519083821162000704576200007091870162000784565b94838101519260ff918285168095036200070457606001516001600160a01b0381169290839003620007045760018060a01b031993600093338686541617855560019586600655895197858911620006f05760039880620000d28b54620007d1565b601f9d818f80931162000691575b50879183116001146200062e578a9262000622575b5050600019828c1b1c191690891b1789555b8b518681116200060e5760049b620001208d54620007d1565b818111620005ca575b508c9d8c9d8a9d9c9d50879284116001146200053d57509b8291620002329d8b9362000531575b5050828b1b92600019911b1c1916178c555b60ff196005541617600555865416178555468086867a184f03e93ff9f4daa797ed6e38ed64bf6a1f0100000000000000008084101562000520575b50846d04ee2d6d415b85acef81000000008086101562000513575b5050662386f26fc100008085101562000505575b506305f5e10080851015620004f7575b508c61271080861015620004ea575b50506064841015620004db575b60219082600a80961015620004d3575b810162000223620002198262000743565b9c519c8d62000709565b808c52601f199c8d9162000743565b0136878d01378a0101905b620004a2575b505050308851936060850190858210908211176200048f578952602a8452818401893682378451156200047c5760309053835186101562000469576078602185015360295b868111620003fd5750620003bc57825196620002c0620002a88962000743565b98620002b78b519a8b62000709565b808a5262000743565b01368289013783855b620002eb575b88620002dc89896200087c565b50516138b7908162000c8e8239f35b8351811015620003b6576200030181856200080e565b51604160f891821c1015806200039c575b156200037157826200032583876200080e565b51821c018481116200035e576200035792911b6001600160f81b031916861a62000350828b6200080e565b5362000836565b85620002c9565b634e487b7160e01b875260118c52602487fd5b5062000357906001600160f81b03196200038c82876200080e565b5116861a62000350828b6200080e565b50605a620003ab83876200080e565b51821c111562000312565b620002cf565b88816064928a519262461bcd60e51b845283015260248201527f537472696e67733a20686578206c656e67746820696e73756666696369656e746044820152fd5b90600f8116601081101562000456576f181899199a1a9b1b9c1cb0b131b232b360811b901a6200042e83876200080e565b538a1c90801562000443576000190162000288565b634e487b7160e01b865260118b52602486fd5b634e487b7160e01b875260328c52602487fd5b634e487b7160e01b855260328a52602485fd5b634e487b7160e01b865260328b52602486fd5b634e487b7160e01b865260418b52602486fd5b600019019082906f181899199a1a9b1b9c1cb0b131b232b360811b8282061a8353049087826200023d575062000243565b018262000208565b606490930492600201620001f8565b90940493018c38620001eb565b6008919404930138620001dc565b6010919404930138620001cc565b90940493018438620001b8565b92935050508104908688386200019d565b01519150388062000150565b8a52868a20929c9190601f198e168b5b818110620005935750918e9391620002329f8e96941062000578575b50505050811b018c5562000162565b01519060f884600019921b161c191690553880808062000569565b93948d9f97999b9d8497999b9d9f508c92939491839286015181550196019301908f9d9b999795949392919e9c9a98969e6200054d565b8d8a52868a208280850160051c82019289861062000604575b0160051c01905b818110620005f9575062000129565b8a81558b01620005ea565b92508192620005e3565b634e487b7160e01b88526041600452602488fd5b015190503880620000f5565b8c8b52878b208c94509190601f1984168c5b8a8282106200067a575050841162000661575b505050811b01895562000107565b0151600019838e1b60f8161c1916905538808062000653565b8385015186558f9790950194938401930162000640565b915091508b8a528d878b209080850160051c820192898610620006e6575b859492828f929593950160051c01915b828110620006cf575050620000e0565b8d91939550809294505501918e918c8594620006bf565b92508192620006af565b634e487b7160e01b87526041600452602487fd5b600080fd5b601f909101601f19168101906001600160401b038211908210176200072d57604052565b634e487b7160e01b600052604160045260246000fd5b6001600160401b0381116200072d57601f01601f191660200190565b60005b838110620007735750506000910152565b818101518382015260200162000762565b81601f82011215620007045780516200079d8162000743565b92620007ad604051948562000709565b818452602082840101116200070457620007ce91602080850191016200075f565b90565b90600182811c9216801562000803575b6020831014620007ed57565b634e487b7160e01b600052602260045260246000fd5b91607f1691620007e1565b90815181101562000820570160200190565b634e487b7160e01b600052603260045260246000fd5b6000198114620008465760010190565b634e487b7160e01b600052601160045260246000fd5b6002548110156200082057600260005260206000209060011b0190600090565b60025490929160005b82811062000b31575060408051946001600160401b03918601828111878210176200072d576040528552602094858101928352680100000000000000008410156200072d57620008dd6001948581016002556200085c565b91909162000b1b5751908151908382116200072d578591620009008254620007d1565b93601f9485811162000ac6575b50899085831160011462000a5b57600091908362000a4f575b5050600019600383901b1c191690831b1781555b0192519586519283116200072d57620009548454620007d1565b82811162000a04575b50809183116001146200099b575081929394956000926200098f575b5050600019600383901b1c191690831b17905590565b01519050388062000979565b90601f198316968460005282600020926000905b898210620009ec5750508386979896959610620009d2575b505050811b01905590565b015160001960f88460031b161c19169055388080620009c7565b808885968294968601518155019501930190620009af565b84600052816000208380860160051c82019284871062000a45575b0160051c019086905b82811062000a385750506200095d565b6000815501869062000a28565b9250819262000a1f565b01519050388062000926565b90601f19831691846000528b6000209260005b8d82821062000aaf575050908487959493921062000a95575b505050811b0181556200093a565b015160001960f88460031b161c1916905538808062000a87565b8385015186558c9890950194938401930162000a6e565b909192809450600052896000208580850160051c8201928c861062000b11575b908a9695949392910160051c01905b81811062000b0457506200090d565b6000815589950162000af5565b9250819262000ae6565b634e487b7160e01b600052600060045260246000fd5b62000b3c816200085c565b50604090815190816000825462000b5381620007d1565b8084529360019180831690811562000c3a575060011462000bf5575b505062000b7f9250038262000709565b81519062000bd26020918362000b99848201928362000c5f565b039362000baf601f199586810183528262000709565b5190209351918201928262000bc58b8662000c5f565b0390810183528262000709565b5190201462000bec5762000be69062000836565b62000885565b50600093505050565b90915060005260209283600020916000925b82841062000c23575050509162000b7f92820101388062000b6f565b805487850187015286945092850192810162000c07565b935050505062000b7f9260209160ff191682840152151560051b820101388062000b6f565b6040916020825262000c8181518092816020860152602086860191016200075f565b601f01601f191601019056fe608060408181526004918236101561001657600080fd5b600092833560e01c91826301ffc9a7146118cb5750816306fdde03146117f857816307521754146117c6578163081812fc146117a6578163095ea7b3146116c457816309c3dd87146116365781630f485c02146112b857816313d199501461129c57816315c77d84146111c757816318160ddd146111a857816323b872dd14611183578163263f3e7e146111635781632f745c59146110b9578163310ed7f01461103d578163381c4fce14610fed5781633e7e866914610fcb578163404b6e9f14610f9157816342842e0e14610f6e578163430c208114610f30578163449d077214610e7857816349178b2514610e015781634f6ccce714610d82578163582939e514610d3f5781636352211e14610d0e57816370a0823114610ce857816378330ea014610c92578163840f711314610c695781638c7a63ae14610bca5781638cb0a51114610b205781638f28397014610a7a57816395d89b41146109a5578163968e8a131461096b5781639c0e9a5d1461094f5781639cc7f7081461092f578163a22cb46514610860578163a30fb020146107fb578163a6a2d1dd1461077c578163b3875b9514610753578163b88d4fde146106f1578163bff2ed71146106a6578163c87b56dd1461057b578163dee9f53f14610538578163e345e0bc14610506578163e8a3d4851461029957508063e985e9c5146102495763f851a4401461021f57600080fd5b34610245578160031936011261024557905490516001600160a01b039091168152602090f35b5080fd5b503461024557806003193601126102455760ff816020936102686119c6565b6102706119e1565b6001600160a01b039182168352600a875283832091168252600201855220549151911615158152f35b90503461050257826003193601126105025781516102b681611a65565b838152600b546001600160a01b031690811561033c57508390835192838092631c97e82760e21b82525afa9081156103305783610309949261030d575b5050905b519182916020835260208301906119a1565b0390f35b61032992503d8091833e6103218183611a80565b810190612557565b38806102f3565b505051903d90823e3d90fd5b929391905081156104e75783513091606082016001600160401b038111838210176104d2578652602a825260209283830194873687378351156104bf57603086538351906001918210156104ac5790607860218601536029915b818311610441575050506104005750849368636f6e74726163742f60b81b936103fa936103eb602994610309995197856103d98a9751809287808b01910161197e565b8601938401525180938684019061197e565b01036009810184520182611a80565b906102f7565b606490838088519262461bcd60e51b845283015260248201527f537472696e67733a20686578206c656e67746820696e73756666696369656e746044820152fd5b909192600f81166010811015610499576f181899199a1a9b1b9c1cb0b131b232b360811b901a61047185886125c2565b53841c92801561048657600019019190610396565b634e487b7160e01b825260118552602482fd5b634e487b7160e01b835260328652602483fd5b634e487b7160e01b815260328452602490fd5b634e487b7160e01b815260328352602490fd5b604182634e487b7160e01b6000525260246000fd5b5050508061030991516104f981611a65565b600081526103fa565b8280fd5b8284346105355781600319360112610535575061052e6020926105276119e1565b903561262b565b9051908152f35b80fd5b905034610502576020366003190112610502578160209361057292356105656105608261288b565b6124ab565b8152600985522054612446565b50549051908152f35b90503461050257602090816003193601126106a257803561059e6105608261288b565b8351916105aa83611a65565b858352600b546001600160a01b031692831561062b57509060248692865194859384926344a5a61760e11b84528301525afa90811561061e578461030993949592610603575b5050925b519282849384528301906119a1565b61061792503d8091833e6103218183611a80565b38806105f0565b50505051903d90823e3d90fd5b9250508483949550600014610688576103099261064a61068292611f54565b9286519381610662869351809286808701910161197e565b82016106768251809386808501910161197e565b01038084520182611a80565b926105f4565b505050610309825161069981611a65565b60008152610682565b8380fd5b8284346105355760206106eb836106bc36611ba3565b906106d560018060a09795971b03600154163314611d80565b60065480956106e382611de5565b6006556128b9565b51908152f35b83906080366003190112610245576107076119c6565b61070f6119e1565b906064356001600160401b03811161074f573660238201121561074f5761074c9381602461074293369301359101611abc565b9160443591612740565b80f35b8480fd5b50503461024557816003193601126102455760015490516001600160a01b039091168152602090f35b828434610535576060366003190112610535576107976119c6565b926001600160401b036024358181116106a2576107b79036908401611cfd565b926044359182116105355750916107d7602095926107f294369101611cfd565b916107ed60018060a01b03600154163314611d80565b611e1e565b90519015158152f35b83915034610245576020366003190112610245573590600254821015610535575061082590611bcd565b509061030961083f600161083885611c57565b9401611c57565b61085283519484869586528501906119a1565b9083820360208501526119a1565b9190503461050257806003193601126105025761087b6119c6565b906024359182151580930361074f576001600160a01b0316923384146108ed5750338452600a60205260028185200183855260205280842060ff1981541660ff8416179055519081527f17307eab39ab6107e8899845ad3d59bd9653f200f220920489ca2b5937696c3160203392a380f35b6020606492519162461bcd60e51b8352820152601c60248201527f43544d5257413030313a20617070726f766520746f2063616c6c6572000000006044820152fd5b828434610535576020366003190112610535575061052e60209235612481565b505034610245576020906107f261096536611b11565b906123d3565b505034610245573660031901126105355761074c6109876119c6565b61099c60018060a01b03600154163314611d80565b60243590612d80565b91905034610502578260031936011261050257805191838154906109c882611c1d565b80865292600192808416908115610a4f57506001146109f3575b61030986866102f7828b0383611a80565b815294507f8a35acfbc15ff81a39ae7d344fd709f28e8600b4aa8c65c6b64bfe7fe36bd19b5b828610610a37575050506102f78260206103099582010194386109e2565b80546020878701810191909152909501948101610a19565b90506103099750869350602092506102f794915060ff191682840152151560051b82010194386109e2565b8391503461024557602036600319011261024557610a966119c6565b91546001600160a01b03163303610acc57600080546001600160a01b0319166001600160a01b03841617905560208360016107f2565b608490602084519162461bcd60e51b8352820152602860248201527f43544d5257413030313a205468697320697320616e206f6e6c7941646d696e20604482015267333ab731ba34b7b760c11b6064820152fd5b839150610b2c366119f7565b92909190610b506001600160a01b0380610b45856124f7565b1690851614156125d3565b610b5a823361280d565b15610b6b575061074c939450612dea565b608490602087519162461bcd60e51b8352820152603360248201527f43544d5257413030313a20617070726f76652063616c6c6572206973206e6f74604482015272081bdddb995c881b9bdc88185c1c1c9bdd9959606a1b6064820152fd5b8383346102455760209081600319360112610502576080933590610bf06105608361288b565b81845260098352610c0381852054612446565b505493828152600984526001610c53836002610c2182862054612446565b5001549386815260098852610c3882822054612446565b506003858060a01b0391015416968152600988522054612446565b5001549382519586528501528301526060820152f35b505034610245578160031936011261024557600b5490516001600160a01b039091168152602090f35b505034610245576020366003190112610245576020906107f2610cb36119c6565b610cc860018060a01b03600154163314611d80565b60018060a01b03166001600160601b0360a01b6000541617600055600190565b5050346102455760203660031901126102455760209061052e610d096119c6565b61265c565b8284346105355760203660031901126105355750610d2e602092356124f7565b90516001600160a01b039091168152f35b83346105355760803660031901126105355761074c610d5c6119c6565b610d7160018060a01b03600154163314611d80565b6064359060443590602435906128b9565b905082346105355760203660031901126105355750803590600854821015610db05760208361057284612446565b608490602084519162461bcd60e51b8352820152602560248201527f43544d5257413030313a20676c6f62616c20696e646578206f7574206f6620626044820152646f756e647360d81b6064820152fd5b90503461050257816003193601126105025791610e6f6002610e5984602096359460243595610e3b60018060a01b03600154163314611d80565b610e4c610e478261288b565b613051565b8152600988522054612446565b5001918254610e6a8282101561310b565b61287e565b90555160018152f35b8391503461024557610e8936611ba3565b9092610e95838561262b565b90610ea0858561280d565b1580610f24575b610eaf578580f35b828210610ed75750610ecd94955090610ec79161287e565b91612dea565b8082808080808580f35b608490602088519162461bcd60e51b8352820152602160248201527f43544d5257413030313a20696e73756666696369656e7420616c6c6f77616e636044820152606560f81b6064820152fd5b50600019821415610ea7565b5050346102455780600319360112610245576020906107f2610f506119c6565b610f6560018060a01b03600154163314611d80565b6024359061280d565b8361074c84610f7c36611b6e565b91925192610f8984611a65565b858452612740565b505034610245573660031901126105355761074c610fad6119c6565b610fc260018060a01b03600154163314611d80565b60243590612c69565b50503461024557816003193601126102455760209060ff600554169051908152f35b828434610535576020366003190112610535578235906001600160401b03821161053557506110256103099361102a92369101611af3565b612365565b90519182916020835260208301906119a1565b838361104836611b54565b92909194303b1561074f57815163224e83b960e11b81523391810191825260208201879052604082018590529190859083908190606001038183305af19081156110b0575061109d575b5061074c929361316c565b926110aa61074c94611a21565b92611092565b513d86823e3d90fd5b905082346105355782600319360112610535576110d46119c6565b602435926110e18261265c565b841015611114576020856111068682878760018060a01b03168152600a8652206127f5565b91905490519160031b1c8152f35b608490602086519162461bcd60e51b83528201526024808201527f43544d5257413030313a206f776e657220696e646578206f7574206f6620626f604482015263756e647360e01b6064820152fd5b828434610535576020366003190112610535575061052e60209235612533565b8361074c61119036611b6e565b916111a361119e843361280d565b6126d7565b613300565b5050346102455781600319360112610245576020906008549051908152f35b9050346105025781906112156111dc36611b54565b94916111f660018060a09a949a1b03600154163314611d80565b6112076112028261288b565b6130af565b815260096020522054612446565b50936001850154036112335750610e6f6002602094019182546125b5565b608490602084519162461bcd60e51b8352820152603a60248201527f43544d5257413030313a2044657374696e6174696f6e20736c6f74206973206e60448201527f6f74207468652073616d6520617320736f7572636520736c6f740000000000006064820152fd5b505034610245576020906107f26112b236611b11565b90613739565b82846112c3366119f7565b919092303b1561053557845163224e83b960e11b8152338782019081526020810184905260408101859052829082908190606001038183305af1801561162c5761161d575b506006549361131685611de5565b60065561132283612533565b906001600160a01b03808216919082156115ce57871561157f576113458861288b565b61153c579688998998829a519061135b82611a65565b8782528a5161136981611a4a565b8481528860209e8f968784018b81528285019184835260608601938c8552608087019580875260a08801998a5260096008549c8d948352522055600160401b891015611529576113c06001998a8101600855612446565b95909561151757906005959493929151855551898501555160028401558460038401915116906001600160601b0360a01b918282541617905584878401925116908254161790550191518051936001600160401b038511611504575082918e80928f9b9d9c9a99989796958661143591612d4c565b01928c52818c20918c905b8582106114ed575050505050505091846106eb9792611460828096612bba565b837fddf252ad1be2c89b69c2b068fc378daa952ba7f163c4a11628f55a4df523b3ef8180a481837fe4f48c240d3b994948aa54f3e2f5fca59263dfe1d52b6e4cf39a5d249b5ccb658280a4818152600989526114be87822054612446565b50507f0b2aac84f3ec956911fd78eae5311062972ff949f38412e8da39069d9f068cc6898851838152a361316c565b84518316828501558f9b509093019285018f611440565b634e487b7160e01b8a5260419052602489fd5b634e487b7160e01b8e528d895260248efd5b634e487b7160e01b8d526041885260248dfd5b885162461bcd60e51b81526020818c0152601f60248201527f43544d5257413030313a20746f6b656e20616c7265616479206d696e746564006044820152606490fd5b885162461bcd60e51b81526020818c0152602360248201527f43544d5257413030313a2063616e6e6f74206d696e74207a65726f20746f6b656044820152621b925960ea1b6064820152608490fd5b885162461bcd60e51b81526020818c0152602360248201527f43544d5257413030313a206d696e7420746f20746865207a65726f206164647260448201526265737360e81b6064820152608490fd5b61162690611a21565b86611308565b86513d84823e3d90fd5b9050346105025760203660031901126105025782825161165581611a65565b52600b546001600160a01b03169081156116ab5783906024845180948193633601bfc560e11b83528035908301525afa9081156103305783610309949261030d57505090519182916020835260208301906119a1565b50508051610309926116bc82611a65565b8152906102f7565b83915082600319360112610245576116da6119c6565b602435916001600160a01b036116ff816116f3866124f7565b168092851614156125d3565b803314908115611784575b501561171b57509061074c91612d80565b608490602086519162461bcd60e51b8352820152603b60248201527f43544d5257413030313a20617070726f76652063616c6c6572206973206e6f7460448201527f206f776e6572206e6f7220617070726f76656420666f7220616c6c00000000006064820152fd5b90508452600a60205260028585200133855260205260ff85852054168661170a565b8284346105355760203660031901126105355750610d2e602092356127c2565b8390346102455760203660031901126102455761074c906117f260018060a01b03600154163314611d80565b35612f28565b5050346102455781600319360112610245578051908260035461181a81611c1d565b808552916001918083169081156118a35750600114611846575b5050506102f782610309940383611a80565b9450600385527fc2575a0e9e593c00f959f8c92f12db2869c3395a3b0502d05e2516446f71f85b5b82861061188b575050506102f78260206103099582010194611834565b8054602087870181019190915290950194810161186e565b6103099750869350602092506102f794915060ff191682840152151560051b82010194611834565b849134610502576020366003190112610502573563ffffffff60e01b811680910361050257602092506301ffc9a760e01b811490811561196d575b811561195c575b811561194b575b811561193a575b8115611929575b5015158152f35b635b5e139f60e01b14905083611922565b63780e9d6360e01b8114915061191b565b6370b0048160e11b81149150611914565b6380ac58cd60e01b8114915061190d565b630354d60560e61b81149150611906565b60005b8381106119915750506000910152565b8181015183820152602001611981565b906020916119ba8151809281855285808601910161197e565b601f01601f1916010190565b600435906001600160a01b03821682036119dc57565b600080fd5b602435906001600160a01b03821682036119dc57565b60609060031901126119dc57600435906024356001600160a01b03811681036119dc579060443590565b6001600160401b038111611a3457604052565b634e487b7160e01b600052604160045260246000fd5b60c081019081106001600160401b03821117611a3457604052565b602081019081106001600160401b03821117611a3457604052565b90601f801991011681019081106001600160401b03821117611a3457604052565b6001600160401b038111611a3457601f01601f191660200190565b929192611ac882611aa1565b91611ad66040519384611a80565b8294818452818301116119dc578281602093846000960137010152565b9080601f830112156119dc57816020611b0e93359101611abc565b90565b9060406003198301126119dc576001600160401b036004358181116119dc5783611b3d91600401611af3565b926024359182116119dc57611b0e91600401611af3565b60609060031901126119dc57600435906024359060443590565b60609060031901126119dc576001600160a01b039060043582811681036119dc579160243590811681036119dc579060443590565b60609060031901126119dc576004356001600160a01b03811681036119dc57906024359060443590565b600254811015611c0757600260005260011b7f405787fa12a823e0f2b7631cc41b3ba8828b3321ca811111fa75cd3aa3bb5ace0190600090565b634e487b7160e01b600052603260045260246000fd5b90600182811c92168015611c4d575b6020831014611c3757565b634e487b7160e01b600052602260045260246000fd5b91607f1691611c2c565b9060405191826000825492611c6b84611c1d565b908184526001948581169081600014611cda5750600114611c97575b5050611c9592500383611a80565b565b9093915060005260209081600020936000915b818310611cc2575050611c9593508201013880611c87565b85548884018501529485019487945091830191611caa565b915050611c9594506020925060ff191682840152151560051b8201013880611c87565b9080601f830112156119dc578135906001600160401b0392838311611a34578260051b60405194602094611d3386840188611a80565b86528480870192840101938085116119dc57858401925b858410611d5b575050505050505090565b83358381116119dc578791611d75848480948a0101611af3565b815201930192611d4a565b15611d8757565b60405162461bcd60e51b815260206004820152603060248201527f43544d5257413030313a20546869732063616e206f6e6c792062652063616c6c60448201526f0cac840c4f24086a89aa4ae82606062b60831b6064820152608490fd5b6000198114611df45760010190565b634e487b7160e01b600052601160045260246000fd5b8051821015611c075760209160051b010190565b600080549293909290916001600160a01b03918216911603611f0f578251815103611eac57815b8351811015611ea357611e65611e5b8286611e0a565b516112b246611f54565b15611e79575b611e7490611de5565b611e45565b611e98611e868286611e0a565b51611e918385611e0a565b51906120d3565b611e6b575050905090565b50505050600190565b60405162461bcd60e51b815260206004820152603560248201527f43544d5257413030313a204c656e677468206d69736d6174636820636861696e60448201527449647320616e6420636f6e7472616374416464727360581b6064820152608490fd5b60405162461bcd60e51b815260206004820152601e60248201527f43544d525741303031583a2041646d696e4f6e6c792066756e6374696f6e00006044820152606490fd5b806000917a184f03e93ff9f4daa797ed6e38ed64bf6a1f010000000000000000808210156120ae575b506d04ee2d6d415b85acef81000000008083101561209f575b50662386f26fc1000080831015612090575b506305f5e10080831015612081575b5061271080831015612072575b506064821015612062575b600a80921015612058575b60019081602181860195611fed87611aa1565b96611ffb6040519889611a80565b80885261200a601f1991611aa1565b01366020890137860101905b612022575b5050505090565b600019019083906f181899199a1a9b1b9c1cb0b131b232b360811b8282061a83530491821561205357919082612016565b61201b565b9160010191611fda565b9190606460029104910191611fcf565b60049193920491019138611fc4565b60089193920491019138611fb7565b60109193920491019138611fa8565b60209193920491019138611f96565b604093508104915038611f7d565b8181106120c7575050565b600081556001016120bc565b60025490929160005b82811061232f575060408051946001600160401b0391860182811187821017611a34576040528552602094858101928352600160401b841015611a345761212a600194858101600255611bcd565b919091612319575190815190838211611a345785916121498254611c1d565b93601f948a8682116122ea575b50508990858311600114612284576000919083612279575b5050600019600383901b1c191690831b1781555b019251958651928311611a34576121998454611c1d565b828111612241575b50809183116001146121dc575081929394956000926121d1575b5050600019600383901b1c191690831b17905590565b0151905038806121bb565b90601f198316968460005282600020926000905b89821061222a5750508386979896959610612211575b505050811b01905590565b015160001960f88460031b161c19169055388080612206565b8088859682949686015181550195019301906121f0565b61226a9085600052826000208480870160051c820192858810612270575b0160051c01906120bc565b386121a1565b9250819261225f565b01519050388061216e565b90601f19831691846000528b6000209260005b8d8282106122d457505090848795949392106122bb575b505050811b018155612182565b015160001960f88460031b161c191690553880806122ae565b8385015186558c98909501949384019301612297565b612312918560005287826000209181870160051c8301938710612270570160051c01906120bc565b388a612156565b634e487b7160e01b600052600060045260246000fd5b61234a8561234561233f84611bcd565b50611c57565b613739565b61235c5761235790611de5565b6120dc565b50600093505050565b6002549060005b8281106123895750505060405161238281611a65565b6000815290565b6123a861239582611bcd565b506123456123a28561379e565b91611c57565b6123ba576123b590611de5565b61236c565b611b0e9250600191506123cc90611bcd565b5001611c57565b6123df6123e59161379e565b9161379e565b6002549160005b8381106123fc5750505050600090565b61241161240b61233f83611bcd565b83613739565b80612429575b611ea35761242490611de5565b6123ec565b5061244161243b60016123cc84611bcd565b84613739565b612417565b600854811015611c07576006906008600052027ff3f7a9fe364faab93b216da50a3214154f22a0a2b415b23a84c8169e8b636ee30190600090565b61248d6105608261288b565b600052600960205260026124a5604060002054612446565b50015490565b156124b257565b60405162461bcd60e51b815260206004820152601b60248201527f43544d5257413030313a20696e76616c696420746f6b656e20494400000000006044820152606490fd5b6125036105608261288b565b6000526009602052612519604060002054612446565b50600301546001600160a01b031690611c958215156124ab565b61253f6105608261288b565b600052600960205260016124a5604060002054612446565b6020818303126119dc578051906001600160401b0382116119dc570181601f820112156119dc57805161258981611aa1565b926125976040519485611a80565b818452602082840101116119dc57611b0e916020808501910161197e565b91908201809211611df457565b908151811015611c07570160200190565b156125da57565b60405162461bcd60e51b8152602060048201526024808201527f43544d5257413030313a20617070726f76616c20746f2063757272656e74206f6044820152633bb732b960e11b6064820152608490fd5b6126376105608261288b565b600052600760205260406000209060018060a01b031660005260205260406000205490565b6001600160a01b0316801561267c57600052600a60205260406000205490565b60405162461bcd60e51b815260206004820152602d60248201527f43544d5257413030313a2062616c616e636520717565727920666f722074686560448201526c207a65726f206164647265737360981b6064820152608490fd5b156126de57565b60405162461bcd60e51b815260206004820152603460248201527f43544d5257413030313a207472616e736665722063616c6c6572206973206e6f6044820152731d081bdddb995c881b9bdc88185c1c1c9bdd995960621b6064820152608490fd5b9061276493929161275461119e843361280d565b61275f838383613300565b61362b565b1561276b57565b60405162461bcd60e51b815260206004820152602960248201527f43544d5257413030313a207472616e7366657220746f206e6f6e20455243373260448201526818a932b1b2b4bb32b960b91b6064820152608490fd5b6127ce6105608261288b565b60005260096020526127e4604060002054612446565b50600401546001600160a01b031690565b8054821015611c075760005260206000200190600090565b906001600160a01b038080612821846124f7565b16931691838314938415612854575b50831561283e575b50505090565b61284a919293506127c2565b1614388080612838565b909350600052600a60205260026040600020018260005260205260ff604060002054169238612830565b91908203918211611df457565b6008541515908161289a575090565b80915060005260096020526128b3604060002054612446565b50541490565b6001600160a01b03808216959492939092908615612b69578415612b18576128e08561288b565b612ad3576040908151936128f385611a65565b60009586865283519061290582611a4a565b88825260209682898d8c8b8097018981528a850191848352606086019384528b608087019580875260a0880198895260096008549b8c948352522055600160401b881015612abf5761295e600198898101600855612446565b959095612aab57906005959493929151855551888501555160028401558560038401915116906001600160601b0360a01b9182825416179055856004840192511690825416179055019051918251926001600160401b038411612a975789906129c78585612d4c565b01918a52888a20908a5b848110612a845750505050505095809798612a0e827f0b2aac84f3ec956911fd78eae5311062972ff949f38412e8da39069d9f068cc69899612bba565b877fddf252ad1be2c89b69c2b068fc378daa952ba7f163c4a11628f55a4df523b3ef8180a485877fe4f48c240d3b994948aa54f3e2f5fca59263dfe1d52b6e4cf39a5d249b5ccb658280a4858552600983526002612a6e82872054612446565b5001612a7b8382546125b5565b905551908152a3565b8351821683820155928a019285016129d1565b634e487b7160e01b8b52604160045260248bfd5b634e487b7160e01b8f5260048f905260248ffd5b634e487b7160e01b8e52604160045260248efd5b60405162461bcd60e51b815260206004820152601f60248201527f43544d5257413030313a20746f6b656e20616c7265616479206d696e746564006044820152606490fd5b60405162461bcd60e51b815260206004820152602360248201527f43544d5257413030313a2063616e6e6f74206d696e74207a65726f20746f6b656044820152621b925960ea1b6064820152608490fd5b60405162461bcd60e51b815260206004820152602360248201527f43544d5257413030313a206d696e7420746f20746865207a65726f206164647260448201526265737360e81b6064820152608490fd5b60009082825260096020526003612bd46040842054612446565b500180546001600160a01b0319166001600160a01b039092169182179055808252600a602081815260408085208054878752600191909101835281862055928452528120805491600160401b831015612c55575081612c3c916001611c9595940181556127f5565b90919082549060031b91821b91600019901b1916179055565b634e487b7160e01b81526041600452602490fd5b60009082825260096020526003612c836040842054612446565b500180546001600160a01b03191690556001600160a01b03168152600a6020526040812080546000199391929190848101908111612d3857612cc590846127f5565b90549060031b1c6001840182845280602052604084205491612ceb81612c3c85896127f5565b8452602052604083205581528060408120558154908115612d245750820191612d1483836127f5565b909182549160031b1b1916905555565b634e487b7160e01b81526031600452602490fd5b634e487b7160e01b83526011600452602483fd5b90600160401b8111611a3457815490808355818110612d6a57505050565b611c9592600052602060002091820191016120bc565b8160005260096020526004612d99604060002054612446565b500180546001600160a01b0319166001600160a01b0392831690811790915590612dc2836124f7565b167f8c5be1e5ebec7d5bd14f71427d1e84f3dd0314c0f7b2291e5b200ac8c7c3b925600080a4565b6001600160a01b038083169391928415612ece5783612e0891612fc0565b15612e56575b5060207f621b050de0ad08b51d19b48b3e6df75348c4de6bdd93e81b252ca62e28265b1b918360005260078252604060002085600052825280604060002055604051908152a3565b8260005260096020526005612e6f604060002054612446565b500191825491600160401b831015611a3457612eb4837f621b050de0ad08b51d19b48b3e6df75348c4de6bdd93e81b252ca62e28265b1b9560016020960181556127f5565b819291549060031b9188831b921b19161790559150612e0e565b60405162461bcd60e51b815260206004820152602c60248201527f43544d5257413030313a20617070726f76652076616c756520746f207468652060448201526b7a65726f206164647265737360a01b6064820152608490fd5b60008181526020600981526040926005612f4485852054612446565b500193845491845b838110612f82575050505082549180845582612f69575b50505050565b612f7993815220908101906120bc565b38808080612f63565b80612f90612fbb92896127f5565b90548489526007885285892060039290921b1c6001600160a01b031688528652838720879055611de5565b612f4c565b6000908282526009602090808252604090612fdd82862054612446565b509260058094015496865b888110612ffb5750505050505050905090565b8188528383526130198187613012888c2054612446565b50016127f5565b905460039190911b1c6001600160a01b03908116908816146130435761303e90611de5565b612fe8565b505050505050505050600190565b1561305857565b60405162461bcd60e51b815260206004820152602960248201527f43544d5257413030313a207472616e736665722066726f6d20696e76616c6964604482015268081d1bdad95b88125160ba1b6064820152608490fd5b156130b657565b60405162461bcd60e51b815260206004820152602760248201527f43544d5257413030313a207472616e7366657220746f20696e76616c696420746044820152661bdad95b88125160ca1b6064820152608490fd5b1561311257565b60405162461bcd60e51b815260206004820152602c60248201527f43544d5257413030313a20696e73756666696369656e742062616c616e63652060448201526b3337b9103a3930b739b332b960a11b6064820152608490fd5b909161317a610e478361288b565b6131866112028461288b565b81600052600960205260409261319f8460002054612446565b508160005260096020526131b68560002054612446565b5090600281019060018254916131ce8784101561310b565b01546001840154036132a357916002916131ee8661323e9897969561287e565b9055016131fc8382546125b5565b905580837f0b2aac84f3ec956911fd78eae5311062972ff949f38412e8da39069d9f068cc660208851868152a384519261323584611a65565b600084526134d2565b156132465750565b5162461bcd60e51b815260206004820152603160248201527f43544d5257413030313a207472616e736665722072656a65637465642062792060448201527021aa26a92ba0981818a932b1b2b4bb32b960791b6064820152608490fd5b865162461bcd60e51b815260206004820152603060248201527f43544d5257413030313a207472616e7366657220746f20746f6b656e2077697460448201526f1a08191a5999995c995b9d081cdb1bdd60821b6064820152608490fd5b613309836124f7565b6001600160a01b038083169291811683900361342e578084169384156133d957856133d5916133d0827fddf252ad1be2c89b69c2b068fc378daa952ba7f163c4a11628f55a4df523b3ef9661335d82612533565b5061336782612481565b508160008098828252600960205260046133846040842054612446565b500180546001600160a01b031916905561339d836124f7565b167f8c5be1e5ebec7d5bd14f71427d1e84f3dd0314c0f7b2291e5b200ac8c7c3b9258280a46133cb82612f28565b612c69565b612bba565b80a4565b60405162461bcd60e51b815260206004820152602760248201527f43544d5257413030313a207472616e7366657220746f20746865207a65726f206044820152666164647265737360c81b6064820152608490fd5b60405162461bcd60e51b815260206004820152602660248201527f43544d5257413030313a207472616e736665722066726f6d20696e76616c69646044820152651037bbb732b960d11b6064820152608490fd5b908160209103126119dc57516001600160e01b0319811681036119dc5790565b3d156134cd573d906134b382611aa1565b916134c16040519384611a80565b82523d6000602084013e565b606090565b9290926134de846124f7565b803b63ffffffff1615613621576040516301ffc9a760e01b8152633abe4f5560e21b6004820181905295602095926001600160a01b0316918681602481865afa80916000916135eb575b509061354457505050505050505061353e6134a2565b50600190565b156135df5760008694613583604051978896879586948d865233600487015260248601526044850152606484015260a0608484015260a48301906119a1565b03925af19182156135d3576000926135a6575b50506001600160e01b0319161490565b6135c59250803d106135cc575b6135bd8183611a80565b810190613482565b3880613596565b503d6135b3565b6040513d6000823e3d90fd5b50505050505050600190565b8881813d831161361a575b6136008183611a80565b810103126102455751908115158203610535575038613528565b503d6135f6565b5050505050600190565b9192813b63ffffffff1615611ea357602091613683916000604051958680958194630a85bd0160e11b9a8b845233600485015260018060a01b03809516602485015260448401526080606484015260848301906119a1565b0393165af160009181613719575b5061370b5761369e6134a2565b805190816137065760405162461bcd60e51b815260206004820152603260248201527f4552433732313a207472616e7366657220746f206e6f6e20455243373231526560448201527131b2b4bb32b91034b6b83632b6b2b73a32b960711b6064820152608490fd5b602001fd5b6001600160e01b0319161490565b61373291925060203d81116135cc576135bd8183611a80565b9038613691565b90604051918261375560208201926020845260408301906119a1565b0392613769601f1994858101835282611a80565b51902091613797604051918261378b60208201956020875260408301906119a1565b03908101835282611a80565b5190201490565b9081516137aa81611aa1565b906137b86040519283611a80565b8082526137c7601f1991611aa1565b01602090368284013760005b845181101561387a576137e681866125c2565b5190604160f892831c101580613863575b1561383c578261380782886125c2565b51831c019160ff8311611df45761383792901b6001600160f81b03191660001a61383182866125c2565b53611de5565b6137d3565b61383791506001600160f81b031961385482886125c2565b511660001a61383182866125c2565b50605a61387082886125c2565b51831c11156137f7565b509092505056fea2646970667358221220ac6031e77bec6571930f1798396afe19465f5e019c9ce36a20e525b9aec5c60764736f6c63430008140033",
  "linkReferences": {},
  "deployedLinkReferences": {}
}