{
  "_format": "hh-sol-artifact-1",
  "contractName": "CTMRWA001",
  "sourceName": "contracts/CTMRWA001.sol",
  "abi": [
    {
      "inputs": [
        {
          "internalType": "string",
          "name": "tokenName_",
          "type": "string"
        },
        {
          "internalType": "string",
          "name": "symbol_",
          "type": "string"
        },
        {
          "internalType": "uint8",
          "name": "decimals_",
          "type": "uint8"
        },
        {
          "internalType": "address",
          "name": "_ctmRwa001XChain",
          "type": "address"
        }
      ],
      "stateMutability": "nonpayable",
      "type": "constructor"
    },
    {
      "anonymous": false,
      "inputs": [
        {
          "indexed": true,
          "internalType": "address",
          "name": "_owner",
          "type": "address"
        },
        {
          "indexed": true,
          "internalType": "address",
          "name": "_approved",
          "type": "address"
        },
        {
          "indexed": true,
          "internalType": "uint256",
          "name": "_tokenId",
          "type": "uint256"
        }
      ],
      "name": "Approval",
      "type": "event"
    },
    {
      "anonymous": false,
      "inputs": [
        {
          "indexed": true,
          "internalType": "address",
          "name": "_owner",
          "type": "address"
        },
        {
          "indexed": true,
          "internalType": "address",
          "name": "_operator",
          "type": "address"
        },
        {
          "indexed": false,
          "internalType": "bool",
          "name": "_approved",
          "type": "bool"
        }
      ],
      "name": "ApprovalForAll",
      "type": "event"
    },
    {
      "anonymous": false,
      "inputs": [
        {
          "indexed": true,
          "internalType": "uint256",
          "name": "_tokenId",
          "type": "uint256"
        },
        {
          "indexed": true,
          "internalType": "address",
          "name": "_operator",
          "type": "address"
        },
        {
          "indexed": false,
          "internalType": "uint256",
          "name": "_value",
          "type": "uint256"
        }
      ],
      "name": "ApprovalValue",
      "type": "event"
    },
    {
      "anonymous": false,
      "inputs": [
        {
          "indexed": true,
          "internalType": "address",
          "name": "metadataDescriptor",
          "type": "address"
        }
      ],
      "name": "SetMetadataDescriptor",
      "type": "event"
    },
    {
      "anonymous": false,
      "inputs": [
        {
          "indexed": true,
          "internalType": "uint256",
          "name": "_tokenId",
          "type": "uint256"
        },
        {
          "indexed": true,
          "internalType": "uint256",
          "name": "_oldSlot",
          "type": "uint256"
        },
        {
          "indexed": true,
          "internalType": "uint256",
          "name": "_newSlot",
          "type": "uint256"
        }
      ],
      "name": "SlotChanged",
      "type": "event"
    },
    {
      "anonymous": false,
      "inputs": [
        {
          "indexed": true,
          "internalType": "address",
          "name": "_from",
          "type": "address"
        },
        {
          "indexed": true,
          "internalType": "address",
          "name": "_to",
          "type": "address"
        },
        {
          "indexed": true,
          "internalType": "uint256",
          "name": "_tokenId",
          "type": "uint256"
        }
      ],
      "name": "Transfer",
      "type": "event"
    },
    {
      "anonymous": false,
      "inputs": [
        {
          "indexed": true,
          "internalType": "uint256",
          "name": "_fromTokenId",
          "type": "uint256"
        },
        {
          "indexed": true,
          "internalType": "uint256",
          "name": "_toTokenId",
          "type": "uint256"
        },
        {
          "indexed": false,
          "internalType": "uint256",
          "name": "_value",
          "type": "uint256"
        }
      ],
      "name": "TransferValue",
      "type": "event"
    },
    {
      "inputs": [
        {
          "internalType": "address",
          "name": "_admin",
          "type": "address"
        },
        {
          "internalType": "string[]",
          "name": "_chainIdsStr",
          "type": "string[]"
        },
        {
          "internalType": "string[]",
          "name": "_contractAddrsStr",
          "type": "string[]"
        }
      ],
      "name": "addXTokenInfo",
      "outputs": [
        {
          "internalType": "bool",
          "name": "",
          "type": "bool"
        }
      ],
      "stateMutability": "nonpayable",
      "type": "function"
    },
    {
      "inputs": [],
      "name": "admin",
      "outputs": [
        {
          "internalType": "address",
          "name": "",
          "type": "address"
        }
      ],
      "stateMutability": "view",
      "type": "function"
    },
    {
      "inputs": [
        {
          "internalType": "uint256",
          "name": "tokenId_",
          "type": "uint256"
        },
        {
          "internalType": "address",
          "name": "operator_",
          "type": "address"
        }
      ],
      "name": "allowance",
      "outputs": [
        {
          "internalType": "uint256",
          "name": "",
          "type": "uint256"
        }
      ],
      "stateMutability": "view",
      "type": "function"
    },
    {
      "inputs": [
        {
          "internalType": "address",
          "name": "to_",
          "type": "address"
        },
        {
          "internalType": "uint256",
          "name": "tokenId_",
          "type": "uint256"
        }
      ],
      "name": "approve",
      "outputs": [],
      "stateMutability": "payable",
      "type": "function"
    },
    {
      "inputs": [
        {
          "internalType": "uint256",
          "name": "tokenId_",
          "type": "uint256"
        },
        {
          "internalType": "address",
          "name": "to_",
          "type": "address"
        },
        {
          "internalType": "uint256",
          "name": "value_",
          "type": "uint256"
        }
      ],
      "name": "approve",
      "outputs": [],
      "stateMutability": "payable",
      "type": "function"
    },
    {
      "inputs": [
        {
          "internalType": "address",
          "name": "to_",
          "type": "address"
        },
        {
          "internalType": "uint256",
          "name": "tokenId_",
          "type": "uint256"
        }
      ],
      "name": "approveFromX",
      "outputs": [],
      "stateMutability": "nonpayable",
      "type": "function"
    },
    {
      "inputs": [
        {
          "internalType": "address",
          "name": "owner_",
          "type": "address"
        }
      ],
      "name": "balanceOf",
      "outputs": [
        {
          "internalType": "uint256",
          "name": "balance",
          "type": "uint256"
        }
      ],
      "stateMutability": "view",
      "type": "function"
    },
    {
      "inputs": [
        {
          "internalType": "uint256",
          "name": "tokenId_",
          "type": "uint256"
        }
      ],
      "name": "balanceOf",
      "outputs": [
        {
          "internalType": "uint256",
          "name": "",
          "type": "uint256"
        }
      ],
      "stateMutability": "view",
      "type": "function"
    },
    {
      "inputs": [
        {
          "internalType": "address",
          "name": "_admin",
          "type": "address"
        }
      ],
      "name": "changeAdmin",
      "outputs": [
        {
          "internalType": "bool",
          "name": "",
          "type": "bool"
        }
      ],
      "stateMutability": "nonpayable",
      "type": "function"
    },
    {
      "inputs": [
        {
          "internalType": "string",
          "name": "_otherChainIdStr",
          "type": "string"
        },
        {
          "internalType": "string",
          "name": "_otherContractStr",
          "type": "string"
        }
      ],
      "name": "checkTokenCompatibility",
      "outputs": [
        {
          "internalType": "bool",
          "name": "",
          "type": "bool"
        }
      ],
      "stateMutability": "view",
      "type": "function"
    },
    {
      "inputs": [
        {
          "internalType": "uint256",
          "name": "tokenId_",
          "type": "uint256"
        }
      ],
      "name": "clearApprovedValues",
      "outputs": [],
      "stateMutability": "nonpayable",
      "type": "function"
    },
    {
      "inputs": [],
      "name": "contractURI",
      "outputs": [
        {
          "internalType": "string",
          "name": "",
          "type": "string"
        }
      ],
      "stateMutability": "view",
      "type": "function"
    },
    {
      "inputs": [],
      "name": "ctmRwa001XChain",
      "outputs": [
        {
          "internalType": "address",
          "name": "",
          "type": "address"
        }
      ],
      "stateMutability": "view",
      "type": "function"
    },
    {
      "inputs": [
        {
          "internalType": "uint256",
          "name": "tokenId_",
          "type": "uint256"
        }
      ],
      "name": "getApproved",
      "outputs": [
        {
          "internalType": "address",
          "name": "",
          "type": "address"
        }
      ],
      "stateMutability": "view",
      "type": "function"
    },
    {
      "inputs": [
        {
          "internalType": "string",
          "name": "_chainIdStr",
          "type": "string"
        }
      ],
      "name": "getTokenContract",
      "outputs": [
        {
          "internalType": "string",
          "name": "",
          "type": "string"
        }
      ],
      "stateMutability": "view",
      "type": "function"
    },
    {
      "inputs": [
        {
          "internalType": "uint256",
          "name": "tokenId_",
          "type": "uint256"
        }
      ],
      "name": "getTokenInfo",
      "outputs": [
        {
          "internalType": "uint256",
          "name": "",
          "type": "uint256"
        },
        {
          "internalType": "uint256",
          "name": "",
          "type": "uint256"
        },
        {
          "internalType": "address",
          "name": "",
          "type": "address"
        },
        {
          "internalType": "uint256",
          "name": "",
          "type": "uint256"
        }
      ],
      "stateMutability": "view",
      "type": "function"
    },
    {
      "inputs": [
        {
          "internalType": "uint256",
          "name": "tokenId_",
          "type": "uint256"
        }
      ],
      "name": "idOf",
      "outputs": [
        {
          "internalType": "uint256",
          "name": "",
          "type": "uint256"
        }
      ],
      "stateMutability": "view",
      "type": "function"
    },
    {
      "inputs": [
        {
          "internalType": "address",
          "name": "owner_",
          "type": "address"
        },
        {
          "internalType": "address",
          "name": "operator_",
          "type": "address"
        }
      ],
      "name": "isApprovedForAll",
      "outputs": [
        {
          "internalType": "bool",
          "name": "",
          "type": "bool"
        }
      ],
      "stateMutability": "view",
      "type": "function"
    },
    {
      "inputs": [
        {
          "internalType": "address",
          "name": "operator_",
          "type": "address"
        },
        {
          "internalType": "uint256",
          "name": "tokenId_",
          "type": "uint256"
        }
      ],
      "name": "isApprovedOrOwner",
      "outputs": [
        {
          "internalType": "bool",
          "name": "",
          "type": "bool"
        }
      ],
      "stateMutability": "view",
      "type": "function"
    },
    {
      "inputs": [],
      "name": "metadataDescriptor",
      "outputs": [
        {
          "internalType": "contract ICTMRWA001MetadataDescriptor",
          "name": "",
          "type": "address"
        }
      ],
      "stateMutability": "view",
      "type": "function"
    },
    {
      "inputs": [
        {
          "internalType": "address",
          "name": "to_",
          "type": "address"
        },
        {
          "internalType": "uint256",
          "name": "tokenId_",
          "type": "uint256"
        },
        {
          "internalType": "uint256",
          "name": "slot_",
          "type": "uint256"
        },
        {
          "internalType": "uint256",
          "name": "value_",
          "type": "uint256"
        }
      ],
      "name": "mintFromX",
      "outputs": [],
      "stateMutability": "nonpayable",
      "type": "function"
    },
    {
      "inputs": [
        {
          "internalType": "address",
          "name": "to_",
          "type": "address"
        },
        {
          "internalType": "uint256",
          "name": "slot_",
          "type": "uint256"
        },
        {
          "internalType": "uint256",
          "name": "value_",
          "type": "uint256"
        }
      ],
      "name": "mintFromX",
      "outputs": [
        {
          "internalType": "uint256",
          "name": "tokenId",
          "type": "uint256"
        }
      ],
      "stateMutability": "nonpayable",
      "type": "function"
    },
    {
      "inputs": [],
      "name": "name",
      "outputs": [
        {
          "internalType": "string",
          "name": "",
          "type": "string"
        }
      ],
      "stateMutability": "view",
      "type": "function"
    },
    {
      "inputs": [
        {
          "internalType": "uint256",
          "name": "tokenId_",
          "type": "uint256"
        }
      ],
      "name": "ownerOf",
      "outputs": [
        {
          "internalType": "address",
          "name": "owner_",
          "type": "address"
        }
      ],
      "stateMutability": "view",
      "type": "function"
    },
    {
      "inputs": [
        {
          "internalType": "address",
          "name": "from_",
          "type": "address"
        },
        {
          "internalType": "uint256",
          "name": "tokenId_",
          "type": "uint256"
        }
      ],
      "name": "removeTokenFromOwnerEnumeration",
      "outputs": [],
      "stateMutability": "nonpayable",
      "type": "function"
    },
    {
      "inputs": [
        {
          "internalType": "address",
          "name": "from_",
          "type": "address"
        },
        {
          "internalType": "address",
          "name": "to_",
          "type": "address"
        },
        {
          "internalType": "uint256",
          "name": "tokenId_",
          "type": "uint256"
        }
      ],
      "name": "safeTransferFrom",
      "outputs": [],
      "stateMutability": "payable",
      "type": "function"
    },
    {
      "inputs": [
        {
          "internalType": "address",
          "name": "from_",
          "type": "address"
        },
        {
          "internalType": "address",
          "name": "to_",
          "type": "address"
        },
        {
          "internalType": "uint256",
          "name": "tokenId_",
          "type": "uint256"
        },
        {
          "internalType": "bytes",
          "name": "data_",
          "type": "bytes"
        }
      ],
      "name": "safeTransferFrom",
      "outputs": [],
      "stateMutability": "payable",
      "type": "function"
    },
    {
      "inputs": [
        {
          "internalType": "address",
          "name": "operator_",
          "type": "address"
        },
        {
          "internalType": "bool",
          "name": "approved_",
          "type": "bool"
        }
      ],
      "name": "setApprovalForAll",
      "outputs": [],
      "stateMutability": "nonpayable",
      "type": "function"
    },
    {
      "inputs": [
        {
          "internalType": "uint256",
          "name": "tokenId_",
          "type": "uint256"
        }
      ],
      "name": "slotOf",
      "outputs": [
        {
          "internalType": "uint256",
          "name": "",
          "type": "uint256"
        }
      ],
      "stateMutability": "view",
      "type": "function"
    },
    {
      "inputs": [
        {
          "internalType": "uint256",
          "name": "slot_",
          "type": "uint256"
        }
      ],
      "name": "slotURI",
      "outputs": [
        {
          "internalType": "string",
          "name": "",
          "type": "string"
        }
      ],
      "stateMutability": "view",
      "type": "function"
    },
    {
      "inputs": [
        {
          "internalType": "address",
          "name": "operator_",
          "type": "address"
        },
        {
          "internalType": "uint256",
          "name": "tokenId_",
          "type": "uint256"
        },
        {
          "internalType": "uint256",
          "name": "value_",
          "type": "uint256"
        }
      ],
      "name": "spendAllowance",
      "outputs": [],
      "stateMutability": "nonpayable",
      "type": "function"
    },
    {
      "inputs": [
        {
          "internalType": "string",
          "name": "a",
          "type": "string"
        },
        {
          "internalType": "string",
          "name": "b",
          "type": "string"
        }
      ],
      "name": "stringsEqual",
      "outputs": [
        {
          "internalType": "bool",
          "name": "",
          "type": "bool"
        }
      ],
      "stateMutability": "pure",
      "type": "function"
    },
    {
      "inputs": [
        {
          "internalType": "bytes4",
          "name": "interfaceId",
          "type": "bytes4"
        }
      ],
      "name": "supportsInterface",
      "outputs": [
        {
          "internalType": "bool",
          "name": "",
          "type": "bool"
        }
      ],
      "stateMutability": "view",
      "type": "function"
    },
    {
      "inputs": [],
      "name": "symbol",
      "outputs": [
        {
          "internalType": "string",
          "name": "",
          "type": "string"
        }
      ],
      "stateMutability": "view",
      "type": "function"
    },
    {
      "inputs": [
        {
          "internalType": "uint256",
          "name": "index_",
          "type": "uint256"
        }
      ],
      "name": "tokenByIndex",
      "outputs": [
        {
          "internalType": "uint256",
          "name": "",
          "type": "uint256"
        }
      ],
      "stateMutability": "view",
      "type": "function"
    },
    {
      "inputs": [
        {
          "internalType": "uint256",
          "name": "",
          "type": "uint256"
        }
      ],
      "name": "tokenContract",
      "outputs": [
        {
          "internalType": "string",
          "name": "chainIdStr",
          "type": "string"
        },
        {
          "internalType": "string",
          "name": "contractStr",
          "type": "string"
        }
      ],
      "stateMutability": "view",
      "type": "function"
    },
    {
      "inputs": [
        {
          "internalType": "address",
          "name": "owner_",
          "type": "address"
        },
        {
          "internalType": "uint256",
          "name": "index_",
          "type": "uint256"
        }
      ],
      "name": "tokenOfOwnerByIndex",
      "outputs": [
        {
          "internalType": "uint256",
          "name": "",
          "type": "uint256"
        }
      ],
      "stateMutability": "view",
      "type": "function"
    },
    {
      "inputs": [
        {
          "internalType": "uint256",
          "name": "tokenId_",
          "type": "uint256"
        }
      ],
      "name": "tokenURI",
      "outputs": [
        {
          "internalType": "string",
          "name": "",
          "type": "string"
        }
      ],
      "stateMutability": "view",
      "type": "function"
    },
    {
      "inputs": [],
      "name": "totalSupply",
      "outputs": [
        {
          "internalType": "uint256",
          "name": "",
          "type": "uint256"
        }
      ],
      "stateMutability": "view",
      "type": "function"
    },
    {
      "inputs": [
        {
          "internalType": "uint256",
          "name": "fromTokenId_",
          "type": "uint256"
        },
        {
          "internalType": "address",
          "name": "to_",
          "type": "address"
        },
        {
          "internalType": "uint256",
          "name": "value_",
          "type": "uint256"
        }
      ],
      "name": "transferFrom",
      "outputs": [
        {
          "internalType": "uint256",
          "name": "newTokenId",
          "type": "uint256"
        }
      ],
      "stateMutability": "payable",
      "type": "function"
    },
    {
      "inputs": [
        {
          "internalType": "address",
          "name": "from_",
          "type": "address"
        },
        {
          "internalType": "address",
          "name": "to_",
          "type": "address"
        },
        {
          "internalType": "uint256",
          "name": "tokenId_",
          "type": "uint256"
        }
      ],
      "name": "transferFrom",
      "outputs": [],
      "stateMutability": "payable",
      "type": "function"
    },
    {
      "inputs": [
        {
          "internalType": "uint256",
          "name": "fromTokenId_",
          "type": "uint256"
        },
        {
          "internalType": "uint256",
          "name": "toTokenId_",
          "type": "uint256"
        },
        {
          "internalType": "uint256",
          "name": "value_",
          "type": "uint256"
        }
      ],
      "name": "transferFrom",
      "outputs": [],
      "stateMutability": "payable",
      "type": "function"
    },
    {
      "inputs": [],
      "name": "valueDecimals",
      "outputs": [
        {
          "internalType": "uint8",
          "name": "",
          "type": "uint8"
        }
      ],
      "stateMutability": "view",
      "type": "function"
    }
  ],
  "bytecode": "0x6080604081815234620007045762004364803803809162000021828662000709565b8439820190608083830312620007045782516001600160401b03908181116200070457836200005291860162000784565b92602090818601519083821162000704576200007091870162000784565b94838101519260ff918285168095036200070457606001516001600160a01b0381169290839003620007045760018060a01b031993600093338686541617855560019586600655895197858911620006f05760039880620000d28b54620007d1565b601f9d818f80931162000691575b50879183116001146200062e578a9262000622575b5050600019828c1b1c191690891b1789555b8b518681116200060e5760049b620001208d54620007d1565b818111620005ca575b508c9d8c9d8a9d9c9d50879284116001146200053d57509b8291620002329d8b9362000531575b5050828b1b92600019911b1c1916178c555b60ff196005541617600555865416178555468086867a184f03e93ff9f4daa797ed6e38ed64bf6a1f0100000000000000008084101562000520575b50846d04ee2d6d415b85acef81000000008086101562000513575b5050662386f26fc100008085101562000505575b506305f5e10080851015620004f7575b508c61271080861015620004ea575b50506064841015620004db575b60219082600a80961015620004d3575b810162000223620002198262000743565b9c519c8d62000709565b808c52601f199c8d9162000743565b0136878d01378a0101905b620004a2575b505050308851936060850190858210908211176200048f578952602a8452818401893682378451156200047c5760309053835186101562000469576078602185015360295b868111620003fd5750620003bc57825196620002c0620002a88962000743565b98620002b78b519a8b62000709565b808a5262000743565b01368289013783855b620002eb575b88620002dc89896200087c565b50516136d6908162000c8e8239f35b8351811015620003b6576200030181856200080e565b51604160f891821c1015806200039c575b156200037157826200032583876200080e565b51821c018481116200035e576200035792911b6001600160f81b031916861a62000350828b6200080e565b5362000836565b85620002c9565b634e487b7160e01b875260118c52602487fd5b5062000357906001600160f81b03196200038c82876200080e565b5116861a62000350828b6200080e565b50605a620003ab83876200080e565b51821c111562000312565b620002cf565b88816064928a519262461bcd60e51b845283015260248201527f537472696e67733a20686578206c656e67746820696e73756666696369656e746044820152fd5b90600f8116601081101562000456576f181899199a1a9b1b9c1cb0b131b232b360811b901a6200042e83876200080e565b538a1c90801562000443576000190162000288565b634e487b7160e01b865260118b52602486fd5b634e487b7160e01b875260328c52602487fd5b634e487b7160e01b855260328a52602485fd5b634e487b7160e01b865260328b52602486fd5b634e487b7160e01b865260418b52602486fd5b600019019082906f181899199a1a9b1b9c1cb0b131b232b360811b8282061a8353049087826200023d575062000243565b018262000208565b606490930492600201620001f8565b90940493018c38620001eb565b6008919404930138620001dc565b6010919404930138620001cc565b90940493018438620001b8565b92935050508104908688386200019d565b01519150388062000150565b8a52868a20929c9190601f198e168b5b818110620005935750918e9391620002329f8e96941062000578575b50505050811b018c5562000162565b01519060f884600019921b161c191690553880808062000569565b93948d9f97999b9d8497999b9d9f508c92939491839286015181550196019301908f9d9b999795949392919e9c9a98969e6200054d565b8d8a52868a208280850160051c82019289861062000604575b0160051c01905b818110620005f9575062000129565b8a81558b01620005ea565b92508192620005e3565b634e487b7160e01b88526041600452602488fd5b015190503880620000f5565b8c8b52878b208c94509190601f1984168c5b8a8282106200067a575050841162000661575b505050811b01895562000107565b0151600019838e1b60f8161c1916905538808062000653565b8385015186558f9790950194938401930162000640565b915091508b8a528d878b209080850160051c820192898610620006e6575b859492828f929593950160051c01915b828110620006cf575050620000e0565b8d91939550809294505501918e918c8594620006bf565b92508192620006af565b634e487b7160e01b87526041600452602487fd5b600080fd5b601f909101601f19168101906001600160401b038211908210176200072d57604052565b634e487b7160e01b600052604160045260246000fd5b6001600160401b0381116200072d57601f01601f191660200190565b60005b838110620007735750506000910152565b818101518382015260200162000762565b81601f82011215620007045780516200079d8162000743565b92620007ad604051948562000709565b818452602082840101116200070457620007ce91602080850191016200075f565b90565b90600182811c9216801562000803575b6020831014620007ed57565b634e487b7160e01b600052602260045260246000fd5b91607f1691620007e1565b90815181101562000820570160200190565b634e487b7160e01b600052603260045260246000fd5b6000198114620008465760010190565b634e487b7160e01b600052601160045260246000fd5b6002548110156200082057600260005260206000209060011b0190600090565b60025490929160005b82811062000b31575060408051946001600160401b03918601828111878210176200072d576040528552602094858101928352680100000000000000008410156200072d57620008dd6001948581016002556200085c565b91909162000b1b5751908151908382116200072d578591620009008254620007d1565b93601f9485811162000ac6575b50899085831160011462000a5b57600091908362000a4f575b5050600019600383901b1c191690831b1781555b0192519586519283116200072d57620009548454620007d1565b82811162000a04575b50809183116001146200099b575081929394956000926200098f575b5050600019600383901b1c191690831b17905590565b01519050388062000979565b90601f198316968460005282600020926000905b898210620009ec5750508386979896959610620009d2575b505050811b01905590565b015160001960f88460031b161c19169055388080620009c7565b808885968294968601518155019501930190620009af565b84600052816000208380860160051c82019284871062000a45575b0160051c019086905b82811062000a385750506200095d565b6000815501869062000a28565b9250819262000a1f565b01519050388062000926565b90601f19831691846000528b6000209260005b8d82821062000aaf575050908487959493921062000a95575b505050811b0181556200093a565b015160001960f88460031b161c1916905538808062000a87565b8385015186558c9890950194938401930162000a6e565b909192809450600052896000208580850160051c8201928c861062000b11575b908a9695949392910160051c01905b81811062000b0457506200090d565b6000815589950162000af5565b9250819262000ae6565b634e487b7160e01b600052600060045260246000fd5b62000b3c816200085c565b50604090815190816000825462000b5381620007d1565b8084529360019180831690811562000c3a575060011462000bf5575b505062000b7f9250038262000709565b81519062000bd26020918362000b99848201928362000c5f565b039362000baf601f199586810183528262000709565b5190209351918201928262000bc58b8662000c5f565b0390810183528262000709565b5190201462000bec5762000be69062000836565b62000885565b50600093505050565b90915060005260209283600020916000925b82841062000c23575050509162000b7f92820101388062000b6f565b805487850187015286945092850192810162000c07565b935050505062000b7f9260209160ff191682840152151560051b820101388062000b6f565b6040916020825262000c8181518092816020860152602086860191016200075f565b601f01601f191601019056fe608060408181526004918236101561001657600080fd5b600092833560e01c91826301ffc9a71461171c5750816306fdde03146116495781630752175414611617578163081812fc146115f7578163095ea7b31461151557816309c3dd87146114875781630f485c021461110957816313d19950146110ed57816318160ddd146110ce57816323b872dd146110a9578163263f3e7e146110895781632f745c5914610fdf578163310ed7f014610f58578163381c4fce14610f085781633e7e866914610ee6578163404b6e9f14610eac57816342842e0e14610e89578163430c208114610e4b578163449d077214610d935781634f6ccce714610d14578163582939e514610cd15781636352211e14610ca057816370a0823114610c7a578163840f711314610c515781638c7a63ae14610bb25781638cb0a51114610b085781638f28397014610a5957816395d89b4114610984578163968e8a131461094a5781639c0e9a5d1461092e5781639cc7f7081461090e578163a22cb4651461083f578163a30fb020146107da578163a6a2d1dd1461075b578163b3875b9514610732578163b88d4fde146106d0578163bff2ed7114610685578163c87b56dd1461055a578163dee9f53f14610517578163e345e0bc146104e5578163e8a3d4851461027857508063e985e9c5146102285763f851a440146101fe57600080fd5b34610224578160031936011261022457905490516001600160a01b039091168152602090f35b5080fd5b503461022457806003193601126102245760ff81602093610247611817565b61024f611832565b6001600160a01b039182168352600a875283832091168252600201855220549151911615158152f35b9050346104e157826003193601126104e1578151610295816118b6565b838152600b546001600160a01b031690811561031b57508390835192838092631c97e82760e21b82525afa90811561030f57836102e894926102ec575b5050905b519182916020835260208301906117f2565b0390f35b61030892503d8091833e61030081836118d1565b81019061238e565b38806102d2565b505051903d90823e3d90fd5b929391905081156104c65783513091606082016001600160401b038111838210176104b1578652602a8252602092838301948736873783511561049e576030865383519060019182101561048b5790607860218601536029915b818311610420575050506103df5750849368636f6e74726163742f60b81b936103d9936103ca6029946102e8995197856103b88a9751809287808b0191016117cf565b860193840152518093868401906117cf565b010360098101845201826118d1565b906102d6565b606490838088519262461bcd60e51b845283015260248201527f537472696e67733a20686578206c656e67746820696e73756666696369656e746044820152fd5b909192600f81166010811015610478576f181899199a1a9b1b9c1cb0b131b232b360811b901a61045085886123f9565b53841c92801561046557600019019190610375565b634e487b7160e01b825260118552602482fd5b634e487b7160e01b835260328652602483fd5b634e487b7160e01b815260328452602490fd5b634e487b7160e01b815260328352602490fd5b604182634e487b7160e01b6000525260246000fd5b505050806102e891516104d8816118b6565b600081526103d9565b8280fd5b8284346105145781600319360112610514575061050d602092610506611832565b9035612462565b9051908152f35b80fd5b9050346104e15760203660031901126104e15781602093610551923561054461053f826126c2565b6122e2565b815260098552205461227d565b50549051908152f35b9050346104e1576020908160031936011261068157803561057d61053f826126c2565b835191610589836118b6565b858352600b546001600160a01b031692831561060a57509060248692865194859384926344a5a61760e11b84528301525afa9081156105fd57846102e8939495926105e2575b5050925b519282849384528301906117f2565b6105f692503d8091833e61030081836118d1565b38806105cf565b50505051903d90823e3d90fd5b9250508483949550600014610667576102e89261062961066192611d8b565b928651938161064186935180928680870191016117cf565b8201610655825180938680850191016117cf565b010380845201826118d1565b926105d3565b5050506102e88251610678816118b6565b60008152610661565b8380fd5b8284346105145760206106ca8361069b366119da565b906106b460018060a09795971b03600154163314611bb7565b60065480956106c282611c1c565b6006556126f0565b51908152f35b83906080366003190112610224576106e6611817565b6106ee611832565b906064356001600160401b03811161072e573660238201121561072e5761072b938160246107219336930135910161190d565b9160443591612577565b80f35b8480fd5b50503461022457816003193601126102245760015490516001600160a01b039091168152602090f35b82843461051457606036600319011261051457610776611817565b926001600160401b03602435818111610681576107969036908401611b34565b926044359182116105145750916107b6602095926107d194369101611b34565b916107cc60018060a01b03600154163314611bb7565b611c55565b90519015158152f35b83915034610224576020366003190112610224573590600254821015610514575061080490611a04565b50906102e861081e600161081785611a8e565b9401611a8e565b61083183519484869586528501906117f2565b9083820360208501526117f2565b919050346104e157806003193601126104e15761085a611817565b906024359182151580930361072e576001600160a01b0316923384146108cc5750338452600a60205260028185200183855260205280842060ff1981541660ff8416179055519081527f17307eab39ab6107e8899845ad3d59bd9653f200f220920489ca2b5937696c3160203392a380f35b6020606492519162461bcd60e51b8352820152601c60248201527f43544d5257413030313a20617070726f766520746f2063616c6c6572000000006044820152fd5b828434610514576020366003190112610514575061050d602092356122b8565b505034610224576020906107d161094436611962565b9061220a565b505034610224573660031901126105145761072b610966611817565b61097b60018060a01b03600154163314611bb7565b60243590612bb7565b919050346104e157826003193601126104e157805191838154906109a782611a54565b80865292600192808416908115610a2e57506001146109d2575b6102e886866102d6828b03836118d1565b815294507f8a35acfbc15ff81a39ae7d344fd709f28e8600b4aa8c65c6b64bfe7fe36bd19b5b828610610a16575050506102d68260206102e89582010194386109c1565b805460208787018101919091529095019481016109f8565b90506102e89750869350602092506102d694915060ff191682840152151560051b82010194386109c1565b82843461051457602036600319011261051457610a74611817565b8154906001600160a01b03908183163303610ab45760209550610a9c82600154163314611bb7565b16906001600160601b0360a01b161790555160018152f35b845162461bcd60e51b8152602081880152602860248201527f43544d5257413030313a205468697320697320616e206f6e6c7941646d696e20604482015267333ab731ba34b7b760c11b6064820152608490fd5b839150610b1436611848565b92909190610b386001600160a01b0380610b2d8561232e565b16908516141561240a565b610b428233612644565b15610b53575061072b939450612c21565b608490602087519162461bcd60e51b8352820152603360248201527f43544d5257413030313a20617070726f76652063616c6c6572206973206e6f74604482015272081bdddb995c881b9bdc88185c1c1c9bdd9959606a1b6064820152fd5b83833461022457602090816003193601126104e1576080933590610bd861053f836126c2565b81845260098352610beb8185205461227d565b505493828152600984526001610c3b836002610c098286205461227d565b5001549386815260098852610c208282205461227d565b506003858060a01b039101541696815260098852205461227d565b5001549382519586528501528301526060820152f35b505034610224578160031936011261022457600b5490516001600160a01b039091168152602090f35b5050346102245760203660031901126102245760209061050d610c9b611817565b612493565b8284346105145760203660031901126105145750610cc06020923561232e565b90516001600160a01b039091168152f35b83346105145760803660031901126105145761072b610cee611817565b610d0360018060a01b03600154163314611bb7565b6064359060443590602435906126f0565b905082346105145760203660031901126105145750803590600854821015610d42576020836105518461227d565b608490602084519162461bcd60e51b8352820152602560248201527f43544d5257413030313a20676c6f62616c20696e646578206f7574206f6620626044820152646f756e647360d81b6064820152fd5b8391503461022457610da4366119da565b9092610db08385612462565b90610dbb8585612644565b1580610e3f575b610dca578580f35b828210610df25750610de894955090610de2916126b5565b91612c21565b8082808080808580f35b608490602088519162461bcd60e51b8352820152602160248201527f43544d5257413030313a20696e73756666696369656e7420616c6c6f77616e636044820152606560f81b6064820152fd5b50600019821415610dc2565b5050346102245780600319360112610224576020906107d1610e6b611817565b610e8060018060a01b03600154163314611bb7565b60243590612644565b8361072b84610e97366119a5565b91925192610ea4846118b6565b858452612577565b505034610224573660031901126105145761072b610ec8611817565b610edd60018060a01b03600154163314611bb7565b60243590612aa0565b50503461022457816003193601126102245760209060ff600554169051908152f35b828434610514576020366003190112610514578235906001600160401b0382116105145750610f406102e893610f4592369101611944565b61219c565b90519182916020835260208301906117f2565b83915060603660031901126102245780359260443591303b1561068157815163224e83b960e11b81523391810191825260208201869052604082018490529190849083908190606001038183305af1908115610fd65750610fc3575b5061072b919260243590612e88565b91610fd061072b93611872565b91610fb4565b513d85823e3d90fd5b90508234610514578260031936011261051457610ffa611817565b6024359261100782612493565b84101561103a5760208561102c8682878760018060a01b03168152600a86522061262c565b91905490519160031b1c8152f35b608490602086519162461bcd60e51b83528201526024808201527f43544d5257413030313a206f776e657220696e646578206f7574206f6620626f604482015263756e647360e01b6064820152fd5b828434610514576020366003190112610514575061050d6020923561236a565b8361072b6110b6366119a5565b916110c96110c48433612644565b61250e565b61311f565b5050346102245781600319360112610224576020906008549051908152f35b505034610224576020906107d161110336611962565b90613558565b828461111436611848565b919092303b1561051457845163224e83b960e11b8152338782019081526020810184905260408101859052829082908190606001038183305af1801561147d5761146e575b506006549361116785611c1c565b6006556111738361236a565b906001600160a01b038082169190821561141f5787156113d057611196886126c2565b61138d579688998998829a51906111ac826118b6565b8782528a516111ba8161189b565b8481528860209e8f968784018b81528285019184835260608601938c8552608087019580875260a08801998a5260096008549c8d948352522055600160401b89101561137a576112116001998a810160085561227d565b95909561136857906005959493929151855551898501555160028401558460038401915116906001600160601b0360a01b918282541617905584878401925116908254161790550191518051936001600160401b038511611355575082918e80928f9b9d9c9a99989796958661128691612b83565b01928c52818c20918c905b85821061133e575050505050505091846106ca97926112b18280966129f1565b837fddf252ad1be2c89b69c2b068fc378daa952ba7f163c4a11628f55a4df523b3ef8180a481837fe4f48c240d3b994948aa54f3e2f5fca59263dfe1d52b6e4cf39a5d249b5ccb658280a48181526009895261130f8782205461227d565b50507f0b2aac84f3ec956911fd78eae5311062972ff949f38412e8da39069d9f068cc6898851838152a3612e88565b84518316828501558f9b509093019285018f611291565b634e487b7160e01b8a5260419052602489fd5b634e487b7160e01b8e528d895260248efd5b634e487b7160e01b8d526041885260248dfd5b885162461bcd60e51b81526020818c0152601f60248201527f43544d5257413030313a20746f6b656e20616c7265616479206d696e746564006044820152606490fd5b885162461bcd60e51b81526020818c0152602360248201527f43544d5257413030313a2063616e6e6f74206d696e74207a65726f20746f6b656044820152621b925960ea1b6064820152608490fd5b885162461bcd60e51b81526020818c0152602360248201527f43544d5257413030313a206d696e7420746f20746865207a65726f206164647260448201526265737360e81b6064820152608490fd5b61147790611872565b86611159565b86513d84823e3d90fd5b9050346104e15760203660031901126104e1578282516114a6816118b6565b52600b546001600160a01b03169081156114fc5783906024845180948193633601bfc560e11b83528035908301525afa90811561030f57836102e894926102ec57505090519182916020835260208301906117f2565b505080516102e89261150d826118b6565b8152906102d6565b839150826003193601126102245761152b611817565b602435916001600160a01b03611550816115448661232e565b1680928516141561240a565b8033149081156115d5575b501561156c57509061072b91612bb7565b608490602086519162461bcd60e51b8352820152603b60248201527f43544d5257413030313a20617070726f76652063616c6c6572206973206e6f7460448201527f206f776e6572206e6f7220617070726f76656420666f7220616c6c00000000006064820152fd5b90508452600a60205260028585200133855260205260ff85852054168661155b565b8284346105145760203660031901126105145750610cc0602092356125f9565b8390346102245760203660031901126102245761072b9061164360018060a01b03600154163314611bb7565b35612d5f565b5050346102245781600319360112610224578051908260035461166b81611a54565b808552916001918083169081156116f45750600114611697575b5050506102d6826102e89403836118d1565b9450600385527fc2575a0e9e593c00f959f8c92f12db2869c3395a3b0502d05e2516446f71f85b5b8286106116dc575050506102d68260206102e89582010194611685565b805460208787018101919091529095019481016116bf565b6102e89750869350602092506102d694915060ff191682840152151560051b82010194611685565b8491346104e15760203660031901126104e1573563ffffffff60e01b81168091036104e157602092506301ffc9a760e01b81149081156117be575b81156117ad575b811561179c575b811561178b575b811561177a575b5015158152f35b635b5e139f60e01b14905083611773565b63780e9d6360e01b8114915061176c565b6370b0048160e11b81149150611765565b6380ac58cd60e01b8114915061175e565b630354d60560e61b81149150611757565b60005b8381106117e25750506000910152565b81810151838201526020016117d2565b9060209161180b815180928185528580860191016117cf565b601f01601f1916010190565b600435906001600160a01b038216820361182d57565b600080fd5b602435906001600160a01b038216820361182d57565b606090600319011261182d57600435906024356001600160a01b038116810361182d579060443590565b6001600160401b03811161188557604052565b634e487b7160e01b600052604160045260246000fd5b60c081019081106001600160401b0382111761188557604052565b602081019081106001600160401b0382111761188557604052565b90601f801991011681019081106001600160401b0382111761188557604052565b6001600160401b03811161188557601f01601f191660200190565b929192611919826118f2565b9161192760405193846118d1565b82948184528183011161182d578281602093846000960137010152565b9080601f8301121561182d5781602061195f9335910161190d565b90565b90604060031983011261182d576001600160401b0360043581811161182d578361198e91600401611944565b9260243591821161182d5761195f91600401611944565b606090600319011261182d576001600160a01b0390600435828116810361182d5791602435908116810361182d579060443590565b606090600319011261182d576004356001600160a01b038116810361182d57906024359060443590565b600254811015611a3e57600260005260011b7f405787fa12a823e0f2b7631cc41b3ba8828b3321ca811111fa75cd3aa3bb5ace0190600090565b634e487b7160e01b600052603260045260246000fd5b90600182811c92168015611a84575b6020831014611a6e57565b634e487b7160e01b600052602260045260246000fd5b91607f1691611a63565b9060405191826000825492611aa284611a54565b908184526001948581169081600014611b115750600114611ace575b5050611acc925003836118d1565b565b9093915060005260209081600020936000915b818310611af9575050611acc93508201013880611abe565b85548884018501529485019487945091830191611ae1565b915050611acc94506020925060ff191682840152151560051b8201013880611abe565b9080601f8301121561182d578135906001600160401b0392838311611885578260051b60405194602094611b6a868401886118d1565b865284808701928401019380851161182d57858401925b858410611b92575050505050505090565b833583811161182d578791611bac848480948a0101611944565b815201930192611b81565b15611bbe57565b60405162461bcd60e51b815260206004820152603060248201527f43544d5257413030313a20546869732063616e206f6e6c792062652063616c6c60448201526f0cac840c4f24086a89aa4ae82606062b60831b6064820152608490fd5b6000198114611c2b5760010190565b634e487b7160e01b600052601160045260246000fd5b8051821015611a3e5760209160051b010190565b600080549293909290916001600160a01b03918216911603611d46578251815103611ce357815b8351811015611cda57611c9c611c928286611c41565b5161110346611d8b565b15611cb0575b611cab90611c1c565b611c7c565b611ccf611cbd8286611c41565b51611cc88385611c41565b5190611f0a565b611ca2575050905090565b50505050600190565b60405162461bcd60e51b815260206004820152603560248201527f43544d5257413030313a204c656e677468206d69736d6174636820636861696e60448201527449647320616e6420636f6e7472616374416464727360581b6064820152608490fd5b60405162461bcd60e51b815260206004820152601e60248201527f43544d525741303031583a2041646d696e4f6e6c792066756e6374696f6e00006044820152606490fd5b806000917a184f03e93ff9f4daa797ed6e38ed64bf6a1f01000000000000000080821015611ee5575b506d04ee2d6d415b85acef810000000080831015611ed6575b50662386f26fc1000080831015611ec7575b506305f5e10080831015611eb8575b5061271080831015611ea9575b506064821015611e99575b600a80921015611e8f575b60019081602181860195611e24876118f2565b96611e3260405198896118d1565b808852611e41601f19916118f2565b01366020890137860101905b611e59575b5050505090565b600019019083906f181899199a1a9b1b9c1cb0b131b232b360811b8282061a835304918215611e8a57919082611e4d565b611e52565b9160010191611e11565b9190606460029104910191611e06565b60049193920491019138611dfb565b60089193920491019138611dee565b60109193920491019138611ddf565b60209193920491019138611dcd565b604093508104915038611db4565b818110611efe575050565b60008155600101611ef3565b60025490929160005b828110612166575060408051946001600160401b0391860182811187821017611885576040528552602094858101928352600160401b84101561188557611f61600194858101600255611a04565b919091612150575190815190838211611885578591611f808254611a54565b93601f948a868211612121575b505089908583116001146120bb5760009190836120b0575b5050600019600383901b1c191690831b1781555b01925195865192831161188557611fd08454611a54565b828111612078575b508091831160011461201357508192939495600092612008575b5050600019600383901b1c191690831b17905590565b015190503880611ff2565b90601f198316968460005282600020926000905b8982106120615750508386979896959610612048575b505050811b01905590565b015160001960f88460031b161c1916905538808061203d565b808885968294968601518155019501930190612027565b6120a19085600052826000208480870160051c8201928588106120a7575b0160051c0190611ef3565b38611fd8565b92508192612096565b015190503880611fa5565b90601f19831691846000528b6000209260005b8d82821061210b57505090848795949392106120f2575b505050811b018155611fb9565b015160001960f88460031b161c191690553880806120e5565b8385015186558c989095019493840193016120ce565b612149918560005287826000209181870160051c83019387106120a7570160051c0190611ef3565b388a611f8d565b634e487b7160e01b600052600060045260246000fd5b6121818561217c61217684611a04565b50611a8e565b613558565b6121935761218e90611c1c565b611f13565b50600093505050565b6002549060005b8281106121c0575050506040516121b9816118b6565b6000815290565b6121df6121cc82611a04565b5061217c6121d9856135bd565b91611a8e565b6121f1576121ec90611c1c565b6121a3565b61195f92506001915061220390611a04565b5001611a8e565b61221661221c916135bd565b916135bd565b6002549160005b8381106122335750505050600090565b61224861224261217683611a04565b83613558565b80612260575b611cda5761225b90611c1c565b612223565b50612278612272600161220384611a04565b84613558565b61224e565b600854811015611a3e576006906008600052027ff3f7a9fe364faab93b216da50a3214154f22a0a2b415b23a84c8169e8b636ee30190600090565b6122c461053f826126c2565b600052600960205260026122dc60406000205461227d565b50015490565b156122e957565b60405162461bcd60e51b815260206004820152601b60248201527f43544d5257413030313a20696e76616c696420746f6b656e20494400000000006044820152606490fd5b61233a61053f826126c2565b600052600960205261235060406000205461227d565b50600301546001600160a01b031690611acc8215156122e2565b61237661053f826126c2565b600052600960205260016122dc60406000205461227d565b60208183031261182d578051906001600160401b03821161182d570181601f8201121561182d5780516123c0816118f2565b926123ce60405194856118d1565b8184526020828401011161182d5761195f91602080850191016117cf565b91908201809211611c2b57565b908151811015611a3e570160200190565b1561241157565b60405162461bcd60e51b8152602060048201526024808201527f43544d5257413030313a20617070726f76616c20746f2063757272656e74206f6044820152633bb732b960e11b6064820152608490fd5b61246e61053f826126c2565b600052600760205260406000209060018060a01b031660005260205260406000205490565b6001600160a01b031680156124b357600052600a60205260406000205490565b60405162461bcd60e51b815260206004820152602d60248201527f43544d5257413030313a2062616c616e636520717565727920666f722074686560448201526c207a65726f206164647265737360981b6064820152608490fd5b1561251557565b60405162461bcd60e51b815260206004820152603460248201527f43544d5257413030313a207472616e736665722063616c6c6572206973206e6f6044820152731d081bdddb995c881b9bdc88185c1c1c9bdd995960621b6064820152608490fd5b9061259b93929161258b6110c48433612644565b61259683838361311f565b61344a565b156125a257565b60405162461bcd60e51b815260206004820152602960248201527f43544d5257413030313a207472616e7366657220746f206e6f6e20455243373260448201526818a932b1b2b4bb32b960b91b6064820152608490fd5b61260561053f826126c2565b600052600960205261261b60406000205461227d565b50600401546001600160a01b031690565b8054821015611a3e5760005260206000200190600090565b906001600160a01b0380806126588461232e565b1693169183831493841561268b575b508315612675575b50505090565b612681919293506125f9565b161438808061266f565b909350600052600a60205260026040600020018260005260205260ff604060002054169238612667565b91908203918211611c2b57565b600854151590816126d1575090565b80915060005260096020526126ea60406000205461227d565b50541490565b6001600160a01b038082169594929390929086156129a057841561294f57612717856126c2565b61290a5760409081519361272a856118b6565b60009586865283519061273c8261189b565b88825260209682898d8c8b8097018981528a850191848352606086019384528b608087019580875260a0880198895260096008549b8c948352522055600160401b8810156128f65761279560019889810160085561227d565b9590956128e257906005959493929151855551888501555160028401558560038401915116906001600160601b0360a01b9182825416179055856004840192511690825416179055019051918251926001600160401b0384116128ce5789906127fe8585612b83565b01918a52888a20908a5b8481106128bb5750505050505095809798612845827f0b2aac84f3ec956911fd78eae5311062972ff949f38412e8da39069d9f068cc698996129f1565b877fddf252ad1be2c89b69c2b068fc378daa952ba7f163c4a11628f55a4df523b3ef8180a485877fe4f48c240d3b994948aa54f3e2f5fca59263dfe1d52b6e4cf39a5d249b5ccb658280a48585526009835260026128a58287205461227d565b50016128b28382546123ec565b905551908152a3565b8351821683820155928a01928501612808565b634e487b7160e01b8b52604160045260248bfd5b634e487b7160e01b8f5260048f905260248ffd5b634e487b7160e01b8e52604160045260248efd5b60405162461bcd60e51b815260206004820152601f60248201527f43544d5257413030313a20746f6b656e20616c7265616479206d696e746564006044820152606490fd5b60405162461bcd60e51b815260206004820152602360248201527f43544d5257413030313a2063616e6e6f74206d696e74207a65726f20746f6b656044820152621b925960ea1b6064820152608490fd5b60405162461bcd60e51b815260206004820152602360248201527f43544d5257413030313a206d696e7420746f20746865207a65726f206164647260448201526265737360e81b6064820152608490fd5b60009082825260096020526003612a0b604084205461227d565b500180546001600160a01b0319166001600160a01b039092169182179055808252600a602081815260408085208054878752600191909101835281862055928452528120805491600160401b831015612a8c575081612a73916001611acc959401815561262c565b90919082549060031b91821b91600019901b1916179055565b634e487b7160e01b81526041600452602490fd5b60009082825260096020526003612aba604084205461227d565b500180546001600160a01b03191690556001600160a01b03168152600a6020526040812080546000199391929190848101908111612b6f57612afc908461262c565b90549060031b1c6001840182845280602052604084205491612b2281612a73858961262c565b8452602052604083205581528060408120558154908115612b5b5750820191612b4b838361262c565b909182549160031b1b1916905555565b634e487b7160e01b81526031600452602490fd5b634e487b7160e01b83526011600452602483fd5b90600160401b811161188557815490808355818110612ba157505050565b611acc9260005260206000209182019101611ef3565b8160005260096020526004612bd060406000205461227d565b500180546001600160a01b0319166001600160a01b0392831690811790915590612bf98361232e565b167f8c5be1e5ebec7d5bd14f71427d1e84f3dd0314c0f7b2291e5b200ac8c7c3b925600080a4565b6001600160a01b038083169391928415612d055783612c3f91612df7565b15612c8d575b5060207f621b050de0ad08b51d19b48b3e6df75348c4de6bdd93e81b252ca62e28265b1b918360005260078252604060002085600052825280604060002055604051908152a3565b8260005260096020526005612ca660406000205461227d565b500191825491600160401b83101561188557612ceb837f621b050de0ad08b51d19b48b3e6df75348c4de6bdd93e81b252ca62e28265b1b95600160209601815561262c565b819291549060031b9188831b921b19161790559150612c45565b60405162461bcd60e51b815260206004820152602c60248201527f43544d5257413030313a20617070726f76652076616c756520746f207468652060448201526b7a65726f206164647265737360a01b6064820152608490fd5b60008181526020600981526040926005612d7b8585205461227d565b500193845491845b838110612db9575050505082549180845582612da0575b50505050565b612db09381522090810190611ef3565b38808080612d9a565b80612dc7612df2928961262c565b90548489526007885285892060039290921b1c6001600160a01b031688528652838720879055611c1c565b612d83565b6000908282526009602090808252604090612e148286205461227d565b509260058094015496865b888110612e325750505050505050905090565b818852838352612e508187612e49888c205461227d565b500161262c565b905460039190911b1c6001600160a01b0390811690881614612e7a57612e7590611c1c565b612e1f565b505050505050505050600190565b612e91816126c2565b156130c857612e9f826126c2565b15613073578060005260209260098452604092612ebf846000205461227d565b508160005260098652612ed5856000205461227d565b5090600281019081549085821061301a5760010154600184015403612fbd5791600291612f0886612f57989796956126b5565b905501612f168382546123ec565b905580837f0b2aac84f3ec956911fd78eae5311062972ff949f38412e8da39069d9f068cc6888851868152a3845192612f4e846118b6565b600084526132f1565b15612f60575050565b60849250519062461bcd60e51b82526004820152603160248201527f43544d5257413030313a207472616e736665722072656a65637465642062792060448201527021aa26a92ba0981818a932b1b2b4bb32b960791b6064820152fd5b865162461bcd60e51b815260048101899052603060248201527f43544d5257413030313a207472616e7366657220746f20746f6b656e2077697460448201526f1a08191a5999995c995b9d081cdb1bdd60821b6064820152608490fd5b875162461bcd60e51b8152600481018a9052602c60248201527f43544d5257413030313a20696e73756666696369656e742062616c616e63652060448201526b3337b9103a3930b739b332b960a11b6064820152608490fd5b60405162461bcd60e51b815260206004820152602760248201527f43544d5257413030313a207472616e7366657220746f20696e76616c696420746044820152661bdad95b88125160ca1b6064820152608490fd5b60405162461bcd60e51b815260206004820152602960248201527f43544d5257413030313a207472616e736665722066726f6d20696e76616c6964604482015268081d1bdad95b88125160ba1b6064820152608490fd5b6131288361232e565b6001600160a01b038083169291811683900361324d578084169384156131f857856131f4916131ef827fddf252ad1be2c89b69c2b068fc378daa952ba7f163c4a11628f55a4df523b3ef9661317c8261236a565b50613186826122b8565b508160008098828252600960205260046131a3604084205461227d565b500180546001600160a01b03191690556131bc8361232e565b167f8c5be1e5ebec7d5bd14f71427d1e84f3dd0314c0f7b2291e5b200ac8c7c3b9258280a46131ea82612d5f565b612aa0565b6129f1565b80a4565b60405162461bcd60e51b815260206004820152602760248201527f43544d5257413030313a207472616e7366657220746f20746865207a65726f206044820152666164647265737360c81b6064820152608490fd5b60405162461bcd60e51b815260206004820152602660248201527f43544d5257413030313a207472616e736665722066726f6d20696e76616c69646044820152651037bbb732b960d11b6064820152608490fd5b9081602091031261182d57516001600160e01b03198116810361182d5790565b3d156132ec573d906132d2826118f2565b916132e060405193846118d1565b82523d6000602084013e565b606090565b9290926132fd8461232e565b803b63ffffffff1615613440576040516301ffc9a760e01b8152633abe4f5560e21b6004820181905295602095926001600160a01b0316918681602481865afa809160009161340a575b509061336357505050505050505061335d6132c1565b50600190565b156133fe57600086946133a2604051978896879586948d865233600487015260248601526044850152606484015260a0608484015260a48301906117f2565b03925af19182156133f2576000926133c5575b50506001600160e01b0319161490565b6133e49250803d106133eb575b6133dc81836118d1565b8101906132a1565b38806133b5565b503d6133d2565b6040513d6000823e3d90fd5b50505050505050600190565b8881813d8311613439575b61341f81836118d1565b810103126102245751908115158203610514575038613347565b503d613415565b5050505050600190565b9192813b63ffffffff1615611cda576020916134a2916000604051958680958194630a85bd0160e11b9a8b845233600485015260018060a01b03809516602485015260448401526080606484015260848301906117f2565b0393165af160009181613538575b5061352a576134bd6132c1565b805190816135255760405162461bcd60e51b815260206004820152603260248201527f4552433732313a207472616e7366657220746f206e6f6e20455243373231526560448201527131b2b4bb32b91034b6b83632b6b2b73a32b960711b6064820152608490fd5b602001fd5b6001600160e01b0319161490565b61355191925060203d81116133eb576133dc81836118d1565b90386134b0565b90604051918261357460208201926020845260408301906117f2565b0392613588601f19948581018352826118d1565b519020916135b660405191826135aa60208201956020875260408301906117f2565b039081018352826118d1565b5190201490565b9081516135c9816118f2565b906135d760405192836118d1565b8082526135e6601f19916118f2565b01602090368284013760005b84518110156136995761360581866123f9565b5190604160f892831c101580613682575b1561365b578261362682886123f9565b51831c019160ff8311611c2b5761365692901b6001600160f81b03191660001a61365082866123f9565b53611c1c565b6135f2565b61365691506001600160f81b031961367382886123f9565b511660001a61365082866123f9565b50605a61368f82886123f9565b51831c1115613616565b509092505056fea26469706673582212203a265ea09dbcb7075de48a2c84eb2d88b627f143983df69ddb0694b6de340c9764736f6c63430008140033",
  "linkReferences": {},
  "deployedLinkReferences": {}
}