{
  "_format": "hh-sol-artifact-1",
  "contractName": "CTMRWA001",
  "sourceName": "contracts/CTMRWA001.sol",
  "abi": [
    {
      "inputs": [
        {
          "internalType": "string",
          "name": "tokenName_",
          "type": "string"
        },
        {
          "internalType": "string",
          "name": "symbol_",
          "type": "string"
        },
        {
          "internalType": "uint8",
          "name": "decimals_",
          "type": "uint8"
        },
        {
          "internalType": "address",
          "name": "_feeManager",
          "type": "address"
        },
        {
          "internalType": "address",
          "name": "_gov",
          "type": "address"
        },
        {
          "internalType": "address",
          "name": "_c3callerProxy",
          "type": "address"
        },
        {
          "internalType": "address",
          "name": "_txSender",
          "type": "address"
        },
        {
          "internalType": "uint256",
          "name": "_dappID",
          "type": "uint256"
        }
      ],
      "stateMutability": "nonpayable",
      "type": "constructor"
    },
    {
      "anonymous": false,
      "inputs": [
        {
          "indexed": true,
          "internalType": "address",
          "name": "_owner",
          "type": "address"
        },
        {
          "indexed": true,
          "internalType": "address",
          "name": "_approved",
          "type": "address"
        },
        {
          "indexed": true,
          "internalType": "uint256",
          "name": "_tokenId",
          "type": "uint256"
        }
      ],
      "name": "Approval",
      "type": "event"
    },
    {
      "anonymous": false,
      "inputs": [
        {
          "indexed": true,
          "internalType": "address",
          "name": "_owner",
          "type": "address"
        },
        {
          "indexed": true,
          "internalType": "address",
          "name": "_operator",
          "type": "address"
        },
        {
          "indexed": false,
          "internalType": "bool",
          "name": "_approved",
          "type": "bool"
        }
      ],
      "name": "ApprovalForAll",
      "type": "event"
    },
    {
      "anonymous": false,
      "inputs": [
        {
          "indexed": true,
          "internalType": "uint256",
          "name": "_tokenId",
          "type": "uint256"
        },
        {
          "indexed": true,
          "internalType": "address",
          "name": "_operator",
          "type": "address"
        },
        {
          "indexed": false,
          "internalType": "uint256",
          "name": "_value",
          "type": "uint256"
        }
      ],
      "name": "ApprovalValue",
      "type": "event"
    },
    {
      "anonymous": false,
      "inputs": [
        {
          "indexed": true,
          "internalType": "address",
          "name": "oldGov",
          "type": "address"
        },
        {
          "indexed": true,
          "internalType": "address",
          "name": "newGov",
          "type": "address"
        },
        {
          "indexed": true,
          "internalType": "uint256",
          "name": "effectiveTime",
          "type": "uint256"
        },
        {
          "indexed": false,
          "internalType": "uint256",
          "name": "chainID",
          "type": "uint256"
        }
      ],
      "name": "LogChangeGov",
      "type": "event"
    },
    {
      "anonymous": false,
      "inputs": [
        {
          "indexed": false,
          "internalType": "bytes4",
          "name": "selector",
          "type": "bytes4"
        },
        {
          "indexed": false,
          "internalType": "bytes",
          "name": "data",
          "type": "bytes"
        },
        {
          "indexed": false,
          "internalType": "bytes",
          "name": "reason",
          "type": "bytes"
        }
      ],
      "name": "LogFallback",
      "type": "event"
    },
    {
      "anonymous": false,
      "inputs": [
        {
          "indexed": true,
          "internalType": "address",
          "name": "txSender",
          "type": "address"
        },
        {
          "indexed": false,
          "internalType": "bool",
          "name": "vaild",
          "type": "bool"
        }
      ],
      "name": "LogTxSender",
      "type": "event"
    },
    {
      "anonymous": false,
      "inputs": [
        {
          "indexed": true,
          "internalType": "address",
          "name": "metadataDescriptor",
          "type": "address"
        }
      ],
      "name": "SetMetadataDescriptor",
      "type": "event"
    },
    {
      "anonymous": false,
      "inputs": [
        {
          "indexed": true,
          "internalType": "uint256",
          "name": "_tokenId",
          "type": "uint256"
        },
        {
          "indexed": true,
          "internalType": "uint256",
          "name": "_oldSlot",
          "type": "uint256"
        },
        {
          "indexed": true,
          "internalType": "uint256",
          "name": "_newSlot",
          "type": "uint256"
        }
      ],
      "name": "SlotChanged",
      "type": "event"
    },
    {
      "anonymous": false,
      "inputs": [
        {
          "indexed": true,
          "internalType": "address",
          "name": "_from",
          "type": "address"
        },
        {
          "indexed": true,
          "internalType": "address",
          "name": "_to",
          "type": "address"
        },
        {
          "indexed": true,
          "internalType": "uint256",
          "name": "_tokenId",
          "type": "uint256"
        }
      ],
      "name": "Transfer",
      "type": "event"
    },
    {
      "anonymous": false,
      "inputs": [
        {
          "indexed": true,
          "internalType": "uint256",
          "name": "_fromTokenId",
          "type": "uint256"
        },
        {
          "indexed": true,
          "internalType": "uint256",
          "name": "_toTokenId",
          "type": "uint256"
        },
        {
          "indexed": false,
          "internalType": "uint256",
          "name": "_value",
          "type": "uint256"
        }
      ],
      "name": "TransferValue",
      "type": "event"
    },
    {
      "inputs": [
        {
          "internalType": "address",
          "name": "txSender",
          "type": "address"
        }
      ],
      "name": "addTxSender",
      "outputs": [],
      "stateMutability": "nonpayable",
      "type": "function"
    },
    {
      "inputs": [
        {
          "internalType": "uint256",
          "name": "tokenId_",
          "type": "uint256"
        },
        {
          "internalType": "address",
          "name": "operator_",
          "type": "address"
        }
      ],
      "name": "allowance",
      "outputs": [
        {
          "internalType": "uint256",
          "name": "",
          "type": "uint256"
        }
      ],
      "stateMutability": "view",
      "type": "function"
    },
    {
      "inputs": [
        {
          "internalType": "address",
          "name": "to_",
          "type": "address"
        },
        {
          "internalType": "uint256",
          "name": "tokenId_",
          "type": "uint256"
        }
      ],
      "name": "approve",
      "outputs": [],
      "stateMutability": "payable",
      "type": "function"
    },
    {
      "inputs": [
        {
          "internalType": "uint256",
          "name": "tokenId_",
          "type": "uint256"
        },
        {
          "internalType": "address",
          "name": "to_",
          "type": "address"
        },
        {
          "internalType": "uint256",
          "name": "value_",
          "type": "uint256"
        }
      ],
      "name": "approve",
      "outputs": [],
      "stateMutability": "payable",
      "type": "function"
    },
    {
      "inputs": [
        {
          "internalType": "address",
          "name": "owner_",
          "type": "address"
        }
      ],
      "name": "balanceOf",
      "outputs": [
        {
          "internalType": "uint256",
          "name": "balance",
          "type": "uint256"
        }
      ],
      "stateMutability": "view",
      "type": "function"
    },
    {
      "inputs": [
        {
          "internalType": "uint256",
          "name": "tokenId_",
          "type": "uint256"
        }
      ],
      "name": "balanceOf",
      "outputs": [
        {
          "internalType": "uint256",
          "name": "",
          "type": "uint256"
        }
      ],
      "stateMutability": "view",
      "type": "function"
    },
    {
      "inputs": [],
      "name": "c3CallerProxy",
      "outputs": [
        {
          "internalType": "address",
          "name": "",
          "type": "address"
        }
      ],
      "stateMutability": "view",
      "type": "function"
    },
    {
      "inputs": [
        {
          "internalType": "uint256",
          "name": "_dappID",
          "type": "uint256"
        },
        {
          "internalType": "bytes",
          "name": "_data",
          "type": "bytes"
        },
        {
          "internalType": "bytes",
          "name": "_reason",
          "type": "bytes"
        }
      ],
      "name": "c3Fallback",
      "outputs": [
        {
          "internalType": "bool",
          "name": "",
          "type": "bool"
        }
      ],
      "stateMutability": "nonpayable",
      "type": "function"
    },
    {
      "inputs": [
        {
          "internalType": "address",
          "name": "newGov",
          "type": "address"
        }
      ],
      "name": "changeGov",
      "outputs": [],
      "stateMutability": "nonpayable",
      "type": "function"
    },
    {
      "inputs": [],
      "name": "contractURI",
      "outputs": [
        {
          "internalType": "string",
          "name": "",
          "type": "string"
        }
      ],
      "stateMutability": "view",
      "type": "function"
    },
    {
      "inputs": [],
      "name": "dappID",
      "outputs": [
        {
          "internalType": "uint256",
          "name": "",
          "type": "uint256"
        }
      ],
      "stateMutability": "view",
      "type": "function"
    },
    {
      "inputs": [],
      "name": "delay",
      "outputs": [
        {
          "internalType": "uint256",
          "name": "",
          "type": "uint256"
        }
      ],
      "stateMutability": "view",
      "type": "function"
    },
    {
      "inputs": [
        {
          "internalType": "address",
          "name": "txSender",
          "type": "address"
        }
      ],
      "name": "disableTxSender",
      "outputs": [],
      "stateMutability": "nonpayable",
      "type": "function"
    },
    {
      "inputs": [
        {
          "internalType": "string",
          "name": "_to",
          "type": "string"
        },
        {
          "internalType": "string",
          "name": "_toChainID",
          "type": "string"
        },
        {
          "internalType": "bytes",
          "name": "_data",
          "type": "bytes"
        }
      ],
      "name": "doGov",
      "outputs": [],
      "stateMutability": "nonpayable",
      "type": "function"
    },
    {
      "inputs": [
        {
          "internalType": "string[]",
          "name": "_targets",
          "type": "string[]"
        },
        {
          "internalType": "string[]",
          "name": "_toChainIDs",
          "type": "string[]"
        },
        {
          "internalType": "bytes",
          "name": "_data",
          "type": "bytes"
        }
      ],
      "name": "doGovBroadcast",
      "outputs": [],
      "stateMutability": "nonpayable",
      "type": "function"
    },
    {
      "inputs": [
        {
          "internalType": "uint256",
          "name": "tokenId_",
          "type": "uint256"
        }
      ],
      "name": "getApproved",
      "outputs": [
        {
          "internalType": "address",
          "name": "",
          "type": "address"
        }
      ],
      "stateMutability": "view",
      "type": "function"
    },
    {
      "inputs": [],
      "name": "gov",
      "outputs": [
        {
          "internalType": "address",
          "name": "",
          "type": "address"
        }
      ],
      "stateMutability": "view",
      "type": "function"
    },
    {
      "inputs": [
        {
          "internalType": "address",
          "name": "owner_",
          "type": "address"
        },
        {
          "internalType": "address",
          "name": "operator_",
          "type": "address"
        }
      ],
      "name": "isApprovedForAll",
      "outputs": [
        {
          "internalType": "bool",
          "name": "",
          "type": "bool"
        }
      ],
      "stateMutability": "view",
      "type": "function"
    },
    {
      "inputs": [
        {
          "internalType": "address",
          "name": "txSender",
          "type": "address"
        }
      ],
      "name": "isValidSender",
      "outputs": [
        {
          "internalType": "bool",
          "name": "",
          "type": "bool"
        }
      ],
      "stateMutability": "view",
      "type": "function"
    },
    {
      "inputs": [],
      "name": "metadataDescriptor",
      "outputs": [
        {
          "internalType": "contract ICTMRWA001MetadataDescriptor",
          "name": "",
          "type": "address"
        }
      ],
      "stateMutability": "view",
      "type": "function"
    },
    {
      "inputs": [],
      "name": "name",
      "outputs": [
        {
          "internalType": "string",
          "name": "",
          "type": "string"
        }
      ],
      "stateMutability": "view",
      "type": "function"
    },
    {
      "inputs": [
        {
          "internalType": "uint256",
          "name": "tokenId_",
          "type": "uint256"
        }
      ],
      "name": "ownerOf",
      "outputs": [
        {
          "internalType": "address",
          "name": "owner_",
          "type": "address"
        }
      ],
      "stateMutability": "view",
      "type": "function"
    },
    {
      "inputs": [
        {
          "internalType": "address",
          "name": "from_",
          "type": "address"
        },
        {
          "internalType": "address",
          "name": "to_",
          "type": "address"
        },
        {
          "internalType": "uint256",
          "name": "tokenId_",
          "type": "uint256"
        }
      ],
      "name": "safeTransferFrom",
      "outputs": [],
      "stateMutability": "payable",
      "type": "function"
    },
    {
      "inputs": [
        {
          "internalType": "address",
          "name": "from_",
          "type": "address"
        },
        {
          "internalType": "address",
          "name": "to_",
          "type": "address"
        },
        {
          "internalType": "uint256",
          "name": "tokenId_",
          "type": "uint256"
        },
        {
          "internalType": "bytes",
          "name": "data_",
          "type": "bytes"
        }
      ],
      "name": "safeTransferFrom",
      "outputs": [],
      "stateMutability": "payable",
      "type": "function"
    },
    {
      "inputs": [
        {
          "internalType": "address",
          "name": "operator_",
          "type": "address"
        },
        {
          "internalType": "bool",
          "name": "approved_",
          "type": "bool"
        }
      ],
      "name": "setApprovalForAll",
      "outputs": [],
      "stateMutability": "nonpayable",
      "type": "function"
    },
    {
      "inputs": [
        {
          "internalType": "uint256",
          "name": "_delay",
          "type": "uint256"
        }
      ],
      "name": "setDelay",
      "outputs": [],
      "stateMutability": "nonpayable",
      "type": "function"
    },
    {
      "inputs": [
        {
          "internalType": "uint256",
          "name": "tokenId_",
          "type": "uint256"
        }
      ],
      "name": "slotOf",
      "outputs": [
        {
          "internalType": "uint256",
          "name": "",
          "type": "uint256"
        }
      ],
      "stateMutability": "view",
      "type": "function"
    },
    {
      "inputs": [
        {
          "internalType": "uint256",
          "name": "slot_",
          "type": "uint256"
        }
      ],
      "name": "slotURI",
      "outputs": [
        {
          "internalType": "string",
          "name": "",
          "type": "string"
        }
      ],
      "stateMutability": "view",
      "type": "function"
    },
    {
      "inputs": [
        {
          "internalType": "bytes4",
          "name": "interfaceId",
          "type": "bytes4"
        }
      ],
      "name": "supportsInterface",
      "outputs": [
        {
          "internalType": "bool",
          "name": "",
          "type": "bool"
        }
      ],
      "stateMutability": "view",
      "type": "function"
    },
    {
      "inputs": [],
      "name": "symbol",
      "outputs": [
        {
          "internalType": "string",
          "name": "",
          "type": "string"
        }
      ],
      "stateMutability": "view",
      "type": "function"
    },
    {
      "inputs": [
        {
          "internalType": "uint256",
          "name": "index_",
          "type": "uint256"
        }
      ],
      "name": "tokenByIndex",
      "outputs": [
        {
          "internalType": "uint256",
          "name": "",
          "type": "uint256"
        }
      ],
      "stateMutability": "view",
      "type": "function"
    },
    {
      "inputs": [
        {
          "internalType": "address",
          "name": "owner_",
          "type": "address"
        },
        {
          "internalType": "uint256",
          "name": "index_",
          "type": "uint256"
        }
      ],
      "name": "tokenOfOwnerByIndex",
      "outputs": [
        {
          "internalType": "uint256",
          "name": "",
          "type": "uint256"
        }
      ],
      "stateMutability": "view",
      "type": "function"
    },
    {
      "inputs": [
        {
          "internalType": "uint256",
          "name": "tokenId_",
          "type": "uint256"
        }
      ],
      "name": "tokenURI",
      "outputs": [
        {
          "internalType": "string",
          "name": "",
          "type": "string"
        }
      ],
      "stateMutability": "view",
      "type": "function"
    },
    {
      "inputs": [],
      "name": "totalSupply",
      "outputs": [
        {
          "internalType": "uint256",
          "name": "",
          "type": "uint256"
        }
      ],
      "stateMutability": "view",
      "type": "function"
    },
    {
      "inputs": [
        {
          "internalType": "uint256",
          "name": "fromTokenId_",
          "type": "uint256"
        },
        {
          "internalType": "address",
          "name": "to_",
          "type": "address"
        },
        {
          "internalType": "uint256",
          "name": "value_",
          "type": "uint256"
        }
      ],
      "name": "transferFrom",
      "outputs": [
        {
          "internalType": "uint256",
          "name": "newTokenId",
          "type": "uint256"
        }
      ],
      "stateMutability": "payable",
      "type": "function"
    },
    {
      "inputs": [
        {
          "internalType": "address",
          "name": "from_",
          "type": "address"
        },
        {
          "internalType": "address",
          "name": "to_",
          "type": "address"
        },
        {
          "internalType": "uint256",
          "name": "tokenId_",
          "type": "uint256"
        }
      ],
      "name": "transferFrom",
      "outputs": [],
      "stateMutability": "payable",
      "type": "function"
    },
    {
      "inputs": [
        {
          "internalType": "uint256",
          "name": "fromTokenId_",
          "type": "uint256"
        },
        {
          "internalType": "uint256",
          "name": "toTokenId_",
          "type": "uint256"
        },
        {
          "internalType": "uint256",
          "name": "value_",
          "type": "uint256"
        }
      ],
      "name": "transferFrom",
      "outputs": [],
      "stateMutability": "payable",
      "type": "function"
    },
    {
      "inputs": [],
      "name": "valueDecimals",
      "outputs": [
        {
          "internalType": "uint8",
          "name": "",
          "type": "uint8"
        }
      ],
      "stateMutability": "view",
      "type": "function"
    }
  ],
  "bytecode": "0x60806040526202a3006002553480156200001857600080fd5b5060405162003c9938038062003c998339810160408190526200003b91620001ba565b600080546001600160a01b038086166001600160a01b0319928316178355600184815560038054838a1690851681179091556004805490941617909255426005558416825260066020526040909120805460ff191682179055600a556007620000a5898262000321565b506008620000b4888262000321565b50506009805460ff191660ff969096169590951790945550620003ed945050505050565b634e487b7160e01b600052604160045260246000fd5b600082601f8301126200010057600080fd5b81516001600160401b03808211156200011d576200011d620000d8565b604051601f8301601f19908116603f01168101908282118183101715620001485762000148620000d8565b816040528381526020925086838588010111156200016557600080fd5b600091505b838210156200018957858201830151818301840152908201906200016a565b600093810190920192909252949350505050565b80516001600160a01b0381168114620001b557600080fd5b919050565b600080600080600080600080610100898b031215620001d857600080fd5b88516001600160401b0380821115620001f057600080fd5b620001fe8c838d01620000ee565b995060208b01519150808211156200021557600080fd5b50620002248b828c01620000ee565b975050604089015160ff811681146200023c57600080fd5b95506200024c60608a016200019d565b94506200025c60808a016200019d565b93506200026c60a08a016200019d565b92506200027c60c08a016200019d565b915060e089015190509295985092959890939650565b600181811c90821680620002a757607f821691505b602082108103620002c857634e487b7160e01b600052602260045260246000fd5b50919050565b601f8211156200031c57600081815260208120601f850160051c81016020861015620002f75750805b601f850160051c820191505b81811015620003185782815560010162000303565b5050505b505050565b81516001600160401b038111156200033d576200033d620000d8565b62000355816200034e845462000292565b84620002ce565b602080601f8311600181146200038d5760008415620003745750858301515b600019600386901b1c1916600185901b17855562000318565b600085815260208120601f198616915b82811015620003be578886015182559484019460019091019084016200039d565b5085821015620003dd5787850151600019600388901b60f8161c191681555b5050505050600190811b01905550565b61389c80620003fd6000396000f3fe6080604052600436106102255760003560e01c8063840f711311610123578063c87b56dd116100ab578063e8a3d4851161006f578063e8a3d485146105fb578063e985e9c514610610578063eebd14af1461065d578063f01f2b8b1461067d578063f9e4cbaf146106b657600080fd5b8063c87b56dd1461055b578063d60ad41b1461057b578063dd64b3e61461059b578063e177246e146105bb578063e345e0bc146105db57600080fd5b8063a22cb465116100f2578063a22cb465146104d2578063a962ef1e146104f2578063b121f51d14610512578063b88d4fde14610532578063c516ad111461054557600080fd5b8063840f71131461046a5780638cb0a5111461048a57806395d89b411461049d5780639cc7f708146104b257600080fd5b8063263f3e7e116101b15780634f6ccce7116101755780634f6ccce7146103d457806358f2c057146103f45780636352211e146104145780636a42b8f81461043457806370a082311461044a57600080fd5b8063263f3e7e1461034c5780632f745c591461036c578063310ed7f01461038c5780633e7e86691461039f57806342842e0e146103c157600080fd5b806309c3dd87116101f857806309c3dd87146102ce5780630f485c02146102ee57806312d43a511461030f57806318160ddd1461032457806323b872dd1461033957600080fd5b806301ffc9a71461022a57806306fdde031461025f578063081812fc14610281578063095ea7b3146102b9575b600080fd5b34801561023657600080fd5b5061024a610245366004612db1565b6106d6565b60405190151581526020015b60405180910390f35b34801561026b57600080fd5b50610274610779565b6040516102569190612e1e565b34801561028d57600080fd5b506102a161029c366004612e31565b61080b565b6040516001600160a01b039091168152602001610256565b6102cc6102c7366004612e61565b61085d565b005b3480156102da57600080fd5b506102746102e9366004612e31565b610941565b6103016102fc366004612e8b565b610a33565b604051908152602001610256565b34801561031b57600080fd5b506102a1610a6b565b34801561033057600080fd5b50600c54610301565b6102cc610347366004612ec0565b610a96565b34801561035857600080fd5b50610301610367366004612e31565b610ac7565b34801561037857600080fd5b50610301610387366004612e61565b610b0f565b6102cc61039a366004612eec565b610bb1565b3480156103ab57600080fd5b5060095460405160ff9091168152602001610256565b6102cc6103cf366004612ec0565b610bc7565b3480156103e057600080fd5b506103016103ef366004612e31565b610be2565b34801561040057600080fd5b506000546102a1906001600160a01b031681565b34801561042057600080fd5b506102a161042f366004612e31565b610c75565b34801561044057600080fd5b5061030160025481565b34801561045657600080fd5b50610301610465366004612f18565b610d15565b34801561047657600080fd5b50600f546102a1906001600160a01b031681565b6102cc610498366004612e8b565b610d9f565b3480156104a957600080fd5b50610274610e60565b3480156104be57600080fd5b506103016104cd366004612e31565b610e6f565b3480156104de57600080fd5b506102cc6104ed366004612f41565b610eb7565b3480156104fe57600080fd5b506102cc61050d366004612f18565b610ec6565b34801561051e57600080fd5b5061024a61052d366004612fc1565b610fea565b6102cc610540366004613100565b611120565b34801561055157600080fd5b5061030160015481565b34801561056757600080fd5b50610274610576366004612e31565b611152565b34801561058757600080fd5b506102cc610596366004613168565b6111f1565b3480156105a757600080fd5b506102cc6105b636600461328f565b611243565b3480156105c757600080fd5b506102cc6105d6366004612e31565b6112c0565b3480156105e757600080fd5b506103016105f63660046132ea565b61130c565b34801561060757600080fd5b50610274611340565b34801561061c57600080fd5b5061024a61062b366004613316565b6001600160a01b039182166000908152600e602090815260408083209390941682526002909201909152205460ff1690565b34801561066957600080fd5b506102cc610678366004612f18565b61143a565b34801561068957600080fd5b5061024a610698366004612f18565b6001600160a01b031660009081526006602052604090205460ff1690565b3480156106c257600080fd5b506102cc6106d1366004612f18565b6114df565b60006001600160e01b031982166301ffc9a760e01b148061070757506001600160e01b03198216630354d60560e61b145b8061072257506001600160e01b031982166380ac58cd60e01b145b8061073d57506001600160e01b031982166370b0048160e11b145b8061075857506001600160e01b0319821663780e9d6360e01b145b8061077357506001600160e01b03198216635b5e139f60e01b145b92915050565b60606007805461078890613340565b80601f01602080910402602001604051908101604052809291908181526020018280546107b490613340565b80156108015780601f106107d657610100808354040283529160200191610801565b820191906000526020600020905b8154815290600101906020018083116107e457829003601f168201915b5050505050905090565b600061081682611575565b6000828152600d6020526040902054600c8054909190811061083a5761083a61337a565b60009182526020909120600460069092020101546001600160a01b031692915050565b600061086882610c75565b9050806001600160a01b0316836001600160a01b0316036108a45760405162461bcd60e51b815260040161089b90613390565b60405180910390fd5b336001600160a01b03821614806108c057506108c0813361062b565b6109325760405162461bcd60e51b815260206004820152603b60248201527f43544d5257413030313a20617070726f76652063616c6c6572206973206e6f7460448201527f206f776e6572206e6f7220617070726f76656420666f7220616c6c0000000000606482015260840161089b565b61093c83836115cd565b505050565b6060600061095a60408051602081019091526000815290565b600f549091506001600160a01b03166109ba57600081511161098b5760405180602001604052806000815250610a2c565b8061099584611664565b6040516020016109a69291906133d4565b604051602081830303815290604052610a2c565b600f54604051633601bfc560e11b8152600481018590526001600160a01b0390911690636c037f8a906024015b600060405180830381865afa158015610a04573d6000803e3d6000fd5b505050506040513d6000823e601f3d908101601f19168201604052610a2c9190810190613414565b9392505050565b6000610a403385846116f7565b610a4984611791565b9050610a608382610a5987610ac7565b600061179b565b610a2c8482846118c9565b60006005544210610a8657506004546001600160a01b031690565b506003546001600160a01b031690565b610aa03382611bcd565b610abc5760405162461bcd60e51b815260040161089b9061348b565b61093c838383611c50565b6000610ad282611575565b6000828152600d6020526040902054600c80549091908110610af657610af661337a565b9060005260206000209060060201600101549050919050565b6000610b1a83610d15565b8210610b745760405162461bcd60e51b8152602060048201526024808201527f43544d5257413030313a206f776e657220696e646578206f7574206f6620626f604482015263756e647360e01b606482015260840161089b565b6001600160a01b0383166000908152600e60205260409020805483908110610b9e57610b9e61337a565b9060005260206000200154905092915050565b610bbc3384836116f7565b61093c8383836118c9565b61093c83838360405180602001604052806000815250611120565b6000610bed600c5490565b8210610c495760405162461bcd60e51b815260206004820152602560248201527f43544d5257413030313a20676c6f62616c20696e646578206f7574206f6620626044820152646f756e647360d81b606482015260840161089b565b600c8281548110610c5c57610c5c61337a565b9060005260206000209060060201600001549050919050565b6000610c8082611575565b6000828152600d6020526040902054600c80549091908110610ca457610ca461337a565b60009182526020909120600360069092020101546001600160a01b0316905080610d105760405162461bcd60e51b815260206004820152601b60248201527f43544d5257413030313a20696e76616c696420746f6b656e2049440000000000604482015260640161089b565b919050565b60006001600160a01b038216610d835760405162461bcd60e51b815260206004820152602d60248201527f43544d5257413030313a2062616c616e636520717565727920666f722074686560448201526c207a65726f206164647265737360981b606482015260840161089b565b506001600160a01b03166000908152600e602052604090205490565b6000610daa84610c75565b9050806001600160a01b0316836001600160a01b031603610ddd5760405162461bcd60e51b815260040161089b90613390565b610de73385611bcd565b610e4f5760405162461bcd60e51b815260206004820152603360248201527f43544d5257413030313a20617070726f76652063616c6c6572206973206e6f74604482015272081bdddb995c881b9bdc88185c1c1c9bdd9959606a1b606482015260840161089b565b610e5a848484611db6565b50505050565b60606008805461078890613340565b6000610e7a82611575565b6000828152600d6020526040902054600c80549091908110610e9e57610e9e61337a565b9060005260206000209060060201600201549050919050565b610ec2338383611ef0565b5050565b610ece610a6b565b6001600160a01b0316336001600160a01b03161480610ef15750610ef133611fba565b610f0d5760405162461bcd60e51b815260040161089b906134df565b6001600160a01b038116610f555760405162461bcd60e51b815260206004820152600f60248201526e6e6577476f7620697320656d70747960881b604482015260640161089b565b610f5d610a6b565b600380546001600160a01b03199081166001600160a01b039384161790915560048054909116918316919091179055600254610f99904261351c565b60058190556004546003546040514681526001600160a01b0392831692909116907f4552e521eca39a029d33503b3e2003db87de01f8396f9e3fdd9dddddb9b838b49060200160405180910390a450565b60008054604051631eb01f7360e21b81523360048201526001600160a01b0390911690637ac07dcc906024016020604051808303816000875af1158015611035573d6000803e3d6000fd5b505050506040513d601f19601f82011682018060405250810190611059919061352f565b6110a55760405162461bcd60e51b815260206004820152601860248201527f433343616c6c6572446170703a206f6e6c7943616c6c65720000000000000000604482015260640161089b565b60015486146110e85760405162461bcd60e51b815260206004820152600f60248201526e0c8c2e0e0928840c8d2e6dac2e8c6d608b1b604482015260640161089b565b6111166110f960046000878961354c565b61110291613576565b61110f866004818a61354c565b868661202b565b9695505050505050565b61112a3383611bcd565b6111465760405162461bcd60e51b815260040161089b9061348b565b610e5a84848484612078565b606061115d82611575565b600061117460408051602081019091526000815290565b600f549091506001600160a01b03166111c05760008151116111a55760405180602001604052806000815250610a2c565b806111af84611664565b6040516020016109a69291906135a6565b600f546040516344a5a61760e11b8152600481018590526001600160a01b039091169063894b4c2e906024016109e7565b6111f9610a6b565b6001600160a01b0316336001600160a01b0316148061121c575061121c33611fba565b6112385760405162461bcd60e51b815260040161089b906134df565b61093c8383836120ed565b61124b610a6b565b6001600160a01b0316336001600160a01b0316148061126e575061126e33611fba565b61128a5760405162461bcd60e51b815260040161089b906134df565b81518351146112b55760405162461bcd60e51b8152602060048201526000602482015260440161089b565b61093c83838361215b565b6112c8610a6b565b6001600160a01b0316336001600160a01b031614806112eb57506112eb33611fba565b6113075760405162461bcd60e51b815260040161089b906134df565b600255565b600061131783611575565b506000918252600b602090815260408084206001600160a01b0393909316845291905290205490565b6060600061135960408051602081019091526000815290565b600f549091506001600160a01b03166113b957600081511161138a5760405180602001604052806000815250611434565b8061139430612192565b6040516020016113a59291906135d5565b604051602081830303815290604052611434565b600f60009054906101000a90046001600160a01b03166001600160a01b031663725fa09c6040518163ffffffff1660e01b8152600401600060405180830381865afa15801561140c573d6000803e3d6000fd5b505050506040513d6000823e601f3d908101601f191682016040526114349190810190613414565b91505090565b611442610a6b565b6001600160a01b0316336001600160a01b03161480611465575061146533611fba565b6114815760405162461bcd60e51b815260040161089b906134df565b6001600160a01b038116600081815260066020908152604091829020805460ff1916600190811790915591519182527fbfb8b3e2f6221ae729e9cacb0d35f5d9be686ba10cb1d4e34b646bbb87f7a26991015b60405180910390a250565b6114e7610a6b565b6001600160a01b0316336001600160a01b0316148061150a575061150a33611fba565b6115265760405162461bcd60e51b815260040161089b906134df565b6001600160a01b0381166000818152600660209081526040808320805460ff19169055519182527fbfb8b3e2f6221ae729e9cacb0d35f5d9be686ba10cb1d4e34b646bbb87f7a26991016114d4565b61157e816121a8565b6115ca5760405162461bcd60e51b815260206004820152601b60248201527f43544d5257413030313a20696e76616c696420746f6b656e2049440000000000604482015260640161089b565b50565b6000818152600d6020526040902054600c805484929081106115f1576115f161337a565b6000918252602090912060069091020160040180546001600160a01b0319166001600160a01b039283161790558190831661162b82610c75565b6001600160a01b03167f8c5be1e5ebec7d5bd14f71427d1e84f3dd0314c0f7b2291e5b200ac8c7c3b92560405160405180910390a45050565b60606000611671836121f4565b600101905060008167ffffffffffffffff8111156116915761169161303b565b6040519080825280601f01601f1916602001820160405280156116bb576020820181803683370190505b5090508181016020015b600019016f181899199a1a9b1b9c1cb0b131b232b360811b600a86061a8153600a85049450846116c557509392505050565b6000611703838561130c565b905061170f8484611bcd565b15801561171e57506000198114155b15610e5a578181101561177d5760405162461bcd60e51b815260206004820152602160248201527f43544d5257413030313a20696e73756666696369656e7420616c6c6f77616e636044820152606560f81b606482015260840161089b565b610e5a838561178c8585613619565b611db6565b60006107736122cc565b6001600160a01b0384166117fd5760405162461bcd60e51b815260206004820152602360248201527f43544d5257413030313a206d696e7420746f20746865207a65726f206164647260448201526265737360e81b606482015260840161089b565b826000036118595760405162461bcd60e51b815260206004820152602360248201527f43544d5257413030313a2063616e6e6f74206d696e74207a65726f20746f6b656044820152621b925960ea1b606482015260840161089b565b611862836121a8565b156118af5760405162461bcd60e51b815260206004820152601f60248201527f43544d5257413030313a20746f6b656e20616c7265616479206d696e74656400604482015260640161089b565b6118ba8484846122e6565b6118c483826123ac565b610e5a565b6118d2836121a8565b6119305760405162461bcd60e51b815260206004820152602960248201527f43544d5257413030313a207472616e736665722066726f6d20696e76616c6964604482015268081d1bdad95b88125160ba1b606482015260840161089b565b611939826121a8565b6119955760405162461bcd60e51b815260206004820152602760248201527f43544d5257413030313a207472616e7366657220746f20696e76616c696420746044820152661bdad95b88125160ca1b606482015260840161089b565b6000838152600d6020526040812054600c805490919081106119b9576119b961337a565b906000526020600020906006020190506000600c600d600086815260200190815260200160002054815481106119f1576119f161337a565b906000526020600020906006020190508282600201541015611a6a5760405162461bcd60e51b815260206004820152602c60248201527f43544d5257413030313a20696e73756666696369656e742062616c616e63652060448201526b3337b9103a3930b739b332b960a11b606482015260840161089b565b8060010154826001015414611ada5760405162461bcd60e51b815260206004820152603060248201527f43544d5257413030313a207472616e7366657220746f20746f6b656e2077697460448201526f1a08191a5999995c995b9d081cdb1bdd60821b606482015260840161089b565b82826002016000828254611aee9190613619565b9250508190555082816002016000828254611b09919061351c565b9091555050604051838152849086907f0b2aac84f3ec956911fd78eae5311062972ff949f38412e8da39069d9f068cc69060200160405180910390a3611b6085858560405180602001604052806000815250612431565b611bc65760405162461bcd60e51b815260206004820152603160248201527f43544d5257413030313a207472616e736665722072656a65637465642062792060448201527021aa26a92ba0981818a932b1b2b4bb32b960791b606482015260840161089b565b5050505050565b600080611bd983610c75565b9050806001600160a01b0316846001600160a01b03161480611c2457506001600160a01b038082166000908152600e60209081526040808320938816835260029093019052205460ff165b80611c485750836001600160a01b0316611c3d8461080b565b6001600160a01b0316145b949350505050565b826001600160a01b0316611c6382610c75565b6001600160a01b031614611cc85760405162461bcd60e51b815260206004820152602660248201527f43544d5257413030313a207472616e736665722066726f6d20696e76616c69646044820152651037bbb732b960d11b606482015260840161089b565b6001600160a01b038216611d2e5760405162461bcd60e51b815260206004820152602760248201527f43544d5257413030313a207472616e7366657220746f20746865207a65726f206044820152666164647265737360c81b606482015260840161089b565b6000611d3982610ac7565b90506000611d4683610e6f565b9050611d536000846115cd565b611d5c836125a7565b611d668584612652565b611d708484612773565b82846001600160a01b0316866001600160a01b03167fddf252ad1be2c89b69c2b068fc378daa952ba7f163c4a11628f55a4df523b3ef60405160405180910390a4611bc6565b6001600160a01b038216611e215760405162461bcd60e51b815260206004820152602c60248201527f43544d5257413030313a20617070726f76652076616c756520746f207468652060448201526b7a65726f206164647265737360a01b606482015260840161089b565b611e2b82846127fc565b611e91576000838152600d6020526040902054600c80549091908110611e5357611e5361337a565b60009182526020808320600692909202909101600501805460018101825590835291200180546001600160a01b0319166001600160a01b0384161790555b6000838152600b602090815260408083206001600160a01b038616808552908352928190208490555183815285917f621b050de0ad08b51d19b48b3e6df75348c4de6bdd93e81b252ca62e28265b1b91015b60405180910390a3505050565b816001600160a01b0316836001600160a01b031603611f515760405162461bcd60e51b815260206004820152601c60248201527f43544d5257413030313a20617070726f766520746f2063616c6c657200000000604482015260640161089b565b6001600160a01b038381166000818152600e602090815260408083209487168084526002909501825291829020805460ff191686151590811790915591519182527f17307eab39ab6107e8899845ad3d59bd9653f200f220920489ca2b5937696c319101611ee3565b60008054604051631eb01f7360e21b81526001600160a01b03848116600483015290911690637ac07dcc906024016020604051808303816000875af1158015612007573d6000803e3d6000fd5b505050506040513d601f19601f82011682018060405250810190610773919061352f565b60007fd1b411598268892b6836c5b922cfa272124f6f0bd3a7cf9f9d408f7e50f223018686868686604051612064959493929190613655565b60405180910390a150600195945050505050565b612083848484611c50565b61208f848484846128cf565b610e5a5760405162461bcd60e51b815260206004820152602960248201527f43544d5257413030313a207472616e7366657220746f206e6f6e20455243373260448201526818a932b1b2b4bb32b960b91b606482015260840161089b565b6000546001546040516304f4c7fb60e31b81526001600160a01b03909216916327a63fd8916121249187908790879060040161368b565b600060405180830381600087803b15801561213e57600080fd5b505af1158015612152573d6000803e3d6000fd5b50505050505050565b60005460015460405163ec6a8b7d60e01b81526001600160a01b039092169163ec6a8b7d916121249187908790879060040161373c565b60606107736001600160a01b0383166014612a15565b600c546000901580159061077357506000828152600d6020526040902054600c805484929081106121db576121db61337a565b9060005260206000209060060201600001541492915050565b60008072184f03e93ff9f4daa797ed6e38ed64bf6a1f0160401b83106122335772184f03e93ff9f4daa797ed6e38ed64bf6a1f0160401b830492506040015b6d04ee2d6d415b85acef8100000000831061225f576d04ee2d6d415b85acef8100000000830492506020015b662386f26fc10000831061227d57662386f26fc10000830492506010015b6305f5e1008310612295576305f5e100830492506008015b61271083106122a957612710830492506004015b606483106122bb576064830492506002015b600a83106107735760010192915050565b600a8054600091826122dd83613786565b91905055905090565b6040805160c081018252838152602080820184905260008284018190526001600160a01b038716606084015260808301819052835181815291820190935260a0820152905061233481612bb1565b61233e8484612773565b60405183906001600160a01b038616906000907fddf252ad1be2c89b69c2b068fc378daa952ba7f163c4a11628f55a4df523b3ef908290a4816000847fe4f48c240d3b994948aa54f3e2f5fca59263dfe1d52b6e4cf39a5d249b5ccb6560405160405180910390a450505050565b6000828152600d6020526040902054600c805483929081106123d0576123d061337a565b906000526020600020906006020160020160008282546123f0919061351c565b909155505060405181815282906000907f0b2aac84f3ec956911fd78eae5311062972ff949f38412e8da39069d9f068cc69060200160405180910390a35050565b60008061243d85610c75565b9050803b63ffffffff161561259b576040516301ffc9a760e01b8152633abe4f5560e21b60048201526001600160a01b038216906301ffc9a790602401602060405180830381865afa9250505080156124b3575060408051601f3d908101601f191682019092526124b09181019061352f565b60015b6124f2573d8080156124e1576040519150601f19603f3d011682016040523d82523d6000602084013e6124e6565b606091505b50600192505050611c48565b801561259057604051633abe4f5560e21b81526000906001600160a01b0384169063eaf93d549061252f9033908c908c908c908c9060040161379f565b6020604051808303816000875af115801561254e573d6000803e3d6000fd5b505050506040513d601f19601f8201168201806040525081019061257291906137d2565b6001600160e01b031916633abe4f5560e21b149350611c4892505050565b600192505050611c48565b50600195945050505050565b6000818152600d6020526040812054600c805490919081106125cb576125cb61337a565b600091825260208220600560069092020190810154909250905b818110156126435760008360050182815481106126045761260461337a565b6000918252602080832090910154878352600b825260408084206001600160a01b0390921684529152812055508061263b81613786565b9150506125e5565b5061093c600583016000612d03565b6000818152600d6020526040812054600c805490919081106126765761267661337a565b6000918252602080832060069290920290910160030180546001600160a01b0319166001600160a01b039485161790559184168152600e9091526040812080549091906126c590600190613619565b905060008260000182815481106126de576126de61337a565b9060005260206000200154905060008360010160008681526020019081526020016000205490508184600001828154811061271b5761271b61337a565b60009182526020808320909101929092558381526001860190915260408082208390558682528120558354849080612755576127556137ef565b60019003818190600052602060002001600090559055505050505050565b6000818152600d6020526040902054600c805484929081106127975761279761337a565b6000918252602080832060069290920290910160030180546001600160a01b0319166001600160a01b03948516179055939091168152600e80845260408083208054858552600182810188529285208190559286529082018155825292902090910155565b6000818152600d6020526040812054600c805483929081106128205761282061337a565b6000918252602082206005600690920201015491505b818110156128c4576000848152600d6020526040902054600c80546001600160a01b0388169290811061286b5761286b61337a565b9060005260206000209060060201600501828154811061288d5761288d61337a565b6000918252602090912001546001600160a01b0316036128b257600192505050610773565b806128bc81613786565b915050612836565b506000949350505050565b6000833b63ffffffff1615612a0d57604051630a85bd0160e11b81526001600160a01b0385169063150b7a0290612910903390899088908890600401613805565b6020604051808303816000875af192505050801561294b575060408051601f3d908101601f19168201909252612948918101906137d2565b60015b6129f3573d808015612979576040519150601f19603f3d011682016040523d82523d6000602084013e61297e565b606091505b5080516000036129eb5760405162461bcd60e51b815260206004820152603260248201527f4552433732313a207472616e7366657220746f206e6f6e20455243373231526560448201527131b2b4bb32b91034b6b83632b6b2b73a32b960711b606482015260840161089b565b805181602001fd5b6001600160e01b031916630a85bd0160e11b149050611c48565b506001611c48565b60606000612a24836002613838565b612a2f90600261351c565b67ffffffffffffffff811115612a4757612a4761303b565b6040519080825280601f01601f191660200182016040528015612a71576020820181803683370190505b509050600360fc1b81600081518110612a8c57612a8c61337a565b60200101906001600160f81b031916908160001a905350600f60fb1b81600181518110612abb57612abb61337a565b60200101906001600160f81b031916908160001a9053506000612adf846002613838565b612aea90600161351c565b90505b6001811115612b62576f181899199a1a9b1b9c1cb0b131b232b360811b85600f1660108110612b1e57612b1e61337a565b1a60f81b828281518110612b3457612b3461337a565b60200101906001600160f81b031916908160001a90535060049490941c93612b5b8161384f565b9050612aed565b508315610a2c5760405162461bcd60e51b815260206004820181905260248201527f537472696e67733a20686578206c656e67746820696e73756666696369656e74604482015260640161089b565b600c805482516000908152600d6020908152604080832084905560018401855593909152835160069092027fdf6966c971051c3d54ec59162606531493a51404a002842f56009d7e5cf4a8c78101928355818501517fdf6966c971051c3d54ec59162606531493a51404a002842f56009d7e5cf4a8c8820155928401517fdf6966c971051c3d54ec59162606531493a51404a002842f56009d7e5cf4a8c984015560608401517fdf6966c971051c3d54ec59162606531493a51404a002842f56009d7e5cf4a8ca840180546001600160a01b039283166001600160a01b03199182161790915560808601517fdf6966c971051c3d54ec59162606531493a51404a002842f56009d7e5cf4a8cb8601805491909316911617905560a084015180518594610e5a937fdf6966c971051c3d54ec59162606531493a51404a002842f56009d7e5cf4a8cc909101920190612d21565b50805460008255906000526020600020908101906115ca9190612d86565b828054828255906000526020600020908101928215612d76579160200282015b82811115612d7657825182546001600160a01b0319166001600160a01b03909116178255602090920191600190910190612d41565b50612d82929150612d86565b5090565b5b80821115612d825760008155600101612d87565b6001600160e01b0319811681146115ca57600080fd5b600060208284031215612dc357600080fd5b8135610a2c81612d9b565b60005b83811015612de9578181015183820152602001612dd1565b50506000910152565b60008151808452612e0a816020860160208601612dce565b601f01601f19169290920160200192915050565b602081526000610a2c6020830184612df2565b600060208284031215612e4357600080fd5b5035919050565b80356001600160a01b0381168114610d1057600080fd5b60008060408385031215612e7457600080fd5b612e7d83612e4a565b946020939093013593505050565b600080600060608486031215612ea057600080fd5b83359250612eb060208501612e4a565b9150604084013590509250925092565b600080600060608486031215612ed557600080fd5b612ede84612e4a565b9250612eb060208501612e4a565b600080600060608486031215612f0157600080fd5b505081359360208301359350604090920135919050565b600060208284031215612f2a57600080fd5b610a2c82612e4a565b80151581146115ca57600080fd5b60008060408385031215612f5457600080fd5b612f5d83612e4a565b91506020830135612f6d81612f33565b809150509250929050565b60008083601f840112612f8a57600080fd5b50813567ffffffffffffffff811115612fa257600080fd5b602083019150836020828501011115612fba57600080fd5b9250929050565b600080600080600060608688031215612fd957600080fd5b85359450602086013567ffffffffffffffff80821115612ff857600080fd5b61300489838a01612f78565b9096509450604088013591508082111561301d57600080fd5b5061302a88828901612f78565b969995985093965092949392505050565b634e487b7160e01b600052604160045260246000fd5b604051601f8201601f1916810167ffffffffffffffff8111828210171561307a5761307a61303b565b604052919050565b600067ffffffffffffffff82111561309c5761309c61303b565b50601f01601f191660200190565b600082601f8301126130bb57600080fd5b81356130ce6130c982613082565b613051565b8181528460208386010111156130e357600080fd5b816020850160208301376000918101602001919091529392505050565b6000806000806080858703121561311657600080fd5b61311f85612e4a565b935061312d60208601612e4a565b925060408501359150606085013567ffffffffffffffff81111561315057600080fd5b61315c878288016130aa565b91505092959194509250565b60008060006060848603121561317d57600080fd5b833567ffffffffffffffff8082111561319557600080fd5b6131a1878388016130aa565b945060208601359150808211156131b757600080fd5b6131c3878388016130aa565b935060408601359150808211156131d957600080fd5b506131e6868287016130aa565b9150509250925092565b600082601f83011261320157600080fd5b8135602067ffffffffffffffff8083111561321e5761321e61303b565b8260051b61322d838201613051565b938452858101830193838101908886111561324757600080fd5b84880192505b85831015613283578235848111156132655760008081fd5b6132738a87838c01016130aa565b835250918401919084019061324d565b98975050505050505050565b6000806000606084860312156132a457600080fd5b833567ffffffffffffffff808211156132bc57600080fd5b6132c8878388016131f0565b945060208601359150808211156132de57600080fd5b6131c3878388016131f0565b600080604083850312156132fd57600080fd5b8235915061330d60208401612e4a565b90509250929050565b6000806040838503121561332957600080fd5b61333283612e4a565b915061330d60208401612e4a565b600181811c9082168061335457607f821691505b60208210810361337457634e487b7160e01b600052602260045260246000fd5b50919050565b634e487b7160e01b600052603260045260246000fd5b60208082526024908201527f43544d5257413030313a20617070726f76616c20746f2063757272656e74206f6040820152633bb732b960e11b606082015260800190565b600083516133e6818460208801612dce565b64736c6f742f60d81b9083019081528351613408816005840160208801612dce565b01600501949350505050565b60006020828403121561342657600080fd5b815167ffffffffffffffff81111561343d57600080fd5b8201601f8101841361344e57600080fd5b805161345c6130c982613082565b81815285602083850101111561347157600080fd5b613482826020830160208601612dce565b95945050505050565b60208082526034908201527f43544d5257413030313a207472616e736665722063616c6c6572206973206e6f6040820152731d081bdddb995c881b9bdc88185c1c1c9bdd995960621b606082015260800190565b6020808252600d908201526c23b7bb102327a92124a22222a760991b604082015260600190565b634e487b7160e01b600052601160045260246000fd5b8082018082111561077357610773613506565b60006020828403121561354157600080fd5b8151610a2c81612f33565b6000808585111561355c57600080fd5b8386111561356957600080fd5b5050820193919092039150565b6001600160e01b0319813581811691600485101561359e5780818660040360031b1b83161692505b505092915050565b600083516135b8818460208801612dce565b8351908301906135cc818360208801612dce565b01949350505050565b600083516135e7818460208801612dce565b68636f6e74726163742f60b81b908301908152835161360d816009840160208801612dce565b01600901949350505050565b8181038181111561077357610773613506565b81835281816020850137506000828201602090810191909152601f909101601f19169091010190565b63ffffffff60e01b8616815260606020820152600061367860608301868861362c565b828103604084015261328381858761362c565b84815260a0602082015260006136a460a0830186612df2565b82810360408401526136b68186612df2565b905082810360608401526136ca8185612df2565b838103608090940193909352505060008152602001949350505050565b600081518084526020808501808196508360051b8101915082860160005b8581101561372f57828403895261371d848351612df2565b98850198935090840190600101613705565b5091979650505050505050565b84815260806020820152600061375560808301866136e7565b828103604084015261376781866136e7565b9050828103606084015261377b8185612df2565b979650505050505050565b60006001820161379857613798613506565b5060010190565b60018060a01b038616815284602082015283604082015282606082015260a06080820152600061377b60a0830184612df2565b6000602082840312156137e457600080fd5b8151610a2c81612d9b565b634e487b7160e01b600052603160045260246000fd5b6001600160a01b038581168252841660208201526040810183905260806060820181905260009061111690830184612df2565b808202811582820484141761077357610773613506565b60008161385e5761385e613506565b50600019019056fea2646970667358221220aad37da0ff21874b3a0cf4dec05db14d4e957a820ec87647fc060a0cbb02890a64736f6c63430008140033",
  "linkReferences": {},
  "deployedLinkReferences": {}
}