{
  "_format": "hh-sol-artifact-1",
  "contractName": "ERC3525MintableUpgradeableWithInit",
  "sourceName": "contracts/mocks/ERC3525BaseMockUpgradeableWithInit.sol",
  "abi": [
    {
      "inputs": [
        {
          "internalType": "string",
          "name": "name_",
          "type": "string"
        },
        {
          "internalType": "string",
          "name": "symbol_",
          "type": "string"
        },
        {
          "internalType": "uint8",
          "name": "decimals_",
          "type": "uint8"
        }
      ],
      "stateMutability": "payable",
      "type": "constructor"
    },
    {
      "anonymous": false,
      "inputs": [
        {
          "indexed": true,
          "internalType": "address",
          "name": "_owner",
          "type": "address"
        },
        {
          "indexed": true,
          "internalType": "address",
          "name": "_approved",
          "type": "address"
        },
        {
          "indexed": true,
          "internalType": "uint256",
          "name": "_tokenId",
          "type": "uint256"
        }
      ],
      "name": "Approval",
      "type": "event"
    },
    {
      "anonymous": false,
      "inputs": [
        {
          "indexed": true,
          "internalType": "address",
          "name": "_owner",
          "type": "address"
        },
        {
          "indexed": true,
          "internalType": "address",
          "name": "_operator",
          "type": "address"
        },
        {
          "indexed": false,
          "internalType": "bool",
          "name": "_approved",
          "type": "bool"
        }
      ],
      "name": "ApprovalForAll",
      "type": "event"
    },
    {
      "anonymous": false,
      "inputs": [
        {
          "indexed": true,
          "internalType": "uint256",
          "name": "_tokenId",
          "type": "uint256"
        },
        {
          "indexed": true,
          "internalType": "address",
          "name": "_operator",
          "type": "address"
        },
        {
          "indexed": false,
          "internalType": "uint256",
          "name": "_value",
          "type": "uint256"
        }
      ],
      "name": "ApprovalValue",
      "type": "event"
    },
    {
      "anonymous": false,
      "inputs": [
        {
          "indexed": false,
          "internalType": "uint8",
          "name": "version",
          "type": "uint8"
        }
      ],
      "name": "Initialized",
      "type": "event"
    },
    {
      "anonymous": false,
      "inputs": [
        {
          "indexed": true,
          "internalType": "address",
          "name": "metadataDescriptor",
          "type": "address"
        }
      ],
      "name": "SetMetadataDescriptor",
      "type": "event"
    },
    {
      "anonymous": false,
      "inputs": [
        {
          "indexed": true,
          "internalType": "uint256",
          "name": "_tokenId",
          "type": "uint256"
        },
        {
          "indexed": true,
          "internalType": "uint256",
          "name": "_oldSlot",
          "type": "uint256"
        },
        {
          "indexed": true,
          "internalType": "uint256",
          "name": "_newSlot",
          "type": "uint256"
        }
      ],
      "name": "SlotChanged",
      "type": "event"
    },
    {
      "anonymous": false,
      "inputs": [
        {
          "indexed": true,
          "internalType": "address",
          "name": "_from",
          "type": "address"
        },
        {
          "indexed": true,
          "internalType": "address",
          "name": "_to",
          "type": "address"
        },
        {
          "indexed": true,
          "internalType": "uint256",
          "name": "_tokenId",
          "type": "uint256"
        }
      ],
      "name": "Transfer",
      "type": "event"
    },
    {
      "anonymous": false,
      "inputs": [
        {
          "indexed": true,
          "internalType": "uint256",
          "name": "_fromTokenId",
          "type": "uint256"
        },
        {
          "indexed": true,
          "internalType": "uint256",
          "name": "_toTokenId",
          "type": "uint256"
        },
        {
          "indexed": false,
          "internalType": "uint256",
          "name": "_value",
          "type": "uint256"
        }
      ],
      "name": "TransferValue",
      "type": "event"
    },
    {
      "inputs": [
        {
          "internalType": "uint256",
          "name": "tokenId_",
          "type": "uint256"
        },
        {
          "internalType": "address",
          "name": "operator_",
          "type": "address"
        }
      ],
      "name": "allowance",
      "outputs": [
        {
          "internalType": "uint256",
          "name": "",
          "type": "uint256"
        }
      ],
      "stateMutability": "view",
      "type": "function"
    },
    {
      "inputs": [
        {
          "internalType": "address",
          "name": "to_",
          "type": "address"
        },
        {
          "internalType": "uint256",
          "name": "tokenId_",
          "type": "uint256"
        }
      ],
      "name": "approve",
      "outputs": [],
      "stateMutability": "payable",
      "type": "function"
    },
    {
      "inputs": [
        {
          "internalType": "uint256",
          "name": "tokenId_",
          "type": "uint256"
        },
        {
          "internalType": "address",
          "name": "to_",
          "type": "address"
        },
        {
          "internalType": "uint256",
          "name": "value_",
          "type": "uint256"
        }
      ],
      "name": "approve",
      "outputs": [],
      "stateMutability": "payable",
      "type": "function"
    },
    {
      "inputs": [
        {
          "internalType": "address",
          "name": "owner_",
          "type": "address"
        }
      ],
      "name": "balanceOf",
      "outputs": [
        {
          "internalType": "uint256",
          "name": "balance",
          "type": "uint256"
        }
      ],
      "stateMutability": "view",
      "type": "function"
    },
    {
      "inputs": [
        {
          "internalType": "uint256",
          "name": "tokenId_",
          "type": "uint256"
        }
      ],
      "name": "balanceOf",
      "outputs": [
        {
          "internalType": "uint256",
          "name": "",
          "type": "uint256"
        }
      ],
      "stateMutability": "view",
      "type": "function"
    },
    {
      "inputs": [],
      "name": "contractURI",
      "outputs": [
        {
          "internalType": "string",
          "name": "",
          "type": "string"
        }
      ],
      "stateMutability": "view",
      "type": "function"
    },
    {
      "inputs": [
        {
          "internalType": "uint256",
          "name": "tokenId_",
          "type": "uint256"
        }
      ],
      "name": "getApproved",
      "outputs": [
        {
          "internalType": "address",
          "name": "",
          "type": "address"
        }
      ],
      "stateMutability": "view",
      "type": "function"
    },
    {
      "inputs": [
        {
          "internalType": "address",
          "name": "owner_",
          "type": "address"
        },
        {
          "internalType": "address",
          "name": "operator_",
          "type": "address"
        }
      ],
      "name": "isApprovedForAll",
      "outputs": [
        {
          "internalType": "bool",
          "name": "",
          "type": "bool"
        }
      ],
      "stateMutability": "view",
      "type": "function"
    },
    {
      "inputs": [],
      "name": "metadataDescriptor",
      "outputs": [
        {
          "internalType": "contract IERC3525MetadataDescriptorUpgradeable",
          "name": "",
          "type": "address"
        }
      ],
      "stateMutability": "view",
      "type": "function"
    },
    {
      "inputs": [
        {
          "internalType": "address",
          "name": "mintTo_",
          "type": "address"
        },
        {
          "internalType": "uint256",
          "name": "tokenId_",
          "type": "uint256"
        },
        {
          "internalType": "uint256",
          "name": "slot_",
          "type": "uint256"
        },
        {
          "internalType": "uint256",
          "name": "value_",
          "type": "uint256"
        }
      ],
      "name": "mint",
      "outputs": [],
      "stateMutability": "nonpayable",
      "type": "function"
    },
    {
      "inputs": [
        {
          "internalType": "uint256",
          "name": "tokenId_",
          "type": "uint256"
        },
        {
          "internalType": "uint256",
          "name": "value_",
          "type": "uint256"
        }
      ],
      "name": "mintValue",
      "outputs": [],
      "stateMutability": "nonpayable",
      "type": "function"
    },
    {
      "inputs": [],
      "name": "name",
      "outputs": [
        {
          "internalType": "string",
          "name": "",
          "type": "string"
        }
      ],
      "stateMutability": "view",
      "type": "function"
    },
    {
      "inputs": [
        {
          "internalType": "uint256",
          "name": "tokenId_",
          "type": "uint256"
        }
      ],
      "name": "ownerOf",
      "outputs": [
        {
          "internalType": "address",
          "name": "owner_",
          "type": "address"
        }
      ],
      "stateMutability": "view",
      "type": "function"
    },
    {
      "inputs": [
        {
          "internalType": "address",
          "name": "from_",
          "type": "address"
        },
        {
          "internalType": "address",
          "name": "to_",
          "type": "address"
        },
        {
          "internalType": "uint256",
          "name": "tokenId_",
          "type": "uint256"
        }
      ],
      "name": "safeTransferFrom",
      "outputs": [],
      "stateMutability": "payable",
      "type": "function"
    },
    {
      "inputs": [
        {
          "internalType": "address",
          "name": "from_",
          "type": "address"
        },
        {
          "internalType": "address",
          "name": "to_",
          "type": "address"
        },
        {
          "internalType": "uint256",
          "name": "tokenId_",
          "type": "uint256"
        },
        {
          "internalType": "bytes",
          "name": "data_",
          "type": "bytes"
        }
      ],
      "name": "safeTransferFrom",
      "outputs": [],
      "stateMutability": "payable",
      "type": "function"
    },
    {
      "inputs": [
        {
          "internalType": "address",
          "name": "operator_",
          "type": "address"
        },
        {
          "internalType": "bool",
          "name": "approved_",
          "type": "bool"
        }
      ],
      "name": "setApprovalForAll",
      "outputs": [],
      "stateMutability": "nonpayable",
      "type": "function"
    },
    {
      "inputs": [
        {
          "internalType": "uint256",
          "name": "tokenId_",
          "type": "uint256"
        }
      ],
      "name": "slotOf",
      "outputs": [
        {
          "internalType": "uint256",
          "name": "",
          "type": "uint256"
        }
      ],
      "stateMutability": "view",
      "type": "function"
    },
    {
      "inputs": [
        {
          "internalType": "uint256",
          "name": "slot_",
          "type": "uint256"
        }
      ],
      "name": "slotURI",
      "outputs": [
        {
          "internalType": "string",
          "name": "",
          "type": "string"
        }
      ],
      "stateMutability": "view",
      "type": "function"
    },
    {
      "inputs": [
        {
          "internalType": "bytes4",
          "name": "interfaceId",
          "type": "bytes4"
        }
      ],
      "name": "supportsInterface",
      "outputs": [
        {
          "internalType": "bool",
          "name": "",
          "type": "bool"
        }
      ],
      "stateMutability": "view",
      "type": "function"
    },
    {
      "inputs": [],
      "name": "symbol",
      "outputs": [
        {
          "internalType": "string",
          "name": "",
          "type": "string"
        }
      ],
      "stateMutability": "view",
      "type": "function"
    },
    {
      "inputs": [
        {
          "internalType": "uint256",
          "name": "index_",
          "type": "uint256"
        }
      ],
      "name": "tokenByIndex",
      "outputs": [
        {
          "internalType": "uint256",
          "name": "",
          "type": "uint256"
        }
      ],
      "stateMutability": "view",
      "type": "function"
    },
    {
      "inputs": [
        {
          "internalType": "address",
          "name": "owner_",
          "type": "address"
        },
        {
          "internalType": "uint256",
          "name": "index_",
          "type": "uint256"
        }
      ],
      "name": "tokenOfOwnerByIndex",
      "outputs": [
        {
          "internalType": "uint256",
          "name": "",
          "type": "uint256"
        }
      ],
      "stateMutability": "view",
      "type": "function"
    },
    {
      "inputs": [
        {
          "internalType": "uint256",
          "name": "tokenId_",
          "type": "uint256"
        }
      ],
      "name": "tokenURI",
      "outputs": [
        {
          "internalType": "string",
          "name": "",
          "type": "string"
        }
      ],
      "stateMutability": "view",
      "type": "function"
    },
    {
      "inputs": [],
      "name": "totalSupply",
      "outputs": [
        {
          "internalType": "uint256",
          "name": "",
          "type": "uint256"
        }
      ],
      "stateMutability": "view",
      "type": "function"
    },
    {
      "inputs": [
        {
          "internalType": "uint256",
          "name": "fromTokenId_",
          "type": "uint256"
        },
        {
          "internalType": "address",
          "name": "to_",
          "type": "address"
        },
        {
          "internalType": "uint256",
          "name": "value_",
          "type": "uint256"
        }
      ],
      "name": "transferFrom",
      "outputs": [
        {
          "internalType": "uint256",
          "name": "newTokenId",
          "type": "uint256"
        }
      ],
      "stateMutability": "payable",
      "type": "function"
    },
    {
      "inputs": [
        {
          "internalType": "address",
          "name": "from_",
          "type": "address"
        },
        {
          "internalType": "address",
          "name": "to_",
          "type": "address"
        },
        {
          "internalType": "uint256",
          "name": "tokenId_",
          "type": "uint256"
        }
      ],
      "name": "transferFrom",
      "outputs": [],
      "stateMutability": "payable",
      "type": "function"
    },
    {
      "inputs": [
        {
          "internalType": "uint256",
          "name": "fromTokenId_",
          "type": "uint256"
        },
        {
          "internalType": "uint256",
          "name": "toTokenId_",
          "type": "uint256"
        },
        {
          "internalType": "uint256",
          "name": "value_",
          "type": "uint256"
        }
      ],
      "name": "transferFrom",
      "outputs": [],
      "stateMutability": "payable",
      "type": "function"
    },
    {
      "inputs": [],
      "name": "valueDecimals",
      "outputs": [
        {
          "internalType": "uint8",
          "name": "",
          "type": "uint8"
        }
      ],
      "stateMutability": "view",
      "type": "function"
    }
  ],
  "bytecode": "0x60806040526040516200321a3803806200321a833981016040819052620000269162000318565b600054610100900460ff1615808015620000475750600054600160ff909116105b80620000635750303b15801562000063575060005460ff166001145b620000cc5760405162461bcd60e51b815260206004820152602e60248201527f496e697469616c697a61626c653a20636f6e747261637420697320616c72656160448201526d191e481a5b9a5d1a585b1a5e995960921b60648201526084015b60405180910390fd5b6000805460ff191660011790558015620000f0576000805461ff0019166101001790555b620000fd8484846200014e565b801562000144576000805461ff0019169055604051600181527f7f26b83ff96e1f2b6a682f133852f6798a09c465da95921460cefb38474024989060200160405180910390a15b50505050620004f7565b600054610100900460ff16620001aa5760405162461bcd60e51b815260206004820152602b6024820152600080516020620031fa83398151915260448201526a6e697469616c697a696e6760a81b6064820152608401620000c3565b620001b7838383620001bc565b505050565b600054610100900460ff16620002185760405162461bcd60e51b815260206004820152602b6024820152600080516020620031fa83398151915260448201526a6e697469616c697a696e6760a81b6064820152608401620000c3565b600160365560336200022b84826200042b565b5060346200023a83826200042b565b506035805460ff191660ff929092169190911790555050565b634e487b7160e01b600052604160045260246000fd5b600082601f8301126200027b57600080fd5b81516001600160401b038082111562000298576200029862000253565b604051601f8301601f19908116603f01168101908282118183101715620002c357620002c362000253565b81604052838152602092508683858801011115620002e057600080fd5b600091505b83821015620003045785820183015181830184015290820190620002e5565b600093810190920192909252949350505050565b6000806000606084860312156200032e57600080fd5b83516001600160401b03808211156200034657600080fd5b620003548783880162000269565b945060208601519150808211156200036b57600080fd5b506200037a8682870162000269565b925050604084015160ff811681146200039257600080fd5b809150509250925092565b600181811c90821680620003b257607f821691505b602082108103620003d357634e487b7160e01b600052602260045260246000fd5b50919050565b601f821115620001b757600081815260208120601f850160051c81016020861015620004025750805b601f850160051c820191505b8181101562000423578281556001016200040e565b505050505050565b81516001600160401b0381111562000447576200044762000253565b6200045f816200045884546200039d565b84620003d9565b602080601f8311600181146200049757600084156200047e5750858301515b600019600386901b1c1916600185901b17855562000423565b600085815260208120601f198616915b82811015620004c857888601518255948401946001909101908401620004a7565b5085821015620004e75787850151600019600388901b60f8161c191681555b5050505050600190811b01905550565b612cf380620005076000396000f3fe6080604052600436106101b75760003560e01c80636352211e116100ec578063a647e8ec1161008a578063e345e0bc11610064578063e345e0bc1461048c578063e8a3d485146104ac578063e985e9c5146104c1578063f0e88e7f1461050e57600080fd5b8063a647e8ec14610439578063b88d4fde14610459578063c87b56dd1461046c57600080fd5b80638cb0a511116100c65780638cb0a511146103d157806395d89b41146103e45780639cc7f708146103f9578063a22cb4651461041957600080fd5b80636352211e1461037157806370a0823114610391578063840f7113146103b157600080fd5b806323b872dd11610159578063310ed7f011610133578063310ed7f0146103095780633e7e86691461031c57806342842e0e1461033e5780634f6ccce71461035157600080fd5b806323b872dd146102b6578063263f3e7e146102c95780632f745c59146102e957600080fd5b8063095ea7b311610195578063095ea7b31461024b57806309c3dd87146102605780630f485c021461028057806318160ddd146102a157600080fd5b806301ffc9a7146101bc57806306fdde03146101f1578063081812fc14610213575b600080fd5b3480156101c857600080fd5b506101dc6101d73660046125cf565b61052e565b60405190151581526020015b60405180910390f35b3480156101fd57600080fd5b506102066105d1565b6040516101e8919061263c565b34801561021f57600080fd5b5061023361022e36600461264f565b610663565b6040516001600160a01b0390911681526020016101e8565b61025e61025936600461267f565b6106b5565b005b34801561026c57600080fd5b5061020661027b36600461264f565b610799565b61029361028e3660046126a9565b61088b565b6040519081526020016101e8565b3480156102ad57600080fd5b50603854610293565b61025e6102c43660046126de565b6108c3565b3480156102d557600080fd5b506102936102e436600461264f565b6108f4565b3480156102f557600080fd5b5061029361030436600461267f565b61093c565b61025e61031736600461270a565b6109dd565b34801561032857600080fd5b5060355460405160ff90911681526020016101e8565b61025e61034c3660046126de565b6109f3565b34801561035d57600080fd5b5061029361036c36600461264f565b610a0e565b34801561037d57600080fd5b5061023361038c36600461264f565b610a9f565b34801561039d57600080fd5b506102936103ac366004612736565b610b3b565b3480156103bd57600080fd5b50603b54610233906001600160a01b031681565b61025e6103df3660046126a9565b610bc3565b3480156103f057600080fd5b50610206610c82565b34801561040557600080fd5b5061029361041436600461264f565b610c91565b34801561042557600080fd5b5061025e61043436600461275f565b610cd9565b34801561044557600080fd5b5061025e610454366004612796565b610ce8565b61025e61046736600461283e565b610cf4565b34801561047857600080fd5b5061020661048736600461264f565b610d26565b34801561049857600080fd5b506102936104a73660046128e9565b610dc5565b3480156104b857600080fd5b50610206610df9565b3480156104cd57600080fd5b506101dc6104dc366004612915565b6001600160a01b039182166000908152603a602090815260408083209390941682526002909201909152205460ff1690565b34801561051a57600080fd5b5061025e61052936600461293f565b610ef3565b60006001600160e01b031982166301ffc9a760e01b148061055f57506001600160e01b03198216630354d60560e61b145b8061057a57506001600160e01b031982166380ac58cd60e01b145b8061059557506001600160e01b031982166370b0048160e11b145b806105b057506001600160e01b0319821663780e9d6360e01b145b806105cb57506001600160e01b03198216635b5e139f60e01b145b92915050565b6060603380546105e090612961565b80601f016020809104026020016040519081016040528092919081815260200182805461060c90612961565b80156106595780601f1061062e57610100808354040283529160200191610659565b820191906000526020600020905b81548152906001019060200180831161063c57829003601f168201915b5050505050905090565b600061066e82610efd565b6000828152603960205260409020546038805490919081106106925761069261299b565b60009182526020909120600460069092020101546001600160a01b031692915050565b60006106c082610a9f565b9050806001600160a01b0316836001600160a01b0316036106fc5760405162461bcd60e51b81526004016106f3906129b1565b60405180910390fd5b336001600160a01b0382161480610718575061071881336104dc565b61078a5760405162461bcd60e51b815260206004820152603960248201527f455243333532353a20617070726f76652063616c6c6572206973206e6f74206f60448201527f776e6572206e6f7220617070726f76656420666f7220616c6c0000000000000060648201526084016106f3565b6107948383610f51565b505050565b606060006107b260408051602081019091526000815290565b603b549091506001600160a01b03166108125760008151116107e35760405180602001604052806000815250610884565b806107ed84610fe8565b6040516020016107fe9291906129f3565b604051602081830303815290604052610884565b603b54604051633601bfc560e11b8152600481018590526001600160a01b0390911690636c037f8a906024015b600060405180830381865afa15801561085c573d6000803e3d6000fd5b505050506040513d6000823e601f3d908101601f191682016040526108849190810190612a33565b9392505050565b600061089833858461107b565b6108a18461110b565b90506108b883826108b1876108f4565b6000611115565b61088484828461123f565b6108cd3382611537565b6108e95760405162461bcd60e51b81526004016106f390612aaa565b6107948383836115ba565b60006108ff82610efd565b6000828152603960205260409020546038805490919081106109235761092361299b565b9060005260206000209060060201600101549050919050565b600061094783610b3b565b82106109a05760405162461bcd60e51b815260206004820152602260248201527f455243333532353a206f776e657220696e646578206f7574206f6620626f756e604482015261647360f01b60648201526084016106f3565b6001600160a01b0383166000908152603a602052604090208054839081106109ca576109ca61299b565b9060005260206000200154905092915050565b6109e833848361107b565b61079483838361123f565b61079483838360405180602001604052806000815250610cf4565b6000610a1960385490565b8210610a735760405162461bcd60e51b815260206004820152602360248201527f455243333532353a20676c6f62616c20696e646578206f7574206f6620626f756044820152626e647360e81b60648201526084016106f3565b60388281548110610a8657610a8661299b565b9060005260206000209060060201600001549050919050565b6000610aaa82610efd565b600082815260396020526040902054603880549091908110610ace57610ace61299b565b60009182526020909120600360069092020101546001600160a01b0316905080610b365760405162461bcd60e51b8152602060048201526019602482015278115490cccd4c8d4e881a5b9d985b1a59081d1bdad95b881251603a1b60448201526064016106f3565b919050565b60006001600160a01b038216610ba75760405162461bcd60e51b815260206004820152602b60248201527f455243333532353a2062616c616e636520717565727920666f7220746865207a60448201526a65726f206164647265737360a81b60648201526084016106f3565b506001600160a01b03166000908152603a602052604090205490565b6000610bce84610a9f565b9050806001600160a01b0316836001600160a01b031603610c015760405162461bcd60e51b81526004016106f3906129b1565b610c0b3385611537565b610c715760405162461bcd60e51b815260206004820152603160248201527f455243333532353a20617070726f76652063616c6c6572206973206e6f74206f6044820152701ddb995c881b9bdc88185c1c1c9bdd9959607a1b60648201526084016106f3565b610c7c84848461171b565b50505050565b6060603480546105e090612961565b6000610c9c82610efd565b600082815260396020526040902054603880549091908110610cc057610cc061299b565b9060005260206000209060060201600201549050919050565b610ce4338383611853565b5050565b610c7c84848484611115565b610cfe3383611537565b610d1a5760405162461bcd60e51b81526004016106f390612aaa565b610c7c8484848461191d565b6060610d3182610efd565b6000610d4860408051602081019091526000815290565b603b549091506001600160a01b0316610d94576000815111610d795760405180602001604052806000815250610884565b80610d8384610fe8565b6040516020016107fe929190612afc565b603b546040516344a5a61760e11b8152600481018590526001600160a01b039091169063894b4c2e9060240161083f565b6000610dd083610efd565b5060009182526037602090815260408084206001600160a01b0393909316845291905290205490565b60606000610e1260408051602081019091526000815290565b603b549091506001600160a01b0316610e72576000815111610e435760405180602001604052806000815250610eed565b80610e4d30611990565b604051602001610e5e929190612b2b565b604051602081830303815290604052610eed565b603b60009054906101000a90046001600160a01b03166001600160a01b031663725fa09c6040518163ffffffff1660e01b8152600401600060405180830381865afa158015610ec5573d6000803e3d6000fd5b505050506040513d6000823e601f3d908101601f19168201604052610eed9190810190612a33565b91505090565b610ce482826119a6565b610f06816119ca565b610f4e5760405162461bcd60e51b8152602060048201526019602482015278115490cccd4c8d4e881a5b9d985b1a59081d1bdad95b881251603a1b60448201526064016106f3565b50565b600081815260396020526040902054603880548492908110610f7557610f7561299b565b6000918252602090912060069091020160040180546001600160a01b0319166001600160a01b0392831617905581908316610faf82610a9f565b6001600160a01b03167f8c5be1e5ebec7d5bd14f71427d1e84f3dd0314c0f7b2291e5b200ac8c7c3b92560405160405180910390a45050565b60606000610ff583611a16565b600101905060008167ffffffffffffffff811115611015576110156127cf565b6040519080825280601f01601f19166020018201604052801561103f576020820181803683370190505b5090508181016020015b600019016f181899199a1a9b1b9c1cb0b131b232b360811b600a86061a8153600a850494508461104957509392505050565b60006110878385610dc5565b90506110938484611537565b1580156110a257506000198114155b15610c7c57818110156110f75760405162461bcd60e51b815260206004820152601f60248201527f455243333532353a20696e73756666696369656e7420616c6c6f77616e63650060448201526064016106f3565b610c7c83856111068585612b85565b61171b565b60006105cb611aee565b6001600160a01b0384166111755760405162461bcd60e51b815260206004820152602160248201527f455243333532353a206d696e7420746f20746865207a65726f206164647265736044820152607360f81b60648201526084016106f3565b826000036111cf5760405162461bcd60e51b815260206004820152602160248201527f455243333532353a2063616e6e6f74206d696e74207a65726f20746f6b656e496044820152601960fa1b60648201526084016106f3565b6111d8836119ca565b156112255760405162461bcd60e51b815260206004820152601d60248201527f455243333532353a20746f6b656e20616c7265616479206d696e74656400000060448201526064016106f3565b611230848484611b08565b61123a8382611bce565b610c7c565b611248836119ca565b6112a45760405162461bcd60e51b815260206004820152602760248201527f455243333532353a207472616e736665722066726f6d20696e76616c696420746044820152661bdad95b88125160ca1b60648201526084016106f3565b6112ad826119ca565b6113075760405162461bcd60e51b815260206004820152602560248201527f455243333532353a207472616e7366657220746f20696e76616c696420746f6b604482015264195b88125160da1b60648201526084016106f3565b60008381526039602052604081205460388054909190811061132b5761132b61299b565b90600052602060002090600602019050600060386039600086815260200190815260200160002054815481106113635761136361299b565b9060005260206000209060060201905082826002015410156113da5760405162461bcd60e51b815260206004820152602a60248201527f455243333532353a20696e73756666696369656e742062616c616e636520666f60448201526939103a3930b739b332b960b11b60648201526084016106f3565b80600101548260010154146114485760405162461bcd60e51b815260206004820152602e60248201527f455243333532353a207472616e7366657220746f20746f6b656e20776974682060448201526d191a5999995c995b9d081cdb1bdd60921b60648201526084016106f3565b8282600201600082825461145c9190612b85565b92505081905550828160020160008282546114779190612b98565b9091555050604051838152849086907f0b2aac84f3ec956911fd78eae5311062972ff949f38412e8da39069d9f068cc69060200160405180910390a36114ce85858560405180602001604052806000815250611c53565b6115305760405162461bcd60e51b815260206004820152602d60248201527f455243333532353a207472616e736665722072656a656374656420627920455260448201526c21999a991aa932b1b2b4bb32b960991b60648201526084016106f3565b5050505050565b60008061154383610a9f565b9050806001600160a01b0316846001600160a01b0316148061158e57506001600160a01b038082166000908152603a60209081526040808320938816835260029093019052205460ff165b806115b25750836001600160a01b03166115a784610663565b6001600160a01b0316145b949350505050565b826001600160a01b03166115cd82610a9f565b6001600160a01b03161461162f5760405162461bcd60e51b8152602060048201526024808201527f455243333532353a207472616e736665722066726f6d20696e76616c6964206f6044820152633bb732b960e11b60648201526084016106f3565b6001600160a01b0382166116935760405162461bcd60e51b815260206004820152602560248201527f455243333532353a207472616e7366657220746f20746865207a65726f206164604482015264647265737360d81b60648201526084016106f3565b600061169e826108f4565b905060006116ab83610c91565b90506116b8600084610f51565b6116c183611dc5565b6116cb8584611e70565b6116d58484611f91565b82846001600160a01b0316866001600160a01b03167fddf252ad1be2c89b69c2b068fc378daa952ba7f163c4a11628f55a4df523b3ef60405160405180910390a4611530565b6001600160a01b0382166117845760405162461bcd60e51b815260206004820152602a60248201527f455243333532353a20617070726f76652076616c756520746f20746865207a65604482015269726f206164647265737360b01b60648201526084016106f3565b61178e828461201a565b6117f4576000838152603960205260409020546038805490919081106117b6576117b661299b565b60009182526020808320600692909202909101600501805460018101825590835291200180546001600160a01b0319166001600160a01b0384161790555b60008381526037602090815260408083206001600160a01b038616808552908352928190208490555183815285917f621b050de0ad08b51d19b48b3e6df75348c4de6bdd93e81b252ca62e28265b1b91015b60405180910390a3505050565b816001600160a01b0316836001600160a01b0316036118b45760405162461bcd60e51b815260206004820152601a60248201527f455243333532353a20617070726f766520746f2063616c6c657200000000000060448201526064016106f3565b6001600160a01b038381166000818152603a602090815260408083209487168084526002909501825291829020805460ff191686151590811790915591519182527f17307eab39ab6107e8899845ad3d59bd9653f200f220920489ca2b5937696c319101611846565b6119288484846115ba565b611934848484846120ed565b610c7c5760405162461bcd60e51b815260206004820152602760248201527f455243333532353a207472616e7366657220746f206e6f6e204552433732315260448201526632b1b2b4bb32b960c91b60648201526084016106f3565b60606105cb6001600160a01b0383166014612233565b60006119b183610a9f565b905060006119be846108f4565b905061123a8484611bce565b603854600090158015906105cb57506000828152603960205260409020546038805484929081106119fd576119fd61299b565b9060005260206000209060060201600001541492915050565b60008072184f03e93ff9f4daa797ed6e38ed64bf6a1f0160401b8310611a555772184f03e93ff9f4daa797ed6e38ed64bf6a1f0160401b830492506040015b6d04ee2d6d415b85acef81000000008310611a81576d04ee2d6d415b85acef8100000000830492506020015b662386f26fc100008310611a9f57662386f26fc10000830492506010015b6305f5e1008310611ab7576305f5e100830492506008015b6127108310611acb57612710830492506004015b60648310611add576064830492506002015b600a83106105cb5760010192915050565b6036805460009182611aff83612bab565b91905055905090565b6040805160c081018252838152602080820184905260008284018190526001600160a01b038716606084015260808301819052835181815291820190935260a08201529050611b56816123cf565b611b608484611f91565b60405183906001600160a01b038616906000907fddf252ad1be2c89b69c2b068fc378daa952ba7f163c4a11628f55a4df523b3ef908290a4816000847fe4f48c240d3b994948aa54f3e2f5fca59263dfe1d52b6e4cf39a5d249b5ccb6560405160405180910390a450505050565b600082815260396020526040902054603880548392908110611bf257611bf261299b565b90600052602060002090600602016002016000828254611c129190612b98565b909155505060405181815282906000907f0b2aac84f3ec956911fd78eae5311062972ff949f38412e8da39069d9f068cc69060200160405180910390a35050565b600080611c5f85610a9f565b9050803b63ffffffff1615611db9576040516301ffc9a760e01b8152629ce20b60e01b60048201526001600160a01b038216906301ffc9a790602401602060405180830381865afa925050508015611cd4575060408051601f3d908101601f19168201909252611cd191810190612bc4565b60015b611d13573d808015611d02576040519150601f19603f3d011682016040523d82523d6000602084013e611d07565b606091505b506001925050506115b2565b8015611dae57604051629ce20b60e01b81526000906001600160a01b03841690629ce20b90611d4e9033908c908c908c908c90600401612be1565b6020604051808303816000875af1158015611d6d573d6000803e3d6000fd5b505050506040513d601f19601f82011682018060405250810190611d919190612c1f565b6001600160e01b031916629ce20b60e01b1493506115b292505050565b6001925050506115b2565b50600195945050505050565b600081815260396020526040812054603880549091908110611de957611de961299b565b600091825260208220600560069092020190810154909250905b81811015611e61576000836005018281548110611e2257611e2261299b565b60009182526020808320909101548783526037825260408084206001600160a01b03909216845291528120555080611e5981612bab565b915050611e03565b50610794600583016000612521565b600081815260396020526040812054603880549091908110611e9457611e9461299b565b6000918252602080832060069290920290910160030180546001600160a01b0319166001600160a01b039485161790559184168152603a909152604081208054909190611ee390600190612b85565b90506000826000018281548110611efc57611efc61299b565b90600052602060002001549050600083600101600086815260200190815260200160002054905081846000018281548110611f3957611f3961299b565b60009182526020808320909101929092558381526001860190915260408082208390558682528120558354849080611f7357611f73612c3c565b60019003818190600052602060002001600090559055505050505050565b600081815260396020526040902054603880548492908110611fb557611fb561299b565b6000918252602080832060069290920290910160030180546001600160a01b0319166001600160a01b03948516179055939091168152603a80845260408083208054858552600182810188529285208190559286529082018155825292902090910155565b60008181526039602052604081205460388054839290811061203e5761203e61299b565b6000918252602082206005600690920201015491505b818110156120e257600084815260396020526040902054603880546001600160a01b038816929081106120895761208961299b565b906000526020600020906006020160050182815481106120ab576120ab61299b565b6000918252602090912001546001600160a01b0316036120d0576001925050506105cb565b806120da81612bab565b915050612054565b506000949350505050565b6000833b63ffffffff161561222b57604051630a85bd0160e11b81526001600160a01b0385169063150b7a029061212e903390899088908890600401612c52565b6020604051808303816000875af1925050508015612169575060408051601f3d908101601f1916820190925261216691810190612c1f565b60015b612211573d808015612197576040519150601f19603f3d011682016040523d82523d6000602084013e61219c565b606091505b5080516000036122095760405162461bcd60e51b815260206004820152603260248201527f4552433732313a207472616e7366657220746f206e6f6e20455243373231526560448201527131b2b4bb32b91034b6b83632b6b2b73a32b960711b60648201526084016106f3565b805181602001fd5b6001600160e01b031916630a85bd0160e11b1490506115b2565b5060016115b2565b60606000612242836002612c8f565b61224d906002612b98565b67ffffffffffffffff811115612265576122656127cf565b6040519080825280601f01601f19166020018201604052801561228f576020820181803683370190505b509050600360fc1b816000815181106122aa576122aa61299b565b60200101906001600160f81b031916908160001a905350600f60fb1b816001815181106122d9576122d961299b565b60200101906001600160f81b031916908160001a90535060006122fd846002612c8f565b612308906001612b98565b90505b6001811115612380576f181899199a1a9b1b9c1cb0b131b232b360811b85600f166010811061233c5761233c61299b565b1a60f81b8282815181106123525761235261299b565b60200101906001600160f81b031916908160001a90535060049490941c9361237981612ca6565b905061230b565b5083156108845760405162461bcd60e51b815260206004820181905260248201527f537472696e67733a20686578206c656e67746820696e73756666696369656e7460448201526064016106f3565b603880548251600090815260396020908152604080832084905560018401855593909152835160069092027f38395c5dceade9603479b177b68959049485df8aa97b39f3533039af5f4561998101928355818501517f38395c5dceade9603479b177b68959049485df8aa97b39f3533039af5f45619a820155928401517f38395c5dceade9603479b177b68959049485df8aa97b39f3533039af5f45619b84015560608401517f38395c5dceade9603479b177b68959049485df8aa97b39f3533039af5f45619c840180546001600160a01b039283166001600160a01b03199182161790915560808601517f38395c5dceade9603479b177b68959049485df8aa97b39f3533039af5f45619d8601805491909316911617905560a084015180518594610c7c937f38395c5dceade9603479b177b68959049485df8aa97b39f3533039af5f45619e90910192019061253f565b5080546000825590600052602060002090810190610f4e91906125a4565b828054828255906000526020600020908101928215612594579160200282015b8281111561259457825182546001600160a01b0319166001600160a01b0390911617825560209092019160019091019061255f565b506125a09291506125a4565b5090565b5b808211156125a057600081556001016125a5565b6001600160e01b031981168114610f4e57600080fd5b6000602082840312156125e157600080fd5b8135610884816125b9565b60005b838110156126075781810151838201526020016125ef565b50506000910152565b600081518084526126288160208601602086016125ec565b601f01601f19169290920160200192915050565b6020815260006108846020830184612610565b60006020828403121561266157600080fd5b5035919050565b80356001600160a01b0381168114610b3657600080fd5b6000806040838503121561269257600080fd5b61269b83612668565b946020939093013593505050565b6000806000606084860312156126be57600080fd5b833592506126ce60208501612668565b9150604084013590509250925092565b6000806000606084860312156126f357600080fd5b6126fc84612668565b92506126ce60208501612668565b60008060006060848603121561271f57600080fd5b505081359360208301359350604090920135919050565b60006020828403121561274857600080fd5b61088482612668565b8015158114610f4e57600080fd5b6000806040838503121561277257600080fd5b61277b83612668565b9150602083013561278b81612751565b809150509250929050565b600080600080608085870312156127ac57600080fd5b6127b585612668565b966020860135965060408601359560600135945092505050565b634e487b7160e01b600052604160045260246000fd5b604051601f8201601f1916810167ffffffffffffffff8111828210171561280e5761280e6127cf565b604052919050565b600067ffffffffffffffff821115612830576128306127cf565b50601f01601f191660200190565b6000806000806080858703121561285457600080fd5b61285d85612668565b935061286b60208601612668565b925060408501359150606085013567ffffffffffffffff81111561288e57600080fd5b8501601f8101871361289f57600080fd5b80356128b26128ad82612816565b6127e5565b8181528860208385010111156128c757600080fd5b8160208401602083013760006020838301015280935050505092959194509250565b600080604083850312156128fc57600080fd5b8235915061290c60208401612668565b90509250929050565b6000806040838503121561292857600080fd5b61293183612668565b915061290c60208401612668565b6000806040838503121561295257600080fd5b50508035926020909101359150565b600181811c9082168061297557607f821691505b60208210810361299557634e487b7160e01b600052602260045260246000fd5b50919050565b634e487b7160e01b600052603260045260246000fd5b60208082526022908201527f455243333532353a20617070726f76616c20746f2063757272656e74206f776e60408201526132b960f11b606082015260800190565b60008351612a058184602088016125ec565b64736c6f742f60d81b9083019081528351612a278160058401602088016125ec565b01600501949350505050565b600060208284031215612a4557600080fd5b815167ffffffffffffffff811115612a5c57600080fd5b8201601f81018413612a6d57600080fd5b8051612a7b6128ad82612816565b818152856020838501011115612a9057600080fd5b612aa18260208301602086016125ec565b95945050505050565b60208082526032908201527f455243333532353a207472616e736665722063616c6c6572206973206e6f74206040820152711bdddb995c881b9bdc88185c1c1c9bdd995960721b606082015260800190565b60008351612b0e8184602088016125ec565b835190830190612b228183602088016125ec565b01949350505050565b60008351612b3d8184602088016125ec565b68636f6e74726163742f60b81b9083019081528351612b638160098401602088016125ec565b01600901949350505050565b634e487b7160e01b600052601160045260246000fd5b818103818111156105cb576105cb612b6f565b808201808211156105cb576105cb612b6f565b600060018201612bbd57612bbd612b6f565b5060010190565b600060208284031215612bd657600080fd5b815161088481612751565b60018060a01b038616815284602082015283604082015282606082015260a060808201526000612c1460a0830184612610565b979650505050505050565b600060208284031215612c3157600080fd5b8151610884816125b9565b634e487b7160e01b600052603160045260246000fd5b6001600160a01b0385811682528416602082015260408101839052608060608201819052600090612c8590830184612610565b9695505050505050565b80820281158282048414176105cb576105cb612b6f565b600081612cb557612cb5612b6f565b50600019019056fea264697066735822122099cfbd131a171a9f1fcedc19abe05863380d12d1f7003b7e13c30221a0b0176364736f6c63430008140033496e697469616c697a61626c653a20636f6e7472616374206973206e6f742069",
  "linkReferences": {},
  "deployedLinkReferences": {}
}