{
  "_format": "hh-sol-artifact-1",
  "contractName": "ERC3525SlotApprovableUpgradeableWithInit",
  "sourceName": "contracts/mocks/ERC3525BaseMockUpgradeableWithInit.sol",
  "abi": [
    {
      "inputs": [
        {
          "internalType": "string",
          "name": "name_",
          "type": "string"
        },
        {
          "internalType": "string",
          "name": "symbol_",
          "type": "string"
        },
        {
          "internalType": "uint8",
          "name": "decimals_",
          "type": "uint8"
        }
      ],
      "stateMutability": "payable",
      "type": "constructor"
    },
    {
      "anonymous": false,
      "inputs": [
        {
          "indexed": true,
          "internalType": "address",
          "name": "_owner",
          "type": "address"
        },
        {
          "indexed": true,
          "internalType": "address",
          "name": "_approved",
          "type": "address"
        },
        {
          "indexed": true,
          "internalType": "uint256",
          "name": "_tokenId",
          "type": "uint256"
        }
      ],
      "name": "Approval",
      "type": "event"
    },
    {
      "anonymous": false,
      "inputs": [
        {
          "indexed": true,
          "internalType": "address",
          "name": "_owner",
          "type": "address"
        },
        {
          "indexed": true,
          "internalType": "address",
          "name": "_operator",
          "type": "address"
        },
        {
          "indexed": false,
          "internalType": "bool",
          "name": "_approved",
          "type": "bool"
        }
      ],
      "name": "ApprovalForAll",
      "type": "event"
    },
    {
      "anonymous": false,
      "inputs": [
        {
          "indexed": true,
          "internalType": "address",
          "name": "_owner",
          "type": "address"
        },
        {
          "indexed": true,
          "internalType": "uint256",
          "name": "_slot",
          "type": "uint256"
        },
        {
          "indexed": true,
          "internalType": "address",
          "name": "_operator",
          "type": "address"
        },
        {
          "indexed": false,
          "internalType": "bool",
          "name": "_approved",
          "type": "bool"
        }
      ],
      "name": "ApprovalForSlot",
      "type": "event"
    },
    {
      "anonymous": false,
      "inputs": [
        {
          "indexed": true,
          "internalType": "uint256",
          "name": "_tokenId",
          "type": "uint256"
        },
        {
          "indexed": true,
          "internalType": "address",
          "name": "_operator",
          "type": "address"
        },
        {
          "indexed": false,
          "internalType": "uint256",
          "name": "_value",
          "type": "uint256"
        }
      ],
      "name": "ApprovalValue",
      "type": "event"
    },
    {
      "anonymous": false,
      "inputs": [
        {
          "indexed": false,
          "internalType": "uint8",
          "name": "version",
          "type": "uint8"
        }
      ],
      "name": "Initialized",
      "type": "event"
    },
    {
      "anonymous": false,
      "inputs": [
        {
          "indexed": true,
          "internalType": "address",
          "name": "metadataDescriptor",
          "type": "address"
        }
      ],
      "name": "SetMetadataDescriptor",
      "type": "event"
    },
    {
      "anonymous": false,
      "inputs": [
        {
          "indexed": true,
          "internalType": "uint256",
          "name": "_tokenId",
          "type": "uint256"
        },
        {
          "indexed": true,
          "internalType": "uint256",
          "name": "_oldSlot",
          "type": "uint256"
        },
        {
          "indexed": true,
          "internalType": "uint256",
          "name": "_newSlot",
          "type": "uint256"
        }
      ],
      "name": "SlotChanged",
      "type": "event"
    },
    {
      "anonymous": false,
      "inputs": [
        {
          "indexed": true,
          "internalType": "address",
          "name": "_from",
          "type": "address"
        },
        {
          "indexed": true,
          "internalType": "address",
          "name": "_to",
          "type": "address"
        },
        {
          "indexed": true,
          "internalType": "uint256",
          "name": "_tokenId",
          "type": "uint256"
        }
      ],
      "name": "Transfer",
      "type": "event"
    },
    {
      "anonymous": false,
      "inputs": [
        {
          "indexed": true,
          "internalType": "uint256",
          "name": "_fromTokenId",
          "type": "uint256"
        },
        {
          "indexed": true,
          "internalType": "uint256",
          "name": "_toTokenId",
          "type": "uint256"
        },
        {
          "indexed": false,
          "internalType": "uint256",
          "name": "_value",
          "type": "uint256"
        }
      ],
      "name": "TransferValue",
      "type": "event"
    },
    {
      "inputs": [
        {
          "internalType": "uint256",
          "name": "tokenId_",
          "type": "uint256"
        },
        {
          "internalType": "address",
          "name": "operator_",
          "type": "address"
        }
      ],
      "name": "allowance",
      "outputs": [
        {
          "internalType": "uint256",
          "name": "",
          "type": "uint256"
        }
      ],
      "stateMutability": "view",
      "type": "function"
    },
    {
      "inputs": [
        {
          "internalType": "address",
          "name": "to_",
          "type": "address"
        },
        {
          "internalType": "uint256",
          "name": "tokenId_",
          "type": "uint256"
        }
      ],
      "name": "approve",
      "outputs": [],
      "stateMutability": "payable",
      "type": "function"
    },
    {
      "inputs": [
        {
          "internalType": "uint256",
          "name": "tokenId_",
          "type": "uint256"
        },
        {
          "internalType": "address",
          "name": "to_",
          "type": "address"
        },
        {
          "internalType": "uint256",
          "name": "value_",
          "type": "uint256"
        }
      ],
      "name": "approve",
      "outputs": [],
      "stateMutability": "payable",
      "type": "function"
    },
    {
      "inputs": [
        {
          "internalType": "address",
          "name": "owner_",
          "type": "address"
        }
      ],
      "name": "balanceOf",
      "outputs": [
        {
          "internalType": "uint256",
          "name": "balance",
          "type": "uint256"
        }
      ],
      "stateMutability": "view",
      "type": "function"
    },
    {
      "inputs": [
        {
          "internalType": "uint256",
          "name": "tokenId_",
          "type": "uint256"
        }
      ],
      "name": "balanceOf",
      "outputs": [
        {
          "internalType": "uint256",
          "name": "",
          "type": "uint256"
        }
      ],
      "stateMutability": "view",
      "type": "function"
    },
    {
      "inputs": [],
      "name": "contractURI",
      "outputs": [
        {
          "internalType": "string",
          "name": "",
          "type": "string"
        }
      ],
      "stateMutability": "view",
      "type": "function"
    },
    {
      "inputs": [
        {
          "internalType": "uint256",
          "name": "tokenId_",
          "type": "uint256"
        }
      ],
      "name": "getApproved",
      "outputs": [
        {
          "internalType": "address",
          "name": "",
          "type": "address"
        }
      ],
      "stateMutability": "view",
      "type": "function"
    },
    {
      "inputs": [
        {
          "internalType": "address",
          "name": "owner_",
          "type": "address"
        },
        {
          "internalType": "address",
          "name": "operator_",
          "type": "address"
        }
      ],
      "name": "isApprovedForAll",
      "outputs": [
        {
          "internalType": "bool",
          "name": "",
          "type": "bool"
        }
      ],
      "stateMutability": "view",
      "type": "function"
    },
    {
      "inputs": [
        {
          "internalType": "address",
          "name": "owner_",
          "type": "address"
        },
        {
          "internalType": "uint256",
          "name": "slot_",
          "type": "uint256"
        },
        {
          "internalType": "address",
          "name": "operator_",
          "type": "address"
        }
      ],
      "name": "isApprovedForSlot",
      "outputs": [
        {
          "internalType": "bool",
          "name": "",
          "type": "bool"
        }
      ],
      "stateMutability": "view",
      "type": "function"
    },
    {
      "inputs": [],
      "name": "metadataDescriptor",
      "outputs": [
        {
          "internalType": "contract IERC3525MetadataDescriptorUpgradeable",
          "name": "",
          "type": "address"
        }
      ],
      "stateMutability": "view",
      "type": "function"
    },
    {
      "inputs": [],
      "name": "name",
      "outputs": [
        {
          "internalType": "string",
          "name": "",
          "type": "string"
        }
      ],
      "stateMutability": "view",
      "type": "function"
    },
    {
      "inputs": [
        {
          "internalType": "uint256",
          "name": "tokenId_",
          "type": "uint256"
        }
      ],
      "name": "ownerOf",
      "outputs": [
        {
          "internalType": "address",
          "name": "owner_",
          "type": "address"
        }
      ],
      "stateMutability": "view",
      "type": "function"
    },
    {
      "inputs": [
        {
          "internalType": "address",
          "name": "from_",
          "type": "address"
        },
        {
          "internalType": "address",
          "name": "to_",
          "type": "address"
        },
        {
          "internalType": "uint256",
          "name": "tokenId_",
          "type": "uint256"
        }
      ],
      "name": "safeTransferFrom",
      "outputs": [],
      "stateMutability": "payable",
      "type": "function"
    },
    {
      "inputs": [
        {
          "internalType": "address",
          "name": "from_",
          "type": "address"
        },
        {
          "internalType": "address",
          "name": "to_",
          "type": "address"
        },
        {
          "internalType": "uint256",
          "name": "tokenId_",
          "type": "uint256"
        },
        {
          "internalType": "bytes",
          "name": "data_",
          "type": "bytes"
        }
      ],
      "name": "safeTransferFrom",
      "outputs": [],
      "stateMutability": "payable",
      "type": "function"
    },
    {
      "inputs": [
        {
          "internalType": "address",
          "name": "operator_",
          "type": "address"
        },
        {
          "internalType": "bool",
          "name": "approved_",
          "type": "bool"
        }
      ],
      "name": "setApprovalForAll",
      "outputs": [],
      "stateMutability": "nonpayable",
      "type": "function"
    },
    {
      "inputs": [
        {
          "internalType": "address",
          "name": "owner_",
          "type": "address"
        },
        {
          "internalType": "uint256",
          "name": "slot_",
          "type": "uint256"
        },
        {
          "internalType": "address",
          "name": "operator_",
          "type": "address"
        },
        {
          "internalType": "bool",
          "name": "approved_",
          "type": "bool"
        }
      ],
      "name": "setApprovalForSlot",
      "outputs": [],
      "stateMutability": "payable",
      "type": "function"
    },
    {
      "inputs": [
        {
          "internalType": "uint256",
          "name": "index_",
          "type": "uint256"
        }
      ],
      "name": "slotByIndex",
      "outputs": [
        {
          "internalType": "uint256",
          "name": "",
          "type": "uint256"
        }
      ],
      "stateMutability": "view",
      "type": "function"
    },
    {
      "inputs": [],
      "name": "slotCount",
      "outputs": [
        {
          "internalType": "uint256",
          "name": "",
          "type": "uint256"
        }
      ],
      "stateMutability": "view",
      "type": "function"
    },
    {
      "inputs": [
        {
          "internalType": "uint256",
          "name": "tokenId_",
          "type": "uint256"
        }
      ],
      "name": "slotOf",
      "outputs": [
        {
          "internalType": "uint256",
          "name": "",
          "type": "uint256"
        }
      ],
      "stateMutability": "view",
      "type": "function"
    },
    {
      "inputs": [
        {
          "internalType": "uint256",
          "name": "slot_",
          "type": "uint256"
        }
      ],
      "name": "slotURI",
      "outputs": [
        {
          "internalType": "string",
          "name": "",
          "type": "string"
        }
      ],
      "stateMutability": "view",
      "type": "function"
    },
    {
      "inputs": [
        {
          "internalType": "bytes4",
          "name": "interfaceId",
          "type": "bytes4"
        }
      ],
      "name": "supportsInterface",
      "outputs": [
        {
          "internalType": "bool",
          "name": "",
          "type": "bool"
        }
      ],
      "stateMutability": "view",
      "type": "function"
    },
    {
      "inputs": [],
      "name": "symbol",
      "outputs": [
        {
          "internalType": "string",
          "name": "",
          "type": "string"
        }
      ],
      "stateMutability": "view",
      "type": "function"
    },
    {
      "inputs": [
        {
          "internalType": "uint256",
          "name": "index_",
          "type": "uint256"
        }
      ],
      "name": "tokenByIndex",
      "outputs": [
        {
          "internalType": "uint256",
          "name": "",
          "type": "uint256"
        }
      ],
      "stateMutability": "view",
      "type": "function"
    },
    {
      "inputs": [
        {
          "internalType": "uint256",
          "name": "slot_",
          "type": "uint256"
        },
        {
          "internalType": "uint256",
          "name": "index_",
          "type": "uint256"
        }
      ],
      "name": "tokenInSlotByIndex",
      "outputs": [
        {
          "internalType": "uint256",
          "name": "",
          "type": "uint256"
        }
      ],
      "stateMutability": "view",
      "type": "function"
    },
    {
      "inputs": [
        {
          "internalType": "address",
          "name": "owner_",
          "type": "address"
        },
        {
          "internalType": "uint256",
          "name": "index_",
          "type": "uint256"
        }
      ],
      "name": "tokenOfOwnerByIndex",
      "outputs": [
        {
          "internalType": "uint256",
          "name": "",
          "type": "uint256"
        }
      ],
      "stateMutability": "view",
      "type": "function"
    },
    {
      "inputs": [
        {
          "internalType": "uint256",
          "name": "slot_",
          "type": "uint256"
        }
      ],
      "name": "tokenSupplyInSlot",
      "outputs": [
        {
          "internalType": "uint256",
          "name": "",
          "type": "uint256"
        }
      ],
      "stateMutability": "view",
      "type": "function"
    },
    {
      "inputs": [
        {
          "internalType": "uint256",
          "name": "tokenId_",
          "type": "uint256"
        }
      ],
      "name": "tokenURI",
      "outputs": [
        {
          "internalType": "string",
          "name": "",
          "type": "string"
        }
      ],
      "stateMutability": "view",
      "type": "function"
    },
    {
      "inputs": [],
      "name": "totalSupply",
      "outputs": [
        {
          "internalType": "uint256",
          "name": "",
          "type": "uint256"
        }
      ],
      "stateMutability": "view",
      "type": "function"
    },
    {
      "inputs": [
        {
          "internalType": "uint256",
          "name": "fromTokenId_",
          "type": "uint256"
        },
        {
          "internalType": "address",
          "name": "to_",
          "type": "address"
        },
        {
          "internalType": "uint256",
          "name": "value_",
          "type": "uint256"
        }
      ],
      "name": "transferFrom",
      "outputs": [
        {
          "internalType": "uint256",
          "name": "newTokenId",
          "type": "uint256"
        }
      ],
      "stateMutability": "payable",
      "type": "function"
    },
    {
      "inputs": [
        {
          "internalType": "address",
          "name": "from_",
          "type": "address"
        },
        {
          "internalType": "address",
          "name": "to_",
          "type": "address"
        },
        {
          "internalType": "uint256",
          "name": "tokenId_",
          "type": "uint256"
        }
      ],
      "name": "transferFrom",
      "outputs": [],
      "stateMutability": "payable",
      "type": "function"
    },
    {
      "inputs": [
        {
          "internalType": "uint256",
          "name": "fromTokenId_",
          "type": "uint256"
        },
        {
          "internalType": "uint256",
          "name": "toTokenId_",
          "type": "uint256"
        },
        {
          "internalType": "uint256",
          "name": "value_",
          "type": "uint256"
        }
      ],
      "name": "transferFrom",
      "outputs": [],
      "stateMutability": "payable",
      "type": "function"
    },
    {
      "inputs": [],
      "name": "valueDecimals",
      "outputs": [
        {
          "internalType": "uint8",
          "name": "",
          "type": "uint8"
        }
      ],
      "stateMutability": "view",
      "type": "function"
    }
  ],
  "bytecode": "0x608060405260405162003bf438038062003bf4833981016040819052620000269162000381565b600054610100900460ff1615808015620000475750600054600160ff909116105b80620000635750303b15801562000063575060005460ff166001145b620000cc5760405162461bcd60e51b815260206004820152602e60248201527f496e697469616c697a61626c653a20636f6e747261637420697320616c72656160448201526d191e481a5b9a5d1a585b1a5e995960921b60648201526084015b60405180910390fd5b6000805460ff191660011790558015620000f0576000805461ff0019166101001790555b620000fd8484846200014e565b801562000144576000805461ff0019169055604051600181527f7f26b83ff96e1f2b6a682f133852f6798a09c465da95921460cefb38474024989060200160405180910390a15b5050505062000560565b600054610100900460ff16620001aa5760405162461bcd60e51b815260206004820152602b602482015260008051602062003bd483398151915260448201526a6e697469616c697a696e6760a81b6064820152608401620000c3565b620001b7838383620001c9565b620001c483838362000260565b505050565b600054610100900460ff16620002255760405162461bcd60e51b815260206004820152602b602482015260008051602062003bd483398151915260448201526a6e697469616c697a696e6760a81b6064820152608401620000c3565b6001603655603362000238848262000494565b50603462000247838262000494565b506035805460ff191660ff929092169190911790555050565b600054610100900460ff16620001c45760405162461bcd60e51b815260206004820152602b602482015260008051602062003bd483398151915260448201526a6e697469616c697a696e6760a81b6064820152608401620000c3565b634e487b7160e01b600052604160045260246000fd5b600082601f830112620002e457600080fd5b81516001600160401b0380821115620003015762000301620002bc565b604051601f8301601f19908116603f011681019082821181831017156200032c576200032c620002bc565b816040528381526020925086838588010111156200034957600080fd5b600091505b838210156200036d57858201830151818301840152908201906200034e565b600093810190920192909252949350505050565b6000806000606084860312156200039757600080fd5b83516001600160401b0380821115620003af57600080fd5b620003bd87838801620002d2565b94506020860151915080821115620003d457600080fd5b50620003e386828701620002d2565b925050604084015160ff81168114620003fb57600080fd5b809150509250925092565b600181811c908216806200041b57607f821691505b6020821081036200043c57634e487b7160e01b600052602260045260246000fd5b50919050565b601f821115620001c457600081815260208120601f850160051c810160208610156200046b5750805b601f850160051c820191505b818110156200048c5782815560010162000477565b505050505050565b81516001600160401b03811115620004b057620004b0620002bc565b620004c881620004c1845462000406565b8462000442565b602080601f831160018114620005005760008415620004e75750858301515b600019600386901b1c1916600185901b1785556200048c565b600085815260208120601f198616915b82811015620005315788860151825594840194600190910190840162000510565b5085821015620005505787850151600019600388901b60f8161c191681555b5050505050600190811b01905550565b61366480620005706000396000f3fe6080604052600436106101e25760003560e01c806355cd4e0611610102578063a22cb46511610095578063e345f05e11610064578063e345f05e1461052a578063e8a3d4851461057b578063e985e9c514610590578063ed08fa80146105dd57600080fd5b8063a22cb465146104b7578063b88d4fde146104d7578063c87b56dd146104ea578063e345e0bc1461050a57600080fd5b80638cb0a511116100d15780638cb0a5111461044f57806395d89b4114610462578063993bef8d146104775780639cc7f7081461049757600080fd5b806355cd4e06146103dc5780636352211e146103ef57806370a082311461040f578063840f71131461042f57600080fd5b806323b872dd1161017a5780633e7e8669116101495780633e7e86691461036757806342842e0e146103895780634f6ccce71461039c5780634f8a0f83146103bc57600080fd5b806323b872dd14610301578063263f3e7e146103145780632f745c5914610334578063310ed7f01461035457600080fd5b8063095ea7b3116101b6578063095ea7b3146102a457806309c3dd87146102b95780630f485c02146102d957806318160ddd146102ec57600080fd5b8062cd0110146101e757806301ffc9a71461021a57806306fdde031461024a578063081812fc1461026c575b600080fd5b3480156101f357600080fd5b50610207610202366004612ee1565b6105f2565b6040519081526020015b60405180910390f35b34801561022657600080fd5b5061023a610235366004612f19565b6106c8565b6040519015158152602001610211565b34801561025657600080fd5b5061025f6106ed565b6040516102119190612f86565b34801561027857600080fd5b5061028c610287366004612f99565b61077f565b6040516001600160a01b039091168152602001610211565b6102b76102b2366004612fc9565b6107d1565b005b3480156102c557600080fd5b5061025f6102d4366004612f99565b6108cb565b6102076102e7366004612ff3565b6109bd565b3480156102f857600080fd5b50603854610207565b6102b761030f366004613028565b6109f5565b34801561032057600080fd5b5061020761032f366004612f99565b610a2b565b34801561034057600080fd5b5061020761034f366004612fc9565b610a73565b6102b7610362366004613054565b610b01565b34801561037357600080fd5b5060355460405160ff9091168152602001610211565b6102b7610397366004613028565b610b17565b3480156103a857600080fd5b506102076103b7366004612f99565b610b32565b3480156103c857600080fd5b506102076103d7366004612f99565b610bc3565b6102b76103ea36600461308e565b610c18565b3480156103fb57600080fd5b5061028c61040a366004612f99565b610cb2565b34801561041b57600080fd5b5061020761042a3660046130dd565b610d4e565b34801561043b57600080fd5b50603b5461028c906001600160a01b031681565b6102b761045d366004612ff3565b610dd6565b34801561046e57600080fd5b5061025f610e8f565b34801561048357600080fd5b50610207610492366004612f99565b610e9e565b3480156104a357600080fd5b506102076104b2366004612f99565b610f3b565b3480156104c357600080fd5b506102b76104d23660046130f8565b610f83565b6102b76104e536600461319e565b610f92565b3480156104f657600080fd5b5061025f610505366004612f99565b610fc4565b34801561051657600080fd5b50610207610525366004613249565b611063565b34801561053657600080fd5b5061023a610545366004613275565b6001600160a01b039283166000908152609760209081526040808320948352938152838220929094168152925290205460ff1690565b34801561058757600080fd5b5061025f611097565b34801561059c57600080fd5b5061023a6105ab3660046132b1565b6001600160a01b039182166000908152603a602090815260408083209390941682526002909201909152205460ff1690565b3480156105e957600080fd5b50606654610207565b60006105fd83610bc3565b821061066e5760405162461bcd60e51b815260206004820152603560248201527f45524333353235536c6f74456e756d657261626c653a20736c6f7420746f6b656044820152746e20696e646578206f7574206f6620626f756e647360581b60648201526084015b60405180910390fd5b600083815260676020526040902054606680549091908110610692576106926132db565b906000526020600020906002020160010182815481106106b4576106b46132db565b906000526020600020015490505b92915050565b60006001600160e01b031982166316d117cb60e31b14806106c257506106c282611191565b6060603380546106fc906132f1565b80601f0160208091040260200160405190810160405280929190818152602001828054610728906132f1565b80156107755780601f1061074a57610100808354040283529160200191610775565b820191906000526020600020905b81548152906001019060200180831161075857829003601f168201915b5050505050905090565b600061078a826111b6565b6000828152603960205260409020546038805490919081106107ae576107ae6132db565b60009182526020909120600460069092020101546001600160a01b031692915050565b60006107dc82610cb2565b905060006107e983610a2b565b9050816001600160a01b0316846001600160a01b03160361081c5760405162461bcd60e51b81526004016106659061332b565b336001600160a01b0383161480610838575061083882336105ab565b806108495750610849828233610545565b6108bb5760405162461bcd60e51b815260206004820152603e60248201527f455243333532353a20617070726f76652063616c6c6572206973206e6f74206f60448201527f776e6572206e6f7220617070726f76656420666f7220616c6c2f736c6f7400006064820152608401610665565b6108c5848461120a565b50505050565b606060006108e460408051602081019091526000815290565b603b549091506001600160a01b031661094457600081511161091557604051806020016040528060008152506109b6565b8061091f846112a1565b60405160200161093092919061336d565b6040516020818303038152906040526109b6565b603b54604051633601bfc560e11b8152600481018590526001600160a01b0390911690636c037f8a906024015b600060405180830381865afa15801561098e573d6000803e3d6000fd5b505050506040513d6000823e601f3d908101601f191682016040526109b691908101906133ad565b9392505050565b60006109ca338584611334565b6109d3846113c4565b90506109ea83826109e387610a2b565b60006113ce565b6109b6848284611513565b6109ff3382611861565b610a1b5760405162461bcd60e51b81526004016106659061341b565b610a26838383611910565b505050565b6000610a36826111b6565b600082815260396020526040902054603880549091908110610a5a57610a5a6132db565b9060005260206000209060060201600101549050919050565b6000610a7e83610d4e565b8210610ad75760405162461bcd60e51b815260206004820152602260248201527f455243333532353a206f776e657220696e646578206f7574206f6620626f756e604482015261647360f01b6064820152608401610665565b6001600160a01b0383166000908152603a602052604090208054839081106106b4576106b46132db565b610b0c338483611334565b610a26838383611513565b610a2683838360405180602001604052806000815250610f92565b6000610b3d60385490565b8210610b975760405162461bcd60e51b815260206004820152602360248201527f455243333532353a20676c6f62616c20696e646578206f7574206f6620626f756044820152626e647360e81b6064820152608401610665565b60388281548110610baa57610baa6132db565b9060005260206000209060060201600001549050919050565b6000610bce82611a88565b610bda57506000919050565b600082815260676020526040902054606680549091908110610bfe57610bfe6132db565b600091825260209091206001600290920201015492915050565b336001600160a01b0385161480610c345750610c3484336105ab565b610ca65760405162461bcd60e51b815260206004820152603f60248201527f45524333353235536c6f74417070726f7661626c653a2063616c6c657220697360448201527f206e6f74206f776e6572206e6f7220617070726f76656420666f7220616c6c006064820152608401610665565b6108c584848484611ad4565b6000610cbd826111b6565b600082815260396020526040902054603880549091908110610ce157610ce16132db565b60009182526020909120600360069092020101546001600160a01b0316905080610d495760405162461bcd60e51b8152602060048201526019602482015278115490cccd4c8d4e881a5b9d985b1a59081d1bdad95b881251603a1b6044820152606401610665565b919050565b60006001600160a01b038216610dba5760405162461bcd60e51b815260206004820152602b60248201527f455243333532353a2062616c616e636520717565727920666f7220746865207a60448201526a65726f206164647265737360a81b6064820152608401610665565b506001600160a01b03166000908152603a602052604090205490565b6000610de184610cb2565b9050806001600160a01b0316836001600160a01b031603610e145760405162461bcd60e51b81526004016106659061332b565b610e1e3385611861565b610e845760405162461bcd60e51b815260206004820152603160248201527f455243333532353a20617070726f76652063616c6c6572206973206e6f74206f6044820152701ddb995c881b9bdc88185c1c1c9bdd9959607a1b6064820152608401610665565b6108c5848484611bbe565b6060603480546106fc906132f1565b6000610ea960665490565b8210610f0f5760405162461bcd60e51b815260206004820152602f60248201527f45524333353235536c6f74456e756d657261626c653a20736c6f7420696e646560448201526e78206f7574206f6620626f756e647360881b6064820152608401610665565b60668281548110610f2257610f226132db565b9060005260206000209060020201600001549050919050565b6000610f46826111b6565b600082815260396020526040902054603880549091908110610f6a57610f6a6132db565b9060005260206000209060060201600201549050919050565b610f8e338383611cf6565b5050565b610f9c3383611861565b610fb85760405162461bcd60e51b81526004016106659061341b565b6108c584848484611dc0565b6060610fcf826111b6565b6000610fe660408051602081019091526000815290565b603b549091506001600160a01b031661103257600081511161101757604051806020016040528060008152506109b6565b80611021846112a1565b60405160200161093092919061346d565b603b546040516344a5a61760e11b8152600481018590526001600160a01b039091169063894b4c2e90602401610971565b600061106e836111b6565b5060009182526037602090815260408084206001600160a01b0393909316845291905290205490565b606060006110b060408051602081019091526000815290565b603b549091506001600160a01b03166111105760008151116110e1576040518060200160405280600081525061118b565b806110eb30611e33565b6040516020016110fc92919061349c565b60405160208183030381529060405261118b565b603b60009054906101000a90046001600160a01b03166001600160a01b031663725fa09c6040518163ffffffff1660e01b8152600401600060405180830381865afa158015611163573d6000803e3d6000fd5b505050506040513d6000823e601f3d908101601f1916820160405261118b91908101906133ad565b91505090565b60006001600160e01b03198216631dba0dcf60e11b14806106c257506106c282611e49565b6111bf81611eeb565b6112075760405162461bcd60e51b8152602060048201526019602482015278115490cccd4c8d4e881a5b9d985b1a59081d1bdad95b881251603a1b6044820152606401610665565b50565b60008181526039602052604090205460388054849290811061122e5761122e6132db565b6000918252602090912060069091020160040180546001600160a01b0319166001600160a01b039283161790558190831661126882610cb2565b6001600160a01b03167f8c5be1e5ebec7d5bd14f71427d1e84f3dd0314c0f7b2291e5b200ac8c7c3b92560405160405180910390a45050565b606060006112ae83611f37565b600101905060008167ffffffffffffffff8111156112ce576112ce61312f565b6040519080825280601f01601f1916602001820160405280156112f8576020820181803683370190505b5090508181016020015b600019016f181899199a1a9b1b9c1cb0b131b232b360811b600a86061a8153600a850494508461130257509392505050565b60006113408385611063565b905061134c8484611861565b15801561135b57506000198114155b156108c557818110156113b05760405162461bcd60e51b815260206004820152601f60248201527f455243333532353a20696e73756666696369656e7420616c6c6f77616e6365006044820152606401610665565b6108c583856113bf85856134f6565b611bbe565b60006106c261200f565b6001600160a01b03841661142e5760405162461bcd60e51b815260206004820152602160248201527f455243333532353a206d696e7420746f20746865207a65726f206164647265736044820152607360f81b6064820152608401610665565b826000036114885760405162461bcd60e51b815260206004820152602160248201527f455243333532353a2063616e6e6f74206d696e74207a65726f20746f6b656e496044820152601960fa1b6064820152608401610665565b61149183611eeb565b156114de5760405162461bcd60e51b815260206004820152601d60248201527f455243333532353a20746f6b656e20616c7265616479206d696e7465640000006044820152606401610665565b6114ee6000856000868686612029565b6114f9848484612066565b611503838261212c565b6108c560008560008686866121b1565b61151c83611eeb565b6115785760405162461bcd60e51b815260206004820152602760248201527f455243333532353a207472616e736665722066726f6d20696e76616c696420746044820152661bdad95b88125160ca1b6064820152608401610665565b61158182611eeb565b6115db5760405162461bcd60e51b815260206004820152602560248201527f455243333532353a207472616e7366657220746f20696e76616c696420746f6b604482015264195b88125160da1b6064820152608401610665565b6000838152603960205260408120546038805490919081106115ff576115ff6132db565b9060005260206000209060060201905060006038603960008681526020019081526020016000205481548110611637576116376132db565b9060005260206000209060060201905082826002015410156116ae5760405162461bcd60e51b815260206004820152602a60248201527f455243333532353a20696e73756666696369656e742062616c616e636520666f60448201526939103a3930b739b332b960b11b6064820152608401610665565b806001015482600101541461171c5760405162461bcd60e51b815260206004820152602e60248201527f455243333532353a207472616e7366657220746f20746f6b656e20776974682060448201526d191a5999995c995b9d081cdb1bdd60921b6064820152608401610665565b600380830154908201546001840154611747926001600160a01b039081169216908890889088612029565b8282600201600082825461175b91906134f6565b92505081905550828160020160008282546117769190613509565b9091555050604051838152849086907f0b2aac84f3ec956911fd78eae5311062972ff949f38412e8da39069d9f068cc69060200160405180910390a36003808301549082015460018401546117dd926001600160a01b0390811692169088908890886121b1565b6117f885858560405180602001604052806000815250612222565b61185a5760405162461bcd60e51b815260206004820152602d60248201527f455243333532353a207472616e736665722072656a656374656420627920455260448201526c21999a991aa932b1b2b4bb32b960991b6064820152608401610665565b5050505050565b600061186c826111b6565b600061187783610cb2565b9050600061188484610a2b565b9050816001600160a01b0316856001600160a01b031614806118bf5750846001600160a01b03166118b48561077f565b6001600160a01b0316145b806118cf57506118cf82866105ab565b8061190757506001600160a01b03808316600090815260976020908152604080832085845282528083209389168352929052205460ff165b95945050505050565b826001600160a01b031661192382610cb2565b6001600160a01b0316146119855760405162461bcd60e51b8152602060048201526024808201527f455243333532353a207472616e736665722066726f6d20696e76616c6964206f6044820152633bb732b960e11b6064820152608401610665565b6001600160a01b0382166119e95760405162461bcd60e51b815260206004820152602560248201527f455243333532353a207472616e7366657220746f20746865207a65726f206164604482015264647265737360d81b6064820152608401610665565b60006119f482610a2b565b90506000611a0183610f3b565b9050611a11858585868686612029565b611a1c60008461120a565b611a2583612396565b611a2f8584612441565b611a398484612562565b82846001600160a01b0316866001600160a01b03167fddf252ad1be2c89b69c2b068fc378daa952ba7f163c4a11628f55a4df523b3ef60405160405180910390a461185a8585858686866121b1565b606654600090158015906106c25750600082815260676020526040902054606680548492908110611abb57611abb6132db565b9060005260206000209060020201600001541492915050565b816001600160a01b0316846001600160a01b031603611b455760405162461bcd60e51b815260206004820152602760248201527f45524333353235536c6f74417070726f7661626c653a20617070726f76652074604482015266379037bbb732b960c91b6064820152608401610665565b6001600160a01b038481166000818152609760209081526040808320888452825280832094871680845294825291829020805460ff191686151590811790915591519182528692917f7bdf71e6625aa496095bf08b60c677cf81c963f402cf258981e3bd7507d3480c910160405180910390a450505050565b6001600160a01b038216611c275760405162461bcd60e51b815260206004820152602a60248201527f455243333532353a20617070726f76652076616c756520746f20746865207a65604482015269726f206164647265737360b01b6064820152608401610665565b611c3182846125eb565b611c9757600083815260396020526040902054603880549091908110611c5957611c596132db565b60009182526020808320600692909202909101600501805460018101825590835291200180546001600160a01b0319166001600160a01b0384161790555b60008381526037602090815260408083206001600160a01b038616808552908352928190208490555183815285917f621b050de0ad08b51d19b48b3e6df75348c4de6bdd93e81b252ca62e28265b1b91015b60405180910390a3505050565b816001600160a01b0316836001600160a01b031603611d575760405162461bcd60e51b815260206004820152601a60248201527f455243333532353a20617070726f766520746f2063616c6c65720000000000006044820152606401610665565b6001600160a01b038381166000818152603a602090815260408083209487168084526002909501825291829020805460ff191686151590811790915591519182527f17307eab39ab6107e8899845ad3d59bd9653f200f220920489ca2b5937696c319101611ce9565b611dcb848484611910565b611dd7848484846126be565b6108c55760405162461bcd60e51b815260206004820152602760248201527f455243333532353a207472616e7366657220746f206e6f6e204552433732315260448201526632b1b2b4bb32b960c91b6064820152608401610665565b60606106c26001600160a01b0383166014612804565b60006001600160e01b031982166301ffc9a760e01b1480611e7a57506001600160e01b03198216630354d60560e61b145b80611e9557506001600160e01b031982166380ac58cd60e01b145b80611eb057506001600160e01b031982166370b0048160e11b145b80611ecb57506001600160e01b0319821663780e9d6360e01b145b806106c257506001600160e01b03198216635b5e139f60e01b1492915050565b603854600090158015906106c25750600082815260396020526040902054603880548492908110611f1e57611f1e6132db565b9060005260206000209060060201600001541492915050565b60008072184f03e93ff9f4daa797ed6e38ed64bf6a1f0160401b8310611f765772184f03e93ff9f4daa797ed6e38ed64bf6a1f0160401b830492506040015b6d04ee2d6d415b85acef81000000008310611fa2576d04ee2d6d415b85acef8100000000830492506020015b662386f26fc100008310611fc057662386f26fc10000830492506010015b6305f5e1008310611fd8576305f5e100830492506008015b6127108310611fec57612710830492506004015b60648310611ffe576064830492506002015b600a83106106c25760010192915050565b60368054600091826120208361351c565b91905055905090565b6001600160a01b03861615801561203e575083155b8015612050575061204e82611a88565b155b1561205e5761205e826129a0565b505050505050565b6040805160c081018252838152602080820184905260008284018190526001600160a01b038716606084015260808301819052835181815291820190935260a082015290506120b481612a67565b6120be8484612562565b60405183906001600160a01b038616906000907fddf252ad1be2c89b69c2b068fc378daa952ba7f163c4a11628f55a4df523b3ef908290a4816000847fe4f48c240d3b994948aa54f3e2f5fca59263dfe1d52b6e4cf39a5d249b5ccb6560405160405180910390a450505050565b600082815260396020526040902054603880548392908110612150576121506132db565b906000526020600020906006020160020160008282546121709190613509565b909155505060405181815282906000907f0b2aac84f3ec956911fd78eae5311062972ff949f38412e8da39069d9f068cc69060200160405180910390a35050565b6001600160a01b0386161580156121c6575083155b80156121d957506121d78284612bb9565b155b156121ed576121e88284612c44565b61205e565b6001600160a01b038516158015612202575082155b801561221357506122138285612bb9565b156121e8576121e88285612ca5565b60008061222e85610cb2565b9050803b63ffffffff1615612388576040516301ffc9a760e01b8152629ce20b60e01b60048201526001600160a01b038216906301ffc9a790602401602060405180830381865afa9250505080156122a3575060408051601f3d908101601f191682019092526122a091810190613535565b60015b6122e2573d8080156122d1576040519150601f19603f3d011682016040523d82523d6000602084013e6122d6565b606091505b5060019250505061238e565b801561237d57604051629ce20b60e01b81526000906001600160a01b03841690629ce20b9061231d9033908c908c908c908c90600401613552565b6020604051808303816000875af115801561233c573d6000803e3d6000fd5b505050506040513d601f19601f820116820180604052508101906123609190613590565b6001600160e01b031916629ce20b60e01b14935061238e92505050565b60019250505061238e565b60019150505b949350505050565b6000818152603960205260408120546038805490919081106123ba576123ba6132db565b600091825260208220600560069092020190810154909250905b818110156124325760008360050182815481106123f3576123f36132db565b60009182526020808320909101548783526037825260408084206001600160a01b0390921684529152812055508061242a8161351c565b9150506123d4565b50610a26600583016000612e0e565b600081815260396020526040812054603880549091908110612465576124656132db565b6000918252602080832060069290920290910160030180546001600160a01b0319166001600160a01b039485161790559184168152603a9091526040812080549091906124b4906001906134f6565b905060008260000182815481106124cd576124cd6132db565b9060005260206000200154905060008360010160008681526020019081526020016000205490508184600001828154811061250a5761250a6132db565b60009182526020808320909101929092558381526001860190915260408082208390558682528120558354849080612544576125446135ad565b60019003818190600052602060002001600090559055505050505050565b600081815260396020526040902054603880548492908110612586576125866132db565b6000918252602080832060069290920290910160030180546001600160a01b0319166001600160a01b03948516179055939091168152603a80845260408083208054858552600182810188529285208190559286529082018155825292902090910155565b60008181526039602052604081205460388054839290811061260f5761260f6132db565b6000918252602082206005600690920201015491505b818110156126b357600084815260396020526040902054603880546001600160a01b0388169290811061265a5761265a6132db565b9060005260206000209060060201600501828154811061267c5761267c6132db565b6000918252602090912001546001600160a01b0316036126a1576001925050506106c2565b806126ab8161351c565b915050612625565b506000949350505050565b6000833b63ffffffff16156127fc57604051630a85bd0160e11b81526001600160a01b0385169063150b7a02906126ff9033908990889088906004016135c3565b6020604051808303816000875af192505050801561273a575060408051601f3d908101601f1916820190925261273791810190613590565b60015b6127e2573d808015612768576040519150601f19603f3d011682016040523d82523d6000602084013e61276d565b606091505b5080516000036127da5760405162461bcd60e51b815260206004820152603260248201527f4552433732313a207472616e7366657220746f206e6f6e20455243373231526560448201527131b2b4bb32b91034b6b83632b6b2b73a32b960711b6064820152608401610665565b805181602001fd5b6001600160e01b031916630a85bd0160e11b14905061238e565b50600161238e565b60606000612813836002613600565b61281e906002613509565b67ffffffffffffffff8111156128365761283661312f565b6040519080825280601f01601f191660200182016040528015612860576020820181803683370190505b509050600360fc1b8160008151811061287b5761287b6132db565b60200101906001600160f81b031916908160001a905350600f60fb1b816001815181106128aa576128aa6132db565b60200101906001600160f81b031916908160001a90535060006128ce846002613600565b6128d9906001613509565b90505b6001811115612951576f181899199a1a9b1b9c1cb0b131b232b360811b85600f166010811061290d5761290d6132db565b1a60f81b828281518110612923576129236132db565b60200101906001600160f81b031916908160001a90535060049490941c9361294a81613617565b90506128dc565b5083156109b65760405162461bcd60e51b815260206004820181905260248201527f537472696e67733a20686578206c656e67746820696e73756666696369656e746044820152606401610665565b6129a981611a88565b15612a095760405162461bcd60e51b815260206004820152602a60248201527f45524333353235536c6f74456e756d657261626c653a20736c6f7420616c72656044820152696164792065786973747360b01b6064820152608401610665565b604080518082018252828152815160008082526020828101909452928201529050612a3381612d89565b816000807fe4f48c240d3b994948aa54f3e2f5fca59263dfe1d52b6e4cf39a5d249b5ccb6560405160405180910390a45050565b603880548251600090815260396020908152604080832084905560018401855593909152835160069092027f38395c5dceade9603479b177b68959049485df8aa97b39f3533039af5f4561998101928355818501517f38395c5dceade9603479b177b68959049485df8aa97b39f3533039af5f45619a820155928401517f38395c5dceade9603479b177b68959049485df8aa97b39f3533039af5f45619b84015560608401517f38395c5dceade9603479b177b68959049485df8aa97b39f3533039af5f45619c840180546001600160a01b039283166001600160a01b03199182161790915560808601517f38395c5dceade9603479b177b68959049485df8aa97b39f3533039af5f45619d8601805491909316911617905560a0840151805185946108c5937f38395c5dceade9603479b177b68959049485df8aa97b39f3533039af5f45619e909101920190612e2c565b600082815260676020526040812054606680548392908110612bdd57612bdd6132db565b906000526020600020906002020190506000816001018054905011801561238e575060008481526065602090815260408083208684529091529020546001820180548592908110612c3057612c306132db565b906000526020600020015414949350505050565b600082815260676020526040812054606680549091908110612c6857612c686132db565b6000918252602080832060016002909302018201805496845260658252604080852087865283528420879055918601825590825290209092015550565b600082815260676020526040812054606680549091908110612cc957612cc96132db565b600091825260208220600160029092020181810154909350612ceb91906134f6565b90506000826001018281548110612d0457612d046132db565b6000918252602080832090910154878352606582526040808420888552909252912054600185018054929350909183919083908110612d4557612d456132db565b6000918252602080832091909101929092558781526065825260408082208583529092528181208390558681529081205560018401805480612544576125446135ad565b60668054825160009081526067602090815260408220839055600183018455929052825160029091027f46501879b8ca8525e8c2fd519e2fbfcfa2ebea26501294aa02cbfcfb12e94354810191825582840151805185946108c5937f46501879b8ca8525e8c2fd519e2fbfcfa2ebea26501294aa02cbfcfb12e9435501920190612e91565b50805460008255906000526020600020908101906112079190612ecc565b828054828255906000526020600020908101928215612e81579160200282015b82811115612e8157825182546001600160a01b0319166001600160a01b03909116178255602090920191600190910190612e4c565b50612e8d929150612ecc565b5090565b828054828255906000526020600020908101928215612e81579160200282015b82811115612e81578251825591602001919060010190612eb1565b5b80821115612e8d5760008155600101612ecd565b60008060408385031215612ef457600080fd5b50508035926020909101359150565b6001600160e01b03198116811461120757600080fd5b600060208284031215612f2b57600080fd5b81356109b681612f03565b60005b83811015612f51578181015183820152602001612f39565b50506000910152565b60008151808452612f72816020860160208601612f36565b601f01601f19169290920160200192915050565b6020815260006109b66020830184612f5a565b600060208284031215612fab57600080fd5b5035919050565b80356001600160a01b0381168114610d4957600080fd5b60008060408385031215612fdc57600080fd5b612fe583612fb2565b946020939093013593505050565b60008060006060848603121561300857600080fd5b8335925061301860208501612fb2565b9150604084013590509250925092565b60008060006060848603121561303d57600080fd5b61304684612fb2565b925061301860208501612fb2565b60008060006060848603121561306957600080fd5b505081359360208301359350604090920135919050565b801515811461120757600080fd5b600080600080608085870312156130a457600080fd5b6130ad85612fb2565b9350602085013592506130c260408601612fb2565b915060608501356130d281613080565b939692955090935050565b6000602082840312156130ef57600080fd5b6109b682612fb2565b6000806040838503121561310b57600080fd5b61311483612fb2565b9150602083013561312481613080565b809150509250929050565b634e487b7160e01b600052604160045260246000fd5b604051601f8201601f1916810167ffffffffffffffff8111828210171561316e5761316e61312f565b604052919050565b600067ffffffffffffffff8211156131905761319061312f565b50601f01601f191660200190565b600080600080608085870312156131b457600080fd5b6131bd85612fb2565b93506131cb60208601612fb2565b925060408501359150606085013567ffffffffffffffff8111156131ee57600080fd5b8501601f810187136131ff57600080fd5b803561321261320d82613176565b613145565b81815288602083850101111561322757600080fd5b8160208401602083013760006020838301015280935050505092959194509250565b6000806040838503121561325c57600080fd5b8235915061326c60208401612fb2565b90509250929050565b60008060006060848603121561328a57600080fd5b61329384612fb2565b9250602084013591506132a860408501612fb2565b90509250925092565b600080604083850312156132c457600080fd5b6132cd83612fb2565b915061326c60208401612fb2565b634e487b7160e01b600052603260045260246000fd5b600181811c9082168061330557607f821691505b60208210810361332557634e487b7160e01b600052602260045260246000fd5b50919050565b60208082526022908201527f455243333532353a20617070726f76616c20746f2063757272656e74206f776e60408201526132b960f11b606082015260800190565b6000835161337f818460208801612f36565b64736c6f742f60d81b90830190815283516133a1816005840160208801612f36565b01600501949350505050565b6000602082840312156133bf57600080fd5b815167ffffffffffffffff8111156133d657600080fd5b8201601f810184136133e757600080fd5b80516133f561320d82613176565b81815285602083850101111561340a57600080fd5b611907826020830160208601612f36565b60208082526032908201527f455243333532353a207472616e736665722063616c6c6572206973206e6f74206040820152711bdddb995c881b9bdc88185c1c1c9bdd995960721b606082015260800190565b6000835161347f818460208801612f36565b835190830190613493818360208801612f36565b01949350505050565b600083516134ae818460208801612f36565b68636f6e74726163742f60b81b90830190815283516134d4816009840160208801612f36565b01600901949350505050565b634e487b7160e01b600052601160045260246000fd5b818103818111156106c2576106c26134e0565b808201808211156106c2576106c26134e0565b60006001820161352e5761352e6134e0565b5060010190565b60006020828403121561354757600080fd5b81516109b681613080565b60018060a01b038616815284602082015283604082015282606082015260a06080820152600061358560a0830184612f5a565b979650505050505050565b6000602082840312156135a257600080fd5b81516109b681612f03565b634e487b7160e01b600052603160045260246000fd5b6001600160a01b03858116825284166020820152604081018390526080606082018190526000906135f690830184612f5a565b9695505050505050565b80820281158282048414176106c2576106c26134e0565b600081613626576136266134e0565b50600019019056fea2646970667358221220fee5e94c73639ed6fe3f6a6ad9a884fd0dca4c8e5cf39e71f82da93e9ff18db364736f6c63430008140033496e697469616c697a61626c653a20636f6e7472616374206973206e6f742069",
  "linkReferences": {},
  "deployedLinkReferences": {}
}