{
  "_format": "hh-sol-artifact-1",
  "contractName": "ERC3525MetadataDescriptorUpgradeableWithInit",
  "sourceName": "contracts/mocks/ERC3525BaseMockUpgradeableWithInit.sol",
  "abi": [
    {
      "inputs": [],
      "stateMutability": "payable",
      "type": "constructor"
    },
    {
      "anonymous": false,
      "inputs": [
        {
          "indexed": false,
          "internalType": "uint8",
          "name": "version",
          "type": "uint8"
        }
      ],
      "name": "Initialized",
      "type": "event"
    },
    {
      "inputs": [],
      "name": "constructContractURI",
      "outputs": [
        {
          "internalType": "string",
          "name": "",
          "type": "string"
        }
      ],
      "stateMutability": "view",
      "type": "function"
    },
    {
      "inputs": [
        {
          "internalType": "uint256",
          "name": "slot_",
          "type": "uint256"
        }
      ],
      "name": "constructSlotURI",
      "outputs": [
        {
          "internalType": "string",
          "name": "",
          "type": "string"
        }
      ],
      "stateMutability": "view",
      "type": "function"
    },
    {
      "inputs": [
        {
          "internalType": "uint256",
          "name": "tokenId_",
          "type": "uint256"
        }
      ],
      "name": "constructTokenURI",
      "outputs": [
        {
          "internalType": "string",
          "name": "",
          "type": "string"
        }
      ],
      "stateMutability": "view",
      "type": "function"
    }
  ],
  "bytecode": "0x6080604052600054610100900460ff16158080156100245750600054600160ff909116105b8061003e5750303b15801561003e575060005460ff166001145b6100a65760405162461bcd60e51b815260206004820152602e60248201527f496e697469616c697a61626c653a20636f6e747261637420697320616c72656160448201526d191e481a5b9a5d1a585b1a5e995960921b60648201526084015b60405180910390fd5b6000805460ff1916600117905580156100c9576000805461ff0019166101001790555b6100d161011d565b8015610117576000805461ff0019169055604051600181527f7f26b83ff96e1f2b6a682f133852f6798a09c465da95921460cefb38474024989060200160405180910390a15b5061018a565b600054610100900460ff166101885760405162461bcd60e51b815260206004820152602b60248201527f496e697469616c697a61626c653a20636f6e7472616374206973206e6f74206960448201526a6e697469616c697a696e6760a81b606482015260840161009d565b565b610c76806101996000396000f3fe608060405234801561001057600080fd5b50600436106100415760003560e01c80636c037f8a14610046578063725fa09c1461006f578063894b4c2e14610077575b600080fd5b6100596100543660046106c3565b61008a565b6040516100669190610700565b60405180910390f35b61005961011c565b6100596100853660046106c3565b61024f565b60606100f66100a460408051602081019091526000815290565b60408051602080820183526000808352835180830185529081528351808501855260028152615b5d60f01b8184015293516100e2959491920161074f565b604051602081830303815290604052610375565b604051602001610106919061081d565b6040516020818303038152906040529050919050565b6060600033905061022a816001600160a01b03166306fdde036040518163ffffffff1660e01b8152600401600060405180830381865afa158015610164573d6000803e3d6000fd5b505050506040513d6000823e601f3d908101601f1916820160405261018c9190810190610878565b604080516020810190915260008152604080516020810190915260008152610217856001600160a01b0316633e7e86696040518163ffffffff1660e01b8152600401602060405180830381865afa1580156101eb573d6000803e3d6000fd5b505050506040513d601f19601f8201168201806040525081019061020f9190610925565b60ff166104d5565b6040516020016100e2949392919061094f565b60405160200161023a919061081d565b60405160208183030381529060405291505090565b60603361034e61025e84610568565b604080516020810190915260008152604080516020810190915260008152604051631398fee160e31b8152600481018890526102ef906001600160a01b03871690639cc7f708906024015b602060405180830381865afa1580156102c6573d6000803e3d6000fd5b505050506040513d601f19601f820116820180604052508101906102ea9190610a22565b6104d5565b60405163131f9f3f60e11b815260048101899052610320906001600160a01b0388169063263f3e7e906024016102a9565b6040805180820190915260028152617b7d60f01b60208201526040516020016100e296959493929190610a3b565b60405160200161035e919061081d565b604051602081830303815290604052915050919050565b6060815160000361039457505060408051602081019091526000815290565b6000604051806060016040528060408152602001610c0160409139905060006003845160026103c39190610b77565b6103cd9190610b8a565b6103d8906004610bac565b67ffffffffffffffff8111156103f0576103f0610862565b6040519080825280601f01601f19166020018201604052801561041a576020820181803683370190505b50905060018201602082018586518701602081018051600082525b82841015610490576003840193508351603f8160121c168701518653600186019550603f81600c1c168701518653600186019550603f8160061c168701518653600186019550603f8116870151865350600185019450610435565b90525050855160039006600181146104af57600281146104c2576104ca565b603d6001830353603d60028303536104ca565b603d60018303535b509195945050505050565b606060006104e2836105ea565b600101905060008167ffffffffffffffff81111561050257610502610862565b6040519080825280601f01601f19166020018201604052801561052c576020820181803683370190505b5090508181016020015b600019016f181899199a1a9b1b9c1cb0b131b232b360811b600a86061a8153600a850494508461053657509392505050565b6060336001600160a01b03166306fdde036040518163ffffffff1660e01b8152600401600060405180830381865afa1580156105a8573d6000803e3d6000fd5b505050506040513d6000823e601f3d908101601f191682016040526105d09190810190610878565b6105d9836104d5565b604051602001610106929190610bc3565b60008072184f03e93ff9f4daa797ed6e38ed64bf6a1f0160401b83106106295772184f03e93ff9f4daa797ed6e38ed64bf6a1f0160401b830492506040015b6d04ee2d6d415b85acef81000000008310610655576d04ee2d6d415b85acef8100000000830492506020015b662386f26fc10000831061067357662386f26fc10000830492506010015b6305f5e100831061068b576305f5e100830492506008015b612710831061069f57612710830492506004015b606483106106b1576064830492506002015b600a83106106bd576001015b92915050565b6000602082840312156106d557600080fd5b5035919050565b60005b838110156106f75781810151838201526020016106df565b50506000910152565b602081526000825180602084015261071f8160408501602087016106dc565b601f01601f19169190910160400192915050565b600081516107458185602086016106dc565b9290920192915050565b683d913730b6b2911d1160b91b81528451600090610774816009850160208a016106dc565b701116113232b9b1b934b83a34b7b7111d1160791b60099184019182015285516107a581601a840160208a016106dc565b6a11161134b6b0b3b2911d1160a91b601a929091019182015284516107d18160258401602089016106dc565b6e111611383937b832b93a34b2b9911d60891b6025929091019182015283516108018160348401602088016106dc565b607d60f81b603492909101918201526035019695505050505050565b7f646174613a6170706c69636174696f6e2f6a736f6e3b6261736536342c00000081526000825161085581601d8501602087016106dc565b91909101601d0192915050565b634e487b7160e01b600052604160045260246000fd5b60006020828403121561088a57600080fd5b815167ffffffffffffffff808211156108a257600080fd5b818401915084601f8301126108b657600080fd5b8151818111156108c8576108c8610862565b604051601f8201601f19908116603f011681019083821181831017156108f0576108f0610862565b8160405282815287602084870101111561090957600080fd5b61091a8360208301602088016106dc565b979650505050505050565b60006020828403121561093757600080fd5b815160ff8116811461094857600080fd5b9392505050565b683d913730b6b2911d1160b91b81528451600090610974816009850160208a016106dc565b701116113232b9b1b934b83a34b7b7111d1160791b60099184019182015285516109a581601a840160208a016106dc565b6a11161134b6b0b3b2911d1160a91b601a929091019182015284516109d18160258401602089016106dc565b721116113b30b63ab2a232b1b4b6b0b639911d1160691b602592909101918201528351610a058160388401602088016106dc565b61227d60f01b60389290910191820152603a019695505050505050565b600060208284031215610a3457600080fd5b5051919050565b683d913730b6b2911d1160b91b81528651600090610a60816009850160208c016106dc565b701116113232b9b1b934b83a34b7b7111d1160791b6009918401918201528751610a9181601a840160208c016106dc565b6a11161134b6b0b3b2911d1160a91b601a92909101918201528651610abd816025840160208b016106dc565b6c1116113130b630b731b2911d1160991b602592909101918201528551610aeb816032840160208a016106dc565b6911161139b637ba111d1160b11b603292909101918201528451610b1681603c8401602089016106dc565b610b53610b46610b40603c848601016e111611383937b832b93a34b2b9911d60891b8152600f0190565b87610733565b607d60f81b815260010190565b9a9950505050505050505050565b634e487b7160e01b600052601160045260246000fd5b808201808211156106bd576106bd610b61565b600082610ba757634e487b7160e01b600052601260045260246000fd5b500490565b80820281158282048414176106bd576106bd610b61565b60008351610bd58184602088016106dc565b61202360f01b9083019081528351610bf48160028401602088016106dc565b0160020194935050505056fe4142434445464748494a4b4c4d4e4f505152535455565758595a6162636465666768696a6b6c6d6e6f707172737475767778797a303132333435363738392b2fa264697066735822122091cbd7306236bae325967d18d9edf188a9c096fb4926ce0f72a11aa0ac2fed9a64736f6c63430008140033",
  "linkReferences": {},
  "deployedLinkReferences": {}
}